Component: ARM Compiler 5.06 update 6 (build 750) Tool: armlink [4d35ed]

==============================================================================

Section Cross References

    proj_main.o(i.proj_ble_gap_evt_func) refers to gap_api.o(i.gap_get_connect_num) for gap_get_connect_num
    proj_main.o(i.proj_ble_gap_evt_func) refers to gap_api.o(i.gap_conn_param_update) for gap_conn_param_update
    proj_main.o(i.proj_ble_gap_evt_func) refers to gap_api.o(i.gap_start_advertising) for gap_start_advertising
    proj_main.o(i.proj_ble_gap_evt_func) refers to proj_main.o(.data) for .data
    proj_main.o(i.proj_init) refers to co_log.o(i.log_printf_level) for log_printf_level
    proj_main.o(i.proj_init) refers to co_log.o(i.log_printf) for log_printf
    proj_main.o(i.proj_init) refers to sys_utisl.o(ram_code) for pmu_get_rc_clk
    proj_main.o(i.proj_init) refers to sys_utisl.o(i.system_sleep_disable) for system_sleep_disable
    proj_main.o(i.proj_init) refers to proj_main.o(i.__NVIC_EnableIRQ) for __NVIC_EnableIRQ
    proj_main.o(i.proj_init) refers to gap_api.o(i.gap_set_advertising_param) for gap_set_advertising_param
    proj_main.o(i.proj_init) refers to gap_api.o(i.gap_set_advertising_data) for gap_set_advertising_data
    proj_main.o(i.proj_init) refers to gap_api.o(i.gap_set_advertising_rsp_data) for gap_set_advertising_rsp_data
    proj_main.o(i.proj_init) refers to prf_server.o(i.prf_server_create) for prf_server_create
    proj_main.o(i.proj_init) refers to prf_client.o(i.prf_client_create) for prf_client_create
    proj_main.o(i.proj_init) refers to proj_main.o(.data) for .data
    proj_main.o(i.user_main) refers to co_log.o(i.log_init) for log_init
    proj_main.o(i.user_main) refers to printfa.o(i.__0printf) for __2printf
    proj_main.o(i.user_main) refers to driver_pmu.o(i.pmu_sub_init) for pmu_sub_init
==============================================================================

Removing Unused input sections from the image.

    Removing proj_main.o(.rev16_text), (4 bytes).
    Removing proj_main.o(.revsh_text), (4 bytes).
    Removing proj_main.o(.rrx_text), (6 bytes).
    Removing proj_main.o(i.proj_ble_gap_evt_func), (680 bytes).
    Removing proj_main.o(i.proj_init), (272 bytes).
    Removing proj_main.o(.conststring), (8 bytes).
    Removing proj_main.o(.data), (8 bytes).
    Removing proj_main.o(.data), (1 bytes).
    Removing prf_client.o(i.client_msg_handler), (180 bytes).
    Removing prf_client.o(i.prf_client_create), (40 bytes).
    Removing prf_client.o(.constdata), (34 bytes).
    Removing prf_client.o(.data), (1 bytes).
    Removing prf_server.o(.rev16_text), (4 bytes).
    Removing prf_server.o(.revsh_text), (4 bytes).
    Removing prf_server.o(.rrx_text), (6 bytes).
    Removing prf_server.o(i.prf_server_create), (68 bytes).
    Removing prf_server.o(i.svc1_msg_handler), (36 bytes).
    Removing prf_server.o(i.svc_msg_handler), (192 bytes).
==============================================================================

Adding Veneers to the image

    Adding TT veneer (10 bytes, Long) for call to 'eqr4EzQ9' from zksec.o(i.FyG6GBeJ0lVg).
    Adding TT veneer (10 bytes, Long) for call to 'memcmp' from zksec.o(i.FyG6GBeJ0lVg).
    Adding TT veneer (10 bytes, Long) for call to 'co_delay_10us' from uartupgradedev.o(i.HAL_Delay).
    Adding TT veneer (10 bytes, Long) for call to 'aes_decrypt' from zksec.o(i.ICJ7hyDFI99I7bC).
    Adding TT veneer (10 bytes, Long) for call to 'co_delay_100us' from zksec.o(i.ICJ7hyDFI99I7bC).
    Adding TT veneer (10 bytes, Long) for call to 'ble_stack_schedule_allow' from zksec.o(i.ICJ7hyDFI99I7bC).
    Adding TT veneer (10 bytes, Long) for call to 'ble_stack_schedule' from zksec.o(i.ICJ7hyDFI99I7bC).
    Adding TT veneer (10 bytes, Long) for call to 'ble_stack_schedule_backward' from zksec.o(i.ICJ7hyDFI99I7bC).
    Adding TT veneer (10 bytes, Long) for call to '__aeabi_memclr' from ring.o(i.InitQueue).
    Adding TT veneer (10 bytes, Long) for call to '__aeabi_memcpy' from ring.o(i.PeekQueue).
    Adding TT veneer (10 bytes, Long) for call to 'CPU_SR_Save' from zksec.o(i.RRnQEZ5CzfNbBxz).
    Adding TT veneer (10 bytes, Long) for call to 'qspi_stig_cmd' from zksec.o(i.RRnQEZ5CzfNbBxz).
    Adding TT veneer (10 bytes, Long) for call to 'CPU_SR_Restore' from zksec.o(i.RRnQEZ5CzfNbBxz).
    Adding TT veneer (10 bytes, Long) for call to 'flash_read_id' from zksec.o(i.RRnQEZ5CzfNbBxz).
    Adding TT veneer (10 bytes, Long) for call to '__aeabi_memcpy4' from guicontext.o(i._do_widget_proc).
    Adding TT veneer (10 bytes, Long) for call to 'rect_is_hit' from label.o(i._draw_font_graph).
    Adding TT veneer (10 bytes, Long) for call to 'resource_read' from label.o(i._get_code_data_offset).
    Adding TT veneer (10 bytes, Long) for call to '__aeabi_memclr4' from guicontext.o(i._load_page).
    Adding TT veneer (10 bytes, Long) for call to 'ke_state_set' from app_proj_event.o(i.app_act_created_ind_func).
    Adding TT veneer (10 bytes, Long) for call to 'system_set_port_mux' from entry.o(i.app_main).
    Adding TT veneer (10 bytes, Long) for call to 'app_boot_get_storage_type' from entry.o(i.app_main).
    Adding TT veneer (10 bytes, Long) for call to 'flash_read_status' from entry.o(i.app_main).
    Adding TT veneer (10 bytes, Long) for call to 'flash_write_status' from entry.o(i.app_main).
    Adding TT veneer (10 bytes, Long) for call to 'pmu_set_ioldo_ref_sel' from entry.o(i.app_main).
    Adding TT veneer (10 bytes, Long) for call to 'intc_init' from entry.o(i.app_main).
    Adding TT veneer (10 bytes, Long) for call to 'srand' from entry.o(i.app_main).
    Adding TT veneer (10 bytes, Long) for call to 'ke_free' from app.o(i.appm_adv_recv_gapm_cmp).
    Adding TT veneer (10 bytes, Long) for call to 'ke_msg_alloc' from app.o(i.appm_create_aux_adv_act).
    Adding TT veneer (10 bytes, Long) for call to 'ke_msg_send' from app.o(i.appm_create_aux_adv_act).
    Adding TT veneer (10 bytes, Long) for call to 'co_list_pop_front' from app.o(i.appm_exc_activity_cmp).
    Adding TT veneer (10 bytes, Long) for call to 'ke_malloc' from app.o(i.appm_execute_activity_cmd).
    Adding TT veneer (10 bytes, Long) for call to 'co_list_push_back' from app.o(i.appm_execute_activity_cmd).
    Adding TT veneer (10 bytes, Long) for call to 'co_list_init' from app.o(i.appm_init_imp).
    Adding TT veneer (10 bytes, Long) for call to 'ke_task_create' from app.o(i.appm_init_imp).
    Adding TT veneer (10 bytes, Long) for call to 'ke_timer_clear' from attc.o(i.attc_l2cc_pdu_recv_handler).
    Adding TT veneer (10 bytes, Long) for call to 'ke_timer_set' from attc.o(i.attc_send_att_req).
    Adding TT veneer (10 bytes, Long) for call to 'ke_msg_free' from attc.o(i.attc_send_read_ind).
    Adding TT veneer (10 bytes, Long) for call to 'co_list_size' from atts.o(i.atts_find_by_type_req).
    Adding TT veneer (10 bytes, Long) for call to 'ke_state_get' from atts.o(i.atts_l2cc_pdu_recv_handler).
    Adding TT veneer (10 bytes, Long) for call to 'co_list_push_front' from atts.o(i.atts_prepare_write_req).
    Adding TT veneer (10 bytes, Long) for call to 'co_list_insert_before' from atts.o(i.atts_store_prep_data).
    Adding TT veneer (10 bytes, Long) for call to 'co_printf' from user_bond_manage.o(i.ble_bond_get_info).
    Adding TT veneer (10 bytes, Long) for call to 'flash_read' from user_bond_manage.o(i.ble_bond_read_info_from_flash).
    Adding TT veneer (10 bytes, Long) for call to 'flash_erase' from user_bond_manage.o(i.ble_bond_write_info_to_flash).
    Adding TT veneer (10 bytes, Long) for call to 'flash_write' from user_bond_manage.o(i.ble_bond_write_info_to_flash).
    Adding TT veneer (10 bytes, Long) for call to 'em_ble_generate_base_address_table' from jump_table_host.o(i.ble_stack_configure).
    Adding TT veneer (10 bytes, Long) for call to 'ble_util_buf_init_env' from jump_table_host.o(i.ble_stack_configure).
    Adding TT veneer (10 bytes, Long) for call to 'llm_init_act_info_buf' from jump_table_host.o(i.ble_stack_configure).
    Adding TT veneer (10 bytes, Long) for call to 'rwip_init' from app.o(i.ble_stack_init).
    Adding TT veneer (10 bytes, Long) for call to 'GLOBAL_INT_START' from app.o(i.ble_stack_init).
    Adding TT veneer (10 bytes, Long) for call to 'rwip_schedule' from app.o(i.ble_stack_init).
    Adding TT veneer (10 bytes, Long) for call to 'vFjjTyMa' from zksec.o(i.dxjW68jVf0X_q).
    Adding TT veneer (10 bytes, Long) for call to 'G3b61UV4' from zksec.o(i.dxjW68jVf0X_q).
    Adding TT veneer (10 bytes, Long) for call to 'rand' from app_sec.o(i.gapc_bond_req_ind_handler).
    Adding TT veneer (10 bytes, Long) for call to 'hci_send_2_controller' from gapc_task.o(i.gapc_disconnect_cmd_handler).
    Adding TT veneer (10 bytes, Long) for call to 'ke_msg_src_id_get' from gapc.o(i.gapc_get_requester).
    Adding TT veneer (10 bytes, Long) for call to 'ke_timer_active' from gapc_task.o(i.gapc_key_press_notification_cmd_handler).
    Adding TT veneer (10 bytes, Long) for call to 'ke_msg_in_queue' from gapc.o(i.gapc_operation_cleanup).
    Adding TT veneer (10 bytes, Long) for call to 'ke_msg_forward' from gapc.o(i.gapc_reschedule_operation).
    Adding TT veneer (10 bytes, Long) for call to 'hci_basic_cmd_send_2_controller' from gapm_cfg.o(i.gapm_get_dev_info_cmd_handler).
    Adding TT veneer (10 bytes, Long) for call to 'platform_reset' from gapm_cfg.o(i.gapm_reset_cmd_handler).
    Adding TT veneer (10 bytes, Long) for call to 'aes_encrypt' from gapm_smp.o(i.gapm_smp_encrypt_req).
    Adding TT veneer (10 bytes, Long) for call to 'aes_rand' from gapm_smp.o(i.gapm_smp_rand_req).
    Adding TT veneer (10 bytes, Long) for call to 'ke_check_malloc' from gattc_task.o(i.gattc_cmp_evt_handler).
    Adding TT veneer (10 bytes, Long) for call to 'co_list_extract' from gattc_task.o(i.gattc_reg_to_peer_evt_cmd_handler).
    Adding TT veneer (10 bytes, Long) for call to 'ke_msg_send_basic' from gattc_task.o(i.gattc_timeout_handler).
    Adding TT veneer (10 bytes, Long) for call to 'rect_does_intersect' from guicontext.o(i.gui_context_invalidate).
    Adding TT veneer (10 bytes, Long) for call to 'ble_util_buf_rx_free' from l2cc_task.o(i.hci_acl_data_handler).
    Adding TT veneer (10 bytes, Long) for call to 'ke_event_set' from l2cc_task.o(i.hci_nb_cmp_pkts_evt_handler).
    Adding TT veneer (10 bytes, Long) for call to 'rect_intersect' from imagetext.o(i.imagetext_proc).
    Adding TT veneer (10 bytes, Long) for call to 'uart_init' from uartupgradedev.o(i.initdev).
    Adding TT veneer (10 bytes, Long) for call to '__aeabi_memset' from jump_table_host.o(i.jump_table_memmory_init).
    Adding TT veneer (10 bytes, Long) for call to 'ke_mem_init' from jump_table_host.o(i.jump_table_memmory_init).
    Adding TT veneer (10 bytes, Long) for call to 'ble_util_buf_acl_tx_alloc' from l2cc.o(i.l2cc_data_send).
    Adding TT veneer (10 bytes, Long) for call to 'ble_util_buf_acl_tx_free' from l2cc.o(i.l2cc_data_send).
    Adding TT veneer (10 bytes, Long) for call to 'ke_event_callback_set' from l2cm.o(i.l2cm_init).
    Adding TT veneer (10 bytes, Long) for call to 'ke_event_clear' from l2cm.o(i.l2cm_init).
    Adding TT veneer (10 bytes, Long) for call to 'frspim_rd' from driver_pmu.o(i.lvd_threshold).
    Adding TT veneer (10 bytes, Long) for call to 'frspim_wr' from driver_pmu.o(i.lvd_threshold).
    Adding TT veneer (10 bytes, Long) for call to '_resource_internal_read' from resource.o(i.pKKFrMQUHba).
    Adding TT veneer (10 bytes, Long) for call to 'pmu_clear_isr_state' from sys_utisl.o(i.pmu_calibration_restart).
    Adding TT veneer (10 bytes, Long) for call to 'flash_OTP_read' from driver_pmu.o(i.pmu_ft_trim_config).
    Adding TT veneer (10 bytes, Long) for call to 'pmu_enable_isr' from driver_pmu.o(i.pmu_lvd_en).
    Adding TT veneer (10 bytes, Long) for call to 'system_osc_doubler_calibration' from driver_pmu.o(i.pmu_sub_init).
    Adding TT veneer (10 bytes, Long) for call to 'pmu_calibration_start' from driver_pmu.o(i.pmu_sub_init).
    Adding TT veneer (10 bytes, Long) for call to 'pmu_get_rc_clk' from driver_pmu.o(i.pmu_sub_init).
    Adding TT veneer (10 bytes, Long) for call to 'pmu_calibration_stop' from driver_pmu.o(i.pmu_sub_init).
    Adding TT veneer (10 bytes, Long) for call to 'ke_task_msg_flush' from prf.o(i.prf_init).
    Adding TT veneer (10 bytes, Long) for call to 'fy_flash_erase_block' from uartupgradedev.o(i.processUpgrade).
    Adding TT veneer (10 bytes, Long) for call to 'system_set_pclk' from sys_utisl.o(i.system_set_clock).
    Adding TT veneer (10 bytes, Long) for call to 'rwip_prevent_sleep_set' from sys_utisl.o(i.system_sleep_disable).
    Adding TT veneer (10 bytes, Long) for call to 'rect_is_equal' from window.o(i.window_set_position).
    Adding TT veneer (10 bytes, Long) for call to 'uart_putc_noint_no_wait' from proj_main.o(ram_code).
    Adding TT veneer (10 bytes, Long) for call to 'log_init' from proj_main.o(ram_code).
    Adding TT veneer (10 bytes, Long) for call to '__NVIC_EnableIRQ' from proj_main.o(ram_code).
    Adding TT veneer (10 bytes, Long) for call to 'CPU_SR_Save' from proj_main.o(ram_code).
    Adding TT veneer (10 bytes, Long) for call to 'CPU_SR_Restore' from proj_main.o(ram_code).
    Adding TT veneer (10 bytes, Long) for call to 'disableDisplay' from uartupgradedev.o(ram_code).
    Adding TT veneer (10 bytes, Long) for call to 'EnQueueSignal' from uartupgradedev.o(ram_code).
    Adding TT veneer (10 bytes, Long) for call to '__NVIC_ClearPendingIRQ' from uartupgradedev.o(ram_code).
    Adding TT veneer (10 bytes, Long) for call to 'qspi_stig_cmd' from driver_flash.o(ram_code).
    Adding TT veneer (10 bytes, Long) for call to 'co_delay_10us' from driver_flash.o(ram_code).
    Adding TT veneer (10 bytes, Long) for call to 'pmu_get_isr_state' from driver_pmu.o(ram_code).
    Adding TT veneer (10 bytes, Long) for call to 'pmu_calibration_restart' from driver_pmu.o(ram_code).
    Adding TT veneer (10 bytes, Long) for call to 'pmu_gpio_isr' from driver_pmu.o(ram_code).
    Adding TT veneer (10 bytes, Long) for call to 'rwip_schedule' from entry.o(ram_code).
    Adding TT veneer (10 bytes, Long) for call to 'rwip_sleep' from entry.o(ram_code).
    Adding TT veneer (10 bytes, Long) for call to 'rwip_us_2_lpcycles' from entry.o(ram_code).
    Adding TT veneer (10 bytes, Long) for call to 'pmu_reset_internal_cnt' from entry.o(ram_code).
    Adding TT veneer (10 bytes, Long) for call to 'low_power_save' from entry.o(ram_code).
    Adding TT veneer (10 bytes, Long) for call to 'low_power_restore' from entry.o(ram_code).
    Adding TT veneer (10 bytes, Long) for call to 'co_delay_100us' from entry.o(ram_code).
    Adding TT veneer (10 bytes, Long) for call to 'flash_read_status' from entry.o(ram_code).
    Adding TT veneer (10 bytes, Long) for call to 'flash_write_status_volatile' from entry.o(ram_code).
    Adding TT veneer (10 bytes, Long) for call to 'rwip_sleep_mul_64' from entry.o(ram_code).
    Adding TT veneer (10 bytes, Long) for call to 'rwip_sleep_div_64' from entry.o(ram_code).
    Adding TT veneer (10 bytes, Long) for call to 'flash_wait_wip_clear' from sys_utisl.o(ram_code).
    Adding TT veneer (10 bytes, Long) for call to 'flash_set_read_quad' from sys_utisl.o(ram_code).
    Adding TT veneer (10 bytes, Long) for call to 'rwip_prevent_sleep_set' from sys_utisl.o(ram_code).
    Adding TT veneer (10 bytes, Long) for call to 'rwip_prevent_sleep_clear' from sys_utisl.o(ram_code).
    Adding TT veneer (10 bytes, Long) for call to 'fr_uart_init' from sys_utisl.o(ram_code).
    Adding TT veneer (10 bytes, Long) for call to 'fr_uart_setBaudrate' from sys_utisl.o(ram_code).
    Adding TT veneer (10 bytes, Long) for call to 'fr_uart_setLineControl' from sys_utisl.o(ram_code).
    Adding TT veneer (10 bytes, Long) for call to 'fr_uart_enableFifos' from sys_utisl.o(ram_code).
    Adding TT veneer (10 bytes, Long) for call to 'uart_flush_rxfifo_noint' from sys_utisl.o(ram_code).
    Adding TT veneer (10 bytes, Long) for call to 'rf_init_api' from patch_rf.o(ram_code).
    Adding TT veneer (10 bytes, Long) for call to 'rf_em_init' from patch_rf.o(ram_code).
    Adding TT veneer (10 bytes, Long) for call to 'rf_init_controller' from patch_rf.o(ram_code).
    Adding TT veneer (10 bytes, Long) for call to 'rwip_isr' from patch_rf.o(ram_code).
    Adding TT veneer (10 bytes, Long) for call to 'LCD_Set_Window' from sdl_gfx.o(ram_code).
    Adding TT veneer (10 bytes, Long) for call to 'LCD_WR_REG' from sdl_gfx.o(ram_code).
    Adding TT veneer (10 bytes, Long) for call to 'LCD_startWriteMutileData' from sdl_gfx.o(ram_code).
    Adding TT veneer (10 bytes, Long) for call to 'LCD_endWriteMutileData' from sdl_gfx.o(ram_code).
    Adding TT veneer (10 bytes, Long) for call to 'ble_util_buf_acl_tx_alloc' from adv_check_mode.o(ram_code).
    Adding TT veneer (10 bytes, Long) for call to '__aeabi_memcpy' from adv_check_mode.o(ram_code).
    Adding TT veneer (10 bytes, Long) for call to 'lld_read_clock' from adv_check_mode.o(ram_code).
    Adding TT veneer (10 bytes, Long) for call to 'calib_meter_recv_msg' from adv_check_mode.o(ram_code).
    Adding TT veneer (10 bytes, Long) for call to 'lld_rxdesc_check' from adv_check_mode.o(ram_code).
    Adding TT veneer (10 bytes, Long) for call to 'ble_util_buf_acl_tx_free' from adv_check_mode.o(ram_code).
    Adding TT veneer (10 bytes, Long) for call to 'llm_activity_free_set' from adv_check_mode.o(ram_code).
    Adding TT veneer (10 bytes, Long) for call to 'calib_meter_evt_end' from adv_check_mode.o(ram_code).
    Adding TT veneer (10 bytes, Long) for call to 'llm_activity_free_get' from adv_check_mode.o(ram_code).
    Adding TT veneer (10 bytes, Long) for call to 'rwip_time_get' from patch_rwip.o(ram_code).
    Adding TT veneer (10 bytes, Long) for call to 'flash_read' from resource.o(ram_code).

144 Veneer(s) (total 1440 bytes) added to the image.

==============================================================================

Image Symbol Table

    Local Symbols

    Symbol Name                              Value     Ov Type        Size  Object(Section)

    ../clib/microlib/division.c              0x00000000   Number         0  uidiv.o ABSOLUTE
    ../clib/microlib/division.c              0x00000000   Number         0  uldiv.o ABSOLUTE
    ../clib/microlib/longlong.c              0x00000000   Number         0  llsshr.o ABSOLUTE
    ../clib/microlib/longlong.c              0x00000000   Number         0  llushr.o ABSOLUTE
    ../clib/microlib/longlong.c              0x00000000   Number         0  llshl.o ABSOLUTE
    ../clib/microlib/printf/printf.c         0x00000000   Number         0  printf2.o ABSOLUTE
    ../clib/microlib/printf/printf.c         0x00000000   Number         0  printfb.o ABSOLUTE
    ../clib/microlib/printf/printf.c         0x00000000   Number         0  printfa.o ABSOLUTE
    ../clib/microlib/printf/printf.c         0x00000000   Number         0  printf3.o ABSOLUTE
    ../clib/microlib/printf/printf.c         0x00000000   Number         0  printf7.o ABSOLUTE
    ../clib/microlib/printf/printf.c         0x00000000   Number         0  printf0.o ABSOLUTE
    ../clib/microlib/printf/printf.c         0x00000000   Number         0  printf1.o ABSOLUTE
    ../clib/microlib/printf/printf.c         0x00000000   Number         0  printf6.o ABSOLUTE
    ../clib/microlib/printf/printf.c         0x00000000   Number         0  printf8.o ABSOLUTE
    ../clib/microlib/printf/printf.c         0x00000000   Number         0  printf5.o ABSOLUTE
    ../clib/microlib/printf/printf.c         0x00000000   Number         0  printf4.o ABSOLUTE
    ../clib/microlib/printf/stubs.s          0x00000000   Number         0  stubs.o ABSOLUTE
    ../clib/microlib/string/strcpy.c         0x00000000   Number         0  strcpy.o ABSOLUTE
    ../clib/microlib/string/strlen.c         0x00000000   Number         0  strlen.o ABSOLUTE
    ../clib/microlib/string/strstr.c         0x00000000   Number         0  strstr.o ABSOLUTE
    ../clib/microlib/stubs.s                 0x00000000   Number         0  iusefp.o ABSOLUTE
    ../fplib/microlib/f2d.c                  0x00000000   Number         0  f2d.o ABSOLUTE
    ../fplib/microlib/fpadd.c                0x00000000   Number         0  dadd.o ABSOLUTE
    ../fplib/microlib/fpdiv.c                0x00000000   Number         0  ddiv.o ABSOLUTE
    ../fplib/microlib/fpepilogue.c           0x00000000   Number         0  depilogue.o ABSOLUTE
    ../fplib/microlib/fpfix.c                0x00000000   Number         0  dfixul.o ABSOLUTE
    ../fplib/microlib/fpmul.c                0x00000000   Number         0  dmul.o ABSOLUTE
    ..\..\components\driver\driver_dma.c     0x00000000   Number         0  driver_dma.o ABSOLUTE
    ..\..\components\driver\driver_flash.c   0x00000000   Number         0  driver_flash.o ABSOLUTE
    ..\..\components\driver\driver_gpio.c    0x00000000   Number         0  driver_gpio.o ABSOLUTE
    ..\..\components\driver\driver_i2c.c     0x00000000   Number         0  driver_i2c.o ABSOLUTE
    ..\..\components\driver\driver_pmu.c     0x00000000   Number         0  driver_pmu.o ABSOLUTE
    ..\..\components\driver\driver_pwm.c     0x00000000   Number         0  driver_pwm.o ABSOLUTE
    ..\..\components\driver\driver_spi_master.c 0x00000000   Number         0  driver_spi_master.o ABSOLUTE
    ..\..\components\driver\driver_timer.c   0x00000000   Number         0  driver_timer.o ABSOLUTE
    ..\..\components\driver\driver_uart_ex.c 0x00000000   Number         0  driver_uart_ex.o ABSOLUTE
    ..\..\components\modules\common\src\co_log.c 0x00000000   Number         0  co_log.o ABSOLUTE
    ..\..\components\modules\platform\src\keil\boot_vectors.s 0x00000000   Number         0  boot_vectors.o ABSOLUTE
    ..\\..\\components\\driver\\driver_flash.c 0x00000000   Number         0  driver_flash.o ABSOLUTE
    ..\\..\\components\\driver\\driver_gpio.c 0x00000000   Number         0  driver_gpio.o ABSOLUTE
    ..\\..\\components\\driver\\driver_i2c.c 0x00000000   Number         0  driver_i2c.o ABSOLUTE
    ..\\..\\components\\driver\\driver_pmu.c 0x00000000   Number         0  driver_pmu.o ABSOLUTE
    ..\\..\\components\\driver\\driver_pwm.c 0x00000000   Number         0  driver_pwm.o ABSOLUTE
    ..\\..\\components\\driver\\driver_spi_master.c 0x00000000   Number         0  driver_spi_master.o ABSOLUTE
    ..\\..\\components\\driver\\driver_timer.c 0x00000000   Number         0  driver_timer.o ABSOLUTE
    ..\\..\\components\\driver\\driver_uart_ex.c 0x00000000   Number         0  driver_uart_ex.o ABSOLUTE
    ..\\..\\components\\modules\\common\\src\\co_log.c 0x00000000   Number         0  co_log.o ABSOLUTE
    ..\\app\\src\\adv_check_mode.c           0x00000000   Number         0  adv_check_mode.o ABSOLUTE
    ..\\app\\src\\app.c                      0x00000000   Number         0  app.o ABSOLUTE
    ..\\app\\src\\app_conn.c                 0x00000000   Number         0  app_conn.o ABSOLUTE
    ..\\app\\src\\app_mesh_info.c            0x00000000   Number         0  app_mesh_info.o ABSOLUTE
    ..\\app\\src\\app_prf.c                  0x00000000   Number         0  app_prf.o ABSOLUTE
    ..\\app\\src\\app_proj_event.c           0x00000000   Number         0  app_proj_event.o ABSOLUTE
    ..\\app\\src\\app_sec.c                  0x00000000   Number         0  app_sec.o ABSOLUTE
    ..\\app\\src\\app_task.c                 0x00000000   Number         0  app_task.o ABSOLUTE
    ..\\app\\src\\user_bond_manage.c         0x00000000   Number         0  user_bond_manage.o ABSOLUTE
    ..\\app\\src\\user_mem.c                 0x00000000   Number         0  user_mem.o ABSOLUTE
    ..\\code\\SDL_event.c                    0x00000000   Number         0  sdl_event.o ABSOLUTE
    ..\\code\\SDL_timer.c                    0x00000000   Number         0  sdl_timer.o ABSOLUTE
    ..\\code\\SDL_video.c                    0x00000000   Number         0  sdl_video.o ABSOLUTE
    ..\\code\\devmodule.c                    0x00000000   Number         0  devmodule.o ABSOLUTE
    ..\\code\\dgus_cmd.c                     0x00000000   Number         0  dgus_cmd.o ABSOLUTE
    ..\\code\\flythings\\auth\\md5.c         0x00000000   Number         0  md5.o ABSOLUTE
    ..\\code\\flythings\\auth\\zksec.c       0x00000000   Number         0  zksec.o ABSOLUTE
    ..\\code\\flythings\\context\\guicontext.c 0x00000000   Number         0  guicontext.o ABSOLUTE
    ..\\code\\flythings\\context\\resource.c 0x00000000   Number         0  resource.o ABSOLUTE
    ..\\code\\flythings\\graphics\\SDL_gfx.c 0x00000000   Number         0  sdl_gfx.o ABSOLUTE
    ..\\code\\flythings\\misc\\fy_bits.c     0x00000000   Number         0  fy_bits.o ABSOLUTE
    ..\\code\\flythings\\misc\\fy_mem.c      0x00000000   Number         0  fy_mem.o ABSOLUTE
    ..\\code\\flythings\\misc\\rect.c        0x00000000   Number         0  rect.o ABSOLUTE
    ..\\code\\flythings\\widget\\animation.c 0x00000000   Number         0  animation.o ABSOLUTE
    ..\\code\\flythings\\widget\\button.c    0x00000000   Number         0  button.o ABSOLUTE
    ..\\code\\flythings\\widget\\image.c     0x00000000   Number         0  image.o ABSOLUTE
    ..\\code\\flythings\\widget\\imagetext.c 0x00000000   Number         0  imagetext.o ABSOLUTE
    ..\\code\\flythings\\widget\\increment.c 0x00000000   Number         0  increment.o ABSOLUTE
    ..\\code\\flythings\\widget\\label.c     0x00000000   Number         0  label.o ABSOLUTE
    ..\\code\\flythings\\widget\\numtext.c   0x00000000   Number         0  numtext.o ABSOLUTE
    ..\\code\\flythings\\widget\\progress.c  0x00000000   Number         0  progress.o ABSOLUTE
    ..\\code\\flythings\\widget\\widget.c    0x00000000   Number         0  widget.o ABSOLUTE
    ..\\code\\flythings\\widget\\window.c    0x00000000   Number         0  window.o ABSOLUTE
    ..\\code\\gui_main.c                     0x00000000   Number         0  gui_main.o ABSOLUTE
    ..\\code\\message.c                      0x00000000   Number         0  message.o ABSOLUTE
    ..\\code\\other_app.c                    0x00000000   Number         0  other_app.o ABSOLUTE
    ..\\code\\prf_server.c                   0x00000000   Number         0  prf_server.o ABSOLUTE
    ..\\code\\proj_main.c                    0x00000000   Number         0  proj_main.o ABSOLUTE
    ..\\code\\uartupgradedev.c               0x00000000   Number         0  uartupgradedev.o ABSOLUTE
    ..\\code\\uifun\\logic\\main.c           0x00000000   Number         0  main.o ABSOLUTE
    ..\\code\\uifun\\ui_context.c            0x00000000   Number         0  ui_context.o ABSOLUTE
    ..\\ip\\ble\\hl\\src\\gap\\gapc\\gapc.c  0x00000000   Number         0  gapc.o ABSOLUTE
    ..\\ip\\ble\\hl\\src\\gap\\gapc\\gapc_hci.c 0x00000000   Number         0  gapc_hci.o ABSOLUTE
    ..\\ip\\ble\\hl\\src\\gap\\gapc\\gapc_sig.c 0x00000000   Number         0  gapc_sig.o ABSOLUTE
    ..\\ip\\ble\\hl\\src\\gap\\gapc\\gapc_task.c 0x00000000   Number         0  gapc_task.o ABSOLUTE
    ..\\ip\\ble\\hl\\src\\gap\\gapm\\gapm.c  0x00000000   Number         0  gapm.o ABSOLUTE
    ..\\ip\\ble\\hl\\src\\gap\\gapm\\gapm_actv.c 0x00000000   Number         0  gapm_actv.o ABSOLUTE
    ..\\ip\\ble\\hl\\src\\gap\\gapm\\gapm_addr.c 0x00000000   Number         0  gapm_addr.o ABSOLUTE
    ..\\ip\\ble\\hl\\src\\gap\\gapm\\gapm_adv.c 0x00000000   Number         0  gapm_adv.o ABSOLUTE
    ..\\ip\\ble\\hl\\src\\gap\\gapm\\gapm_cfg.c 0x00000000   Number         0  gapm_cfg.o ABSOLUTE
    ..\\ip\\ble\\hl\\src\\gap\\gapm\\gapm_init.c 0x00000000   Number         0  gapm_init.o ABSOLUTE
    ..\\ip\\ble\\hl\\src\\gap\\gapm\\gapm_list.c 0x00000000   Number         0  gapm_list.o ABSOLUTE
    ..\\ip\\ble\\hl\\src\\gap\\gapm\\gapm_per_sync.c 0x00000000   Number         0  gapm_per_sync.o ABSOLUTE
    ..\\ip\\ble\\hl\\src\\gap\\gapm\\gapm_scan.c 0x00000000   Number         0  gapm_scan.o ABSOLUTE
    ..\\ip\\ble\\hl\\src\\gap\\gapm\\gapm_smp.c 0x00000000   Number         0  gapm_smp.o ABSOLUTE
    ..\\ip\\ble\\hl\\src\\gap\\gapm\\gapm_task.c 0x00000000   Number         0  gapm_task.o ABSOLUTE
    ..\\ip\\ble\\hl\\src\\gap\\smpc\\smpc.c  0x00000000   Number         0  smpc.o ABSOLUTE
    ..\\ip\\ble\\hl\\src\\gap\\smpc\\smpc_api.c 0x00000000   Number         0  smpc_api.o ABSOLUTE
    ..\\ip\\ble\\hl\\src\\gap\\smpc\\smpc_crypto.c 0x00000000   Number         0  smpc_crypto.o ABSOLUTE
    ..\\ip\\ble\\hl\\src\\gap\\smpc\\smpc_util.c 0x00000000   Number         0  smpc_util.o ABSOLUTE
    ..\\ip\\ble\\hl\\src\\gatt\\attc\\attc.c 0x00000000   Number         0  attc.o ABSOLUTE
    ..\\ip\\ble\\hl\\src\\gatt\\attm\\attm.c 0x00000000   Number         0  attm.o ABSOLUTE
    ..\\ip\\ble\\hl\\src\\gatt\\attm\\attm_db.c 0x00000000   Number         0  attm_db.o ABSOLUTE
    ..\\ip\\ble\\hl\\src\\gatt\\atts\\atts.c 0x00000000   Number         0  atts.o ABSOLUTE
    ..\\ip\\ble\\hl\\src\\gatt\\gattc\\gattc.c 0x00000000   Number         0  gattc.o ABSOLUTE
    ..\\ip\\ble\\hl\\src\\gatt\\gattc\\gattc_task.c 0x00000000   Number         0  gattc_task.o ABSOLUTE
    ..\\ip\\ble\\hl\\src\\gatt\\gattm\\gattm.c 0x00000000   Number         0  gattm.o ABSOLUTE
    ..\\ip\\ble\\hl\\src\\gatt\\gattm\\gattm_task.c 0x00000000   Number         0  gattm_task.o ABSOLUTE
    ..\\ip\\ble\\hl\\src\\l2c\\l2cc\\l2cc.c  0x00000000   Number         0  l2cc.o ABSOLUTE
    ..\\ip\\ble\\hl\\src\\l2c\\l2cc\\l2cc_pdu.c 0x00000000   Number         0  l2cc_pdu.o ABSOLUTE
    ..\\ip\\ble\\hl\\src\\l2c\\l2cc\\l2cc_sig.c 0x00000000   Number         0  l2cc_sig.o ABSOLUTE
    ..\\ip\\ble\\hl\\src\\l2c\\l2cc\\l2cc_task.c 0x00000000   Number         0  l2cc_task.o ABSOLUTE
    ..\\ip\\ble\\hl\\src\\l2c\\l2cm\\l2cm.c  0x00000000   Number         0  l2cm.o ABSOLUTE
    ..\\ip\\ble\\hl\\src\\prf\\prf.c         0x00000000   Number         0  prf.o ABSOLUTE
    ..\\ip\\ble\\hl\\src\\prf\\prf_utils.c   0x00000000   Number         0  prf_utils.o ABSOLUTE
    ..\\ip\\ble\\hl\\src\\rwble_hl\\rwble_hl.c 0x00000000   Number         0  rwble_hl.o ABSOLUTE
    ..\\ip\\ble\\hl_api\\gap\\gap_api.c      0x00000000   Number         0  gap_api.o ABSOLUTE
    ..\\ip\\ble\\hl_api\\gatt\\gatt_api.c    0x00000000   Number         0  gatt_api.o ABSOLUTE
    ..\\ip\\ble\\hl_api\\mesh\\mesh_api.c    0x00000000   Number         0  mesh_api.o ABSOLUTE
    ..\\ip\\ble\\mesh\\m_al\\m_al_activity.c 0x00000000   Number         0  m_al_activity.o ABSOLUTE
    ..\\ip\\ble\\mesh\\m_al\\m_al_adv.c      0x00000000   Number         0  m_al_adv.o ABSOLUTE
    ..\\ip\\ble\\mesh\\m_al\\m_al_con.c      0x00000000   Number         0  m_al_con.o ABSOLUTE
    ..\\ip\\ble\\mesh\\m_al\\m_al_djob.c     0x00000000   Number         0  m_al_djob.o ABSOLUTE
    ..\\ip\\ble\\mesh\\m_al\\m_al_scan.c     0x00000000   Number         0  m_al_scan.o ABSOLUTE
    ..\\ip\\ble\\mesh\\m_al\\m_al_sec.c      0x00000000   Number         0  m_al_sec.o ABSOLUTE
    ..\\ip\\ble\\mesh\\m_al\\m_al_task.c     0x00000000   Number         0  m_al_task.o ABSOLUTE
    ..\\ip\\ble\\mesh\\m_al\\m_al_timer.c    0x00000000   Number         0  m_al_timer.o ABSOLUTE
    ..\\ip\\ble\\mesh\\models\\m_api_msg\\m_api_msg.c 0x00000000   Number         0  m_api_msg.o ABSOLUTE
    ..\\ip\\ble\\mesh\\src\\m_api.c          0x00000000   Number         0  m_api.o ABSOLUTE
    ..\\ip\\ble\\mesh\\src\\m_bcn\\m_bcn.c   0x00000000   Number         0  m_bcn.o ABSOLUTE
    ..\\ip\\ble\\mesh\\src\\m_bearer\\m_bearer.c 0x00000000   Number         0  m_bearer.o ABSOLUTE
    ..\\ip\\ble\\mesh\\src\\m_bearer\\m_bearer_adv.c 0x00000000   Number         0  m_bearer_adv.o ABSOLUTE
    ..\\ip\\ble\\mesh\\src\\m_bearer\\m_bearer_gatt.c 0x00000000   Number         0  m_bearer_gatt.o ABSOLUTE
    ..\\ip\\ble\\mesh\\src\\m_fnd\\m_fnd.c   0x00000000   Number         0  m_fnd.o ABSOLUTE
    ..\\ip\\ble\\mesh\\src\\m_fnd\\m_fnd_confs.c 0x00000000   Number         0  m_fnd_confs.o ABSOLUTE
    ..\\ip\\ble\\mesh\\src\\m_fnd\\m_fnd_hlths.c 0x00000000   Number         0  m_fnd_hlths.o ABSOLUTE
    ..\\ip\\ble\\mesh\\src\\m_fnd\\m_fnd_pbrs.c 0x00000000   Number         0  m_fnd_pbrs.o ABSOLUTE
    ..\\ip\\ble\\mesh\\src\\m_lay\\m_lay.c   0x00000000   Number         0  m_lay.o ABSOLUTE
    ..\\ip\\ble\\mesh\\src\\m_lay\\m_lay_access.c 0x00000000   Number         0  m_lay_access.o ABSOLUTE
    ..\\ip\\ble\\mesh\\src\\m_lay\\m_lay_friend.c 0x00000000   Number         0  m_lay_friend.o ABSOLUTE
    ..\\ip\\ble\\mesh\\src\\m_lay\\m_lay_hb.c 0x00000000   Number         0  m_lay_hb.o ABSOLUTE
    ..\\ip\\ble\\mesh\\src\\m_lay\\m_lay_lpn.c 0x00000000   Number         0  m_lay_lpn.o ABSOLUTE
    ..\\ip\\ble\\mesh\\src\\m_lay\\m_lay_ltrans.c 0x00000000   Number         0  m_lay_ltrans.o ABSOLUTE
    ..\\ip\\ble\\mesh\\src\\m_lay\\m_lay_net.c 0x00000000   Number         0  m_lay_net.o ABSOLUTE
    ..\\ip\\ble\\mesh\\src\\m_lay\\m_lay_proxy.c 0x00000000   Number         0  m_lay_proxy.o ABSOLUTE
    ..\\ip\\ble\\mesh\\src\\m_lay\\m_lay_utrans.c 0x00000000   Number         0  m_lay_utrans.o ABSOLUTE
    ..\\ip\\ble\\mesh\\src\\m_prov\\m_pbrs_prov_bearer.c 0x00000000   Number         0  m_pbrs_prov_bearer.o ABSOLUTE
    ..\\ip\\ble\\mesh\\src\\m_prov\\m_prov.c 0x00000000   Number         0  m_prov.o ABSOLUTE
    ..\\ip\\ble\\mesh\\src\\m_prov\\m_prov_adv_trans.c 0x00000000   Number         0  m_prov_adv_trans.o ABSOLUTE
    ..\\ip\\ble\\mesh\\src\\m_prov\\m_prov_bearer.c 0x00000000   Number         0  m_prov_bearer.o ABSOLUTE
    ..\\ip\\ble\\mesh\\src\\m_tb\\m_tb.c     0x00000000   Number         0  m_tb.o ABSOLUTE
    ..\\ip\\ble\\mesh\\src\\m_tb\\m_tb_buf.c 0x00000000   Number         0  m_tb_buf.o ABSOLUTE
    ..\\ip\\ble\\mesh\\src\\m_tb\\m_tb_friend.c 0x00000000   Number         0  m_tb_friend.o ABSOLUTE
    ..\\ip\\ble\\mesh\\src\\m_tb\\m_tb_key.c 0x00000000   Number         0  m_tb_key.o ABSOLUTE
    ..\\ip\\ble\\mesh\\src\\m_tb\\m_tb_mio.c 0x00000000   Number         0  m_tb_mio.o ABSOLUTE
    ..\\ip\\ble\\mesh\\src\\m_tb\\m_tb_sec.c 0x00000000   Number         0  m_tb_sec.o ABSOLUTE
    ..\\ip\\ble\\mesh\\src\\m_tb\\m_tb_state.c 0x00000000   Number         0  m_tb_state.o ABSOLUTE
    ..\\ip\\ble\\mesh\\src\\m_tb\\m_tb_store_wvt.c 0x00000000   Number         0  m_tb_store_wvt.o ABSOLUTE
    ..\\ip\\ble\\mesh\\src\\m_tb\\m_tb_timer.c 0x00000000   Number         0  m_tb_timer.o ABSOLUTE
    ..\\modules\\os\\os_mem.c                0x00000000   Number         0  os_mem.o ABSOLUTE
    ..\\modules\\os\\os_msg_q.c              0x00000000   Number         0  os_msg_q.o ABSOLUTE
    ..\\modules\\os\\os_task.c               0x00000000   Number         0  os_task.o ABSOLUTE
    ..\\modules\\os\\os_timer.c              0x00000000   Number         0  os_timer.o ABSOLUTE
    ..\\modules\\patch\\patch_frspim.c       0x00000000   Number         0  patch_frspim.o ABSOLUTE
    ..\\modules\\patch\\patch_lld.c          0x00000000   Number         0  patch_lld.o ABSOLUTE
    ..\\modules\\patch\\patch_rf.c           0x00000000   Number         0  patch_rf.o ABSOLUTE
    ..\\modules\\patch\\patch_rwip.c         0x00000000   Number         0  patch_rwip.o ABSOLUTE
    ..\\modules\\sys\\sys_utisl.c            0x00000000   Number         0  sys_utisl.o ABSOLUTE
    ..\\plf\\refip\\src\\arch\\entry.c       0x00000000   Number         0  entry.o ABSOLUTE
    ..\\plf\\refip\\src\\arch\\jump_table_host.c 0x00000000   Number         0  jump_table_host.o ABSOLUTE
    ..\\plf\\refip\\src\\driver\\trng\\trng.c 0x00000000   Number         0  trng.o ABSOLUTE
    ..\app\src\adv_check_mode.c              0x00000000   Number         0  adv_check_mode.o ABSOLUTE
    ..\app\src\app.c                         0x00000000   Number         0  app.o ABSOLUTE
    ..\app\src\app_conn.c                    0x00000000   Number         0  app_conn.o ABSOLUTE
    ..\app\src\app_mesh_info.c               0x00000000   Number         0  app_mesh_info.o ABSOLUTE
    ..\app\src\app_prf.c                     0x00000000   Number         0  app_prf.o ABSOLUTE
    ..\app\src\app_proj_event.c              0x00000000   Number         0  app_proj_event.o ABSOLUTE
    ..\app\src\app_sec.c                     0x00000000   Number         0  app_sec.o ABSOLUTE
    ..\app\src\app_task.c                    0x00000000   Number         0  app_task.o ABSOLUTE
    ..\app\src\user_bond_manage.c            0x00000000   Number         0  user_bond_manage.o ABSOLUTE
    ..\app\src\user_mem.c                    0x00000000   Number         0  user_mem.o ABSOLUTE
    ..\code\SDL_event.c                      0x00000000   Number         0  sdl_event.o ABSOLUTE
    ..\code\SDL_timer.c                      0x00000000   Number         0  sdl_timer.o ABSOLUTE
    ..\code\SDL_video.c                      0x00000000   Number         0  sdl_video.o ABSOLUTE
    ..\code\devmodule.c                      0x00000000   Number         0  devmodule.o ABSOLUTE
    ..\code\dgus_cmd.c                       0x00000000   Number         0  dgus_cmd.o ABSOLUTE
    ..\code\flythings\auth\md5.c             0x00000000   Number         0  md5.o ABSOLUTE
    ..\code\flythings\auth\zksec.c           0x00000000   Number         0  zksec.o ABSOLUTE
    ..\code\flythings\context\guicontext.c   0x00000000   Number         0  guicontext.o ABSOLUTE
    ..\code\flythings\context\resource.c     0x00000000   Number         0  resource.o ABSOLUTE
    ..\code\flythings\graphics\SDL_gfx.c     0x00000000   Number         0  sdl_gfx.o ABSOLUTE
    ..\code\flythings\misc\fy_bits.c         0x00000000   Number         0  fy_bits.o ABSOLUTE
    ..\code\flythings\misc\fy_mem.c          0x00000000   Number         0  fy_mem.o ABSOLUTE
    ..\code\flythings\misc\rect.c            0x00000000   Number         0  rect.o ABSOLUTE
    ..\code\flythings\widget\animation.c     0x00000000   Number         0  animation.o ABSOLUTE
    ..\code\flythings\widget\button.c        0x00000000   Number         0  button.o ABSOLUTE
    ..\code\flythings\widget\image.c         0x00000000   Number         0  image.o ABSOLUTE
    ..\code\flythings\widget\imagetext.c     0x00000000   Number         0  imagetext.o ABSOLUTE
    ..\code\flythings\widget\increment.c     0x00000000   Number         0  increment.o ABSOLUTE
    ..\code\flythings\widget\label.c         0x00000000   Number         0  label.o ABSOLUTE
    ..\code\flythings\widget\numtext.c       0x00000000   Number         0  numtext.o ABSOLUTE
    ..\code\flythings\widget\progress.c      0x00000000   Number         0  progress.o ABSOLUTE
    ..\code\flythings\widget\widget.c        0x00000000   Number         0  widget.o ABSOLUTE
    ..\code\flythings\widget\window.c        0x00000000   Number         0  window.o ABSOLUTE
    ..\code\gui_main.c                       0x00000000   Number         0  gui_main.o ABSOLUTE
    ..\code\message.c                        0x00000000   Number         0  message.o ABSOLUTE
    ..\code\other_app.c                      0x00000000   Number         0  other_app.o ABSOLUTE
    ..\code\prf_client.c                     0x00000000   Number         0  prf_client.o ABSOLUTE
    ..\code\prf_server.c                     0x00000000   Number         0  prf_server.o ABSOLUTE
    ..\code\proj_main.c                      0x00000000   Number         0  proj_main.o ABSOLUTE
    ..\code\ring.c                           0x00000000   Number         0  ring.o ABSOLUTE
    ..\code\uartupgradedev.c                 0x00000000   Number         0  uartupgradedev.o ABSOLUTE
    ..\code\uifun\logic\main.c               0x00000000   Number         0  main.o ABSOLUTE
    ..\code\uifun\ui_context.c               0x00000000   Number         0  ui_context.o ABSOLUTE
    ..\ip\ble\hl\src\gap\gapc\gapc.c         0x00000000   Number         0  gapc.o ABSOLUTE
    ..\ip\ble\hl\src\gap\gapc\gapc_hci.c     0x00000000   Number         0  gapc_hci.o ABSOLUTE
    ..\ip\ble\hl\src\gap\gapc\gapc_sig.c     0x00000000   Number         0  gapc_sig.o ABSOLUTE
    ..\ip\ble\hl\src\gap\gapc\gapc_task.c    0x00000000   Number         0  gapc_task.o ABSOLUTE
    ..\ip\ble\hl\src\gap\gapm\gapm.c         0x00000000   Number         0  gapm.o ABSOLUTE
    ..\ip\ble\hl\src\gap\gapm\gapm_actv.c    0x00000000   Number         0  gapm_actv.o ABSOLUTE
    ..\ip\ble\hl\src\gap\gapm\gapm_addr.c    0x00000000   Number         0  gapm_addr.o ABSOLUTE
    ..\ip\ble\hl\src\gap\gapm\gapm_adv.c     0x00000000   Number         0  gapm_adv.o ABSOLUTE
    ..\ip\ble\hl\src\gap\gapm\gapm_cfg.c     0x00000000   Number         0  gapm_cfg.o ABSOLUTE
    ..\ip\ble\hl\src\gap\gapm\gapm_init.c    0x00000000   Number         0  gapm_init.o ABSOLUTE
    ..\ip\ble\hl\src\gap\gapm\gapm_list.c    0x00000000   Number         0  gapm_list.o ABSOLUTE
    ..\ip\ble\hl\src\gap\gapm\gapm_per_sync.c 0x00000000   Number         0  gapm_per_sync.o ABSOLUTE
    ..\ip\ble\hl\src\gap\gapm\gapm_scan.c    0x00000000   Number         0  gapm_scan.o ABSOLUTE
    ..\ip\ble\hl\src\gap\gapm\gapm_smp.c     0x00000000   Number         0  gapm_smp.o ABSOLUTE
    ..\ip\ble\hl\src\gap\gapm\gapm_task.c    0x00000000   Number         0  gapm_task.o ABSOLUTE
    ..\ip\ble\hl\src\gap\smpc\smpc.c         0x00000000   Number         0  smpc.o ABSOLUTE
    ..\ip\ble\hl\src\gap\smpc\smpc_api.c     0x00000000   Number         0  smpc_api.o ABSOLUTE
    ..\ip\ble\hl\src\gap\smpc\smpc_crypto.c  0x00000000   Number         0  smpc_crypto.o ABSOLUTE
    ..\ip\ble\hl\src\gap\smpc\smpc_util.c    0x00000000   Number         0  smpc_util.o ABSOLUTE
    ..\ip\ble\hl\src\gatt\attc\attc.c        0x00000000   Number         0  attc.o ABSOLUTE
    ..\ip\ble\hl\src\gatt\attm\attm.c        0x00000000   Number         0  attm.o ABSOLUTE
    ..\ip\ble\hl\src\gatt\attm\attm_db.c     0x00000000   Number         0  attm_db.o ABSOLUTE
    ..\ip\ble\hl\src\gatt\atts\atts.c        0x00000000   Number         0  atts.o ABSOLUTE
    ..\ip\ble\hl\src\gatt\gattc\gattc.c      0x00000000   Number         0  gattc.o ABSOLUTE
    ..\ip\ble\hl\src\gatt\gattc\gattc_task.c 0x00000000   Number         0  gattc_task.o ABSOLUTE
    ..\ip\ble\hl\src\gatt\gattm\gattm.c      0x00000000   Number         0  gattm.o ABSOLUTE
    ..\ip\ble\hl\src\gatt\gattm\gattm_task.c 0x00000000   Number         0  gattm_task.o ABSOLUTE
    ..\ip\ble\hl\src\l2c\l2cc\l2cc.c         0x00000000   Number         0  l2cc.o ABSOLUTE
    ..\ip\ble\hl\src\l2c\l2cc\l2cc_pdu.c     0x00000000   Number         0  l2cc_pdu.o ABSOLUTE
    ..\ip\ble\hl\src\l2c\l2cc\l2cc_sig.c     0x00000000   Number         0  l2cc_sig.o ABSOLUTE
    ..\ip\ble\hl\src\l2c\l2cc\l2cc_task.c    0x00000000   Number         0  l2cc_task.o ABSOLUTE
    ..\ip\ble\hl\src\l2c\l2cm\l2cm.c         0x00000000   Number         0  l2cm.o ABSOLUTE
    ..\ip\ble\hl\src\prf\prf.c               0x00000000   Number         0  prf.o ABSOLUTE
    ..\ip\ble\hl\src\prf\prf_utils.c         0x00000000   Number         0  prf_utils.o ABSOLUTE
    ..\ip\ble\hl\src\rwble_hl\rwble_hl.c     0x00000000   Number         0  rwble_hl.o ABSOLUTE
    ..\ip\ble\hl_api\gap\gap_api.c           0x00000000   Number         0  gap_api.o ABSOLUTE
    ..\ip\ble\hl_api\gatt\gatt_api.c         0x00000000   Number         0  gatt_api.o ABSOLUTE
    ..\ip\ble\hl_api\mesh\mesh_api.c         0x00000000   Number         0  mesh_api.o ABSOLUTE
    ..\ip\ble\mesh\m_al\m_al_activity.c      0x00000000   Number         0  m_al_activity.o ABSOLUTE
    ..\ip\ble\mesh\m_al\m_al_adv.c           0x00000000   Number         0  m_al_adv.o ABSOLUTE
    ..\ip\ble\mesh\m_al\m_al_con.c           0x00000000   Number         0  m_al_con.o ABSOLUTE
    ..\ip\ble\mesh\m_al\m_al_djob.c          0x00000000   Number         0  m_al_djob.o ABSOLUTE
    ..\ip\ble\mesh\m_al\m_al_scan.c          0x00000000   Number         0  m_al_scan.o ABSOLUTE
    ..\ip\ble\mesh\m_al\m_al_sec.c           0x00000000   Number         0  m_al_sec.o ABSOLUTE
    ..\ip\ble\mesh\m_al\m_al_task.c          0x00000000   Number         0  m_al_task.o ABSOLUTE
    ..\ip\ble\mesh\m_al\m_al_timer.c         0x00000000   Number         0  m_al_timer.o ABSOLUTE
    ..\ip\ble\mesh\models\m_api_msg\m_api_msg.c 0x00000000   Number         0  m_api_msg.o ABSOLUTE
    ..\ip\ble\mesh\src\m_api.c               0x00000000   Number         0  m_api.o ABSOLUTE
    ..\ip\ble\mesh\src\m_bcn\m_bcn.c         0x00000000   Number         0  m_bcn.o ABSOLUTE
    ..\ip\ble\mesh\src\m_bearer\m_bearer.c   0x00000000   Number         0  m_bearer.o ABSOLUTE
    ..\ip\ble\mesh\src\m_bearer\m_bearer_adv.c 0x00000000   Number         0  m_bearer_adv.o ABSOLUTE
    ..\ip\ble\mesh\src\m_bearer\m_bearer_gatt.c 0x00000000   Number         0  m_bearer_gatt.o ABSOLUTE
    ..\ip\ble\mesh\src\m_fnd\m_fnd.c         0x00000000   Number         0  m_fnd.o ABSOLUTE
    ..\ip\ble\mesh\src\m_fnd\m_fnd_confs.c   0x00000000   Number         0  m_fnd_confs.o ABSOLUTE
    ..\ip\ble\mesh\src\m_fnd\m_fnd_hlths.c   0x00000000   Number         0  m_fnd_hlths.o ABSOLUTE
    ..\ip\ble\mesh\src\m_fnd\m_fnd_pbrs.c    0x00000000   Number         0  m_fnd_pbrs.o ABSOLUTE
    ..\ip\ble\mesh\src\m_lay\m_lay.c         0x00000000   Number         0  m_lay.o ABSOLUTE
    ..\ip\ble\mesh\src\m_lay\m_lay_access.c  0x00000000   Number         0  m_lay_access.o ABSOLUTE
    ..\ip\ble\mesh\src\m_lay\m_lay_friend.c  0x00000000   Number         0  m_lay_friend.o ABSOLUTE
    ..\ip\ble\mesh\src\m_lay\m_lay_hb.c      0x00000000   Number         0  m_lay_hb.o ABSOLUTE
    ..\ip\ble\mesh\src\m_lay\m_lay_lpn.c     0x00000000   Number         0  m_lay_lpn.o ABSOLUTE
    ..\ip\ble\mesh\src\m_lay\m_lay_ltrans.c  0x00000000   Number         0  m_lay_ltrans.o ABSOLUTE
    ..\ip\ble\mesh\src\m_lay\m_lay_net.c     0x00000000   Number         0  m_lay_net.o ABSOLUTE
    ..\ip\ble\mesh\src\m_lay\m_lay_proxy.c   0x00000000   Number         0  m_lay_proxy.o ABSOLUTE
    ..\ip\ble\mesh\src\m_lay\m_lay_utrans.c  0x00000000   Number         0  m_lay_utrans.o ABSOLUTE
    ..\ip\ble\mesh\src\m_prov\m_pbrs_prov_bearer.c 0x00000000   Number         0  m_pbrs_prov_bearer.o ABSOLUTE
    ..\ip\ble\mesh\src\m_prov\m_prov.c       0x00000000   Number         0  m_prov.o ABSOLUTE
    ..\ip\ble\mesh\src\m_prov\m_prov_adv_trans.c 0x00000000   Number         0  m_prov_adv_trans.o ABSOLUTE
    ..\ip\ble\mesh\src\m_prov\m_prov_bearer.c 0x00000000   Number         0  m_prov_bearer.o ABSOLUTE
    ..\ip\ble\mesh\src\m_tb\m_tb.c           0x00000000   Number         0  m_tb.o ABSOLUTE
    ..\ip\ble\mesh\src\m_tb\m_tb_buf.c       0x00000000   Number         0  m_tb_buf.o ABSOLUTE
    ..\ip\ble\mesh\src\m_tb\m_tb_friend.c    0x00000000   Number         0  m_tb_friend.o ABSOLUTE
    ..\ip\ble\mesh\src\m_tb\m_tb_key.c       0x00000000   Number         0  m_tb_key.o ABSOLUTE
    ..\ip\ble\mesh\src\m_tb\m_tb_mio.c       0x00000000   Number         0  m_tb_mio.o ABSOLUTE
    ..\ip\ble\mesh\src\m_tb\m_tb_sec.c       0x00000000   Number         0  m_tb_sec.o ABSOLUTE
    ..\ip\ble\mesh\src\m_tb\m_tb_state.c     0x00000000   Number         0  m_tb_state.o ABSOLUTE
    ..\ip\ble\mesh\src\m_tb\m_tb_store_wvt.c 0x00000000   Number         0  m_tb_store_wvt.o ABSOLUTE
    ..\ip\ble\mesh\src\m_tb\m_tb_timer.c     0x00000000   Number         0  m_tb_timer.o ABSOLUTE
    ..\modules\os\os_mem.c                   0x00000000   Number         0  os_mem.o ABSOLUTE
    ..\modules\os\os_msg_q.c                 0x00000000   Number         0  os_msg_q.o ABSOLUTE
    ..\modules\os\os_task.c                  0x00000000   Number         0  os_task.o ABSOLUTE
    ..\modules\os\os_timer.c                 0x00000000   Number         0  os_timer.o ABSOLUTE
    ..\modules\patch\patch_frspim.c          0x00000000   Number         0  patch_frspim.o ABSOLUTE
    ..\modules\patch\patch_lld.c             0x00000000   Number         0  patch_lld.o ABSOLUTE
    ..\modules\patch\patch_rf.c              0x00000000   Number         0  patch_rf.o ABSOLUTE
    ..\modules\patch\patch_rwip.c            0x00000000   Number         0  patch_rwip.o ABSOLUTE
    ..\modules\sys\sys_utisl.c               0x00000000   Number         0  sys_utisl.o ABSOLUTE
    ..\plf\refip\src\arch\entry.c            0x00000000   Number         0  entry.o ABSOLUTE
    ..\plf\refip\src\arch\jump_table_host.c  0x00000000   Number         0  jump_table_host.o ABSOLUTE
    ..\plf\refip\src\driver\trng\trng.c      0x00000000   Number         0  trng.o ABSOLUTE
    cdrcmple.s                               0x00000000   Number         0  cdrcmple.o ABSOLUTE
    jump_table_0                             0x10000000   Section        4  jump_table_host.o(jump_table_0)
    jump_table_1                             0x10000004   Section        8  proj_main.o(jump_table_1)
    jump_table_2                             0x1000000c   Section        8  jump_table_host.o(jump_table_2)
    jump_table_3                             0x10000014   Section        8  proj_main.o(jump_table_3)
    jump_table_4                             0x1000001c   Section       72  jump_table_host.o(jump_table_4)
    .text                                    0x10002000   Section       20  boot_vectors.o(.text)
    .text                                    0x10002014   Section        0  uldiv.o(.text)
    .text                                    0x10002076   Section        0  strstr.o(.text)
    .text                                    0x1000209a   Section        0  strlen.o(.text)
    .text                                    0x100020a8   Section        0  strcpy.o(.text)
    .text                                    0x100020ba   Section        0  uidiv.o(.text)
    .text                                    0x100020e6   Section        0  llshl.o(.text)
    .text                                    0x10002104   Section        0  llushr.o(.text)
    .text                                    0x10002124   Section        0  dadd.o(.text)
    .text                                    0x10002124   Section        0  iusefp.o(.text)
    .text                                    0x10002272   Section        0  dmul.o(.text)
    .text                                    0x10002356   Section        0  ddiv.o(.text)
    .text                                    0x10002434   Section        0  dfixul.o(.text)
    .text                                    0x10002464   Section       48  cdrcmple.o(.text)
    .text                                    0x10002494   Section        0  llsshr.o(.text)
    .text                                    0x100024b8   Section        0  depilogue.o(.text)
    Long Thumb to Thumb Veneer to eqr4EzQ9   0x10002573   Thumb Code    10  anon$$obj.o(Veneer$$Code)
    Long Thumb to Thumb Veneer to vFjjTyMa   0x10002771   Thumb Code    10  anon$$obj.o(Veneer$$Code)
    Long Thumb to Thumb Veneer to G3b61UV4   0x1000277b   Thumb Code    10  anon$$obj.o(Veneer$$Code)
    Long Thumb to Thumb Veneer to _resource_internal_read 0x10002889   Thumb Code    10  anon$$obj.o(Veneer$$Code)
    i.DeQueue                                0x1000290a   Section        0  ring.o(i.DeQueue)
    i.EnQueueSignal                          0x1000294a   Section        0  ring.o(i.EnQueueSignal)
    i.FyG6GBeJ0lVg                           0x10002988   Section        0  zksec.o(i.FyG6GBeJ0lVg)
    FyG6GBeJ0lVg                             0x10002989   Thumb Code   408  zksec.o(i.FyG6GBeJ0lVg)
    i.HAL_Delay                              0x10002bf4   Section        0  uartupgradedev.o(i.HAL_Delay)
    HAL_Delay                                0x10002bf5   Thumb Code     8  uartupgradedev.o(i.HAL_Delay)
    i.HAL_Delay                              0x10002bfc   Section        0  gui_main.o(i.HAL_Delay)
    i.HAL_GetTick                            0x10002c14   Section        0  gui_main.o(i.HAL_GetTick)
    i.ICJ7hyDFI99I7bC                        0x10002c20   Section        0  zksec.o(i.ICJ7hyDFI99I7bC)
    i.I_UART_Transmit                        0x10002c98   Section        0  uartupgradedev.o(i.I_UART_Transmit)
    i.InitQueue                              0x10002ca4   Section        0  ring.o(i.InitQueue)
    i.LCD_Set_Window                         0x10002cc4   Section        0  sdl_gfx.o(i.LCD_Set_Window)
    i.LCD_WR_DATA                            0x10002d28   Section        0  sdl_gfx.o(i.LCD_WR_DATA)
    LCD_WR_DATA                              0x10002d29   Thumb Code    50  sdl_gfx.o(i.LCD_WR_DATA)
    i.LCD_WR_REG                             0x10002d64   Section        0  sdl_gfx.o(i.LCD_WR_REG)
    LCD_WR_REG                               0x10002d65   Thumb Code    50  sdl_gfx.o(i.LCD_WR_REG)
    i.LCD_endWriteMutileData                 0x10002da0   Section        0  sdl_gfx.o(i.LCD_endWriteMutileData)
    LCD_endWriteMutileData                   0x10002da1   Thumb Code    26  sdl_gfx.o(i.LCD_endWriteMutileData)
    i.LCD_startWriteMutileData               0x10002dc4   Section        0  sdl_gfx.o(i.LCD_startWriteMutileData)
    LCD_startWriteMutileData                 0x10002dc5   Thumb Code    20  sdl_gfx.o(i.LCD_startWriteMutileData)
    i.ModifyQueueFront                       0x10002ddc   Section        0  ring.o(i.ModifyQueueFront)
    i.PeekQueue                              0x10002df8   Section        0  ring.o(i.PeekQueue)
    i.QueueCount                             0x10002e58   Section        0  ring.o(i.QueueCount)
    i.QueueEmpty                             0x10002e5c   Section        0  ring.o(i.QueueEmpty)
    i.QueueFull                              0x10002e6a   Section        0  ring.o(i.QueueFull)
    i.RRnQEZ5CzfNbBxz                        0x10002e7c   Section        0  zksec.o(i.RRnQEZ5CzfNbBxz)
    i.Rx_CRC_CCITT                           0x10002ef0   Section        0  uartupgradedev.o(i.Rx_CRC_CCITT)
    i.UmF2CSKI1zR                            0x10002f2c   Section        0  sdl_gfx.o(i.UmF2CSKI1zR)
    i.YYYuV3R1FCn                            0x10002f50   Section        0  sdl_gfx.o(i.YYYuV3R1FCn)
    i._SDL_fill_rect                         0x10002f74   Section        0  sdl_gfx.o(i._SDL_fill_rect)
    i.__0printf                              0x10002fc4   Section        0  printfa.o(i.__0printf)
    i.__0sprintf                             0x10002fe4   Section        0  printfa.o(i.__0sprintf)
    i.__0vprintf                             0x1000300c   Section        0  printfa.o(i.__0vprintf)
    i.__NVIC_ClearPendingIRQ                 0x1000301c   Section        0  uartupgradedev.o(i.__NVIC_ClearPendingIRQ)
    __NVIC_ClearPendingIRQ                   0x1000301d   Thumb Code    26  uartupgradedev.o(i.__NVIC_ClearPendingIRQ)
    i.__NVIC_ClearPendingIRQ                 0x10003036   Section        0  gui_main.o(i.__NVIC_ClearPendingIRQ)
    __NVIC_ClearPendingIRQ                   0x10003037   Thumb Code    26  gui_main.o(i.__NVIC_ClearPendingIRQ)
    i.__NVIC_EnableIRQ                       0x10003050   Section        0  proj_main.o(i.__NVIC_EnableIRQ)
    __NVIC_EnableIRQ                         0x10003051   Thumb Code    26  proj_main.o(i.__NVIC_EnableIRQ)
    i.__NVIC_EnableIRQ                       0x1000306a   Section        0  uartupgradedev.o(i.__NVIC_EnableIRQ)
    __NVIC_EnableIRQ                         0x1000306b   Thumb Code    26  uartupgradedev.o(i.__NVIC_EnableIRQ)
    i.__NVIC_EnableIRQ                       0x10003084   Section        0  gui_main.o(i.__NVIC_EnableIRQ)
    __NVIC_EnableIRQ                         0x10003085   Thumb Code    26  gui_main.o(i.__NVIC_EnableIRQ)
    i._do_widget_proc                        0x100030a0   Section        0  guicontext.o(i._do_widget_proc)
    _do_widget_proc                          0x100030a1   Thumb Code    80  guicontext.o(i._do_widget_proc)
    i._draw_font_graph                       0x100030f4   Section        0  label.o(i._draw_font_graph)
    _draw_font_graph                         0x100030f5   Thumb Code   104  label.o(i._draw_font_graph)
    i._dump_val                              0x10003160   Section        0  guicontext.o(i._dump_val)
    _dump_val                                0x10003161   Thumb Code    46  guicontext.o(i._dump_val)
    i._fp_digits                             0x100031a8   Section        0  printfa.o(i._fp_digits)
    _fp_digits                               0x100031a9   Thumb Code   366  printfa.o(i._fp_digits)
    i._get_code_data_offset                  0x1000332c   Section        0  label.o(i._get_code_data_offset)
    _get_code_data_offset                    0x1000332d   Thumb Code    84  label.o(i._get_code_data_offset)
    i._get_lines_height                      0x10003380   Section        0  label.o(i._get_lines_height)
    _get_lines_height                        0x10003381   Thumb Code    36  label.o(i._get_lines_height)
    i._get_one_line_width                    0x100033a4   Section        0  label.o(i._get_one_line_width)
    _get_one_line_width                      0x100033a5   Thumb Code    50  label.o(i._get_one_line_width)
    i._load_page                             0x100033d8   Section        0  guicontext.o(i._load_page)
    _load_page                               0x100033d9   Thumb Code   396  guicontext.o(i._load_page)
    i._printf_core                           0x100035fc   Section        0  printfa.o(i._printf_core)
    _printf_core                             0x100035fd   Thumb Code  1744  printfa.o(i._printf_core)
    i._printf_post_padding                   0x10003cd8   Section        0  printfa.o(i._printf_post_padding)
    _printf_post_padding                     0x10003cd9   Thumb Code    36  printfa.o(i._printf_post_padding)
    i._printf_pre_padding                    0x10003cfc   Section        0  printfa.o(i._printf_pre_padding)
    _printf_pre_padding                      0x10003cfd   Thumb Code    46  printfa.o(i._printf_pre_padding)
    i._proc_message                          0x10003d2c   Section        0  guicontext.o(i._proc_message)
    _proc_message                            0x10003d2d   Thumb Code   176  guicontext.o(i._proc_message)
    i._proc_timer                            0x10003de0   Section        0  guicontext.o(i._proc_timer)
    _proc_timer                              0x10003de1   Thumb Code    72  guicontext.o(i._proc_timer)
    i._proc_touch_event                      0x10003e30   Section        0  guicontext.o(i._proc_touch_event)
    _proc_touch_event                        0x10003e31   Thumb Code   104  guicontext.o(i._proc_touch_event)
    i._proc_widget_refresh                   0x10003e9c   Section        0  guicontext.o(i._proc_widget_refresh)
    _proc_widget_refresh                     0x10003e9d   Thumb Code   128  guicontext.o(i._proc_widget_refresh)
    i._sputc                                 0x10003f28   Section        0  printfa.o(i._sputc)
    _sputc                                   0x10003f29   Thumb Code    10  printfa.o(i._sputc)
    i._unload_page                           0x10003f34   Section        0  guicontext.o(i._unload_page)
    _unload_page                             0x10003f35   Thumb Code    86  guicontext.o(i._unload_page)
    i._update_reg_data                       0x10003f94   Section        0  increment.o(i._update_reg_data)
    _update_reg_data                         0x10003f95   Thumb Code   102  increment.o(i._update_reg_data)
    i.aQLKY0byY09                            0x10004000   Section        0  md5.o(i.aQLKY0byY09)
    i.animation_proc                         0x10004024   Section        0  animation.o(i.animation_proc)
    i.app_act_created_ind_func               0x100040fc   Section        0  app_proj_event.o(i.app_act_created_ind_func)
    i.app_act_deleted_ind_func               0x100041d8   Section        0  app_proj_event.o(i.app_act_deleted_ind_func)
    i.app_addr_resolve_result_ind_func       0x10004280   Section        0  app_proj_event.o(i.app_addr_resolve_result_ind_func)
    i.app_adv_complete_ind_func              0x100042a0   Section        0  app_proj_event.o(i.app_adv_complete_ind_func)
    i.app_adv_report_ind_func                0x10004354   Section        0  app_proj_event.o(i.app_adv_report_ind_func)
    i.app_conn_complete_ind_func             0x100043f8   Section        0  app_proj_event.o(i.app_conn_complete_ind_func)
    i.app_connection_master_encrypt_compeleted_ind_func 0x1000449c   Section        0  app_proj_event.o(i.app_connection_master_encrypt_compeleted_ind_func)
    i.app_connection_master_encrypted_ind_func 0x10004548   Section        0  app_proj_event.o(i.app_connection_master_encrypted_ind_func)
    i.app_connection_paring_info_ind_func    0x100045dc   Section        0  app_proj_event.o(i.app_connection_paring_info_ind_func)
    i.app_connection_req_ind_func            0x1000467c   Section        0  app_proj_event.o(i.app_connection_req_ind_func)
    i.app_connection_slave_encrypted_ind_func 0x1000471c   Section        0  app_proj_event.o(i.app_connection_slave_encrypted_ind_func)
    i.app_connection_success_ind_func        0x100047b0   Section        0  app_proj_event.o(i.app_connection_success_ind_func)
    i.app_db_init_complete_ind_func          0x10004850   Section        0  app_proj_event.o(i.app_db_init_complete_ind_func)
    i.app_disconnect_ind_func                0x1000485c   Section        0  app_proj_event.o(i.app_disconnect_ind_func)
    i.app_get_current_rssi_rsp               0x10004904   Section        0  app_task.o(i.app_get_current_rssi_rsp)
    app_get_current_rssi_rsp                 0x10004905   Thumb Code    34  app_task.o(i.app_get_current_rssi_rsp)
    i.app_get_handler                        0x1000492c   Section        0  app_task.o(i.app_get_handler)
    app_get_handler                          0x1000492d   Thumb Code    70  app_task.o(i.app_get_handler)
    i.app_get_info_ind_func                  0x10004974   Section        0  app_proj_event.o(i.app_get_info_ind_func)
    i.app_main                               0x100049a8   Section        0  entry.o(i.app_main)
    i.app_per_sync_completed_ind_func        0x10004b94   Section        0  app_proj_event.o(i.app_per_sync_completed_ind_func)
    i.app_per_sync_established_ind_func      0x10004c30   Section        0  app_proj_event.o(i.app_per_sync_established_ind_func)
    i.app_reset_complete_ind_func            0x10004cd8   Section        0  app_proj_event.o(i.app_reset_complete_ind_func)
    i.app_scanning_completed_ind_func        0x10004d04   Section        0  app_proj_event.o(i.app_scanning_completed_ind_func)
    i.app_sec_msg_dflt_handler               0x10004d9c   Section        0  app_sec.o(i.app_sec_msg_dflt_handler)
    app_sec_msg_dflt_handler                 0x10004d9d   Thumb Code     4  app_sec.o(i.app_sec_msg_dflt_handler)
    i.app_set_dev_config_complete_ind_func   0x10004da0   Section        0  app_proj_event.o(i.app_set_dev_config_complete_ind_func)
    i.app_set_phy_ind_func                   0x10004dd4   Section        0  app_proj_event.o(i.app_set_phy_ind_func)
    i.app_svc_added_ind_func                 0x10004e7c   Section        0  app_proj_event.o(i.app_svc_added_ind_func)
    i.app_update_params_complete_ind_func    0x10004e90   Section        0  app_proj_event.o(i.app_update_params_complete_ind_func)
    i.app_update_params_rejected_ind_func    0x10004e94   Section        0  app_proj_event.o(i.app_update_params_rejected_ind_func)
    i.app_update_params_update_ind_func      0x10004f44   Section        0  app_proj_event.o(i.app_update_params_update_ind_func)
    i.app_update_phy_rejected_ind_func       0x10005010   Section        0  app_proj_event.o(i.app_update_phy_rejected_ind_func)
    i.appm_adv_get_defer_op                  0x100050b8   Section        0  app.o(i.appm_adv_get_defer_op)
    i.appm_adv_recv_gapm_cmp                 0x100050c8   Section        0  app.o(i.appm_adv_recv_gapm_cmp)
    i.appm_adv_set_defer_op                  0x100052a8   Section        0  app.o(i.appm_adv_set_defer_op)
    i.appm_conn_recv_gapm_cmp                0x100052c0   Section        0  app_conn.o(i.appm_conn_recv_gapm_cmp)
    i.appm_create_adv_act                    0x10005314   Section        0  app.o(i.appm_create_adv_act)
    i.appm_create_aux_adv_act                0x1000532c   Section        0  app.o(i.appm_create_aux_adv_act)
    i.appm_create_conn_act                   0x100053dc   Section        0  app.o(i.appm_create_conn_act)
    i.appm_create_legacy_adv_act             0x1000540c   Section        0  app.o(i.appm_create_legacy_adv_act)
    i.appm_create_per_adv_act                0x100054d0   Section        0  app.o(i.appm_create_per_adv_act)
    i.appm_create_scan_act                   0x10005550   Section        0  app.o(i.appm_create_scan_act)
    i.appm_exc_activity_cmp                  0x10005594   Section        0  app.o(i.appm_exc_activity_cmp)
    i.appm_execute_activity_cmd              0x100055d0   Section        0  app.o(i.appm_execute_activity_cmd)
    i.appm_init_imp                          0x10005614   Section        0  app.o(i.appm_init_imp)
    i.appm_init_imp_for_hci                  0x10005670   Section        0  app.o(i.appm_init_imp_for_hci)
    i.appm_msg_handler                       0x100056a0   Section        0  app_task.o(i.appm_msg_handler)
    appm_msg_handler                         0x100056a1   Thumb Code   160  app_task.o(i.appm_msg_handler)
    i.appm_period_sync_recv_gapm_cmp         0x1000574c   Section        0  app.o(i.appm_period_sync_recv_gapm_cmp)
    i.appm_scan_recv_gapm_cmp                0x10005798   Section        0  app.o(i.appm_scan_recv_gapm_cmp)
    i.appm_set_advertising_data              0x100057e4   Section        0  app.o(i.appm_set_advertising_data)
    i.appm_set_per_adv_data                  0x10005920   Section        0  app.o(i.appm_set_per_adv_data)
    i.appm_set_scan_response_data            0x10005a20   Section        0  app.o(i.appm_set_scan_response_data)
    i.appm_start_advertising                 0x10005b6c   Section        0  app.o(i.appm_start_advertising)
    i.appm_start_conn                        0x10005c78   Section        0  app_conn.o(i.appm_start_conn)
    i.appm_stop_advertising                  0x10005d90   Section        0  app.o(i.appm_stop_advertising)
    i.attc_err_rsp_handler                   0x10005e48   Section        0  attc.o(i.attc_err_rsp_handler)
    attc_err_rsp_handler                     0x10005e49   Thumb Code    14  attc.o(i.attc_err_rsp_handler)
    i.attc_exc_mtu_rsp_handler               0x10005e56   Section        0  attc.o(i.attc_exc_mtu_rsp_handler)
    attc_exc_mtu_rsp_handler                 0x10005e57   Thumb Code    56  attc.o(i.attc_exc_mtu_rsp_handler)
    i.attc_exe_wr_rsp_handler                0x10005e8e   Section        0  attc.o(i.attc_exe_wr_rsp_handler)
    attc_exe_wr_rsp_handler                  0x10005e8f   Thumb Code    56  attc.o(i.attc_exe_wr_rsp_handler)
    i.attc_find_by_type_rsp_handler          0x10005ec6   Section        0  attc.o(i.attc_find_by_type_rsp_handler)
    attc_find_by_type_rsp_handler            0x10005ec7   Thumb Code   172  attc.o(i.attc_find_by_type_rsp_handler)
    i.attc_find_info_rsp_handler             0x10005f72   Section        0  attc.o(i.attc_find_info_rsp_handler)
    attc_find_info_rsp_handler               0x10005f73   Thumb Code   180  attc.o(i.attc_find_info_rsp_handler)
    i.attc_hdl_val_ntf_ind_handler           0x10006028   Section        0  attc.o(i.attc_hdl_val_ntf_ind_handler)
    attc_hdl_val_ntf_ind_handler             0x10006029   Thumb Code   124  attc.o(i.attc_hdl_val_ntf_ind_handler)
    i.attc_l2cc_pdu_recv_handler             0x100060a8   Section        0  attc.o(i.attc_l2cc_pdu_recv_handler)
    i.attc_prep_wr_rsp_handler               0x10006100   Section        0  attc.o(i.attc_prep_wr_rsp_handler)
    attc_prep_wr_rsp_handler                 0x10006101   Thumb Code    96  attc.o(i.attc_prep_wr_rsp_handler)
    i.attc_rd_by_grp_type_rsp_handler        0x10006160   Section        0  attc.o(i.attc_rd_by_grp_type_rsp_handler)
    attc_rd_by_grp_type_rsp_handler          0x10006161   Thumb Code   242  attc.o(i.attc_rd_by_grp_type_rsp_handler)
    i.attc_rd_by_type_rsp_handler            0x10006254   Section        0  attc.o(i.attc_rd_by_type_rsp_handler)
    attc_rd_by_type_rsp_handler              0x10006255   Thumb Code   616  attc.o(i.attc_rd_by_type_rsp_handler)
    i.attc_rd_mult_rsp_handler               0x100064c0   Section        0  attc.o(i.attc_rd_mult_rsp_handler)
    attc_rd_mult_rsp_handler                 0x100064c1   Thumb Code   182  attc.o(i.attc_rd_mult_rsp_handler)
    i.attc_rd_rsp_handler                    0x10006578   Section        0  attc.o(i.attc_rd_rsp_handler)
    attc_rd_rsp_handler                      0x10006579   Thumb Code   256  attc.o(i.attc_rd_rsp_handler)
    i.attc_send_att_req                      0x1000667c   Section        0  attc.o(i.attc_send_att_req)
    i.attc_send_execute                      0x100066ac   Section        0  attc.o(i.attc_send_execute)
    i.attc_send_hdl_cfm                      0x100066d4   Section        0  attc.o(i.attc_send_hdl_cfm)
    i.attc_send_read_ind                     0x100066f8   Section        0  attc.o(i.attc_send_read_ind)
    i.attc_wr_rsp_handler                    0x100067e0   Section        0  attc.o(i.attc_wr_rsp_handler)
    attc_wr_rsp_handler                      0x100067e1   Thumb Code    32  attc.o(i.attc_wr_rsp_handler)
    i.attm_att_set_value                     0x10006800   Section        0  attm.o(i.attm_att_set_value)
    i.attm_att_update_perm                   0x100068ac   Section        0  attm.o(i.attm_att_update_perm)
    i.attm_convert_to128                     0x10006914   Section        0  attm.o(i.attm_convert_to128)
    i.attm_get_value                         0x10006954   Section        0  attm.o(i.attm_get_value)
    i.attm_init                              0x10006ad0   Section        0  attm.o(i.attm_init)
    i.attm_is_bt16_uuid                      0x10006ae4   Section        0  attm.o(i.attm_is_bt16_uuid)
    i.attm_is_bt32_uuid                      0x10006ae8   Section        0  attm.o(i.attm_is_bt32_uuid)
    i.attm_svc_create_db                     0x10006aec   Section        0  attm.o(i.attm_svc_create_db)
    i.attm_svc_create_db_ext                 0x10006bec   Section        0  attm.o(i.attm_svc_create_db_ext)
    i.attm_svc_get_permission                0x10006d50   Section        0  attm.o(i.attm_svc_get_permission)
    i.attm_uuid16_comp                       0x10006d6c   Section        0  attm.o(i.attm_uuid16_comp)
    i.attm_uuid_comp                         0x10006d78   Section        0  attm.o(i.attm_uuid_comp)
    i.attmdb_add_service                     0x10006dd0   Section        0  attm_db.o(i.attmdb_add_service)
    i.attmdb_att_get_permission              0x10006e44   Section        0  attm_db.o(i.attmdb_att_get_permission)
    i.attmdb_destroy                         0x10006f54   Section        0  attm_db.o(i.attmdb_destroy)
    i.attmdb_get_attribute                   0x10006f74   Section        0  attm_db.o(i.attmdb_get_attribute)
    i.attmdb_get_max_len                     0x10006fa8   Section        0  attm_db.o(i.attmdb_get_max_len)
    i.attmdb_get_next_att                    0x10007004   Section        0  attm_db.o(i.attmdb_get_next_att)
    i.attmdb_get_service                     0x1000707c   Section        0  attm_db.o(i.attmdb_get_service)
    i.attmdb_get_uuid                        0x100070c4   Section        0  attm_db.o(i.attmdb_get_uuid)
    i.attmdb_svc_calc_len                    0x1000719a   Section        0  attm_db.o(i.attmdb_svc_calc_len)
    attmdb_svc_calc_len                      0x1000719b   Thumb Code   452  attm_db.o(i.attmdb_svc_calc_len)
    i.attmdb_svc_check_hdl                   0x10007360   Section        0  attm_db.o(i.attmdb_svc_check_hdl)
    i.attmdb_svc_init                        0x100073b4   Section        0  attm_db.o(i.attmdb_svc_init)
    attmdb_svc_init                          0x100073b5   Thumb Code   458  attm_db.o(i.attmdb_svc_init)
    i.attmdb_uuid16_comp                     0x1000757e   Section        0  attm_db.o(i.attmdb_uuid16_comp)
    i.atts_check_length_and_offset           0x100075b8   Section        0  atts.o(i.atts_check_length_and_offset)
    atts_check_length_and_offset             0x100075b9   Thumb Code    44  atts.o(i.atts_check_length_and_offset)
    i.atts_clear_prep_data                   0x100075e4   Section        0  atts.o(i.atts_clear_prep_data)
    i.atts_clear_read_cache                  0x10007608   Section        0  atts.o(i.atts_clear_read_cache)
    i.atts_clear_rsp_data                    0x1000762c   Section        0  atts.o(i.atts_clear_rsp_data)
    i.atts_execute_write_req                 0x10007650   Section        0  atts.o(i.atts_execute_write_req)
    atts_execute_write_req                   0x10007651   Thumb Code   372  atts.o(i.atts_execute_write_req)
    i.atts_find_by_type_req                  0x100077c8   Section        0  atts.o(i.atts_find_by_type_req)
    atts_find_by_type_req                    0x100077c9   Thumb Code   386  atts.o(i.atts_find_by_type_req)
    i.atts_find_end                          0x10007950   Section        0  atts.o(i.atts_find_end)
    atts_find_end                            0x10007951   Thumb Code   122  atts.o(i.atts_find_end)
    i.atts_find_info_req                     0x100079cc   Section        0  atts.o(i.atts_find_info_req)
    atts_find_info_req                       0x100079cd   Thumb Code   322  atts.o(i.atts_find_info_req)
    i.atts_find_value_by_uuid                0x10007b14   Section        0  atts.o(i.atts_find_value_by_uuid)
    atts_find_value_by_uuid                  0x10007b15   Thumb Code   152  atts.o(i.atts_find_value_by_uuid)
    i.atts_get_att_chk_perm                  0x10007bac   Section        0  atts.o(i.atts_get_att_chk_perm)
    atts_get_att_chk_perm                    0x10007bad   Thumb Code   148  atts.o(i.atts_get_att_chk_perm)
    i.atts_get_dest_task                     0x10007c44   Section        0  atts.o(i.atts_get_dest_task)
    atts_get_dest_task                       0x10007c45   Thumb Code    26  atts.o(i.atts_get_dest_task)
    i.atts_get_value                         0x10007c60   Section        0  atts.o(i.atts_get_value)
    atts_get_value                           0x10007c61   Thumb Code   126  atts.o(i.atts_get_value)
    i.atts_l2cc_pdu_recv_handler             0x10007ce4   Section        0  atts.o(i.atts_l2cc_pdu_recv_handler)
    i.atts_mtu_exc_req                       0x10007d88   Section        0  atts.o(i.atts_mtu_exc_req)
    atts_mtu_exc_req                         0x10007d89   Thumb Code    66  atts.o(i.atts_mtu_exc_req)
    i.atts_prepare_write_req                 0x10007dcc   Section        0  atts.o(i.atts_prepare_write_req)
    atts_prepare_write_req                   0x10007dcd   Thumb Code   244  atts.o(i.atts_prepare_write_req)
    i.atts_process_pdu                       0x10007ec4   Section        0  atts.o(i.atts_process_pdu)
    i.atts_read_blob_req                     0x10007f38   Section        0  atts.o(i.atts_read_blob_req)
    atts_read_blob_req                       0x10007f39   Thumb Code   186  atts.o(i.atts_read_blob_req)
    i.atts_read_by_grp_type_req              0x10007ff4   Section        0  atts.o(i.atts_read_by_grp_type_req)
    atts_read_by_grp_type_req                0x10007ff5   Thumb Code   442  atts.o(i.atts_read_by_grp_type_req)
    i.atts_read_by_type_req                  0x100081b4   Section        0  atts.o(i.atts_read_by_type_req)
    atts_read_by_type_req                    0x100081b5   Thumb Code   420  atts.o(i.atts_read_by_type_req)
    i.atts_read_mult_req                     0x1000835c   Section        0  atts.o(i.atts_read_mult_req)
    atts_read_mult_req                       0x1000835d   Thumb Code   284  atts.o(i.atts_read_mult_req)
    i.atts_read_req                          0x1000847c   Section        0  atts.o(i.atts_read_req)
    atts_read_req                            0x1000847d   Thumb Code   156  atts.o(i.atts_read_req)
    i.atts_send_error                        0x10008518   Section        0  atts.o(i.atts_send_error)
    i.atts_send_event                        0x10008540   Section        0  atts.o(i.atts_send_event)
    i.atts_store_prep_data                   0x100085d0   Section        0  atts.o(i.atts_store_prep_data)
    atts_store_prep_data                     0x100085d1   Thumb Code   116  atts.o(i.atts_store_prep_data)
    i.atts_update_elmt                       0x10008648   Section        0  atts.o(i.atts_update_elmt)
    atts_update_elmt                         0x10008649   Thumb Code    68  atts.o(i.atts_update_elmt)
    i.atts_write_cmd                         0x1000868c   Section        0  atts.o(i.atts_write_cmd)
    atts_write_cmd                           0x1000868d   Thumb Code    62  atts.o(i.atts_write_cmd)
    i.atts_write_req                         0x100086ca   Section        0  atts.o(i.atts_write_req)
    atts_write_req                           0x100086cb   Thumb Code    78  atts.o(i.atts_write_req)
    i.atts_write_rsp_send                    0x10008718   Section        0  atts.o(i.atts_write_rsp_send)
    i.atts_write_signed                      0x10008746   Section        0  atts.o(i.atts_write_signed)
    atts_write_signed                        0x10008747   Thumb Code   122  atts.o(i.atts_write_signed)
    i.atts_write_signed_cfm                  0x100087c0   Section        0  atts.o(i.atts_write_signed_cfm)
    i.ble_add_svc                            0x100087fc   Section        0  app.o(i.ble_add_svc)
    i.ble_bond_addr_resolve_cb               0x10008834   Section        0  user_bond_manage.o(i.ble_bond_addr_resolve_cb)
    ble_bond_addr_resolve_cb                 0x10008835   Thumb Code   144  user_bond_manage.o(i.ble_bond_addr_resolve_cb)
    i.ble_bond_check                         0x10008920   Section        0  user_bond_manage.o(i.ble_bond_check)
    i.ble_bond_get_info                      0x10008aac   Section        0  user_bond_manage.o(i.ble_bond_get_info)
    i.ble_bond_init                          0x10008bec   Section        0  user_bond_manage.o(i.ble_bond_init)
    i.ble_bond_read_info_from_flash          0x10008cb0   Section        0  user_bond_manage.o(i.ble_bond_read_info_from_flash)
    i.ble_bond_store_info                    0x10008d4c   Section        0  user_bond_manage.o(i.ble_bond_store_info)
    i.ble_bond_write_info_to_flash           0x10008f50   Section        0  user_bond_manage.o(i.ble_bond_write_info_to_flash)
    i.ble_gap_set_dev_config                 0x10009020   Section        0  app.o(i.ble_gap_set_dev_config)
    i.ble_sec_check_ediv_rand                0x100090c0   Section        0  app_sec.o(i.ble_sec_check_ediv_rand)
    i.ble_sec_get_bond_status                0x10009108   Section        0  app_sec.o(i.ble_sec_get_bond_status)
    i.ble_sec_init                           0x10009114   Section        0  app_sec.o(i.ble_sec_init)
    i.ble_sec_resolve_address                0x10009188   Section        0  app_sec.o(i.ble_sec_resolve_address)
    i.ble_set_evt_func                       0x100091d0   Section        0  app.o(i.ble_set_evt_func)
    i.ble_stack_configure                    0x100091e4   Section        0  jump_table_host.o(i.ble_stack_configure)
    i.ble_stack_init                         0x10009318   Section        0  app.o(i.ble_stack_init)
    i.block_get_next                         0x100093a8   Section        0  fy_mem.o(i.block_get_next)
    block_get_next                           0x100093a9   Thumb Code    32  fy_mem.o(i.block_get_next)
    i.block_trunc                            0x100093cc   Section        0  fy_mem.o(i.block_trunc)
    block_trunc                              0x100093cd   Thumb Code    68  fy_mem.o(i.block_trunc)
    i.button_proc                            0x10009410   Section        0  button.o(i.button_proc)
    i.calc                                   0x100094a0   Section        0  md5.o(i.calc)
    calc                                     0x100094a1   Thumb Code  1912  md5.o(i.calc)
    i.calib_meter_evt_end                    0x10009c90   Section        0  adv_check_mode.o(i.calib_meter_evt_end)
    i.calib_meter_recv_msg                   0x10009c92   Section        0  adv_check_mode.o(i.calib_meter_recv_msg)
    i.check_timer_handle                     0x10009c94   Section        0  os_timer.o(i.check_timer_handle)
    i.cmd_EnterUpdateMode                    0x10009db4   Section        0  dgus_cmd.o(i.cmd_EnterUpdateMode)
    i.cmd_FillIcon                           0x10009e00   Section        0  dgus_cmd.o(i.cmd_FillIcon)
    i.cmd_FillIconClip                       0x10009e6c   Section        0  dgus_cmd.o(i.cmd_FillIconClip)
    i.cmd_Fillbg                             0x10009ee4   Section        0  dgus_cmd.o(i.cmd_Fillbg)
    i.cmd_clearLcd                           0x10009f24   Section        0  dgus_cmd.o(i.cmd_clearLcd)
    i.cmd_setColorkey                        0x10009f7c   Section        0  dgus_cmd.o(i.cmd_setColorkey)
    i.decode_base64                          0x10009fa8   Section        0  zksec.o(i.decode_base64)
    i.deinitdev                              0x1000a08c   Section        0  uartupgradedev.o(i.deinitdev)
    deinitdev                                0x1000a08d   Thumb Code     2  uartupgradedev.o(i.deinitdev)
    i.dgus_cmdpro                            0x1000a090   Section        0  dgus_cmd.o(i.dgus_cmdpro)
    i.disableDisplay                         0x1000a198   Section        0  uartupgradedev.o(i.disableDisplay)
    i.display_init_io                        0x1000a19c   Section        0  sdl_video.o(i.display_init_io)
    i.dumpbuff                               0x1000a260   Section        0  dgus_cmd.o(i.dumpbuff)
    i.dxjW68jVf0X_q                          0x1000a2a0   Section        0  zksec.o(i.dxjW68jVf0X_q)
    dxjW68jVf0X_q                            0x1000a2a1   Thumb Code   288  zksec.o(i.dxjW68jVf0X_q)
    i.enableDisplay                          0x1000a400   Section        0  uartupgradedev.o(i.enableDisplay)
    i.encode_base64                          0x1000a404   Section        0  zksec.o(i.encode_base64)
    i.event_deinit                           0x1000a504   Section        0  sdl_event.o(i.event_deinit)
    i.event_init                             0x1000a508   Section        0  sdl_event.o(i.event_init)
    i.event_poll                             0x1000a528   Section        0  sdl_event.o(i.event_poll)
    i.flush_flash                            0x1000a52c   Section        0  uartupgradedev.o(i.flush_flash)
    i.from_task_func_to_msg_handle           0x1000a5a8   Section        0  os_task.o(i.from_task_func_to_msg_handle)
    i.fy_bits_counts_of_one                  0x1000a5cc   Section        0  fy_bits.o(i.fy_bits_counts_of_one)
    i.fy_flash_page_write                    0x1000a5f4   Section        0  uartupgradedev.o(i.fy_flash_page_write)
    i.fy_mem_alloc                           0x1000a688   Section        0  fy_mem.o(i.fy_mem_alloc)
    i.fy_mem_defrag                          0x1000a6f8   Section        0  fy_mem.o(i.fy_mem_defrag)
    i.fy_mem_free                            0x1000a740   Section        0  fy_mem.o(i.fy_mem_free)
    i.fy_mem_init                            0x1000a794   Section        0  fy_mem.o(i.fy_mem_init)
    i.gap_address_set                        0x1000a88c   Section        0  gap_api.o(i.gap_address_set)
    i.gap_bond_manager_init                  0x1000a8b8   Section        0  gap_api.o(i.gap_bond_manager_init)
    i.gap_dev_name_get                       0x1000a8bc   Section        0  gap_api.o(i.gap_dev_name_get)
    i.gap_dev_name_set                       0x1000a8d4   Section        0  gap_api.o(i.gap_dev_name_set)
    i.gap_disconnect_req                     0x1000a8f0   Section        0  gap_api.o(i.gap_disconnect_req)
    i.gap_get_connect_status                 0x1000a984   Section        0  gap_api.o(i.gap_get_connect_status)
    i.gap_get_dev_appearance                 0x1000a994   Section        0  gap_api.o(i.gap_get_dev_appearance)
    i.gap_paring_req_cb                      0x1000a9a0   Section        0  app_sec.o(i.gap_paring_req_cb)
    gap_paring_req_cb                        0x1000a9a1   Thumb Code   108  app_sec.o(i.gap_paring_req_cb)
    i.gap_set_dev_appearance                 0x1000aa10   Section        0  gap_api.o(i.gap_set_dev_appearance)
    i.gapc_auth_get                          0x1000aa1c   Section        0  gapc.o(i.gapc_auth_get)
    i.gapc_auth_set                          0x1000aa60   Section        0  gapc.o(i.gapc_auth_set)
    i.gapc_bond_cfm_handler                  0x1000aac4   Section        0  gapc_task.o(i.gapc_bond_cfm_handler)
    gapc_bond_cfm_handler                    0x1000aac5   Thumb Code   220  gapc_task.o(i.gapc_bond_cfm_handler)
    i.gapc_bond_cmd_handler                  0x1000aba4   Section        0  gapc_task.o(i.gapc_bond_cmd_handler)
    gapc_bond_cmd_handler                    0x1000aba5   Thumb Code    88  gapc_task.o(i.gapc_bond_cmd_handler)
    i.gapc_bond_ind_handler                  0x1000ac00   Section        0  app_sec.o(i.gapc_bond_ind_handler)
    gapc_bond_ind_handler                    0x1000ac01   Thumb Code   338  app_sec.o(i.gapc_bond_ind_handler)
    i.gapc_bond_req_ind_handler              0x1000adfc   Section        0  app_sec.o(i.gapc_bond_req_ind_handler)
    gapc_bond_req_ind_handler                0x1000adfd   Thumb Code   436  app_sec.o(i.gapc_bond_req_ind_handler)
    i.gapc_cleanup                           0x1000b018   Section        0  gapc.o(i.gapc_cleanup)
    gapc_cleanup                             0x1000b019   Thumb Code   122  gapc.o(i.gapc_cleanup)
    i.gapc_cmp_evt_handler                   0x1000b098   Section        0  app_task.o(i.gapc_cmp_evt_handler)
    gapc_cmp_evt_handler                     0x1000b099   Thumb Code   116  app_task.o(i.gapc_cmp_evt_handler)
    i.gapc_cmp_evt_handler                   0x1000b15c   Section        0  gapc_task.o(i.gapc_cmp_evt_handler)
    gapc_cmp_evt_handler                     0x1000b15d   Thumb Code     4  gapc_task.o(i.gapc_cmp_evt_handler)
    i.gapc_cmp_evt_handler                   0x1000b160   Section        0  gattc_task.o(i.gapc_cmp_evt_handler)
    gapc_cmp_evt_handler                     0x1000b161   Thumb Code    54  gattc_task.o(i.gapc_cmp_evt_handler)
    i.gapc_cmp_evt_handler                   0x1000b19c   Section        0  gapm_init.o(i.gapc_cmp_evt_handler)
    i.gapc_con_cleanup                       0x1000b200   Section        0  gapc.o(i.gapc_con_cleanup)
    i.gapc_con_create                        0x1000b210   Section        0  gapc.o(i.gapc_con_create)
    i.gapc_connection_cfm_handler            0x1000b388   Section        0  gapc_task.o(i.gapc_connection_cfm_handler)
    gapc_connection_cfm_handler              0x1000b389   Thumb Code   126  gapc_task.o(i.gapc_connection_cfm_handler)
    i.gapc_connection_req_ind_handler        0x1000b40c   Section        0  app_task.o(i.gapc_connection_req_ind_handler)
    gapc_connection_req_ind_handler          0x1000b40d   Thumb Code   104  app_task.o(i.gapc_connection_req_ind_handler)
    i.gapc_connection_send_cfm               0x1000b480   Section        0  app_task.o(i.gapc_connection_send_cfm)
    i.gapc_default_msg_handler               0x1000b4c8   Section        0  gapc_task.o(i.gapc_default_msg_handler)
    gapc_default_msg_handler                 0x1000b4c9   Thumb Code     4  gapc_task.o(i.gapc_default_msg_handler)
    i.gapc_disconnect_cmd_handler            0x1000b4cc   Section        0  gapc_task.o(i.gapc_disconnect_cmd_handler)
    gapc_disconnect_cmd_handler              0x1000b4cd   Thumb Code   108  gapc_task.o(i.gapc_disconnect_cmd_handler)
    i.gapc_disconnect_ind_handler            0x1000b53c   Section        0  app_task.o(i.gapc_disconnect_ind_handler)
    gapc_disconnect_ind_handler              0x1000b53d   Thumb Code    36  app_task.o(i.gapc_disconnect_ind_handler)
    i.gapc_enc_keysize_get                   0x1000b564   Section        0  gapc.o(i.gapc_enc_keysize_get)
    i.gapc_enc_keysize_set                   0x1000b580   Section        0  gapc.o(i.gapc_enc_keysize_set)
    i.gapc_encrypt_cfm_handler               0x1000b598   Section        0  gapc_task.o(i.gapc_encrypt_cfm_handler)
    gapc_encrypt_cfm_handler                 0x1000b599   Thumb Code    54  gapc_task.o(i.gapc_encrypt_cfm_handler)
    i.gapc_encrypt_cmd_handler               0x1000b5d0   Section        0  gapc_task.o(i.gapc_encrypt_cmd_handler)
    gapc_encrypt_cmd_handler                 0x1000b5d1   Thumb Code    88  gapc_task.o(i.gapc_encrypt_cmd_handler)
    i.gapc_encrypt_ind_handler               0x1000b62c   Section        0  app_sec.o(i.gapc_encrypt_ind_handler)
    gapc_encrypt_ind_handler                 0x1000b62d   Thumb Code    32  app_sec.o(i.gapc_encrypt_ind_handler)
    i.gapc_encrypt_req_ind_handler           0x1000b650   Section        0  app_sec.o(i.gapc_encrypt_req_ind_handler)
    gapc_encrypt_req_ind_handler             0x1000b651   Thumb Code   132  app_sec.o(i.gapc_encrypt_req_ind_handler)
    i.gapc_gen_dh_key_ind_handler            0x1000b720   Section        0  gapc_task.o(i.gapc_gen_dh_key_ind_handler)
    gapc_gen_dh_key_ind_handler              0x1000b721   Thumb Code    28  gapc_task.o(i.gapc_gen_dh_key_ind_handler)
    i.gapc_get_bdaddr                        0x1000b73c   Section        0  gapc.o(i.gapc_get_bdaddr)
    i.gapc_get_chan_sel_algo                 0x1000b760   Section        0  gapc.o(i.gapc_get_chan_sel_algo)
    i.gapc_get_conhdl                        0x1000b778   Section        0  gapc.o(i.gapc_get_conhdl)
    i.gapc_get_conidx_imp                    0x1000b7a0   Section        0  gapc.o(i.gapc_get_conidx_imp)
    i.gapc_get_csrk                          0x1000b7d8   Section        0  gapc.o(i.gapc_get_csrk)
    i.gapc_get_dest_task                     0x1000b7fc   Section        0  gapc.o(i.gapc_get_dest_task)
    i.gapc_get_dev_info_cfm_handler          0x1000b80c   Section        0  gapc_task.o(i.gapc_get_dev_info_cfm_handler)
    gapc_get_dev_info_cfm_handler            0x1000b80d   Thumb Code   186  gapc_task.o(i.gapc_get_dev_info_cfm_handler)
    i.gapc_get_dev_info_req_ind_handler      0x1000b8c6   Section        0  app_task.o(i.gapc_get_dev_info_req_ind_handler)
    gapc_get_dev_info_req_ind_handler        0x1000b8c7   Thumb Code   108  app_task.o(i.gapc_get_dev_info_req_ind_handler)
    i.gapc_get_info_cmd_handler              0x1000b934   Section        0  gapc_task.o(i.gapc_get_info_cmd_handler)
    gapc_get_info_cmd_handler                0x1000b935   Thumb Code   300  gapc_task.o(i.gapc_get_info_cmd_handler)
    i.gapc_get_operation                     0x1000ba6c   Section        0  gapc.o(i.gapc_get_operation)
    i.gapc_get_operation_ptr                 0x1000ba88   Section        0  gapc.o(i.gapc_get_operation_ptr)
    i.gapc_get_requester                     0x1000ba98   Section        0  gapc.o(i.gapc_get_requester)
    i.gapc_get_role                          0x1000bab8   Section        0  gapc.o(i.gapc_get_role)
    i.gapc_get_sign_counter                  0x1000bad8   Section        0  gapc.o(i.gapc_get_sign_counter)
    i.gapc_hci_handler                       0x1000bafc   Section        0  gapc_hci.o(i.gapc_hci_handler)
    i.gapc_init                              0x1000bb60   Section        0  gapc.o(i.gapc_init)
    i.gapc_is_disc_connection                0x1000bbac   Section        0  gapc.o(i.gapc_is_disc_connection)
    i.gapc_is_sec_set                        0x1000bbb0   Section        0  gapc.o(i.gapc_is_sec_set)
    i.gapc_key_press_notification_cmd_handler 0x1000bbf0   Section        0  gapc_task.o(i.gapc_key_press_notification_cmd_handler)
    gapc_key_press_notification_cmd_handler  0x1000bbf1   Thumb Code   104  gapc_task.o(i.gapc_key_press_notification_cmd_handler)
    i.gapc_link_encrypted                    0x1000bc60   Section        0  gapc.o(i.gapc_link_encrypted)
    i.gapc_lk_sec_lvl_get                    0x1000bc88   Section        0  gapc.o(i.gapc_lk_sec_lvl_get)
    i.gapc_operation_cleanup                 0x1000bcb4   Section        0  gapc.o(i.gapc_operation_cleanup)
    gapc_operation_cleanup                   0x1000bcb5   Thumb Code    92  gapc.o(i.gapc_operation_cleanup)
    i.gapc_param_update_cfm_handler          0x1000bd14   Section        0  gapc_task.o(i.gapc_param_update_cfm_handler)
    gapc_param_update_cfm_handler            0x1000bd15   Thumb Code   256  gapc_task.o(i.gapc_param_update_cfm_handler)
    i.gapc_param_update_cmd_handler          0x1000be18   Section        0  gapc_task.o(i.gapc_param_update_cmd_handler)
    gapc_param_update_cmd_handler            0x1000be19   Thumb Code   276  gapc_task.o(i.gapc_param_update_cmd_handler)
    i.gapc_param_update_req_ind_handler      0x1000bf34   Section        0  app_task.o(i.gapc_param_update_req_ind_handler)
    gapc_param_update_req_ind_handler        0x1000bf35   Thumb Code   130  app_task.o(i.gapc_param_update_req_ind_handler)
    i.gapc_param_update_sanity               0x1000bfc0   Section        0  gapc.o(i.gapc_param_update_sanity)
    i.gapc_peer_att_info_ind_handler         0x1000bfe8   Section        0  gapm_init.o(i.gapc_peer_att_info_ind_handler)
    i.gapc_peer_features_ind_handler         0x1000c04c   Section        0  app_task.o(i.gapc_peer_features_ind_handler)
    gapc_peer_features_ind_handler           0x1000c04d   Thumb Code    14  app_task.o(i.gapc_peer_features_ind_handler)
    i.gapc_peer_ver_ind_handler              0x1000c05c   Section        0  app_task.o(i.gapc_peer_ver_ind_handler)
    gapc_peer_ver_ind_handler                0x1000c05d   Thumb Code    46  app_task.o(i.gapc_peer_ver_ind_handler)
    i.gapc_process_op                        0x1000c090   Section        0  gapc_task.o(i.gapc_process_op)
    i.gapc_reschedule_operation              0x1000c11c   Section        0  gapc.o(i.gapc_reschedule_operation)
    i.gapc_security_cmd_handler              0x1000c158   Section        0  gapc_task.o(i.gapc_security_cmd_handler)
    gapc_security_cmd_handler                0x1000c159   Thumb Code    68  gapc_task.o(i.gapc_security_cmd_handler)
    i.gapc_security_ind_handler              0x1000c1a0   Section        0  app_sec.o(i.gapc_security_ind_handler)
    gapc_security_ind_handler                0x1000c1a1   Thumb Code    78  app_sec.o(i.gapc_security_ind_handler)
    i.gapc_send_complete_evt                 0x1000c22c   Section        0  gapc.o(i.gapc_send_complete_evt)
    i.gapc_send_disconect_ind                0x1000c28c   Section        0  gapc.o(i.gapc_send_disconect_ind)
    i.gapc_send_error_evt                    0x1000c2b2   Section        0  gapc.o(i.gapc_send_error_evt)
    i.gapc_set_dev_info_cfm_handler          0x1000c2d8   Section        0  gapc_task.o(i.gapc_set_dev_info_cfm_handler)
    gapc_set_dev_info_cfm_handler            0x1000c2d9   Thumb Code    78  gapc_task.o(i.gapc_set_dev_info_cfm_handler)
    i.gapc_set_dev_info_req_ind_handler      0x1000c326   Section        0  app_task.o(i.gapc_set_dev_info_req_ind_handler)
    gapc_set_dev_info_req_ind_handler        0x1000c327   Thumb Code    60  app_task.o(i.gapc_set_dev_info_req_ind_handler)
    i.gapc_set_le_ping_to_handler            0x1000c364   Section        0  gapc_task.o(i.gapc_set_le_ping_to_handler)
    gapc_set_le_ping_to_handler              0x1000c365   Thumb Code    70  gapc_task.o(i.gapc_set_le_ping_to_handler)
    i.gapc_set_le_pkt_size_handler           0x1000c3b0   Section        0  gapc_task.o(i.gapc_set_le_pkt_size_handler)
    gapc_set_le_pkt_size_handler             0x1000c3b1   Thumb Code    74  gapc_task.o(i.gapc_set_le_pkt_size_handler)
    i.gapc_set_local_addr                    0x1000c400   Section        0  gapc.o(i.gapc_set_local_addr)
    i.gapc_set_operation_ptr                 0x1000c424   Section        0  gapc.o(i.gapc_set_operation_ptr)
    i.gapc_set_phy_cmd_handler               0x1000c434   Section        0  gapc_task.o(i.gapc_set_phy_cmd_handler)
    gapc_set_phy_cmd_handler                 0x1000c435   Thumb Code   104  gapc_task.o(i.gapc_set_phy_cmd_handler)
    i.gapc_set_pref_slave_latency_cmd_handler 0x1000c4a0   Section        0  gapc_task.o(i.gapc_set_pref_slave_latency_cmd_handler)
    gapc_set_pref_slave_latency_cmd_handler  0x1000c4a1   Thumb Code    70  gapc_task.o(i.gapc_set_pref_slave_latency_cmd_handler)
    i.gapc_sig_pdu_recv_handler              0x1000c4ec   Section        0  gapc_sig.o(i.gapc_sig_pdu_recv_handler)
    i.gapc_sig_send_param_resp               0x1000c528   Section        0  gapc_sig.o(i.gapc_sig_send_param_resp)
    i.gapc_sign_cmd_handler                  0x1000c54c   Section        0  gapc_task.o(i.gapc_sign_cmd_handler)
    gapc_sign_cmd_handler                    0x1000c54d   Thumb Code    54  gapc_task.o(i.gapc_sign_cmd_handler)
    i.gapc_sign_ind_handler                  0x1000c588   Section        0  gattc_task.o(i.gapc_sign_ind_handler)
    gapc_sign_ind_handler                    0x1000c589   Thumb Code   138  gattc_task.o(i.gapc_sign_ind_handler)
    i.gapc_smp_rep_attempts_timer_handler    0x1000c614   Section        0  gapc_task.o(i.gapc_smp_rep_attempts_timer_handler)
    gapc_smp_rep_attempts_timer_handler      0x1000c615   Thumb Code    44  gapc_task.o(i.gapc_smp_rep_attempts_timer_handler)
    i.gapc_smp_timeout_timer_ind_handler     0x1000c644   Section        0  gapc_task.o(i.gapc_smp_timeout_timer_ind_handler)
    gapc_smp_timeout_timer_ind_handler       0x1000c645   Thumb Code    64  gapc_task.o(i.gapc_smp_timeout_timer_ind_handler)
    i.gapc_svc_chg_ccc_get                   0x1000c688   Section        0  gapc.o(i.gapc_svc_chg_ccc_get)
    i.gapc_svc_chg_ccc_set                   0x1000c69c   Section        0  gapc.o(i.gapc_svc_chg_ccc_set)
    i.gapc_update_conn_param_to_ind_handler  0x1000c6b8   Section        0  gapc_task.o(i.gapc_update_conn_param_to_ind_handler)
    gapc_update_conn_param_to_ind_handler    0x1000c6b9   Thumb Code    68  gapc_task.o(i.gapc_update_conn_param_to_ind_handler)
    i.gapc_update_state                      0x1000c6fc   Section        0  gapc.o(i.gapc_update_state)
    i.gapm_activity_create_cmd_handler       0x1000c730   Section        0  gapm_actv.o(i.gapm_activity_create_cmd_handler)
    i.gapm_activity_created_ind_handler      0x1000c7fc   Section        0  app_task.o(i.gapm_activity_created_ind_handler)
    gapm_activity_created_ind_handler        0x1000c7fd   Thumb Code    60  app_task.o(i.gapm_activity_created_ind_handler)
    i.gapm_activity_delete_cmd_handler       0x1000c83c   Section        0  gapm_actv.o(i.gapm_activity_delete_cmd_handler)
    i.gapm_activity_start_cmd_handler        0x1000c8b8   Section        0  gapm_actv.o(i.gapm_activity_start_cmd_handler)
    i.gapm_activity_stop_cmd_handler         0x1000c92c   Section        0  gapm_actv.o(i.gapm_activity_stop_cmd_handler)
    i.gapm_activity_stopped_ind_handler      0x1000c99c   Section        0  app_task.o(i.gapm_activity_stopped_ind_handler)
    gapm_activity_stopped_ind_handler        0x1000c99d   Thumb Code   116  app_task.o(i.gapm_activity_stopped_ind_handler)
    i.gapm_actv_alloc                        0x1000ca18   Section        0  gapm_actv.o(i.gapm_actv_alloc)
    i.gapm_actv_created                      0x1000ca48   Section        0  gapm_actv.o(i.gapm_actv_created)
    i.gapm_actv_deleted                      0x1000caac   Section        0  gapm_actv.o(i.gapm_actv_deleted)
    i.gapm_actv_free                         0x1000caf4   Section        0  gapm_actv.o(i.gapm_actv_free)
    gapm_actv_free                           0x1000caf5   Thumb Code    50  gapm_actv.o(i.gapm_actv_free)
    i.gapm_actv_get_hci_own_addr_type        0x1000cb2c   Section        0  gapm_actv.o(i.gapm_actv_get_hci_own_addr_type)
    i.gapm_actv_get_next                     0x1000cb4c   Section        0  gapm_actv.o(i.gapm_actv_get_next)
    gapm_actv_get_next                       0x1000cb4d   Thumb Code    44  gapm_actv.o(i.gapm_actv_get_next)
    i.gapm_actv_init                         0x1000cb80   Section        0  gapm_actv.o(i.gapm_actv_init)
    i.gapm_actv_rand_addr_set_ind            0x1000cbd4   Section        0  gapm_actv.o(i.gapm_actv_rand_addr_set_ind)
    i.gapm_actv_retrieve_cmd_cmp_evt         0x1000cbf0   Section        0  gapm_actv.o(i.gapm_actv_retrieve_cmd_cmp_evt)
    i.gapm_actv_send_stopped_ind             0x1000cc24   Section        0  gapm_actv.o(i.gapm_actv_send_stopped_ind)
    gapm_actv_send_stopped_ind               0x1000cc25   Thumb Code    42  gapm_actv.o(i.gapm_actv_send_stopped_ind)
    i.gapm_actv_started                      0x1000cc50   Section        0  gapm_actv.o(i.gapm_actv_started)
    i.gapm_actv_stopped                      0x1000cc7c   Section        0  gapm_actv.o(i.gapm_actv_stopped)
    i.gapm_addr_fsm                          0x1000ccf4   Section        0  gapm_addr.o(i.gapm_addr_fsm)
    gapm_addr_fsm                            0x1000ccf5   Thumb Code   190  gapm_addr.o(i.gapm_addr_fsm)
    i.gapm_addr_init                         0x1000cdb8   Section        0  gapm_addr.o(i.gapm_addr_init)
    i.gapm_addr_renew_cmd_handler            0x1000cdd0   Section        0  gapm_addr.o(i.gapm_addr_renew_cmd_handler)
    i.gapm_addr_renew_next_addr              0x1000cdf8   Section        0  gapm_addr.o(i.gapm_addr_renew_next_addr)
    gapm_addr_renew_next_addr                0x1000cdf9   Thumb Code   164  gapm_addr.o(i.gapm_addr_renew_next_addr)
    i.gapm_addr_renew_to_ind_handler         0x1000cea4   Section        0  gapm_addr.o(i.gapm_addr_renew_to_ind_handler)
    i.gapm_addr_send_dev_bdaddr_ind          0x1000cec8   Section        0  gapm_addr.o(i.gapm_addr_send_dev_bdaddr_ind)
    gapm_addr_send_dev_bdaddr_ind            0x1000cec9   Thumb Code    44  gapm_addr.o(i.gapm_addr_send_dev_bdaddr_ind)
    i.gapm_addr_set_rand_addr                0x1000cef4   Section        0  gapm_addr.o(i.gapm_addr_set_rand_addr)
    i.gapm_addr_solved_ind_handler           0x1000cfcc   Section        0  app_task.o(i.gapm_addr_solved_ind_handler)
    gapm_addr_solved_ind_handler             0x1000cfcd   Thumb Code    16  app_task.o(i.gapm_addr_solved_ind_handler)
    i.gapm_adv_check_data_sanity             0x1000cfdc   Section        0  gapm_adv.o(i.gapm_adv_check_data_sanity)
    gapm_adv_check_data_sanity               0x1000cfdd   Thumb Code   124  gapm_adv.o(i.gapm_adv_check_data_sanity)
    i.gapm_adv_check_param                   0x1000d058   Section        0  gapm_adv.o(i.gapm_adv_check_param)
    gapm_adv_check_param                     0x1000d059   Thumb Code   218  gapm_adv.o(i.gapm_adv_check_param)
    i.gapm_adv_create                        0x1000d13c   Section        0  gapm_adv.o(i.gapm_adv_create)
    i.gapm_adv_delete                        0x1000d1e4   Section        0  gapm_adv.o(i.gapm_adv_delete)
    gapm_adv_delete                          0x1000d1e5   Thumb Code    16  gapm_adv.o(i.gapm_adv_delete)
    i.gapm_adv_send_hci_le_rmv_adv_set_cmd   0x1000d1f8   Section        0  gapm_adv.o(i.gapm_adv_send_hci_le_rmv_adv_set_cmd)
    gapm_adv_send_hci_le_rmv_adv_set_cmd     0x1000d1f9   Thumb Code    34  gapm_adv.o(i.gapm_adv_send_hci_le_rmv_adv_set_cmd)
    i.gapm_adv_send_hci_le_set_ext_adv_data_cmd 0x1000d21a   Section        0  gapm_adv.o(i.gapm_adv_send_hci_le_set_ext_adv_data_cmd)
    gapm_adv_send_hci_le_set_ext_adv_data_cmd 0x1000d21b   Thumb Code   184  gapm_adv.o(i.gapm_adv_send_hci_le_set_ext_adv_data_cmd)
    i.gapm_adv_send_hci_le_set_ext_adv_en_cmd 0x1000d2d2   Section        0  gapm_adv.o(i.gapm_adv_send_hci_le_set_ext_adv_en_cmd)
    gapm_adv_send_hci_le_set_ext_adv_en_cmd  0x1000d2d3   Thumb Code    72  gapm_adv.o(i.gapm_adv_send_hci_le_set_ext_adv_en_cmd)
    i.gapm_adv_send_hci_le_set_ext_adv_param_cmd 0x1000d31a   Section        0  gapm_adv.o(i.gapm_adv_send_hci_le_set_ext_adv_param_cmd)
    gapm_adv_send_hci_le_set_ext_adv_param_cmd 0x1000d31b   Thumb Code   186  gapm_adv.o(i.gapm_adv_send_hci_le_set_ext_adv_param_cmd)
    i.gapm_adv_send_hci_le_set_ext_scan_rsp_data_cmd 0x1000d3d4   Section        0  gapm_adv.o(i.gapm_adv_send_hci_le_set_ext_scan_rsp_data_cmd)
    gapm_adv_send_hci_le_set_ext_scan_rsp_data_cmd 0x1000d3d5   Thumb Code   182  gapm_adv.o(i.gapm_adv_send_hci_le_set_ext_scan_rsp_data_cmd)
    i.gapm_adv_send_hci_le_set_per_adv_data_cmd 0x1000d48a   Section        0  gapm_adv.o(i.gapm_adv_send_hci_le_set_per_adv_data_cmd)
    gapm_adv_send_hci_le_set_per_adv_data_cmd 0x1000d48b   Thumb Code   104  gapm_adv.o(i.gapm_adv_send_hci_le_set_per_adv_data_cmd)
    i.gapm_adv_send_hci_le_set_per_adv_en_cmd 0x1000d4f2   Section        0  gapm_adv.o(i.gapm_adv_send_hci_le_set_per_adv_en_cmd)
    gapm_adv_send_hci_le_set_per_adv_en_cmd  0x1000d4f3   Thumb Code    38  gapm_adv.o(i.gapm_adv_send_hci_le_set_per_adv_en_cmd)
    i.gapm_adv_set_data                      0x1000d518   Section        0  gapm_adv.o(i.gapm_adv_set_data)
    gapm_adv_set_data                        0x1000d519   Thumb Code    98  gapm_adv.o(i.gapm_adv_set_data)
    i.gapm_adv_start                         0x1000d57c   Section        0  gapm_adv.o(i.gapm_adv_start)
    gapm_adv_start                           0x1000d57d   Thumb Code    72  gapm_adv.o(i.gapm_adv_start)
    i.gapm_adv_stop                          0x1000d5c8   Section        0  gapm_adv.o(i.gapm_adv_stop)
    gapm_adv_stop                            0x1000d5c9   Thumb Code    30  gapm_adv.o(i.gapm_adv_stop)
    i.gapm_auto_conn_to_ind_handler          0x1000d5ec   Section        0  gapm_init.o(i.gapm_auto_conn_to_ind_handler)
    i.gapm_cmp_evt_handler                   0x1000d624   Section        0  app_task.o(i.gapm_cmp_evt_handler)
    gapm_cmp_evt_handler                     0x1000d625   Thumb Code   488  app_task.o(i.gapm_cmp_evt_handler)
    i.gapm_cmp_evt_handler                   0x1000d87c   Section        0  gapc_task.o(i.gapm_cmp_evt_handler)
    gapm_cmp_evt_handler                     0x1000d87d   Thumb Code   120  gapc_task.o(i.gapm_cmp_evt_handler)
    i.gapm_cmp_evt_handler                   0x1000d8f4   Section        0  gapm_addr.o(i.gapm_cmp_evt_handler)
    i.gapm_con_cleanup                       0x1000d914   Section        0  gapm.o(i.gapm_con_cleanup)
    i.gapm_con_create                        0x1000d94c   Section        0  gapm.o(i.gapm_con_create)
    i.gapm_con_enable                        0x1000d9b4   Section        0  gapm.o(i.gapm_con_enable)
    i.gapm_default_msg_handler               0x1000d9be   Section        0  gapm_task.o(i.gapm_default_msg_handler)
    gapm_default_msg_handler                 0x1000d9bf   Thumb Code     4  gapm_task.o(i.gapm_default_msg_handler)
    i.gapm_dev_bdaddr_ind_handler            0x1000d9c4   Section        0  gapm_addr.o(i.gapm_dev_bdaddr_ind_handler)
    i.gapm_dle_val_check                     0x1000da00   Section        0  gapm.o(i.gapm_dle_val_check)
    i.gapm_enc_block_ind_handler             0x1000da1c   Section        0  app_task.o(i.gapm_enc_block_ind_handler)
    gapm_enc_block_ind_handler               0x1000da1d   Thumb Code    18  app_task.o(i.gapm_enc_block_ind_handler)
    i.gapm_ext_adv_report_ind_handler        0x1000da34   Section        0  app_task.o(i.gapm_ext_adv_report_ind_handler)
    gapm_ext_adv_report_ind_handler          0x1000da35   Thumb Code    12  app_task.o(i.gapm_ext_adv_report_ind_handler)
    i.gapm_gen_dh_key_cmd_handler            0x1000da40   Section        0  gapm_smp.o(i.gapm_gen_dh_key_cmd_handler)
    i.gapm_gen_rand_addr_cmd_handler         0x1000da90   Section        0  gapm_smp.o(i.gapm_gen_rand_addr_cmd_handler)
    i.gapm_gen_rand_nb_ind_handler           0x1000dacc   Section        0  app_task.o(i.gapm_gen_rand_nb_ind_handler)
    gapm_gen_rand_nb_ind_handler             0x1000dacd   Thumb Code    38  app_task.o(i.gapm_gen_rand_nb_ind_handler)
    i.gapm_gen_rand_nb_ind_handler           0x1000daf8   Section        0  gapc_task.o(i.gapm_gen_rand_nb_ind_handler)
    gapm_gen_rand_nb_ind_handler             0x1000daf9   Thumb Code    40  gapc_task.o(i.gapm_gen_rand_nb_ind_handler)
    i.gapm_get_address_type                  0x1000db20   Section        0  gapm.o(i.gapm_get_address_type)
    i.gapm_get_att_handle                    0x1000db30   Section        0  gapm.o(i.gapm_get_att_handle)
    i.gapm_get_bdaddr                        0x1000db58   Section        0  gapm.o(i.gapm_get_bdaddr)
    i.gapm_get_dev_info_cmd_handler          0x1000db60   Section        0  gapm_cfg.o(i.gapm_get_dev_info_cmd_handler)
    i.gapm_get_irk                           0x1000dc70   Section        0  gapm.o(i.gapm_get_irk)
    i.gapm_get_local_public_key              0x1000dc78   Section        0  gapm.o(i.gapm_get_local_public_key)
    i.gapm_get_max_mtu                       0x1000dc80   Section        0  gapm.o(i.gapm_get_max_mtu)
    i.gapm_get_operation                     0x1000dc8c   Section        0  gapm.o(i.gapm_get_operation)
    i.gapm_get_pub_key_cmd_handler           0x1000dca4   Section        0  gapm_smp.o(i.gapm_get_pub_key_cmd_handler)
    i.gapm_get_ral_addr_cmd_handler          0x1000dd40   Section        0  gapm_list.o(i.gapm_get_ral_addr_cmd_handler)
    i.gapm_get_requester                     0x1000dd94   Section        0  gapm.o(i.gapm_get_requester)
    i.gapm_hci_handler                       0x1000ddb0   Section        0  gapm_task.o(i.gapm_hci_handler)
    gapm_hci_handler                         0x1000ddb1   Thumb Code    78  gapm_task.o(i.gapm_hci_handler)
    i.gapm_init                              0x1000de08   Section        0  gapm.o(i.gapm_init)
    i.gapm_init_attr                         0x1000de68   Section        0  gapm.o(i.gapm_init_attr)
    i.gapm_init_connection_ind               0x1000de9c   Section        0  gapm_init.o(i.gapm_init_connection_ind)
    i.gapm_init_create                       0x1000df34   Section        0  gapm_init.o(i.gapm_init_create)
    i.gapm_init_delete                       0x1000dfb4   Section        0  gapm_init.o(i.gapm_init_delete)
    gapm_init_delete                         0x1000dfb5   Thumb Code     4  gapm_init.o(i.gapm_init_delete)
    i.gapm_init_send_hci_le_ext_create_con_cmd 0x1000dfb8   Section        0  gapm_init.o(i.gapm_init_send_hci_le_ext_create_con_cmd)
    gapm_init_send_hci_le_ext_create_con_cmd 0x1000dfb9   Thumb Code   212  gapm_init.o(i.gapm_init_send_hci_le_ext_create_con_cmd)
    i.gapm_init_start                        0x1000e08c   Section        0  gapm_init.o(i.gapm_init_start)
    gapm_init_start                          0x1000e08d   Thumb Code   112  gapm_init.o(i.gapm_init_start)
    i.gapm_init_stop                         0x1000e100   Section        0  gapm_init.o(i.gapm_init_stop)
    gapm_init_stop                           0x1000e101   Thumb Code    42  gapm_init.o(i.gapm_init_stop)
    i.gapm_is_addr_type_valid                0x1000e130   Section        0  gapm_addr.o(i.gapm_is_addr_type_valid)
    i.gapm_is_legacy_pairing_supp            0x1000e174   Section        0  gapm.o(i.gapm_is_legacy_pairing_supp)
    i.gapm_is_pref_con_param_pres            0x1000e184   Section        0  gapm.o(i.gapm_is_pref_con_param_pres)
    i.gapm_is_sec_con_pairing_supp           0x1000e194   Section        0  gapm.o(i.gapm_is_sec_con_pairing_supp)
    i.gapm_list_add_next_entry               0x1000e1a4   Section        0  gapm_list.o(i.gapm_list_add_next_entry)
    gapm_list_add_next_entry                 0x1000e1a5   Thumb Code   174  gapm_list.o(i.gapm_list_add_next_entry)
    i.gapm_list_send_list_size_ind           0x1000e252   Section        0  gapm_list.o(i.gapm_list_send_list_size_ind)
    gapm_list_send_list_size_ind             0x1000e253   Thumb Code    38  gapm_list.o(i.gapm_list_send_list_size_ind)
    i.gapm_list_set_cmd_handler              0x1000e278   Section        0  gapm_list.o(i.gapm_list_set_cmd_handler)
    i.gapm_op_reset_continue                 0x1000e2c8   Section        0  gapm_cfg.o(i.gapm_op_reset_continue)
    gapm_op_reset_continue                   0x1000e2c9   Thumb Code   148  gapm_cfg.o(i.gapm_op_reset_continue)
    i.gapm_op_setup_continue                 0x1000e36c   Section        0  gapm_cfg.o(i.gapm_op_setup_continue)
    gapm_op_setup_continue                   0x1000e36d   Thumb Code   298  gapm_cfg.o(i.gapm_op_setup_continue)
    i.gapm_operation_cleanup                 0x1000e49c   Section        0  gapm.o(i.gapm_operation_cleanup)
    gapm_operation_cleanup                   0x1000e49d   Thumb Code    46  gapm.o(i.gapm_operation_cleanup)
    i.gapm_per_sync_clear_fragments          0x1000e4d0   Section        0  gapm_per_sync.o(i.gapm_per_sync_clear_fragments)
    i.gapm_per_sync_create                   0x1000e4f0   Section        0  gapm_per_sync.o(i.gapm_per_sync_create)
    i.gapm_per_sync_delete                   0x1000e534   Section        0  gapm_per_sync.o(i.gapm_per_sync_delete)
    gapm_per_sync_delete                     0x1000e535   Thumb Code     4  gapm_per_sync.o(i.gapm_per_sync_delete)
    i.gapm_per_sync_get_activity             0x1000e538   Section        0  gapm_per_sync.o(i.gapm_per_sync_get_activity)
    gapm_per_sync_get_activity               0x1000e539   Thumb Code    80  gapm_per_sync.o(i.gapm_per_sync_get_activity)
    i.gapm_per_sync_send_adv_report_ind      0x1000e590   Section        0  gapm_per_sync.o(i.gapm_per_sync_send_adv_report_ind)
    gapm_per_sync_send_adv_report_ind        0x1000e591   Thumb Code   144  gapm_per_sync.o(i.gapm_per_sync_send_adv_report_ind)
    i.gapm_per_sync_start                    0x1000e620   Section        0  gapm_per_sync.o(i.gapm_per_sync_start)
    gapm_per_sync_start                      0x1000e621   Thumb Code   120  gapm_per_sync.o(i.gapm_per_sync_start)
    i.gapm_per_sync_stop                     0x1000e69c   Section        0  gapm_per_sync.o(i.gapm_per_sync_stop)
    gapm_per_sync_stop                       0x1000e69d   Thumb Code    60  gapm_per_sync.o(i.gapm_per_sync_stop)
    i.gapm_process_op                        0x1000e6dc   Section        0  gapm.o(i.gapm_process_op)
    i.gapm_profile_added_ind_handler         0x1000e750   Section        0  app_task.o(i.gapm_profile_added_ind_handler)
    gapm_profile_added_ind_handler           0x1000e751   Thumb Code    34  app_task.o(i.gapm_profile_added_ind_handler)
    i.gapm_profile_task_add_cmd_handler      0x1000e774   Section        0  gapm_cfg.o(i.gapm_profile_task_add_cmd_handler)
    i.gapm_reset_cmd_handler                 0x1000e7d4   Section        0  gapm_cfg.o(i.gapm_reset_cmd_handler)
    i.gapm_resolv_addr_cmd_handler           0x1000e814   Section        0  gapm_smp.o(i.gapm_resolv_addr_cmd_handler)
    i.gapm_scan_actv_clean                   0x1000e84c   Section        0  gapm_scan.o(i.gapm_scan_actv_clean)
    i.gapm_scan_add_to_filter                0x1000e874   Section        0  gapm_scan.o(i.gapm_scan_add_to_filter)
    gapm_scan_add_to_filter                  0x1000e875   Thumb Code   124  gapm_scan.o(i.gapm_scan_add_to_filter)
    i.gapm_scan_clear_fragments              0x1000e8f0   Section        0  gapm_scan.o(i.gapm_scan_clear_fragments)
    gapm_scan_clear_fragments                0x1000e8f1   Thumb Code    26  gapm_scan.o(i.gapm_scan_clear_fragments)
    i.gapm_scan_create                       0x1000e90c   Section        0  gapm_scan.o(i.gapm_scan_create)
    i.gapm_scan_delete                       0x1000e97c   Section        0  gapm_scan.o(i.gapm_scan_delete)
    gapm_scan_delete                         0x1000e97d   Thumb Code     4  gapm_scan.o(i.gapm_scan_delete)
    i.gapm_scan_filter_packet                0x1000e980   Section        0  gapm_scan.o(i.gapm_scan_filter_packet)
    gapm_scan_filter_packet                  0x1000e981   Thumb Code   258  gapm_scan.o(i.gapm_scan_filter_packet)
    i.gapm_scan_send_adv_report_ind          0x1000ea88   Section        0  gapm_scan.o(i.gapm_scan_send_adv_report_ind)
    gapm_scan_send_adv_report_ind            0x1000ea89   Thumb Code   320  gapm_scan.o(i.gapm_scan_send_adv_report_ind)
    i.gapm_scan_send_hci_le_set_ext_scan_en_cmd 0x1000ebc8   Section        0  gapm_scan.o(i.gapm_scan_send_hci_le_set_ext_scan_en_cmd)
    gapm_scan_send_hci_le_set_ext_scan_en_cmd 0x1000ebc9   Thumb Code    74  gapm_scan.o(i.gapm_scan_send_hci_le_set_ext_scan_en_cmd)
    i.gapm_scan_send_hci_le_set_ext_scan_param_cmd 0x1000ec18   Section        0  gapm_scan.o(i.gapm_scan_send_hci_le_set_ext_scan_param_cmd)
    gapm_scan_send_hci_le_set_ext_scan_param_cmd 0x1000ec19   Thumb Code   156  gapm_scan.o(i.gapm_scan_send_hci_le_set_ext_scan_param_cmd)
    i.gapm_scan_start                        0x1000ecb4   Section        0  gapm_scan.o(i.gapm_scan_start)
    gapm_scan_start                          0x1000ecb5   Thumb Code    70  gapm_scan.o(i.gapm_scan_start)
    i.gapm_scan_stop                         0x1000ed00   Section        0  gapm_scan.o(i.gapm_scan_stop)
    gapm_scan_stop                           0x1000ed01   Thumb Code    14  gapm_scan.o(i.gapm_scan_stop)
    i.gapm_scan_store_fragment               0x1000ed14   Section        0  gapm_scan.o(i.gapm_scan_store_fragment)
    gapm_scan_store_fragment                 0x1000ed15   Thumb Code   118  gapm_scan.o(i.gapm_scan_store_fragment)
    i.gapm_send_complete_evt                 0x1000ed8c   Section        0  gapm.o(i.gapm_send_complete_evt)
    i.gapm_send_error_evt                    0x1000edd0   Section        0  gapm.o(i.gapm_send_error_evt)
    i.gapm_set_adv_data_cmd_handler          0x1000edf4   Section        0  gapm_adv.o(i.gapm_set_adv_data_cmd_handler)
    i.gapm_set_channel_map_cmd_handler       0x1000eee0   Section        0  gapm_cfg.o(i.gapm_set_channel_map_cmd_handler)
    i.gapm_set_dev_config_cmd_handler        0x1000ef38   Section        0  gapm_cfg.o(i.gapm_set_dev_config_cmd_handler)
    i.gapm_set_irk_cmd_handler               0x1000f0e0   Section        0  gapm_cfg.o(i.gapm_set_irk_cmd_handler)
    i.gapm_set_max_mps                       0x1000f118   Section        0  gapm.o(i.gapm_set_max_mps)
    i.gapm_set_max_mtu                       0x1000f138   Section        0  gapm.o(i.gapm_set_max_mtu)
    i.gapm_smp_encrypt_req                   0x1000f158   Section        0  gapm_smp.o(i.gapm_smp_encrypt_req)
    gapm_smp_encrypt_req                     0x1000f159   Thumb Code    16  gapm_smp.o(i.gapm_smp_encrypt_req)
    i.gapm_smp_encrypt_rsp                   0x1000f16c   Section        0  gapm_smp.o(i.gapm_smp_encrypt_rsp)
    gapm_smp_encrypt_rsp                     0x1000f16d   Thumb Code   154  gapm_smp.o(i.gapm_smp_encrypt_rsp)
    i.gapm_smp_rand_req                      0x1000f20c   Section        0  gapm_smp.o(i.gapm_smp_rand_req)
    gapm_smp_rand_req                        0x1000f20d   Thumb Code     8  gapm_smp.o(i.gapm_smp_rand_req)
    i.gapm_smp_rand_rsp                      0x1000f218   Section        0  gapm_smp.o(i.gapm_smp_rand_rsp)
    gapm_smp_rand_rsp                        0x1000f219   Thumb Code   142  gapm_smp.o(i.gapm_smp_rand_rsp)
    i.gapm_smp_resolv_op_cont                0x1000f2ac   Section        0  gapm_smp.o(i.gapm_smp_resolv_op_cont)
    gapm_smp_resolv_op_cont                  0x1000f2ad   Thumb Code   148  gapm_smp.o(i.gapm_smp_resolv_op_cont)
    i.gapm_svc_chg_en                        0x1000f344   Section        0  gapm.o(i.gapm_svc_chg_en)
    i.gapm_sync_established_ind_handler      0x1000f354   Section        0  app_task.o(i.gapm_sync_established_ind_handler)
    gapm_sync_established_ind_handler        0x1000f355   Thumb Code    12  app_task.o(i.gapm_sync_established_ind_handler)
    i.gapm_unknown_task_msg_handler          0x1000f360   Section        0  gapm_task.o(i.gapm_unknown_task_msg_handler)
    gapm_unknown_task_msg_handler            0x1000f361   Thumb Code    34  gapm_task.o(i.gapm_unknown_task_msg_handler)
    i.gapm_update_state                      0x1000f382   Section        0  gapm.o(i.gapm_update_state)
    i.gapm_use_enc_block_cmd_handler         0x1000f3b0   Section        0  gapm_smp.o(i.gapm_use_enc_block_cmd_handler)
    i.gapm_use_enc_block_ind_handler         0x1000f3f0   Section        0  gapc_task.o(i.gapm_use_enc_block_ind_handler)
    gapm_use_enc_block_ind_handler           0x1000f3f1   Thumb Code    60  gapc_task.o(i.gapm_use_enc_block_ind_handler)
    i.gatt_clear_remote_svc                  0x1000f42c   Section        0  gatt_api.o(i.gatt_clear_remote_svc)
    i.gatt_clr_peer_svc                      0x1000f484   Section        0  gatt_api.o(i.gatt_clr_peer_svc)
    gatt_clr_peer_svc                        0x1000f485   Thumb Code    58  gatt_api.o(i.gatt_clr_peer_svc)
    i.gatt_msg_default_handler               0x1000f4c4   Section        0  gatt_api.o(i.gatt_msg_default_handler)
    gatt_msg_default_handler                 0x1000f4c5   Thumb Code    22  gatt_api.o(i.gatt_msg_default_handler)
    i.gatt_msg_default_handler_imp           0x1000f4dc   Section        0  gatt_api.o(i.gatt_msg_default_handler_imp)
    gatt_msg_default_handler_imp             0x1000f4dd   Thumb Code  1720  gatt_api.o(i.gatt_msg_default_handler_imp)
    i.gatt_regist_peer_prf_info              0x1000fbc0   Section        0  gatt_api.o(i.gatt_regist_peer_prf_info)
    gatt_regist_peer_prf_info                0x1000fbc1   Thumb Code   114  gatt_api.o(i.gatt_regist_peer_prf_info)
    i.gatt_service_connection_cleanup        0x1000fc40   Section        0  gatt_api.o(i.gatt_service_connection_cleanup)
    gatt_service_connection_cleanup          0x1000fc41   Thumb Code    52  gatt_api.o(i.gatt_service_connection_cleanup)
    i.gatt_service_connection_created        0x1000fc78   Section        0  gatt_api.o(i.gatt_service_connection_created)
    gatt_service_connection_created          0x1000fc79   Thumb Code    58  gatt_api.o(i.gatt_service_connection_created)
    i.gatt_service_destroy                   0x1000fcbc   Section        0  gatt_api.o(i.gatt_service_destroy)
    gatt_service_destroy                     0x1000fcbd   Thumb Code     2  gatt_api.o(i.gatt_service_destroy)
    i.gatt_service_init                      0x1000fcc0   Section        0  gatt_api.o(i.gatt_service_init)
    gatt_service_init                        0x1000fcc1   Thumb Code   728  gatt_api.o(i.gatt_service_init)
    i.gatt_store_peer_prf_info               0x1000ffd0   Section        0  gatt_api.o(i.gatt_store_peer_prf_info)
    gatt_store_peer_prf_info                 0x1000ffd1   Thumb Code   252  gatt_api.o(i.gatt_store_peer_prf_info)
    i.gatt_write_peer_svc_to_flash           0x10010104   Section        0  user_bond_manage.o(i.gatt_write_peer_svc_to_flash)
    i.gattc_att_info_cfm_handler             0x100101dc   Section        0  gattc_task.o(i.gattc_att_info_cfm_handler)
    gattc_att_info_cfm_handler               0x100101dd   Thumb Code    82  gattc_task.o(i.gattc_att_info_cfm_handler)
    i.gattc_att_info_req_ind_handler         0x10010234   Section        0  gapc_task.o(i.gattc_att_info_req_ind_handler)
    gattc_att_info_req_ind_handler           0x10010235   Thumb Code   102  gapc_task.o(i.gattc_att_info_req_ind_handler)
    i.gattc_att_info_req_ind_handler         0x1001029a   Section        0  gattc_task.o(i.gattc_att_info_req_ind_handler)
    gattc_att_info_req_ind_handler           0x1001029b   Thumb Code    80  gattc_task.o(i.gattc_att_info_req_ind_handler)
    i.gattc_cleanup                          0x100102ec   Section        0  gattc.o(i.gattc_cleanup)
    i.gattc_cmp_evt_handler                  0x10010390   Section        0  gapc_task.o(i.gattc_cmp_evt_handler)
    gattc_cmp_evt_handler                    0x10010391   Thumb Code    62  gapc_task.o(i.gattc_cmp_evt_handler)
    i.gattc_cmp_evt_handler                  0x100103d0   Section        0  gattc_task.o(i.gattc_cmp_evt_handler)
    gattc_cmp_evt_handler                    0x100103d1   Thumb Code   384  gattc_task.o(i.gattc_cmp_evt_handler)
    i.gattc_con_enable                       0x10010554   Section        0  gattc.o(i.gattc_con_enable)
    i.gattc_create                           0x1001056c   Section        0  gattc.o(i.gattc_create)
    i.gattc_default_msg_handler              0x100105f8   Section        0  gattc_task.o(i.gattc_default_msg_handler)
    gattc_default_msg_handler                0x100105f9   Thumb Code    12  gattc_task.o(i.gattc_default_msg_handler)
    i.gattc_disc_char_desc_ind_handler       0x10010604   Section        0  gattc_task.o(i.gattc_disc_char_desc_ind_handler)
    gattc_disc_char_desc_ind_handler         0x10010605   Thumb Code   106  gattc_task.o(i.gattc_disc_char_desc_ind_handler)
    i.gattc_disc_char_ind_handler            0x10010674   Section        0  gattc_task.o(i.gattc_disc_char_ind_handler)
    gattc_disc_char_ind_handler              0x10010675   Thumb Code   146  gattc_task.o(i.gattc_disc_char_ind_handler)
    i.gattc_disc_cmd_handler                 0x1001070c   Section        0  gattc_task.o(i.gattc_disc_cmd_handler)
    gattc_disc_cmd_handler                   0x1001070d   Thumb Code   322  gattc_task.o(i.gattc_disc_cmd_handler)
    i.gattc_disc_svc_incl_ind_handler        0x10010858   Section        0  gattc_task.o(i.gattc_disc_svc_incl_ind_handler)
    gattc_disc_svc_incl_ind_handler          0x10010859   Thumb Code   110  gattc_task.o(i.gattc_disc_svc_incl_ind_handler)
    i.gattc_disc_svc_ind_handler             0x100108cc   Section        0  gattc_task.o(i.gattc_disc_svc_ind_handler)
    gattc_disc_svc_ind_handler               0x100108cd   Thumb Code    96  gattc_task.o(i.gattc_disc_svc_ind_handler)
    i.gattc_event_cfm_handler                0x10010980   Section        0  gattc_task.o(i.gattc_event_cfm_handler)
    gattc_event_cfm_handler                  0x10010981   Thumb Code    24  gattc_task.o(i.gattc_event_cfm_handler)
    i.gattc_event_ind_handler                0x10010998   Section        0  app_task.o(i.gattc_event_ind_handler)
    gattc_event_ind_handler                  0x10010999   Thumb Code     4  app_task.o(i.gattc_event_ind_handler)
    i.gattc_exc_mtu_cmd_handler              0x1001099c   Section        0  gattc_task.o(i.gattc_exc_mtu_cmd_handler)
    gattc_exc_mtu_cmd_handler                0x1001099d   Thumb Code    68  gattc_task.o(i.gattc_exc_mtu_cmd_handler)
    i.gattc_execute_write_cmd_handler        0x100109e4   Section        0  gattc_task.o(i.gattc_execute_write_cmd_handler)
    gattc_execute_write_cmd_handler          0x100109e5   Thumb Code    42  gattc_task.o(i.gattc_execute_write_cmd_handler)
    i.gattc_get_mtu                          0x10010a14   Section        0  gattc.o(i.gattc_get_mtu)
    i.gattc_get_operation                    0x10010a24   Section        0  gattc.o(i.gattc_get_operation)
    i.gattc_get_operation_ptr                0x10010a40   Section        0  gattc.o(i.gattc_get_operation_ptr)
    i.gattc_get_requester                    0x10010a50   Section        0  gattc.o(i.gattc_get_requester)
    i.gattc_init                             0x10010a70   Section        0  gattc.o(i.gattc_init)
    i.gattc_operation_cleanup                0x10010ac0   Section        0  gattc.o(i.gattc_operation_cleanup)
    gattc_operation_cleanup                  0x10010ac1   Thumb Code   102  gattc.o(i.gattc_operation_cleanup)
    i.gattc_process_op                       0x10010b2c   Section        0  gattc_task.o(i.gattc_process_op)
    gattc_process_op                         0x10010b2d   Thumb Code   162  gattc_task.o(i.gattc_process_op)
    i.gattc_read_cfm_handler                 0x10010bd4   Section        0  gattc_task.o(i.gattc_read_cfm_handler)
    gattc_read_cfm_handler                   0x10010bd5   Thumb Code    64  gattc_task.o(i.gattc_read_cfm_handler)
    i.gattc_read_cmd_handler                 0x10010c18   Section        0  gattc_task.o(i.gattc_read_cmd_handler)
    gattc_read_cmd_handler                   0x10010c19   Thumb Code   292  gattc_task.o(i.gattc_read_cmd_handler)
    i.gattc_read_ind_handler                 0x10010d48   Section        0  gapc_task.o(i.gattc_read_ind_handler)
    gattc_read_ind_handler                   0x10010d49   Thumb Code   232  gapc_task.o(i.gattc_read_ind_handler)
    i.gattc_read_req_ind_handler             0x10010e30   Section        0  gapc_task.o(i.gattc_read_req_ind_handler)
    gattc_read_req_ind_handler               0x10010e31   Thumb Code   184  gapc_task.o(i.gattc_read_req_ind_handler)
    i.gattc_read_req_ind_handler             0x10010ee8   Section        0  gattc_task.o(i.gattc_read_req_ind_handler)
    gattc_read_req_ind_handler               0x10010ee9   Thumb Code    94  gattc_task.o(i.gattc_read_req_ind_handler)
    i.gattc_reg_to_peer_evt_cmd_handler      0x10010f48   Section        0  gattc_task.o(i.gattc_reg_to_peer_evt_cmd_handler)
    gattc_reg_to_peer_evt_cmd_handler        0x10010f49   Thumb Code   156  gattc_task.o(i.gattc_reg_to_peer_evt_cmd_handler)
    i.gattc_reschedule_operation             0x10010fec   Section        0  gattc.o(i.gattc_reschedule_operation)
    i.gattc_sdp_svc_disc_cmd_handler         0x10011028   Section        0  gattc_task.o(i.gattc_sdp_svc_disc_cmd_handler)
    gattc_sdp_svc_disc_cmd_handler           0x10011029   Thumb Code   190  gattc_task.o(i.gattc_sdp_svc_disc_cmd_handler)
    i.gattc_send_complete_evt                0x100110ec   Section        0  gattc.o(i.gattc_send_complete_evt)
    i.gattc_send_error_evt                   0x10011154   Section        0  gattc.o(i.gattc_send_error_evt)
    i.gattc_send_evt_cmd_handler             0x10011180   Section        0  gattc_task.o(i.gattc_send_evt_cmd_handler)
    gattc_send_evt_cmd_handler               0x10011181   Thumb Code    78  gattc_task.o(i.gattc_send_evt_cmd_handler)
    i.gattc_send_svc_changed_cmd_handler     0x100111d8   Section        0  gattc_task.o(i.gattc_send_svc_changed_cmd_handler)
    gattc_send_svc_changed_cmd_handler       0x100111d9   Thumb Code   178  gattc_task.o(i.gattc_send_svc_changed_cmd_handler)
    i.gattc_set_mtu                          0x1001128c   Section        0  gattc.o(i.gattc_set_mtu)
    i.gattc_set_operation_ptr                0x100112dc   Section        0  gattc.o(i.gattc_set_operation_ptr)
    i.gattc_timeout_handler                  0x100112ec   Section        0  gattc_task.o(i.gattc_timeout_handler)
    gattc_timeout_handler                    0x100112ed   Thumb Code   104  gattc_task.o(i.gattc_timeout_handler)
    i.gattc_update_state                     0x10011358   Section        0  gattc.o(i.gattc_update_state)
    i.gattc_write_cfm_handler                0x10011380   Section        0  gattc_task.o(i.gattc_write_cfm_handler)
    gattc_write_cfm_handler                  0x10011381   Thumb Code   132  gattc_task.o(i.gattc_write_cfm_handler)
    i.gattc_write_cmd_handler                0x10011408   Section        0  gattc_task.o(i.gattc_write_cmd_handler)
    gattc_write_cmd_handler                  0x10011409   Thumb Code   398  gattc_task.o(i.gattc_write_cmd_handler)
    i.gattc_write_req_ind_handler            0x1001159c   Section        0  gapc_task.o(i.gattc_write_req_ind_handler)
    gattc_write_req_ind_handler              0x1001159d   Thumb Code   224  gapc_task.o(i.gattc_write_req_ind_handler)
    i.gattc_write_req_ind_handler            0x1001167c   Section        0  gattc_task.o(i.gattc_write_req_ind_handler)
    gattc_write_req_ind_handler              0x1001167d   Thumb Code   114  gattc_task.o(i.gattc_write_req_ind_handler)
    i.gattm_cleanup                          0x100116ee   Section        0  gattm.o(i.gattm_cleanup)
    i.gattm_create                           0x100116f4   Section        0  gattm.o(i.gattm_create)
    i.gattm_default_msg_handler              0x100116f8   Section        0  gattm_task.o(i.gattm_default_msg_handler)
    gattm_default_msg_handler                0x100116f9   Thumb Code     4  gattm_task.o(i.gattm_default_msg_handler)
    i.gattm_init                             0x100116fc   Section        0  gattm.o(i.gattm_init)
    i.gattm_init_attr                        0x10011720   Section        0  gattm.o(i.gattm_init_attr)
    i.gattm_svc_get_start_hdl                0x10011784   Section        0  gattm.o(i.gattm_svc_get_start_hdl)
    i.get_active_service_id                  0x10011790   Section        0  gatt_api.o(i.get_active_service_id)
    get_active_service_id                    0x10011791   Thumb Code    48  gatt_api.o(i.get_active_service_id)
    i.get_check_sum                          0x100117c4   Section        0  zksec.o(i.get_check_sum)
    get_check_sum                            0x100117c5   Thumb Code    26  zksec.o(i.get_check_sum)
    i.get_gatt_default_itf                   0x100117e0   Section        0  gatt_api.o(i.get_gatt_default_itf)
    i.get_stored_info_req                    0x100117e8   Section        0  app_proj_event.o(i.get_stored_info_req)
    i.getcrc                                 0x10011884   Section        0  dgus_cmd.o(i.getcrc)
    i.gpio_init                              0x1001189c   Section        0  driver_gpio.o(i.gpio_init)
    i.gpio_write_pin                         0x10011bf0   Section        0  driver_gpio.o(i.gpio_write_pin)
    i.gui_context_get_current_page           0x10011c58   Section        0  guicontext.o(i.gui_context_get_current_page)
    i.gui_context_init                       0x10011c64   Section        0  guicontext.o(i.gui_context_init)
    i.gui_context_invalidate                 0x10011e04   Section        0  guicontext.o(i.gui_context_invalidate)
    i.gui_context_open_page                  0x10011e5c   Section        0  guicontext.o(i.gui_context_open_page)
    i.gui_context_open_page_with_pos         0x10011e78   Section        0  guicontext.o(i.gui_context_open_page_with_pos)
    i.gui_context_procreg                    0x10011ea4   Section        0  guicontext.o(i.gui_context_procreg)
    i.gui_context_run                        0x10011eec   Section        0  guicontext.o(i.gui_context_run)
    i.gui_init                               0x10011f1c   Section        0  gui_main.o(i.gui_init)
    i.gui_main                               0x10011fb8   Section        0  gui_main.o(i.gui_main)
    i.hci_acl_data_handler                   0x1001202c   Section        0  l2cc_task.o(i.hci_acl_data_handler)
    hci_acl_data_handler                     0x1001202d   Thumb Code   178  l2cc_task.o(i.hci_acl_data_handler)
    i.hci_auth_payl_to_exp_evt_handler       0x100120e8   Section        0  gapc_hci.o(i.hci_auth_payl_to_exp_evt_handler)
    hci_auth_payl_to_exp_evt_handler         0x100120e9   Thumb Code    36  gapc_hci.o(i.hci_auth_payl_to_exp_evt_handler)
    i.hci_basic_cmd_cmp_evt_cfg_handler      0x1001210c   Section        0  gapm_cfg.o(i.hci_basic_cmd_cmp_evt_cfg_handler)
    i.hci_basic_cmd_cmp_evt_rl_cfg_handler   0x100121b0   Section        0  gapm_cfg.o(i.hci_basic_cmd_cmp_evt_rl_cfg_handler)
    i.hci_cmd_stat_event_handler             0x100121f4   Section        0  gapc_hci.o(i.hci_cmd_stat_event_handler)
    hci_cmd_stat_event_handler               0x100121f5   Thumb Code   240  gapc_hci.o(i.hci_cmd_stat_event_handler)
    i.hci_disc_cmp_evt_handler               0x100122e8   Section        0  gapc_hci.o(i.hci_disc_cmp_evt_handler)
    hci_disc_cmp_evt_handler                 0x100122e9   Thumb Code    88  gapc_hci.o(i.hci_disc_cmp_evt_handler)
    i.hci_enc_chg_evt_handler                0x10012344   Section        0  gapc_hci.o(i.hci_enc_chg_evt_handler)
    hci_enc_chg_evt_handler                  0x10012345   Thumb Code    36  gapc_hci.o(i.hci_enc_chg_evt_handler)
    i.hci_enc_key_refr_evt_handler           0x1001236c   Section        0  gapc_hci.o(i.hci_enc_key_refr_evt_handler)
    hci_enc_key_refr_evt_handler             0x1001236d   Thumb Code    36  gapc_hci.o(i.hci_enc_key_refr_evt_handler)
    i.hci_le_adv_set_term_evt_handler        0x10012394   Section        0  gapm_adv.o(i.hci_le_adv_set_term_evt_handler)
    i.hci_le_ch_sel_algo_evt_handler         0x10012404   Section        0  gapc_hci.o(i.hci_le_ch_sel_algo_evt_handler)
    i.hci_le_cmd_cmp_evt_addr_handler        0x1001242c   Section        0  gapm_addr.o(i.hci_le_cmd_cmp_evt_addr_handler)
    i.hci_le_cmd_cmp_evt_adv_handler         0x10012464   Section        0  gapm_adv.o(i.hci_le_cmd_cmp_evt_adv_handler)
    i.hci_le_cmd_cmp_evt_creating_handler    0x10012508   Section        0  gapm_adv.o(i.hci_le_cmd_cmp_evt_creating_handler)
    hci_le_cmd_cmp_evt_creating_handler      0x10012509   Thumb Code   230  gapm_adv.o(i.hci_le_cmd_cmp_evt_creating_handler)
    i.hci_le_cmd_cmp_evt_init_handler        0x100125f4   Section        0  gapm_init.o(i.hci_le_cmd_cmp_evt_init_handler)
    i.hci_le_cmd_cmp_evt_list_handler        0x10012674   Section        0  gapm_list.o(i.hci_le_cmd_cmp_evt_list_handler)
    i.hci_le_cmd_cmp_evt_per_sync_handler    0x10012714   Section        0  gapm_per_sync.o(i.hci_le_cmd_cmp_evt_per_sync_handler)
    i.hci_le_cmd_cmp_evt_scan_handler        0x10012748   Section        0  gapm_scan.o(i.hci_le_cmd_cmp_evt_scan_handler)
    i.hci_le_cmd_cmp_evt_starting_handler    0x100127b0   Section        0  gapm_adv.o(i.hci_le_cmd_cmp_evt_starting_handler)
    hci_le_cmd_cmp_evt_starting_handler      0x100127b1   Thumb Code   126  gapm_adv.o(i.hci_le_cmd_cmp_evt_starting_handler)
    i.hci_le_con_update_cmp_evt_handler      0x10012830   Section        0  gapc_hci.o(i.hci_le_con_update_cmp_evt_handler)
    hci_le_con_update_cmp_evt_handler        0x10012831   Thumb Code   138  gapc_hci.o(i.hci_le_con_update_cmp_evt_handler)
    i.hci_le_data_len_chg_evt_handler        0x100128c0   Section        0  gapc_hci.o(i.hci_le_data_len_chg_evt_handler)
    hci_le_data_len_chg_evt_handler          0x100128c1   Thumb Code    60  gapc_hci.o(i.hci_le_data_len_chg_evt_handler)
    i.hci_le_enh_con_cmp_evt_handler         0x100128fc   Section        0  gapm_actv.o(i.hci_le_enh_con_cmp_evt_handler)
    i.hci_le_ext_adv_report_evt_handler      0x10012924   Section        0  gapm_scan.o(i.hci_le_ext_adv_report_evt_handler)
    i.hci_le_gen_dhkey_stat_evt_handler      0x100129e8   Section        0  gapm_smp.o(i.hci_le_gen_dhkey_stat_evt_handler)
    i.hci_le_generate_dhkey_cmp_evt_handler  0x10012a0e   Section        0  gapm_smp.o(i.hci_le_generate_dhkey_cmp_evt_handler)
    i.hci_le_ltk_request_evt_handler         0x10012a64   Section        0  gapc_hci.o(i.hci_le_ltk_request_evt_handler)
    hci_le_ltk_request_evt_handler           0x10012a65   Thumb Code   118  gapc_hci.o(i.hci_le_ltk_request_evt_handler)
    i.hci_le_per_adv_report_evt_handler      0x10012ae4   Section        0  gapm_per_sync.o(i.hci_le_per_adv_report_evt_handler)
    i.hci_le_per_adv_sync_est_evt_handler    0x10012b34   Section        0  gapm_per_sync.o(i.hci_le_per_adv_sync_est_evt_handler)
    i.hci_le_per_adv_sync_lost_evt_handler   0x10012b9a   Section        0  gapm_per_sync.o(i.hci_le_per_adv_sync_lost_evt_handler)
    i.hci_le_phy_upd_cmp_evt_handler         0x10012bb8   Section        0  gapc_hci.o(i.hci_le_phy_upd_cmp_evt_handler)
    hci_le_phy_upd_cmp_evt_handler           0x10012bb9   Thumb Code   100  gapc_hci.o(i.hci_le_phy_upd_cmp_evt_handler)
    i.hci_le_rd_adv_chnl_tx_pw_cmd_cmp_evt_handler 0x10012c20   Section        0  gapm_cfg.o(i.hci_le_rd_adv_chnl_tx_pw_cmd_cmp_evt_handler)
    i.hci_le_rd_buff_size_cmd_cmp_evt_handler 0x10012c64   Section        0  gapm_cfg.o(i.hci_le_rd_buff_size_cmd_cmp_evt_handler)
    i.hci_le_rd_local_p256_public_key_cmp_evt_handler 0x10012c94   Section        0  gapm_cfg.o(i.hci_le_rd_local_p256_public_key_cmp_evt_handler)
    i.hci_le_rd_max_data_len_cmd_cmp_evt_handler 0x10012d24   Section        0  gapm_cfg.o(i.hci_le_rd_max_data_len_cmd_cmp_evt_handler)
    i.hci_le_rd_nb_supp_adv_sets_cmd_cmp_evt_handler 0x10012d68   Section        0  gapm_cfg.o(i.hci_le_rd_nb_supp_adv_sets_cmd_cmp_evt_handler)
    i.hci_le_rd_pal_size_cmd_cmp_evt_handler 0x10012dd0   Section        0  gapm_list.o(i.hci_le_rd_pal_size_cmd_cmp_evt_handler)
    i.hci_le_rd_phy_cmd_cmp_evt_handler      0x10012e0c   Section        0  gapc_hci.o(i.hci_le_rd_phy_cmd_cmp_evt_handler)
    hci_le_rd_phy_cmd_cmp_evt_handler        0x10012e0d   Thumb Code    88  gapc_hci.o(i.hci_le_rd_phy_cmd_cmp_evt_handler)
    i.hci_le_rd_ral_addr_cmd_cmp_evt_handler 0x10012e68   Section        0  gapm_list.o(i.hci_le_rd_ral_addr_cmd_cmp_evt_handler)
    i.hci_le_rd_ral_size_cmd_cmp_evt_handler 0x10012ece   Section        0  gapm_list.o(i.hci_le_rd_ral_size_cmd_cmp_evt_handler)
    i.hci_le_rd_rem_feats_cmp_evt_handler    0x10012f08   Section        0  gapc_hci.o(i.hci_le_rd_rem_feats_cmp_evt_handler)
    hci_le_rd_rem_feats_cmp_evt_handler      0x10012f09   Thumb Code   158  gapc_hci.o(i.hci_le_rd_rem_feats_cmp_evt_handler)
    i.hci_le_rd_rf_path_comp_cmd_cmp_evt_handler 0x10012fac   Section        0  gapm_cfg.o(i.hci_le_rd_rf_path_comp_cmd_cmp_evt_handler)
    i.hci_le_rd_suggted_dft_data_len_cmd_cmp_evt_handler 0x10012ff4   Section        0  gapm_cfg.o(i.hci_le_rd_suggted_dft_data_len_cmd_cmp_evt_handler)
    i.hci_le_rd_tx_pwr_cmd_cmp_evt_handler   0x1001302e   Section        0  gapm_cfg.o(i.hci_le_rd_tx_pwr_cmd_cmp_evt_handler)
    i.hci_le_rd_wlst_size_cmd_cmp_evt_handler 0x10013076   Section        0  gapm_list.o(i.hci_le_rd_wlst_size_cmd_cmp_evt_handler)
    i.hci_le_read_max_adv_data_len_cmd_cmp_evt_handler 0x100130b0   Section        0  gapm_cfg.o(i.hci_le_read_max_adv_data_len_cmd_cmp_evt_handler)
    i.hci_le_rem_con_param_req_evt_handler   0x10013118   Section        0  gapc_hci.o(i.hci_le_rem_con_param_req_evt_handler)
    hci_le_rem_con_param_req_evt_handler     0x10013119   Thumb Code    76  gapc_hci.o(i.hci_le_rem_con_param_req_evt_handler)
    i.hci_le_scan_req_rcvd_evt_handler       0x10013168   Section        0  gapm_adv.o(i.hci_le_scan_req_rcvd_evt_handler)
    i.hci_le_scan_timeout_evt_handler        0x100131c8   Section        0  gapm_scan.o(i.hci_le_scan_timeout_evt_handler)
    i.hci_le_set_data_len_cmd_cmp_evt_handler 0x100131f0   Section        0  gapc_hci.o(i.hci_le_set_data_len_cmd_cmp_evt_handler)
    hci_le_set_data_len_cmd_cmp_evt_handler  0x100131f1   Thumb Code    46  gapc_hci.o(i.hci_le_set_data_len_cmd_cmp_evt_handler)
    i.hci_le_start_enc_stat_evt_handler      0x10013224   Section        0  gapc_hci.o(i.hci_le_start_enc_stat_evt_handler)
    hci_le_start_enc_stat_evt_handler        0x10013225   Thumb Code    36  gapc_hci.o(i.hci_le_start_enc_stat_evt_handler)
    i.hci_nb_cmp_pkts_evt_handler            0x10013248   Section        0  l2cc_task.o(i.hci_nb_cmp_pkts_evt_handler)
    hci_nb_cmp_pkts_evt_handler              0x10013249   Thumb Code    52  l2cc_task.o(i.hci_nb_cmp_pkts_evt_handler)
    i.hci_rd_auth_payl_to_cmd_cmp_evt_handler 0x10013280   Section        0  gapc_hci.o(i.hci_rd_auth_payl_to_cmd_cmp_evt_handler)
    hci_rd_auth_payl_to_cmd_cmp_evt_handler  0x10013281   Thumb Code    72  gapc_hci.o(i.hci_rd_auth_payl_to_cmd_cmp_evt_handler)
    i.hci_rd_bd_addr_cmd_cmp_evt_handler     0x100132c8   Section        0  gapm_cfg.o(i.hci_rd_bd_addr_cmd_cmp_evt_handler)
    i.hci_rd_buff_size_cmd_cmp_evt_handler   0x1001330c   Section        0  gapm_cfg.o(i.hci_rd_buff_size_cmd_cmp_evt_handler)
    i.hci_rd_chnl_map_cmd_cmp_evt_handler    0x1001333c   Section        0  gapc_hci.o(i.hci_rd_chnl_map_cmd_cmp_evt_handler)
    hci_rd_chnl_map_cmd_cmp_evt_handler      0x1001333d   Thumb Code    96  gapc_hci.o(i.hci_rd_chnl_map_cmd_cmp_evt_handler)
    i.hci_rd_local_ver_info_cmd_cmp_evt_handler 0x1001339c   Section        0  gapm_cfg.o(i.hci_rd_local_ver_info_cmd_cmp_evt_handler)
    i.hci_rd_rem_ver_info_cmp_evt_handler    0x10013404   Section        0  gapc_hci.o(i.hci_rd_rem_ver_info_cmp_evt_handler)
    hci_rd_rem_ver_info_cmp_evt_handler      0x10013405   Thumb Code   130  gapc_hci.o(i.hci_rd_rem_ver_info_cmp_evt_handler)
    i.hci_rd_rssi_cmd_cmp_evt_handler        0x1001348c   Section        0  gapc_hci.o(i.hci_rd_rssi_cmd_cmp_evt_handler)
    hci_rd_rssi_cmd_cmp_evt_handler          0x1001348d   Thumb Code    92  gapc_hci.o(i.hci_rd_rssi_cmd_cmp_evt_handler)
    i.hci_test_end_cmd_cmp_evt_handler       0x100134e8   Section        0  gapm_cfg.o(i.hci_test_end_cmd_cmp_evt_handler)
    i.hci_vs_set_pref_slave_latency_cmd_cmp_evt_handler 0x10013524   Section        0  gapc_hci.o(i.hci_vs_set_pref_slave_latency_cmd_cmp_evt_handler)
    hci_vs_set_pref_slave_latency_cmd_cmp_evt_handler 0x10013525   Thumb Code    46  gapc_hci.o(i.hci_vs_set_pref_slave_latency_cmd_cmp_evt_handler)
    i.hci_wr_auth_payl_to_cmd_cmp_evt_handler 0x10013558   Section        0  gapc_hci.o(i.hci_wr_auth_payl_to_cmd_cmp_evt_handler)
    hci_wr_auth_payl_to_cmd_cmp_evt_handler  0x10013559   Thumb Code    38  gapc_hci.o(i.hci_wr_auth_payl_to_cmd_cmp_evt_handler)
    i.host_trng_valid                        0x10013580   Section        0  trng.o(i.host_trng_valid)
    host_trng_valid                          0x10013581   Thumb Code   132  trng.o(i.host_trng_valid)
    i.i_memset                               0x1001360c   Section        0  resource.o(i.i_memset)
    i.image_proc                             0x1001361c   Section        0  image.o(i.image_proc)
    i.imagetext_proc                         0x10013674   Section        0  imagetext.o(i.imagetext_proc)
    i.increment_proc                         0x100138c8   Section        0  increment.o(i.increment_proc)
    i.init_param                             0x10013920   Section        0  sdl_video.o(i.init_param)
    i.init_screenInfo                        0x10013c08   Section        0  sdl_gfx.o(i.init_screenInfo)
    i.initdev                                0x10013c0c   Section        0  uartupgradedev.o(i.initdev)
    initdev                                  0x10013c0d   Thumb Code   128  uartupgradedev.o(i.initdev)
    i.inituart_upgrademode                   0x10013ce0   Section        0  uartupgradedev.o(i.inituart_upgrademode)
    i.inituart_usercommon                    0x10013cf4   Section        0  uartupgradedev.o(i.inituart_usercommon)
    i.itoa                                   0x10013d6c   Section        0  fy_mem.o(i.itoa)
    i.jump_table_get_static_keys             0x10013dac   Section        0  jump_table_host.o(i.jump_table_get_static_keys)
    i.jump_table_memmory_init                0x10013e70   Section        0  jump_table_host.o(i.jump_table_memmory_init)
    i.jump_table_param_get                   0x10013eac   Section        0  jump_table_host.o(i.jump_table_param_get)
    jump_table_param_get                     0x10013ead   Thumb Code    68  jump_table_host.o(i.jump_table_param_get)
    i.jump_table_param_set                   0x10013ef4   Section        0  jump_table_host.o(i.jump_table_param_set)
    jump_table_param_set                     0x10013ef5   Thumb Code    50  jump_table_host.o(i.jump_table_param_set)
    i.jump_table_set_static_keys             0x10013f2c   Section        0  jump_table_host.o(i.jump_table_set_static_keys)
    i.ke_task_default_handler_get_patch      0x10013fcc   Section        0  entry.o(i.ke_task_default_handler_get_patch)
    ke_task_default_handler_get_patch        0x10013fcd   Thumb Code     4  entry.o(i.ke_task_default_handler_get_patch)
    i.l2c_code_conn_param_upd_req_handler    0x10013fd0   Section        0  l2cc_sig.o(i.l2c_code_conn_param_upd_req_handler)
    l2c_code_conn_param_upd_req_handler      0x10013fd1   Thumb Code    60  l2cc_sig.o(i.l2c_code_conn_param_upd_req_handler)
    i.l2c_code_conn_param_upd_req_handler    0x1001400c   Section        0  gapc_sig.o(i.l2c_code_conn_param_upd_req_handler)
    l2c_code_conn_param_upd_req_handler      0x1001400d   Thumb Code    98  gapc_sig.o(i.l2c_code_conn_param_upd_req_handler)
    i.l2c_code_conn_param_upd_resp_handler   0x10014074   Section        0  l2cc_sig.o(i.l2c_code_conn_param_upd_resp_handler)
    l2c_code_conn_param_upd_resp_handler     0x10014075   Thumb Code    58  l2cc_sig.o(i.l2c_code_conn_param_upd_resp_handler)
    i.l2c_code_conn_param_upd_resp_handler   0x100140ae   Section        0  gapc_sig.o(i.l2c_code_conn_param_upd_resp_handler)
    l2c_code_conn_param_upd_resp_handler     0x100140af   Thumb Code    68  gapc_sig.o(i.l2c_code_conn_param_upd_resp_handler)
    i.l2c_code_reject_handler                0x100140f2   Section        0  l2cc_sig.o(i.l2c_code_reject_handler)
    l2c_code_reject_handler                  0x100140f3   Thumb Code    28  l2cc_sig.o(i.l2c_code_reject_handler)
    i.l2c_code_reject_handler                0x1001410e   Section        0  gapc_sig.o(i.l2c_code_reject_handler)
    l2c_code_reject_handler                  0x1001410f   Thumb Code    80  gapc_sig.o(i.l2c_code_reject_handler)
    i.l2cc_cleanup                           0x10014160   Section        0  l2cc.o(i.l2cc_cleanup)
    i.l2cc_cmp_evt_handler                   0x10014210   Section        0  gapc_task.o(i.l2cc_cmp_evt_handler)
    l2cc_cmp_evt_handler                     0x10014211   Thumb Code    60  gapc_task.o(i.l2cc_cmp_evt_handler)
    i.l2cc_cmp_evt_handler                   0x1001424c   Section        0  gattc_task.o(i.l2cc_cmp_evt_handler)
    l2cc_cmp_evt_handler                     0x1001424d   Thumb Code    70  gattc_task.o(i.l2cc_cmp_evt_handler)
    i.l2cc_create                            0x10014294   Section        0  l2cc.o(i.l2cc_create)
    i.l2cc_data_send                         0x100142e0   Section        0  l2cc.o(i.l2cc_data_send)
    i.l2cc_dbg_pdu_pack                      0x1001445c   Section        0  l2cc_pdu.o(i.l2cc_dbg_pdu_pack)
    i.l2cc_dbg_pdu_send_cmd_handler          0x100144ac   Section        0  l2cc_task.o(i.l2cc_dbg_pdu_send_cmd_handler)
    l2cc_dbg_pdu_send_cmd_handler            0x100144ad   Thumb Code   106  l2cc_task.o(i.l2cc_dbg_pdu_send_cmd_handler)
    i.l2cc_default_msg_handler               0x1001451c   Section        0  l2cc_task.o(i.l2cc_default_msg_handler)
    l2cc_default_msg_handler                 0x1001451d   Thumb Code     4  l2cc_task.o(i.l2cc_default_msg_handler)
    i.l2cc_init                              0x10014520   Section        0  l2cc.o(i.l2cc_init)
    i.l2cc_lecb_sdu_send_cmd_handler         0x10014570   Section        0  l2cc_task.o(i.l2cc_lecb_sdu_send_cmd_handler)
    l2cc_lecb_sdu_send_cmd_handler           0x10014571   Thumb Code    62  l2cc_task.o(i.l2cc_lecb_sdu_send_cmd_handler)
    i.l2cc_op_complete                       0x100145b0   Section        0  l2cc.o(i.l2cc_op_complete)
    i.l2cc_pdu_alloc                         0x10014604   Section        0  l2cc_task.o(i.l2cc_pdu_alloc)
    i.l2cc_pdu_header_check                  0x10014630   Section        0  l2cc_pdu.o(i.l2cc_pdu_header_check)
    i.l2cc_pdu_pack                          0x10014774   Section        0  l2cc_pdu.o(i.l2cc_pdu_pack)
    i.l2cc_pdu_recv_ind_handler              0x10014a28   Section        0  l2cc_task.o(i.l2cc_pdu_recv_ind_handler)
    l2cc_pdu_recv_ind_handler                0x10014a29   Thumb Code    98  l2cc_task.o(i.l2cc_pdu_recv_ind_handler)
    i.l2cc_pdu_recv_ind_handler              0x10014a8a   Section        0  gapc_task.o(i.l2cc_pdu_recv_ind_handler)
    l2cc_pdu_recv_ind_handler                0x10014a8b   Thumb Code   104  gapc_task.o(i.l2cc_pdu_recv_ind_handler)
    i.l2cc_pdu_recv_ind_handler              0x10014af2   Section        0  gattc_task.o(i.l2cc_pdu_recv_ind_handler)
    l2cc_pdu_recv_ind_handler                0x10014af3   Thumb Code   114  gattc_task.o(i.l2cc_pdu_recv_ind_handler)
    i.l2cc_pdu_rx_init                       0x10014b64   Section        0  l2cc_pdu.o(i.l2cc_pdu_rx_init)
    i.l2cc_pdu_send                          0x10014be4   Section        0  l2cc_task.o(i.l2cc_pdu_send)
    i.l2cc_pdu_send_cmd_handler              0x10014bec   Section        0  l2cc_task.o(i.l2cc_pdu_send_cmd_handler)
    l2cc_pdu_send_cmd_handler                0x10014bed   Thumb Code    90  l2cc_task.o(i.l2cc_pdu_send_cmd_handler)
    i.l2cc_pdu_unpack                        0x10014c4c   Section        0  l2cc_pdu.o(i.l2cc_pdu_unpack)
    i.l2cc_send_cmp_evt                      0x10014ee4   Section        0  l2cc.o(i.l2cc_send_cmp_evt)
    i.l2cc_sig_pdu_recv_handler              0x10014f14   Section        0  l2cc_sig.o(i.l2cc_sig_pdu_recv_handler)
    i.l2cc_sig_send_cmd_reject               0x10014f60   Section        0  l2cc_sig.o(i.l2cc_sig_send_cmd_reject)
    i.l2cc_update_state                      0x10014fbc   Section        0  l2cc.o(i.l2cc_update_state)
    i.l2cm_cleanup                           0x10014fe4   Section        0  l2cm.o(i.l2cm_cleanup)
    i.l2cm_create                            0x10014ffa   Section        0  l2cm.o(i.l2cm_create)
    i.l2cm_get_nb_buffer_available           0x10015000   Section        0  l2cm.o(i.l2cm_get_nb_buffer_available)
    i.l2cm_init                              0x1001500c   Section        0  l2cm.o(i.l2cm_init)
    i.l2cm_l2cap_tx_handler                  0x1001503c   Section        0  l2cm.o(i.l2cm_l2cap_tx_handler)
    l2cm_l2cap_tx_handler                    0x1001503d   Thumb Code    88  l2cm.o(i.l2cm_l2cap_tx_handler)
    i.l2cm_set_link_layer_buff_size          0x1001509c   Section        0  l2cm.o(i.l2cm_set_link_layer_buff_size)
    i.l2cm_tx_status                         0x100150ac   Section        0  l2cm.o(i.l2cm_tx_status)
    i.lHHIJhYjeCaMg3gG                       0x100150d8   Section        0  zksec.o(i.lHHIJhYjeCaMg3gG)
    lHHIJhYjeCaMg3gG                         0x100150d9   Thumb Code   136  zksec.o(i.lHHIJhYjeCaMg3gG)
    i.label_proc                             0x1001518c   Section        0  label.o(i.label_proc)
    i.label_set_text                         0x10015450   Section        0  label.o(i.label_set_text)
    i.lcd_init_spi                           0x10015498   Section        0  sdl_video.o(i.lcd_init_spi)
    lcd_init_spi                             0x10015499   Thumb Code    64  sdl_video.o(i.lcd_init_spi)
    i.lcd_setbrightness                      0x100154e4   Section        0  sdl_video.o(i.lcd_setbrightness)
    i.lcd_write_cmd                          0x100154f0   Section        0  sdl_video.o(i.lcd_write_cmd)
    lcd_write_cmd                            0x100154f1   Thumb Code    48  sdl_video.o(i.lcd_write_cmd)
    i.lcd_write_data                         0x10015528   Section        0  sdl_video.o(i.lcd_write_data)
    lcd_write_data                           0x10015529   Thumb Code    48  sdl_video.o(i.lcd_write_data)
    i.log_init                               0x10015560   Section        0  co_log.o(i.log_init)
    i.log_printf                             0x100155e8   Section        0  co_log.o(i.log_printf)
    i.log_printf_level                       0x10015610   Section        0  co_log.o(i.log_printf_level)
    i.lvd_threshold                          0x10015614   Section        0  driver_pmu.o(i.lvd_threshold)
    i.m_al_get_local_addr                    0x10015638   Section        0  m_al_task.o(i.m_al_get_local_addr)
    i.m_tb_state_is_feature_sup              0x10015640   Section        0  m_tb_state.o(i.m_tb_state_is_feature_sup)
    i.mesh_set_runtime                       0x10015658   Section        0  mesh_api.o(i.mesh_set_runtime)
    i.message_dequeue                        0x100156a4   Section        0  message.o(i.message_dequeue)
    i.message_enqueue                        0x100156d4   Section        0  message.o(i.message_enqueue)
    i.message_init                           0x10015700   Section        0  message.o(i.message_init)
    i.mw9VZnDHubl3                           0x10015710   Section        0  zksec.o(i.mw9VZnDHubl3)
    i.my_printf_d                            0x10015714   Section        0  fy_mem.o(i.my_printf_d)
    i.numtext_proc                           0x10015738   Section        0  numtext.o(i.numtext_proc)
    i.on_animation_play_end                  0x100159a8   Section        0  ui_context.o(i.on_animation_play_end)
    i.on_button_touch_event                  0x100159d4   Section        0  ui_context.o(i.on_button_touch_event)
    i.on_page_open                           0x10015a04   Section        0  ui_context.o(i.on_page_open)
    i.on_progress_changed                    0x10015a2c   Section        0  ui_context.o(i.on_progress_changed)
    i.on_timer                               0x10015a5c   Section        0  ui_context.o(i.on_timer)
    i.os_default_task_func                   0x10015a8c   Section        0  os_task.o(i.os_default_task_func)
    os_default_task_func                     0x10015a8d   Thumb Code    44  os_task.o(i.os_default_task_func)
    i.os_msg_post                            0x10015abc   Section        0  os_msg_q.o(i.os_msg_post)
    i.os_zalloc                              0x10015b1c   Section        0  os_mem.o(i.os_zalloc)
    i.pKKFrMQUHba                            0x10015b34   Section        0  resource.o(i.pKKFrMQUHba)
    i.pmu_calibration_restart                0x10015c28   Section        0  sys_utisl.o(i.pmu_calibration_restart)
    i.pmu_cp_trim_config                     0x10015c88   Section        0  driver_pmu.o(i.pmu_cp_trim_config)
    i.pmu_ft_trim_config                     0x10015ddc   Section        0  driver_pmu.o(i.pmu_ft_trim_config)
    i.pmu_get_isr_state                      0x10015fd0   Section        0  driver_pmu.o(i.pmu_get_isr_state)
    i.pmu_gpio_isr                           0x10015fe0   Section        0  driver_pmu.o(i.pmu_gpio_isr)
    i.pmu_lvd_en                             0x10015fe2   Section        0  driver_pmu.o(i.pmu_lvd_en)
    i.pmu_reset_internal_cnt                 0x1001607c   Section        0  driver_pmu.o(i.pmu_reset_internal_cnt)
    i.pmu_sub_init                           0x100160b0   Section        0  driver_pmu.o(i.pmu_sub_init)
    i.prf_add_profile                        0x10016410   Section        0  prf.o(i.prf_add_profile)
    i.prf_cleanup                            0x100164d0   Section        0  prf.o(i.prf_cleanup)
    i.prf_create                             0x10016524   Section        0  prf.o(i.prf_create)
    i.prf_extract_svc_info_uuid_128          0x10016578   Section        0  prf_utils.o(i.prf_extract_svc_info_uuid_128)
    i.prf_get_task_from_id                   0x10016718   Section        0  prf.o(i.prf_get_task_from_id)
    i.prf_init                               0x10016764   Section        0  prf.o(i.prf_init)
    i.prf_itf_get_imp                        0x10016860   Section        0  app_prf.o(i.prf_itf_get_imp)
    i.procMsg                                0x10016888   Section        0  uartupgradedev.o(i.procMsg)
    procMsg                                  0x10016889   Thumb Code    54  uartupgradedev.o(i.procMsg)
    i.procUartDGUS                           0x100168d8   Section        0  dgus_cmd.o(i.procUartDGUS)
    i.procUartUpdateReq                      0x10016934   Section        0  uartupgradedev.o(i.procUartUpdateReq)
    procUartUpdateReq                        0x10016935   Thumb Code   114  uartupgradedev.o(i.procUartUpdateReq)
    i.processCmd                             0x100169d0   Section        0  uartupgradedev.o(i.processCmd)
    processCmd                               0x100169d1   Thumb Code    18  uartupgradedev.o(i.processCmd)
    i.processUpgrade                         0x100169e4   Section        0  uartupgradedev.o(i.processUpgrade)
    processUpgrade                           0x100169e5   Thumb Code   668  uartupgradedev.o(i.processUpgrade)
    i.processUpgrade_simple                  0x10016c98   Section        0  uartupgradedev.o(i.processUpgrade_simple)
    processUpgrade_simple                    0x10016c99   Thumb Code   218  uartupgradedev.o(i.processUpgrade_simple)
    i.progress_proc                          0x10016ddc   Section        0  progress.o(i.progress_proc)
    i.progress_re_set_value                  0x1001715c   Section        0  progress.o(i.progress_re_set_value)
    i.progress_set_value                     0x10017184   Section        0  progress.o(i.progress_set_value)
    i.qsSh4w5pnRqMCb                         0x100171b4   Section        0  md5.o(i.qsSh4w5pnRqMCb)
    i.qsSh4w5pnRqMCj                         0x1001720c   Section        0  md5.o(i.qsSh4w5pnRqMCj)
    i.read_uart_data                         0x1001729c   Section        0  zksec.o(i.read_uart_data)
    read_uart_data                           0x1001729d   Thumb Code   316  zksec.o(i.read_uart_data)
    i.resource_load_string                   0x10017410   Section        0  resource.o(i.resource_load_string)
    i.rwble_hl_init_imp                      0x1001747c   Section        0  rwble_hl.o(i.rwble_hl_init_imp)
    i.rwble_hl_reset                         0x1001749a   Section        0  rwble_hl.o(i.rwble_hl_reset)
    i.smpc_ShiftLeft1Bit16ByteNum            0x100174b8   Section        0  smpc_crypto.o(i.smpc_ShiftLeft1Bit16ByteNum)
    i.smpc_XOR_16_Byte_Array                 0x100174dc   Section        0  smpc_crypto.o(i.smpc_XOR_16_Byte_Array)
    i.smpc_aes_cmac_complete                 0x100174f4   Section        0  smpc_crypto.o(i.smpc_aes_cmac_complete)
    i.smpc_aes_cmac_continue                 0x1001753c   Section        0  smpc_crypto.o(i.smpc_aes_cmac_continue)
    i.smpc_aes_cmac_init                     0x1001768c   Section        0  smpc_crypto.o(i.smpc_aes_cmac_init)
    i.smpc_calc_confirm_cont                 0x100176d8   Section        0  smpc_api.o(i.smpc_calc_confirm_cont)
    i.smpc_calc_subkeys                      0x10017c28   Section        0  smpc.o(i.smpc_calc_subkeys)
    i.smpc_check_key_distrib                 0x10017cac   Section        0  smpc.o(i.smpc_check_key_distrib)
    i.smpc_check_max_key_size                0x10017d2c   Section        0  smpc.o(i.smpc_check_max_key_size)
    i.smpc_check_pairing_feat                0x10017d58   Section        0  smpc.o(i.smpc_check_pairing_feat)
    i.smpc_check_param                       0x10017d7c   Section        0  smpc_util.o(i.smpc_check_param)
    i.smpc_check_repeated_attempts           0x10017e00   Section        0  smpc.o(i.smpc_check_repeated_attempts)
    i.smpc_clear_timeout_timer               0x10017e64   Section        0  smpc.o(i.smpc_clear_timeout_timer)
    i.smpc_confirm_gen_rand                  0x10017e98   Section        0  smpc_api.o(i.smpc_confirm_gen_rand)
    i.smpc_construcpublic_key_t_pdu          0x100180e0   Section        0  smpc_util.o(i.smpc_construcpublic_key_t_pdu)
    smpc_construcpublic_key_t_pdu            0x100180e1   Thumb Code    30  smpc_util.o(i.smpc_construcpublic_key_t_pdu)
    i.smpc_construct_dhkey_check_pdu         0x100180fe   Section        0  smpc_util.o(i.smpc_construct_dhkey_check_pdu)
    smpc_construct_dhkey_check_pdu           0x100180ff   Thumb Code     8  smpc_util.o(i.smpc_construct_dhkey_check_pdu)
    i.smpc_construct_enc_info_pdu            0x10018106   Section        0  smpc_util.o(i.smpc_construct_enc_info_pdu)
    smpc_construct_enc_info_pdu              0x10018107   Thumb Code     8  smpc_util.o(i.smpc_construct_enc_info_pdu)
    i.smpc_construct_id_addr_info_pdu        0x1001810e   Section        0  smpc_util.o(i.smpc_construct_id_addr_info_pdu)
    smpc_construct_id_addr_info_pdu          0x1001810f   Thumb Code    30  smpc_util.o(i.smpc_construct_id_addr_info_pdu)
    i.smpc_construct_id_info_pdu             0x1001812c   Section        0  smpc_util.o(i.smpc_construct_id_info_pdu)
    smpc_construct_id_info_pdu               0x1001812d   Thumb Code     8  smpc_util.o(i.smpc_construct_id_info_pdu)
    i.smpc_construct_keypress_notification_pdu 0x10018134   Section        0  smpc_util.o(i.smpc_construct_keypress_notification_pdu)
    smpc_construct_keypress_notification_pdu 0x10018135   Thumb Code     6  smpc_util.o(i.smpc_construct_keypress_notification_pdu)
    i.smpc_construct_mst_id_pdu              0x1001813a   Section        0  smpc_util.o(i.smpc_construct_mst_id_pdu)
    smpc_construct_mst_id_pdu                0x1001813b   Thumb Code    18  smpc_util.o(i.smpc_construct_mst_id_pdu)
    i.smpc_construct_pair_cfm_pdu            0x1001814c   Section        0  smpc_util.o(i.smpc_construct_pair_cfm_pdu)
    smpc_construct_pair_cfm_pdu              0x1001814d   Thumb Code     8  smpc_util.o(i.smpc_construct_pair_cfm_pdu)
    i.smpc_construct_pair_fail_pdu           0x10018154   Section        0  smpc_util.o(i.smpc_construct_pair_fail_pdu)
    smpc_construct_pair_fail_pdu             0x10018155   Thumb Code     6  smpc_util.o(i.smpc_construct_pair_fail_pdu)
    i.smpc_construct_pair_rand_pdu           0x1001815a   Section        0  smpc_util.o(i.smpc_construct_pair_rand_pdu)
    smpc_construct_pair_rand_pdu             0x1001815b   Thumb Code     8  smpc_util.o(i.smpc_construct_pair_rand_pdu)
    i.smpc_construct_pair_req_pdu            0x10018162   Section        0  smpc_util.o(i.smpc_construct_pair_req_pdu)
    smpc_construct_pair_req_pdu              0x10018163   Thumb Code    12  smpc_util.o(i.smpc_construct_pair_req_pdu)
    i.smpc_construct_pair_rsp_pdu            0x1001816e   Section        0  smpc_util.o(i.smpc_construct_pair_rsp_pdu)
    smpc_construct_pair_rsp_pdu              0x1001816f   Thumb Code    12  smpc_util.o(i.smpc_construct_pair_rsp_pdu)
    i.smpc_construct_sec_req_pdu             0x1001817a   Section        0  smpc_util.o(i.smpc_construct_sec_req_pdu)
    smpc_construct_sec_req_pdu               0x1001817b   Thumb Code     6  smpc_util.o(i.smpc_construct_sec_req_pdu)
    i.smpc_construct_sign_info_pdu           0x10018180   Section        0  smpc_util.o(i.smpc_construct_sign_info_pdu)
    smpc_construct_sign_info_pdu             0x10018181   Thumb Code     8  smpc_util.o(i.smpc_construct_sign_info_pdu)
    i.smpc_encrypt_cfm                       0x10018188   Section        0  smpc_api.o(i.smpc_encrypt_cfm)
    i.smpc_encrypt_start                     0x100181c0   Section        0  smpc_api.o(i.smpc_encrypt_start)
    i.smpc_encrypt_start_handler             0x100181e6   Section        0  smpc_api.o(i.smpc_encrypt_start_handler)
    i.smpc_f4_Init                           0x10018220   Section        0  smpc_crypto.o(i.smpc_f4_Init)
    i.smpc_f4_complete                       0x1001827c   Section        0  smpc_crypto.o(i.smpc_f4_complete)
    i.smpc_f5_complete                       0x100182b4   Section        0  smpc_crypto.o(i.smpc_f5_complete)
    i.smpc_f5_init                           0x100182ec   Section        0  smpc_crypto.o(i.smpc_f5_init)
    i.smpc_f6_complete                       0x1001839c   Section        0  smpc_crypto.o(i.smpc_f6_complete)
    i.smpc_f6_init                           0x100183d4   Section        0  smpc_crypto.o(i.smpc_f6_init)
    i.smpc_g2_complete                       0x10018470   Section        0  smpc_crypto.o(i.smpc_g2_complete)
    i.smpc_g2_init                           0x100184a8   Section        0  smpc_crypto.o(i.smpc_g2_init)
    i.smpc_generate_cfm                      0x10018510   Section        0  smpc.o(i.smpc_generate_cfm)
    i.smpc_generate_ci                       0x10018590   Section        0  smpc.o(i.smpc_generate_ci)
    i.smpc_generate_e1                       0x10018604   Section        0  smpc.o(i.smpc_generate_e1)
    i.smpc_generate_l                        0x100186bc   Section        0  smpc.o(i.smpc_generate_l)
    i.smpc_generate_rand                     0x10018714   Section        0  smpc.o(i.smpc_generate_rand)
    i.smpc_generate_stk                      0x10018744   Section        0  smpc.o(i.smpc_generate_stk)
    i.smpc_get_key_sec_prop                  0x10018794   Section        0  smpc.o(i.smpc_get_key_sec_prop)
    i.smpc_get_next_passkey_bit              0x1001889c   Section        0  smpc.o(i.smpc_get_next_passkey_bit)
    i.smpc_handle_dh_key_check_complete      0x100188cc   Section        0  smpc.o(i.smpc_handle_dh_key_check_complete)
    i.smpc_handle_enc_change_evt             0x1001890c   Section        0  smpc.o(i.smpc_handle_enc_change_evt)
    i.smpc_init_mac_key_calculation          0x10018a44   Section        0  smpc.o(i.smpc_init_mac_key_calculation)
    i.smpc_initiate_dhkey_check              0x10018aec   Section        0  smpc.o(i.smpc_initiate_dhkey_check)
    i.smpc_initiate_dhkey_verification       0x10018bc0   Section        0  smpc.o(i.smpc_initiate_dhkey_verification)
    i.smpc_is_sec_mode_reached               0x10018c94   Section        0  smpc.o(i.smpc_is_sec_mode_reached)
    i.smpc_key_press_notification_ind        0x10018cc0   Section        0  smpc_api.o(i.smpc_key_press_notification_ind)
    i.smpc_launch_rep_att_timer              0x10018ce8   Section        0  smpc.o(i.smpc_launch_rep_att_timer)
    i.smpc_pairing_csrk_exch                 0x10018d34   Section        0  smpc_api.o(i.smpc_pairing_csrk_exch)
    i.smpc_pairing_end                       0x10018d80   Section        0  smpc.o(i.smpc_pairing_end)
    i.smpc_pairing_irk_exch                  0x10018de0   Section        0  smpc_api.o(i.smpc_pairing_irk_exch)
    i.smpc_pairing_ltk_exch                  0x10018e28   Section        0  smpc_api.o(i.smpc_pairing_ltk_exch)
    i.smpc_pairing_nc_exch                   0x10018e94   Section        0  smpc_api.o(i.smpc_pairing_nc_exch)
    i.smpc_pairing_oob_exch                  0x10018eec   Section        0  smpc_api.o(i.smpc_pairing_oob_exch)
    i.smpc_pairing_req_handler               0x10018fb4   Section        0  smpc_api.o(i.smpc_pairing_req_handler)
    i.smpc_pairing_rsp                       0x10018ff4   Section        0  smpc_api.o(i.smpc_pairing_rsp)
    i.smpc_pairing_start                     0x1001912c   Section        0  smpc_api.o(i.smpc_pairing_start)
    i.smpc_pairing_tk_exch                   0x100191d8   Section        0  smpc_api.o(i.smpc_pairing_tk_exch)
    i.smpc_pdu_recv                          0x100192d0   Section        0  smpc.o(i.smpc_pdu_recv)
    i.smpc_pdu_send                          0x10019328   Section        0  smpc.o(i.smpc_pdu_send)
    i.smpc_process_aes_cmac                  0x100193b8   Section        0  smpc_crypto.o(i.smpc_process_aes_cmac)
    i.smpc_recv_dhkey_check_pdu              0x100193f4   Section        0  smpc_util.o(i.smpc_recv_dhkey_check_pdu)
    smpc_recv_dhkey_check_pdu                0x100193f5   Thumb Code   126  smpc_util.o(i.smpc_recv_dhkey_check_pdu)
    i.smpc_recv_enc_info_pdu                 0x100194d4   Section        0  smpc_util.o(i.smpc_recv_enc_info_pdu)
    smpc_recv_enc_info_pdu                   0x100194d5   Thumb Code    48  smpc_util.o(i.smpc_recv_enc_info_pdu)
    i.smpc_recv_id_addr_info_pdu             0x10019508   Section        0  smpc_util.o(i.smpc_recv_id_addr_info_pdu)
    smpc_recv_id_addr_info_pdu               0x10019509   Thumb Code    74  smpc_util.o(i.smpc_recv_id_addr_info_pdu)
    i.smpc_recv_id_info_pdu                  0x10019558   Section        0  smpc_util.o(i.smpc_recv_id_info_pdu)
    smpc_recv_id_info_pdu                    0x10019559   Thumb Code    48  smpc_util.o(i.smpc_recv_id_info_pdu)
    i.smpc_recv_keypress_notification_pdu    0x1001958c   Section        0  smpc_util.o(i.smpc_recv_keypress_notification_pdu)
    smpc_recv_keypress_notification_pdu      0x1001958d   Thumb Code   100  smpc_util.o(i.smpc_recv_keypress_notification_pdu)
    i.smpc_recv_mst_id_pdu                   0x1001965c   Section        0  smpc_util.o(i.smpc_recv_mst_id_pdu)
    smpc_recv_mst_id_pdu                     0x1001965d   Thumb Code    84  smpc_util.o(i.smpc_recv_mst_id_pdu)
    i.smpc_recv_pair_cfm_pdu                 0x100196b4   Section        0  smpc_util.o(i.smpc_recv_pair_cfm_pdu)
    smpc_recv_pair_cfm_pdu                   0x100196b5   Thumb Code   240  smpc_util.o(i.smpc_recv_pair_cfm_pdu)
    i.smpc_recv_pair_fail_pdu                0x100197a8   Section        0  smpc_util.o(i.smpc_recv_pair_fail_pdu)
    smpc_recv_pair_fail_pdu                  0x100197a9   Thumb Code    58  smpc_util.o(i.smpc_recv_pair_fail_pdu)
    i.smpc_recv_pair_rand_pdu                0x100197e8   Section        0  smpc_util.o(i.smpc_recv_pair_rand_pdu)
    smpc_recv_pair_rand_pdu                  0x100197e9   Thumb Code   496  smpc_util.o(i.smpc_recv_pair_rand_pdu)
    i.smpc_recv_pair_req_pdu                 0x100199dc   Section        0  smpc_util.o(i.smpc_recv_pair_req_pdu)
    smpc_recv_pair_req_pdu                   0x100199dd   Thumb Code   162  smpc_util.o(i.smpc_recv_pair_req_pdu)
    i.smpc_recv_pair_rsp_pdu                 0x10019a84   Section        0  smpc_util.o(i.smpc_recv_pair_rsp_pdu)
    smpc_recv_pair_rsp_pdu                   0x10019a85   Thumb Code   292  smpc_util.o(i.smpc_recv_pair_rsp_pdu)
    i.smpc_recv_public_key_pdu               0x10019bac   Section        0  smpc_util.o(i.smpc_recv_public_key_pdu)
    smpc_recv_public_key_pdu                 0x10019bad   Thumb Code   210  smpc_util.o(i.smpc_recv_public_key_pdu)
    i.smpc_recv_sec_req_pdu                  0x10019ce0   Section        0  smpc_util.o(i.smpc_recv_sec_req_pdu)
    smpc_recv_sec_req_pdu                    0x10019ce1   Thumb Code   124  smpc_util.o(i.smpc_recv_sec_req_pdu)
    i.smpc_recv_sign_info_pdu                0x10019d60   Section        0  smpc_util.o(i.smpc_recv_sign_info_pdu)
    smpc_recv_sign_info_pdu                  0x10019d61   Thumb Code    48  smpc_util.o(i.smpc_recv_sign_info_pdu)
    i.smpc_secure_connections_enabled        0x10019d94   Section        0  smpc.o(i.smpc_secure_connections_enabled)
    i.smpc_security_req_send                 0x10019da4   Section        0  smpc_api.o(i.smpc_security_req_send)
    i.smpc_send_gen_dh_key_cmd               0x10019df8   Section        0  smpc.o(i.smpc_send_gen_dh_key_cmd)
    i.smpc_send_ltk_req_rsp                  0x10019e38   Section        0  smpc.o(i.smpc_send_ltk_req_rsp)
    i.smpc_send_pairing_ind                  0x10019eb0   Section        0  smpc.o(i.smpc_send_pairing_ind)
    i.smpc_send_pairing_req_ind              0x10019f60   Section        0  smpc.o(i.smpc_send_pairing_req_ind)
    i.smpc_send_start_enc_cmd                0x1001a060   Section        0  smpc.o(i.smpc_send_start_enc_cmd)
    i.smpc_send_use_enc_block_cmd            0x1001a0e8   Section        0  smpc.o(i.smpc_send_use_enc_block_cmd)
    i.smpc_sign_command                      0x1001a128   Section        0  smpc_api.o(i.smpc_sign_command)
    i.smpc_sign_cont                         0x1001a210   Section        0  smpc_api.o(i.smpc_sign_cont)
    i.smpc_tkdp_rcp_continue                 0x1001a3e8   Section        0  smpc.o(i.smpc_tkdp_rcp_continue)
    i.smpc_tkdp_rcp_start                    0x1001a4ac   Section        0  smpc.o(i.smpc_tkdp_rcp_start)
    i.smpc_tkdp_send_continue                0x1001a4dc   Section        0  smpc.o(i.smpc_tkdp_send_continue)
    i.smpc_tkdp_send_start                   0x1001a5c0   Section        0  smpc.o(i.smpc_tkdp_send_start)
    i.smpc_xor                               0x1001a5f0   Section        0  smpc.o(i.smpc_xor)
    i.spi_master_init                        0x1001a606   Section        0  driver_spi_master.o(i.spi_master_init)
    i.spi_master_transmit_X1                 0x1001a6a0   Section        0  driver_spi_master.o(i.spi_master_transmit_X1)
    i.system_get_unique_ID                   0x1001a70c   Section        0  sys_utisl.o(i.system_get_unique_ID)
    i.system_reset                           0x1001a7d8   Section        0  uartupgradedev.o(i.system_reset)
    i.system_set_clock                       0x1001a7dc   Section        0  sys_utisl.o(i.system_set_clock)
    i.system_set_port_pull                   0x1001a7ec   Section        0  sys_utisl.o(i.system_set_port_pull)
    i.system_set_tx_power                    0x1001a820   Section        0  sys_utisl.o(i.system_set_tx_power)
    i.system_sleep_disable                   0x1001a8dc   Section        0  sys_utisl.o(i.system_sleep_disable)
    i.t24YLfio68scDIq                        0x1001a8e4   Section        0  zksec.o(i.t24YLfio68scDIq)
    i.t_sprint                               0x1001aa10   Section        0  numtext.o(i.t_sprint)
    i.timer0_isr                             0x1001aa60   Section        0  gui_main.o(i.timer0_isr)
    i.timer1_isr                             0x1001aa7c   Section        0  gui_main.o(i.timer1_isr)
    i.timer_demo                             0x1001aa88   Section        0  gui_main.o(i.timer_demo)
    i.timer_init                             0x1001aad4   Section        0  driver_timer.o(i.timer_init)
    i.timer_int_clear                        0x1001aae8   Section        0  driver_timer.o(i.timer_int_clear)
    i.timer_start                            0x1001aaee   Section        0  driver_timer.o(i.timer_start)
    i.trng_flow_w_specific_smp_cnt           0x1001aaf8   Section        0  trng.o(i.trng_flow_w_specific_smp_cnt)
    trng_flow_w_specific_smp_cnt             0x1001aaf9   Thumb Code   166  trng.o(i.trng_flow_w_specific_smp_cnt)
    i.trng_init                              0x1001aba4   Section        0  trng.o(i.trng_init)
    i.trng_read_rand_num                     0x1001aba8   Section        0  trng.o(i.trng_read_rand_num)
    i.uart_isr_int                           0x1001ac00   Section        0  uartupgradedev.o(i.uart_isr_int)
    i.uart_receive_IT                        0x1001ac16   Section        0  driver_uart_ex.o(i.uart_receive_IT)
    i.uart_transmit                          0x1001ac38   Section        0  driver_uart_ex.o(i.uart_transmit)
    i.ui_main_on_animation_play_end          0x1001ac6e   Section        0  main.o(i.ui_main_on_animation_play_end)
    i.ui_main_on_button_touch_event          0x1001ac70   Section        0  main.o(i.ui_main_on_button_touch_event)
    i.ui_main_on_page_open                   0x1001ac72   Section        0  main.o(i.ui_main_on_page_open)
    i.ui_main_on_progress_changed            0x1001ac74   Section        0  main.o(i.ui_main_on_progress_changed)
    i.ui_main_on_timer                       0x1001ac76   Section        0  main.o(i.ui_main_on_timer)
    i.uitimer_check                          0x1001ac78   Section        0  sdl_timer.o(i.uitimer_check)
    i.uitimer_deinit                         0x1001aca8   Section        0  sdl_timer.o(i.uitimer_deinit)
    i.uitimer_init                           0x1001acac   Section        0  sdl_timer.o(i.uitimer_init)
    i.user_main                              0x1001acf4   Section        0  proj_main.o(i.user_main)
    i.video_deinit                           0x1001ad80   Section        0  sdl_video.o(i.video_deinit)
    i.video_flip                             0x1001ad84   Section        0  sdl_video.o(i.video_flip)
    i.video_init                             0x1001ad90   Section        0  sdl_video.o(i.video_init)
    i.widget_draw_graph                      0x1001ae40   Section        0  widget.o(i.widget_draw_graph)
    i.widget_invalidate                      0x1001ae9c   Section        0  widget.o(i.widget_invalidate)
    i.widget_is_touch_hit                    0x1001aea0   Section        0  widget.o(i.widget_is_touch_hit)
    i.widget_proc                            0x1001aeb8   Section        0  widget.o(i.widget_proc)
    i.window_set_position                    0x1001aee0   Section        0  window.o(i.window_set_position)
    i.xmyYUhnoR49                            0x1001af36   Section        0  zksec.o(i.xmyYUhnoR49)
    xmyYUhnoR49                              0x1001af37   Thumb Code    38  zksec.o(i.xmyYUhnoR49)
    .constdata                               0x1001af5c   Section       20  uartupgradedev.o(.constdata)
    .constdata                               0x1001af70   Section       60  gui_main.o(.constdata)
    .constdata                               0x1001afac   Section       12  driver_flash.o(.constdata)
    .constdata                               0x1001afb8   Section        8  sdl_timer.o(.constdata)
    .constdata                               0x1001afc0   Section       56  dgus_cmd.o(.constdata)
    .constdata                               0x1001aff8   Section       20  ui_context.o(.constdata)
    .constdata                               0x1001b00c   Section        4  app.o(.constdata)
    appm_add_svc_func_list                   0x1001b00c   Data           4  app.o(.constdata)
    .constdata                               0x1001b010   Section       50  sys_utisl.o(.constdata)
    tx_power_cfg_table                       0x1001b024   Data          30  sys_utisl.o(.constdata)
    .constdata                               0x1001b044   Section      168  guicontext.o(.constdata)
    .constdata                               0x1001b0ec   Section      160  app_task.o(.constdata)
    appm_msg_handler_tab                     0x1001b0ec   Data         160  app_task.o(.constdata)
    .constdata                               0x1001b18c   Section       12  app_task.o(.constdata)
    .constdata                               0x1001b198   Section       48  app_sec.o(.constdata)
    .constdata                               0x1001b1c8   Section        8  app_sec.o(.constdata)
    .constdata                               0x1001b1d0   Section       88  gapm.o(.constdata)
    gapm_att_db                              0x1001b1d0   Data          88  gapm.o(.constdata)
    .constdata                               0x1001b228   Section       36  gattm.o(.constdata)
    gattm_att_db                             0x1001b22c   Data          32  gattm.o(.constdata)
    .constdata                               0x1001b24c   Section       56  l2cc_task.o(.constdata)
    l2cc_msg_handler_tab                     0x1001b24c   Data          56  l2cc_task.o(.constdata)
    .constdata                               0x1001b284   Section       12  l2cc_task.o(.constdata)
    .constdata                               0x1001b290   Section      560  zksec.o(.constdata)
    wAFJAfDd                                 0x1001b294   Data           4  zksec.o(.constdata)
    NXfgAnor                                 0x1001b298   Data           4  zksec.o(.constdata)
    aQVFrvaD                                 0x1001b29c   Data           4  zksec.o(.constdata)
    x3NJVhErtYur                             0x1001b2a0   Data         256  zksec.o(.constdata)
    e5J6QCXqR2XLAN                           0x1001b3a0   Data          16  zksec.o(.constdata)
    _s_unb64                                 0x1001b3b0   Data         256  zksec.o(.constdata)
    .constdata                               0x1001b4c0   Section      304  gapc_task.o(.constdata)
    gapc_msg_handler_tab                     0x1001b4c0   Data         304  gapc_task.o(.constdata)
    .constdata                               0x1001b5f0   Section       12  gapc_task.o(.constdata)
    .constdata                               0x1001b5fc   Section      512  gapm_task.o(.constdata)
    gapm_hci_cmd_cmp_event_handler_tab       0x1001b5fc   Data         408  gapm_task.o(.constdata)
    gapm_hci_cmd_stat_event_handler_tab      0x1001b794   Data          24  gapm_task.o(.constdata)
    gapm_hci_le_event_handler_tab            0x1001b7ac   Data          80  gapm_task.o(.constdata)
    .constdata                               0x1001b7fc   Section      248  gapm_task.o(.constdata)
    gapm_msg_handler_tab                     0x1001b7fc   Data         248  gapm_task.o(.constdata)
    .constdata                               0x1001b8f4   Section       12  gapm_task.o(.constdata)
    .constdata                               0x1001b900   Section       25  smpc.o(.constdata)
    smpc_pair_method                         0x1001b900   Data          25  smpc.o(.constdata)
    .constdata                               0x1001b91c   Section      140  atts.o(.constdata)
    atts_rights                              0x1001b91c   Data          36  atts.o(.constdata)
    .constdata                               0x1001b9a8   Section      224  gattc_task.o(.constdata)
    gattc_msg_handler_tab                    0x1001b9a8   Data         224  gattc_task.o(.constdata)
    .constdata                               0x1001ba88   Section       12  gattc_task.o(.constdata)
    .constdata                               0x1001ba94   Section        8  gattm_task.o(.constdata)
    gattm_msg_handler_tab                    0x1001ba94   Data           8  gattm_task.o(.constdata)
    .constdata                               0x1001ba9c   Section       12  gattm_task.o(.constdata)
    .constdata                               0x1001baa8   Section      276  l2cc_pdu.o(.constdata)
    l2cc_signaling_pkt_format                0x1001baa8   Data          92  l2cc_pdu.o(.constdata)
    l2cc_security_pkt_format                 0x1001bb04   Data          60  l2cc_pdu.o(.constdata)
    l2cc_attribute_pkt_format                0x1001bb40   Data         124  l2cc_pdu.o(.constdata)
    .constdata                               0x1001bbbc   Section       24  l2cc_sig.o(.constdata)
    .constdata                               0x1001bbd4   Section      216  gapc_hci.o(.constdata)
    hci_cmd_cmp_event_handler_tab            0x1001bbd4   Data          72  gapc_hci.o(.constdata)
    hci_cmd_stat_event_handler_tab           0x1001bc1c   Data          48  gapc_hci.o(.constdata)
    hci_le_event_handler_tab                 0x1001bc4c   Data          56  gapc_hci.o(.constdata)
    hci_event_handler_tab                    0x1001bc84   Data          40  gapc_hci.o(.constdata)
    .constdata                               0x1001bcac   Section       24  gapc_sig.o(.constdata)
    .constdata                               0x1001bcc4   Section       60  smpc_util.o(.constdata)
    .constdata                               0x1001bd00   Section       60  smpc_util.o(.constdata)
    .constdata                               0x1001bd3c   Section      112  attc.o(.constdata)
    .conststring                             0x1001bdac   Section        4  gap_api.o(.conststring)
    .conststring                             0x1001bdb0   Section        3  gap_api.o(.conststring)
    .conststring                             0x1001bdb4   Section        7  gap_api.o(.conststring)
    .conststring                             0x1001bdbc   Section        5  gatt_api.o(.conststring)
    .conststring                             0x1001bdc4   Section      153  zksec.o(.conststring)
    .conststring                             0x1001be60   Section       47  mesh_api.o(.conststring)
    .conststring                             0x1001be90   Section      106  l2cc_pdu.o(.conststring)
    RESET                                    0x11000000   Section      160  boot_vectors.o(RESET)
    Long Thumb to Thumb Veneer to __NVIC_EnableIRQ 0x11001015   Thumb Code    10  anon$$obj.o(Veneer$$Code)
    Long Thumb to Thumb Veneer to __NVIC_ClearPendingIRQ 0x11001047   Thumb Code    10  anon$$obj.o(Veneer$$Code)
    Long Thumb to Thumb Veneer to LCD_WR_REG 0x1100117d   Thumb Code    10  anon$$obj.o(Veneer$$Code)
    Long Thumb to Thumb Veneer to LCD_startWriteMutileData 0x11001187   Thumb Code    10  anon$$obj.o(Veneer$$Code)
    Long Thumb to Thumb Veneer to LCD_endWriteMutileData 0x11001191   Thumb Code    10  anon$$obj.o(Veneer$$Code)
    ram_code                                 0x11001208   Section        0  proj_main.o(ram_code)
    ram_code                                 0x11001284   Section        0  uartupgradedev.o(ram_code)
    ram_code                                 0x110012e4   Section        0  driver_flash.o(ram_code)
    ram_code                                 0x110014a4   Section        0  driver_pmu.o(ram_code)
    ram_code                                 0x11001604   Section        0  entry.o(ram_code)
    ram_code                                 0x11001758   Section        0  sys_utisl.o(ram_code)
    ram_code                                 0x11001d40   Section        0  patch_rf.o(ram_code)
    rf_init_api_null                         0x11001d41   Thumb Code     2  patch_rf.o(ram_code)
    rf_init_api_rssi_convert                 0x11001d43   Thumb Code     4  patch_rf.o(ram_code)
    ram_code                                 0x11001f38   Section        0  patch_frspim.o(ram_code)
    ram_code                                 0x11001ff0   Section        0  sdl_gfx.o(ram_code)
    ram_code                                 0x1100241c   Section        0  adv_check_mode.o(ram_code)
    ram_code                                 0x11002998   Section        0  patch_lld.o(ram_code)
    ram_code                                 0x11002a78   Section        0  patch_rwip.o(ram_code)
    ram_code                                 0x11002b30   Section        0  rect.o(ram_code)
    ram_code                                 0x11002c30   Section        0  resource.o(ram_code)
    _resource_internal_read                  0x11002c79   Thumb Code    22  resource.o(ram_code)
    ram_code                                 0x11002c98   Section        0  zksec.o(ram_code)
    eqr4EzQ9                                 0x11002c99   Thumb Code   108  zksec.o(ram_code)
    G3b61UV4                                 0x11002d05   Thumb Code   224  zksec.o(ram_code)
    vFjjTyMa                                 0x11002de5   Thumb Code    98  zksec.o(ram_code)
    .data                                    0x11002e5c   Section       16  uartupgradedev.o(.data)
    ticks                                    0x11002e64   Data           4  uartupgradedev.o(.data)
    upgradeindex                             0x11002e68   Data           4  uartupgradedev.o(.data)
    .data                                    0x11002e6c   Section       40  gui_main.o(.data)
    tick5ms                                  0x11002e70   Data           4  gui_main.o(.data)
    tick10ms                                 0x11002e74   Data           4  gui_main.o(.data)
    tick50ms                                 0x11002e78   Data           4  gui_main.o(.data)
    tick100ms                                0x11002e7c   Data           4  gui_main.o(.data)
    tick500ms                                0x11002e80   Data           4  gui_main.o(.data)
    systick                                  0x11002e84   Data           4  gui_main.o(.data)
    .data                                    0x11002e94   Section        4  sdl_video.o(.data)
    .data                                    0x11002e98   Section        8  sdl_timer.o(.data)
    s_last_ticks_10ms                        0x11002e98   Data           4  sdl_timer.o(.data)
    s_ticks_count_10ms                       0x11002e9c   Data           4  sdl_timer.o(.data)
    .data                                    0x11002ea0   Section        2  dgus_cmd.o(.data)
    .data                                    0x11002ea4   Section        8  message.o(.data)
    s_mq                                     0x11002ea4   Data           8  message.o(.data)
    .data                                    0x11002eac   Section        8  gap_api.o(.data)
    .data                                    0x11002eb4   Section        4  gap_api.o(.data)
    .data                                    0x11002eb8   Section        1  gap_api.o(.data)
    .data                                    0x11002ebc   Section        4  gap_api.o(.data)
    .data                                    0x11002ec0   Section        1  gap_api.o(.data)
    .data                                    0x11002ec4   Section       24  gatt_api.o(.data)
    registed_num                             0x11002ec5   Data           1  gatt_api.o(.data)
    client_idx                               0x11002ec6   Data           1  gatt_api.o(.data)
    gatt_profile_task_count                  0x11002ec7   Data           1  gatt_api.o(.data)
    gatt_service_cbs                         0x11002ecc   Data          16  gatt_api.o(.data)
    .data                                    0x11002edc   Section       12  app.o(.data)
    .data                                    0x11002ee8   Section        8  entry.o(.data)
    init_rf                                  0x11002ee8   Data           1  entry.o(.data)
    current_status                           0x11002eea   Data           2  entry.o(.data)
    cpu_sr                                   0x11002eec   Data           4  entry.o(.data)
    .data                                    0x11002ef0   Section       12  jump_table_host.o(.data)
    sram_end                                 0x11002ef0   Data           4  jump_table_host.o(.data)
    static_mem_end                           0x11002ef8   Data           4  jump_table_host.o(.data)
    .data                                    0x11002efc   Section        2  sys_utisl.o(.data)
    lu8_Backup_Full_Long                     0x11002efc   Data           1  sys_utisl.o(.data)
    check_count                              0x11002efd   Data           1  sys_utisl.o(.data)
    .data                                    0x11002f00   Section       16  os_timer.o(.data)
    timer_list                               0x11002f04   Data           4  os_timer.o(.data)
    timer_id_flag                            0x11002f08   Data           8  os_timer.o(.data)
    .data                                    0x11002f10   Section      340  patch_rf.o(.data)
    .data                                    0x11003064   Section       12  fy_mem.o(.data)
    full_defrag_cnt                          0x11003064   Data           1  fy_mem.o(.data)
    _s_mem_ptr                               0x11003068   Data           4  fy_mem.o(.data)
    memsize                                  0x1100306c   Data           4  fy_mem.o(.data)
    .data                                    0x11003070   Section        8  sdl_gfx.o(.data)
    .data                                    0x11003078   Section       64  guicontext.o(.data)
    s_cur_page                               0x11003078   Data           1  guicontext.o(.data)
    guiinit                                  0x11003079   Data           1  guicontext.o(.data)
    s_root_window                            0x11003084   Data           4  guicontext.o(.data)
    s_touch_widget                           0x11003088   Data           4  guicontext.o(.data)
    m                                        0x110030a8   Data           8  guicontext.o(.data)
    m                                        0x110030b0   Data           8  guicontext.o(.data)
    .data                                    0x110030b8   Section        4  app_task.o(.data)
    tmp_dest_id                              0x110030b8   Data           2  app_task.o(.data)
    tmp_src_id                               0x110030ba   Data           2  app_task.o(.data)
    .data                                    0x110030bc   Section        1  app_task.o(.data)
    .data                                    0x110030be   Section       20  app_conn.o(.data)
    .data                                    0x110030d2   Section        8  app_conn.o(.data)
    gattc_seq_num                            0x110030d2   Data           1  app_conn.o(.data)
    .data                                    0x110030dc   Section       20  user_bond_manage.o(.data)
    MAX_BOND_DEV_NUM                         0x110030dc   Data           1  user_bond_manage.o(.data)
    bond_manage_enable                       0x110030dd   Data           1  user_bond_manage.o(.data)
    last_sotre_idx                           0x110030df   Data           1  user_bond_manage.o(.data)
    gap_bond_info_env                        0x110030e0   Data           4  user_bond_manage.o(.data)
    gap_bond_irks_env                        0x110030e4   Data           4  user_bond_manage.o(.data)
    ble_bond_falsh_addr                      0x110030e8   Data           4  user_bond_manage.o(.data)
    ble_svc_falsh_addr                       0x110030ec   Data           4  user_bond_manage.o(.data)
    .data                                    0x110030f0   Section       16  app_sec.o(.data)
    fix_ltk                                  0x110030f1   Data           1  app_sec.o(.data)
    sec_cmd                                  0x110030f4   Data          12  app_sec.o(.data)
    .data                                    0x11003100   Section       86  adv_check_mode.o(.data)
    send_ptr                                 0x11003102   Data           2  adv_check_mode.o(.data)
    frq_freq_table                           0x11003104   Data          40  adv_check_mode.o(.data)
    calib_freq_table                         0x1100312c   Data          42  adv_check_mode.o(.data)
    .data                                    0x11003158   Section        4  l2cc_task.o(.data)
    .data                                    0x1100315c   Section        8  prf.o(.data)
    .data                                    0x11003164   Section        4  patch_lld.o(.data)
    lld_disable_latency_label                0x11003164   Data           4  patch_lld.o(.data)
    .data                                    0x11003168   Section        4  widget.o(.data)
    .data                                    0x1100316c   Section        2  widget.o(.data)
    .data                                    0x11003170   Section        4  resource.o(.data)
    .data                                    0x11003174   Section       12  zksec.o(.data)
    Vae2ra8scDIq                             0x11003174   Data           1  zksec.o(.data)
    _s_b64                                   0x11003178   Data           4  zksec.o(.data)
    .data                                    0x11003180   Section       40  mesh_api.o(.data)
    app_mesh_model_add_step                  0x11003180   Data           1  mesh_api.o(.data)
    mesh_model_nb                            0x11003181   Data           1  mesh_api.o(.data)
    mesh_tx_hdl                              0x11003182   Data           1  mesh_api.o(.data)
    mesh_callback                            0x11003198   Data           4  mesh_api.o(.data)
    .data                                    0x110031a8   Section        1  gapm_task.o(.data)
    .data                                    0x110031a9   Section        1  gattm_task.o(.data)
    .data                                    0x110031ac   Section        4  m_tb_state.o(.data)
    p_m_tb_state_env                         0x110031ac   Data           4  m_tb_state.o(.data)
    .data                                    0x110031b0   Section        2  gapm_scan.o(.data)
    length_sum                               0x110031b0   Data           2  gapm_scan.o(.data)
    .data                                    0x110031b4   Section       10  m_al_task.o(.data)
    stack_section                            0x110031c0   Section     2048  proj_main.o(stack_section)
    system_stack                             0x110031c0   Data        2048  proj_main.o(stack_section)
    .bss                                     0x110039c0   Section     5804  uartupgradedev.o(.bss)
    headtab                                  0x110039c0   Data          18  uartupgradedev.o(.bss)
    upgradebuff                              0x11003a18   Data        4096  uartupgradedev.o(.bss)
    rxbuff                                   0x11004a18   Data         800  uartupgradedev.o(.bss)
    .bss                                     0x1100506c   Section     3584  gui_main.o(.bss)
    .bss                                     0x11005e6c   Section      104  sdl_video.o(.bss)
    GPIO_Handle                              0x11005ec4   Data          16  sdl_video.o(.bss)
    .bss                                     0x11005ed4   Section     2364  gatt_api.o(.bss)
    gatt_svc_list                            0x11005ed4   Data        2240  gatt_api.o(.bss)
    gClientDB                                0x11006794   Data         124  gatt_api.o(.bss)
    .bss                                     0x11006810   Section      224  app.o(.bss)
    .bss                                     0x110068f0   Section      380  jump_table_host.o(.bss)
