Component: ARM Compiler 5.06 update 6 (build 750) Tool: armlink [4d35ed]

==============================================================================

Section Cross References

    proj_main.o(i.proj_ble_gap_evt_func) refers to co_log.o(i.log_printf_level) for log_printf_level
    proj_main.o(i.proj_ble_gap_evt_func) refers to co_log.o(i.log_printf) for log_printf
    proj_main.o(i.proj_ble_gap_evt_func) refers to gap_api.o(i.gap_get_connect_num) for gap_get_connect_num
    proj_main.o(i.proj_ble_gap_evt_func) refers to gap_api.o(i.gap_conn_param_update) for gap_conn_param_update
    proj_main.o(i.proj_ble_gap_evt_func) refers to gap_api.o(i.gap_security_req) for gap_security_req
    proj_main.o(i.proj_ble_gap_evt_func) refers to gap_api.o(i.gap_start_advertising) for gap_start_advertising
    proj_main.o(i.proj_ble_gap_evt_func) refers to proj_main.o(.data) for .data
    proj_main.o(i.proj_init) refers to co_log.o(i.log_printf_level) for log_printf_level
    proj_main.o(i.proj_init) refers to co_log.o(i.log_printf) for log_printf
    proj_main.o(i.proj_init) refers to ble_simple_peripheral.o(i.simple_peripheral_init) for simple_peripheral_init
    proj_main.o(i.proj_init) refers to proj_main.o(.data) for .data
    proj_main.o(i.user_main) refers to printfa.o(i.__0printf) for __2printf
    proj_main.o(i.user_main) refers to driver_pmu.o(i.pmu_sub_init) for pmu_sub_init
    proj_main.o(i.user_main) refers to driver_pmu.o(ram_code) for pmu_ioldosw_ctrl
    proj_main.o(i.user_main) refers to co_log.o(i.log_printf_level) for log_printf_level
    proj_main.o(i.user_main) refers to co_log.o(i.log_printf) for log_printf
    proj_main.o(i.user_main) refers to sys_utisl.o(i.system_set_clock) for system_set_clock
    proj_main.o(i.user_main) refers to co_log.o(i.log_init) for log_init
==============================================================================

Removing Unused input sections from the image.

    Removing proj_main.o(.rev16_text), (4 bytes).
    Removing proj_main.o(.revsh_text), (4 bytes).
    Removing proj_main.o(.rrx_text), (6 bytes).
    Removing proj_main.o(i.proj_ble_gap_evt_func), (896 bytes).
    Removing proj_main.o(.data), (1 bytes).
    Removing prf_client.o(i.client_msg_handler), (180 bytes).
    Removing prf_client.o(i.prf_client_create), (40 bytes).
    Removing prf_client.o(.constdata), (34 bytes).
    Removing prf_client.o(.data), (1 bytes).
    Removing prf_server.o(.rev16_text), (4 bytes).
    Removing prf_server.o(.revsh_text), (4 bytes).
    Removing prf_server.o(.rrx_text), (6 bytes).
    Removing prf_server.o(i.prf_server_create), (68 bytes).
    Removing prf_server.o(i.svc1_msg_handler), (36 bytes).
    Removing prf_server.o(i.svc_msg_handler), (192 bytes).
    Removing prf_server.o(.bss), (20 bytes).
    Removing prf_server.o(.constdata), (17 bytes).
    Removing prf_server.o(.constdata), (336 bytes).
==============================================================================

Adding Veneers to the image

    Adding TT veneer (10 bytes, Long) for call to 'CPU_SR_Save' from zksec.o(i.FyG6GBeJ0lVg).
    Adding TT veneer (10 bytes, Long) for call to 'qspi_stig_cmd' from zksec.o(i.FyG6GBeJ0lVg).
    Adding TT veneer (10 bytes, Long) for call to 'CPU_SR_Restore' from zksec.o(i.FyG6GBeJ0lVg).
    Adding TT veneer (10 bytes, Long) for call to 'memcmp' from zksec.o(i.FyG6GBeJ0lVg).
    Adding TT veneer (10 bytes, Long) for call to 'co_delay_10us' from uartupgradedev.o(i.HAL_Delay).
    Adding TT veneer (10 bytes, Long) for call to '__aeabi_memclr' from ring.o(i.InitQueue).
    Adding TT veneer (10 bytes, Long) for call to 'flash_read_id' from zksec.o(i.RRnQEZ5CzfNbBxz).
    Adding TT veneer (10 bytes, Long) for call to '__aeabi_memcpy4' from guicontext.o(i._do_widget_proc).
    Adding TT veneer (10 bytes, Long) for call to 'rect_is_hit' from label.o(i._draw_font_graph).
    Adding TT veneer (10 bytes, Long) for call to 'resource_read' from label.o(i._get_code_data_offset).
    Adding TT veneer (10 bytes, Long) for call to '__aeabi_memclr4' from guicontext.o(i._load_page).
    Adding TT veneer (10 bytes, Long) for call to '__aeabi_memcpy' from guicontext.o(i._proc_widget_refresh).
    Adding TT veneer (10 bytes, Long) for call to 'ke_state_set' from app_proj_event.o(i.app_act_created_ind_func).
    Adding TT veneer (10 bytes, Long) for call to 'system_set_port_mux' from entry.o(i.app_main).
    Adding TT veneer (10 bytes, Long) for call to 'app_boot_get_storage_type' from entry.o(i.app_main).
    Adding TT veneer (10 bytes, Long) for call to 'flash_read_status' from entry.o(i.app_main).
    Adding TT veneer (10 bytes, Long) for call to 'flash_write_status' from entry.o(i.app_main).
    Adding TT veneer (10 bytes, Long) for call to 'pmu_set_ioldo_ref_sel' from entry.o(i.app_main).
    Adding TT veneer (10 bytes, Long) for call to 'co_delay_100us' from entry.o(i.app_main).
    Adding TT veneer (10 bytes, Long) for call to 'intc_init' from entry.o(i.app_main).
    Adding TT veneer (10 bytes, Long) for call to 'srand' from entry.o(i.app_main).
    Adding TT veneer (10 bytes, Long) for call to 'ke_free' from app.o(i.appm_adv_recv_gapm_cmp).
    Adding TT veneer (10 bytes, Long) for call to 'ke_msg_alloc' from app.o(i.appm_create_aux_adv_act).
    Adding TT veneer (10 bytes, Long) for call to 'ke_msg_send' from app.o(i.appm_create_aux_adv_act).
    Adding TT veneer (10 bytes, Long) for call to 'co_list_pop_front' from app.o(i.appm_exc_activity_cmp).
    Adding TT veneer (10 bytes, Long) for call to 'ke_malloc' from app.o(i.appm_execute_activity_cmd).
    Adding TT veneer (10 bytes, Long) for call to 'co_list_push_back' from app.o(i.appm_execute_activity_cmd).
    Adding TT veneer (10 bytes, Long) for call to 'co_list_init' from app.o(i.appm_init_imp).
    Adding TT veneer (10 bytes, Long) for call to 'ke_task_create' from app.o(i.appm_init_imp).
    Adding TT veneer (10 bytes, Long) for call to 'ke_timer_clear' from attc.o(i.attc_l2cc_pdu_recv_handler).
    Adding TT veneer (10 bytes, Long) for call to 'ke_timer_set' from attc.o(i.attc_send_att_req).
    Adding TT veneer (10 bytes, Long) for call to 'ke_msg_free' from attc.o(i.attc_send_read_ind).
    Adding TT veneer (10 bytes, Long) for call to 'co_list_size' from atts.o(i.atts_find_by_type_req).
    Adding TT veneer (10 bytes, Long) for call to 'ke_state_get' from atts.o(i.atts_l2cc_pdu_recv_handler).
    Adding TT veneer (10 bytes, Long) for call to 'co_list_push_front' from atts.o(i.atts_prepare_write_req).
    Adding TT veneer (10 bytes, Long) for call to 'co_list_insert_before' from atts.o(i.atts_store_prep_data).
    Adding TT veneer (10 bytes, Long) for call to 'co_printf' from user_bond_manage.o(i.ble_bond_get_info).
    Adding TT veneer (10 bytes, Long) for call to 'flash_read' from user_bond_manage.o(i.ble_bond_read_info_from_flash).
    Adding TT veneer (10 bytes, Long) for call to 'flash_erase' from user_bond_manage.o(i.ble_bond_write_info_to_flash).
    Adding TT veneer (10 bytes, Long) for call to 'flash_write' from user_bond_manage.o(i.ble_bond_write_info_to_flash).
    Adding TT veneer (10 bytes, Long) for call to 'em_ble_generate_base_address_table' from jump_table_host.o(i.ble_stack_configure).
    Adding TT veneer (10 bytes, Long) for call to 'ble_util_buf_init_env' from jump_table_host.o(i.ble_stack_configure).
    Adding TT veneer (10 bytes, Long) for call to 'llm_init_act_info_buf' from jump_table_host.o(i.ble_stack_configure).
    Adding TT veneer (10 bytes, Long) for call to 'rwip_init' from app.o(i.ble_stack_init).
    Adding TT veneer (10 bytes, Long) for call to 'GLOBAL_INT_START' from app.o(i.ble_stack_init).
    Adding TT veneer (10 bytes, Long) for call to 'rwip_schedule' from app.o(i.ble_stack_init).
    Adding TT veneer (10 bytes, Long) for call to 'vFjjTyMa' from zksec.o(i.dxjW68jVf0X_q).
    Adding TT veneer (10 bytes, Long) for call to 'G3b61UV4' from zksec.o(i.dxjW68jVf0X_q).
    Adding TT veneer (10 bytes, Long) for call to 'rand' from app_sec.o(i.gapc_bond_req_ind_handler).
    Adding TT veneer (10 bytes, Long) for call to 'hci_send_2_controller' from gapc_task.o(i.gapc_disconnect_cmd_handler).
    Adding TT veneer (10 bytes, Long) for call to 'ke_msg_src_id_get' from gapc.o(i.gapc_get_requester).
    Adding TT veneer (10 bytes, Long) for call to 'ke_timer_active' from gapc_task.o(i.gapc_key_press_notification_cmd_handler).
    Adding TT veneer (10 bytes, Long) for call to 'ke_msg_in_queue' from gapc.o(i.gapc_operation_cleanup).
    Adding TT veneer (10 bytes, Long) for call to 'ke_msg_forward' from gapc.o(i.gapc_reschedule_operation).
    Adding TT veneer (10 bytes, Long) for call to 'hci_basic_cmd_send_2_controller' from gapm_cfg.o(i.gapm_get_dev_info_cmd_handler).
    Adding TT veneer (10 bytes, Long) for call to 'platform_reset' from gapm_cfg.o(i.gapm_reset_cmd_handler).
    Adding TT veneer (10 bytes, Long) for call to 'aes_encrypt' from gapm_smp.o(i.gapm_smp_encrypt_req).
    Adding TT veneer (10 bytes, Long) for call to 'aes_rand' from gapm_smp.o(i.gapm_smp_rand_req).
    Adding TT veneer (10 bytes, Long) for call to 'ke_check_malloc' from gattc_task.o(i.gattc_cmp_evt_handler).
    Adding TT veneer (10 bytes, Long) for call to 'co_list_extract' from gattc_task.o(i.gattc_reg_to_peer_evt_cmd_handler).
    Adding TT veneer (10 bytes, Long) for call to 'ke_msg_send_basic' from gattc_task.o(i.gattc_timeout_handler).
    Adding TT veneer (10 bytes, Long) for call to 'rect_does_intersect' from guicontext.o(i.gui_context_invalidate).
    Adding TT veneer (10 bytes, Long) for call to 'ble_util_buf_rx_free' from l2cc_task.o(i.hci_acl_data_handler).
    Adding TT veneer (10 bytes, Long) for call to 'ke_event_set' from l2cc_task.o(i.hci_nb_cmp_pkts_evt_handler).
    Adding TT veneer (10 bytes, Long) for call to 'rect_intersect' from imgtext_scroll.o(i.imagetext_set_scroll).
    Adding TT veneer (10 bytes, Long) for call to '__aeabi_memset' from jump_table_host.o(i.jump_table_memmory_init).
    Adding TT veneer (10 bytes, Long) for call to 'ke_mem_init' from jump_table_host.o(i.jump_table_memmory_init).
    Adding TT veneer (10 bytes, Long) for call to 'ble_util_buf_acl_tx_alloc' from l2cc.o(i.l2cc_data_send).
    Adding TT veneer (10 bytes, Long) for call to 'ble_util_buf_acl_tx_free' from l2cc.o(i.l2cc_data_send).
    Adding TT veneer (10 bytes, Long) for call to 'ke_event_callback_set' from l2cm.o(i.l2cm_init).
    Adding TT veneer (10 bytes, Long) for call to 'ke_event_clear' from l2cm.o(i.l2cm_init).
    Adding TT veneer (10 bytes, Long) for call to 'frspim_rd' from driver_pmu.o(i.lvd_threshold).
    Adding TT veneer (10 bytes, Long) for call to 'frspim_wr' from driver_pmu.o(i.lvd_threshold).
    Adding TT veneer (10 bytes, Long) for call to '_resource_internal_read' from resource.o(i.pKKFrMQUHba).
    Adding TT veneer (10 bytes, Long) for call to 'pmu_clear_isr_state' from sys_utisl.o(i.pmu_calibration_restart).
    Adding TT veneer (10 bytes, Long) for call to 'flash_OTP_read' from driver_pmu.o(i.pmu_ft_trim_config).
    Adding TT veneer (10 bytes, Long) for call to 'pmu_enable_isr' from driver_pmu.o(i.pmu_lvd_en).
    Adding TT veneer (10 bytes, Long) for call to 'system_osc_doubler_calibration' from driver_pmu.o(i.pmu_sub_init).
    Adding TT veneer (10 bytes, Long) for call to 'pmu_calibration_start' from driver_pmu.o(i.pmu_sub_init).
    Adding TT veneer (10 bytes, Long) for call to 'pmu_get_rc_clk' from driver_pmu.o(i.pmu_sub_init).
    Adding TT veneer (10 bytes, Long) for call to 'pmu_calibration_stop' from driver_pmu.o(i.pmu_sub_init).
    Adding TT veneer (10 bytes, Long) for call to 'ke_task_msg_flush' from prf.o(i.prf_init).
    Adding TT veneer (10 bytes, Long) for call to 'fy_flash_erase_block' from uartupgradedev.o(i.processUpgrade).
    Adding TT veneer (10 bytes, Long) for call to 'system_get_pclk' from sys_utisl.o(i.system_get_clock).
    Adding TT veneer (10 bytes, Long) for call to 'system_set_pclk' from sys_utisl.o(i.system_set_clock).
    Adding TT veneer (10 bytes, Long) for call to 'rwip_prevent_sleep_set' from sys_utisl.o(i.system_sleep_disable).
    Adding TT veneer (10 bytes, Long) for call to 'pmu_ioldosw_ctrl' from proj_main.o(i.user_main).
    Adding TT veneer (10 bytes, Long) for call to 'system_enable_internal_flash_q_read' from proj_main.o(i.user_main).
    Adding TT veneer (10 bytes, Long) for call to 'system_set_internal_flash_clock_div' from proj_main.o(i.user_main).
    Adding TT veneer (10 bytes, Long) for call to 'ble_stack_schedule_allow' from proj_main.o(i.vTask1).
    Adding TT veneer (10 bytes, Long) for call to 'ble_stack_schedule' from proj_main.o(i.vTask1).
    Adding TT veneer (10 bytes, Long) for call to 'ble_stack_schedule_backward' from proj_main.o(i.vTask1).
    Adding TT veneer (10 bytes, Long) for call to 'rect_is_equal' from window.o(i.window_set_position).
    Adding TT veneer (10 bytes, Long) for call to 'uart_putc_noint_no_wait' from proj_main.o(ram_code).
    Adding TT veneer (10 bytes, Long) for call to 'log_init' from proj_main.o(ram_code).
    Adding TT veneer (10 bytes, Long) for call to 'disableDisplay' from uartupgradedev.o(ram_code).
    Adding TT veneer (10 bytes, Long) for call to 'EnQueueSignal' from uartupgradedev.o(ram_code).
    Adding TT veneer (10 bytes, Long) for call to 'CPU_SR_Save' from driver_flash.o(ram_code).
    Adding TT veneer (10 bytes, Long) for call to 'qspi_stig_cmd' from driver_flash.o(ram_code).
    Adding TT veneer (10 bytes, Long) for call to 'CPU_SR_Restore' from driver_flash.o(ram_code).
    Adding TT veneer (10 bytes, Long) for call to 'co_delay_10us' from driver_flash.o(ram_code).
    Adding TT veneer (10 bytes, Long) for call to 'pmu_get_isr_state' from driver_pmu.o(ram_code).
    Adding TT veneer (10 bytes, Long) for call to 'pmu_calibration_restart' from driver_pmu.o(ram_code).
    Adding TT veneer (10 bytes, Long) for call to 'pmu_gpio_isr' from driver_pmu.o(ram_code).
    Adding TT veneer (10 bytes, Long) for call to 'rwip_schedule' from entry.o(ram_code).
    Adding TT veneer (10 bytes, Long) for call to 'rwip_sleep' from entry.o(ram_code).
    Adding TT veneer (10 bytes, Long) for call to 'rwip_us_2_lpcycles' from entry.o(ram_code).
    Adding TT veneer (10 bytes, Long) for call to 'pmu_reset_internal_cnt' from entry.o(ram_code).
    Adding TT veneer (10 bytes, Long) for call to 'low_power_save' from entry.o(ram_code).
    Adding TT veneer (10 bytes, Long) for call to 'low_power_restore' from entry.o(ram_code).
    Adding TT veneer (10 bytes, Long) for call to 'co_delay_100us' from entry.o(ram_code).
    Adding TT veneer (10 bytes, Long) for call to 'flash_read_status' from entry.o(ram_code).
    Adding TT veneer (10 bytes, Long) for call to 'flash_write_status_volatile' from entry.o(ram_code).
    Adding TT veneer (10 bytes, Long) for call to 'rwip_sleep_mul_64' from entry.o(ram_code).
    Adding TT veneer (10 bytes, Long) for call to 'rwip_sleep_div_64' from entry.o(ram_code).
    Adding TT veneer (10 bytes, Long) for call to 'flash_wait_wip_clear' from sys_utisl.o(ram_code).
    Adding TT veneer (10 bytes, Long) for call to 'flash_set_read_quad' from sys_utisl.o(ram_code).
    Adding TT veneer (10 bytes, Long) for call to 'rwip_prevent_sleep_set' from sys_utisl.o(ram_code).
    Adding TT veneer (10 bytes, Long) for call to 'rwip_prevent_sleep_clear' from sys_utisl.o(ram_code).
    Adding TT veneer (10 bytes, Long) for call to 'fr_uart_init' from sys_utisl.o(ram_code).
    Adding TT veneer (10 bytes, Long) for call to 'fr_uart_setBaudrate' from sys_utisl.o(ram_code).
    Adding TT veneer (10 bytes, Long) for call to 'fr_uart_setLineControl' from sys_utisl.o(ram_code).
    Adding TT veneer (10 bytes, Long) for call to 'fr_uart_enableFifos' from sys_utisl.o(ram_code).
    Adding TT veneer (10 bytes, Long) for call to 'uart_flush_rxfifo_noint' from sys_utisl.o(ram_code).
    Adding TT veneer (10 bytes, Long) for call to 'rf_init_api' from patch_rf.o(ram_code).
    Adding TT veneer (10 bytes, Long) for call to 'rf_em_init' from patch_rf.o(ram_code).
    Adding TT veneer (10 bytes, Long) for call to 'rf_init_controller' from patch_rf.o(ram_code).
    Adding TT veneer (10 bytes, Long) for call to 'rwip_isr' from patch_rf.o(ram_code).
    Adding TT veneer (10 bytes, Long) for call to 'LCD_Set_Window' from sdl_gfx.o(ram_code).
    Adding TT veneer (10 bytes, Long) for call to 'LCD_WR_REG' from sdl_gfx.o(ram_code).
    Adding TT veneer (10 bytes, Long) for call to 'LCD_startWriteMutileData' from sdl_gfx.o(ram_code).
    Adding TT veneer (10 bytes, Long) for call to 'LCD_endWriteMutileData' from sdl_gfx.o(ram_code).
    Adding TT veneer (10 bytes, Long) for call to 'ble_util_buf_acl_tx_alloc' from adv_check_mode.o(ram_code).
    Adding TT veneer (10 bytes, Long) for call to '__aeabi_memcpy' from adv_check_mode.o(ram_code).
    Adding TT veneer (10 bytes, Long) for call to 'lld_read_clock' from adv_check_mode.o(ram_code).
    Adding TT veneer (10 bytes, Long) for call to 'calib_meter_recv_msg' from adv_check_mode.o(ram_code).
    Adding TT veneer (10 bytes, Long) for call to 'lld_rxdesc_check' from adv_check_mode.o(ram_code).
    Adding TT veneer (10 bytes, Long) for call to 'ble_util_buf_acl_tx_free' from adv_check_mode.o(ram_code).
    Adding TT veneer (10 bytes, Long) for call to 'llm_activity_free_set' from adv_check_mode.o(ram_code).
    Adding TT veneer (10 bytes, Long) for call to 'calib_meter_evt_end' from adv_check_mode.o(ram_code).
    Adding TT veneer (10 bytes, Long) for call to 'llm_activity_free_get' from adv_check_mode.o(ram_code).
    Adding TT veneer (10 bytes, Long) for call to 'rwip_time_get' from patch_rwip.o(ram_code).
    Adding TT veneer (10 bytes, Long) for call to 'flash_read' from resource.o(ram_code).

143 Veneer(s) (total 1430 bytes) added to the image.

==============================================================================

Image Symbol Table

    Local Symbols

    Symbol Name                              Value     Ov Type        Size  Object(Section)

    ../clib/microlib/division.c              0x00000000   Number         0  uldiv.o ABSOLUTE
    ../clib/microlib/division.c              0x00000000   Number         0  uidiv.o ABSOLUTE
    ../clib/microlib/longlong.c              0x00000000   Number         0  llushr.o ABSOLUTE
    ../clib/microlib/longlong.c              0x00000000   Number         0  llsshr.o ABSOLUTE
    ../clib/microlib/longlong.c              0x00000000   Number         0  llshl.o ABSOLUTE
    ../clib/microlib/printf/printf.c         0x00000000   Number         0  printf7.o ABSOLUTE
    ../clib/microlib/printf/printf.c         0x00000000   Number         0  printf5.o ABSOLUTE
    ../clib/microlib/printf/printf.c         0x00000000   Number         0  printfa.o ABSOLUTE
    ../clib/microlib/printf/printf.c         0x00000000   Number         0  printfb.o ABSOLUTE
    ../clib/microlib/printf/printf.c         0x00000000   Number         0  printf0.o ABSOLUTE
    ../clib/microlib/printf/printf.c         0x00000000   Number         0  printf6.o ABSOLUTE
    ../clib/microlib/printf/printf.c         0x00000000   Number         0  printf2.o ABSOLUTE
    ../clib/microlib/printf/printf.c         0x00000000   Number         0  printf3.o ABSOLUTE
    ../clib/microlib/printf/printf.c         0x00000000   Number         0  printf1.o ABSOLUTE
    ../clib/microlib/printf/printf.c         0x00000000   Number         0  printf8.o ABSOLUTE
    ../clib/microlib/printf/printf.c         0x00000000   Number         0  printf4.o ABSOLUTE
    ../clib/microlib/printf/stubs.s          0x00000000   Number         0  stubs.o ABSOLUTE
    ../clib/microlib/string/strcpy.c         0x00000000   Number         0  strcpy.o ABSOLUTE
    ../clib/microlib/string/strlen.c         0x00000000   Number         0  strlen.o ABSOLUTE
    ../clib/microlib/string/strstr.c         0x00000000   Number         0  strstr.o ABSOLUTE
    ../clib/microlib/stubs.s                 0x00000000   Number         0  iusefp.o ABSOLUTE
    ../fplib/microlib/fpadd.c                0x00000000   Number         0  dadd.o ABSOLUTE
    ../fplib/microlib/fpdiv.c                0x00000000   Number         0  ddiv.o ABSOLUTE
    ../fplib/microlib/fpepilogue.c           0x00000000   Number         0  depilogue.o ABSOLUTE
    ../fplib/microlib/fpfix.c                0x00000000   Number         0  dfixul.o ABSOLUTE
    ../fplib/microlib/fpmul.c                0x00000000   Number         0  dmul.o ABSOLUTE
    ..\..\components\driver\driver_dma.c     0x00000000   Number         0  driver_dma.o ABSOLUTE
    ..\..\components\driver\driver_flash.c   0x00000000   Number         0  driver_flash.o ABSOLUTE
    ..\..\components\driver\driver_gpio.c    0x00000000   Number         0  driver_gpio.o ABSOLUTE
    ..\..\components\driver\driver_pmu.c     0x00000000   Number         0  driver_pmu.o ABSOLUTE
    ..\..\components\driver\driver_psram.c   0x00000000   Number         0  driver_psram.o ABSOLUTE
    ..\..\components\driver\driver_pwm.c     0x00000000   Number         0  driver_pwm.o ABSOLUTE
    ..\..\components\driver\driver_spi_master.c 0x00000000   Number         0  driver_spi_master.o ABSOLUTE
    ..\..\components\driver\driver_timer.c   0x00000000   Number         0  driver_timer.o ABSOLUTE
    ..\..\components\driver\driver_uart_ex.c 0x00000000   Number         0  driver_uart_ex.o ABSOLUTE
    ..\..\components\modules\common\src\co_log.c 0x00000000   Number         0  co_log.o ABSOLUTE
    ..\..\components\modules\platform\src\keil\boot_vectors.s 0x00000000   Number         0  boot_vectors.o ABSOLUTE
    ..\\..\\components\\driver\\driver_flash.c 0x00000000   Number         0  driver_flash.o ABSOLUTE
    ..\\..\\components\\driver\\driver_gpio.c 0x00000000   Number         0  driver_gpio.o ABSOLUTE
    ..\\..\\components\\driver\\driver_pmu.c 0x00000000   Number         0  driver_pmu.o ABSOLUTE
    ..\\..\\components\\driver\\driver_psram.c 0x00000000   Number         0  driver_psram.o ABSOLUTE
    ..\\..\\components\\driver\\driver_pwm.c 0x00000000   Number         0  driver_pwm.o ABSOLUTE
    ..\\..\\components\\driver\\driver_spi_master.c 0x00000000   Number         0  driver_spi_master.o ABSOLUTE
    ..\\..\\components\\driver\\driver_timer.c 0x00000000   Number         0  driver_timer.o ABSOLUTE
    ..\\..\\components\\driver\\driver_uart_ex.c 0x00000000   Number         0  driver_uart_ex.o ABSOLUTE
    ..\\..\\components\\modules\\common\\src\\co_log.c 0x00000000   Number         0  co_log.o ABSOLUTE
    ..\\app\\src\\adv_check_mode.c           0x00000000   Number         0  adv_check_mode.o ABSOLUTE
    ..\\app\\src\\app.c                      0x00000000   Number         0  app.o ABSOLUTE
    ..\\app\\src\\app_conn.c                 0x00000000   Number         0  app_conn.o ABSOLUTE
    ..\\app\\src\\app_mesh_info.c            0x00000000   Number         0  app_mesh_info.o ABSOLUTE
    ..\\app\\src\\app_prf.c                  0x00000000   Number         0  app_prf.o ABSOLUTE
    ..\\app\\src\\app_proj_event.c           0x00000000   Number         0  app_proj_event.o ABSOLUTE
    ..\\app\\src\\app_sec.c                  0x00000000   Number         0  app_sec.o ABSOLUTE
    ..\\app\\src\\app_task.c                 0x00000000   Number         0  app_task.o ABSOLUTE
    ..\\app\\src\\user_bond_manage.c         0x00000000   Number         0  user_bond_manage.o ABSOLUTE
    ..\\app\\src\\user_mem.c                 0x00000000   Number         0  user_mem.o ABSOLUTE
    ..\\code\\SDL_event.c                    0x00000000   Number         0  sdl_event.o ABSOLUTE
    ..\\code\\SDL_timer.c                    0x00000000   Number         0  sdl_timer.o ABSOLUTE
    ..\\code\\SDL_video.c                    0x00000000   Number         0  sdl_video_1.o ABSOLUTE
    ..\\code\\ble_simple_peripheral.c        0x00000000   Number         0  ble_simple_peripheral.o ABSOLUTE
    ..\\code\\devmodule.c                    0x00000000   Number         0  devmodule.o ABSOLUTE
    ..\\code\\dgus_cmd.c                     0x00000000   Number         0  dgus_cmd.o ABSOLUTE
    ..\\code\\ext_flythings\\switch_image.c  0x00000000   Number         0  switch_image.o ABSOLUTE
    ..\\code\\flythings\\auth\\md5.c         0x00000000   Number         0  md5.o ABSOLUTE
    ..\\code\\flythings\\auth\\zksec.c       0x00000000   Number         0  zksec.o ABSOLUTE
    ..\\code\\flythings\\context\\guicontext.c 0x00000000   Number         0  guicontext.o ABSOLUTE
    ..\\code\\flythings\\context\\resource.c 0x00000000   Number         0  resource.o ABSOLUTE
    ..\\code\\flythings\\graphics\\SDL_gfx.c 0x00000000   Number         0  sdl_gfx.o ABSOLUTE
    ..\\code\\flythings\\misc\\fy_bits.c     0x00000000   Number         0  fy_bits.o ABSOLUTE
    ..\\code\\flythings\\misc\\fy_mem.c      0x00000000   Number         0  fy_mem.o ABSOLUTE
    ..\\code\\flythings\\misc\\rect.c        0x00000000   Number         0  rect.o ABSOLUTE
    ..\\code\\flythings\\widget\\animation.c 0x00000000   Number         0  animation.o ABSOLUTE
    ..\\code\\flythings\\widget\\button.c    0x00000000   Number         0  button.o ABSOLUTE
    ..\\code\\flythings\\widget\\image.c     0x00000000   Number         0  image.o ABSOLUTE
    ..\\code\\flythings\\widget\\imagetext.c 0x00000000   Number         0  imagetext.o ABSOLUTE
    ..\\code\\flythings\\widget\\increment.c 0x00000000   Number         0  increment.o ABSOLUTE
    ..\\code\\flythings\\widget\\label.c     0x00000000   Number         0  label.o ABSOLUTE
    ..\\code\\flythings\\widget\\numtext.c   0x00000000   Number         0  numtext.o ABSOLUTE
    ..\\code\\flythings\\widget\\progress.c  0x00000000   Number         0  progress.o ABSOLUTE
    ..\\code\\flythings\\widget\\widget.c    0x00000000   Number         0  widget.o ABSOLUTE
    ..\\code\\flythings\\widget\\window.c    0x00000000   Number         0  window.o ABSOLUTE
    ..\\code\\gui_main.c                     0x00000000   Number         0  gui_main.o ABSOLUTE
    ..\\code\\message.c                      0x00000000   Number         0  message.o ABSOLUTE
    ..\\code\\other_app.c                    0x00000000   Number         0  other_app.o ABSOLUTE
    ..\\code\\prf_server.c                   0x00000000   Number         0  prf_server.o ABSOLUTE
    ..\\code\\proj_main.c                    0x00000000   Number         0  proj_main.o ABSOLUTE
    ..\\code\\uartcomm.c                     0x00000000   Number         0  uartcomm.o ABSOLUTE
    ..\\code\\uartupgradedev.c               0x00000000   Number         0  uartupgradedev.o ABSOLUTE
    ..\\code\\uifun\\logic\\main.c           0x00000000   Number         0  main.o ABSOLUTE
    ..\\code\\uifun\\ui_context.c            0x00000000   Number         0  ui_context.o ABSOLUTE
    ..\\ip\\ble\\hl\\src\\gap\\gapc\\gapc.c  0x00000000   Number         0  gapc.o ABSOLUTE
    ..\\ip\\ble\\hl\\src\\gap\\gapc\\gapc_hci.c 0x00000000   Number         0  gapc_hci.o ABSOLUTE
    ..\\ip\\ble\\hl\\src\\gap\\gapc\\gapc_sig.c 0x00000000   Number         0  gapc_sig.o ABSOLUTE
    ..\\ip\\ble\\hl\\src\\gap\\gapc\\gapc_task.c 0x00000000   Number         0  gapc_task.o ABSOLUTE
    ..\\ip\\ble\\hl\\src\\gap\\gapm\\gapm.c  0x00000000   Number         0  gapm.o ABSOLUTE
    ..\\ip\\ble\\hl\\src\\gap\\gapm\\gapm_actv.c 0x00000000   Number         0  gapm_actv.o ABSOLUTE
    ..\\ip\\ble\\hl\\src\\gap\\gapm\\gapm_addr.c 0x00000000   Number         0  gapm_addr.o ABSOLUTE
    ..\\ip\\ble\\hl\\src\\gap\\gapm\\gapm_adv.c 0x00000000   Number         0  gapm_adv.o ABSOLUTE
    ..\\ip\\ble\\hl\\src\\gap\\gapm\\gapm_cfg.c 0x00000000   Number         0  gapm_cfg.o ABSOLUTE
    ..\\ip\\ble\\hl\\src\\gap\\gapm\\gapm_init.c 0x00000000   Number         0  gapm_init.o ABSOLUTE
    ..\\ip\\ble\\hl\\src\\gap\\gapm\\gapm_list.c 0x00000000   Number         0  gapm_list.o ABSOLUTE
    ..\\ip\\ble\\hl\\src\\gap\\gapm\\gapm_per_sync.c 0x00000000   Number         0  gapm_per_sync.o ABSOLUTE
    ..\\ip\\ble\\hl\\src\\gap\\gapm\\gapm_scan.c 0x00000000   Number         0  gapm_scan.o ABSOLUTE
    ..\\ip\\ble\\hl\\src\\gap\\gapm\\gapm_smp.c 0x00000000   Number         0  gapm_smp.o ABSOLUTE
    ..\\ip\\ble\\hl\\src\\gap\\gapm\\gapm_task.c 0x00000000   Number         0  gapm_task.o ABSOLUTE
    ..\\ip\\ble\\hl\\src\\gap\\smpc\\smpc.c  0x00000000   Number         0  smpc.o ABSOLUTE
    ..\\ip\\ble\\hl\\src\\gap\\smpc\\smpc_api.c 0x00000000   Number         0  smpc_api.o ABSOLUTE
    ..\\ip\\ble\\hl\\src\\gap\\smpc\\smpc_crypto.c 0x00000000   Number         0  smpc_crypto.o ABSOLUTE
    ..\\ip\\ble\\hl\\src\\gap\\smpc\\smpc_util.c 0x00000000   Number         0  smpc_util.o ABSOLUTE
    ..\\ip\\ble\\hl\\src\\gatt\\attc\\attc.c 0x00000000   Number         0  attc.o ABSOLUTE
    ..\\ip\\ble\\hl\\src\\gatt\\attm\\attm.c 0x00000000   Number         0  attm.o ABSOLUTE
    ..\\ip\\ble\\hl\\src\\gatt\\attm\\attm_db.c 0x00000000   Number         0  attm_db.o ABSOLUTE
    ..\\ip\\ble\\hl\\src\\gatt\\atts\\atts.c 0x00000000   Number         0  atts.o ABSOLUTE
    ..\\ip\\ble\\hl\\src\\gatt\\gattc\\gattc.c 0x00000000   Number         0  gattc.o ABSOLUTE
    ..\\ip\\ble\\hl\\src\\gatt\\gattc\\gattc_task.c 0x00000000   Number         0  gattc_task.o ABSOLUTE
    ..\\ip\\ble\\hl\\src\\gatt\\gattm\\gattm.c 0x00000000   Number         0  gattm.o ABSOLUTE
    ..\\ip\\ble\\hl\\src\\gatt\\gattm\\gattm_task.c 0x00000000   Number         0  gattm_task.o ABSOLUTE
    ..\\ip\\ble\\hl\\src\\l2c\\l2cc\\l2cc.c  0x00000000   Number         0  l2cc.o ABSOLUTE
    ..\\ip\\ble\\hl\\src\\l2c\\l2cc\\l2cc_pdu.c 0x00000000   Number         0  l2cc_pdu.o ABSOLUTE
    ..\\ip\\ble\\hl\\src\\l2c\\l2cc\\l2cc_sig.c 0x00000000   Number         0  l2cc_sig.o ABSOLUTE
    ..\\ip\\ble\\hl\\src\\l2c\\l2cc\\l2cc_task.c 0x00000000   Number         0  l2cc_task.o ABSOLUTE
    ..\\ip\\ble\\hl\\src\\l2c\\l2cm\\l2cm.c  0x00000000   Number         0  l2cm.o ABSOLUTE
    ..\\ip\\ble\\hl\\src\\prf\\prf.c         0x00000000   Number         0  prf.o ABSOLUTE
    ..\\ip\\ble\\hl\\src\\prf\\prf_utils.c   0x00000000   Number         0  prf_utils.o ABSOLUTE
    ..\\ip\\ble\\hl\\src\\rwble_hl\\rwble_hl.c 0x00000000   Number         0  rwble_hl.o ABSOLUTE
    ..\\ip\\ble\\hl_api\\gap\\gap_api.c      0x00000000   Number         0  gap_api.o ABSOLUTE
    ..\\ip\\ble\\hl_api\\gatt\\gatt_api.c    0x00000000   Number         0  gatt_api.o ABSOLUTE
    ..\\ip\\ble\\hl_api\\mesh\\mesh_api.c    0x00000000   Number         0  mesh_api.o ABSOLUTE
    ..\\ip\\ble\\mesh\\m_al\\m_al_activity.c 0x00000000   Number         0  m_al_activity.o ABSOLUTE
    ..\\ip\\ble\\mesh\\m_al\\m_al_adv.c      0x00000000   Number         0  m_al_adv.o ABSOLUTE
    ..\\ip\\ble\\mesh\\m_al\\m_al_con.c      0x00000000   Number         0  m_al_con.o ABSOLUTE
    ..\\ip\\ble\\mesh\\m_al\\m_al_djob.c     0x00000000   Number         0  m_al_djob.o ABSOLUTE
    ..\\ip\\ble\\mesh\\m_al\\m_al_scan.c     0x00000000   Number         0  m_al_scan.o ABSOLUTE
    ..\\ip\\ble\\mesh\\m_al\\m_al_sec.c      0x00000000   Number         0  m_al_sec.o ABSOLUTE
    ..\\ip\\ble\\mesh\\m_al\\m_al_task.c     0x00000000   Number         0  m_al_task.o ABSOLUTE
    ..\\ip\\ble\\mesh\\m_al\\m_al_timer.c    0x00000000   Number         0  m_al_timer.o ABSOLUTE
    ..\\ip\\ble\\mesh\\models\\m_api_msg\\m_api_msg.c 0x00000000   Number         0  m_api_msg.o ABSOLUTE
    ..\\ip\\ble\\mesh\\src\\m_api.c          0x00000000   Number         0  m_api.o ABSOLUTE
    ..\\ip\\ble\\mesh\\src\\m_bcn\\m_bcn.c   0x00000000   Number         0  m_bcn.o ABSOLUTE
    ..\\ip\\ble\\mesh\\src\\m_bearer\\m_bearer.c 0x00000000   Number         0  m_bearer.o ABSOLUTE
    ..\\ip\\ble\\mesh\\src\\m_bearer\\m_bearer_adv.c 0x00000000   Number         0  m_bearer_adv.o ABSOLUTE
    ..\\ip\\ble\\mesh\\src\\m_bearer\\m_bearer_gatt.c 0x00000000   Number         0  m_bearer_gatt.o ABSOLUTE
    ..\\ip\\ble\\mesh\\src\\m_fnd\\m_fnd.c   0x00000000   Number         0  m_fnd.o ABSOLUTE
    ..\\ip\\ble\\mesh\\src\\m_fnd\\m_fnd_confs.c 0x00000000   Number         0  m_fnd_confs.o ABSOLUTE
    ..\\ip\\ble\\mesh\\src\\m_fnd\\m_fnd_hlths.c 0x00000000   Number         0  m_fnd_hlths.o ABSOLUTE
    ..\\ip\\ble\\mesh\\src\\m_fnd\\m_fnd_pbrs.c 0x00000000   Number         0  m_fnd_pbrs.o ABSOLUTE
    ..\\ip\\ble\\mesh\\src\\m_lay\\m_lay.c   0x00000000   Number         0  m_lay.o ABSOLUTE
    ..\\ip\\ble\\mesh\\src\\m_lay\\m_lay_access.c 0x00000000   Number         0  m_lay_access.o ABSOLUTE
    ..\\ip\\ble\\mesh\\src\\m_lay\\m_lay_friend.c 0x00000000   Number         0  m_lay_friend.o ABSOLUTE
    ..\\ip\\ble\\mesh\\src\\m_lay\\m_lay_hb.c 0x00000000   Number         0  m_lay_hb.o ABSOLUTE
    ..\\ip\\ble\\mesh\\src\\m_lay\\m_lay_lpn.c 0x00000000   Number         0  m_lay_lpn.o ABSOLUTE
    ..\\ip\\ble\\mesh\\src\\m_lay\\m_lay_ltrans.c 0x00000000   Number         0  m_lay_ltrans.o ABSOLUTE
    ..\\ip\\ble\\mesh\\src\\m_lay\\m_lay_net.c 0x00000000   Number         0  m_lay_net.o ABSOLUTE
    ..\\ip\\ble\\mesh\\src\\m_lay\\m_lay_proxy.c 0x00000000   Number         0  m_lay_proxy.o ABSOLUTE
    ..\\ip\\ble\\mesh\\src\\m_lay\\m_lay_utrans.c 0x00000000   Number         0  m_lay_utrans.o ABSOLUTE
    ..\\ip\\ble\\mesh\\src\\m_prov\\m_pbrs_prov_bearer.c 0x00000000   Number         0  m_pbrs_prov_bearer.o ABSOLUTE
    ..\\ip\\ble\\mesh\\src\\m_prov\\m_prov.c 0x00000000   Number         0  m_prov.o ABSOLUTE
    ..\\ip\\ble\\mesh\\src\\m_prov\\m_prov_adv_trans.c 0x00000000   Number         0  m_prov_adv_trans.o ABSOLUTE
    ..\\ip\\ble\\mesh\\src\\m_prov\\m_prov_bearer.c 0x00000000   Number         0  m_prov_bearer.o ABSOLUTE
    ..\\ip\\ble\\mesh\\src\\m_tb\\m_tb.c     0x00000000   Number         0  m_tb.o ABSOLUTE
    ..\\ip\\ble\\mesh\\src\\m_tb\\m_tb_buf.c 0x00000000   Number         0  m_tb_buf.o ABSOLUTE
    ..\\ip\\ble\\mesh\\src\\m_tb\\m_tb_friend.c 0x00000000   Number         0  m_tb_friend.o ABSOLUTE
    ..\\ip\\ble\\mesh\\src\\m_tb\\m_tb_key.c 0x00000000   Number         0  m_tb_key.o ABSOLUTE
    ..\\ip\\ble\\mesh\\src\\m_tb\\m_tb_mio.c 0x00000000   Number         0  m_tb_mio.o ABSOLUTE
    ..\\ip\\ble\\mesh\\src\\m_tb\\m_tb_sec.c 0x00000000   Number         0  m_tb_sec.o ABSOLUTE
    ..\\ip\\ble\\mesh\\src\\m_tb\\m_tb_state.c 0x00000000   Number         0  m_tb_state.o ABSOLUTE
    ..\\ip\\ble\\mesh\\src\\m_tb\\m_tb_store_wvt.c 0x00000000   Number         0  m_tb_store_wvt.o ABSOLUTE
    ..\\ip\\ble\\mesh\\src\\m_tb\\m_tb_timer.c 0x00000000   Number         0  m_tb_timer.o ABSOLUTE
    ..\\modules\\os\\os_mem.c                0x00000000   Number         0  os_mem.o ABSOLUTE
    ..\\modules\\os\\os_msg_q.c              0x00000000   Number         0  os_msg_q.o ABSOLUTE
    ..\\modules\\os\\os_task.c               0x00000000   Number         0  os_task.o ABSOLUTE
    ..\\modules\\os\\os_timer.c              0x00000000   Number         0  os_timer.o ABSOLUTE
    ..\\modules\\patch\\patch_frspim.c       0x00000000   Number         0  patch_frspim.o ABSOLUTE
    ..\\modules\\patch\\patch_lld.c          0x00000000   Number         0  patch_lld.o ABSOLUTE
    ..\\modules\\patch\\patch_rf.c           0x00000000   Number         0  patch_rf.o ABSOLUTE
    ..\\modules\\patch\\patch_rwip.c         0x00000000   Number         0  patch_rwip.o ABSOLUTE
    ..\\modules\\sys\\sys_utisl.c            0x00000000   Number         0  sys_utisl.o ABSOLUTE
    ..\\plf\\refip\\src\\arch\\entry.c       0x00000000   Number         0  entry.o ABSOLUTE
    ..\\plf\\refip\\src\\arch\\jump_table_host.c 0x00000000   Number         0  jump_table_host.o ABSOLUTE
    ..\\plf\\refip\\src\\driver\\trng\\trng.c 0x00000000   Number         0  trng.o ABSOLUTE
    ..\app\src\adv_check_mode.c              0x00000000   Number         0  adv_check_mode.o ABSOLUTE
    ..\app\src\app.c                         0x00000000   Number         0  app.o ABSOLUTE
    ..\app\src\app_conn.c                    0x00000000   Number         0  app_conn.o ABSOLUTE
    ..\app\src\app_mesh_info.c               0x00000000   Number         0  app_mesh_info.o ABSOLUTE
    ..\app\src\app_prf.c                     0x00000000   Number         0  app_prf.o ABSOLUTE
    ..\app\src\app_proj_event.c              0x00000000   Number         0  app_proj_event.o ABSOLUTE
    ..\app\src\app_sec.c                     0x00000000   Number         0  app_sec.o ABSOLUTE
    ..\app\src\app_task.c                    0x00000000   Number         0  app_task.o ABSOLUTE
    ..\app\src\user_bond_manage.c            0x00000000   Number         0  user_bond_manage.o ABSOLUTE
    ..\app\src\user_mem.c                    0x00000000   Number         0  user_mem.o ABSOLUTE
    ..\code\SDL_event.c                      0x00000000   Number         0  sdl_event.o ABSOLUTE
    ..\code\SDL_timer.c                      0x00000000   Number         0  sdl_timer.o ABSOLUTE
    ..\code\SDL_video.c                      0x00000000   Number         0  sdl_video_1.o ABSOLUTE
    ..\code\ble_simple_peripheral.c          0x00000000   Number         0  ble_simple_peripheral.o ABSOLUTE
    ..\code\devmodule.c                      0x00000000   Number         0  devmodule.o ABSOLUTE
    ..\code\dgus_cmd.c                       0x00000000   Number         0  dgus_cmd.o ABSOLUTE
    ..\code\ext_flythings\draw_point.c       0x00000000   Number         0  draw_point.o ABSOLUTE
    ..\code\ext_flythings\switch_image.c     0x00000000   Number         0  switch_image.o ABSOLUTE
    ..\code\flythings\auth\md5.c             0x00000000   Number         0  md5.o ABSOLUTE
    ..\code\flythings\auth\zksec.c           0x00000000   Number         0  zksec.o ABSOLUTE
    ..\code\flythings\context\guicontext.c   0x00000000   Number         0  guicontext.o ABSOLUTE
    ..\code\flythings\context\resource.c     0x00000000   Number         0  resource.o ABSOLUTE
    ..\code\flythings\graphics\SDL_gfx.c     0x00000000   Number         0  sdl_gfx.o ABSOLUTE
    ..\code\flythings\misc\fy_bits.c         0x00000000   Number         0  fy_bits.o ABSOLUTE
    ..\code\flythings\misc\fy_mem.c          0x00000000   Number         0  fy_mem.o ABSOLUTE
    ..\code\flythings\misc\rect.c            0x00000000   Number         0  rect.o ABSOLUTE
    ..\code\flythings\widget\animation.c     0x00000000   Number         0  animation.o ABSOLUTE
    ..\code\flythings\widget\button.c        0x00000000   Number         0  button.o ABSOLUTE
    ..\code\flythings\widget\image.c         0x00000000   Number         0  image.o ABSOLUTE
    ..\code\flythings\widget\imagetext.c     0x00000000   Number         0  imagetext.o ABSOLUTE
    ..\code\flythings\widget\increment.c     0x00000000   Number         0  increment.o ABSOLUTE
    ..\code\flythings\widget\label.c         0x00000000   Number         0  label.o ABSOLUTE
    ..\code\flythings\widget\numtext.c       0x00000000   Number         0  numtext.o ABSOLUTE
    ..\code\flythings\widget\progress.c      0x00000000   Number         0  progress.o ABSOLUTE
    ..\code\flythings\widget\widget.c        0x00000000   Number         0  widget.o ABSOLUTE
    ..\code\flythings\widget\window.c        0x00000000   Number         0  window.o ABSOLUTE
    ..\code\gui_main.c                       0x00000000   Number         0  gui_main.o ABSOLUTE
    ..\code\message.c                        0x00000000   Number         0  message.o ABSOLUTE
    ..\code\other_app.c                      0x00000000   Number         0  other_app.o ABSOLUTE
    ..\code\prf_client.c                     0x00000000   Number         0  prf_client.o ABSOLUTE
    ..\code\prf_server.c                     0x00000000   Number         0  prf_server.o ABSOLUTE
    ..\code\proj_main.c                      0x00000000   Number         0  proj_main.o ABSOLUTE
    ..\code\ring.c                           0x00000000   Number         0  ring.o ABSOLUTE
    ..\code\simple_gatt_service.c            0x00000000   Number         0  simple_gatt_service.o ABSOLUTE
    ..\code\uartcomm.c                       0x00000000   Number         0  uartcomm.o ABSOLUTE
    ..\code\uartupgradedev.c                 0x00000000   Number         0  uartupgradedev.o ABSOLUTE
    ..\code\uifun\logic\main.c               0x00000000   Number         0  main.o ABSOLUTE
    ..\code\uifun\ui_context.c               0x00000000   Number         0  ui_context.o ABSOLUTE
    ..\flyport\ext_flythings\imgtext_scroll.c 0x00000000   Number         0  imgtext_scroll.o ABSOLUTE
    ..\ip\ble\hl\src\gap\gapc\gapc.c         0x00000000   Number         0  gapc.o ABSOLUTE
    ..\ip\ble\hl\src\gap\gapc\gapc_hci.c     0x00000000   Number         0  gapc_hci.o ABSOLUTE
    ..\ip\ble\hl\src\gap\gapc\gapc_sig.c     0x00000000   Number         0  gapc_sig.o ABSOLUTE
    ..\ip\ble\hl\src\gap\gapc\gapc_task.c    0x00000000   Number         0  gapc_task.o ABSOLUTE
    ..\ip\ble\hl\src\gap\gapm\gapm.c         0x00000000   Number         0  gapm.o ABSOLUTE
    ..\ip\ble\hl\src\gap\gapm\gapm_actv.c    0x00000000   Number         0  gapm_actv.o ABSOLUTE
    ..\ip\ble\hl\src\gap\gapm\gapm_addr.c    0x00000000   Number         0  gapm_addr.o ABSOLUTE
    ..\ip\ble\hl\src\gap\gapm\gapm_adv.c     0x00000000   Number         0  gapm_adv.o ABSOLUTE
    ..\ip\ble\hl\src\gap\gapm\gapm_cfg.c     0x00000000   Number         0  gapm_cfg.o ABSOLUTE
    ..\ip\ble\hl\src\gap\gapm\gapm_init.c    0x00000000   Number         0  gapm_init.o ABSOLUTE
    ..\ip\ble\hl\src\gap\gapm\gapm_list.c    0x00000000   Number         0  gapm_list.o ABSOLUTE
    ..\ip\ble\hl\src\gap\gapm\gapm_per_sync.c 0x00000000   Number         0  gapm_per_sync.o ABSOLUTE
    ..\ip\ble\hl\src\gap\gapm\gapm_scan.c    0x00000000   Number         0  gapm_scan.o ABSOLUTE
    ..\ip\ble\hl\src\gap\gapm\gapm_smp.c     0x00000000   Number         0  gapm_smp.o ABSOLUTE
    ..\ip\ble\hl\src\gap\gapm\gapm_task.c    0x00000000   Number         0  gapm_task.o ABSOLUTE
    ..\ip\ble\hl\src\gap\smpc\smpc.c         0x00000000   Number         0  smpc.o ABSOLUTE
    ..\ip\ble\hl\src\gap\smpc\smpc_api.c     0x00000000   Number         0  smpc_api.o ABSOLUTE
    ..\ip\ble\hl\src\gap\smpc\smpc_crypto.c  0x00000000   Number         0  smpc_crypto.o ABSOLUTE
    ..\ip\ble\hl\src\gap\smpc\smpc_util.c    0x00000000   Number         0  smpc_util.o ABSOLUTE
    ..\ip\ble\hl\src\gatt\attc\attc.c        0x00000000   Number         0  attc.o ABSOLUTE
    ..\ip\ble\hl\src\gatt\attm\attm.c        0x00000000   Number         0  attm.o ABSOLUTE
    ..\ip\ble\hl\src\gatt\attm\attm_db.c     0x00000000   Number         0  attm_db.o ABSOLUTE
    ..\ip\ble\hl\src\gatt\atts\atts.c        0x00000000   Number         0  atts.o ABSOLUTE
    ..\ip\ble\hl\src\gatt\gattc\gattc.c      0x00000000   Number         0  gattc.o ABSOLUTE
    ..\ip\ble\hl\src\gatt\gattc\gattc_task.c 0x00000000   Number         0  gattc_task.o ABSOLUTE
    ..\ip\ble\hl\src\gatt\gattm\gattm.c      0x00000000   Number         0  gattm.o ABSOLUTE
    ..\ip\ble\hl\src\gatt\gattm\gattm_task.c 0x00000000   Number         0  gattm_task.o ABSOLUTE
    ..\ip\ble\hl\src\l2c\l2cc\l2cc.c         0x00000000   Number         0  l2cc.o ABSOLUTE
    ..\ip\ble\hl\src\l2c\l2cc\l2cc_pdu.c     0x00000000   Number         0  l2cc_pdu.o ABSOLUTE
    ..\ip\ble\hl\src\l2c\l2cc\l2cc_sig.c     0x00000000   Number         0  l2cc_sig.o ABSOLUTE
    ..\ip\ble\hl\src\l2c\l2cc\l2cc_task.c    0x00000000   Number         0  l2cc_task.o ABSOLUTE
    ..\ip\ble\hl\src\l2c\l2cm\l2cm.c         0x00000000   Number         0  l2cm.o ABSOLUTE
    ..\ip\ble\hl\src\prf\prf.c               0x00000000   Number         0  prf.o ABSOLUTE
    ..\ip\ble\hl\src\prf\prf_utils.c         0x00000000   Number         0  prf_utils.o ABSOLUTE
    ..\ip\ble\hl\src\rwble_hl\rwble_hl.c     0x00000000   Number         0  rwble_hl.o ABSOLUTE
    ..\ip\ble\hl_api\gap\gap_api.c           0x00000000   Number         0  gap_api.o ABSOLUTE
    ..\ip\ble\hl_api\gatt\gatt_api.c         0x00000000   Number         0  gatt_api.o ABSOLUTE
    ..\ip\ble\hl_api\mesh\mesh_api.c         0x00000000   Number         0  mesh_api.o ABSOLUTE
    ..\ip\ble\mesh\m_al\m_al_activity.c      0x00000000   Number         0  m_al_activity.o ABSOLUTE
    ..\ip\ble\mesh\m_al\m_al_adv.c           0x00000000   Number         0  m_al_adv.o ABSOLUTE
    ..\ip\ble\mesh\m_al\m_al_con.c           0x00000000   Number         0  m_al_con.o ABSOLUTE
    ..\ip\ble\mesh\m_al\m_al_djob.c          0x00000000   Number         0  m_al_djob.o ABSOLUTE
    ..\ip\ble\mesh\m_al\m_al_scan.c          0x00000000   Number         0  m_al_scan.o ABSOLUTE
    ..\ip\ble\mesh\m_al\m_al_sec.c           0x00000000   Number         0  m_al_sec.o ABSOLUTE
    ..\ip\ble\mesh\m_al\m_al_task.c          0x00000000   Number         0  m_al_task.o ABSOLUTE
    ..\ip\ble\mesh\m_al\m_al_timer.c         0x00000000   Number         0  m_al_timer.o ABSOLUTE
    ..\ip\ble\mesh\models\m_api_msg\m_api_msg.c 0x00000000   Number         0  m_api_msg.o ABSOLUTE
    ..\ip\ble\mesh\src\m_api.c               0x00000000   Number         0  m_api.o ABSOLUTE
    ..\ip\ble\mesh\src\m_bcn\m_bcn.c         0x00000000   Number         0  m_bcn.o ABSOLUTE
    ..\ip\ble\mesh\src\m_bearer\m_bearer.c   0x00000000   Number         0  m_bearer.o ABSOLUTE
    ..\ip\ble\mesh\src\m_bearer\m_bearer_adv.c 0x00000000   Number         0  m_bearer_adv.o ABSOLUTE
    ..\ip\ble\mesh\src\m_bearer\m_bearer_gatt.c 0x00000000   Number         0  m_bearer_gatt.o ABSOLUTE
    ..\ip\ble\mesh\src\m_fnd\m_fnd.c         0x00000000   Number         0  m_fnd.o ABSOLUTE
    ..\ip\ble\mesh\src\m_fnd\m_fnd_confs.c   0x00000000   Number         0  m_fnd_confs.o ABSOLUTE
    ..\ip\ble\mesh\src\m_fnd\m_fnd_hlths.c   0x00000000   Number         0  m_fnd_hlths.o ABSOLUTE
    ..\ip\ble\mesh\src\m_fnd\m_fnd_pbrs.c    0x00000000   Number         0  m_fnd_pbrs.o ABSOLUTE
    ..\ip\ble\mesh\src\m_lay\m_lay.c         0x00000000   Number         0  m_lay.o ABSOLUTE
    ..\ip\ble\mesh\src\m_lay\m_lay_access.c  0x00000000   Number         0  m_lay_access.o ABSOLUTE
    ..\ip\ble\mesh\src\m_lay\m_lay_friend.c  0x00000000   Number         0  m_lay_friend.o ABSOLUTE
    ..\ip\ble\mesh\src\m_lay\m_lay_hb.c      0x00000000   Number         0  m_lay_hb.o ABSOLUTE
    ..\ip\ble\mesh\src\m_lay\m_lay_lpn.c     0x00000000   Number         0  m_lay_lpn.o ABSOLUTE
    ..\ip\ble\mesh\src\m_lay\m_lay_ltrans.c  0x00000000   Number         0  m_lay_ltrans.o ABSOLUTE
    ..\ip\ble\mesh\src\m_lay\m_lay_net.c     0x00000000   Number         0  m_lay_net.o ABSOLUTE
    ..\ip\ble\mesh\src\m_lay\m_lay_proxy.c   0x00000000   Number         0  m_lay_proxy.o ABSOLUTE
    ..\ip\ble\mesh\src\m_lay\m_lay_utrans.c  0x00000000   Number         0  m_lay_utrans.o ABSOLUTE
    ..\ip\ble\mesh\src\m_prov\m_pbrs_prov_bearer.c 0x00000000   Number         0  m_pbrs_prov_bearer.o ABSOLUTE
    ..\ip\ble\mesh\src\m_prov\m_prov.c       0x00000000   Number         0  m_prov.o ABSOLUTE
    ..\ip\ble\mesh\src\m_prov\m_prov_adv_trans.c 0x00000000   Number         0  m_prov_adv_trans.o ABSOLUTE
    ..\ip\ble\mesh\src\m_prov\m_prov_bearer.c 0x00000000   Number         0  m_prov_bearer.o ABSOLUTE
    ..\ip\ble\mesh\src\m_tb\m_tb.c           0x00000000   Number         0  m_tb.o ABSOLUTE
    ..\ip\ble\mesh\src\m_tb\m_tb_buf.c       0x00000000   Number         0  m_tb_buf.o ABSOLUTE
    ..\ip\ble\mesh\src\m_tb\m_tb_friend.c    0x00000000   Number         0  m_tb_friend.o ABSOLUTE
    ..\ip\ble\mesh\src\m_tb\m_tb_key.c       0x00000000   Number         0  m_tb_key.o ABSOLUTE
    ..\ip\ble\mesh\src\m_tb\m_tb_mio.c       0x00000000   Number         0  m_tb_mio.o ABSOLUTE
    ..\ip\ble\mesh\src\m_tb\m_tb_sec.c       0x00000000   Number         0  m_tb_sec.o ABSOLUTE
    ..\ip\ble\mesh\src\m_tb\m_tb_state.c     0x00000000   Number         0  m_tb_state.o ABSOLUTE
    ..\ip\ble\mesh\src\m_tb\m_tb_store_wvt.c 0x00000000   Number         0  m_tb_store_wvt.o ABSOLUTE
    ..\ip\ble\mesh\src\m_tb\m_tb_timer.c     0x00000000   Number         0  m_tb_timer.o ABSOLUTE
    ..\modules\os\os_mem.c                   0x00000000   Number         0  os_mem.o ABSOLUTE
    ..\modules\os\os_msg_q.c                 0x00000000   Number         0  os_msg_q.o ABSOLUTE
    ..\modules\os\os_task.c                  0x00000000   Number         0  os_task.o ABSOLUTE
    ..\modules\os\os_timer.c                 0x00000000   Number         0  os_timer.o ABSOLUTE
    ..\modules\patch\patch_frspim.c          0x00000000   Number         0  patch_frspim.o ABSOLUTE
    ..\modules\patch\patch_lld.c             0x00000000   Number         0  patch_lld.o ABSOLUTE
    ..\modules\patch\patch_rf.c              0x00000000   Number         0  patch_rf.o ABSOLUTE
    ..\modules\patch\patch_rwip.c            0x00000000   Number         0  patch_rwip.o ABSOLUTE
    ..\modules\sys\sys_utisl.c               0x00000000   Number         0  sys_utisl.o ABSOLUTE
    ..\plf\refip\src\arch\entry.c            0x00000000   Number         0  entry.o ABSOLUTE
    ..\plf\refip\src\arch\jump_table_host.c  0x00000000   Number         0  jump_table_host.o ABSOLUTE
    ..\plf\refip\src\driver\trng\trng.c      0x00000000   Number         0  trng.o ABSOLUTE
    cdrcmple.s                               0x00000000   Number         0  cdrcmple.o ABSOLUTE
    jump_table_0                             0x10000000   Section        4  jump_table_host.o(jump_table_0)
    jump_table_1                             0x10000004   Section        8  proj_main.o(jump_table_1)
    jump_table_2                             0x1000000c   Section        8  jump_table_host.o(jump_table_2)
    jump_table_3                             0x10000014   Section        8  proj_main.o(jump_table_3)
    jump_table_4                             0x1000001c   Section       72  jump_table_host.o(jump_table_4)
    .text                                    0x10002000   Section       20  boot_vectors.o(.text)
    .text                                    0x10002014   Section        0  uidiv.o(.text)
    .text                                    0x10002040   Section        0  uldiv.o(.text)
    .text                                    0x100020a2   Section        0  strstr.o(.text)
    .text                                    0x100020c6   Section        0  strlen.o(.text)
    .text                                    0x100020d4   Section        0  strcpy.o(.text)
    .text                                    0x100020e6   Section        0  llshl.o(.text)
    .text                                    0x10002104   Section        0  llushr.o(.text)
    .text                                    0x10002124   Section        0  dadd.o(.text)
    .text                                    0x10002124   Section        0  iusefp.o(.text)
    .text                                    0x10002272   Section        0  dmul.o(.text)
    .text                                    0x10002356   Section        0  ddiv.o(.text)
    .text                                    0x10002434   Section        0  dfixul.o(.text)
    .text                                    0x10002464   Section       48  cdrcmple.o(.text)
    .text                                    0x10002494   Section        0  llsshr.o(.text)
    .text                                    0x100024b8   Section        0  depilogue.o(.text)
    Long Thumb to Thumb Veneer to vFjjTyMa   0x1000273f   Thumb Code    10  anon$$obj.o(Veneer$$Code)
    Long Thumb to Thumb Veneer to G3b61UV4   0x10002749   Thumb Code    10  anon$$obj.o(Veneer$$Code)
    Long Thumb to Thumb Veneer to _resource_internal_read 0x1000284d   Thumb Code    10  anon$$obj.o(Veneer$$Code)
    i.DeQueue                                0x10002914   Section        0  ring.o(i.DeQueue)
    i.EnQueueSignal                          0x10002954   Section        0  ring.o(i.EnQueueSignal)
    i.FyG6GBeJ0lVg                           0x10002990   Section        0  zksec.o(i.FyG6GBeJ0lVg)
    FyG6GBeJ0lVg                             0x10002991   Thumb Code   502  zksec.o(i.FyG6GBeJ0lVg)
    i.HAL_Delay                              0x10002c2c   Section        0  uartupgradedev.o(i.HAL_Delay)
    HAL_Delay                                0x10002c2d   Thumb Code     8  uartupgradedev.o(i.HAL_Delay)
    i.HAL_Delay                              0x10002c34   Section        0  gui_main.o(i.HAL_Delay)
    i.HAL_GetTick                            0x10002c4c   Section        0  gui_main.o(i.HAL_GetTick)
    i.I_UART_Transmit                        0x10002c58   Section        0  uartupgradedev.o(i.I_UART_Transmit)
    i.InitQueue                              0x10002c64   Section        0  ring.o(i.InitQueue)
    i.LCD_Fill                               0x10002c84   Section        0  sdl_gfx.o(i.LCD_Fill)
    i.LCD_Set_Window                         0x10002cd0   Section        0  sdl_gfx.o(i.LCD_Set_Window)
    LCD_Set_Window                           0x10002cd1   Thumb Code   104  sdl_gfx.o(i.LCD_Set_Window)
    i.LCD_WR_DATA                            0x10002d40   Section        0  sdl_video_1.o(i.LCD_WR_DATA)
    i.LCD_WR_DATA                            0x10002d78   Section        0  sdl_gfx.o(i.LCD_WR_DATA)
    LCD_WR_DATA                              0x10002d79   Thumb Code    48  sdl_gfx.o(i.LCD_WR_DATA)
    i.LCD_WR_REG                             0x10002dac   Section        0  sdl_video_1.o(i.LCD_WR_REG)
    i.LCD_WR_REG                             0x10002de4   Section        0  sdl_gfx.o(i.LCD_WR_REG)
    LCD_WR_REG                               0x10002de5   Thumb Code    48  sdl_gfx.o(i.LCD_WR_REG)
    i.LCD_endWriteMutileData                 0x10002e18   Section        0  sdl_gfx.o(i.LCD_endWriteMutileData)
    LCD_endWriteMutileData                   0x10002e19   Thumb Code    24  sdl_gfx.o(i.LCD_endWriteMutileData)
    i.LCD_startWriteMutileData               0x10002e34   Section        0  sdl_gfx.o(i.LCD_startWriteMutileData)
    LCD_startWriteMutileData                 0x10002e35   Thumb Code    26  sdl_gfx.o(i.LCD_startWriteMutileData)
    i.LoadKeyCallbackFunc                    0x10002e50   Section        0  sdl_event.o(i.LoadKeyCallbackFunc)
    i.ModifyQueueFront                       0x10002e5c   Section        0  ring.o(i.ModifyQueueFront)
    i.PeekQueue                              0x10002e78   Section        0  ring.o(i.PeekQueue)
    i.QueueCount                             0x10002eb4   Section        0  ring.o(i.QueueCount)
    i.QueueEmpty                             0x10002eb8   Section        0  ring.o(i.QueueEmpty)
    i.QueueFull                              0x10002ec6   Section        0  ring.o(i.QueueFull)
    i.RRnQEZ5CzfNbBxz                        0x10002ed8   Section        0  zksec.o(i.RRnQEZ5CzfNbBxz)
    i.Rx_CRC_CCITT                           0x10002f4c   Section        0  uartupgradedev.o(i.Rx_CRC_CCITT)
    i.UART_Transmit                          0x10002f88   Section        0  uartcomm.o(i.UART_Transmit)
    i.UmF2CSKI1zR                            0x10002f98   Section        0  sdl_gfx.o(i.UmF2CSKI1zR)
    i.UserProcKey                            0x10002fbc   Section        0  main.o(i.UserProcKey)
    UserProcKey                              0x10002fbd   Thumb Code   232  main.o(i.UserProcKey)
    i.YYYuV3R1FCn                            0x100030ac   Section        0  sdl_gfx.o(i.YYYuV3R1FCn)
    i._SDL_fill_rect                         0x100030d0   Section        0  sdl_gfx.o(i._SDL_fill_rect)
    i.__0printf                              0x10003120   Section        0  printfa.o(i.__0printf)
    i.__0sprintf                             0x10003140   Section        0  printfa.o(i.__0sprintf)
    i.__0vprintf                             0x10003168   Section        0  printfa.o(i.__0vprintf)
    i.__NVIC_EnableIRQ                       0x10003178   Section        0  uartupgradedev.o(i.__NVIC_EnableIRQ)
    __NVIC_EnableIRQ                         0x10003179   Thumb Code    26  uartupgradedev.o(i.__NVIC_EnableIRQ)
    i._cal_val                               0x10003192   Section        0  progress.o(i._cal_val)
    _cal_val                                 0x10003193   Thumb Code    74  progress.o(i._cal_val)
    i._do_widget_proc                        0x100031dc   Section        0  guicontext.o(i._do_widget_proc)
    _do_widget_proc                          0x100031dd   Thumb Code    80  guicontext.o(i._do_widget_proc)
    i._draw_font_graph                       0x10003230   Section        0  label.o(i._draw_font_graph)
    _draw_font_graph                         0x10003231   Thumb Code   104  label.o(i._draw_font_graph)
    i._dump_val                              0x1000329c   Section        0  guicontext.o(i._dump_val)
    _dump_val                                0x1000329d   Thumb Code    46  guicontext.o(i._dump_val)
    i._fp_digits                             0x100032e4   Section        0  printfa.o(i._fp_digits)
    _fp_digits                               0x100032e5   Thumb Code   366  printfa.o(i._fp_digits)
    i._get_code_data_offset                  0x10003468   Section        0  label.o(i._get_code_data_offset)
    _get_code_data_offset                    0x10003469   Thumb Code    84  label.o(i._get_code_data_offset)
    i._get_lines_height                      0x100034bc   Section        0  label.o(i._get_lines_height)
    _get_lines_height                        0x100034bd   Thumb Code    36  label.o(i._get_lines_height)
    i._get_one_line_width                    0x100034e0   Section        0  label.o(i._get_one_line_width)
    _get_one_line_width                      0x100034e1   Thumb Code    50  label.o(i._get_one_line_width)
    i._load_page                             0x10003514   Section        0  guicontext.o(i._load_page)
    _load_page                               0x10003515   Thumb Code   402  guicontext.o(i._load_page)
    i._printf_core                           0x10003728   Section        0  printfa.o(i._printf_core)
    _printf_core                             0x10003729   Thumb Code  1744  printfa.o(i._printf_core)
    i._printf_post_padding                   0x10003e04   Section        0  printfa.o(i._printf_post_padding)
    _printf_post_padding                     0x10003e05   Thumb Code    36  printfa.o(i._printf_post_padding)
    i._printf_pre_padding                    0x10003e28   Section        0  printfa.o(i._printf_pre_padding)
    _printf_pre_padding                      0x10003e29   Thumb Code    46  printfa.o(i._printf_pre_padding)
    i._proc_message                          0x10003e58   Section        0  guicontext.o(i._proc_message)
    _proc_message                            0x10003e59   Thumb Code   176  guicontext.o(i._proc_message)
    i._proc_timer                            0x10003f0c   Section        0  guicontext.o(i._proc_timer)
    _proc_timer                              0x10003f0d   Thumb Code    72  guicontext.o(i._proc_timer)
    i._proc_touch_event                      0x10003f5c   Section        0  guicontext.o(i._proc_touch_event)
    _proc_touch_event                        0x10003f5d   Thumb Code   104  guicontext.o(i._proc_touch_event)
    i._proc_widget_refresh                   0x10003fc8   Section        0  guicontext.o(i._proc_widget_refresh)
    _proc_widget_refresh                     0x10003fc9   Thumb Code   158  guicontext.o(i._proc_widget_refresh)
    i._sputc                                 0x10004074   Section        0  printfa.o(i._sputc)
    _sputc                                   0x10004075   Thumb Code    10  printfa.o(i._sputc)
    i._unload_page                           0x10004080   Section        0  guicontext.o(i._unload_page)
    _unload_page                             0x10004081   Thumb Code    86  guicontext.o(i._unload_page)
    i._update_reg_data                       0x100040e0   Section        0  increment.o(i._update_reg_data)
    _update_reg_data                         0x100040e1   Thumb Code   100  increment.o(i._update_reg_data)
    i.aQLKY0byY09                            0x10004148   Section        0  md5.o(i.aQLKY0byY09)
    i.animation_proc                         0x1000416c   Section        0  animation.o(i.animation_proc)
    i.app_act_created_ind_func               0x10004244   Section        0  app_proj_event.o(i.app_act_created_ind_func)
    i.app_act_deleted_ind_func               0x10004320   Section        0  app_proj_event.o(i.app_act_deleted_ind_func)
    i.app_addr_resolve_result_ind_func       0x100043c8   Section        0  app_proj_event.o(i.app_addr_resolve_result_ind_func)
    i.app_adv_complete_ind_func              0x100043e8   Section        0  app_proj_event.o(i.app_adv_complete_ind_func)
    i.app_adv_report_ind_func                0x1000449c   Section        0  app_proj_event.o(i.app_adv_report_ind_func)
    i.app_conn_complete_ind_func             0x10004540   Section        0  app_proj_event.o(i.app_conn_complete_ind_func)
    i.app_connection_master_encrypt_compeleted_ind_func 0x100045e4   Section        0  app_proj_event.o(i.app_connection_master_encrypt_compeleted_ind_func)
    i.app_connection_master_encrypted_ind_func 0x10004690   Section        0  app_proj_event.o(i.app_connection_master_encrypted_ind_func)
    i.app_connection_paring_info_ind_func    0x10004724   Section        0  app_proj_event.o(i.app_connection_paring_info_ind_func)
    i.app_connection_req_ind_func            0x100047c4   Section        0  app_proj_event.o(i.app_connection_req_ind_func)
    i.app_connection_slave_encrypted_ind_func 0x10004864   Section        0  app_proj_event.o(i.app_connection_slave_encrypted_ind_func)
    i.app_connection_success_ind_func        0x100048f8   Section        0  app_proj_event.o(i.app_connection_success_ind_func)
    i.app_db_init_complete_ind_func          0x10004998   Section        0  app_proj_event.o(i.app_db_init_complete_ind_func)
    i.app_disconnect_ind_func                0x100049a4   Section        0  app_proj_event.o(i.app_disconnect_ind_func)
    i.app_gap_evt_cb                         0x10004a4c   Section        0  ble_simple_peripheral.o(i.app_gap_evt_cb)
    i.app_get_current_rssi_rsp               0x10004d00   Section        0  app_task.o(i.app_get_current_rssi_rsp)
    app_get_current_rssi_rsp                 0x10004d01   Thumb Code    34  app_task.o(i.app_get_current_rssi_rsp)
    i.app_get_handler                        0x10004d28   Section        0  app_task.o(i.app_get_handler)
    app_get_handler                          0x10004d29   Thumb Code    70  app_task.o(i.app_get_handler)
    i.app_get_info_ind_func                  0x10004d70   Section        0  app_proj_event.o(i.app_get_info_ind_func)
    i.app_main                               0x10004da4   Section        0  entry.o(i.app_main)
    i.app_per_sync_completed_ind_func        0x10004f90   Section        0  app_proj_event.o(i.app_per_sync_completed_ind_func)
    i.app_per_sync_established_ind_func      0x1000502c   Section        0  app_proj_event.o(i.app_per_sync_established_ind_func)
    i.app_reset_complete_ind_func            0x100050d4   Section        0  app_proj_event.o(i.app_reset_complete_ind_func)
    i.app_scanning_completed_ind_func        0x10005100   Section        0  app_proj_event.o(i.app_scanning_completed_ind_func)
    i.app_sec_msg_dflt_handler               0x10005198   Section        0  app_sec.o(i.app_sec_msg_dflt_handler)
    app_sec_msg_dflt_handler                 0x10005199   Thumb Code     4  app_sec.o(i.app_sec_msg_dflt_handler)
    i.app_set_dev_config_complete_ind_func   0x1000519c   Section        0  app_proj_event.o(i.app_set_dev_config_complete_ind_func)
    i.app_set_phy_ind_func                   0x100051d0   Section        0  app_proj_event.o(i.app_set_phy_ind_func)
    i.app_svc_added_ind_func                 0x10005278   Section        0  app_proj_event.o(i.app_svc_added_ind_func)
    i.app_update_params_complete_ind_func    0x1000528c   Section        0  app_proj_event.o(i.app_update_params_complete_ind_func)
    i.app_update_params_rejected_ind_func    0x10005290   Section        0  app_proj_event.o(i.app_update_params_rejected_ind_func)
    i.app_update_params_update_ind_func      0x10005340   Section        0  app_proj_event.o(i.app_update_params_update_ind_func)
    i.app_update_phy_rejected_ind_func       0x1000540c   Section        0  app_proj_event.o(i.app_update_phy_rejected_ind_func)
    i.appm_adv_get_defer_op                  0x100054b4   Section        0  app.o(i.appm_adv_get_defer_op)
    i.appm_adv_recv_gapm_cmp                 0x100054c4   Section        0  app.o(i.appm_adv_recv_gapm_cmp)
    i.appm_adv_set_defer_op                  0x100056a4   Section        0  app.o(i.appm_adv_set_defer_op)
    i.appm_conn_recv_gapm_cmp                0x100056bc   Section        0  app_conn.o(i.appm_conn_recv_gapm_cmp)
    i.appm_create_adv_act                    0x10005710   Section        0  app.o(i.appm_create_adv_act)
    i.appm_create_aux_adv_act                0x10005728   Section        0  app.o(i.appm_create_aux_adv_act)
    i.appm_create_conn_act                   0x100057d8   Section        0  app.o(i.appm_create_conn_act)
    i.appm_create_legacy_adv_act             0x10005808   Section        0  app.o(i.appm_create_legacy_adv_act)
    i.appm_create_per_adv_act                0x100058cc   Section        0  app.o(i.appm_create_per_adv_act)
    i.appm_create_scan_act                   0x1000594c   Section        0  app.o(i.appm_create_scan_act)
    i.appm_delete_act                        0x10005990   Section        0  app.o(i.appm_delete_act)
    i.appm_exc_activity_cmp                  0x100059dc   Section        0  app.o(i.appm_exc_activity_cmp)
    i.appm_execute_activity_cmd              0x10005a18   Section        0  app.o(i.appm_execute_activity_cmd)
    i.appm_init_imp                          0x10005a5c   Section        0  app.o(i.appm_init_imp)
    i.appm_init_imp_for_hci                  0x10005ab8   Section        0  app.o(i.appm_init_imp_for_hci)
    i.appm_msg_handler                       0x10005ae8   Section        0  app_task.o(i.appm_msg_handler)
    appm_msg_handler                         0x10005ae9   Thumb Code   160  app_task.o(i.appm_msg_handler)
    i.appm_period_sync_recv_gapm_cmp         0x10005b94   Section        0  app.o(i.appm_period_sync_recv_gapm_cmp)
    i.appm_scan_recv_gapm_cmp                0x10005be0   Section        0  app.o(i.appm_scan_recv_gapm_cmp)
    i.appm_set_advertising_data              0x10005c2c   Section        0  app.o(i.appm_set_advertising_data)
    i.appm_set_advertising_param             0x10005d68   Section        0  app.o(i.appm_set_advertising_param)
    i.appm_set_per_adv_data                  0x10005e44   Section        0  app.o(i.appm_set_per_adv_data)
    i.appm_set_scan_response_data            0x10005f44   Section        0  app.o(i.appm_set_scan_response_data)
    i.appm_start_advertising                 0x10006090   Section        0  app.o(i.appm_start_advertising)
    i.appm_start_conn                        0x1000619c   Section        0  app_conn.o(i.appm_start_conn)
    i.appm_stop_advertising                  0x100062b4   Section        0  app.o(i.appm_stop_advertising)
    i.attc_err_rsp_handler                   0x1000636c   Section        0  attc.o(i.attc_err_rsp_handler)
    attc_err_rsp_handler                     0x1000636d   Thumb Code    14  attc.o(i.attc_err_rsp_handler)
    i.attc_exc_mtu_rsp_handler               0x1000637a   Section        0  attc.o(i.attc_exc_mtu_rsp_handler)
    attc_exc_mtu_rsp_handler                 0x1000637b   Thumb Code    56  attc.o(i.attc_exc_mtu_rsp_handler)
    i.attc_exe_wr_rsp_handler                0x100063b2   Section        0  attc.o(i.attc_exe_wr_rsp_handler)
    attc_exe_wr_rsp_handler                  0x100063b3   Thumb Code    56  attc.o(i.attc_exe_wr_rsp_handler)
    i.attc_find_by_type_rsp_handler          0x100063ea   Section        0  attc.o(i.attc_find_by_type_rsp_handler)
    attc_find_by_type_rsp_handler            0x100063eb   Thumb Code   172  attc.o(i.attc_find_by_type_rsp_handler)
    i.attc_find_info_rsp_handler             0x10006496   Section        0  attc.o(i.attc_find_info_rsp_handler)
    attc_find_info_rsp_handler               0x10006497   Thumb Code   180  attc.o(i.attc_find_info_rsp_handler)
    i.attc_hdl_val_ntf_ind_handler           0x1000654c   Section        0  attc.o(i.attc_hdl_val_ntf_ind_handler)
    attc_hdl_val_ntf_ind_handler             0x1000654d   Thumb Code   124  attc.o(i.attc_hdl_val_ntf_ind_handler)
    i.attc_l2cc_pdu_recv_handler             0x100065cc   Section        0  attc.o(i.attc_l2cc_pdu_recv_handler)
    i.attc_prep_wr_rsp_handler               0x10006624   Section        0  attc.o(i.attc_prep_wr_rsp_handler)
    attc_prep_wr_rsp_handler                 0x10006625   Thumb Code    96  attc.o(i.attc_prep_wr_rsp_handler)
    i.attc_rd_by_grp_type_rsp_handler        0x10006684   Section        0  attc.o(i.attc_rd_by_grp_type_rsp_handler)
    attc_rd_by_grp_type_rsp_handler          0x10006685   Thumb Code   242  attc.o(i.attc_rd_by_grp_type_rsp_handler)
    i.attc_rd_by_type_rsp_handler            0x10006778   Section        0  attc.o(i.attc_rd_by_type_rsp_handler)
    attc_rd_by_type_rsp_handler              0x10006779   Thumb Code   616  attc.o(i.attc_rd_by_type_rsp_handler)
    i.attc_rd_mult_rsp_handler               0x100069e4   Section        0  attc.o(i.attc_rd_mult_rsp_handler)
    attc_rd_mult_rsp_handler                 0x100069e5   Thumb Code   182  attc.o(i.attc_rd_mult_rsp_handler)
    i.attc_rd_rsp_handler                    0x10006a9c   Section        0  attc.o(i.attc_rd_rsp_handler)
    attc_rd_rsp_handler                      0x10006a9d   Thumb Code   256  attc.o(i.attc_rd_rsp_handler)
    i.attc_send_att_req                      0x10006ba0   Section        0  attc.o(i.attc_send_att_req)
    i.attc_send_execute                      0x10006bd0   Section        0  attc.o(i.attc_send_execute)
    i.attc_send_hdl_cfm                      0x10006bf8   Section        0  attc.o(i.attc_send_hdl_cfm)
    i.attc_send_read_ind                     0x10006c1c   Section        0  attc.o(i.attc_send_read_ind)
    i.attc_wr_rsp_handler                    0x10006d04   Section        0  attc.o(i.attc_wr_rsp_handler)
    attc_wr_rsp_handler                      0x10006d05   Thumb Code    32  attc.o(i.attc_wr_rsp_handler)
    i.attm_att_set_value                     0x10006d24   Section        0  attm.o(i.attm_att_set_value)
    i.attm_att_update_perm                   0x10006dd0   Section        0  attm.o(i.attm_att_update_perm)
    i.attm_convert_to128                     0x10006e38   Section        0  attm.o(i.attm_convert_to128)
    i.attm_get_value                         0x10006e78   Section        0  attm.o(i.attm_get_value)
    i.attm_init                              0x10006ff4   Section        0  attm.o(i.attm_init)
    i.attm_is_bt16_uuid                      0x10007008   Section        0  attm.o(i.attm_is_bt16_uuid)
    i.attm_is_bt32_uuid                      0x1000700c   Section        0  attm.o(i.attm_is_bt32_uuid)
    i.attm_svc_create_db                     0x10007010   Section        0  attm.o(i.attm_svc_create_db)
    i.attm_svc_create_db_ext                 0x10007110   Section        0  attm.o(i.attm_svc_create_db_ext)
    i.attm_svc_get_permission                0x10007274   Section        0  attm.o(i.attm_svc_get_permission)
    i.attm_uuid16_comp                       0x10007290   Section        0  attm.o(i.attm_uuid16_comp)
    i.attm_uuid_comp                         0x1000729c   Section        0  attm.o(i.attm_uuid_comp)
    i.attmdb_add_service                     0x100072f4   Section        0  attm_db.o(i.attmdb_add_service)
    i.attmdb_att_get_permission              0x10007368   Section        0  attm_db.o(i.attmdb_att_get_permission)
    i.attmdb_destroy                         0x10007478   Section        0  attm_db.o(i.attmdb_destroy)
    i.attmdb_get_attribute                   0x10007498   Section        0  attm_db.o(i.attmdb_get_attribute)
    i.attmdb_get_max_len                     0x100074cc   Section        0  attm_db.o(i.attmdb_get_max_len)
    i.attmdb_get_next_att                    0x10007528   Section        0  attm_db.o(i.attmdb_get_next_att)
    i.attmdb_get_service                     0x100075a0   Section        0  attm_db.o(i.attmdb_get_service)
    i.attmdb_get_uuid                        0x100075e8   Section        0  attm_db.o(i.attmdb_get_uuid)
    i.attmdb_svc_calc_len                    0x100076be   Section        0  attm_db.o(i.attmdb_svc_calc_len)
    attmdb_svc_calc_len                      0x100076bf   Thumb Code   452  attm_db.o(i.attmdb_svc_calc_len)
    i.attmdb_svc_check_hdl                   0x10007884   Section        0  attm_db.o(i.attmdb_svc_check_hdl)
    i.attmdb_svc_init                        0x100078d8   Section        0  attm_db.o(i.attmdb_svc_init)
    attmdb_svc_init                          0x100078d9   Thumb Code   458  attm_db.o(i.attmdb_svc_init)
    i.attmdb_uuid16_comp                     0x10007aa2   Section        0  attm_db.o(i.attmdb_uuid16_comp)
    i.atts_check_length_and_offset           0x10007adc   Section        0  atts.o(i.atts_check_length_and_offset)
    atts_check_length_and_offset             0x10007add   Thumb Code    44  atts.o(i.atts_check_length_and_offset)
    i.atts_clear_prep_data                   0x10007b08   Section        0  atts.o(i.atts_clear_prep_data)
    i.atts_clear_read_cache                  0x10007b2c   Section        0  atts.o(i.atts_clear_read_cache)
    i.atts_clear_rsp_data                    0x10007b50   Section        0  atts.o(i.atts_clear_rsp_data)
    i.atts_execute_write_req                 0x10007b74   Section        0  atts.o(i.atts_execute_write_req)
    atts_execute_write_req                   0x10007b75   Thumb Code   372  atts.o(i.atts_execute_write_req)
    i.atts_find_by_type_req                  0x10007cec   Section        0  atts.o(i.atts_find_by_type_req)
    atts_find_by_type_req                    0x10007ced   Thumb Code   386  atts.o(i.atts_find_by_type_req)
    i.atts_find_end                          0x10007e74   Section        0  atts.o(i.atts_find_end)
    atts_find_end                            0x10007e75   Thumb Code   122  atts.o(i.atts_find_end)
    i.atts_find_info_req                     0x10007ef0   Section        0  atts.o(i.atts_find_info_req)
    atts_find_info_req                       0x10007ef1   Thumb Code   322  atts.o(i.atts_find_info_req)
    i.atts_find_value_by_uuid                0x10008038   Section        0  atts.o(i.atts_find_value_by_uuid)
    atts_find_value_by_uuid                  0x10008039   Thumb Code   152  atts.o(i.atts_find_value_by_uuid)
    i.atts_get_att_chk_perm                  0x100080d0   Section        0  atts.o(i.atts_get_att_chk_perm)
    atts_get_att_chk_perm                    0x100080d1   Thumb Code   148  atts.o(i.atts_get_att_chk_perm)
    i.atts_get_dest_task                     0x10008168   Section        0  atts.o(i.atts_get_dest_task)
    atts_get_dest_task                       0x10008169   Thumb Code    26  atts.o(i.atts_get_dest_task)
    i.atts_get_value                         0x10008184   Section        0  atts.o(i.atts_get_value)
    atts_get_value                           0x10008185   Thumb Code   126  atts.o(i.atts_get_value)
    i.atts_l2cc_pdu_recv_handler             0x10008208   Section        0  atts.o(i.atts_l2cc_pdu_recv_handler)
    i.atts_mtu_exc_req                       0x100082ac   Section        0  atts.o(i.atts_mtu_exc_req)
    atts_mtu_exc_req                         0x100082ad   Thumb Code    66  atts.o(i.atts_mtu_exc_req)
    i.atts_prepare_write_req                 0x100082f0   Section        0  atts.o(i.atts_prepare_write_req)
    atts_prepare_write_req                   0x100082f1   Thumb Code   244  atts.o(i.atts_prepare_write_req)
    i.atts_process_pdu                       0x100083e8   Section        0  atts.o(i.atts_process_pdu)
    i.atts_read_blob_req                     0x1000845c   Section        0  atts.o(i.atts_read_blob_req)
    atts_read_blob_req                       0x1000845d   Thumb Code   186  atts.o(i.atts_read_blob_req)
    i.atts_read_by_grp_type_req              0x10008518   Section        0  atts.o(i.atts_read_by_grp_type_req)
    atts_read_by_grp_type_req                0x10008519   Thumb Code   442  atts.o(i.atts_read_by_grp_type_req)
    i.atts_read_by_type_req                  0x100086d8   Section        0  atts.o(i.atts_read_by_type_req)
    atts_read_by_type_req                    0x100086d9   Thumb Code   420  atts.o(i.atts_read_by_type_req)
    i.atts_read_mult_req                     0x10008880   Section        0  atts.o(i.atts_read_mult_req)
    atts_read_mult_req                       0x10008881   Thumb Code   284  atts.o(i.atts_read_mult_req)
    i.atts_read_req                          0x100089a0   Section        0  atts.o(i.atts_read_req)
    atts_read_req                            0x100089a1   Thumb Code   156  atts.o(i.atts_read_req)
    i.atts_send_error                        0x10008a3c   Section        0  atts.o(i.atts_send_error)
    i.atts_send_event                        0x10008a64   Section        0  atts.o(i.atts_send_event)
    i.atts_store_prep_data                   0x10008af4   Section        0  atts.o(i.atts_store_prep_data)
    atts_store_prep_data                     0x10008af5   Thumb Code   116  atts.o(i.atts_store_prep_data)
    i.atts_update_elmt                       0x10008b6c   Section        0  atts.o(i.atts_update_elmt)
    atts_update_elmt                         0x10008b6d   Thumb Code    68  atts.o(i.atts_update_elmt)
    i.atts_write_cmd                         0x10008bb0   Section        0  atts.o(i.atts_write_cmd)
    atts_write_cmd                           0x10008bb1   Thumb Code    62  atts.o(i.atts_write_cmd)
    i.atts_write_req                         0x10008bee   Section        0  atts.o(i.atts_write_req)
    atts_write_req                           0x10008bef   Thumb Code    78  atts.o(i.atts_write_req)
    i.atts_write_rsp_send                    0x10008c3c   Section        0  atts.o(i.atts_write_rsp_send)
    i.atts_write_signed                      0x10008c6a   Section        0  atts.o(i.atts_write_signed)
    atts_write_signed                        0x10008c6b   Thumb Code   122  atts.o(i.atts_write_signed)
    i.atts_write_signed_cfm                  0x10008ce4   Section        0  atts.o(i.atts_write_signed_cfm)
    i.ble_add_svc                            0x10008d20   Section        0  app.o(i.ble_add_svc)
    i.ble_bond_addr_resolve_cb               0x10008d58   Section        0  user_bond_manage.o(i.ble_bond_addr_resolve_cb)
    ble_bond_addr_resolve_cb                 0x10008d59   Thumb Code   144  user_bond_manage.o(i.ble_bond_addr_resolve_cb)
    i.ble_bond_check                         0x10008e44   Section        0  user_bond_manage.o(i.ble_bond_check)
    i.ble_bond_get_info                      0x10008fd0   Section        0  user_bond_manage.o(i.ble_bond_get_info)
    i.ble_bond_init                          0x10009110   Section        0  user_bond_manage.o(i.ble_bond_init)
    i.ble_bond_read_info_from_flash          0x100091d4   Section        0  user_bond_manage.o(i.ble_bond_read_info_from_flash)
    i.ble_bond_store_info                    0x10009270   Section        0  user_bond_manage.o(i.ble_bond_store_info)
    i.ble_bond_write_info_to_flash           0x10009474   Section        0  user_bond_manage.o(i.ble_bond_write_info_to_flash)
    i.ble_gap_set_dev_config                 0x10009544   Section        0  app.o(i.ble_gap_set_dev_config)
    i.ble_sec_check_ediv_rand                0x100095e4   Section        0  app_sec.o(i.ble_sec_check_ediv_rand)
    i.ble_sec_get_bond_status                0x1000962c   Section        0  app_sec.o(i.ble_sec_get_bond_status)
    i.ble_sec_init                           0x10009638   Section        0  app_sec.o(i.ble_sec_init)
    i.ble_sec_resolve_address                0x100096ac   Section        0  app_sec.o(i.ble_sec_resolve_address)
    i.ble_sec_set_pairing_param              0x100096f4   Section        0  app_sec.o(i.ble_sec_set_pairing_param)
    i.ble_set_evt_func                       0x10009704   Section        0  app.o(i.ble_set_evt_func)
    i.ble_stack_configure                    0x10009718   Section        0  jump_table_host.o(i.ble_stack_configure)
    i.ble_stack_init                         0x1000984c   Section        0  app.o(i.ble_stack_init)
    i.block_get_next                         0x100098dc   Section        0  fy_mem.o(i.block_get_next)
    block_get_next                           0x100098dd   Thumb Code    24  fy_mem.o(i.block_get_next)
    i.block_trunc                            0x100098fc   Section        0  fy_mem.o(i.block_trunc)
    block_trunc                              0x100098fd   Thumb Code    68  fy_mem.o(i.block_trunc)
    i.button_proc                            0x10009940   Section        0  button.o(i.button_proc)
    i.calc                                   0x100099d0   Section        0  md5.o(i.calc)
    calc                                     0x100099d1   Thumb Code  1912  md5.o(i.calc)
    i.calib_meter_evt_end                    0x1000a1c0   Section        0  adv_check_mode.o(i.calib_meter_evt_end)
    i.calib_meter_recv_msg                   0x1000a1c2   Section        0  adv_check_mode.o(i.calib_meter_recv_msg)
    i.check_timer_handle                     0x1000a1c4   Section        0  os_timer.o(i.check_timer_handle)
    i.cmdack                                 0x1000a2e4   Section        0  uartcomm.o(i.cmdack)
    i.decode_base64                          0x1000a2f0   Section        0  zksec.o(i.decode_base64)
    i.deinitdev                              0x1000a3d4   Section        0  uartupgradedev.o(i.deinitdev)
    deinitdev                                0x1000a3d5   Thumb Code     2  uartupgradedev.o(i.deinitdev)
    i.deinitdev                              0x1000a3d6   Section        0  uartcomm.o(i.deinitdev)
    deinitdev                                0x1000a3d7   Thumb Code     2  uartcomm.o(i.deinitdev)
    i.dev_timer0_init                        0x1000a3d8   Section        0  gui_main.o(i.dev_timer0_init)
    i.dgus_cmdpro                            0x1000a418   Section        0  dgus_cmd.o(i.dgus_cmdpro)
    i.disableDisplay                         0x1000a66c   Section        0  uartupgradedev.o(i.disableDisplay)
    i.dma_init                               0x1000a6a0   Section        0  driver_dma.o(i.dma_init)
    i.dxjW68jVf0X_q                          0x1000a7a4   Section        0  zksec.o(i.dxjW68jVf0X_q)
    dxjW68jVf0X_q                            0x1000a7a5   Thumb Code   288  zksec.o(i.dxjW68jVf0X_q)
    i.enableDisplay                          0x1000a904   Section        0  uartupgradedev.o(i.enableDisplay)
    i.encode_base64                          0x1000a90c   Section        0  zksec.o(i.encode_base64)
    i.event_deinit                           0x1000aa0c   Section        0  sdl_event.o(i.event_deinit)
    i.event_init                             0x1000aa10   Section        0  sdl_event.o(i.event_init)
    i.event_poll                             0x1000aa60   Section        0  sdl_event.o(i.event_poll)
    i.exti_isr                               0x1000aadc   Section        0  sdl_event.o(i.exti_isr)
    i.flush_flash                            0x1000aae0   Section        0  uartupgradedev.o(i.flush_flash)
    i.from_task_func_to_msg_handle           0x1000ab5c   Section        0  os_task.o(i.from_task_func_to_msg_handle)
    i.fy_bits_counts_of_one                  0x1000ab80   Section        0  fy_bits.o(i.fy_bits_counts_of_one)
    i.fy_bits_counts_of_one_c                0x1000aba8   Section        0  imgtext_scroll.o(i.fy_bits_counts_of_one_c)
    fy_bits_counts_of_one_c                  0x1000aba9   Thumb Code    40  imgtext_scroll.o(i.fy_bits_counts_of_one_c)
    i.fy_flash_page_write                    0x1000abd0   Section        0  uartupgradedev.o(i.fy_flash_page_write)
    i.fy_mem_alloc                           0x1000ac64   Section        0  fy_mem.o(i.fy_mem_alloc)
    i.fy_mem_defrag                          0x1000acd4   Section        0  fy_mem.o(i.fy_mem_defrag)
    i.fy_mem_free                            0x1000ad1c   Section        0  fy_mem.o(i.fy_mem_free)
    i.fy_mem_init                            0x1000ad70   Section        0  fy_mem.o(i.fy_mem_init)
    i.gap_address_get                        0x1000adac   Section        0  gap_api.o(i.gap_address_get)
    i.gap_address_set                        0x1000adcc   Section        0  gap_api.o(i.gap_address_set)
    i.gap_bond_manager_init                  0x1000adf8   Section        0  gap_api.o(i.gap_bond_manager_init)
    i.gap_dev_name_get                       0x1000adfc   Section        0  gap_api.o(i.gap_dev_name_get)
    i.gap_dev_name_set                       0x1000ae14   Section        0  gap_api.o(i.gap_dev_name_set)
    i.gap_disconnect_req                     0x1000ae30   Section        0  gap_api.o(i.gap_disconnect_req)
    i.gap_get_connect_num                    0x1000aec4   Section        0  gap_api.o(i.gap_get_connect_num)
    i.gap_get_connect_status                 0x1000aee4   Section        0  gap_api.o(i.gap_get_connect_status)
    i.gap_get_dev_appearance                 0x1000aef4   Section        0  gap_api.o(i.gap_get_dev_appearance)
    i.gap_paring_req_cb                      0x1000af00   Section        0  app_sec.o(i.gap_paring_req_cb)
    gap_paring_req_cb                        0x1000af01   Thumb Code   108  app_sec.o(i.gap_paring_req_cb)
    i.gap_security_param_init                0x1000af70   Section        0  gap_api.o(i.gap_security_param_init)
    i.gap_set_advertising_data               0x1000af74   Section        0  gap_api.o(i.gap_set_advertising_data)
    i.gap_set_advertising_param              0x1000af7e   Section        0  gap_api.o(i.gap_set_advertising_param)
    i.gap_set_advertising_rsp_data           0x1000af86   Section        0  gap_api.o(i.gap_set_advertising_rsp_data)
    i.gap_set_cb_func                        0x1000af90   Section        0  gap_api.o(i.gap_set_cb_func)
    i.gap_set_dev_appearance                 0x1000af9c   Section        0  gap_api.o(i.gap_set_dev_appearance)
    i.gap_start_advertising                  0x1000afa8   Section        0  gap_api.o(i.gap_start_advertising)
    i.gapc_auth_get                          0x1000afb0   Section        0  gapc.o(i.gapc_auth_get)
    i.gapc_auth_set                          0x1000aff4   Section        0  gapc.o(i.gapc_auth_set)
    i.gapc_bond_cfm_handler                  0x1000b058   Section        0  gapc_task.o(i.gapc_bond_cfm_handler)
    gapc_bond_cfm_handler                    0x1000b059   Thumb Code   220  gapc_task.o(i.gapc_bond_cfm_handler)
    i.gapc_bond_cmd_handler                  0x1000b138   Section        0  gapc_task.o(i.gapc_bond_cmd_handler)
    gapc_bond_cmd_handler                    0x1000b139   Thumb Code    88  gapc_task.o(i.gapc_bond_cmd_handler)
    i.gapc_bond_ind_handler                  0x1000b194   Section        0  app_sec.o(i.gapc_bond_ind_handler)
    gapc_bond_ind_handler                    0x1000b195   Thumb Code   338  app_sec.o(i.gapc_bond_ind_handler)
    i.gapc_bond_req_ind_handler              0x1000b390   Section        0  app_sec.o(i.gapc_bond_req_ind_handler)
    gapc_bond_req_ind_handler                0x1000b391   Thumb Code   436  app_sec.o(i.gapc_bond_req_ind_handler)
    i.gapc_cleanup                           0x1000b5ac   Section        0  gapc.o(i.gapc_cleanup)
    gapc_cleanup                             0x1000b5ad   Thumb Code   122  gapc.o(i.gapc_cleanup)
    i.gapc_cmp_evt_handler                   0x1000b62c   Section        0  app_task.o(i.gapc_cmp_evt_handler)
    gapc_cmp_evt_handler                     0x1000b62d   Thumb Code   116  app_task.o(i.gapc_cmp_evt_handler)
    i.gapc_cmp_evt_handler                   0x1000b6f0   Section        0  gapc_task.o(i.gapc_cmp_evt_handler)
    gapc_cmp_evt_handler                     0x1000b6f1   Thumb Code     4  gapc_task.o(i.gapc_cmp_evt_handler)
    i.gapc_cmp_evt_handler                   0x1000b6f4   Section        0  gattc_task.o(i.gapc_cmp_evt_handler)
    gapc_cmp_evt_handler                     0x1000b6f5   Thumb Code    54  gattc_task.o(i.gapc_cmp_evt_handler)
    i.gapc_cmp_evt_handler                   0x1000b730   Section        0  gapm_init.o(i.gapc_cmp_evt_handler)
    i.gapc_con_cleanup                       0x1000b794   Section        0  gapc.o(i.gapc_con_cleanup)
    i.gapc_con_create                        0x1000b7a4   Section        0  gapc.o(i.gapc_con_create)
    i.gapc_connection_cfm_handler            0x1000b91c   Section        0  gapc_task.o(i.gapc_connection_cfm_handler)
    gapc_connection_cfm_handler              0x1000b91d   Thumb Code   126  gapc_task.o(i.gapc_connection_cfm_handler)
    i.gapc_connection_req_ind_handler        0x1000b9a0   Section        0  app_task.o(i.gapc_connection_req_ind_handler)
    gapc_connection_req_ind_handler          0x1000b9a1   Thumb Code   104  app_task.o(i.gapc_connection_req_ind_handler)
    i.gapc_connection_send_cfm               0x1000ba14   Section        0  app_task.o(i.gapc_connection_send_cfm)
    i.gapc_default_msg_handler               0x1000ba5c   Section        0  gapc_task.o(i.gapc_default_msg_handler)
    gapc_default_msg_handler                 0x1000ba5d   Thumb Code     4  gapc_task.o(i.gapc_default_msg_handler)
    i.gapc_disconnect_cmd_handler            0x1000ba60   Section        0  gapc_task.o(i.gapc_disconnect_cmd_handler)
    gapc_disconnect_cmd_handler              0x1000ba61   Thumb Code   108  gapc_task.o(i.gapc_disconnect_cmd_handler)
    i.gapc_disconnect_ind_handler            0x1000bad0   Section        0  app_task.o(i.gapc_disconnect_ind_handler)
    gapc_disconnect_ind_handler              0x1000bad1   Thumb Code    36  app_task.o(i.gapc_disconnect_ind_handler)
    i.gapc_enc_keysize_get                   0x1000baf8   Section        0  gapc.o(i.gapc_enc_keysize_get)
    i.gapc_enc_keysize_set                   0x1000bb14   Section        0  gapc.o(i.gapc_enc_keysize_set)
    i.gapc_encrypt_cfm_handler               0x1000bb2c   Section        0  gapc_task.o(i.gapc_encrypt_cfm_handler)
    gapc_encrypt_cfm_handler                 0x1000bb2d   Thumb Code    54  gapc_task.o(i.gapc_encrypt_cfm_handler)
    i.gapc_encrypt_cmd_handler               0x1000bb64   Section        0  gapc_task.o(i.gapc_encrypt_cmd_handler)
    gapc_encrypt_cmd_handler                 0x1000bb65   Thumb Code    88  gapc_task.o(i.gapc_encrypt_cmd_handler)
    i.gapc_encrypt_ind_handler               0x1000bbc0   Section        0  app_sec.o(i.gapc_encrypt_ind_handler)
    gapc_encrypt_ind_handler                 0x1000bbc1   Thumb Code    32  app_sec.o(i.gapc_encrypt_ind_handler)
    i.gapc_encrypt_req_ind_handler           0x1000bbe4   Section        0  app_sec.o(i.gapc_encrypt_req_ind_handler)
    gapc_encrypt_req_ind_handler             0x1000bbe5   Thumb Code   132  app_sec.o(i.gapc_encrypt_req_ind_handler)
    i.gapc_gen_dh_key_ind_handler            0x1000bcb4   Section        0  gapc_task.o(i.gapc_gen_dh_key_ind_handler)
    gapc_gen_dh_key_ind_handler              0x1000bcb5   Thumb Code    28  gapc_task.o(i.gapc_gen_dh_key_ind_handler)
    i.gapc_get_bdaddr                        0x1000bcd0   Section        0  gapc.o(i.gapc_get_bdaddr)
    i.gapc_get_chan_sel_algo                 0x1000bcf4   Section        0  gapc.o(i.gapc_get_chan_sel_algo)
    i.gapc_get_conhdl                        0x1000bd0c   Section        0  gapc.o(i.gapc_get_conhdl)
    i.gapc_get_conidx_imp                    0x1000bd34   Section        0  gapc.o(i.gapc_get_conidx_imp)
    i.gapc_get_csrk                          0x1000bd6c   Section        0  gapc.o(i.gapc_get_csrk)
    i.gapc_get_dest_task                     0x1000bd90   Section        0  gapc.o(i.gapc_get_dest_task)
    i.gapc_get_dev_info_cfm_handler          0x1000bda0   Section        0  gapc_task.o(i.gapc_get_dev_info_cfm_handler)
    gapc_get_dev_info_cfm_handler            0x1000bda1   Thumb Code   186  gapc_task.o(i.gapc_get_dev_info_cfm_handler)
    i.gapc_get_dev_info_req_ind_handler      0x1000be5a   Section        0  app_task.o(i.gapc_get_dev_info_req_ind_handler)
    gapc_get_dev_info_req_ind_handler        0x1000be5b   Thumb Code   108  app_task.o(i.gapc_get_dev_info_req_ind_handler)
    i.gapc_get_info_cmd_handler              0x1000bec8   Section        0  gapc_task.o(i.gapc_get_info_cmd_handler)
    gapc_get_info_cmd_handler                0x1000bec9   Thumb Code   300  gapc_task.o(i.gapc_get_info_cmd_handler)
    i.gapc_get_operation                     0x1000c000   Section        0  gapc.o(i.gapc_get_operation)
    i.gapc_get_operation_ptr                 0x1000c01c   Section        0  gapc.o(i.gapc_get_operation_ptr)
    i.gapc_get_requester                     0x1000c02c   Section        0  gapc.o(i.gapc_get_requester)
    i.gapc_get_role                          0x1000c04c   Section        0  gapc.o(i.gapc_get_role)
    i.gapc_get_sign_counter                  0x1000c06c   Section        0  gapc.o(i.gapc_get_sign_counter)
    i.gapc_hci_handler                       0x1000c090   Section        0  gapc_hci.o(i.gapc_hci_handler)
    i.gapc_init                              0x1000c0f4   Section        0  gapc.o(i.gapc_init)
    i.gapc_is_disc_connection                0x1000c140   Section        0  gapc.o(i.gapc_is_disc_connection)
    i.gapc_is_sec_set                        0x1000c144   Section        0  gapc.o(i.gapc_is_sec_set)
    i.gapc_key_press_notification_cmd_handler 0x1000c184   Section        0  gapc_task.o(i.gapc_key_press_notification_cmd_handler)
    gapc_key_press_notification_cmd_handler  0x1000c185   Thumb Code   104  gapc_task.o(i.gapc_key_press_notification_cmd_handler)
    i.gapc_link_encrypted                    0x1000c1f4   Section        0  gapc.o(i.gapc_link_encrypted)
    i.gapc_lk_sec_lvl_get                    0x1000c21c   Section        0  gapc.o(i.gapc_lk_sec_lvl_get)
    i.gapc_operation_cleanup                 0x1000c248   Section        0  gapc.o(i.gapc_operation_cleanup)
    gapc_operation_cleanup                   0x1000c249   Thumb Code    92  gapc.o(i.gapc_operation_cleanup)
    i.gapc_param_update_cfm_handler          0x1000c2a8   Section        0  gapc_task.o(i.gapc_param_update_cfm_handler)
    gapc_param_update_cfm_handler            0x1000c2a9   Thumb Code   256  gapc_task.o(i.gapc_param_update_cfm_handler)
    i.gapc_param_update_cmd_handler          0x1000c3ac   Section        0  gapc_task.o(i.gapc_param_update_cmd_handler)
    gapc_param_update_cmd_handler            0x1000c3ad   Thumb Code   276  gapc_task.o(i.gapc_param_update_cmd_handler)
    i.gapc_param_update_req_ind_handler      0x1000c4c8   Section        0  app_task.o(i.gapc_param_update_req_ind_handler)
    gapc_param_update_req_ind_handler        0x1000c4c9   Thumb Code   130  app_task.o(i.gapc_param_update_req_ind_handler)
    i.gapc_param_update_sanity               0x1000c554   Section        0  gapc.o(i.gapc_param_update_sanity)
    i.gapc_peer_att_info_ind_handler         0x1000c57c   Section        0  gapm_init.o(i.gapc_peer_att_info_ind_handler)
    i.gapc_peer_features_ind_handler         0x1000c5e0   Section        0  app_task.o(i.gapc_peer_features_ind_handler)
    gapc_peer_features_ind_handler           0x1000c5e1   Thumb Code    14  app_task.o(i.gapc_peer_features_ind_handler)
    i.gapc_peer_ver_ind_handler              0x1000c5f0   Section        0  app_task.o(i.gapc_peer_ver_ind_handler)
    gapc_peer_ver_ind_handler                0x1000c5f1   Thumb Code    46  app_task.o(i.gapc_peer_ver_ind_handler)
    i.gapc_process_op                        0x1000c624   Section        0  gapc_task.o(i.gapc_process_op)
    i.gapc_reschedule_operation              0x1000c6b0   Section        0  gapc.o(i.gapc_reschedule_operation)
    i.gapc_security_cmd_handler              0x1000c6ec   Section        0  gapc_task.o(i.gapc_security_cmd_handler)
    gapc_security_cmd_handler                0x1000c6ed   Thumb Code    68  gapc_task.o(i.gapc_security_cmd_handler)
    i.gapc_security_ind_handler              0x1000c734   Section        0  app_sec.o(i.gapc_security_ind_handler)
    gapc_security_ind_handler                0x1000c735   Thumb Code    78  app_sec.o(i.gapc_security_ind_handler)
    i.gapc_send_complete_evt                 0x1000c7c0   Section        0  gapc.o(i.gapc_send_complete_evt)
    i.gapc_send_disconect_ind                0x1000c820   Section        0  gapc.o(i.gapc_send_disconect_ind)
    i.gapc_send_error_evt                    0x1000c846   Section        0  gapc.o(i.gapc_send_error_evt)
    i.gapc_set_dev_info_cfm_handler          0x1000c86c   Section        0  gapc_task.o(i.gapc_set_dev_info_cfm_handler)
    gapc_set_dev_info_cfm_handler            0x1000c86d   Thumb Code    78  gapc_task.o(i.gapc_set_dev_info_cfm_handler)
    i.gapc_set_dev_info_req_ind_handler      0x1000c8ba   Section        0  app_task.o(i.gapc_set_dev_info_req_ind_handler)
    gapc_set_dev_info_req_ind_handler        0x1000c8bb   Thumb Code    60  app_task.o(i.gapc_set_dev_info_req_ind_handler)
    i.gapc_set_le_ping_to_handler            0x1000c8f8   Section        0  gapc_task.o(i.gapc_set_le_ping_to_handler)
    gapc_set_le_ping_to_handler              0x1000c8f9   Thumb Code    70  gapc_task.o(i.gapc_set_le_ping_to_handler)
    i.gapc_set_le_pkt_size_handler           0x1000c944   Section        0  gapc_task.o(i.gapc_set_le_pkt_size_handler)
    gapc_set_le_pkt_size_handler             0x1000c945   Thumb Code    74  gapc_task.o(i.gapc_set_le_pkt_size_handler)
    i.gapc_set_local_addr                    0x1000c994   Section        0  gapc.o(i.gapc_set_local_addr)
    i.gapc_set_operation_ptr                 0x1000c9b8   Section        0  gapc.o(i.gapc_set_operation_ptr)
    i.gapc_set_phy_cmd_handler               0x1000c9c8   Section        0  gapc_task.o(i.gapc_set_phy_cmd_handler)
    gapc_set_phy_cmd_handler                 0x1000c9c9   Thumb Code   104  gapc_task.o(i.gapc_set_phy_cmd_handler)
    i.gapc_set_pref_slave_latency_cmd_handler 0x1000ca34   Section        0  gapc_task.o(i.gapc_set_pref_slave_latency_cmd_handler)
    gapc_set_pref_slave_latency_cmd_handler  0x1000ca35   Thumb Code    70  gapc_task.o(i.gapc_set_pref_slave_latency_cmd_handler)
    i.gapc_sig_pdu_recv_handler              0x1000ca80   Section        0  gapc_sig.o(i.gapc_sig_pdu_recv_handler)
    i.gapc_sig_send_param_resp               0x1000cabc   Section        0  gapc_sig.o(i.gapc_sig_send_param_resp)
    i.gapc_sign_cmd_handler                  0x1000cae0   Section        0  gapc_task.o(i.gapc_sign_cmd_handler)
    gapc_sign_cmd_handler                    0x1000cae1   Thumb Code    54  gapc_task.o(i.gapc_sign_cmd_handler)
    i.gapc_sign_ind_handler                  0x1000cb1c   Section        0  gattc_task.o(i.gapc_sign_ind_handler)
    gapc_sign_ind_handler                    0x1000cb1d   Thumb Code   138  gattc_task.o(i.gapc_sign_ind_handler)
    i.gapc_smp_rep_attempts_timer_handler    0x1000cba8   Section        0  gapc_task.o(i.gapc_smp_rep_attempts_timer_handler)
    gapc_smp_rep_attempts_timer_handler      0x1000cba9   Thumb Code    44  gapc_task.o(i.gapc_smp_rep_attempts_timer_handler)
    i.gapc_smp_timeout_timer_ind_handler     0x1000cbd8   Section        0  gapc_task.o(i.gapc_smp_timeout_timer_ind_handler)
    gapc_smp_timeout_timer_ind_handler       0x1000cbd9   Thumb Code    64  gapc_task.o(i.gapc_smp_timeout_timer_ind_handler)
    i.gapc_svc_chg_ccc_get                   0x1000cc1c   Section        0  gapc.o(i.gapc_svc_chg_ccc_get)
    i.gapc_svc_chg_ccc_set                   0x1000cc30   Section        0  gapc.o(i.gapc_svc_chg_ccc_set)
    i.gapc_update_conn_param_to_ind_handler  0x1000cc4c   Section        0  gapc_task.o(i.gapc_update_conn_param_to_ind_handler)
    gapc_update_conn_param_to_ind_handler    0x1000cc4d   Thumb Code    68  gapc_task.o(i.gapc_update_conn_param_to_ind_handler)
    i.gapc_update_state                      0x1000cc90   Section        0  gapc.o(i.gapc_update_state)
    i.gapm_activity_create_cmd_handler       0x1000ccc4   Section        0  gapm_actv.o(i.gapm_activity_create_cmd_handler)
    i.gapm_activity_created_ind_handler      0x1000cd90   Section        0  app_task.o(i.gapm_activity_created_ind_handler)
    gapm_activity_created_ind_handler        0x1000cd91   Thumb Code    60  app_task.o(i.gapm_activity_created_ind_handler)
    i.gapm_activity_delete_cmd_handler       0x1000cdd0   Section        0  gapm_actv.o(i.gapm_activity_delete_cmd_handler)
    i.gapm_activity_start_cmd_handler        0x1000ce4c   Section        0  gapm_actv.o(i.gapm_activity_start_cmd_handler)
    i.gapm_activity_stop_cmd_handler         0x1000cec0   Section        0  gapm_actv.o(i.gapm_activity_stop_cmd_handler)
    i.gapm_activity_stopped_ind_handler      0x1000cf30   Section        0  app_task.o(i.gapm_activity_stopped_ind_handler)
    gapm_activity_stopped_ind_handler        0x1000cf31   Thumb Code   116  app_task.o(i.gapm_activity_stopped_ind_handler)
    i.gapm_actv_alloc                        0x1000cfac   Section        0  gapm_actv.o(i.gapm_actv_alloc)
    i.gapm_actv_created                      0x1000cfdc   Section        0  gapm_actv.o(i.gapm_actv_created)
    i.gapm_actv_deleted                      0x1000d040   Section        0  gapm_actv.o(i.gapm_actv_deleted)
    i.gapm_actv_free                         0x1000d088   Section        0  gapm_actv.o(i.gapm_actv_free)
    gapm_actv_free                           0x1000d089   Thumb Code    50  gapm_actv.o(i.gapm_actv_free)
    i.gapm_actv_get_hci_own_addr_type        0x1000d0c0   Section        0  gapm_actv.o(i.gapm_actv_get_hci_own_addr_type)
    i.gapm_actv_get_next                     0x1000d0e0   Section        0  gapm_actv.o(i.gapm_actv_get_next)
    gapm_actv_get_next                       0x1000d0e1   Thumb Code    44  gapm_actv.o(i.gapm_actv_get_next)
    i.gapm_actv_init                         0x1000d114   Section        0  gapm_actv.o(i.gapm_actv_init)
    i.gapm_actv_rand_addr_set_ind            0x1000d168   Section        0  gapm_actv.o(i.gapm_actv_rand_addr_set_ind)
    i.gapm_actv_retrieve_cmd_cmp_evt         0x1000d184   Section        0  gapm_actv.o(i.gapm_actv_retrieve_cmd_cmp_evt)
    i.gapm_actv_send_stopped_ind             0x1000d1b8   Section        0  gapm_actv.o(i.gapm_actv_send_stopped_ind)
    gapm_actv_send_stopped_ind               0x1000d1b9   Thumb Code    42  gapm_actv.o(i.gapm_actv_send_stopped_ind)
    i.gapm_actv_started                      0x1000d1e4   Section        0  gapm_actv.o(i.gapm_actv_started)
    i.gapm_actv_stopped                      0x1000d210   Section        0  gapm_actv.o(i.gapm_actv_stopped)
    i.gapm_addr_fsm                          0x1000d288   Section        0  gapm_addr.o(i.gapm_addr_fsm)
    gapm_addr_fsm                            0x1000d289   Thumb Code   190  gapm_addr.o(i.gapm_addr_fsm)
    i.gapm_addr_init                         0x1000d34c   Section        0  gapm_addr.o(i.gapm_addr_init)
    i.gapm_addr_renew_cmd_handler            0x1000d364   Section        0  gapm_addr.o(i.gapm_addr_renew_cmd_handler)
    i.gapm_addr_renew_next_addr              0x1000d38c   Section        0  gapm_addr.o(i.gapm_addr_renew_next_addr)
    gapm_addr_renew_next_addr                0x1000d38d   Thumb Code   164  gapm_addr.o(i.gapm_addr_renew_next_addr)
    i.gapm_addr_renew_to_ind_handler         0x1000d438   Section        0  gapm_addr.o(i.gapm_addr_renew_to_ind_handler)
    i.gapm_addr_send_dev_bdaddr_ind          0x1000d45c   Section        0  gapm_addr.o(i.gapm_addr_send_dev_bdaddr_ind)
    gapm_addr_send_dev_bdaddr_ind            0x1000d45d   Thumb Code    44  gapm_addr.o(i.gapm_addr_send_dev_bdaddr_ind)
    i.gapm_addr_set_rand_addr                0x1000d488   Section        0  gapm_addr.o(i.gapm_addr_set_rand_addr)
    i.gapm_addr_solved_ind_handler           0x1000d560   Section        0  app_task.o(i.gapm_addr_solved_ind_handler)
    gapm_addr_solved_ind_handler             0x1000d561   Thumb Code    16  app_task.o(i.gapm_addr_solved_ind_handler)
    i.gapm_adv_check_data_sanity             0x1000d570   Section        0  gapm_adv.o(i.gapm_adv_check_data_sanity)
    gapm_adv_check_data_sanity               0x1000d571   Thumb Code   124  gapm_adv.o(i.gapm_adv_check_data_sanity)
    i.gapm_adv_check_param                   0x1000d5ec   Section        0  gapm_adv.o(i.gapm_adv_check_param)
    gapm_adv_check_param                     0x1000d5ed   Thumb Code   218  gapm_adv.o(i.gapm_adv_check_param)
    i.gapm_adv_create                        0x1000d6d0   Section        0  gapm_adv.o(i.gapm_adv_create)
    i.gapm_adv_delete                        0x1000d778   Section        0  gapm_adv.o(i.gapm_adv_delete)
    gapm_adv_delete                          0x1000d779   Thumb Code    16  gapm_adv.o(i.gapm_adv_delete)
    i.gapm_adv_send_hci_le_rmv_adv_set_cmd   0x1000d78c   Section        0  gapm_adv.o(i.gapm_adv_send_hci_le_rmv_adv_set_cmd)
    gapm_adv_send_hci_le_rmv_adv_set_cmd     0x1000d78d   Thumb Code    34  gapm_adv.o(i.gapm_adv_send_hci_le_rmv_adv_set_cmd)
    i.gapm_adv_send_hci_le_set_ext_adv_data_cmd 0x1000d7ae   Section        0  gapm_adv.o(i.gapm_adv_send_hci_le_set_ext_adv_data_cmd)
    gapm_adv_send_hci_le_set_ext_adv_data_cmd 0x1000d7af   Thumb Code   184  gapm_adv.o(i.gapm_adv_send_hci_le_set_ext_adv_data_cmd)
    i.gapm_adv_send_hci_le_set_ext_adv_en_cmd 0x1000d866   Section        0  gapm_adv.o(i.gapm_adv_send_hci_le_set_ext_adv_en_cmd)
    gapm_adv_send_hci_le_set_ext_adv_en_cmd  0x1000d867   Thumb Code    72  gapm_adv.o(i.gapm_adv_send_hci_le_set_ext_adv_en_cmd)
    i.gapm_adv_send_hci_le_set_ext_adv_param_cmd 0x1000d8ae   Section        0  gapm_adv.o(i.gapm_adv_send_hci_le_set_ext_adv_param_cmd)
    gapm_adv_send_hci_le_set_ext_adv_param_cmd 0x1000d8af   Thumb Code   186  gapm_adv.o(i.gapm_adv_send_hci_le_set_ext_adv_param_cmd)
    i.gapm_adv_send_hci_le_set_ext_scan_rsp_data_cmd 0x1000d968   Section        0  gapm_adv.o(i.gapm_adv_send_hci_le_set_ext_scan_rsp_data_cmd)
    gapm_adv_send_hci_le_set_ext_scan_rsp_data_cmd 0x1000d969   Thumb Code   182  gapm_adv.o(i.gapm_adv_send_hci_le_set_ext_scan_rsp_data_cmd)
    i.gapm_adv_send_hci_le_set_per_adv_data_cmd 0x1000da1e   Section        0  gapm_adv.o(i.gapm_adv_send_hci_le_set_per_adv_data_cmd)
    gapm_adv_send_hci_le_set_per_adv_data_cmd 0x1000da1f   Thumb Code   104  gapm_adv.o(i.gapm_adv_send_hci_le_set_per_adv_data_cmd)
    i.gapm_adv_send_hci_le_set_per_adv_en_cmd 0x1000da86   Section        0  gapm_adv.o(i.gapm_adv_send_hci_le_set_per_adv_en_cmd)
    gapm_adv_send_hci_le_set_per_adv_en_cmd  0x1000da87   Thumb Code    38  gapm_adv.o(i.gapm_adv_send_hci_le_set_per_adv_en_cmd)
    i.gapm_adv_set_data                      0x1000daac   Section        0  gapm_adv.o(i.gapm_adv_set_data)
    gapm_adv_set_data                        0x1000daad   Thumb Code    98  gapm_adv.o(i.gapm_adv_set_data)
    i.gapm_adv_start                         0x1000db10   Section        0  gapm_adv.o(i.gapm_adv_start)
    gapm_adv_start                           0x1000db11   Thumb Code    72  gapm_adv.o(i.gapm_adv_start)
    i.gapm_adv_stop                          0x1000db5c   Section        0  gapm_adv.o(i.gapm_adv_stop)
    gapm_adv_stop                            0x1000db5d   Thumb Code    30  gapm_adv.o(i.gapm_adv_stop)
    i.gapm_auto_conn_to_ind_handler          0x1000db80   Section        0  gapm_init.o(i.gapm_auto_conn_to_ind_handler)
    i.gapm_cmp_evt_handler                   0x1000dbb8   Section        0  app_task.o(i.gapm_cmp_evt_handler)
    gapm_cmp_evt_handler                     0x1000dbb9   Thumb Code   488  app_task.o(i.gapm_cmp_evt_handler)
    i.gapm_cmp_evt_handler                   0x1000de10   Section        0  gapc_task.o(i.gapm_cmp_evt_handler)
    gapm_cmp_evt_handler                     0x1000de11   Thumb Code   120  gapc_task.o(i.gapm_cmp_evt_handler)
    i.gapm_cmp_evt_handler                   0x1000de88   Section        0  gapm_addr.o(i.gapm_cmp_evt_handler)
    i.gapm_con_cleanup                       0x1000dea8   Section        0  gapm.o(i.gapm_con_cleanup)
    i.gapm_con_create                        0x1000dee0   Section        0  gapm.o(i.gapm_con_create)
    i.gapm_con_enable                        0x1000df48   Section        0  gapm.o(i.gapm_con_enable)
    i.gapm_default_msg_handler               0x1000df52   Section        0  gapm_task.o(i.gapm_default_msg_handler)
    gapm_default_msg_handler                 0x1000df53   Thumb Code     4  gapm_task.o(i.gapm_default_msg_handler)
    i.gapm_dev_bdaddr_ind_handler            0x1000df58   Section        0  gapm_addr.o(i.gapm_dev_bdaddr_ind_handler)
    i.gapm_dle_val_check                     0x1000df94   Section        0  gapm.o(i.gapm_dle_val_check)
    i.gapm_enc_block_ind_handler             0x1000dfb0   Section        0  app_task.o(i.gapm_enc_block_ind_handler)
    gapm_enc_block_ind_handler               0x1000dfb1   Thumb Code    18  app_task.o(i.gapm_enc_block_ind_handler)
    i.gapm_ext_adv_report_ind_handler        0x1000dfc8   Section        0  app_task.o(i.gapm_ext_adv_report_ind_handler)
    gapm_ext_adv_report_ind_handler          0x1000dfc9   Thumb Code    12  app_task.o(i.gapm_ext_adv_report_ind_handler)
    i.gapm_gen_dh_key_cmd_handler            0x1000dfd4   Section        0  gapm_smp.o(i.gapm_gen_dh_key_cmd_handler)
    i.gapm_gen_rand_addr_cmd_handler         0x1000e024   Section        0  gapm_smp.o(i.gapm_gen_rand_addr_cmd_handler)
    i.gapm_gen_rand_nb_ind_handler           0x1000e060   Section        0  app_task.o(i.gapm_gen_rand_nb_ind_handler)
    gapm_gen_rand_nb_ind_handler             0x1000e061   Thumb Code    38  app_task.o(i.gapm_gen_rand_nb_ind_handler)
    i.gapm_gen_rand_nb_ind_handler           0x1000e08c   Section        0  gapc_task.o(i.gapm_gen_rand_nb_ind_handler)
    gapm_gen_rand_nb_ind_handler             0x1000e08d   Thumb Code    40  gapc_task.o(i.gapm_gen_rand_nb_ind_handler)
    i.gapm_get_address_type                  0x1000e0b4   Section        0  gapm.o(i.gapm_get_address_type)
    i.gapm_get_att_handle                    0x1000e0c4   Section        0  gapm.o(i.gapm_get_att_handle)
    i.gapm_get_bdaddr                        0x1000e0ec   Section        0  gapm.o(i.gapm_get_bdaddr)
    i.gapm_get_dev_info_cmd_handler          0x1000e0f4   Section        0  gapm_cfg.o(i.gapm_get_dev_info_cmd_handler)
    i.gapm_get_irk                           0x1000e204   Section        0  gapm.o(i.gapm_get_irk)
    i.gapm_get_local_public_key              0x1000e20c   Section        0  gapm.o(i.gapm_get_local_public_key)
    i.gapm_get_max_mtu                       0x1000e214   Section        0  gapm.o(i.gapm_get_max_mtu)
    i.gapm_get_operation                     0x1000e220   Section        0  gapm.o(i.gapm_get_operation)
    i.gapm_get_pub_key_cmd_handler           0x1000e238   Section        0  gapm_smp.o(i.gapm_get_pub_key_cmd_handler)
    i.gapm_get_ral_addr_cmd_handler          0x1000e2d4   Section        0  gapm_list.o(i.gapm_get_ral_addr_cmd_handler)
    i.gapm_get_requester                     0x1000e328   Section        0  gapm.o(i.gapm_get_requester)
    i.gapm_hci_handler                       0x1000e344   Section        0  gapm_task.o(i.gapm_hci_handler)
    gapm_hci_handler                         0x1000e345   Thumb Code    78  gapm_task.o(i.gapm_hci_handler)
    i.gapm_init                              0x1000e39c   Section        0  gapm.o(i.gapm_init)
    i.gapm_init_attr                         0x1000e3fc   Section        0  gapm.o(i.gapm_init_attr)
    i.gapm_init_connection_ind               0x1000e430   Section        0  gapm_init.o(i.gapm_init_connection_ind)
    i.gapm_init_create                       0x1000e4c8   Section        0  gapm_init.o(i.gapm_init_create)
    i.gapm_init_delete                       0x1000e548   Section        0  gapm_init.o(i.gapm_init_delete)
    gapm_init_delete                         0x1000e549   Thumb Code     4  gapm_init.o(i.gapm_init_delete)
    i.gapm_init_send_hci_le_ext_create_con_cmd 0x1000e54c   Section        0  gapm_init.o(i.gapm_init_send_hci_le_ext_create_con_cmd)
    gapm_init_send_hci_le_ext_create_con_cmd 0x1000e54d   Thumb Code   212  gapm_init.o(i.gapm_init_send_hci_le_ext_create_con_cmd)
    i.gapm_init_start                        0x1000e620   Section        0  gapm_init.o(i.gapm_init_start)
    gapm_init_start                          0x1000e621   Thumb Code   112  gapm_init.o(i.gapm_init_start)
    i.gapm_init_stop                         0x1000e694   Section        0  gapm_init.o(i.gapm_init_stop)
    gapm_init_stop                           0x1000e695   Thumb Code    42  gapm_init.o(i.gapm_init_stop)
    i.gapm_is_addr_type_valid                0x1000e6c4   Section        0  gapm_addr.o(i.gapm_is_addr_type_valid)
    i.gapm_is_legacy_pairing_supp            0x1000e708   Section        0  gapm.o(i.gapm_is_legacy_pairing_supp)
    i.gapm_is_pref_con_param_pres            0x1000e718   Section        0  gapm.o(i.gapm_is_pref_con_param_pres)
    i.gapm_is_sec_con_pairing_supp           0x1000e728   Section        0  gapm.o(i.gapm_is_sec_con_pairing_supp)
    i.gapm_list_add_next_entry               0x1000e738   Section        0  gapm_list.o(i.gapm_list_add_next_entry)
    gapm_list_add_next_entry                 0x1000e739   Thumb Code   174  gapm_list.o(i.gapm_list_add_next_entry)
    i.gapm_list_send_list_size_ind           0x1000e7e6   Section        0  gapm_list.o(i.gapm_list_send_list_size_ind)
    gapm_list_send_list_size_ind             0x1000e7e7   Thumb Code    38  gapm_list.o(i.gapm_list_send_list_size_ind)
    i.gapm_list_set_cmd_handler              0x1000e80c   Section        0  gapm_list.o(i.gapm_list_set_cmd_handler)
    i.gapm_op_reset_continue                 0x1000e85c   Section        0  gapm_cfg.o(i.gapm_op_reset_continue)
    gapm_op_reset_continue                   0x1000e85d   Thumb Code   148  gapm_cfg.o(i.gapm_op_reset_continue)
    i.gapm_op_setup_continue                 0x1000e900   Section        0  gapm_cfg.o(i.gapm_op_setup_continue)
    gapm_op_setup_continue                   0x1000e901   Thumb Code   298  gapm_cfg.o(i.gapm_op_setup_continue)
    i.gapm_operation_cleanup                 0x1000ea30   Section        0  gapm.o(i.gapm_operation_cleanup)
    gapm_operation_cleanup                   0x1000ea31   Thumb Code    46  gapm.o(i.gapm_operation_cleanup)
    i.gapm_per_sync_clear_fragments          0x1000ea64   Section        0  gapm_per_sync.o(i.gapm_per_sync_clear_fragments)
    i.gapm_per_sync_create                   0x1000ea84   Section        0  gapm_per_sync.o(i.gapm_per_sync_create)
    i.gapm_per_sync_delete                   0x1000eac8   Section        0  gapm_per_sync.o(i.gapm_per_sync_delete)
    gapm_per_sync_delete                     0x1000eac9   Thumb Code     4  gapm_per_sync.o(i.gapm_per_sync_delete)
    i.gapm_per_sync_get_activity             0x1000eacc   Section        0  gapm_per_sync.o(i.gapm_per_sync_get_activity)
    gapm_per_sync_get_activity               0x1000eacd   Thumb Code    80  gapm_per_sync.o(i.gapm_per_sync_get_activity)
    i.gapm_per_sync_send_adv_report_ind      0x1000eb24   Section        0  gapm_per_sync.o(i.gapm_per_sync_send_adv_report_ind)
    gapm_per_sync_send_adv_report_ind        0x1000eb25   Thumb Code   144  gapm_per_sync.o(i.gapm_per_sync_send_adv_report_ind)
    i.gapm_per_sync_start                    0x1000ebb4   Section        0  gapm_per_sync.o(i.gapm_per_sync_start)
    gapm_per_sync_start                      0x1000ebb5   Thumb Code   120  gapm_per_sync.o(i.gapm_per_sync_start)
    i.gapm_per_sync_stop                     0x1000ec30   Section        0  gapm_per_sync.o(i.gapm_per_sync_stop)
    gapm_per_sync_stop                       0x1000ec31   Thumb Code    60  gapm_per_sync.o(i.gapm_per_sync_stop)
    i.gapm_process_op                        0x1000ec70   Section        0  gapm.o(i.gapm_process_op)
    i.gapm_profile_added_ind_handler         0x1000ece4   Section        0  app_task.o(i.gapm_profile_added_ind_handler)
    gapm_profile_added_ind_handler           0x1000ece5   Thumb Code    34  app_task.o(i.gapm_profile_added_ind_handler)
    i.gapm_profile_task_add_cmd_handler      0x1000ed08   Section        0  gapm_cfg.o(i.gapm_profile_task_add_cmd_handler)
    i.gapm_reset_cmd_handler                 0x1000ed68   Section        0  gapm_cfg.o(i.gapm_reset_cmd_handler)
    i.gapm_resolv_addr_cmd_handler           0x1000eda8   Section        0  gapm_smp.o(i.gapm_resolv_addr_cmd_handler)
    i.gapm_scan_actv_clean                   0x1000ede0   Section        0  gapm_scan.o(i.gapm_scan_actv_clean)
    i.gapm_scan_add_to_filter                0x1000ee08   Section        0  gapm_scan.o(i.gapm_scan_add_to_filter)
    gapm_scan_add_to_filter                  0x1000ee09   Thumb Code   124  gapm_scan.o(i.gapm_scan_add_to_filter)
    i.gapm_scan_clear_fragments              0x1000ee84   Section        0  gapm_scan.o(i.gapm_scan_clear_fragments)
    gapm_scan_clear_fragments                0x1000ee85   Thumb Code    26  gapm_scan.o(i.gapm_scan_clear_fragments)
    i.gapm_scan_create                       0x1000eea0   Section        0  gapm_scan.o(i.gapm_scan_create)
    i.gapm_scan_delete                       0x1000ef10   Section        0  gapm_scan.o(i.gapm_scan_delete)
    gapm_scan_delete                         0x1000ef11   Thumb Code     4  gapm_scan.o(i.gapm_scan_delete)
    i.gapm_scan_filter_packet                0x1000ef14   Section        0  gapm_scan.o(i.gapm_scan_filter_packet)
    gapm_scan_filter_packet                  0x1000ef15   Thumb Code   258  gapm_scan.o(i.gapm_scan_filter_packet)
    i.gapm_scan_send_adv_report_ind          0x1000f01c   Section        0  gapm_scan.o(i.gapm_scan_send_adv_report_ind)
    gapm_scan_send_adv_report_ind            0x1000f01d   Thumb Code   320  gapm_scan.o(i.gapm_scan_send_adv_report_ind)
    i.gapm_scan_send_hci_le_set_ext_scan_en_cmd 0x1000f15c   Section        0  gapm_scan.o(i.gapm_scan_send_hci_le_set_ext_scan_en_cmd)
    gapm_scan_send_hci_le_set_ext_scan_en_cmd 0x1000f15d   Thumb Code    74  gapm_scan.o(i.gapm_scan_send_hci_le_set_ext_scan_en_cmd)
    i.gapm_scan_send_hci_le_set_ext_scan_param_cmd 0x1000f1ac   Section        0  gapm_scan.o(i.gapm_scan_send_hci_le_set_ext_scan_param_cmd)
    gapm_scan_send_hci_le_set_ext_scan_param_cmd 0x1000f1ad   Thumb Code   156  gapm_scan.o(i.gapm_scan_send_hci_le_set_ext_scan_param_cmd)
    i.gapm_scan_start                        0x1000f248   Section        0  gapm_scan.o(i.gapm_scan_start)
    gapm_scan_start                          0x1000f249   Thumb Code    70  gapm_scan.o(i.gapm_scan_start)
    i.gapm_scan_stop                         0x1000f294   Section        0  gapm_scan.o(i.gapm_scan_stop)
    gapm_scan_stop                           0x1000f295   Thumb Code    14  gapm_scan.o(i.gapm_scan_stop)
    i.gapm_scan_store_fragment               0x1000f2a8   Section        0  gapm_scan.o(i.gapm_scan_store_fragment)
    gapm_scan_store_fragment                 0x1000f2a9   Thumb Code   118  gapm_scan.o(i.gapm_scan_store_fragment)
    i.gapm_send_complete_evt                 0x1000f320   Section        0  gapm.o(i.gapm_send_complete_evt)
    i.gapm_send_error_evt                    0x1000f364   Section        0  gapm.o(i.gapm_send_error_evt)
    i.gapm_set_adv_data_cmd_handler          0x1000f388   Section        0  gapm_adv.o(i.gapm_set_adv_data_cmd_handler)
    i.gapm_set_channel_map_cmd_handler       0x1000f474   Section        0  gapm_cfg.o(i.gapm_set_channel_map_cmd_handler)
    i.gapm_set_dev_config_cmd_handler        0x1000f4cc   Section        0  gapm_cfg.o(i.gapm_set_dev_config_cmd_handler)
    i.gapm_set_irk_cmd_handler               0x1000f674   Section        0  gapm_cfg.o(i.gapm_set_irk_cmd_handler)
    i.gapm_set_max_mps                       0x1000f6ac   Section        0  gapm.o(i.gapm_set_max_mps)
    i.gapm_set_max_mtu                       0x1000f6cc   Section        0  gapm.o(i.gapm_set_max_mtu)
    i.gapm_smp_encrypt_req                   0x1000f6ec   Section        0  gapm_smp.o(i.gapm_smp_encrypt_req)
    gapm_smp_encrypt_req                     0x1000f6ed   Thumb Code    16  gapm_smp.o(i.gapm_smp_encrypt_req)
    i.gapm_smp_encrypt_rsp                   0x1000f700   Section        0  gapm_smp.o(i.gapm_smp_encrypt_rsp)
    gapm_smp_encrypt_rsp                     0x1000f701   Thumb Code   154  gapm_smp.o(i.gapm_smp_encrypt_rsp)
    i.gapm_smp_rand_req                      0x1000f7a0   Section        0  gapm_smp.o(i.gapm_smp_rand_req)
    gapm_smp_rand_req                        0x1000f7a1   Thumb Code     8  gapm_smp.o(i.gapm_smp_rand_req)
    i.gapm_smp_rand_rsp                      0x1000f7ac   Section        0  gapm_smp.o(i.gapm_smp_rand_rsp)
    gapm_smp_rand_rsp                        0x1000f7ad   Thumb Code   142  gapm_smp.o(i.gapm_smp_rand_rsp)
    i.gapm_smp_resolv_op_cont                0x1000f840   Section        0  gapm_smp.o(i.gapm_smp_resolv_op_cont)
    gapm_smp_resolv_op_cont                  0x1000f841   Thumb Code   148  gapm_smp.o(i.gapm_smp_resolv_op_cont)
    i.gapm_svc_chg_en                        0x1000f8d8   Section        0  gapm.o(i.gapm_svc_chg_en)
    i.gapm_sync_established_ind_handler      0x1000f8e8   Section        0  app_task.o(i.gapm_sync_established_ind_handler)
    gapm_sync_established_ind_handler        0x1000f8e9   Thumb Code    12  app_task.o(i.gapm_sync_established_ind_handler)
    i.gapm_unknown_task_msg_handler          0x1000f8f4   Section        0  gapm_task.o(i.gapm_unknown_task_msg_handler)
    gapm_unknown_task_msg_handler            0x1000f8f5   Thumb Code    34  gapm_task.o(i.gapm_unknown_task_msg_handler)
    i.gapm_update_state                      0x1000f916   Section        0  gapm.o(i.gapm_update_state)
    i.gapm_use_enc_block_cmd_handler         0x1000f944   Section        0  gapm_smp.o(i.gapm_use_enc_block_cmd_handler)
    i.gapm_use_enc_block_ind_handler         0x1000f984   Section        0  gapc_task.o(i.gapm_use_enc_block_ind_handler)
    gapm_use_enc_block_ind_handler           0x1000f985   Thumb Code    60  gapc_task.o(i.gapm_use_enc_block_ind_handler)
    i.gatt_add_service                       0x1000f9c0   Section        0  gatt_api.o(i.gatt_add_service)
    i.gatt_clear_remote_svc                  0x1000fa70   Section        0  gatt_api.o(i.gatt_clear_remote_svc)
    i.gatt_clr_peer_svc                      0x1000fac8   Section        0  gatt_api.o(i.gatt_clr_peer_svc)
    gatt_clr_peer_svc                        0x1000fac9   Thumb Code    58  gatt_api.o(i.gatt_clr_peer_svc)
    i.gatt_get_free_svc_id                   0x1000fb08   Section        0  gatt_api.o(i.gatt_get_free_svc_id)
    i.gatt_msg_default_handler               0x1000fb34   Section        0  gatt_api.o(i.gatt_msg_default_handler)
    gatt_msg_default_handler                 0x1000fb35   Thumb Code    22  gatt_api.o(i.gatt_msg_default_handler)
    i.gatt_msg_default_handler_imp           0x1000fb4c   Section        0  gatt_api.o(i.gatt_msg_default_handler_imp)
    gatt_msg_default_handler_imp             0x1000fb4d   Thumb Code  1720  gatt_api.o(i.gatt_msg_default_handler_imp)
    i.gatt_notification                      0x10010230   Section        0  gatt_api.o(i.gatt_notification)
    i.gatt_notification_with_handle          0x10010260   Section        0  gatt_api.o(i.gatt_notification_with_handle)
    i.gatt_profile_task_add                  0x100102c8   Section        0  gatt_api.o(i.gatt_profile_task_add)
    i.gatt_regist_peer_prf_info              0x10010374   Section        0  gatt_api.o(i.gatt_regist_peer_prf_info)
    gatt_regist_peer_prf_info                0x10010375   Thumb Code   114  gatt_api.o(i.gatt_regist_peer_prf_info)
    i.gatt_servcie_added                     0x100103f4   Section        0  gatt_api.o(i.gatt_servcie_added)
    gatt_servcie_added                       0x100103f5   Thumb Code    50  gatt_api.o(i.gatt_servcie_added)
    i.gatt_service_connection_cleanup        0x10010430   Section        0  gatt_api.o(i.gatt_service_connection_cleanup)
    gatt_service_connection_cleanup          0x10010431   Thumb Code    52  gatt_api.o(i.gatt_service_connection_cleanup)
    i.gatt_service_connection_created        0x10010468   Section        0  gatt_api.o(i.gatt_service_connection_created)
    gatt_service_connection_created          0x10010469   Thumb Code    58  gatt_api.o(i.gatt_service_connection_created)
    i.gatt_service_destroy                   0x100104ac   Section        0  gatt_api.o(i.gatt_service_destroy)
    gatt_service_destroy                     0x100104ad   Thumb Code     2  gatt_api.o(i.gatt_service_destroy)
    i.gatt_service_init                      0x100104b0   Section        0  gatt_api.o(i.gatt_service_init)
    gatt_service_init                        0x100104b1   Thumb Code   728  gatt_api.o(i.gatt_service_init)
    i.gatt_store_peer_prf_info               0x100107c0   Section        0  gatt_api.o(i.gatt_store_peer_prf_info)
    gatt_store_peer_prf_info                 0x100107c1   Thumb Code   252  gatt_api.o(i.gatt_store_peer_prf_info)
    i.gatt_write_peer_svc_to_flash           0x100108f4   Section        0  user_bond_manage.o(i.gatt_write_peer_svc_to_flash)
    i.gattc_att_info_cfm_handler             0x100109cc   Section        0  gattc_task.o(i.gattc_att_info_cfm_handler)
    gattc_att_info_cfm_handler               0x100109cd   Thumb Code    82  gattc_task.o(i.gattc_att_info_cfm_handler)
    i.gattc_att_info_req_ind_handler         0x10010a24   Section        0  gapc_task.o(i.gattc_att_info_req_ind_handler)
    gattc_att_info_req_ind_handler           0x10010a25   Thumb Code   102  gapc_task.o(i.gattc_att_info_req_ind_handler)
    i.gattc_att_info_req_ind_handler         0x10010a8a   Section        0  gattc_task.o(i.gattc_att_info_req_ind_handler)
    gattc_att_info_req_ind_handler           0x10010a8b   Thumb Code    80  gattc_task.o(i.gattc_att_info_req_ind_handler)
    i.gattc_cleanup                          0x10010adc   Section        0  gattc.o(i.gattc_cleanup)
    i.gattc_cmp_evt_handler                  0x10010b80   Section        0  gapc_task.o(i.gattc_cmp_evt_handler)
    gattc_cmp_evt_handler                    0x10010b81   Thumb Code    62  gapc_task.o(i.gattc_cmp_evt_handler)
    i.gattc_cmp_evt_handler                  0x10010bc0   Section        0  gattc_task.o(i.gattc_cmp_evt_handler)
    gattc_cmp_evt_handler                    0x10010bc1   Thumb Code   384  gattc_task.o(i.gattc_cmp_evt_handler)
    i.gattc_con_enable                       0x10010d44   Section        0  gattc.o(i.gattc_con_enable)
    i.gattc_create                           0x10010d5c   Section        0  gattc.o(i.gattc_create)
    i.gattc_default_msg_handler              0x10010de8   Section        0  gattc_task.o(i.gattc_default_msg_handler)
    gattc_default_msg_handler                0x10010de9   Thumb Code    12  gattc_task.o(i.gattc_default_msg_handler)
    i.gattc_disc_char_desc_ind_handler       0x10010df4   Section        0  gattc_task.o(i.gattc_disc_char_desc_ind_handler)
    gattc_disc_char_desc_ind_handler         0x10010df5   Thumb Code   106  gattc_task.o(i.gattc_disc_char_desc_ind_handler)
    i.gattc_disc_char_ind_handler            0x10010e64   Section        0  gattc_task.o(i.gattc_disc_char_ind_handler)
    gattc_disc_char_ind_handler              0x10010e65   Thumb Code   146  gattc_task.o(i.gattc_disc_char_ind_handler)
    i.gattc_disc_cmd_handler                 0x10010efc   Section        0  gattc_task.o(i.gattc_disc_cmd_handler)
    gattc_disc_cmd_handler                   0x10010efd   Thumb Code   322  gattc_task.o(i.gattc_disc_cmd_handler)
    i.gattc_disc_svc_incl_ind_handler        0x10011048   Section        0  gattc_task.o(i.gattc_disc_svc_incl_ind_handler)
    gattc_disc_svc_incl_ind_handler          0x10011049   Thumb Code   110  gattc_task.o(i.gattc_disc_svc_incl_ind_handler)
    i.gattc_disc_svc_ind_handler             0x100110bc   Section        0  gattc_task.o(i.gattc_disc_svc_ind_handler)
    gattc_disc_svc_ind_handler               0x100110bd   Thumb Code    96  gattc_task.o(i.gattc_disc_svc_ind_handler)
    i.gattc_event_cfm_handler                0x10011170   Section        0  gattc_task.o(i.gattc_event_cfm_handler)
    gattc_event_cfm_handler                  0x10011171   Thumb Code    24  gattc_task.o(i.gattc_event_cfm_handler)
    i.gattc_event_ind_handler                0x10011188   Section        0  app_task.o(i.gattc_event_ind_handler)
    gattc_event_ind_handler                  0x10011189   Thumb Code     4  app_task.o(i.gattc_event_ind_handler)
    i.gattc_exc_mtu_cmd_handler              0x1001118c   Section        0  gattc_task.o(i.gattc_exc_mtu_cmd_handler)
    gattc_exc_mtu_cmd_handler                0x1001118d   Thumb Code    68  gattc_task.o(i.gattc_exc_mtu_cmd_handler)
    i.gattc_execute_write_cmd_handler        0x100111d4   Section        0  gattc_task.o(i.gattc_execute_write_cmd_handler)
    gattc_execute_write_cmd_handler          0x100111d5   Thumb Code    42  gattc_task.o(i.gattc_execute_write_cmd_handler)
    i.gattc_get_mtu                          0x10011204   Section        0  gattc.o(i.gattc_get_mtu)
    i.gattc_get_operation                    0x10011214   Section        0  gattc.o(i.gattc_get_operation)
    i.gattc_get_operation_ptr                0x10011230   Section        0  gattc.o(i.gattc_get_operation_ptr)
    i.gattc_get_requester                    0x10011240   Section        0  gattc.o(i.gattc_get_requester)
    i.gattc_init                             0x10011260   Section        0  gattc.o(i.gattc_init)
    i.gattc_operation_cleanup                0x100112b0   Section        0  gattc.o(i.gattc_operation_cleanup)
    gattc_operation_cleanup                  0x100112b1   Thumb Code   102  gattc.o(i.gattc_operation_cleanup)
    i.gattc_process_op                       0x1001131c   Section        0  gattc_task.o(i.gattc_process_op)
    gattc_process_op                         0x1001131d   Thumb Code   162  gattc_task.o(i.gattc_process_op)
    i.gattc_read_cfm_handler                 0x100113c4   Section        0  gattc_task.o(i.gattc_read_cfm_handler)
    gattc_read_cfm_handler                   0x100113c5   Thumb Code    64  gattc_task.o(i.gattc_read_cfm_handler)
    i.gattc_read_cmd_handler                 0x10011408   Section        0  gattc_task.o(i.gattc_read_cmd_handler)
    gattc_read_cmd_handler                   0x10011409   Thumb Code   292  gattc_task.o(i.gattc_read_cmd_handler)
    i.gattc_read_ind_handler                 0x10011538   Section        0  gapc_task.o(i.gattc_read_ind_handler)
    gattc_read_ind_handler                   0x10011539   Thumb Code   232  gapc_task.o(i.gattc_read_ind_handler)
    i.gattc_read_req_ind_handler             0x10011620   Section        0  gapc_task.o(i.gattc_read_req_ind_handler)
    gattc_read_req_ind_handler               0x10011621   Thumb Code   184  gapc_task.o(i.gattc_read_req_ind_handler)
    i.gattc_read_req_ind_handler             0x100116d8   Section        0  gattc_task.o(i.gattc_read_req_ind_handler)
    gattc_read_req_ind_handler               0x100116d9   Thumb Code    94  gattc_task.o(i.gattc_read_req_ind_handler)
    i.gattc_reg_to_peer_evt_cmd_handler      0x10011738   Section        0  gattc_task.o(i.gattc_reg_to_peer_evt_cmd_handler)
    gattc_reg_to_peer_evt_cmd_handler        0x10011739   Thumb Code   156  gattc_task.o(i.gattc_reg_to_peer_evt_cmd_handler)
    i.gattc_reschedule_operation             0x100117dc   Section        0  gattc.o(i.gattc_reschedule_operation)
    i.gattc_sdp_svc_disc_cmd_handler         0x10011818   Section        0  gattc_task.o(i.gattc_sdp_svc_disc_cmd_handler)
    gattc_sdp_svc_disc_cmd_handler           0x10011819   Thumb Code   190  gattc_task.o(i.gattc_sdp_svc_disc_cmd_handler)
    i.gattc_send_complete_evt                0x100118dc   Section        0  gattc.o(i.gattc_send_complete_evt)
    i.gattc_send_error_evt                   0x10011944   Section        0  gattc.o(i.gattc_send_error_evt)
    i.gattc_send_evt_cmd_handler             0x10011970   Section        0  gattc_task.o(i.gattc_send_evt_cmd_handler)
    gattc_send_evt_cmd_handler               0x10011971   Thumb Code    78  gattc_task.o(i.gattc_send_evt_cmd_handler)
    i.gattc_send_svc_changed_cmd_handler     0x100119c8   Section        0  gattc_task.o(i.gattc_send_svc_changed_cmd_handler)
    gattc_send_svc_changed_cmd_handler       0x100119c9   Thumb Code   178  gattc_task.o(i.gattc_send_svc_changed_cmd_handler)
    i.gattc_set_mtu                          0x10011a7c   Section        0  gattc.o(i.gattc_set_mtu)
    i.gattc_set_operation_ptr                0x10011acc   Section        0  gattc.o(i.gattc_set_operation_ptr)
    i.gattc_timeout_handler                  0x10011adc   Section        0  gattc_task.o(i.gattc_timeout_handler)
    gattc_timeout_handler                    0x10011add   Thumb Code   104  gattc_task.o(i.gattc_timeout_handler)
    i.gattc_update_state                     0x10011b48   Section        0  gattc.o(i.gattc_update_state)
    i.gattc_write_cfm_handler                0x10011b70   Section        0  gattc_task.o(i.gattc_write_cfm_handler)
    gattc_write_cfm_handler                  0x10011b71   Thumb Code   132  gattc_task.o(i.gattc_write_cfm_handler)
    i.gattc_write_cmd_handler                0x10011bf8   Section        0  gattc_task.o(i.gattc_write_cmd_handler)
    gattc_write_cmd_handler                  0x10011bf9   Thumb Code   398  gattc_task.o(i.gattc_write_cmd_handler)
    i.gattc_write_req_ind_handler            0x10011d8c   Section        0  gapc_task.o(i.gattc_write_req_ind_handler)
    gattc_write_req_ind_handler              0x10011d8d   Thumb Code   224  gapc_task.o(i.gattc_write_req_ind_handler)
    i.gattc_write_req_ind_handler            0x10011e6c   Section        0  gattc_task.o(i.gattc_write_req_ind_handler)
    gattc_write_req_ind_handler              0x10011e6d   Thumb Code   114  gattc_task.o(i.gattc_write_req_ind_handler)
    i.gattm_cleanup                          0x10011ede   Section        0  gattm.o(i.gattm_cleanup)
    i.gattm_create                           0x10011ee4   Section        0  gattm.o(i.gattm_create)
    i.gattm_default_msg_handler              0x10011ee8   Section        0  gattm_task.o(i.gattm_default_msg_handler)
    gattm_default_msg_handler                0x10011ee9   Thumb Code     4  gattm_task.o(i.gattm_default_msg_handler)
    i.gattm_init                             0x10011eec   Section        0  gattm.o(i.gattm_init)
    i.gattm_init_attr                        0x10011f10   Section        0  gattm.o(i.gattm_init_attr)
    i.gattm_svc_get_start_hdl                0x10011f74   Section        0  gattm.o(i.gattm_svc_get_start_hdl)
    i.gc9c01_init_dma                        0x10011f80   Section        0  sdl_video_1.o(i.gc9c01_init_dma)
    gc9c01_init_dma                          0x10011f81   Thumb Code    68  sdl_video_1.o(i.gc9c01_init_dma)
    i.gc9c01_init_io                         0x10011fd4   Section        0  sdl_video_1.o(i.gc9c01_init_io)
    gc9c01_init_io                           0x10011fd5   Thumb Code   170  sdl_video_1.o(i.gc9c01_init_io)
    i.gc9c01_init_spi                        0x100120b4   Section        0  sdl_video_1.o(i.gc9c01_init_spi)
    gc9c01_init_spi                          0x100120b5   Thumb Code    68  sdl_video_1.o(i.gc9c01_init_spi)
    i.get_active_service_id                  0x10012104   Section        0  gatt_api.o(i.get_active_service_id)
    get_active_service_id                    0x10012105   Thumb Code    48  gatt_api.o(i.get_active_service_id)
    i.get_check_sum                          0x10012138   Section        0  zksec.o(i.get_check_sum)
    get_check_sum                            0x10012139   Thumb Code    26  zksec.o(i.get_check_sum)
    i.get_gatt_default_itf                   0x10012154   Section        0  gatt_api.o(i.get_gatt_default_itf)
    i.get_stored_info_req                    0x1001215c   Section        0  app_proj_event.o(i.get_stored_info_req)
    i.gpio_init                              0x100121f8   Section        0  driver_gpio.o(i.gpio_init)
    i.gpio_write_pin                         0x1001254c   Section        0  driver_gpio.o(i.gpio_write_pin)
    i.guiBleComond                           0x100125b4   Section        0  sdl_event.o(i.guiBleComond)
    i.guiProcKey                             0x100125f4   Section        0  sdl_event.o(i.guiProcKey)
    i.gui_context_find_widget                0x1001262c   Section        0  guicontext.o(i.gui_context_find_widget)
    i.gui_context_get_current_page           0x10012660   Section        0  guicontext.o(i.gui_context_get_current_page)
    i.gui_context_init                       0x1001266c   Section        0  guicontext.o(i.gui_context_init)
    i.gui_context_invalidate                 0x10012834   Section        0  guicontext.o(i.gui_context_invalidate)
    i.gui_context_open_page                  0x10012890   Section        0  guicontext.o(i.gui_context_open_page)
    i.gui_context_open_page_with_pos         0x100128a4   Section        0  guicontext.o(i.gui_context_open_page_with_pos)
    i.gui_context_procreg                    0x100128c4   Section        0  guicontext.o(i.gui_context_procreg)
    i.gui_context_run                        0x100128f4   Section        0  guicontext.o(i.gui_context_run)
    i.gui_init                               0x10012924   Section        0  gui_main.o(i.gui_init)
    i.gui_main                               0x100129dc   Section        0  gui_main.o(i.gui_main)
    i.hci_acl_data_handler                   0x10012a60   Section        0  l2cc_task.o(i.hci_acl_data_handler)
    hci_acl_data_handler                     0x10012a61   Thumb Code   178  l2cc_task.o(i.hci_acl_data_handler)
    i.hci_auth_payl_to_exp_evt_handler       0x10012b1c   Section        0  gapc_hci.o(i.hci_auth_payl_to_exp_evt_handler)
    hci_auth_payl_to_exp_evt_handler         0x10012b1d   Thumb Code    36  gapc_hci.o(i.hci_auth_payl_to_exp_evt_handler)
    i.hci_basic_cmd_cmp_evt_cfg_handler      0x10012b40   Section        0  gapm_cfg.o(i.hci_basic_cmd_cmp_evt_cfg_handler)
    i.hci_basic_cmd_cmp_evt_rl_cfg_handler   0x10012be4   Section        0  gapm_cfg.o(i.hci_basic_cmd_cmp_evt_rl_cfg_handler)
    i.hci_cmd_stat_event_handler             0x10012c28   Section        0  gapc_hci.o(i.hci_cmd_stat_event_handler)
    hci_cmd_stat_event_handler               0x10012c29   Thumb Code   240  gapc_hci.o(i.hci_cmd_stat_event_handler)
    i.hci_disc_cmp_evt_handler               0x10012d1c   Section        0  gapc_hci.o(i.hci_disc_cmp_evt_handler)
    hci_disc_cmp_evt_handler                 0x10012d1d   Thumb Code    88  gapc_hci.o(i.hci_disc_cmp_evt_handler)
    i.hci_enc_chg_evt_handler                0x10012d78   Section        0  gapc_hci.o(i.hci_enc_chg_evt_handler)
    hci_enc_chg_evt_handler                  0x10012d79   Thumb Code    36  gapc_hci.o(i.hci_enc_chg_evt_handler)
    i.hci_enc_key_refr_evt_handler           0x10012da0   Section        0  gapc_hci.o(i.hci_enc_key_refr_evt_handler)
    hci_enc_key_refr_evt_handler             0x10012da1   Thumb Code    36  gapc_hci.o(i.hci_enc_key_refr_evt_handler)
    i.hci_le_adv_set_term_evt_handler        0x10012dc8   Section        0  gapm_adv.o(i.hci_le_adv_set_term_evt_handler)
    i.hci_le_ch_sel_algo_evt_handler         0x10012e38   Section        0  gapc_hci.o(i.hci_le_ch_sel_algo_evt_handler)
    i.hci_le_cmd_cmp_evt_addr_handler        0x10012e60   Section        0  gapm_addr.o(i.hci_le_cmd_cmp_evt_addr_handler)
    i.hci_le_cmd_cmp_evt_adv_handler         0x10012e98   Section        0  gapm_adv.o(i.hci_le_cmd_cmp_evt_adv_handler)
    i.hci_le_cmd_cmp_evt_creating_handler    0x10012f3c   Section        0  gapm_adv.o(i.hci_le_cmd_cmp_evt_creating_handler)
    hci_le_cmd_cmp_evt_creating_handler      0x10012f3d   Thumb Code   230  gapm_adv.o(i.hci_le_cmd_cmp_evt_creating_handler)
    i.hci_le_cmd_cmp_evt_init_handler        0x10013028   Section        0  gapm_init.o(i.hci_le_cmd_cmp_evt_init_handler)
    i.hci_le_cmd_cmp_evt_list_handler        0x100130a8   Section        0  gapm_list.o(i.hci_le_cmd_cmp_evt_list_handler)
    i.hci_le_cmd_cmp_evt_per_sync_handler    0x10013148   Section        0  gapm_per_sync.o(i.hci_le_cmd_cmp_evt_per_sync_handler)
    i.hci_le_cmd_cmp_evt_scan_handler        0x1001317c   Section        0  gapm_scan.o(i.hci_le_cmd_cmp_evt_scan_handler)
    i.hci_le_cmd_cmp_evt_starting_handler    0x100131e4   Section        0  gapm_adv.o(i.hci_le_cmd_cmp_evt_starting_handler)
    hci_le_cmd_cmp_evt_starting_handler      0x100131e5   Thumb Code   126  gapm_adv.o(i.hci_le_cmd_cmp_evt_starting_handler)
    i.hci_le_con_update_cmp_evt_handler      0x10013264   Section        0  gapc_hci.o(i.hci_le_con_update_cmp_evt_handler)
    hci_le_con_update_cmp_evt_handler        0x10013265   Thumb Code   138  gapc_hci.o(i.hci_le_con_update_cmp_evt_handler)
    i.hci_le_data_len_chg_evt_handler        0x100132f4   Section        0  gapc_hci.o(i.hci_le_data_len_chg_evt_handler)
    hci_le_data_len_chg_evt_handler          0x100132f5   Thumb Code    60  gapc_hci.o(i.hci_le_data_len_chg_evt_handler)
    i.hci_le_enh_con_cmp_evt_handler         0x10013330   Section        0  gapm_actv.o(i.hci_le_enh_con_cmp_evt_handler)
    i.hci_le_ext_adv_report_evt_handler      0x10013358   Section        0  gapm_scan.o(i.hci_le_ext_adv_report_evt_handler)
    i.hci_le_gen_dhkey_stat_evt_handler      0x1001341c   Section        0  gapm_smp.o(i.hci_le_gen_dhkey_stat_evt_handler)
    i.hci_le_generate_dhkey_cmp_evt_handler  0x10013442   Section        0  gapm_smp.o(i.hci_le_generate_dhkey_cmp_evt_handler)
    i.hci_le_ltk_request_evt_handler         0x10013498   Section        0  gapc_hci.o(i.hci_le_ltk_request_evt_handler)
    hci_le_ltk_request_evt_handler           0x10013499   Thumb Code   118  gapc_hci.o(i.hci_le_ltk_request_evt_handler)
    i.hci_le_per_adv_report_evt_handler      0x10013518   Section        0  gapm_per_sync.o(i.hci_le_per_adv_report_evt_handler)
    i.hci_le_per_adv_sync_est_evt_handler    0x10013568   Section        0  gapm_per_sync.o(i.hci_le_per_adv_sync_est_evt_handler)
    i.hci_le_per_adv_sync_lost_evt_handler   0x100135ce   Section        0  gapm_per_sync.o(i.hci_le_per_adv_sync_lost_evt_handler)
    i.hci_le_phy_upd_cmp_evt_handler         0x100135ec   Section        0  gapc_hci.o(i.hci_le_phy_upd_cmp_evt_handler)
    hci_le_phy_upd_cmp_evt_handler           0x100135ed   Thumb Code   100  gapc_hci.o(i.hci_le_phy_upd_cmp_evt_handler)
    i.hci_le_rd_adv_chnl_tx_pw_cmd_cmp_evt_handler 0x10013654   Section        0  gapm_cfg.o(i.hci_le_rd_adv_chnl_tx_pw_cmd_cmp_evt_handler)
    i.hci_le_rd_buff_size_cmd_cmp_evt_handler 0x10013698   Section        0  gapm_cfg.o(i.hci_le_rd_buff_size_cmd_cmp_evt_handler)
    i.hci_le_rd_local_p256_public_key_cmp_evt_handler 0x100136c8   Section        0  gapm_cfg.o(i.hci_le_rd_local_p256_public_key_cmp_evt_handler)
    i.hci_le_rd_max_data_len_cmd_cmp_evt_handler 0x10013758   Section        0  gapm_cfg.o(i.hci_le_rd_max_data_len_cmd_cmp_evt_handler)
    i.hci_le_rd_nb_supp_adv_sets_cmd_cmp_evt_handler 0x1001379c   Section        0  gapm_cfg.o(i.hci_le_rd_nb_supp_adv_sets_cmd_cmp_evt_handler)
    i.hci_le_rd_pal_size_cmd_cmp_evt_handler 0x10013804   Section        0  gapm_list.o(i.hci_le_rd_pal_size_cmd_cmp_evt_handler)
    i.hci_le_rd_phy_cmd_cmp_evt_handler      0x10013840   Section        0  gapc_hci.o(i.hci_le_rd_phy_cmd_cmp_evt_handler)
    hci_le_rd_phy_cmd_cmp_evt_handler        0x10013841   Thumb Code    88  gapc_hci.o(i.hci_le_rd_phy_cmd_cmp_evt_handler)
    i.hci_le_rd_ral_addr_cmd_cmp_evt_handler 0x1001389c   Section        0  gapm_list.o(i.hci_le_rd_ral_addr_cmd_cmp_evt_handler)
    i.hci_le_rd_ral_size_cmd_cmp_evt_handler 0x10013902   Section        0  gapm_list.o(i.hci_le_rd_ral_size_cmd_cmp_evt_handler)
    i.hci_le_rd_rem_feats_cmp_evt_handler    0x1001393c   Section        0  gapc_hci.o(i.hci_le_rd_rem_feats_cmp_evt_handler)
    hci_le_rd_rem_feats_cmp_evt_handler      0x1001393d   Thumb Code   158  gapc_hci.o(i.hci_le_rd_rem_feats_cmp_evt_handler)
    i.hci_le_rd_rf_path_comp_cmd_cmp_evt_handler 0x100139e0   Section        0  gapm_cfg.o(i.hci_le_rd_rf_path_comp_cmd_cmp_evt_handler)
    i.hci_le_rd_suggted_dft_data_len_cmd_cmp_evt_handler 0x10013a28   Section        0  gapm_cfg.o(i.hci_le_rd_suggted_dft_data_len_cmd_cmp_evt_handler)
    i.hci_le_rd_tx_pwr_cmd_cmp_evt_handler   0x10013a62   Section        0  gapm_cfg.o(i.hci_le_rd_tx_pwr_cmd_cmp_evt_handler)
    i.hci_le_rd_wlst_size_cmd_cmp_evt_handler 0x10013aaa   Section        0  gapm_list.o(i.hci_le_rd_wlst_size_cmd_cmp_evt_handler)
    i.hci_le_read_max_adv_data_len_cmd_cmp_evt_handler 0x10013ae4   Section        0  gapm_cfg.o(i.hci_le_read_max_adv_data_len_cmd_cmp_evt_handler)
    i.hci_le_rem_con_param_req_evt_handler   0x10013b4c   Section        0  gapc_hci.o(i.hci_le_rem_con_param_req_evt_handler)
    hci_le_rem_con_param_req_evt_handler     0x10013b4d   Thumb Code    76  gapc_hci.o(i.hci_le_rem_con_param_req_evt_handler)
    i.hci_le_scan_req_rcvd_evt_handler       0x10013b9c   Section        0  gapm_adv.o(i.hci_le_scan_req_rcvd_evt_handler)
    i.hci_le_scan_timeout_evt_handler        0x10013bfc   Section        0  gapm_scan.o(i.hci_le_scan_timeout_evt_handler)
    i.hci_le_set_data_len_cmd_cmp_evt_handler 0x10013c24   Section        0  gapc_hci.o(i.hci_le_set_data_len_cmd_cmp_evt_handler)
    hci_le_set_data_len_cmd_cmp_evt_handler  0x10013c25   Thumb Code    46  gapc_hci.o(i.hci_le_set_data_len_cmd_cmp_evt_handler)
    i.hci_le_start_enc_stat_evt_handler      0x10013c58   Section        0  gapc_hci.o(i.hci_le_start_enc_stat_evt_handler)
    hci_le_start_enc_stat_evt_handler        0x10013c59   Thumb Code    36  gapc_hci.o(i.hci_le_start_enc_stat_evt_handler)
    i.hci_nb_cmp_pkts_evt_handler            0x10013c7c   Section        0  l2cc_task.o(i.hci_nb_cmp_pkts_evt_handler)
    hci_nb_cmp_pkts_evt_handler              0x10013c7d   Thumb Code    52  l2cc_task.o(i.hci_nb_cmp_pkts_evt_handler)
    i.hci_rd_auth_payl_to_cmd_cmp_evt_handler 0x10013cb4   Section        0  gapc_hci.o(i.hci_rd_auth_payl_to_cmd_cmp_evt_handler)
    hci_rd_auth_payl_to_cmd_cmp_evt_handler  0x10013cb5   Thumb Code    72  gapc_hci.o(i.hci_rd_auth_payl_to_cmd_cmp_evt_handler)
    i.hci_rd_bd_addr_cmd_cmp_evt_handler     0x10013cfc   Section        0  gapm_cfg.o(i.hci_rd_bd_addr_cmd_cmp_evt_handler)
    i.hci_rd_buff_size_cmd_cmp_evt_handler   0x10013d40   Section        0  gapm_cfg.o(i.hci_rd_buff_size_cmd_cmp_evt_handler)
    i.hci_rd_chnl_map_cmd_cmp_evt_handler    0x10013d70   Section        0  gapc_hci.o(i.hci_rd_chnl_map_cmd_cmp_evt_handler)
    hci_rd_chnl_map_cmd_cmp_evt_handler      0x10013d71   Thumb Code    96  gapc_hci.o(i.hci_rd_chnl_map_cmd_cmp_evt_handler)
    i.hci_rd_local_ver_info_cmd_cmp_evt_handler 0x10013dd0   Section        0  gapm_cfg.o(i.hci_rd_local_ver_info_cmd_cmp_evt_handler)
    i.hci_rd_rem_ver_info_cmp_evt_handler    0x10013e38   Section        0  gapc_hci.o(i.hci_rd_rem_ver_info_cmp_evt_handler)
    hci_rd_rem_ver_info_cmp_evt_handler      0x10013e39   Thumb Code   130  gapc_hci.o(i.hci_rd_rem_ver_info_cmp_evt_handler)
    i.hci_rd_rssi_cmd_cmp_evt_handler        0x10013ec0   Section        0  gapc_hci.o(i.hci_rd_rssi_cmd_cmp_evt_handler)
    hci_rd_rssi_cmd_cmp_evt_handler          0x10013ec1   Thumb Code    92  gapc_hci.o(i.hci_rd_rssi_cmd_cmp_evt_handler)
    i.hci_test_end_cmd_cmp_evt_handler       0x10013f1c   Section        0  gapm_cfg.o(i.hci_test_end_cmd_cmp_evt_handler)
    i.hci_vs_set_pref_slave_latency_cmd_cmp_evt_handler 0x10013f58   Section        0  gapc_hci.o(i.hci_vs_set_pref_slave_latency_cmd_cmp_evt_handler)
    hci_vs_set_pref_slave_latency_cmd_cmp_evt_handler 0x10013f59   Thumb Code    46  gapc_hci.o(i.hci_vs_set_pref_slave_latency_cmd_cmp_evt_handler)
    i.hci_wr_auth_payl_to_cmd_cmp_evt_handler 0x10013f8c   Section        0  gapc_hci.o(i.hci_wr_auth_payl_to_cmd_cmp_evt_handler)
    hci_wr_auth_payl_to_cmd_cmp_evt_handler  0x10013f8d   Thumb Code    38  gapc_hci.o(i.hci_wr_auth_payl_to_cmd_cmp_evt_handler)
    i.host_trng_valid                        0x10013fb4   Section        0  trng.o(i.host_trng_valid)
    host_trng_valid                          0x10013fb5   Thumb Code   132  trng.o(i.host_trng_valid)
    i.i_memset                               0x10014040   Section        0  resource.o(i.i_memset)
    i.image_proc                             0x10014050   Section        0  image.o(i.image_proc)
    i.imagetext_proc                         0x100140a8   Section        0  imagetext.o(i.imagetext_proc)
    i.imagetext_scroll_proc                  0x1001427c   Section        0  imgtext_scroll.o(i.imagetext_scroll_proc)
    i.imagetext_set_scroll                   0x100146c0   Section        0  imgtext_scroll.o(i.imagetext_set_scroll)
    i.imagetext_set_text                     0x100148b8   Section        0  imagetext.o(i.imagetext_set_text)
    i.increment_proc                         0x100148de   Section        0  increment.o(i.increment_proc)
    i.init_screenInfo                        0x10014936   Section        0  sdl_gfx.o(i.init_screenInfo)
    i.initdev                                0x10014938   Section        0  uartupgradedev.o(i.initdev)
    initdev                                  0x10014939   Thumb Code   110  uartupgradedev.o(i.initdev)
    i.initdev                                0x100149f8   Section        0  uartcomm.o(i.initdev)
    initdev                                  0x100149f9   Thumb Code     2  uartcomm.o(i.initdev)
    i.jump_table_get_static_keys             0x100149fc   Section        0  jump_table_host.o(i.jump_table_get_static_keys)
    i.jump_table_memmory_init                0x10014ac0   Section        0  jump_table_host.o(i.jump_table_memmory_init)
    i.jump_table_param_get                   0x10014afc   Section        0  jump_table_host.o(i.jump_table_param_get)
    jump_table_param_get                     0x10014afd   Thumb Code    68  jump_table_host.o(i.jump_table_param_get)
    i.jump_table_param_set                   0x10014b44   Section        0  jump_table_host.o(i.jump_table_param_set)
    jump_table_param_set                     0x10014b45   Thumb Code    50  jump_table_host.o(i.jump_table_param_set)
    i.jump_table_set_static_keys             0x10014b7c   Section        0  jump_table_host.o(i.jump_table_set_static_keys)
    i.ke_task_default_handler_get_patch      0x10014c1c   Section        0  entry.o(i.ke_task_default_handler_get_patch)
    ke_task_default_handler_get_patch        0x10014c1d   Thumb Code     4  entry.o(i.ke_task_default_handler_get_patch)
    i.l2c_code_conn_param_upd_req_handler    0x10014c20   Section        0  l2cc_sig.o(i.l2c_code_conn_param_upd_req_handler)
    l2c_code_conn_param_upd_req_handler      0x10014c21   Thumb Code    60  l2cc_sig.o(i.l2c_code_conn_param_upd_req_handler)
    i.l2c_code_conn_param_upd_req_handler    0x10014c5c   Section        0  gapc_sig.o(i.l2c_code_conn_param_upd_req_handler)
    l2c_code_conn_param_upd_req_handler      0x10014c5d   Thumb Code    98  gapc_sig.o(i.l2c_code_conn_param_upd_req_handler)
    i.l2c_code_conn_param_upd_resp_handler   0x10014cc4   Section        0  l2cc_sig.o(i.l2c_code_conn_param_upd_resp_handler)
    l2c_code_conn_param_upd_resp_handler     0x10014cc5   Thumb Code    58  l2cc_sig.o(i.l2c_code_conn_param_upd_resp_handler)
    i.l2c_code_conn_param_upd_resp_handler   0x10014cfe   Section        0  gapc_sig.o(i.l2c_code_conn_param_upd_resp_handler)
    l2c_code_conn_param_upd_resp_handler     0x10014cff   Thumb Code    68  gapc_sig.o(i.l2c_code_conn_param_upd_resp_handler)
    i.l2c_code_reject_handler                0x10014d42   Section        0  l2cc_sig.o(i.l2c_code_reject_handler)
    l2c_code_reject_handler                  0x10014d43   Thumb Code    28  l2cc_sig.o(i.l2c_code_reject_handler)
    i.l2c_code_reject_handler                0x10014d5e   Section        0  gapc_sig.o(i.l2c_code_reject_handler)
    l2c_code_reject_handler                  0x10014d5f   Thumb Code    80  gapc_sig.o(i.l2c_code_reject_handler)
    i.l2cc_cleanup                           0x10014db0   Section        0  l2cc.o(i.l2cc_cleanup)
    i.l2cc_cmp_evt_handler                   0x10014e60   Section        0  gapc_task.o(i.l2cc_cmp_evt_handler)
    l2cc_cmp_evt_handler                     0x10014e61   Thumb Code    60  gapc_task.o(i.l2cc_cmp_evt_handler)
    i.l2cc_cmp_evt_handler                   0x10014e9c   Section        0  gattc_task.o(i.l2cc_cmp_evt_handler)
    l2cc_cmp_evt_handler                     0x10014e9d   Thumb Code    70  gattc_task.o(i.l2cc_cmp_evt_handler)
    i.l2cc_create                            0x10014ee4   Section        0  l2cc.o(i.l2cc_create)
    i.l2cc_data_send                         0x10014f30   Section        0  l2cc.o(i.l2cc_data_send)
    i.l2cc_dbg_pdu_pack                      0x100150ac   Section        0  l2cc_pdu.o(i.l2cc_dbg_pdu_pack)
    i.l2cc_dbg_pdu_send_cmd_handler          0x100150fc   Section        0  l2cc_task.o(i.l2cc_dbg_pdu_send_cmd_handler)
    l2cc_dbg_pdu_send_cmd_handler            0x100150fd   Thumb Code   106  l2cc_task.o(i.l2cc_dbg_pdu_send_cmd_handler)
    i.l2cc_default_msg_handler               0x1001516c   Section        0  l2cc_task.o(i.l2cc_default_msg_handler)
    l2cc_default_msg_handler                 0x1001516d   Thumb Code     4  l2cc_task.o(i.l2cc_default_msg_handler)
    i.l2cc_init                              0x10015170   Section        0  l2cc.o(i.l2cc_init)
    i.l2cc_lecb_sdu_send_cmd_handler         0x100151c0   Section        0  l2cc_task.o(i.l2cc_lecb_sdu_send_cmd_handler)
    l2cc_lecb_sdu_send_cmd_handler           0x100151c1   Thumb Code    62  l2cc_task.o(i.l2cc_lecb_sdu_send_cmd_handler)
    i.l2cc_op_complete                       0x10015200   Section        0  l2cc.o(i.l2cc_op_complete)
    i.l2cc_pdu_alloc                         0x10015254   Section        0  l2cc_task.o(i.l2cc_pdu_alloc)
    i.l2cc_pdu_header_check                  0x10015280   Section        0  l2cc_pdu.o(i.l2cc_pdu_header_check)
    i.l2cc_pdu_pack                          0x100153c4   Section        0  l2cc_pdu.o(i.l2cc_pdu_pack)
    i.l2cc_pdu_recv_ind_handler              0x10015678   Section        0  l2cc_task.o(i.l2cc_pdu_recv_ind_handler)
    l2cc_pdu_recv_ind_handler                0x10015679   Thumb Code    98  l2cc_task.o(i.l2cc_pdu_recv_ind_handler)
    i.l2cc_pdu_recv_ind_handler              0x100156da   Section        0  gapc_task.o(i.l2cc_pdu_recv_ind_handler)
    l2cc_pdu_recv_ind_handler                0x100156db   Thumb Code   104  gapc_task.o(i.l2cc_pdu_recv_ind_handler)
    i.l2cc_pdu_recv_ind_handler              0x10015742   Section        0  gattc_task.o(i.l2cc_pdu_recv_ind_handler)
    l2cc_pdu_recv_ind_handler                0x10015743   Thumb Code   114  gattc_task.o(i.l2cc_pdu_recv_ind_handler)
    i.l2cc_pdu_rx_init                       0x100157b4   Section        0  l2cc_pdu.o(i.l2cc_pdu_rx_init)
    i.l2cc_pdu_send                          0x10015834   Section        0  l2cc_task.o(i.l2cc_pdu_send)
    i.l2cc_pdu_send_cmd_handler              0x1001583c   Section        0  l2cc_task.o(i.l2cc_pdu_send_cmd_handler)
    l2cc_pdu_send_cmd_handler                0x1001583d   Thumb Code    90  l2cc_task.o(i.l2cc_pdu_send_cmd_handler)
    i.l2cc_pdu_unpack                        0x1001589c   Section        0  l2cc_pdu.o(i.l2cc_pdu_unpack)
    i.l2cc_send_cmp_evt                      0x10015b34   Section        0  l2cc.o(i.l2cc_send_cmp_evt)
    i.l2cc_sig_pdu_recv_handler              0x10015b64   Section        0  l2cc_sig.o(i.l2cc_sig_pdu_recv_handler)
    i.l2cc_sig_send_cmd_reject               0x10015bb0   Section        0  l2cc_sig.o(i.l2cc_sig_send_cmd_reject)
    i.l2cc_update_state                      0x10015c0c   Section        0  l2cc.o(i.l2cc_update_state)
    i.l2cm_cleanup                           0x10015c34   Section        0  l2cm.o(i.l2cm_cleanup)
    i.l2cm_create                            0x10015c4a   Section        0  l2cm.o(i.l2cm_create)
    i.l2cm_get_nb_buffer_available           0x10015c50   Section        0  l2cm.o(i.l2cm_get_nb_buffer_available)
    i.l2cm_init                              0x10015c5c   Section        0  l2cm.o(i.l2cm_init)
    i.l2cm_l2cap_tx_handler                  0x10015c8c   Section        0  l2cm.o(i.l2cm_l2cap_tx_handler)
    l2cm_l2cap_tx_handler                    0x10015c8d   Thumb Code    88  l2cm.o(i.l2cm_l2cap_tx_handler)
    i.l2cm_set_link_layer_buff_size          0x10015cec   Section        0  l2cm.o(i.l2cm_set_link_layer_buff_size)
    i.l2cm_tx_status                         0x10015cfc   Section        0  l2cm.o(i.l2cm_tx_status)
    i.lHHIJhYjeCaMg3gG                       0x10015d28   Section        0  zksec.o(i.lHHIJhYjeCaMg3gG)
    lHHIJhYjeCaMg3gG                         0x10015d29   Thumb Code   136  zksec.o(i.lHHIJhYjeCaMg3gG)
    i.label_proc                             0x10015ddc   Section        0  label.o(i.label_proc)
    i.label_set_text                         0x10016078   Section        0  label.o(i.label_set_text)
    i.lcd_setbrightness                      0x100160c0   Section        0  sdl_video_1.o(i.lcd_setbrightness)
    i.log_init                               0x100160d8   Section        0  co_log.o(i.log_init)
    i.log_printf                             0x10016168   Section        0  co_log.o(i.log_printf)
    i.log_printf_level                       0x10016190   Section        0  co_log.o(i.log_printf_level)
    i.lvd_threshold                          0x10016194   Section        0  driver_pmu.o(i.lvd_threshold)
    i.m_al_get_local_addr                    0x100161b8   Section        0  m_al_task.o(i.m_al_get_local_addr)
    i.m_tb_state_is_feature_sup              0x100161c0   Section        0  m_tb_state.o(i.m_tb_state_is_feature_sup)
    i.mesh_set_runtime                       0x100161d8   Section        0  mesh_api.o(i.mesh_set_runtime)
    i.message_dequeue                        0x10016224   Section        0  message.o(i.message_dequeue)
    i.message_enqueue                        0x10016254   Section        0  message.o(i.message_enqueue)
    i.message_init                           0x10016280   Section        0  message.o(i.message_init)
    i.mw9VZnDHubl3                           0x10016290   Section        0  zksec.o(i.mw9VZnDHubl3)
    i.ntf_data                               0x100162ec   Section        0  simple_gatt_service.o(i.ntf_data)
    i.numtext_proc                           0x10016314   Section        0  numtext.o(i.numtext_proc)
    i.on_animation_play_end                  0x10016580   Section        0  ui_context.o(i.on_animation_play_end)
    i.on_button_touch_event                  0x100165ac   Section        0  ui_context.o(i.on_button_touch_event)
    i.on_page_open                           0x100165dc   Section        0  ui_context.o(i.on_page_open)
    i.on_progress_changed                    0x10016604   Section        0  ui_context.o(i.on_progress_changed)
    i.on_timer                               0x10016634   Section        0  ui_context.o(i.on_timer)
    i.os_default_task_func                   0x10016664   Section        0  os_task.o(i.os_default_task_func)
    os_default_task_func                     0x10016665   Thumb Code    44  os_task.o(i.os_default_task_func)
    i.os_msg_post                            0x10016694   Section        0  os_msg_q.o(i.os_msg_post)
    i.os_zalloc                              0x100166f4   Section        0  os_mem.o(i.os_zalloc)
    i.pKKFrMQUHba                            0x1001670c   Section        0  resource.o(i.pKKFrMQUHba)
    i.pmu_calibration_restart                0x10016800   Section        0  sys_utisl.o(i.pmu_calibration_restart)
    i.pmu_cp_trim_config                     0x10016860   Section        0  driver_pmu.o(i.pmu_cp_trim_config)
    i.pmu_ft_trim_config                     0x100169b4   Section        0  driver_pmu.o(i.pmu_ft_trim_config)
    i.pmu_get_isr_state                      0x10016ba8   Section        0  driver_pmu.o(i.pmu_get_isr_state)
    i.pmu_gpio_isr                           0x10016bb8   Section        0  driver_pmu.o(i.pmu_gpio_isr)
    i.pmu_lvd_en                             0x10016bba   Section        0  driver_pmu.o(i.pmu_lvd_en)
    i.pmu_reset_internal_cnt                 0x10016c54   Section        0  driver_pmu.o(i.pmu_reset_internal_cnt)
    i.pmu_sub_init                           0x10016c88   Section        0  driver_pmu.o(i.pmu_sub_init)
    i.prf_add_profile                        0x10016fe8   Section        0  prf.o(i.prf_add_profile)
    i.prf_cleanup                            0x100170a8   Section        0  prf.o(i.prf_cleanup)
    i.prf_create                             0x100170fc   Section        0  prf.o(i.prf_create)
    i.prf_extract_svc_info_uuid_128          0x10017150   Section        0  prf_utils.o(i.prf_extract_svc_info_uuid_128)
    i.prf_get_task_from_id                   0x100172f0   Section        0  prf.o(i.prf_get_task_from_id)
    i.prf_init                               0x1001733c   Section        0  prf.o(i.prf_init)
    i.prf_itf_get_imp                        0x10017438   Section        0  app_prf.o(i.prf_itf_get_imp)
    i.procKey                                0x10017460   Section        0  sdl_event.o(i.procKey)
    i.procMsg                                0x100175b8   Section        0  uartupgradedev.o(i.procMsg)
    procMsg                                  0x100175b9   Thumb Code    44  uartupgradedev.o(i.procMsg)
    i.procMsg                                0x100175fc   Section        0  uartcomm.o(i.procMsg)
    procMsg                                  0x100175fd   Thumb Code    10  uartcomm.o(i.procMsg)
    i.procUartDGUS                           0x10017608   Section        0  uartcomm.o(i.procUartDGUS)
    procUartDGUS                             0x10017609   Thumb Code    78  uartcomm.o(i.procUartDGUS)
    i.procUartUpdateReq                      0x10017668   Section        0  uartupgradedev.o(i.procUartUpdateReq)
    procUartUpdateReq                        0x10017669   Thumb Code   114  uartupgradedev.o(i.procUartUpdateReq)
    i.processCmd                             0x10017704   Section        0  uartupgradedev.o(i.processCmd)
    processCmd                               0x10017705   Thumb Code    18  uartupgradedev.o(i.processCmd)
    i.processUpgrade                         0x10017718   Section        0  uartupgradedev.o(i.processUpgrade)
    processUpgrade                           0x10017719   Thumb Code   664  uartupgradedev.o(i.processUpgrade)
    i.processUpgrade_simple                  0x100179c8   Section        0  uartupgradedev.o(i.processUpgrade_simple)
    processUpgrade_simple                    0x100179c9   Thumb Code   218  uartupgradedev.o(i.processUpgrade_simple)
    i.progress_proc                          0x10017b0c   Section        0  progress.o(i.progress_proc)
    i.progress_set_value                     0x10017e1c   Section        0  progress.o(i.progress_set_value)
    i.proj_init                              0x10017e4c   Section        0  proj_main.o(i.proj_init)
    i.psram_controller_init                  0x10017e98   Section        0  driver_psram.o(i.psram_controller_init)
    psram_controller_init                    0x10017e99   Thumb Code   254  driver_psram.o(i.psram_controller_init)
    i.psram_enter_quad                       0x10017f9c   Section        0  driver_psram.o(i.psram_enter_quad)
    i.psram_init                             0x10017fb0   Section        0  driver_psram.o(i.psram_init)
    i.pwm_dac_config                         0x10018008   Section        0  driver_pwm.o(i.pwm_dac_config)
    i.pwm_output_enable                      0x10018080   Section        0  driver_pwm.o(i.pwm_output_enable)
    i.qsSh4w5pnRqMCb                         0x100180a4   Section        0  md5.o(i.qsSh4w5pnRqMCb)
    i.qsSh4w5pnRqMCj                         0x100180fc   Section        0  md5.o(i.qsSh4w5pnRqMCj)
    i.qspi0_cfg_set_baudrate                 0x1001818c   Section        0  driver_psram.o(i.qspi0_cfg_set_baudrate)
    qspi0_cfg_set_baudrate                   0x1001818d   Thumb Code    14  driver_psram.o(i.qspi0_cfg_set_baudrate)
    i.qspi0_cfg_set_cpha                     0x100181a0   Section        0  driver_psram.o(i.qspi0_cfg_set_cpha)
    i.qspi0_cfg_set_cpol                     0x100181b4   Section        0  driver_psram.o(i.qspi0_cfg_set_cpol)
    i.qspi0_cfg_set_enable                   0x100181c8   Section        0  driver_psram.o(i.qspi0_cfg_set_enable)
    i.qspi0_cfg_set_enable_AHB_decoder       0x100181dc   Section        0  driver_psram.o(i.qspi0_cfg_set_enable_AHB_decoder)
    i.qspi0_cfg_set_enable_dac               0x100181f0   Section        0  driver_psram.o(i.qspi0_cfg_set_enable_dac)
    i.qspi0_cfg_set_enable_legacy            0x10018204   Section        0  driver_psram.o(i.qspi0_cfg_set_enable_legacy)
    i.qspi0_cfg_set_enable_remap             0x10018218   Section        0  driver_psram.o(i.qspi0_cfg_set_enable_remap)
    i.qspi0_is_busy                          0x1001822c   Section        0  driver_psram.o(i.qspi0_is_busy)
    i.qspi0_poll_set_disable                 0x1001823c   Section        0  driver_psram.o(i.qspi0_poll_set_disable)
    i.qspi0_read_set_address_type            0x10018250   Section        0  driver_psram.o(i.qspi0_read_set_address_type)
    i.qspi0_read_set_data_type               0x10018264   Section        0  driver_psram.o(i.qspi0_read_set_data_type)
    i.qspi0_read_set_dummy_cycles            0x10018278   Section        0  driver_psram.o(i.qspi0_read_set_dummy_cycles)
    i.qspi0_read_set_instruction_type        0x1001828c   Section        0  driver_psram.o(i.qspi0_read_set_instruction_type)
    i.qspi0_read_set_mode_en                 0x100182a0   Section        0  driver_psram.o(i.qspi0_read_set_mode_en)
    i.qspi0_read_set_opcode                  0x100182b4   Section        0  driver_psram.o(i.qspi0_read_set_opcode)
    i.qspi0_set_mode_bit                     0x100182c8   Section        0  driver_psram.o(i.qspi0_set_mode_bit)
    i.qspi0_set_remap_address                0x100182d4   Section        0  driver_psram.o(i.qspi0_set_remap_address)
    i.qspi0_stig_cmd                         0x100182e0   Section        0  driver_psram.o(i.qspi0_stig_cmd)
    qspi0_stig_cmd                           0x100182e1   Thumb Code   568  driver_psram.o(i.qspi0_stig_cmd)
    i.qspi0_write_set_address_type           0x1001851c   Section        0  driver_psram.o(i.qspi0_write_set_address_type)
    i.qspi0_write_set_data_type              0x10018530   Section        0  driver_psram.o(i.qspi0_write_set_data_type)
    i.qspi0_write_set_dummy_cycles           0x10018544   Section        0  driver_psram.o(i.qspi0_write_set_dummy_cycles)
    i.qspi0_write_set_opcode                 0x10018558   Section        0  driver_psram.o(i.qspi0_write_set_opcode)
    i.qspi0_write_set_wel_dis                0x1001856c   Section        0  driver_psram.o(i.qspi0_write_set_wel_dis)
    i.readKey                                0x10018580   Section        0  sdl_event.o(i.readKey)
    i.read_uart_data                         0x10018594   Section        0  zksec.o(i.read_uart_data)
    read_uart_data                           0x10018595   Thumb Code   316  zksec.o(i.read_uart_data)
    i.resource_load_string                   0x10018708   Section        0  resource.o(i.resource_load_string)
    i.rwble_hl_init_imp                      0x10018774   Section        0  rwble_hl.o(i.rwble_hl_init_imp)
    i.rwble_hl_reset                         0x10018792   Section        0  rwble_hl.o(i.rwble_hl_reset)
    i.show_reg                               0x100187b0   Section        0  simple_gatt_service.o(i.show_reg)
    i.simple_peripheral_init                 0x100187e8   Section        0  ble_simple_peripheral.o(i.simple_peripheral_init)
    i.smpc_ShiftLeft1Bit16ByteNum            0x100188d0   Section        0  smpc_crypto.o(i.smpc_ShiftLeft1Bit16ByteNum)
    i.smpc_XOR_16_Byte_Array                 0x100188f4   Section        0  smpc_crypto.o(i.smpc_XOR_16_Byte_Array)
    i.smpc_aes_cmac_complete                 0x1001890c   Section        0  smpc_crypto.o(i.smpc_aes_cmac_complete)
    i.smpc_aes_cmac_continue                 0x10018954   Section        0  smpc_crypto.o(i.smpc_aes_cmac_continue)
    i.smpc_aes_cmac_init                     0x10018aa4   Section        0  smpc_crypto.o(i.smpc_aes_cmac_init)
    i.smpc_calc_confirm_cont                 0x10018af0   Section        0  smpc_api.o(i.smpc_calc_confirm_cont)
    i.smpc_calc_subkeys                      0x10019040   Section        0  smpc.o(i.smpc_calc_subkeys)
    i.smpc_check_key_distrib                 0x100190c4   Section        0  smpc.o(i.smpc_check_key_distrib)
    i.smpc_check_max_key_size                0x10019144   Section        0  smpc.o(i.smpc_check_max_key_size)
    i.smpc_check_pairing_feat                0x10019170   Section        0  smpc.o(i.smpc_check_pairing_feat)
    i.smpc_check_param                       0x10019194   Section        0  smpc_util.o(i.smpc_check_param)
    i.smpc_check_repeated_attempts           0x10019218   Section        0  smpc.o(i.smpc_check_repeated_attempts)
    i.smpc_clear_timeout_timer               0x1001927c   Section        0  smpc.o(i.smpc_clear_timeout_timer)
    i.smpc_confirm_gen_rand                  0x100192b0   Section        0  smpc_api.o(i.smpc_confirm_gen_rand)
    i.smpc_construcpublic_key_t_pdu          0x100194f8   Section        0  smpc_util.o(i.smpc_construcpublic_key_t_pdu)
    smpc_construcpublic_key_t_pdu            0x100194f9   Thumb Code    30  smpc_util.o(i.smpc_construcpublic_key_t_pdu)
    i.smpc_construct_dhkey_check_pdu         0x10019516   Section        0  smpc_util.o(i.smpc_construct_dhkey_check_pdu)
    smpc_construct_dhkey_check_pdu           0x10019517   Thumb Code     8  smpc_util.o(i.smpc_construct_dhkey_check_pdu)
    i.smpc_construct_enc_info_pdu            0x1001951e   Section        0  smpc_util.o(i.smpc_construct_enc_info_pdu)
    smpc_construct_enc_info_pdu              0x1001951f   Thumb Code     8  smpc_util.o(i.smpc_construct_enc_info_pdu)
    i.smpc_construct_id_addr_info_pdu        0x10019526   Section        0  smpc_util.o(i.smpc_construct_id_addr_info_pdu)
    smpc_construct_id_addr_info_pdu          0x10019527   Thumb Code    30  smpc_util.o(i.smpc_construct_id_addr_info_pdu)
    i.smpc_construct_id_info_pdu             0x10019544   Section        0  smpc_util.o(i.smpc_construct_id_info_pdu)
    smpc_construct_id_info_pdu               0x10019545   Thumb Code     8  smpc_util.o(i.smpc_construct_id_info_pdu)
    i.smpc_construct_keypress_notification_pdu 0x1001954c   Section        0  smpc_util.o(i.smpc_construct_keypress_notification_pdu)
    smpc_construct_keypress_notification_pdu 0x1001954d   Thumb Code     6  smpc_util.o(i.smpc_construct_keypress_notification_pdu)
    i.smpc_construct_mst_id_pdu              0x10019552   Section        0  smpc_util.o(i.smpc_construct_mst_id_pdu)
    smpc_construct_mst_id_pdu                0x10019553   Thumb Code    18  smpc_util.o(i.smpc_construct_mst_id_pdu)
    i.smpc_construct_pair_cfm_pdu            0x10019564   Section        0  smpc_util.o(i.smpc_construct_pair_cfm_pdu)
    smpc_construct_pair_cfm_pdu              0x10019565   Thumb Code     8  smpc_util.o(i.smpc_construct_pair_cfm_pdu)
    i.smpc_construct_pair_fail_pdu           0x1001956c   Section        0  smpc_util.o(i.smpc_construct_pair_fail_pdu)
    smpc_construct_pair_fail_pdu             0x1001956d   Thumb Code     6  smpc_util.o(i.smpc_construct_pair_fail_pdu)
    i.smpc_construct_pair_rand_pdu           0x10019572   Section        0  smpc_util.o(i.smpc_construct_pair_rand_pdu)
    smpc_construct_pair_rand_pdu             0x10019573   Thumb Code     8  smpc_util.o(i.smpc_construct_pair_rand_pdu)
    i.smpc_construct_pair_req_pdu            0x1001957a   Section        0  smpc_util.o(i.smpc_construct_pair_req_pdu)
    smpc_construct_pair_req_pdu              0x1001957b   Thumb Code    12  smpc_util.o(i.smpc_construct_pair_req_pdu)
    i.smpc_construct_pair_rsp_pdu            0x10019586   Section        0  smpc_util.o(i.smpc_construct_pair_rsp_pdu)
    smpc_construct_pair_rsp_pdu              0x10019587   Thumb Code    12  smpc_util.o(i.smpc_construct_pair_rsp_pdu)
    i.smpc_construct_sec_req_pdu             0x10019592   Section        0  smpc_util.o(i.smpc_construct_sec_req_pdu)
    smpc_construct_sec_req_pdu               0x10019593   Thumb Code     6  smpc_util.o(i.smpc_construct_sec_req_pdu)
    i.smpc_construct_sign_info_pdu           0x10019598   Section        0  smpc_util.o(i.smpc_construct_sign_info_pdu)
    smpc_construct_sign_info_pdu             0x10019599   Thumb Code     8  smpc_util.o(i.smpc_construct_sign_info_pdu)
    i.smpc_encrypt_cfm                       0x100195a0   Section        0  smpc_api.o(i.smpc_encrypt_cfm)
    i.smpc_encrypt_start                     0x100195d8   Section        0  smpc_api.o(i.smpc_encrypt_start)
    i.smpc_encrypt_start_handler             0x100195fe   Section        0  smpc_api.o(i.smpc_encrypt_start_handler)
    i.smpc_f4_Init                           0x10019638   Section        0  smpc_crypto.o(i.smpc_f4_Init)
    i.smpc_f4_complete                       0x10019694   Section        0  smpc_crypto.o(i.smpc_f4_complete)
    i.smpc_f5_complete                       0x100196cc   Section        0  smpc_crypto.o(i.smpc_f5_complete)
    i.smpc_f5_init                           0x10019704   Section        0  smpc_crypto.o(i.smpc_f5_init)
    i.smpc_f6_complete                       0x100197b4   Section        0  smpc_crypto.o(i.smpc_f6_complete)
    i.smpc_f6_init                           0x100197ec   Section        0  smpc_crypto.o(i.smpc_f6_init)
    i.smpc_g2_complete                       0x10019888   Section        0  smpc_crypto.o(i.smpc_g2_complete)
    i.smpc_g2_init                           0x100198c0   Section        0  smpc_crypto.o(i.smpc_g2_init)
    i.smpc_generate_cfm                      0x10019928   Section        0  smpc.o(i.smpc_generate_cfm)
    i.smpc_generate_ci                       0x100199a8   Section        0  smpc.o(i.smpc_generate_ci)
    i.smpc_generate_e1                       0x10019a1c   Section        0  smpc.o(i.smpc_generate_e1)
    i.smpc_generate_l                        0x10019ad4   Section        0  smpc.o(i.smpc_generate_l)
    i.smpc_generate_rand                     0x10019b2c   Section        0  smpc.o(i.smpc_generate_rand)
    i.smpc_generate_stk                      0x10019b5c   Section        0  smpc.o(i.smpc_generate_stk)
    i.smpc_get_key_sec_prop                  0x10019bac   Section        0  smpc.o(i.smpc_get_key_sec_prop)
    i.smpc_get_next_passkey_bit              0x10019cb4   Section        0  smpc.o(i.smpc_get_next_passkey_bit)
    i.smpc_handle_dh_key_check_complete      0x10019ce4   Section        0  smpc.o(i.smpc_handle_dh_key_check_complete)
    i.smpc_handle_enc_change_evt             0x10019d24   Section        0  smpc.o(i.smpc_handle_enc_change_evt)
    i.smpc_init_mac_key_calculation          0x10019e5c   Section        0  smpc.o(i.smpc_init_mac_key_calculation)
    i.smpc_initiate_dhkey_check              0x10019f04   Section        0  smpc.o(i.smpc_initiate_dhkey_check)
    i.smpc_initiate_dhkey_verification       0x10019fd8   Section        0  smpc.o(i.smpc_initiate_dhkey_verification)
    i.smpc_is_sec_mode_reached               0x1001a0ac   Section        0  smpc.o(i.smpc_is_sec_mode_reached)
    i.smpc_key_press_notification_ind        0x1001a0d8   Section        0  smpc_api.o(i.smpc_key_press_notification_ind)
    i.smpc_launch_rep_att_timer              0x1001a100   Section        0  smpc.o(i.smpc_launch_rep_att_timer)
    i.smpc_pairing_csrk_exch                 0x1001a14c   Section        0  smpc_api.o(i.smpc_pairing_csrk_exch)
    i.smpc_pairing_end                       0x1001a198   Section        0  smpc.o(i.smpc_pairing_end)
    i.smpc_pairing_irk_exch                  0x1001a1f8   Section        0  smpc_api.o(i.smpc_pairing_irk_exch)
    i.smpc_pairing_ltk_exch                  0x1001a240   Section        0  smpc_api.o(i.smpc_pairing_ltk_exch)
    i.smpc_pairing_nc_exch                   0x1001a2ac   Section        0  smpc_api.o(i.smpc_pairing_nc_exch)
    i.smpc_pairing_oob_exch                  0x1001a304   Section        0  smpc_api.o(i.smpc_pairing_oob_exch)
    i.smpc_pairing_req_handler               0x1001a3cc   Section        0  smpc_api.o(i.smpc_pairing_req_handler)
    i.smpc_pairing_rsp                       0x1001a40c   Section        0  smpc_api.o(i.smpc_pairing_rsp)
    i.smpc_pairing_start                     0x1001a544   Section        0  smpc_api.o(i.smpc_pairing_start)
    i.smpc_pairing_tk_exch                   0x1001a5f0   Section        0  smpc_api.o(i.smpc_pairing_tk_exch)
    i.smpc_pdu_recv                          0x1001a6e8   Section        0  smpc.o(i.smpc_pdu_recv)
    i.smpc_pdu_send                          0x1001a740   Section        0  smpc.o(i.smpc_pdu_send)
    i.smpc_process_aes_cmac                  0x1001a7d0   Section        0  smpc_crypto.o(i.smpc_process_aes_cmac)
    i.smpc_recv_dhkey_check_pdu              0x1001a80c   Section        0  smpc_util.o(i.smpc_recv_dhkey_check_pdu)
    smpc_recv_dhkey_check_pdu                0x1001a80d   Thumb Code   126  smpc_util.o(i.smpc_recv_dhkey_check_pdu)
    i.smpc_recv_enc_info_pdu                 0x1001a8ec   Section        0  smpc_util.o(i.smpc_recv_enc_info_pdu)
    smpc_recv_enc_info_pdu                   0x1001a8ed   Thumb Code    48  smpc_util.o(i.smpc_recv_enc_info_pdu)
    i.smpc_recv_id_addr_info_pdu             0x1001a920   Section        0  smpc_util.o(i.smpc_recv_id_addr_info_pdu)
    smpc_recv_id_addr_info_pdu               0x1001a921   Thumb Code    74  smpc_util.o(i.smpc_recv_id_addr_info_pdu)
    i.smpc_recv_id_info_pdu                  0x1001a970   Section        0  smpc_util.o(i.smpc_recv_id_info_pdu)
    smpc_recv_id_info_pdu                    0x1001a971   Thumb Code    48  smpc_util.o(i.smpc_recv_id_info_pdu)
    i.smpc_recv_keypress_notification_pdu    0x1001a9a4   Section        0  smpc_util.o(i.smpc_recv_keypress_notification_pdu)
    smpc_recv_keypress_notification_pdu      0x1001a9a5   Thumb Code   100  smpc_util.o(i.smpc_recv_keypress_notification_pdu)
    i.smpc_recv_mst_id_pdu                   0x1001aa74   Section        0  smpc_util.o(i.smpc_recv_mst_id_pdu)
    smpc_recv_mst_id_pdu                     0x1001aa75   Thumb Code    84  smpc_util.o(i.smpc_recv_mst_id_pdu)
    i.smpc_recv_pair_cfm_pdu                 0x1001aacc   Section        0  smpc_util.o(i.smpc_recv_pair_cfm_pdu)
    smpc_recv_pair_cfm_pdu                   0x1001aacd   Thumb Code   240  smpc_util.o(i.smpc_recv_pair_cfm_pdu)
    i.smpc_recv_pair_fail_pdu                0x1001abc0   Section        0  smpc_util.o(i.smpc_recv_pair_fail_pdu)
    smpc_recv_pair_fail_pdu                  0x1001abc1   Thumb Code    58  smpc_util.o(i.smpc_recv_pair_fail_pdu)
    i.smpc_recv_pair_rand_pdu                0x1001ac00   Section        0  smpc_util.o(i.smpc_recv_pair_rand_pdu)
    smpc_recv_pair_rand_pdu                  0x1001ac01   Thumb Code   496  smpc_util.o(i.smpc_recv_pair_rand_pdu)
    i.smpc_recv_pair_req_pdu                 0x1001adf4   Section        0  smpc_util.o(i.smpc_recv_pair_req_pdu)
    smpc_recv_pair_req_pdu                   0x1001adf5   Thumb Code   162  smpc_util.o(i.smpc_recv_pair_req_pdu)
    i.smpc_recv_pair_rsp_pdu                 0x1001ae9c   Section        0  smpc_util.o(i.smpc_recv_pair_rsp_pdu)
    smpc_recv_pair_rsp_pdu                   0x1001ae9d   Thumb Code   292  smpc_util.o(i.smpc_recv_pair_rsp_pdu)
    i.smpc_recv_public_key_pdu               0x1001afc4   Section        0  smpc_util.o(i.smpc_recv_public_key_pdu)
    smpc_recv_public_key_pdu                 0x1001afc5   Thumb Code   210  smpc_util.o(i.smpc_recv_public_key_pdu)
    i.smpc_recv_sec_req_pdu                  0x1001b0f8   Section        0  smpc_util.o(i.smpc_recv_sec_req_pdu)
    smpc_recv_sec_req_pdu                    0x1001b0f9   Thumb Code   124  smpc_util.o(i.smpc_recv_sec_req_pdu)
    i.smpc_recv_sign_info_pdu                0x1001b178   Section        0  smpc_util.o(i.smpc_recv_sign_info_pdu)
    smpc_recv_sign_info_pdu                  0x1001b179   Thumb Code    48  smpc_util.o(i.smpc_recv_sign_info_pdu)
    i.smpc_secure_connections_enabled        0x1001b1ac   Section        0  smpc.o(i.smpc_secure_connections_enabled)
    i.smpc_security_req_send                 0x1001b1bc   Section        0  smpc_api.o(i.smpc_security_req_send)
    i.smpc_send_gen_dh_key_cmd               0x1001b210   Section        0  smpc.o(i.smpc_send_gen_dh_key_cmd)
    i.smpc_send_ltk_req_rsp                  0x1001b250   Section        0  smpc.o(i.smpc_send_ltk_req_rsp)
    i.smpc_send_pairing_ind                  0x1001b2c8   Section        0  smpc.o(i.smpc_send_pairing_ind)
    i.smpc_send_pairing_req_ind              0x1001b378   Section        0  smpc.o(i.smpc_send_pairing_req_ind)
    i.smpc_send_start_enc_cmd                0x1001b478   Section        0  smpc.o(i.smpc_send_start_enc_cmd)
    i.smpc_send_use_enc_block_cmd            0x1001b500   Section        0  smpc.o(i.smpc_send_use_enc_block_cmd)
    i.smpc_sign_command                      0x1001b540   Section        0  smpc_api.o(i.smpc_sign_command)
    i.smpc_sign_cont                         0x1001b628   Section        0  smpc_api.o(i.smpc_sign_cont)
    i.smpc_tkdp_rcp_continue                 0x1001b800   Section        0  smpc.o(i.smpc_tkdp_rcp_continue)
    i.smpc_tkdp_rcp_start                    0x1001b8c4   Section        0  smpc.o(i.smpc_tkdp_rcp_start)
    i.smpc_tkdp_send_continue                0x1001b8f4   Section        0  smpc.o(i.smpc_tkdp_send_continue)
    i.smpc_tkdp_send_start                   0x1001b9d8   Section        0  smpc.o(i.smpc_tkdp_send_start)
    i.smpc_xor                               0x1001ba08   Section        0  smpc.o(i.smpc_xor)
    i.sp_gatt_add_service                    0x1001ba20   Section        0  simple_gatt_service.o(i.sp_gatt_add_service)
    i.sp_gatt_msg_handler                    0x1001ba4c   Section        0  simple_gatt_service.o(i.sp_gatt_msg_handler)
    sp_gatt_msg_handler                      0x1001ba4d   Thumb Code   328  simple_gatt_service.o(i.sp_gatt_msg_handler)
    i.sp_start_adv                           0x1001bc40   Section        0  ble_simple_peripheral.o(i.sp_start_adv)
    sp_start_adv                             0x1001bc41   Thumb Code    92  ble_simple_peripheral.o(i.sp_start_adv)
    i.specific_cmd_proc                      0x1001bce4   Section        0  dgus_cmd.o(i.specific_cmd_proc)
    i.spi_master_init                        0x1001bcf2   Section        0  driver_spi_master.o(i.spi_master_init)
    i.spi_master_transmit_X1                 0x1001bd8c   Section        0  driver_spi_master.o(i.spi_master_transmit_X1)
    i.system_get_clock                       0x1001bdf6   Section        0  sys_utisl.o(i.system_get_clock)
    i.system_get_unique_ID                   0x1001bdfc   Section        0  sys_utisl.o(i.system_get_unique_ID)
    i.system_set_clock                       0x1001bec8   Section        0  sys_utisl.o(i.system_set_clock)
    i.system_set_port_pull                   0x1001bed8   Section        0  sys_utisl.o(i.system_set_port_pull)
    i.system_set_tx_power                    0x1001bf0c   Section        0  sys_utisl.o(i.system_set_tx_power)
    i.system_sleep_disable                   0x1001bfc8   Section        0  sys_utisl.o(i.system_sleep_disable)
    i.t_sprint                               0x1001bfd0   Section        0  numtext.o(i.t_sprint)
    i.timer0_isr                             0x1001c020   Section        0  gui_main.o(i.timer0_isr)
    i.timer_init                             0x1001c040   Section        0  driver_timer.o(i.timer_init)
    i.timer_int_clear                        0x1001c054   Section        0  driver_timer.o(i.timer_int_clear)
    i.timer_start                            0x1001c05a   Section        0  driver_timer.o(i.timer_start)
    i.trng_flow_w_specific_smp_cnt           0x1001c064   Section        0  trng.o(i.trng_flow_w_specific_smp_cnt)
    trng_flow_w_specific_smp_cnt             0x1001c065   Thumb Code   166  trng.o(i.trng_flow_w_specific_smp_cnt)
    i.trng_init                              0x1001c110   Section        0  trng.o(i.trng_init)
    i.trng_read_rand_num                     0x1001c114   Section        0  trng.o(i.trng_read_rand_num)
    i.uart_config_baudRate                   0x1001c16c   Section        0  driver_uart_ex.o(i.uart_config_baudRate)
    i.uart_init_ex                           0x1001c238   Section        0  driver_uart_ex.o(i.uart_init_ex)
    i.uart_isr_int                           0x1001c2e8   Section        0  uartupgradedev.o(i.uart_isr_int)
    i.uart_receive_IT                        0x1001c2fe   Section        0  driver_uart_ex.o(i.uart_receive_IT)
    i.uart_transmit                          0x1001c320   Section        0  driver_uart_ex.o(i.uart_transmit)
    i.ui_main_on_animation_play_end          0x1001c356   Section        0  main.o(i.ui_main_on_animation_play_end)
    i.ui_main_on_button_touch_event          0x1001c358   Section        0  main.o(i.ui_main_on_button_touch_event)
    i.ui_main_on_page_open                   0x1001c35c   Section        0  main.o(i.ui_main_on_page_open)
    i.ui_main_on_progress_changed            0x1001c368   Section        0  main.o(i.ui_main_on_progress_changed)
    i.ui_main_on_timer                       0x1001c36c   Section        0  main.o(i.ui_main_on_timer)
    i.uitimer_check                          0x1001c388   Section        0  sdl_timer.o(i.uitimer_check)
    i.uitimer_deinit                         0x1001c3b8   Section        0  sdl_timer.o(i.uitimer_deinit)
    i.uitimer_init                           0x1001c3bc   Section        0  sdl_timer.o(i.uitimer_init)
    i.updateEncodeStatus                     0x1001c404   Section        0  sdl_event.o(i.updateEncodeStatus)
    i.user_main                              0x1001c43c   Section        0  proj_main.o(i.user_main)
    i.vTask1                                 0x1001c624   Section        0  proj_main.o(i.vTask1)
    i.video_deinit                           0x1001c6c0   Section        0  sdl_video_1.o(i.video_deinit)
    i.video_flip                             0x1001c6c4   Section        0  sdl_video_1.o(i.video_flip)
    i.video_init                             0x1001c6d0   Section        0  sdl_video_1.o(i.video_init)
    i.widget_draw_graph                      0x1001cbbc   Section        0  widget.o(i.widget_draw_graph)
    i.widget_invalidate                      0x1001cc18   Section        0  widget.o(i.widget_invalidate)
    i.widget_is_touch_hit                    0x1001cc1c   Section        0  widget.o(i.widget_is_touch_hit)
    i.widget_proc                            0x1001cc34   Section        0  widget.o(i.widget_proc)
    i.window_set_position                    0x1001cc5c   Section        0  window.o(i.window_set_position)
    i.xmyYUhnoR49                            0x1001ccb2   Section        0  zksec.o(i.xmyYUhnoR49)
    xmyYUhnoR49                              0x1001ccb3   Thumb Code    38  zksec.o(i.xmyYUhnoR49)
    .constdata                               0x1001ccd8   Section       20  uartupgradedev.o(.constdata)
    .constdata                               0x1001ccec   Section       60  gui_main.o(.constdata)
    .constdata                               0x1001cd28   Section        6  uartcomm.o(.constdata)
    .constdata                               0x1001cd30   Section       20  uartcomm.o(.constdata)
    .constdata                               0x1001cd44   Section        2  simple_gatt_service.o(.constdata)
    .constdata                               0x1001cd46   Section       17  simple_gatt_service.o(.constdata)
    .constdata                               0x1001cd57   Section       17  simple_gatt_service.o(.constdata)
    .constdata                               0x1001cd68   Section       17  simple_gatt_service.o(.constdata)
    .constdata                               0x1001cd79   Section       17  simple_gatt_service.o(.constdata)
    .constdata                               0x1001cd8a   Section       17  simple_gatt_service.o(.constdata)
    .constdata                               0x1001cd9c   Section      504  simple_gatt_service.o(.constdata)
    .constdata                               0x1001cf94   Section       12  ble_simple_peripheral.o(.constdata)
    .constdata                               0x1001cfa0   Section       12  driver_flash.o(.constdata)
    .constdata                               0x1001cfac   Section       16  driver_psram.o(.constdata)
    psram_read_id_cmd                        0x1001cfac   Data           4  driver_psram.o(.constdata)
    enter_quad_mode_cmd                      0x1001cfb0   Data           4  driver_psram.o(.constdata)
    reset_enable_cmd                         0x1001cfb4   Data           4  driver_psram.o(.constdata)
    reset_cmd                                0x1001cfb8   Data           4  driver_psram.o(.constdata)
    .constdata                               0x1001cfbc   Section        4  sdl_video_1.o(.constdata)
    .constdata                               0x1001cfc0   Section        8  sdl_timer.o(.constdata)
    .constdata                               0x1001cfc8   Section       20  ui_context.o(.constdata)
    .constdata                               0x1001cfdc   Section        4  app.o(.constdata)
    appm_add_svc_func_list                   0x1001cfdc   Data           4  app.o(.constdata)
    .constdata                               0x1001cfe0   Section       50  sys_utisl.o(.constdata)
    tx_power_cfg_table                       0x1001cff4   Data          30  sys_utisl.o(.constdata)
    .constdata                               0x1001d014   Section      168  guicontext.o(.constdata)
    .constdata                               0x1001d0bc   Section      160  app_task.o(.constdata)
    appm_msg_handler_tab                     0x1001d0bc   Data         160  app_task.o(.constdata)
    .constdata                               0x1001d15c   Section       12  app_task.o(.constdata)
    .constdata                               0x1001d168   Section       48  app_sec.o(.constdata)
    .constdata                               0x1001d198   Section        8  app_sec.o(.constdata)
    .constdata                               0x1001d1a0   Section       88  gapm.o(.constdata)
    gapm_att_db                              0x1001d1a0   Data          88  gapm.o(.constdata)
    .constdata                               0x1001d1f8   Section       36  gattm.o(.constdata)
    gattm_att_db                             0x1001d1fc   Data          32  gattm.o(.constdata)
    .constdata                               0x1001d21c   Section       56  l2cc_task.o(.constdata)
    l2cc_msg_handler_tab                     0x1001d21c   Data          56  l2cc_task.o(.constdata)
    .constdata                               0x1001d254   Section       12  l2cc_task.o(.constdata)
    .constdata                               0x1001d260   Section      544  zksec.o(.constdata)
    wAFJAfDd                                 0x1001d264   Data           4  zksec.o(.constdata)
    NXfgAnor                                 0x1001d268   Data           4  zksec.o(.constdata)
    aQVFrvaD                                 0x1001d26c   Data           4  zksec.o(.constdata)
    x3NJVhErtYur                             0x1001d270   Data         256  zksec.o(.constdata)
    e5J6QCXqR2XLAN                           0x1001d370   Data          16  zksec.o(.constdata)
    _s_unb64                                 0x1001d380   Data         256  zksec.o(.constdata)
    .constdata                               0x1001d480   Section      304  gapc_task.o(.constdata)
    gapc_msg_handler_tab                     0x1001d480   Data         304  gapc_task.o(.constdata)
    .constdata                               0x1001d5b0   Section       12  gapc_task.o(.constdata)
    .constdata                               0x1001d5bc   Section      512  gapm_task.o(.constdata)
    gapm_hci_cmd_cmp_event_handler_tab       0x1001d5bc   Data         408  gapm_task.o(.constdata)
    gapm_hci_cmd_stat_event_handler_tab      0x1001d754   Data          24  gapm_task.o(.constdata)
    gapm_hci_le_event_handler_tab            0x1001d76c   Data          80  gapm_task.o(.constdata)
    .constdata                               0x1001d7bc   Section      248  gapm_task.o(.constdata)
    gapm_msg_handler_tab                     0x1001d7bc   Data         248  gapm_task.o(.constdata)
    .constdata                               0x1001d8b4   Section       12  gapm_task.o(.constdata)
    .constdata                               0x1001d8c0   Section       25  smpc.o(.constdata)
    smpc_pair_method                         0x1001d8c0   Data          25  smpc.o(.constdata)
    .constdata                               0x1001d8dc   Section      140  atts.o(.constdata)
    atts_rights                              0x1001d8dc   Data          36  atts.o(.constdata)
    .constdata                               0x1001d968   Section      224  gattc_task.o(.constdata)
    gattc_msg_handler_tab                    0x1001d968   Data         224  gattc_task.o(.constdata)
    .constdata                               0x1001da48   Section       12  gattc_task.o(.constdata)
    .constdata                               0x1001da54   Section        8  gattm_task.o(.constdata)
    gattm_msg_handler_tab                    0x1001da54   Data           8  gattm_task.o(.constdata)
    .constdata                               0x1001da5c   Section       12  gattm_task.o(.constdata)
    .constdata                               0x1001da68   Section      276  l2cc_pdu.o(.constdata)
    l2cc_signaling_pkt_format                0x1001da68   Data          92  l2cc_pdu.o(.constdata)
    l2cc_security_pkt_format                 0x1001dac4   Data          60  l2cc_pdu.o(.constdata)
    l2cc_attribute_pkt_format                0x1001db00   Data         124  l2cc_pdu.o(.constdata)
    .constdata                               0x1001db7c   Section       24  l2cc_sig.o(.constdata)
    .constdata                               0x1001db94   Section      216  gapc_hci.o(.constdata)
    hci_cmd_cmp_event_handler_tab            0x1001db94   Data          72  gapc_hci.o(.constdata)
    hci_cmd_stat_event_handler_tab           0x1001dbdc   Data          48  gapc_hci.o(.constdata)
    hci_le_event_handler_tab                 0x1001dc0c   Data          56  gapc_hci.o(.constdata)
    hci_event_handler_tab                    0x1001dc44   Data          40  gapc_hci.o(.constdata)
    .constdata                               0x1001dc6c   Section       24  gapc_sig.o(.constdata)
    .constdata                               0x1001dc84   Section       60  smpc_util.o(.constdata)
    .constdata                               0x1001dcc0   Section       60  smpc_util.o(.constdata)
    .constdata                               0x1001dcfc   Section      112  attc.o(.constdata)
    .conststring                             0x1001dd6c   Section        8  proj_main.o(.conststring)
    .conststring                             0x1001dd74   Section        4  gap_api.o(.conststring)
    .conststring                             0x1001dd78   Section        3  gap_api.o(.conststring)
    .conststring                             0x1001dd7c   Section        7  gap_api.o(.conststring)
    .conststring                             0x1001dd84   Section        5  gatt_api.o(.conststring)
    .conststring                             0x1001dd8c   Section      153  zksec.o(.conststring)
    .conststring                             0x1001de28   Section       47  mesh_api.o(.conststring)
    .conststring                             0x1001de58   Section      106  l2cc_pdu.o(.conststring)
    RESET                                    0x11000000   Section      160  boot_vectors.o(RESET)
    Long Thumb to Thumb Veneer to LCD_Set_Window 0x1100115f   Thumb Code    10  anon$$obj.o(Veneer$$Code)
    Long Thumb to Thumb Veneer to LCD_WR_REG 0x11001169   Thumb Code    10  anon$$obj.o(Veneer$$Code)
    Long Thumb to Thumb Veneer to LCD_startWriteMutileData 0x11001173   Thumb Code    10  anon$$obj.o(Veneer$$Code)
    Long Thumb to Thumb Veneer to LCD_endWriteMutileData 0x1100117d   Thumb Code    10  anon$$obj.o(Veneer$$Code)
    ram_code                                 0x110011f4   Section        0  proj_main.o(ram_code)
    ram_code                                 0x11001230   Section        0  uartupgradedev.o(ram_code)
    ram_code                                 0x11001288   Section        0  driver_flash.o(ram_code)
    ram_code                                 0x11001448   Section        0  driver_pmu.o(ram_code)
    ram_code                                 0x110015a8   Section        0  entry.o(ram_code)
    ram_code                                 0x110016fc   Section        0  sys_utisl.o(ram_code)
    ram_code                                 0x11001ce4   Section        0  patch_rf.o(ram_code)
    rf_init_api_null                         0x11001ce5   Thumb Code     2  patch_rf.o(ram_code)
    rf_init_api_rssi_convert                 0x11001ce7   Thumb Code     4  patch_rf.o(ram_code)
    ram_code                                 0x11001edc   Section        0  patch_frspim.o(ram_code)
    ram_code                                 0x11001f94   Section        0  sdl_gfx.o(ram_code)
    ram_code                                 0x110023bc   Section        0  adv_check_mode.o(ram_code)
    ram_code                                 0x11002938   Section        0  patch_lld.o(ram_code)
    ram_code                                 0x11002a18   Section        0  patch_rwip.o(ram_code)
    ram_code                                 0x11002ad0   Section        0  rect.o(ram_code)
    ram_code                                 0x11002bd0   Section        0  resource.o(ram_code)
    _resource_internal_read                  0x11002c13   Thumb Code    20  resource.o(ram_code)
    ram_code                                 0x11002c30   Section        0  zksec.o(ram_code)
    G3b61UV4                                 0x11002c31   Thumb Code   224  zksec.o(ram_code)
    vFjjTyMa                                 0x11002d11   Thumb Code    98  zksec.o(ram_code)
    .data                                    0x11002d88   Section        8  proj_main.o(.data)
    .data                                    0x11002d90   Section       16  uartupgradedev.o(.data)
    ticks                                    0x11002d98   Data           4  uartupgradedev.o(.data)
    upgradeindex                             0x11002d9c   Data           4  uartupgradedev.o(.data)
    .data                                    0x11002da0   Section       40  gui_main.o(.data)
    tick5ms                                  0x11002da4   Data           4  gui_main.o(.data)
    tick10ms                                 0x11002da8   Data           4  gui_main.o(.data)
