Component: ARM Compiler 5.06 update 6 (build 750) Tool: armlink [4d35ed]

==============================================================================

Section Cross References

    proj_main.o(i.proj_ble_gap_evt_func) refers to co_log.o(i.log_printf_level) for log_printf_level
    proj_main.o(i.proj_ble_gap_evt_func) refers to co_log.o(i.log_printf) for log_printf
    proj_main.o(i.proj_ble_gap_evt_func) refers to gap_api.o(i.gap_get_connect_num) for gap_get_connect_num
    proj_main.o(i.proj_ble_gap_evt_func) refers to gap_api.o(i.gap_conn_param_update) for gap_conn_param_update
    proj_main.o(i.proj_ble_gap_evt_func) refers to gap_api.o(i.gap_security_req) for gap_security_req
    proj_main.o(i.proj_ble_gap_evt_func) refers to gap_api.o(i.gap_start_advertising) for gap_start_advertising
    proj_main.o(i.proj_ble_gap_evt_func) refers to proj_main.o(.data) for .data
    proj_main.o(i.proj_init) refers to co_log.o(i.log_printf_level) for log_printf_level
    proj_main.o(i.proj_init) refers to co_log.o(i.log_printf) for log_printf
    proj_main.o(i.proj_init) refers to ble_simple_peripheral.o(i.simple_peripheral_init) for simple_peripheral_init
    proj_main.o(i.proj_init) refers to proj_main.o(.data) for .data
    proj_main.o(i.user_main) refers to co_log.o(i.log_init) for log_init
    proj_main.o(i.user_main) refers to driver_pmu.o(i.pmu_sub_init) for pmu_sub_init
    proj_main.o(i.user_main) refers to driver_pmu.o(ram_code) for pmu_ioldosw_ctrl
    proj_main.o(i.user_main) refers to co_log.o(i.log_printf_level) for log_printf_level
    proj_main.o(i.user_main) refers to co_log.o(i.log_printf) for log_printf
    proj_main.o(i.user_main) refers to sys_utisl.o(i.system_set_clock) for system_set_clock
    proj_main.o(i.user_main) refers to sys_utisl.o(i.system_get_unique_ID) for system_get_unique_ID
==============================================================================

Removing Unused input sections from the image.

    Removing proj_main.o(.rev16_text), (4 bytes).
    Removing proj_main.o(.revsh_text), (4 bytes).
    Removing proj_main.o(.rrx_text), (6 bytes).
    Removing proj_main.o(i.proj_ble_gap_evt_func), (836 bytes).
    Removing proj_main.o(.data), (1 bytes).
    Removing prf_client.o(i.client_msg_handler), (164 bytes).
    Removing prf_client.o(i.prf_client_create), (40 bytes).
    Removing prf_client.o(.constdata), (34 bytes).
    Removing prf_client.o(.data), (1 bytes).
    Removing prf_server.o(.rev16_text), (4 bytes).
    Removing prf_server.o(.revsh_text), (4 bytes).
    Removing prf_server.o(.rrx_text), (6 bytes).
    Removing prf_server.o(i.prf_server_create), (68 bytes).
    Removing prf_server.o(i.svc1_msg_handler), (36 bytes).
    Removing prf_server.o(i.svc_msg_handler), (184 bytes).
    Removing prf_server.o(.bss), (20 bytes).
    Removing prf_server.o(.constdata), (17 bytes).
    Removing prf_server.o(.constdata), (336 bytes).
==============================================================================

Adding Veneers to the image

    Adding TT veneer (10 bytes, Long) for call to 'co_delay_10us' from uartupgradedev.o(i.HAL_Delay).
    Adding TT veneer (10 bytes, Long) for call to '__aeabi_memclr' from ring.o(i.InitQueue).
    Adding TT veneer (10 bytes, Long) for call to 'fast_DrawPoint' from sdl_gfx.o(i._SDL_draw_pixel).
    Adding TT veneer (10 bytes, Long) for call to '__aeabi_memcpy4' from guicontext.o(i._do_widget_proc).
    Adding TT veneer (10 bytes, Long) for call to 'rect_is_hit' from label.o(i._draw_font_graph).
    Adding TT veneer (10 bytes, Long) for call to 'resource_read' from label.o(i._get_code_data_offset).
    Adding TT veneer (10 bytes, Long) for call to '__aeabi_memcpy' from guicontext.o(i._load_page).
    Adding TT veneer (10 bytes, Long) for call to '__aeabi_memclr4' from guicontext.o(i._load_page).
    Adding TT veneer (10 bytes, Long) for call to 'ke_state_set' from app_proj_event.o(i.app_act_created_ind_func).
    Adding TT veneer (10 bytes, Long) for call to 'system_set_port_mux' from entry.o(i.app_main).
    Adding TT veneer (10 bytes, Long) for call to 'app_boot_get_storage_type' from entry.o(i.app_main).
    Adding TT veneer (10 bytes, Long) for call to 'flash_read_status' from entry.o(i.app_main).
    Adding TT veneer (10 bytes, Long) for call to 'flash_write_status' from entry.o(i.app_main).
    Adding TT veneer (10 bytes, Long) for call to 'pmu_set_ioldo_ref_sel' from entry.o(i.app_main).
    Adding TT veneer (10 bytes, Long) for call to 'co_delay_100us' from entry.o(i.app_main).
    Adding TT veneer (10 bytes, Long) for call to 'intc_init' from entry.o(i.app_main).
    Adding TT veneer (10 bytes, Long) for call to 'srand' from entry.o(i.app_main).
    Adding TT veneer (10 bytes, Long) for call to 'ke_free' from app.o(i.appm_adv_recv_gapm_cmp).
    Adding TT veneer (10 bytes, Long) for call to 'ke_msg_alloc' from app.o(i.appm_create_aux_adv_act).
    Adding TT veneer (10 bytes, Long) for call to 'ke_msg_send' from app.o(i.appm_create_aux_adv_act).
    Adding TT veneer (10 bytes, Long) for call to 'co_list_pop_front' from app.o(i.appm_exc_activity_cmp).
    Adding TT veneer (10 bytes, Long) for call to 'ke_malloc' from app.o(i.appm_execute_activity_cmd).
    Adding TT veneer (10 bytes, Long) for call to 'co_list_push_back' from app.o(i.appm_execute_activity_cmd).
    Adding TT veneer (10 bytes, Long) for call to 'co_list_init' from app.o(i.appm_init_imp).
    Adding TT veneer (10 bytes, Long) for call to 'ke_task_create' from app.o(i.appm_init_imp).
    Adding TT veneer (10 bytes, Long) for call to 'ke_timer_clear' from attc.o(i.attc_l2cc_pdu_recv_handler).
    Adding TT veneer (10 bytes, Long) for call to 'memcmp' from attc.o(i.attc_prep_wr_rsp_handler).
    Adding TT veneer (10 bytes, Long) for call to 'ke_timer_set' from attc.o(i.attc_send_att_req).
    Adding TT veneer (10 bytes, Long) for call to 'ke_msg_free' from attc.o(i.attc_send_read_ind).
    Adding TT veneer (10 bytes, Long) for call to 'co_list_size' from atts.o(i.atts_find_by_type_req).
    Adding TT veneer (10 bytes, Long) for call to 'ke_state_get' from atts.o(i.atts_l2cc_pdu_recv_handler).
    Adding TT veneer (10 bytes, Long) for call to 'co_list_push_front' from atts.o(i.atts_prepare_write_req).
    Adding TT veneer (10 bytes, Long) for call to 'co_list_insert_before' from atts.o(i.atts_store_prep_data).
    Adding TT veneer (10 bytes, Long) for call to 'co_printf' from user_bond_manage.o(i.ble_bond_get_info).
    Adding TT veneer (10 bytes, Long) for call to 'flash_read' from user_bond_manage.o(i.ble_bond_read_info_from_flash).
    Adding TT veneer (10 bytes, Long) for call to 'flash_erase' from user_bond_manage.o(i.ble_bond_write_info_to_flash).
    Adding TT veneer (10 bytes, Long) for call to 'flash_write' from user_bond_manage.o(i.ble_bond_write_info_to_flash).
    Adding TT veneer (10 bytes, Long) for call to 'em_ble_generate_base_address_table' from jump_table_host.o(i.ble_stack_configure).
    Adding TT veneer (10 bytes, Long) for call to 'ble_util_buf_init_env' from jump_table_host.o(i.ble_stack_configure).
    Adding TT veneer (10 bytes, Long) for call to 'llm_init_act_info_buf' from jump_table_host.o(i.ble_stack_configure).
    Adding TT veneer (10 bytes, Long) for call to 'rwip_init' from app.o(i.ble_stack_init).
    Adding TT veneer (10 bytes, Long) for call to 'GLOBAL_INT_START' from app.o(i.ble_stack_init).
    Adding TT veneer (10 bytes, Long) for call to 'rwip_schedule' from app.o(i.ble_stack_init).
    Adding TT veneer (10 bytes, Long) for call to 'CPU_SR_Save' from os_timer.o(i.check_timer_handle).
    Adding TT veneer (10 bytes, Long) for call to 'CPU_SR_Restore' from os_timer.o(i.check_timer_handle).
    Adding TT veneer (10 bytes, Long) for call to '__aeabi_memset' from uartupgradedev.o(i.fy_flash_page_write).
    Adding TT veneer (10 bytes, Long) for call to 'rand' from app_sec.o(i.gapc_bond_req_ind_handler).
    Adding TT veneer (10 bytes, Long) for call to 'hci_send_2_controller' from gapc_task.o(i.gapc_disconnect_cmd_handler).
    Adding TT veneer (10 bytes, Long) for call to 'ke_msg_src_id_get' from gapc.o(i.gapc_get_requester).
    Adding TT veneer (10 bytes, Long) for call to 'ke_timer_active' from gapc_task.o(i.gapc_key_press_notification_cmd_handler).
    Adding TT veneer (10 bytes, Long) for call to 'ke_msg_in_queue' from gapc.o(i.gapc_operation_cleanup).
    Adding TT veneer (10 bytes, Long) for call to 'ke_msg_forward' from gapc.o(i.gapc_reschedule_operation).
    Adding TT veneer (10 bytes, Long) for call to 'hci_basic_cmd_send_2_controller' from gapm_cfg.o(i.gapm_get_dev_info_cmd_handler).
    Adding TT veneer (10 bytes, Long) for call to 'platform_reset' from gapm_cfg.o(i.gapm_reset_cmd_handler).
    Adding TT veneer (10 bytes, Long) for call to 'aes_encrypt' from gapm_smp.o(i.gapm_smp_encrypt_req).
    Adding TT veneer (10 bytes, Long) for call to 'aes_rand' from gapm_smp.o(i.gapm_smp_rand_req).
    Adding TT veneer (10 bytes, Long) for call to 'ke_check_malloc' from gattc_task.o(i.gattc_cmp_evt_handler).
    Adding TT veneer (10 bytes, Long) for call to 'co_list_extract' from gattc_task.o(i.gattc_reg_to_peer_evt_cmd_handler).
    Adding TT veneer (10 bytes, Long) for call to 'ke_msg_send_basic' from gattc_task.o(i.gattc_timeout_handler).
    Adding TT veneer (10 bytes, Long) for call to 'rect_does_intersect' from guicontext.o(i.gui_context_invalidate).
    Adding TT veneer (10 bytes, Long) for call to 'display' from gui_main.o(i.gui_init).
    Adding TT veneer (10 bytes, Long) for call to 'ble_util_buf_rx_free' from l2cc_task.o(i.hci_acl_data_handler).
    Adding TT veneer (10 bytes, Long) for call to 'ke_event_set' from l2cc_task.o(i.hci_nb_cmp_pkts_evt_handler).
    Adding TT veneer (10 bytes, Long) for call to 'rect_intersect' from imgtext_scroll.o(i.imagetext_set_scroll).
    Adding TT veneer (10 bytes, Long) for call to 'ke_mem_init' from jump_table_host.o(i.jump_table_memmory_init).
    Adding TT veneer (10 bytes, Long) for call to 'ble_util_buf_acl_tx_alloc' from l2cc.o(i.l2cc_data_send).
    Adding TT veneer (10 bytes, Long) for call to 'ble_util_buf_acl_tx_free' from l2cc.o(i.l2cc_data_send).
    Adding TT veneer (10 bytes, Long) for call to 'ke_event_callback_set' from l2cm.o(i.l2cm_init).
    Adding TT veneer (10 bytes, Long) for call to 'ke_event_clear' from l2cm.o(i.l2cm_init).
    Adding TT veneer (10 bytes, Long) for call to 'uart_init' from co_log.o(i.log_init).
    Adding TT veneer (10 bytes, Long) for call to 'frspim_rd' from driver_pmu.o(i.lvd_threshold).
    Adding TT veneer (10 bytes, Long) for call to 'frspim_wr' from driver_pmu.o(i.lvd_threshold).
    Adding TT veneer (10 bytes, Long) for call to '_resource_internal_read' from resource.o(i.pKKFrMQUHba).
    Adding TT veneer (10 bytes, Long) for call to 'pmu_clear_isr_state' from sys_utisl.o(i.pmu_calibration_restart).
    Adding TT veneer (10 bytes, Long) for call to 'flash_OTP_read' from driver_pmu.o(i.pmu_ft_trim_config).
    Adding TT veneer (10 bytes, Long) for call to 'pmu_enable_isr' from driver_pmu.o(i.pmu_lvd_en).
    Adding TT veneer (10 bytes, Long) for call to 'system_osc_doubler_calibration' from driver_pmu.o(i.pmu_sub_init).
    Adding TT veneer (10 bytes, Long) for call to 'pmu_calibration_start' from driver_pmu.o(i.pmu_sub_init).
    Adding TT veneer (10 bytes, Long) for call to 'pmu_get_rc_clk' from driver_pmu.o(i.pmu_sub_init).
    Adding TT veneer (10 bytes, Long) for call to 'pmu_calibration_stop' from driver_pmu.o(i.pmu_sub_init).
    Adding TT veneer (10 bytes, Long) for call to 'ke_task_msg_flush' from prf.o(i.prf_init).
    Adding TT veneer (10 bytes, Long) for call to 'fy_flash_erase_block' from uartupgradedev.o(i.processUpgrade).
    Adding TT veneer (10 bytes, Long) for call to 'spi_master_IRQHandler' from driver_rm69330.o(i.spim0_isr).
    Adding TT veneer (10 bytes, Long) for call to 'system_get_pclk' from sys_utisl.o(i.system_get_clock).
    Adding TT veneer (10 bytes, Long) for call to 'system_set_pclk' from sys_utisl.o(i.system_set_clock).
    Adding TT veneer (10 bytes, Long) for call to 'rwip_prevent_sleep_set' from sys_utisl.o(i.system_sleep_disable).
    Adding TT veneer (10 bytes, Long) for call to 'st77903_write_cmd2' from driver_rm69330.o(i.timer1_isr).
    Adding TT veneer (10 bytes, Long) for call to 'pmu_ioldosw_ctrl' from proj_main.o(i.user_main).
    Adding TT veneer (10 bytes, Long) for call to 'system_enable_internal_flash_q_read' from proj_main.o(i.user_main).
    Adding TT veneer (10 bytes, Long) for call to 'system_set_internal_flash_clock_div' from proj_main.o(i.user_main).
    Adding TT veneer (10 bytes, Long) for call to 'ble_stack_schedule_allow' from proj_main.o(i.vTask1).
    Adding TT veneer (10 bytes, Long) for call to 'ble_stack_schedule' from proj_main.o(i.vTask1).
    Adding TT veneer (10 bytes, Long) for call to 'ble_stack_schedule_backward' from proj_main.o(i.vTask1).
    Adding TT veneer (10 bytes, Long) for call to 'rect_is_equal' from window.o(i.window_set_position).
    Adding TT veneer (10 bytes, Long) for call to 'uart_putc_noint_no_wait' from proj_main.o(ram_code).
    Adding TT veneer (10 bytes, Long) for call to 'log_init' from proj_main.o(ram_code).
    Adding TT veneer (10 bytes, Long) for call to 'disableDisplay' from uartupgradedev.o(ram_code).
    Adding TT veneer (10 bytes, Long) for call to 'EnQueueSignal' from uartupgradedev.o(ram_code).
    Adding TT veneer (10 bytes, Long) for call to '__NVIC_ClearPendingIRQ' from uartupgradedev.o(ram_code).
    Adding TT veneer (10 bytes, Long) for call to '__NVIC_ClearPendingIRQ' from uartcomm.o(ram_code).
    Adding TT veneer (10 bytes, Long) for call to 'CPU_SR_Save' from driver_pmu.o(ram_code).
    Adding TT veneer (10 bytes, Long) for call to 'co_delay_10us' from driver_pmu.o(ram_code).
    Adding TT veneer (10 bytes, Long) for call to 'CPU_SR_Restore' from driver_pmu.o(ram_code).
    Adding TT veneer (10 bytes, Long) for call to 'pmu_get_isr_state' from driver_pmu.o(ram_code).
    Adding TT veneer (10 bytes, Long) for call to 'pmu_calibration_restart' from driver_pmu.o(ram_code).
    Adding TT veneer (10 bytes, Long) for call to 'pmu_gpio_isr' from driver_pmu.o(ram_code).
    Adding TT veneer (10 bytes, Long) for call to 'rwip_schedule' from entry.o(ram_code).
    Adding TT veneer (10 bytes, Long) for call to 'rwip_sleep' from entry.o(ram_code).
    Adding TT veneer (10 bytes, Long) for call to 'rwip_us_2_lpcycles' from entry.o(ram_code).
    Adding TT veneer (10 bytes, Long) for call to 'pmu_reset_internal_cnt' from entry.o(ram_code).
    Adding TT veneer (10 bytes, Long) for call to 'low_power_save' from entry.o(ram_code).
    Adding TT veneer (10 bytes, Long) for call to 'low_power_restore' from entry.o(ram_code).
    Adding TT veneer (10 bytes, Long) for call to 'co_delay_100us' from entry.o(ram_code).
    Adding TT veneer (10 bytes, Long) for call to 'qspi_stig_cmd' from entry.o(ram_code).
    Adding TT veneer (10 bytes, Long) for call to 'flash_read_status' from entry.o(ram_code).
    Adding TT veneer (10 bytes, Long) for call to 'flash_write_status_volatile' from entry.o(ram_code).
    Adding TT veneer (10 bytes, Long) for call to 'rwip_sleep_mul_64' from entry.o(ram_code).
    Adding TT veneer (10 bytes, Long) for call to 'rwip_sleep_div_64' from entry.o(ram_code).
    Adding TT veneer (10 bytes, Long) for call to 'flash_wait_wip_clear' from sys_utisl.o(ram_code).
    Adding TT veneer (10 bytes, Long) for call to 'flash_set_read_quad' from sys_utisl.o(ram_code).
    Adding TT veneer (10 bytes, Long) for call to 'rwip_prevent_sleep_set' from sys_utisl.o(ram_code).
    Adding TT veneer (10 bytes, Long) for call to 'rwip_prevent_sleep_clear' from sys_utisl.o(ram_code).
    Adding TT veneer (10 bytes, Long) for call to 'fr_uart_init' from sys_utisl.o(ram_code).
    Adding TT veneer (10 bytes, Long) for call to 'fr_uart_setBaudrate' from sys_utisl.o(ram_code).
    Adding TT veneer (10 bytes, Long) for call to 'fr_uart_setLineControl' from sys_utisl.o(ram_code).
    Adding TT veneer (10 bytes, Long) for call to 'fr_uart_enableFifos' from sys_utisl.o(ram_code).
    Adding TT veneer (10 bytes, Long) for call to 'uart_flush_rxfifo_noint' from sys_utisl.o(ram_code).
    Adding TT veneer (10 bytes, Long) for call to 'rf_init_api' from patch_rf.o(ram_code).
    Adding TT veneer (10 bytes, Long) for call to 'rf_em_init' from patch_rf.o(ram_code).
    Adding TT veneer (10 bytes, Long) for call to 'rf_init_controller' from patch_rf.o(ram_code).
    Adding TT veneer (10 bytes, Long) for call to 'rwip_isr' from patch_rf.o(ram_code).
    Adding TT veneer (10 bytes, Long) for call to 'spi_master_transmit_X1' from driver_rm69330.o(ram_code).
    Adding TT veneer (10 bytes, Long) for call to 'timer_init' from driver_rm69330.o(ram_code).
    Adding TT veneer (10 bytes, Long) for call to 'timer_start' from driver_rm69330.o(ram_code).
    Adding TT veneer (10 bytes, Long) for call to '__NVIC_ClearPendingIRQ' from driver_rm69330.o(ram_code).
    Adding TT veneer (10 bytes, Long) for call to '__NVIC_EnableIRQ' from driver_rm69330.o(ram_code).
    Adding TT veneer (10 bytes, Long) for call to 'dma_get_tfr_Status' from driver_rm69330.o(ram_code).
    Adding TT veneer (10 bytes, Long) for call to 'dma_clear_tfr_Status' from driver_rm69330.o(ram_code).
    Adding TT veneer (10 bytes, Long) for call to 'spi_master_transmit_X2X4' from driver_rm69330.o(ram_code).
    Adding TT veneer (10 bytes, Long) for call to 'dma_start_IT' from driver_rm69330.o(ram_code).
    Adding TT veneer (10 bytes, Long) for call to 'ble_util_buf_acl_tx_alloc' from adv_check_mode.o(ram_code).
    Adding TT veneer (10 bytes, Long) for call to '__aeabi_memcpy' from adv_check_mode.o(ram_code).
    Adding TT veneer (10 bytes, Long) for call to 'lld_read_clock' from adv_check_mode.o(ram_code).
    Adding TT veneer (10 bytes, Long) for call to 'calib_meter_recv_msg' from adv_check_mode.o(ram_code).
    Adding TT veneer (10 bytes, Long) for call to 'lld_rxdesc_check' from adv_check_mode.o(ram_code).
    Adding TT veneer (10 bytes, Long) for call to 'ble_util_buf_acl_tx_free' from adv_check_mode.o(ram_code).
    Adding TT veneer (10 bytes, Long) for call to 'llm_activity_free_set' from adv_check_mode.o(ram_code).
    Adding TT veneer (10 bytes, Long) for call to 'calib_meter_evt_end' from adv_check_mode.o(ram_code).
    Adding TT veneer (10 bytes, Long) for call to 'llm_activity_free_get' from adv_check_mode.o(ram_code).
    Adding TT veneer (10 bytes, Long) for call to 'rwip_time_get' from patch_rwip.o(ram_code).
    Adding TT veneer (10 bytes, Long) for call to '__aeabi_memcpy4' from sdl_gfx.o(ram_code).
    Adding TT veneer (10 bytes, Long) for call to 'HAL_GetTick' from sdl_gfx.o(ram_code).
    Adding TT veneer (10 bytes, Long) for call to 'flash_read' from resource.o(ram_code).

153 Veneer(s) (total 1530 bytes) added to the image.

==============================================================================

Image Symbol Table

    Local Symbols

    Symbol Name                              Value     Ov Type        Size  Object(Section)

    ../clib/microlib/division.c              0x00000000   Number         0  uidiv.o ABSOLUTE
    ../clib/microlib/division.c              0x00000000   Number         0  uldiv.o ABSOLUTE
    ../clib/microlib/longlong.c              0x00000000   Number         0  llshl.o ABSOLUTE
    ../clib/microlib/longlong.c              0x00000000   Number         0  llushr.o ABSOLUTE
    ../clib/microlib/longlong.c              0x00000000   Number         0  llsshr.o ABSOLUTE
    ../clib/microlib/printf/printf.c         0x00000000   Number         0  printf1.o ABSOLUTE
    ../clib/microlib/printf/printf.c         0x00000000   Number         0  printf4.o ABSOLUTE
    ../clib/microlib/printf/printf.c         0x00000000   Number         0  printf5.o ABSOLUTE
    ../clib/microlib/printf/printf.c         0x00000000   Number         0  printf2.o ABSOLUTE
    ../clib/microlib/printf/printf.c         0x00000000   Number         0  printfb.o ABSOLUTE
    ../clib/microlib/printf/printf.c         0x00000000   Number         0  printf6.o ABSOLUTE
    ../clib/microlib/printf/printf.c         0x00000000   Number         0  printf7.o ABSOLUTE
    ../clib/microlib/printf/printf.c         0x00000000   Number         0  printf0.o ABSOLUTE
    ../clib/microlib/printf/printf.c         0x00000000   Number         0  printfa.o ABSOLUTE
    ../clib/microlib/printf/printf.c         0x00000000   Number         0  printf3.o ABSOLUTE
    ../clib/microlib/printf/printf.c         0x00000000   Number         0  printf8.o ABSOLUTE
    ../clib/microlib/printf/stubs.s          0x00000000   Number         0  stubs.o ABSOLUTE
    ../clib/microlib/string/strcpy.c         0x00000000   Number         0  strcpy.o ABSOLUTE
    ../clib/microlib/string/strlen.c         0x00000000   Number         0  strlen.o ABSOLUTE
    ../clib/microlib/string/strncpy.c        0x00000000   Number         0  strncpy.o ABSOLUTE
    ../clib/microlib/stubs.s                 0x00000000   Number         0  iusefp.o ABSOLUTE
    ../fplib/microlib/fpadd.c                0x00000000   Number         0  dadd.o ABSOLUTE
    ../fplib/microlib/fpdiv.c                0x00000000   Number         0  ddiv.o ABSOLUTE
    ../fplib/microlib/fpepilogue.c           0x00000000   Number         0  depilogue.o ABSOLUTE
    ../fplib/microlib/fpfix.c                0x00000000   Number         0  dfixul.o ABSOLUTE
    ../fplib/microlib/fpmul.c                0x00000000   Number         0  dmul.o ABSOLUTE
    ..\..\..\driver\driver_flash.c           0x00000000   Number         0  driver_flash.o ABSOLUTE
    ..\..\components\driver\driver_dma.c     0x00000000   Number         0  driver_dma.o ABSOLUTE
    ..\..\components\driver\driver_gpio.c    0x00000000   Number         0  driver_gpio.o ABSOLUTE
    ..\..\components\driver\driver_i2c.c     0x00000000   Number         0  driver_i2c.o ABSOLUTE
    ..\..\components\driver\driver_pmu.c     0x00000000   Number         0  driver_pmu.o ABSOLUTE
    ..\..\components\driver\driver_pmu_pwm.c 0x00000000   Number         0  driver_pmu_pwm.o ABSOLUTE
    ..\..\components\driver\driver_psram.c   0x00000000   Number         0  driver_psram.o ABSOLUTE
    ..\..\components\driver\driver_pwm.c     0x00000000   Number         0  driver_pwm.o ABSOLUTE
    ..\..\components\driver\driver_spi_master.c 0x00000000   Number         0  driver_spi_master.o ABSOLUTE
    ..\..\components\driver\driver_timer.c   0x00000000   Number         0  driver_timer.o ABSOLUTE
    ..\..\components\driver\driver_uart_ex.c 0x00000000   Number         0  driver_uart_ex.o ABSOLUTE
    ..\..\components\modules\common\src\co_log.c 0x00000000   Number         0  co_log.o ABSOLUTE
    ..\..\components\modules\platform\src\keil\boot_vectors.s 0x00000000   Number         0  boot_vectors.o ABSOLUTE
    ..\\..\\..\\driver\\driver_flash.c       0x00000000   Number         0  driver_flash.o ABSOLUTE
    ..\\..\\components\\driver\\driver_gpio.c 0x00000000   Number         0  driver_gpio.o ABSOLUTE
    ..\\..\\components\\driver\\driver_i2c.c 0x00000000   Number         0  driver_i2c.o ABSOLUTE
    ..\\..\\components\\driver\\driver_pmu.c 0x00000000   Number         0  driver_pmu.o ABSOLUTE
    ..\\..\\components\\driver\\driver_pmu_pwm.c 0x00000000   Number         0  driver_pmu_pwm.o ABSOLUTE
    ..\\..\\components\\driver\\driver_psram.c 0x00000000   Number         0  driver_psram.o ABSOLUTE
    ..\\..\\components\\driver\\driver_pwm.c 0x00000000   Number         0  driver_pwm.o ABSOLUTE
    ..\\..\\components\\driver\\driver_spi_master.c 0x00000000   Number         0  driver_spi_master.o ABSOLUTE
    ..\\..\\components\\driver\\driver_timer.c 0x00000000   Number         0  driver_timer.o ABSOLUTE
    ..\\..\\components\\driver\\driver_uart_ex.c 0x00000000   Number         0  driver_uart_ex.o ABSOLUTE
    ..\\..\\components\\modules\\common\\src\\co_log.c 0x00000000   Number         0  co_log.o ABSOLUTE
    ..\\app\\src\\adv_check_mode.c           0x00000000   Number         0  adv_check_mode.o ABSOLUTE
    ..\\app\\src\\app.c                      0x00000000   Number         0  app.o ABSOLUTE
    ..\\app\\src\\app_conn.c                 0x00000000   Number         0  app_conn.o ABSOLUTE
    ..\\app\\src\\app_mesh_info.c            0x00000000   Number         0  app_mesh_info.o ABSOLUTE
    ..\\app\\src\\app_prf.c                  0x00000000   Number         0  app_prf.o ABSOLUTE
    ..\\app\\src\\app_proj_event.c           0x00000000   Number         0  app_proj_event.o ABSOLUTE
    ..\\app\\src\\app_sec.c                  0x00000000   Number         0  app_sec.o ABSOLUTE
    ..\\app\\src\\app_task.c                 0x00000000   Number         0  app_task.o ABSOLUTE
    ..\\app\\src\\user_bond_manage.c         0x00000000   Number         0  user_bond_manage.o ABSOLUTE
    ..\\app\\src\\user_mem.c                 0x00000000   Number         0  user_mem.o ABSOLUTE
    ..\\code\\IC_W25Qxx.c                    0x00000000   Number         0  ic_w25qxx.o ABSOLUTE
    ..\\code\\SDL_event.c                    0x00000000   Number         0  sdl_event.o ABSOLUTE
    ..\\code\\SDL_timer.c                    0x00000000   Number         0  sdl_timer.o ABSOLUTE
    ..\\code\\SDL_video.c                    0x00000000   Number         0  sdl_video.o ABSOLUTE
    ..\\code\\ble_simple_peripheral.c        0x00000000   Number         0  ble_simple_peripheral.o ABSOLUTE
    ..\\code\\devmodule.c                    0x00000000   Number         0  devmodule.o ABSOLUTE
    ..\\code\\dgus_cmd.c                     0x00000000   Number         0  dgus_cmd.o ABSOLUTE
    ..\\code\\driver_rm69330.c               0x00000000   Number         0  driver_rm69330.o ABSOLUTE
    ..\\code\\flythings\\auth\\md5.c         0x00000000   Number         0  md5.o ABSOLUTE
    ..\\code\\flythings\\auth\\zksec.c       0x00000000   Number         0  zksec.o ABSOLUTE
    ..\\code\\flythings\\context\\guicontext.c 0x00000000   Number         0  guicontext.o ABSOLUTE
    ..\\code\\flythings\\context\\resource.c 0x00000000   Number         0  resource.o ABSOLUTE
    ..\\code\\flythings\\graphics\\SDL_gfx.c 0x00000000   Number         0  sdl_gfx.o ABSOLUTE
    ..\\code\\flythings\\misc\\fy_bits.c     0x00000000   Number         0  fy_bits.o ABSOLUTE
    ..\\code\\flythings\\misc\\fy_mem.c      0x00000000   Number         0  fy_mem.o ABSOLUTE
    ..\\code\\flythings\\misc\\rect.c        0x00000000   Number         0  rect.o ABSOLUTE
    ..\\code\\flythings\\widget\\animation.c 0x00000000   Number         0  animation.o ABSOLUTE
    ..\\code\\flythings\\widget\\button.c    0x00000000   Number         0  button.o ABSOLUTE
    ..\\code\\flythings\\widget\\image.c     0x00000000   Number         0  image.o ABSOLUTE
    ..\\code\\flythings\\widget\\imagetext.c 0x00000000   Number         0  imagetext.o ABSOLUTE
    ..\\code\\flythings\\widget\\increment.c 0x00000000   Number         0  increment.o ABSOLUTE
    ..\\code\\flythings\\widget\\label.c     0x00000000   Number         0  label.o ABSOLUTE
    ..\\code\\flythings\\widget\\numtext.c   0x00000000   Number         0  numtext.o ABSOLUTE
    ..\\code\\flythings\\widget\\progress.c  0x00000000   Number         0  progress.o ABSOLUTE
    ..\\code\\flythings\\widget\\widget.c    0x00000000   Number         0  widget.o ABSOLUTE
    ..\\code\\flythings\\widget\\window.c    0x00000000   Number         0  window.o ABSOLUTE
    ..\\code\\gui_main.c                     0x00000000   Number         0  gui_main.o ABSOLUTE
    ..\\code\\message.c                      0x00000000   Number         0  message.o ABSOLUTE
    ..\\code\\prf_server.c                   0x00000000   Number         0  prf_server.o ABSOLUTE
    ..\\code\\proj_main.c                    0x00000000   Number         0  proj_main.o ABSOLUTE
    ..\\code\\uartcomm.c                     0x00000000   Number         0  uartcomm.o ABSOLUTE
    ..\\code\\uartupgradedev.c               0x00000000   Number         0  uartupgradedev.o ABSOLUTE
    ..\\code\\uifun\\logic\\hot.c            0x00000000   Number         0  hot.o ABSOLUTE
    ..\\code\\uifun\\logic\\logo.c           0x00000000   Number         0  logo.o ABSOLUTE
    ..\\code\\uifun\\logic\\main.c           0x00000000   Number         0  main.o ABSOLUTE
    ..\\code\\uifun\\ui_context.c            0x00000000   Number         0  ui_context.o ABSOLUTE
    ..\\ip\\ble\\hl\\src\\gap\\gapc\\gapc.c  0x00000000   Number         0  gapc.o ABSOLUTE
    ..\\ip\\ble\\hl\\src\\gap\\gapc\\gapc_hci.c 0x00000000   Number         0  gapc_hci.o ABSOLUTE
    ..\\ip\\ble\\hl\\src\\gap\\gapc\\gapc_sig.c 0x00000000   Number         0  gapc_sig.o ABSOLUTE
    ..\\ip\\ble\\hl\\src\\gap\\gapc\\gapc_task.c 0x00000000   Number         0  gapc_task.o ABSOLUTE
    ..\\ip\\ble\\hl\\src\\gap\\gapm\\gapm.c  0x00000000   Number         0  gapm.o ABSOLUTE
    ..\\ip\\ble\\hl\\src\\gap\\gapm\\gapm_actv.c 0x00000000   Number         0  gapm_actv.o ABSOLUTE
    ..\\ip\\ble\\hl\\src\\gap\\gapm\\gapm_addr.c 0x00000000   Number         0  gapm_addr.o ABSOLUTE
    ..\\ip\\ble\\hl\\src\\gap\\gapm\\gapm_adv.c 0x00000000   Number         0  gapm_adv.o ABSOLUTE
    ..\\ip\\ble\\hl\\src\\gap\\gapm\\gapm_cfg.c 0x00000000   Number         0  gapm_cfg.o ABSOLUTE
    ..\\ip\\ble\\hl\\src\\gap\\gapm\\gapm_init.c 0x00000000   Number         0  gapm_init.o ABSOLUTE
    ..\\ip\\ble\\hl\\src\\gap\\gapm\\gapm_list.c 0x00000000   Number         0  gapm_list.o ABSOLUTE
    ..\\ip\\ble\\hl\\src\\gap\\gapm\\gapm_per_sync.c 0x00000000   Number         0  gapm_per_sync.o ABSOLUTE
    ..\\ip\\ble\\hl\\src\\gap\\gapm\\gapm_scan.c 0x00000000   Number         0  gapm_scan.o ABSOLUTE
    ..\\ip\\ble\\hl\\src\\gap\\gapm\\gapm_smp.c 0x00000000   Number         0  gapm_smp.o ABSOLUTE
    ..\\ip\\ble\\hl\\src\\gap\\gapm\\gapm_task.c 0x00000000   Number         0  gapm_task.o ABSOLUTE
    ..\\ip\\ble\\hl\\src\\gap\\smpc\\smpc.c  0x00000000   Number         0  smpc.o ABSOLUTE
    ..\\ip\\ble\\hl\\src\\gap\\smpc\\smpc_api.c 0x00000000   Number         0  smpc_api.o ABSOLUTE
    ..\\ip\\ble\\hl\\src\\gap\\smpc\\smpc_crypto.c 0x00000000   Number         0  smpc_crypto.o ABSOLUTE
    ..\\ip\\ble\\hl\\src\\gap\\smpc\\smpc_util.c 0x00000000   Number         0  smpc_util.o ABSOLUTE
    ..\\ip\\ble\\hl\\src\\gatt\\attc\\attc.c 0x00000000   Number         0  attc.o ABSOLUTE
    ..\\ip\\ble\\hl\\src\\gatt\\attm\\attm.c 0x00000000   Number         0  attm.o ABSOLUTE
    ..\\ip\\ble\\hl\\src\\gatt\\attm\\attm_db.c 0x00000000   Number         0  attm_db.o ABSOLUTE
    ..\\ip\\ble\\hl\\src\\gatt\\atts\\atts.c 0x00000000   Number         0  atts.o ABSOLUTE
    ..\\ip\\ble\\hl\\src\\gatt\\gattc\\gattc.c 0x00000000   Number         0  gattc.o ABSOLUTE
    ..\\ip\\ble\\hl\\src\\gatt\\gattc\\gattc_task.c 0x00000000   Number         0  gattc_task.o ABSOLUTE
    ..\\ip\\ble\\hl\\src\\gatt\\gattm\\gattm.c 0x00000000   Number         0  gattm.o ABSOLUTE
    ..\\ip\\ble\\hl\\src\\gatt\\gattm\\gattm_task.c 0x00000000   Number         0  gattm_task.o ABSOLUTE
    ..\\ip\\ble\\hl\\src\\l2c\\l2cc\\l2cc.c  0x00000000   Number         0  l2cc.o ABSOLUTE
    ..\\ip\\ble\\hl\\src\\l2c\\l2cc\\l2cc_pdu.c 0x00000000   Number         0  l2cc_pdu.o ABSOLUTE
    ..\\ip\\ble\\hl\\src\\l2c\\l2cc\\l2cc_sig.c 0x00000000   Number         0  l2cc_sig.o ABSOLUTE
    ..\\ip\\ble\\hl\\src\\l2c\\l2cc\\l2cc_task.c 0x00000000   Number         0  l2cc_task.o ABSOLUTE
    ..\\ip\\ble\\hl\\src\\l2c\\l2cm\\l2cm.c  0x00000000   Number         0  l2cm.o ABSOLUTE
    ..\\ip\\ble\\hl\\src\\prf\\prf.c         0x00000000   Number         0  prf.o ABSOLUTE
    ..\\ip\\ble\\hl\\src\\prf\\prf_utils.c   0x00000000   Number         0  prf_utils.o ABSOLUTE
    ..\\ip\\ble\\hl\\src\\rwble_hl\\rwble_hl.c 0x00000000   Number         0  rwble_hl.o ABSOLUTE
    ..\\ip\\ble\\hl_api\\gap\\gap_api.c      0x00000000   Number         0  gap_api.o ABSOLUTE
    ..\\ip\\ble\\hl_api\\gatt\\gatt_api.c    0x00000000   Number         0  gatt_api.o ABSOLUTE
    ..\\ip\\ble\\hl_api\\mesh\\mesh_api.c    0x00000000   Number         0  mesh_api.o ABSOLUTE
    ..\\ip\\ble\\mesh\\m_al\\m_al_activity.c 0x00000000   Number         0  m_al_activity.o ABSOLUTE
    ..\\ip\\ble\\mesh\\m_al\\m_al_adv.c      0x00000000   Number         0  m_al_adv.o ABSOLUTE
    ..\\ip\\ble\\mesh\\m_al\\m_al_con.c      0x00000000   Number         0  m_al_con.o ABSOLUTE
    ..\\ip\\ble\\mesh\\m_al\\m_al_djob.c     0x00000000   Number         0  m_al_djob.o ABSOLUTE
    ..\\ip\\ble\\mesh\\m_al\\m_al_scan.c     0x00000000   Number         0  m_al_scan.o ABSOLUTE
    ..\\ip\\ble\\mesh\\m_al\\m_al_sec.c      0x00000000   Number         0  m_al_sec.o ABSOLUTE
    ..\\ip\\ble\\mesh\\m_al\\m_al_task.c     0x00000000   Number         0  m_al_task.o ABSOLUTE
    ..\\ip\\ble\\mesh\\m_al\\m_al_timer.c    0x00000000   Number         0  m_al_timer.o ABSOLUTE
    ..\\ip\\ble\\mesh\\models\\m_api_msg\\m_api_msg.c 0x00000000   Number         0  m_api_msg.o ABSOLUTE
    ..\\ip\\ble\\mesh\\src\\m_api.c          0x00000000   Number         0  m_api.o ABSOLUTE
    ..\\ip\\ble\\mesh\\src\\m_bcn\\m_bcn.c   0x00000000   Number         0  m_bcn.o ABSOLUTE
    ..\\ip\\ble\\mesh\\src\\m_bearer\\m_bearer.c 0x00000000   Number         0  m_bearer.o ABSOLUTE
    ..\\ip\\ble\\mesh\\src\\m_bearer\\m_bearer_adv.c 0x00000000   Number         0  m_bearer_adv.o ABSOLUTE
    ..\\ip\\ble\\mesh\\src\\m_bearer\\m_bearer_gatt.c 0x00000000   Number         0  m_bearer_gatt.o ABSOLUTE
    ..\\ip\\ble\\mesh\\src\\m_fnd\\m_fnd.c   0x00000000   Number         0  m_fnd.o ABSOLUTE
    ..\\ip\\ble\\mesh\\src\\m_fnd\\m_fnd_confs.c 0x00000000   Number         0  m_fnd_confs.o ABSOLUTE
    ..\\ip\\ble\\mesh\\src\\m_fnd\\m_fnd_hlths.c 0x00000000   Number         0  m_fnd_hlths.o ABSOLUTE
    ..\\ip\\ble\\mesh\\src\\m_fnd\\m_fnd_pbrs.c 0x00000000   Number         0  m_fnd_pbrs.o ABSOLUTE
    ..\\ip\\ble\\mesh\\src\\m_lay\\m_lay.c   0x00000000   Number         0  m_lay.o ABSOLUTE
    ..\\ip\\ble\\mesh\\src\\m_lay\\m_lay_access.c 0x00000000   Number         0  m_lay_access.o ABSOLUTE
    ..\\ip\\ble\\mesh\\src\\m_lay\\m_lay_friend.c 0x00000000   Number         0  m_lay_friend.o ABSOLUTE
    ..\\ip\\ble\\mesh\\src\\m_lay\\m_lay_hb.c 0x00000000   Number         0  m_lay_hb.o ABSOLUTE
    ..\\ip\\ble\\mesh\\src\\m_lay\\m_lay_lpn.c 0x00000000   Number         0  m_lay_lpn.o ABSOLUTE
    ..\\ip\\ble\\mesh\\src\\m_lay\\m_lay_ltrans.c 0x00000000   Number         0  m_lay_ltrans.o ABSOLUTE
    ..\\ip\\ble\\mesh\\src\\m_lay\\m_lay_net.c 0x00000000   Number         0  m_lay_net.o ABSOLUTE
    ..\\ip\\ble\\mesh\\src\\m_lay\\m_lay_proxy.c 0x00000000   Number         0  m_lay_proxy.o ABSOLUTE
    ..\\ip\\ble\\mesh\\src\\m_lay\\m_lay_utrans.c 0x00000000   Number         0  m_lay_utrans.o ABSOLUTE
    ..\\ip\\ble\\mesh\\src\\m_prov\\m_pbrs_prov_bearer.c 0x00000000   Number         0  m_pbrs_prov_bearer.o ABSOLUTE
    ..\\ip\\ble\\mesh\\src\\m_prov\\m_prov.c 0x00000000   Number         0  m_prov.o ABSOLUTE
    ..\\ip\\ble\\mesh\\src\\m_prov\\m_prov_adv_trans.c 0x00000000   Number         0  m_prov_adv_trans.o ABSOLUTE
    ..\\ip\\ble\\mesh\\src\\m_prov\\m_prov_bearer.c 0x00000000   Number         0  m_prov_bearer.o ABSOLUTE
    ..\\ip\\ble\\mesh\\src\\m_tb\\m_tb.c     0x00000000   Number         0  m_tb.o ABSOLUTE
    ..\\ip\\ble\\mesh\\src\\m_tb\\m_tb_buf.c 0x00000000   Number         0  m_tb_buf.o ABSOLUTE
    ..\\ip\\ble\\mesh\\src\\m_tb\\m_tb_friend.c 0x00000000   Number         0  m_tb_friend.o ABSOLUTE
    ..\\ip\\ble\\mesh\\src\\m_tb\\m_tb_key.c 0x00000000   Number         0  m_tb_key.o ABSOLUTE
    ..\\ip\\ble\\mesh\\src\\m_tb\\m_tb_mio.c 0x00000000   Number         0  m_tb_mio.o ABSOLUTE
    ..\\ip\\ble\\mesh\\src\\m_tb\\m_tb_sec.c 0x00000000   Number         0  m_tb_sec.o ABSOLUTE
    ..\\ip\\ble\\mesh\\src\\m_tb\\m_tb_state.c 0x00000000   Number         0  m_tb_state.o ABSOLUTE
    ..\\ip\\ble\\mesh\\src\\m_tb\\m_tb_store_wvt.c 0x00000000   Number         0  m_tb_store_wvt.o ABSOLUTE
    ..\\ip\\ble\\mesh\\src\\m_tb\\m_tb_timer.c 0x00000000   Number         0  m_tb_timer.o ABSOLUTE
    ..\\modules\\os\\os_mem.c                0x00000000   Number         0  os_mem.o ABSOLUTE
    ..\\modules\\os\\os_msg_q.c              0x00000000   Number         0  os_msg_q.o ABSOLUTE
    ..\\modules\\os\\os_task.c               0x00000000   Number         0  os_task.o ABSOLUTE
    ..\\modules\\os\\os_timer.c              0x00000000   Number         0  os_timer.o ABSOLUTE
    ..\\modules\\patch\\patch_frspim.c       0x00000000   Number         0  patch_frspim.o ABSOLUTE
    ..\\modules\\patch\\patch_lld.c          0x00000000   Number         0  patch_lld.o ABSOLUTE
    ..\\modules\\patch\\patch_rf.c           0x00000000   Number         0  patch_rf.o ABSOLUTE
    ..\\modules\\patch\\patch_rwip.c         0x00000000   Number         0  patch_rwip.o ABSOLUTE
    ..\\modules\\sys\\sys_utisl.c            0x00000000   Number         0  sys_utisl.o ABSOLUTE
    ..\\plf\\refip\\src\\arch\\entry.c       0x00000000   Number         0  entry.o ABSOLUTE
    ..\\plf\\refip\\src\\arch\\jump_table_host.c 0x00000000   Number         0  jump_table_host.o ABSOLUTE
    ..\\plf\\refip\\src\\driver\\trng\\trng.c 0x00000000   Number         0  trng.o ABSOLUTE
    ..\app\src\adv_check_mode.c              0x00000000   Number         0  adv_check_mode.o ABSOLUTE
    ..\app\src\app.c                         0x00000000   Number         0  app.o ABSOLUTE
    ..\app\src\app_conn.c                    0x00000000   Number         0  app_conn.o ABSOLUTE
    ..\app\src\app_mesh_info.c               0x00000000   Number         0  app_mesh_info.o ABSOLUTE
    ..\app\src\app_prf.c                     0x00000000   Number         0  app_prf.o ABSOLUTE
    ..\app\src\app_proj_event.c              0x00000000   Number         0  app_proj_event.o ABSOLUTE
    ..\app\src\app_sec.c                     0x00000000   Number         0  app_sec.o ABSOLUTE
    ..\app\src\app_task.c                    0x00000000   Number         0  app_task.o ABSOLUTE
    ..\app\src\user_bond_manage.c            0x00000000   Number         0  user_bond_manage.o ABSOLUTE
    ..\app\src\user_mem.c                    0x00000000   Number         0  user_mem.o ABSOLUTE
    ..\code\IC_W25Qxx.c                      0x00000000   Number         0  ic_w25qxx.o ABSOLUTE
    ..\code\SDL_event.c                      0x00000000   Number         0  sdl_event.o ABSOLUTE
    ..\code\SDL_timer.c                      0x00000000   Number         0  sdl_timer.o ABSOLUTE
    ..\code\SDL_video.c                      0x00000000   Number         0  sdl_video.o ABSOLUTE
    ..\code\ble_simple_peripheral.c          0x00000000   Number         0  ble_simple_peripheral.o ABSOLUTE
    ..\code\devmodule.c                      0x00000000   Number         0  devmodule.o ABSOLUTE
    ..\code\dgus_cmd.c                       0x00000000   Number         0  dgus_cmd.o ABSOLUTE
    ..\code\driver_rm69330.c                 0x00000000   Number         0  driver_rm69330.o ABSOLUTE
    ..\code\flythings\auth\md5.c             0x00000000   Number         0  md5.o ABSOLUTE
    ..\code\flythings\auth\zksec.c           0x00000000   Number         0  zksec.o ABSOLUTE
    ..\code\flythings\context\guicontext.c   0x00000000   Number         0  guicontext.o ABSOLUTE
    ..\code\flythings\context\resource.c     0x00000000   Number         0  resource.o ABSOLUTE
    ..\code\flythings\graphics\SDL_gfx.c     0x00000000   Number         0  sdl_gfx.o ABSOLUTE
    ..\code\flythings\misc\fy_bits.c         0x00000000   Number         0  fy_bits.o ABSOLUTE
    ..\code\flythings\misc\fy_mem.c          0x00000000   Number         0  fy_mem.o ABSOLUTE
    ..\code\flythings\misc\rect.c            0x00000000   Number         0  rect.o ABSOLUTE
    ..\code\flythings\widget\animation.c     0x00000000   Number         0  animation.o ABSOLUTE
    ..\code\flythings\widget\button.c        0x00000000   Number         0  button.o ABSOLUTE
    ..\code\flythings\widget\image.c         0x00000000   Number         0  image.o ABSOLUTE
    ..\code\flythings\widget\imagetext.c     0x00000000   Number         0  imagetext.o ABSOLUTE
    ..\code\flythings\widget\increment.c     0x00000000   Number         0  increment.o ABSOLUTE
    ..\code\flythings\widget\label.c         0x00000000   Number         0  label.o ABSOLUTE
    ..\code\flythings\widget\numtext.c       0x00000000   Number         0  numtext.o ABSOLUTE
    ..\code\flythings\widget\progress.c      0x00000000   Number         0  progress.o ABSOLUTE
    ..\code\flythings\widget\widget.c        0x00000000   Number         0  widget.o ABSOLUTE
    ..\code\flythings\widget\window.c        0x00000000   Number         0  window.o ABSOLUTE
    ..\code\gui_main.c                       0x00000000   Number         0  gui_main.o ABSOLUTE
    ..\code\message.c                        0x00000000   Number         0  message.o ABSOLUTE
    ..\code\prf_client.c                     0x00000000   Number         0  prf_client.o ABSOLUTE
    ..\code\prf_server.c                     0x00000000   Number         0  prf_server.o ABSOLUTE
    ..\code\proj_main.c                      0x00000000   Number         0  proj_main.o ABSOLUTE
    ..\code\ring.c                           0x00000000   Number         0  ring.o ABSOLUTE
    ..\code\simple_gatt_service.c            0x00000000   Number         0  simple_gatt_service.o ABSOLUTE
    ..\code\uartcomm.c                       0x00000000   Number         0  uartcomm.o ABSOLUTE
    ..\code\uartupgradedev.c                 0x00000000   Number         0  uartupgradedev.o ABSOLUTE
    ..\code\uifun\logic\hot.c                0x00000000   Number         0  hot.o ABSOLUTE
    ..\code\uifun\logic\logo.c               0x00000000   Number         0  logo.o ABSOLUTE
    ..\code\uifun\logic\main.c               0x00000000   Number         0  main.o ABSOLUTE
    ..\code\uifun\ui_context.c               0x00000000   Number         0  ui_context.o ABSOLUTE
    ..\flyport\ext_flythings\imgtext_scroll.c 0x00000000   Number         0  imgtext_scroll.o ABSOLUTE
    ..\ip\ble\hl\src\gap\gapc\gapc.c         0x00000000   Number         0  gapc.o ABSOLUTE
    ..\ip\ble\hl\src\gap\gapc\gapc_hci.c     0x00000000   Number         0  gapc_hci.o ABSOLUTE
    ..\ip\ble\hl\src\gap\gapc\gapc_sig.c     0x00000000   Number         0  gapc_sig.o ABSOLUTE
    ..\ip\ble\hl\src\gap\gapc\gapc_task.c    0x00000000   Number         0  gapc_task.o ABSOLUTE
    ..\ip\ble\hl\src\gap\gapm\gapm.c         0x00000000   Number         0  gapm.o ABSOLUTE
    ..\ip\ble\hl\src\gap\gapm\gapm_actv.c    0x00000000   Number         0  gapm_actv.o ABSOLUTE
    ..\ip\ble\hl\src\gap\gapm\gapm_addr.c    0x00000000   Number         0  gapm_addr.o ABSOLUTE
    ..\ip\ble\hl\src\gap\gapm\gapm_adv.c     0x00000000   Number         0  gapm_adv.o ABSOLUTE
    ..\ip\ble\hl\src\gap\gapm\gapm_cfg.c     0x00000000   Number         0  gapm_cfg.o ABSOLUTE
    ..\ip\ble\hl\src\gap\gapm\gapm_init.c    0x00000000   Number         0  gapm_init.o ABSOLUTE
    ..\ip\ble\hl\src\gap\gapm\gapm_list.c    0x00000000   Number         0  gapm_list.o ABSOLUTE
    ..\ip\ble\hl\src\gap\gapm\gapm_per_sync.c 0x00000000   Number         0  gapm_per_sync.o ABSOLUTE
    ..\ip\ble\hl\src\gap\gapm\gapm_scan.c    0x00000000   Number         0  gapm_scan.o ABSOLUTE
    ..\ip\ble\hl\src\gap\gapm\gapm_smp.c     0x00000000   Number         0  gapm_smp.o ABSOLUTE
    ..\ip\ble\hl\src\gap\gapm\gapm_task.c    0x00000000   Number         0  gapm_task.o ABSOLUTE
    ..\ip\ble\hl\src\gap\smpc\smpc.c         0x00000000   Number         0  smpc.o ABSOLUTE
    ..\ip\ble\hl\src\gap\smpc\smpc_api.c     0x00000000   Number         0  smpc_api.o ABSOLUTE
    ..\ip\ble\hl\src\gap\smpc\smpc_crypto.c  0x00000000   Number         0  smpc_crypto.o ABSOLUTE
    ..\ip\ble\hl\src\gap\smpc\smpc_util.c    0x00000000   Number         0  smpc_util.o ABSOLUTE
    ..\ip\ble\hl\src\gatt\attc\attc.c        0x00000000   Number         0  attc.o ABSOLUTE
    ..\ip\ble\hl\src\gatt\attm\attm.c        0x00000000   Number         0  attm.o ABSOLUTE
    ..\ip\ble\hl\src\gatt\attm\attm_db.c     0x00000000   Number         0  attm_db.o ABSOLUTE
    ..\ip\ble\hl\src\gatt\atts\atts.c        0x00000000   Number         0  atts.o ABSOLUTE
    ..\ip\ble\hl\src\gatt\gattc\gattc.c      0x00000000   Number         0  gattc.o ABSOLUTE
    ..\ip\ble\hl\src\gatt\gattc\gattc_task.c 0x00000000   Number         0  gattc_task.o ABSOLUTE
    ..\ip\ble\hl\src\gatt\gattm\gattm.c      0x00000000   Number         0  gattm.o ABSOLUTE
    ..\ip\ble\hl\src\gatt\gattm\gattm_task.c 0x00000000   Number         0  gattm_task.o ABSOLUTE
    ..\ip\ble\hl\src\l2c\l2cc\l2cc.c         0x00000000   Number         0  l2cc.o ABSOLUTE
    ..\ip\ble\hl\src\l2c\l2cc\l2cc_pdu.c     0x00000000   Number         0  l2cc_pdu.o ABSOLUTE
    ..\ip\ble\hl\src\l2c\l2cc\l2cc_sig.c     0x00000000   Number         0  l2cc_sig.o ABSOLUTE
    ..\ip\ble\hl\src\l2c\l2cc\l2cc_task.c    0x00000000   Number         0  l2cc_task.o ABSOLUTE
    ..\ip\ble\hl\src\l2c\l2cm\l2cm.c         0x00000000   Number         0  l2cm.o ABSOLUTE
    ..\ip\ble\hl\src\prf\prf.c               0x00000000   Number         0  prf.o ABSOLUTE
    ..\ip\ble\hl\src\prf\prf_utils.c         0x00000000   Number         0  prf_utils.o ABSOLUTE
    ..\ip\ble\hl\src\rwble_hl\rwble_hl.c     0x00000000   Number         0  rwble_hl.o ABSOLUTE
    ..\ip\ble\hl_api\gap\gap_api.c           0x00000000   Number         0  gap_api.o ABSOLUTE
    ..\ip\ble\hl_api\gatt\gatt_api.c         0x00000000   Number         0  gatt_api.o ABSOLUTE
    ..\ip\ble\hl_api\mesh\mesh_api.c         0x00000000   Number         0  mesh_api.o ABSOLUTE
    ..\ip\ble\mesh\m_al\m_al_activity.c      0x00000000   Number         0  m_al_activity.o ABSOLUTE
    ..\ip\ble\mesh\m_al\m_al_adv.c           0x00000000   Number         0  m_al_adv.o ABSOLUTE
    ..\ip\ble\mesh\m_al\m_al_con.c           0x00000000   Number         0  m_al_con.o ABSOLUTE
    ..\ip\ble\mesh\m_al\m_al_djob.c          0x00000000   Number         0  m_al_djob.o ABSOLUTE
    ..\ip\ble\mesh\m_al\m_al_scan.c          0x00000000   Number         0  m_al_scan.o ABSOLUTE
    ..\ip\ble\mesh\m_al\m_al_sec.c           0x00000000   Number         0  m_al_sec.o ABSOLUTE
    ..\ip\ble\mesh\m_al\m_al_task.c          0x00000000   Number         0  m_al_task.o ABSOLUTE
    ..\ip\ble\mesh\m_al\m_al_timer.c         0x00000000   Number         0  m_al_timer.o ABSOLUTE
    ..\ip\ble\mesh\models\m_api_msg\m_api_msg.c 0x00000000   Number         0  m_api_msg.o ABSOLUTE
    ..\ip\ble\mesh\src\m_api.c               0x00000000   Number         0  m_api.o ABSOLUTE
    ..\ip\ble\mesh\src\m_bcn\m_bcn.c         0x00000000   Number         0  m_bcn.o ABSOLUTE
    ..\ip\ble\mesh\src\m_bearer\m_bearer.c   0x00000000   Number         0  m_bearer.o ABSOLUTE
    ..\ip\ble\mesh\src\m_bearer\m_bearer_adv.c 0x00000000   Number         0  m_bearer_adv.o ABSOLUTE
    ..\ip\ble\mesh\src\m_bearer\m_bearer_gatt.c 0x00000000   Number         0  m_bearer_gatt.o ABSOLUTE
    ..\ip\ble\mesh\src\m_fnd\m_fnd.c         0x00000000   Number         0  m_fnd.o ABSOLUTE
    ..\ip\ble\mesh\src\m_fnd\m_fnd_confs.c   0x00000000   Number         0  m_fnd_confs.o ABSOLUTE
    ..\ip\ble\mesh\src\m_fnd\m_fnd_hlths.c   0x00000000   Number         0  m_fnd_hlths.o ABSOLUTE
    ..\ip\ble\mesh\src\m_fnd\m_fnd_pbrs.c    0x00000000   Number         0  m_fnd_pbrs.o ABSOLUTE
    ..\ip\ble\mesh\src\m_lay\m_lay.c         0x00000000   Number         0  m_lay.o ABSOLUTE
    ..\ip\ble\mesh\src\m_lay\m_lay_access.c  0x00000000   Number         0  m_lay_access.o ABSOLUTE
    ..\ip\ble\mesh\src\m_lay\m_lay_friend.c  0x00000000   Number         0  m_lay_friend.o ABSOLUTE
    ..\ip\ble\mesh\src\m_lay\m_lay_hb.c      0x00000000   Number         0  m_lay_hb.o ABSOLUTE
    ..\ip\ble\mesh\src\m_lay\m_lay_lpn.c     0x00000000   Number         0  m_lay_lpn.o ABSOLUTE
    ..\ip\ble\mesh\src\m_lay\m_lay_ltrans.c  0x00000000   Number         0  m_lay_ltrans.o ABSOLUTE
    ..\ip\ble\mesh\src\m_lay\m_lay_net.c     0x00000000   Number         0  m_lay_net.o ABSOLUTE
    ..\ip\ble\mesh\src\m_lay\m_lay_proxy.c   0x00000000   Number         0  m_lay_proxy.o ABSOLUTE
    ..\ip\ble\mesh\src\m_lay\m_lay_utrans.c  0x00000000   Number         0  m_lay_utrans.o ABSOLUTE
    ..\ip\ble\mesh\src\m_prov\m_pbrs_prov_bearer.c 0x00000000   Number         0  m_pbrs_prov_bearer.o ABSOLUTE
    ..\ip\ble\mesh\src\m_prov\m_prov.c       0x00000000   Number         0  m_prov.o ABSOLUTE
    ..\ip\ble\mesh\src\m_prov\m_prov_adv_trans.c 0x00000000   Number         0  m_prov_adv_trans.o ABSOLUTE
    ..\ip\ble\mesh\src\m_prov\m_prov_bearer.c 0x00000000   Number         0  m_prov_bearer.o ABSOLUTE
    ..\ip\ble\mesh\src\m_tb\m_tb.c           0x00000000   Number         0  m_tb.o ABSOLUTE
    ..\ip\ble\mesh\src\m_tb\m_tb_buf.c       0x00000000   Number         0  m_tb_buf.o ABSOLUTE
    ..\ip\ble\mesh\src\m_tb\m_tb_friend.c    0x00000000   Number         0  m_tb_friend.o ABSOLUTE
    ..\ip\ble\mesh\src\m_tb\m_tb_key.c       0x00000000   Number         0  m_tb_key.o ABSOLUTE
    ..\ip\ble\mesh\src\m_tb\m_tb_mio.c       0x00000000   Number         0  m_tb_mio.o ABSOLUTE
    ..\ip\ble\mesh\src\m_tb\m_tb_sec.c       0x00000000   Number         0  m_tb_sec.o ABSOLUTE
    ..\ip\ble\mesh\src\m_tb\m_tb_state.c     0x00000000   Number         0  m_tb_state.o ABSOLUTE
    ..\ip\ble\mesh\src\m_tb\m_tb_store_wvt.c 0x00000000   Number         0  m_tb_store_wvt.o ABSOLUTE
    ..\ip\ble\mesh\src\m_tb\m_tb_timer.c     0x00000000   Number         0  m_tb_timer.o ABSOLUTE
    ..\modules\os\os_mem.c                   0x00000000   Number         0  os_mem.o ABSOLUTE
    ..\modules\os\os_msg_q.c                 0x00000000   Number         0  os_msg_q.o ABSOLUTE
    ..\modules\os\os_task.c                  0x00000000   Number         0  os_task.o ABSOLUTE
    ..\modules\os\os_timer.c                 0x00000000   Number         0  os_timer.o ABSOLUTE
    ..\modules\patch\patch_frspim.c          0x00000000   Number         0  patch_frspim.o ABSOLUTE
    ..\modules\patch\patch_lld.c             0x00000000   Number         0  patch_lld.o ABSOLUTE
    ..\modules\patch\patch_rf.c              0x00000000   Number         0  patch_rf.o ABSOLUTE
    ..\modules\patch\patch_rwip.c            0x00000000   Number         0  patch_rwip.o ABSOLUTE
    ..\modules\sys\sys_utisl.c               0x00000000   Number         0  sys_utisl.o ABSOLUTE
    ..\plf\refip\src\arch\entry.c            0x00000000   Number         0  entry.o ABSOLUTE
    ..\plf\refip\src\arch\jump_table_host.c  0x00000000   Number         0  jump_table_host.o ABSOLUTE
    ..\plf\refip\src\driver\trng\trng.c      0x00000000   Number         0  trng.o ABSOLUTE
    cdrcmple.s                               0x00000000   Number         0  cdrcmple.o ABSOLUTE
    yhcmd.c                                  0x00000000   Number         0  yhcmd.o ABSOLUTE
    jump_table_0                             0x10000000   Section        4  jump_table_host.o(jump_table_0)
    jump_table_1                             0x10000004   Section        8  proj_main.o(jump_table_1)
    jump_table_2                             0x1000000c   Section        8  jump_table_host.o(jump_table_2)
    jump_table_3                             0x10000014   Section        8  proj_main.o(jump_table_3)
    jump_table_4                             0x1000001c   Section       72  jump_table_host.o(jump_table_4)
    .text                                    0x10002000   Section       20  boot_vectors.o(.text)
    .text                                    0x10002014   Section        0  uidiv.o(.text)
    .text                                    0x10002040   Section        0  uldiv.o(.text)
    .text                                    0x100020a2   Section        0  strncpy.o(.text)
    .text                                    0x100020ba   Section        0  strlen.o(.text)
    .text                                    0x100020c8   Section        0  strcpy.o(.text)
    .text                                    0x100020da   Section        0  llshl.o(.text)
    .text                                    0x100020f8   Section        0  llushr.o(.text)
    .text                                    0x10002118   Section        0  iusefp.o(.text)
    .text                                    0x10002118   Section        0  dadd.o(.text)
    .text                                    0x10002266   Section        0  dmul.o(.text)
    .text                                    0x1000234a   Section        0  ddiv.o(.text)
    .text                                    0x10002428   Section        0  dfixul.o(.text)
    .text                                    0x10002458   Section       48  cdrcmple.o(.text)
    .text                                    0x10002488   Section        0  llsshr.o(.text)
    .text                                    0x100024ac   Section        0  depilogue.o(.text)
    Long Thumb to Thumb Veneer to _resource_internal_read 0x10002837   Thumb Code    10  anon$$obj.o(Veneer$$Code)
    Long Thumb to Thumb Veneer to st77903_write_cmd2 0x100028c3   Thumb Code    10  anon$$obj.o(Veneer$$Code)
    i.DeQueue                                0x10002912   Section        0  ring.o(i.DeQueue)
    i.EnQueueSignal                          0x1000294a   Section        0  ring.o(i.EnQueueSignal)
    i.HAL_Delay                              0x1000297c   Section        0  uartupgradedev.o(i.HAL_Delay)
    HAL_Delay                                0x1000297d   Thumb Code     8  uartupgradedev.o(i.HAL_Delay)
    i.HAL_GetTick                            0x10002984   Section        0  gui_main.o(i.HAL_GetTick)
    i.IC_W25Qxx_Read_ID                      0x10002990   Section        0  ic_w25qxx.o(i.IC_W25Qxx_Read_ID)
    i.InitQueue                              0x100029e8   Section        0  ring.o(i.InitQueue)
    i.LoadKeyCallbackFunc                    0x10002a08   Section        0  sdl_event.o(i.LoadKeyCallbackFunc)
    i.ModifyQueueFront                       0x10002a14   Section        0  ring.o(i.ModifyQueueFront)
    i.PeekQueue                              0x10002a30   Section        0  ring.o(i.PeekQueue)
    i.QueueCount                             0x10002a64   Section        0  ring.o(i.QueueCount)
    i.Rx_CRC_CCITT                           0x10002a68   Section        0  uartupgradedev.o(i.Rx_CRC_CCITT)
    i.SetBleCallbackFunc                     0x10002aa0   Section        0  sdl_event.o(i.SetBleCallbackFunc)
    i.UART_Transmit                          0x10002aac   Section        0  uartcomm.o(i.UART_Transmit)
    i.UmF2CSKI1zR                            0x10002abc   Section        0  sdl_gfx.o(i.UmF2CSKI1zR)
    i.YYYuV3R1FCn                            0x10002ae0   Section        0  sdl_gfx.o(i.YYYuV3R1FCn)
    i._SDL_draw_pixel                        0x10002b04   Section        0  sdl_gfx.o(i._SDL_draw_pixel)
    i._SDL_fill_rect                         0x10002b0c   Section        0  sdl_gfx.o(i._SDL_fill_rect)
    i.__0printf                              0x10002b58   Section        0  printfa.o(i.__0printf)
    i.__0sprintf                             0x10002b78   Section        0  printfa.o(i.__0sprintf)
    i.__0vprintf                             0x10002ba0   Section        0  printfa.o(i.__0vprintf)
    i.__NVIC_ClearPendingIRQ                 0x10002bb0   Section        0  gui_main.o(i.__NVIC_ClearPendingIRQ)
    __NVIC_ClearPendingIRQ                   0x10002bb1   Thumb Code    26  gui_main.o(i.__NVIC_ClearPendingIRQ)
    i.__NVIC_ClearPendingIRQ                 0x10002bca   Section        0  uartupgradedev.o(i.__NVIC_ClearPendingIRQ)
    __NVIC_ClearPendingIRQ                   0x10002bcb   Thumb Code    26  uartupgradedev.o(i.__NVIC_ClearPendingIRQ)
    i.__NVIC_ClearPendingIRQ                 0x10002be4   Section        0  uartcomm.o(i.__NVIC_ClearPendingIRQ)
    __NVIC_ClearPendingIRQ                   0x10002be5   Thumb Code    26  uartcomm.o(i.__NVIC_ClearPendingIRQ)
    i.__NVIC_ClearPendingIRQ                 0x10002bfe   Section        0  driver_rm69330.o(i.__NVIC_ClearPendingIRQ)
    __NVIC_ClearPendingIRQ                   0x10002bff   Thumb Code    26  driver_rm69330.o(i.__NVIC_ClearPendingIRQ)
    i.__NVIC_DisableIRQ                      0x10002c18   Section        0  driver_rm69330.o(i.__NVIC_DisableIRQ)
    __NVIC_DisableIRQ                        0x10002c19   Thumb Code    34  driver_rm69330.o(i.__NVIC_DisableIRQ)
    i.__NVIC_EnableIRQ                       0x10002c3a   Section        0  uartupgradedev.o(i.__NVIC_EnableIRQ)
    __NVIC_EnableIRQ                         0x10002c3b   Thumb Code    26  uartupgradedev.o(i.__NVIC_EnableIRQ)
    i.__NVIC_EnableIRQ                       0x10002c54   Section        0  driver_rm69330.o(i.__NVIC_EnableIRQ)
    __NVIC_EnableIRQ                         0x10002c55   Thumb Code    26  driver_rm69330.o(i.__NVIC_EnableIRQ)
    i.__NVIC_SystemReset                     0x10002c70   Section        0  uartupgradedev.o(i.__NVIC_SystemReset)
    __NVIC_SystemReset                       0x10002c71   Thumb Code    26  uartupgradedev.o(i.__NVIC_SystemReset)
    i._cal_val                               0x10002c94   Section        0  progress.o(i._cal_val)
    _cal_val                                 0x10002c95   Thumb Code    74  progress.o(i._cal_val)
    i._do_widget_proc                        0x10002ce0   Section        0  guicontext.o(i._do_widget_proc)
    _do_widget_proc                          0x10002ce1   Thumb Code    78  guicontext.o(i._do_widget_proc)
    i._draw_font_graph                       0x10002d34   Section        0  label.o(i._draw_font_graph)
    _draw_font_graph                         0x10002d35   Thumb Code   104  label.o(i._draw_font_graph)
    i._dump_val                              0x10002da0   Section        0  guicontext.o(i._dump_val)
    _dump_val                                0x10002da1   Thumb Code    46  guicontext.o(i._dump_val)
    i._fp_digits                             0x10002de8   Section        0  printfa.o(i._fp_digits)
    _fp_digits                               0x10002de9   Thumb Code   366  printfa.o(i._fp_digits)
    i._get_code_data_offset                  0x10002f6c   Section        0  label.o(i._get_code_data_offset)
    _get_code_data_offset                    0x10002f6d   Thumb Code    84  label.o(i._get_code_data_offset)
    i._get_lines_height                      0x10002fc0   Section        0  label.o(i._get_lines_height)
    _get_lines_height                        0x10002fc1   Thumb Code    36  label.o(i._get_lines_height)
    i._get_one_line_width                    0x10002fe4   Section        0  label.o(i._get_one_line_width)
    _get_one_line_width                      0x10002fe5   Thumb Code    50  label.o(i._get_one_line_width)
    i._load_page                             0x10003018   Section        0  guicontext.o(i._load_page)
    _load_page                               0x10003019   Thumb Code   480  guicontext.o(i._load_page)
    i._printf_core                           0x10003294   Section        0  printfa.o(i._printf_core)
    _printf_core                             0x10003295   Thumb Code  1744  printfa.o(i._printf_core)
    i._printf_post_padding                   0x10003970   Section        0  printfa.o(i._printf_post_padding)
    _printf_post_padding                     0x10003971   Thumb Code    36  printfa.o(i._printf_post_padding)
    i._printf_pre_padding                    0x10003994   Section        0  printfa.o(i._printf_pre_padding)
    _printf_pre_padding                      0x10003995   Thumb Code    46  printfa.o(i._printf_pre_padding)
    i._proc_message                          0x100039c4   Section        0  guicontext.o(i._proc_message)
    _proc_message                            0x100039c5   Thumb Code   176  guicontext.o(i._proc_message)
    i._proc_timer                            0x10003a78   Section        0  guicontext.o(i._proc_timer)
    _proc_timer                              0x10003a79   Thumb Code    74  guicontext.o(i._proc_timer)
    i._proc_touch_event                      0x10003acc   Section        0  guicontext.o(i._proc_touch_event)
    _proc_touch_event                        0x10003acd   Thumb Code   104  guicontext.o(i._proc_touch_event)
    i._proc_widget_refresh                   0x10003b38   Section        0  guicontext.o(i._proc_widget_refresh)
    _proc_widget_refresh                     0x10003b39   Thumb Code   164  guicontext.o(i._proc_widget_refresh)
    i._sputc                                 0x10003c04   Section        0  printfa.o(i._sputc)
    _sputc                                   0x10003c05   Thumb Code    10  printfa.o(i._sputc)
    i._unload_page                           0x10003c10   Section        0  guicontext.o(i._unload_page)
    _unload_page                             0x10003c11   Thumb Code    86  guicontext.o(i._unload_page)
    i._update_reg_data                       0x10003c70   Section        0  increment.o(i._update_reg_data)
    _update_reg_data                         0x10003c71   Thumb Code   100  increment.o(i._update_reg_data)
    i.aQLKY0byY09                            0x10003cd8   Section        0  md5.o(i.aQLKY0byY09)
    i.animation_proc                         0x10003cfc   Section        0  animation.o(i.animation_proc)
    i.app_act_created_ind_func               0x10003dd4   Section        0  app_proj_event.o(i.app_act_created_ind_func)
    i.app_act_deleted_ind_func               0x10003eb0   Section        0  app_proj_event.o(i.app_act_deleted_ind_func)
    i.app_addr_resolve_result_ind_func       0x10003f58   Section        0  app_proj_event.o(i.app_addr_resolve_result_ind_func)
    i.app_adv_complete_ind_func              0x10003f78   Section        0  app_proj_event.o(i.app_adv_complete_ind_func)
    i.app_adv_report_ind_func                0x1000402c   Section        0  app_proj_event.o(i.app_adv_report_ind_func)
    i.app_conn_complete_ind_func             0x100040d0   Section        0  app_proj_event.o(i.app_conn_complete_ind_func)
    i.app_connection_master_encrypt_compeleted_ind_func 0x10004174   Section        0  app_proj_event.o(i.app_connection_master_encrypt_compeleted_ind_func)
    i.app_connection_master_encrypted_ind_func 0x10004220   Section        0  app_proj_event.o(i.app_connection_master_encrypted_ind_func)
    i.app_connection_paring_info_ind_func    0x100042b4   Section        0  app_proj_event.o(i.app_connection_paring_info_ind_func)
    i.app_connection_req_ind_func            0x10004354   Section        0  app_proj_event.o(i.app_connection_req_ind_func)
    i.app_connection_slave_encrypted_ind_func 0x100043f4   Section        0  app_proj_event.o(i.app_connection_slave_encrypted_ind_func)
    i.app_connection_success_ind_func        0x10004488   Section        0  app_proj_event.o(i.app_connection_success_ind_func)
    i.app_db_init_complete_ind_func          0x10004528   Section        0  app_proj_event.o(i.app_db_init_complete_ind_func)
    i.app_disconnect_ind_func                0x10004534   Section        0  app_proj_event.o(i.app_disconnect_ind_func)
    i.app_gap_evt_cb                         0x100045dc   Section        0  ble_simple_peripheral.o(i.app_gap_evt_cb)
    i.app_get_current_rssi_rsp               0x1000485c   Section        0  app_task.o(i.app_get_current_rssi_rsp)
    app_get_current_rssi_rsp                 0x1000485d   Thumb Code    34  app_task.o(i.app_get_current_rssi_rsp)
    i.app_get_handler                        0x10004884   Section        0  app_task.o(i.app_get_handler)
    app_get_handler                          0x10004885   Thumb Code    70  app_task.o(i.app_get_handler)
    i.app_get_info_ind_func                  0x100048cc   Section        0  app_proj_event.o(i.app_get_info_ind_func)
    i.app_main                               0x10004900   Section        0  entry.o(i.app_main)
    i.app_per_sync_completed_ind_func        0x10004aec   Section        0  app_proj_event.o(i.app_per_sync_completed_ind_func)
    i.app_per_sync_established_ind_func      0x10004b88   Section        0  app_proj_event.o(i.app_per_sync_established_ind_func)
    i.app_reset_complete_ind_func            0x10004c30   Section        0  app_proj_event.o(i.app_reset_complete_ind_func)
    i.app_scanning_completed_ind_func        0x10004c5c   Section        0  app_proj_event.o(i.app_scanning_completed_ind_func)
    i.app_sec_msg_dflt_handler               0x10004cf4   Section        0  app_sec.o(i.app_sec_msg_dflt_handler)
    app_sec_msg_dflt_handler                 0x10004cf5   Thumb Code     4  app_sec.o(i.app_sec_msg_dflt_handler)
    i.app_set_dev_config_complete_ind_func   0x10004cf8   Section        0  app_proj_event.o(i.app_set_dev_config_complete_ind_func)
    i.app_set_phy_ind_func                   0x10004d2c   Section        0  app_proj_event.o(i.app_set_phy_ind_func)
    i.app_svc_added_ind_func                 0x10004dd4   Section        0  app_proj_event.o(i.app_svc_added_ind_func)
    i.app_update_params_complete_ind_func    0x10004de8   Section        0  app_proj_event.o(i.app_update_params_complete_ind_func)
    i.app_update_params_rejected_ind_func    0x10004dec   Section        0  app_proj_event.o(i.app_update_params_rejected_ind_func)
    i.app_update_params_update_ind_func      0x10004e9c   Section        0  app_proj_event.o(i.app_update_params_update_ind_func)
    i.app_update_phy_rejected_ind_func       0x10004f68   Section        0  app_proj_event.o(i.app_update_phy_rejected_ind_func)
    i.appm_adv_get_defer_op                  0x10005010   Section        0  app.o(i.appm_adv_get_defer_op)
    i.appm_adv_recv_gapm_cmp                 0x10005020   Section        0  app.o(i.appm_adv_recv_gapm_cmp)
    i.appm_adv_set_defer_op                  0x10005200   Section        0  app.o(i.appm_adv_set_defer_op)
    i.appm_conn_recv_gapm_cmp                0x10005218   Section        0  app_conn.o(i.appm_conn_recv_gapm_cmp)
    i.appm_create_adv_act                    0x1000526c   Section        0  app.o(i.appm_create_adv_act)
    i.appm_create_aux_adv_act                0x10005284   Section        0  app.o(i.appm_create_aux_adv_act)
    i.appm_create_conn_act                   0x10005334   Section        0  app.o(i.appm_create_conn_act)
    i.appm_create_legacy_adv_act             0x10005364   Section        0  app.o(i.appm_create_legacy_adv_act)
    i.appm_create_per_adv_act                0x10005428   Section        0  app.o(i.appm_create_per_adv_act)
    i.appm_create_scan_act                   0x100054a8   Section        0  app.o(i.appm_create_scan_act)
    i.appm_delete_act                        0x100054ec   Section        0  app.o(i.appm_delete_act)
    i.appm_exc_activity_cmp                  0x10005538   Section        0  app.o(i.appm_exc_activity_cmp)
    i.appm_execute_activity_cmd              0x10005574   Section        0  app.o(i.appm_execute_activity_cmd)
    i.appm_init_imp                          0x100055b8   Section        0  app.o(i.appm_init_imp)
    i.appm_init_imp_for_hci                  0x10005614   Section        0  app.o(i.appm_init_imp_for_hci)
    i.appm_msg_handler                       0x10005644   Section        0  app_task.o(i.appm_msg_handler)
    appm_msg_handler                         0x10005645   Thumb Code   160  app_task.o(i.appm_msg_handler)
    i.appm_period_sync_recv_gapm_cmp         0x100056f0   Section        0  app.o(i.appm_period_sync_recv_gapm_cmp)
    i.appm_scan_recv_gapm_cmp                0x1000573c   Section        0  app.o(i.appm_scan_recv_gapm_cmp)
    i.appm_set_advertising_data              0x10005788   Section        0  app.o(i.appm_set_advertising_data)
    i.appm_set_advertising_param             0x100058c4   Section        0  app.o(i.appm_set_advertising_param)
    i.appm_set_per_adv_data                  0x100059a0   Section        0  app.o(i.appm_set_per_adv_data)
    i.appm_set_scan_response_data            0x10005aa0   Section        0  app.o(i.appm_set_scan_response_data)
    i.appm_start_advertising                 0x10005bec   Section        0  app.o(i.appm_start_advertising)
    i.appm_start_conn                        0x10005cf8   Section        0  app_conn.o(i.appm_start_conn)
    i.appm_stop_advertising                  0x10005e10   Section        0  app.o(i.appm_stop_advertising)
    i.attc_err_rsp_handler                   0x10005ec8   Section        0  attc.o(i.attc_err_rsp_handler)
    attc_err_rsp_handler                     0x10005ec9   Thumb Code    14  attc.o(i.attc_err_rsp_handler)
    i.attc_exc_mtu_rsp_handler               0x10005ed6   Section        0  attc.o(i.attc_exc_mtu_rsp_handler)
    attc_exc_mtu_rsp_handler                 0x10005ed7   Thumb Code    56  attc.o(i.attc_exc_mtu_rsp_handler)
    i.attc_exe_wr_rsp_handler                0x10005f0e   Section        0  attc.o(i.attc_exe_wr_rsp_handler)
    attc_exe_wr_rsp_handler                  0x10005f0f   Thumb Code    56  attc.o(i.attc_exe_wr_rsp_handler)
    i.attc_find_by_type_rsp_handler          0x10005f46   Section        0  attc.o(i.attc_find_by_type_rsp_handler)
    attc_find_by_type_rsp_handler            0x10005f47   Thumb Code   172  attc.o(i.attc_find_by_type_rsp_handler)
    i.attc_find_info_rsp_handler             0x10005ff2   Section        0  attc.o(i.attc_find_info_rsp_handler)
    attc_find_info_rsp_handler               0x10005ff3   Thumb Code   180  attc.o(i.attc_find_info_rsp_handler)
    i.attc_hdl_val_ntf_ind_handler           0x100060a8   Section        0  attc.o(i.attc_hdl_val_ntf_ind_handler)
    attc_hdl_val_ntf_ind_handler             0x100060a9   Thumb Code   124  attc.o(i.attc_hdl_val_ntf_ind_handler)
    i.attc_l2cc_pdu_recv_handler             0x10006128   Section        0  attc.o(i.attc_l2cc_pdu_recv_handler)
    i.attc_prep_wr_rsp_handler               0x10006180   Section        0  attc.o(i.attc_prep_wr_rsp_handler)
    attc_prep_wr_rsp_handler                 0x10006181   Thumb Code    96  attc.o(i.attc_prep_wr_rsp_handler)
    i.attc_rd_by_grp_type_rsp_handler        0x100061e0   Section        0  attc.o(i.attc_rd_by_grp_type_rsp_handler)
    attc_rd_by_grp_type_rsp_handler          0x100061e1   Thumb Code   242  attc.o(i.attc_rd_by_grp_type_rsp_handler)
    i.attc_rd_by_type_rsp_handler            0x100062d4   Section        0  attc.o(i.attc_rd_by_type_rsp_handler)
    attc_rd_by_type_rsp_handler              0x100062d5   Thumb Code   616  attc.o(i.attc_rd_by_type_rsp_handler)
    i.attc_rd_mult_rsp_handler               0x10006540   Section        0  attc.o(i.attc_rd_mult_rsp_handler)
    attc_rd_mult_rsp_handler                 0x10006541   Thumb Code   182  attc.o(i.attc_rd_mult_rsp_handler)
    i.attc_rd_rsp_handler                    0x100065f8   Section        0  attc.o(i.attc_rd_rsp_handler)
    attc_rd_rsp_handler                      0x100065f9   Thumb Code   256  attc.o(i.attc_rd_rsp_handler)
    i.attc_send_att_req                      0x100066fc   Section        0  attc.o(i.attc_send_att_req)
    i.attc_send_execute                      0x1000672c   Section        0  attc.o(i.attc_send_execute)
    i.attc_send_hdl_cfm                      0x10006754   Section        0  attc.o(i.attc_send_hdl_cfm)
    i.attc_send_read_ind                     0x10006778   Section        0  attc.o(i.attc_send_read_ind)
    i.attc_wr_rsp_handler                    0x10006860   Section        0  attc.o(i.attc_wr_rsp_handler)
    attc_wr_rsp_handler                      0x10006861   Thumb Code    32  attc.o(i.attc_wr_rsp_handler)
    i.attm_att_set_value                     0x10006880   Section        0  attm.o(i.attm_att_set_value)
    i.attm_att_update_perm                   0x1000692c   Section        0  attm.o(i.attm_att_update_perm)
    i.attm_convert_to128                     0x10006994   Section        0  attm.o(i.attm_convert_to128)
    i.attm_get_value                         0x100069d4   Section        0  attm.o(i.attm_get_value)
    i.attm_init                              0x10006b50   Section        0  attm.o(i.attm_init)
    i.attm_is_bt16_uuid                      0x10006b64   Section        0  attm.o(i.attm_is_bt16_uuid)
    i.attm_is_bt32_uuid                      0x10006b68   Section        0  attm.o(i.attm_is_bt32_uuid)
    i.attm_svc_create_db                     0x10006b6c   Section        0  attm.o(i.attm_svc_create_db)
    i.attm_svc_create_db_ext                 0x10006c6c   Section        0  attm.o(i.attm_svc_create_db_ext)
    i.attm_svc_get_permission                0x10006dd0   Section        0  attm.o(i.attm_svc_get_permission)
    i.attm_uuid16_comp                       0x10006dec   Section        0  attm.o(i.attm_uuid16_comp)
    i.attm_uuid_comp                         0x10006df8   Section        0  attm.o(i.attm_uuid_comp)
    i.attmdb_add_service                     0x10006e50   Section        0  attm_db.o(i.attmdb_add_service)
    i.attmdb_att_get_permission              0x10006ec4   Section        0  attm_db.o(i.attmdb_att_get_permission)
    i.attmdb_destroy                         0x10006fd4   Section        0  attm_db.o(i.attmdb_destroy)
    i.attmdb_get_attribute                   0x10006ff4   Section        0  attm_db.o(i.attmdb_get_attribute)
    i.attmdb_get_max_len                     0x10007028   Section        0  attm_db.o(i.attmdb_get_max_len)
    i.attmdb_get_next_att                    0x10007084   Section        0  attm_db.o(i.attmdb_get_next_att)
    i.attmdb_get_service                     0x100070fc   Section        0  attm_db.o(i.attmdb_get_service)
    i.attmdb_get_uuid                        0x10007144   Section        0  attm_db.o(i.attmdb_get_uuid)
    i.attmdb_svc_calc_len                    0x1000721a   Section        0  attm_db.o(i.attmdb_svc_calc_len)
    attmdb_svc_calc_len                      0x1000721b   Thumb Code   452  attm_db.o(i.attmdb_svc_calc_len)
    i.attmdb_svc_check_hdl                   0x100073e0   Section        0  attm_db.o(i.attmdb_svc_check_hdl)
    i.attmdb_svc_init                        0x10007434   Section        0  attm_db.o(i.attmdb_svc_init)
    attmdb_svc_init                          0x10007435   Thumb Code   458  attm_db.o(i.attmdb_svc_init)
    i.attmdb_uuid16_comp                     0x100075fe   Section        0  attm_db.o(i.attmdb_uuid16_comp)
    i.atts_check_length_and_offset           0x10007638   Section        0  atts.o(i.atts_check_length_and_offset)
    atts_check_length_and_offset             0x10007639   Thumb Code    44  atts.o(i.atts_check_length_and_offset)
    i.atts_clear_prep_data                   0x10007664   Section        0  atts.o(i.atts_clear_prep_data)
    i.atts_clear_read_cache                  0x10007688   Section        0  atts.o(i.atts_clear_read_cache)
    i.atts_clear_rsp_data                    0x100076ac   Section        0  atts.o(i.atts_clear_rsp_data)
    i.atts_execute_write_req                 0x100076d0   Section        0  atts.o(i.atts_execute_write_req)
    atts_execute_write_req                   0x100076d1   Thumb Code   372  atts.o(i.atts_execute_write_req)
    i.atts_find_by_type_req                  0x10007848   Section        0  atts.o(i.atts_find_by_type_req)
    atts_find_by_type_req                    0x10007849   Thumb Code   386  atts.o(i.atts_find_by_type_req)
    i.atts_find_end                          0x100079d0   Section        0  atts.o(i.atts_find_end)
    atts_find_end                            0x100079d1   Thumb Code   122  atts.o(i.atts_find_end)
    i.atts_find_info_req                     0x10007a4c   Section        0  atts.o(i.atts_find_info_req)
    atts_find_info_req                       0x10007a4d   Thumb Code   322  atts.o(i.atts_find_info_req)
    i.atts_find_value_by_uuid                0x10007b94   Section        0  atts.o(i.atts_find_value_by_uuid)
    atts_find_value_by_uuid                  0x10007b95   Thumb Code   152  atts.o(i.atts_find_value_by_uuid)
    i.atts_get_att_chk_perm                  0x10007c2c   Section        0  atts.o(i.atts_get_att_chk_perm)
    atts_get_att_chk_perm                    0x10007c2d   Thumb Code   148  atts.o(i.atts_get_att_chk_perm)
    i.atts_get_dest_task                     0x10007cc4   Section        0  atts.o(i.atts_get_dest_task)
    atts_get_dest_task                       0x10007cc5   Thumb Code    26  atts.o(i.atts_get_dest_task)
    i.atts_get_value                         0x10007ce0   Section        0  atts.o(i.atts_get_value)
    atts_get_value                           0x10007ce1   Thumb Code   126  atts.o(i.atts_get_value)
    i.atts_l2cc_pdu_recv_handler             0x10007d64   Section        0  atts.o(i.atts_l2cc_pdu_recv_handler)
    i.atts_mtu_exc_req                       0x10007e08   Section        0  atts.o(i.atts_mtu_exc_req)
    atts_mtu_exc_req                         0x10007e09   Thumb Code    66  atts.o(i.atts_mtu_exc_req)
    i.atts_prepare_write_req                 0x10007e4c   Section        0  atts.o(i.atts_prepare_write_req)
    atts_prepare_write_req                   0x10007e4d   Thumb Code   244  atts.o(i.atts_prepare_write_req)
    i.atts_process_pdu                       0x10007f44   Section        0  atts.o(i.atts_process_pdu)
    i.atts_read_blob_req                     0x10007fb8   Section        0  atts.o(i.atts_read_blob_req)
    atts_read_blob_req                       0x10007fb9   Thumb Code   186  atts.o(i.atts_read_blob_req)
    i.atts_read_by_grp_type_req              0x10008074   Section        0  atts.o(i.atts_read_by_grp_type_req)
    atts_read_by_grp_type_req                0x10008075   Thumb Code   442  atts.o(i.atts_read_by_grp_type_req)
    i.atts_read_by_type_req                  0x10008234   Section        0  atts.o(i.atts_read_by_type_req)
    atts_read_by_type_req                    0x10008235   Thumb Code   420  atts.o(i.atts_read_by_type_req)
    i.atts_read_mult_req                     0x100083dc   Section        0  atts.o(i.atts_read_mult_req)
    atts_read_mult_req                       0x100083dd   Thumb Code   284  atts.o(i.atts_read_mult_req)
    i.atts_read_req                          0x100084fc   Section        0  atts.o(i.atts_read_req)
    atts_read_req                            0x100084fd   Thumb Code   156  atts.o(i.atts_read_req)
    i.atts_send_error                        0x10008598   Section        0  atts.o(i.atts_send_error)
    i.atts_send_event                        0x100085c0   Section        0  atts.o(i.atts_send_event)
    i.atts_store_prep_data                   0x10008650   Section        0  atts.o(i.atts_store_prep_data)
    atts_store_prep_data                     0x10008651   Thumb Code   116  atts.o(i.atts_store_prep_data)
    i.atts_update_elmt                       0x100086c8   Section        0  atts.o(i.atts_update_elmt)
    atts_update_elmt                         0x100086c9   Thumb Code    68  atts.o(i.atts_update_elmt)
    i.atts_write_cmd                         0x1000870c   Section        0  atts.o(i.atts_write_cmd)
    atts_write_cmd                           0x1000870d   Thumb Code    62  atts.o(i.atts_write_cmd)
    i.atts_write_req                         0x1000874a   Section        0  atts.o(i.atts_write_req)
    atts_write_req                           0x1000874b   Thumb Code    78  atts.o(i.atts_write_req)
    i.atts_write_rsp_send                    0x10008798   Section        0  atts.o(i.atts_write_rsp_send)
    i.atts_write_signed                      0x100087c6   Section        0  atts.o(i.atts_write_signed)
    atts_write_signed                        0x100087c7   Thumb Code   122  atts.o(i.atts_write_signed)
    i.atts_write_signed_cfm                  0x10008840   Section        0  atts.o(i.atts_write_signed_cfm)
    i.ble_add_svc                            0x1000887c   Section        0  app.o(i.ble_add_svc)
    i.ble_bond_addr_resolve_cb               0x100088b4   Section        0  user_bond_manage.o(i.ble_bond_addr_resolve_cb)
    ble_bond_addr_resolve_cb                 0x100088b5   Thumb Code   144  user_bond_manage.o(i.ble_bond_addr_resolve_cb)
    i.ble_bond_check                         0x100089a0   Section        0  user_bond_manage.o(i.ble_bond_check)
    i.ble_bond_get_info                      0x10008b2c   Section        0  user_bond_manage.o(i.ble_bond_get_info)
    i.ble_bond_init                          0x10008c6c   Section        0  user_bond_manage.o(i.ble_bond_init)
    i.ble_bond_read_info_from_flash          0x10008d30   Section        0  user_bond_manage.o(i.ble_bond_read_info_from_flash)
    i.ble_bond_store_info                    0x10008dcc   Section        0  user_bond_manage.o(i.ble_bond_store_info)
    i.ble_bond_write_info_to_flash           0x10008fd0   Section        0  user_bond_manage.o(i.ble_bond_write_info_to_flash)
    i.ble_gap_set_dev_config                 0x100090a0   Section        0  app.o(i.ble_gap_set_dev_config)
    i.ble_sec_check_ediv_rand                0x10009140   Section        0  app_sec.o(i.ble_sec_check_ediv_rand)
    i.ble_sec_get_bond_status                0x10009188   Section        0  app_sec.o(i.ble_sec_get_bond_status)
    i.ble_sec_init                           0x10009194   Section        0  app_sec.o(i.ble_sec_init)
    i.ble_sec_resolve_address                0x10009208   Section        0  app_sec.o(i.ble_sec_resolve_address)
    i.ble_sec_set_pairing_param              0x10009250   Section        0  app_sec.o(i.ble_sec_set_pairing_param)
    i.ble_set_evt_func                       0x10009260   Section        0  app.o(i.ble_set_evt_func)
    i.ble_stack_configure                    0x10009274   Section        0  jump_table_host.o(i.ble_stack_configure)
    i.ble_stack_init                         0x100093a8   Section        0  app.o(i.ble_stack_init)
    i.block_get_next                         0x10009438   Section        0  fy_mem.o(i.block_get_next)
    block_get_next                           0x10009439   Thumb Code    24  fy_mem.o(i.block_get_next)
    i.block_trunc                            0x10009458   Section        0  fy_mem.o(i.block_trunc)
    block_trunc                              0x10009459   Thumb Code    68  fy_mem.o(i.block_trunc)
    i.button_proc                            0x1000949c   Section        0  button.o(i.button_proc)
    i.calc                                   0x1000952c   Section        0  md5.o(i.calc)
    calc                                     0x1000952d   Thumb Code  1920  md5.o(i.calc)
    i.calib_meter_evt_end                    0x10009d24   Section        0  adv_check_mode.o(i.calib_meter_evt_end)
    i.calib_meter_recv_msg                   0x10009d26   Section        0  adv_check_mode.o(i.calib_meter_recv_msg)
    i.check_timer_handle                     0x10009d28   Section        0  os_timer.o(i.check_timer_handle)
    i.checkflash                             0x10009e48   Section        0  zksec.o(i.checkflash)
    i.cmdcheck                               0x10009f20   Section        0  zksec.o(i.cmdcheck)
    i.deinitdev                              0x10009f54   Section        0  uartupgradedev.o(i.deinitdev)
    deinitdev                                0x10009f55   Thumb Code     2  uartupgradedev.o(i.deinitdev)
    i.deinitdev                              0x10009f56   Section        0  uartcomm.o(i.deinitdev)
    deinitdev                                0x10009f57   Thumb Code     2  uartcomm.o(i.deinitdev)
    i.dev_timer0_init                        0x10009f58   Section        0  gui_main.o(i.dev_timer0_init)
    i.dgus_cmdpro                            0x10009f9c   Section        0  dgus_cmd.o(i.dgus_cmdpro)
    i.disableDisplay                         0x1000a038   Section        0  uartupgradedev.o(i.disableDisplay)
    i.dma_clear_tfr_Status                   0x1000a06c   Section        0  driver_dma.o(i.dma_clear_tfr_Status)
    i.dma_get_tfr_Status                     0x1000a07c   Section        0  driver_dma.o(i.dma_get_tfr_Status)
    i.dma_init                               0x1000a098   Section        0  driver_dma.o(i.dma_init)
    i.dma_start_IT                           0x1000a198   Section        0  driver_dma.o(i.dma_start_IT)
    i.dma_tfr_interrupt_enable               0x1000a208   Section        0  driver_dma.o(i.dma_tfr_interrupt_enable)
    i.doflashmd5                             0x1000a220   Section        0  zksec.o(i.doflashmd5)
    i.dumpDevInfo                            0x1000a26c   Section        0  dgus_cmd.o(i.dumpDevInfo)
    i.event_deinit                           0x1000a33c   Section        0  sdl_event.o(i.event_deinit)
    i.event_init                             0x1000a340   Section        0  sdl_event.o(i.event_init)
    i.event_poll                             0x1000a41c   Section        0  sdl_event.o(i.event_poll)
    i.event_pollEncode                       0x1000a510   Section        0  sdl_event.o(i.event_pollEncode)
    i.exti_isr                               0x1000a57c   Section        0  sdl_event.o(i.exti_isr)
    i.flush_flash                            0x1000a580   Section        0  uartupgradedev.o(i.flush_flash)
    i.from_task_func_to_msg_handle           0x1000a620   Section        0  os_task.o(i.from_task_func_to_msg_handle)
    i.fy_bits_counts_of_one                  0x1000a644   Section        0  fy_bits.o(i.fy_bits_counts_of_one)
    i.fy_bits_counts_of_one_c                0x1000a66c   Section        0  imgtext_scroll.o(i.fy_bits_counts_of_one_c)
    fy_bits_counts_of_one_c                  0x1000a66d   Thumb Code    40  imgtext_scroll.o(i.fy_bits_counts_of_one_c)
    i.fy_flash_page_write                    0x1000a694   Section        0  uartupgradedev.o(i.fy_flash_page_write)
    i.fy_mem_alloc                           0x1000a73c   Section        0  fy_mem.o(i.fy_mem_alloc)
    i.fy_mem_defrag                          0x1000a7ac   Section        0  fy_mem.o(i.fy_mem_defrag)
    i.fy_mem_free                            0x1000a7f4   Section        0  fy_mem.o(i.fy_mem_free)
    i.fy_mem_init                            0x1000a848   Section        0  fy_mem.o(i.fy_mem_init)
    i.gap_address_get                        0x1000a884   Section        0  gap_api.o(i.gap_address_get)
    i.gap_address_set                        0x1000a8a4   Section        0  gap_api.o(i.gap_address_set)
    i.gap_bond_manager_init                  0x1000a8d0   Section        0  gap_api.o(i.gap_bond_manager_init)
    i.gap_dev_name_get                       0x1000a8d4   Section        0  gap_api.o(i.gap_dev_name_get)
    i.gap_dev_name_set                       0x1000a8ec   Section        0  gap_api.o(i.gap_dev_name_set)
    i.gap_disconnect_req                     0x1000a908   Section        0  gap_api.o(i.gap_disconnect_req)
    i.gap_get_connect_num                    0x1000a99c   Section        0  gap_api.o(i.gap_get_connect_num)
    i.gap_get_connect_status                 0x1000a9bc   Section        0  gap_api.o(i.gap_get_connect_status)
    i.gap_get_dev_appearance                 0x1000a9cc   Section        0  gap_api.o(i.gap_get_dev_appearance)
    i.gap_paring_req_cb                      0x1000a9d8   Section        0  app_sec.o(i.gap_paring_req_cb)
    gap_paring_req_cb                        0x1000a9d9   Thumb Code   108  app_sec.o(i.gap_paring_req_cb)
    i.gap_security_param_init                0x1000aa48   Section        0  gap_api.o(i.gap_security_param_init)
    i.gap_set_advertising_data               0x1000aa4c   Section        0  gap_api.o(i.gap_set_advertising_data)
    i.gap_set_advertising_param              0x1000aa56   Section        0  gap_api.o(i.gap_set_advertising_param)
    i.gap_set_advertising_rsp_data           0x1000aa5e   Section        0  gap_api.o(i.gap_set_advertising_rsp_data)
    i.gap_set_cb_func                        0x1000aa68   Section        0  gap_api.o(i.gap_set_cb_func)
    i.gap_set_dev_appearance                 0x1000aa74   Section        0  gap_api.o(i.gap_set_dev_appearance)
    i.gap_start_advertising                  0x1000aa80   Section        0  gap_api.o(i.gap_start_advertising)
    i.gapc_auth_get                          0x1000aa88   Section        0  gapc.o(i.gapc_auth_get)
    i.gapc_auth_set                          0x1000aacc   Section        0  gapc.o(i.gapc_auth_set)
    i.gapc_bond_cfm_handler                  0x1000ab30   Section        0  gapc_task.o(i.gapc_bond_cfm_handler)
    gapc_bond_cfm_handler                    0x1000ab31   Thumb Code   220  gapc_task.o(i.gapc_bond_cfm_handler)
    i.gapc_bond_cmd_handler                  0x1000ac10   Section        0  gapc_task.o(i.gapc_bond_cmd_handler)
    gapc_bond_cmd_handler                    0x1000ac11   Thumb Code    88  gapc_task.o(i.gapc_bond_cmd_handler)
    i.gapc_bond_ind_handler                  0x1000ac6c   Section        0  app_sec.o(i.gapc_bond_ind_handler)
    gapc_bond_ind_handler                    0x1000ac6d   Thumb Code   338  app_sec.o(i.gapc_bond_ind_handler)
    i.gapc_bond_req_ind_handler              0x1000ae68   Section        0  app_sec.o(i.gapc_bond_req_ind_handler)
    gapc_bond_req_ind_handler                0x1000ae69   Thumb Code   436  app_sec.o(i.gapc_bond_req_ind_handler)
    i.gapc_cleanup                           0x1000b084   Section        0  gapc.o(i.gapc_cleanup)
    gapc_cleanup                             0x1000b085   Thumb Code   122  gapc.o(i.gapc_cleanup)
    i.gapc_cmp_evt_handler                   0x1000b104   Section        0  app_task.o(i.gapc_cmp_evt_handler)
    gapc_cmp_evt_handler                     0x1000b105   Thumb Code   116  app_task.o(i.gapc_cmp_evt_handler)
    i.gapc_cmp_evt_handler                   0x1000b1c8   Section        0  gapc_task.o(i.gapc_cmp_evt_handler)
    gapc_cmp_evt_handler                     0x1000b1c9   Thumb Code     4  gapc_task.o(i.gapc_cmp_evt_handler)
    i.gapc_cmp_evt_handler                   0x1000b1cc   Section        0  gattc_task.o(i.gapc_cmp_evt_handler)
    gapc_cmp_evt_handler                     0x1000b1cd   Thumb Code    54  gattc_task.o(i.gapc_cmp_evt_handler)
    i.gapc_cmp_evt_handler                   0x1000b208   Section        0  gapm_init.o(i.gapc_cmp_evt_handler)
    i.gapc_con_cleanup                       0x1000b26c   Section        0  gapc.o(i.gapc_con_cleanup)
    i.gapc_con_create                        0x1000b27c   Section        0  gapc.o(i.gapc_con_create)
    i.gapc_connection_cfm_handler            0x1000b3f4   Section        0  gapc_task.o(i.gapc_connection_cfm_handler)
    gapc_connection_cfm_handler              0x1000b3f5   Thumb Code   126  gapc_task.o(i.gapc_connection_cfm_handler)
    i.gapc_connection_req_ind_handler        0x1000b478   Section        0  app_task.o(i.gapc_connection_req_ind_handler)
    gapc_connection_req_ind_handler          0x1000b479   Thumb Code   104  app_task.o(i.gapc_connection_req_ind_handler)
    i.gapc_connection_send_cfm               0x1000b4ec   Section        0  app_task.o(i.gapc_connection_send_cfm)
    i.gapc_default_msg_handler               0x1000b534   Section        0  gapc_task.o(i.gapc_default_msg_handler)
    gapc_default_msg_handler                 0x1000b535   Thumb Code     4  gapc_task.o(i.gapc_default_msg_handler)
    i.gapc_disconnect_cmd_handler            0x1000b538   Section        0  gapc_task.o(i.gapc_disconnect_cmd_handler)
    gapc_disconnect_cmd_handler              0x1000b539   Thumb Code   108  gapc_task.o(i.gapc_disconnect_cmd_handler)
    i.gapc_disconnect_ind_handler            0x1000b5a8   Section        0  app_task.o(i.gapc_disconnect_ind_handler)
    gapc_disconnect_ind_handler              0x1000b5a9   Thumb Code    36  app_task.o(i.gapc_disconnect_ind_handler)
    i.gapc_enc_keysize_get                   0x1000b5d0   Section        0  gapc.o(i.gapc_enc_keysize_get)
    i.gapc_enc_keysize_set                   0x1000b5ec   Section        0  gapc.o(i.gapc_enc_keysize_set)
    i.gapc_encrypt_cfm_handler               0x1000b604   Section        0  gapc_task.o(i.gapc_encrypt_cfm_handler)
    gapc_encrypt_cfm_handler                 0x1000b605   Thumb Code    54  gapc_task.o(i.gapc_encrypt_cfm_handler)
    i.gapc_encrypt_cmd_handler               0x1000b63c   Section        0  gapc_task.o(i.gapc_encrypt_cmd_handler)
    gapc_encrypt_cmd_handler                 0x1000b63d   Thumb Code    88  gapc_task.o(i.gapc_encrypt_cmd_handler)
    i.gapc_encrypt_ind_handler               0x1000b698   Section        0  app_sec.o(i.gapc_encrypt_ind_handler)
    gapc_encrypt_ind_handler                 0x1000b699   Thumb Code    32  app_sec.o(i.gapc_encrypt_ind_handler)
    i.gapc_encrypt_req_ind_handler           0x1000b6bc   Section        0  app_sec.o(i.gapc_encrypt_req_ind_handler)
    gapc_encrypt_req_ind_handler             0x1000b6bd   Thumb Code   132  app_sec.o(i.gapc_encrypt_req_ind_handler)
    i.gapc_gen_dh_key_ind_handler            0x1000b78c   Section        0  gapc_task.o(i.gapc_gen_dh_key_ind_handler)
    gapc_gen_dh_key_ind_handler              0x1000b78d   Thumb Code    28  gapc_task.o(i.gapc_gen_dh_key_ind_handler)
    i.gapc_get_bdaddr                        0x1000b7a8   Section        0  gapc.o(i.gapc_get_bdaddr)
    i.gapc_get_chan_sel_algo                 0x1000b7cc   Section        0  gapc.o(i.gapc_get_chan_sel_algo)
    i.gapc_get_conhdl                        0x1000b7e4   Section        0  gapc.o(i.gapc_get_conhdl)
    i.gapc_get_conidx_imp                    0x1000b80c   Section        0  gapc.o(i.gapc_get_conidx_imp)
    i.gapc_get_csrk                          0x1000b844   Section        0  gapc.o(i.gapc_get_csrk)
    i.gapc_get_dest_task                     0x1000b868   Section        0  gapc.o(i.gapc_get_dest_task)
    i.gapc_get_dev_info_cfm_handler          0x1000b878   Section        0  gapc_task.o(i.gapc_get_dev_info_cfm_handler)
    gapc_get_dev_info_cfm_handler            0x1000b879   Thumb Code   186  gapc_task.o(i.gapc_get_dev_info_cfm_handler)
    i.gapc_get_dev_info_req_ind_handler      0x1000b932   Section        0  app_task.o(i.gapc_get_dev_info_req_ind_handler)
    gapc_get_dev_info_req_ind_handler        0x1000b933   Thumb Code   108  app_task.o(i.gapc_get_dev_info_req_ind_handler)
    i.gapc_get_info_cmd_handler              0x1000b9a0   Section        0  gapc_task.o(i.gapc_get_info_cmd_handler)
    gapc_get_info_cmd_handler                0x1000b9a1   Thumb Code   300  gapc_task.o(i.gapc_get_info_cmd_handler)
    i.gapc_get_operation                     0x1000bad8   Section        0  gapc.o(i.gapc_get_operation)
    i.gapc_get_operation_ptr                 0x1000baf4   Section        0  gapc.o(i.gapc_get_operation_ptr)
    i.gapc_get_requester                     0x1000bb04   Section        0  gapc.o(i.gapc_get_requester)
    i.gapc_get_role                          0x1000bb24   Section        0  gapc.o(i.gapc_get_role)
    i.gapc_get_sign_counter                  0x1000bb44   Section        0  gapc.o(i.gapc_get_sign_counter)
    i.gapc_hci_handler                       0x1000bb68   Section        0  gapc_hci.o(i.gapc_hci_handler)
    i.gapc_init                              0x1000bbcc   Section        0  gapc.o(i.gapc_init)
    i.gapc_is_disc_connection                0x1000bc18   Section        0  gapc.o(i.gapc_is_disc_connection)
    i.gapc_is_sec_set                        0x1000bc1c   Section        0  gapc.o(i.gapc_is_sec_set)
    i.gapc_key_press_notification_cmd_handler 0x1000bc5c   Section        0  gapc_task.o(i.gapc_key_press_notification_cmd_handler)
    gapc_key_press_notification_cmd_handler  0x1000bc5d   Thumb Code   104  gapc_task.o(i.gapc_key_press_notification_cmd_handler)
    i.gapc_link_encrypted                    0x1000bccc   Section        0  gapc.o(i.gapc_link_encrypted)
    i.gapc_lk_sec_lvl_get                    0x1000bcf4   Section        0  gapc.o(i.gapc_lk_sec_lvl_get)
    i.gapc_operation_cleanup                 0x1000bd20   Section        0  gapc.o(i.gapc_operation_cleanup)
    gapc_operation_cleanup                   0x1000bd21   Thumb Code    92  gapc.o(i.gapc_operation_cleanup)
    i.gapc_param_update_cfm_handler          0x1000bd80   Section        0  gapc_task.o(i.gapc_param_update_cfm_handler)
    gapc_param_update_cfm_handler            0x1000bd81   Thumb Code   256  gapc_task.o(i.gapc_param_update_cfm_handler)
    i.gapc_param_update_cmd_handler          0x1000be84   Section        0  gapc_task.o(i.gapc_param_update_cmd_handler)
    gapc_param_update_cmd_handler            0x1000be85   Thumb Code   276  gapc_task.o(i.gapc_param_update_cmd_handler)
    i.gapc_param_update_req_ind_handler      0x1000bfa0   Section        0  app_task.o(i.gapc_param_update_req_ind_handler)
    gapc_param_update_req_ind_handler        0x1000bfa1   Thumb Code   130  app_task.o(i.gapc_param_update_req_ind_handler)
    i.gapc_param_update_sanity               0x1000c02c   Section        0  gapc.o(i.gapc_param_update_sanity)
    i.gapc_peer_att_info_ind_handler         0x1000c054   Section        0  gapm_init.o(i.gapc_peer_att_info_ind_handler)
    i.gapc_peer_features_ind_handler         0x1000c0b8   Section        0  app_task.o(i.gapc_peer_features_ind_handler)
    gapc_peer_features_ind_handler           0x1000c0b9   Thumb Code    14  app_task.o(i.gapc_peer_features_ind_handler)
    i.gapc_peer_ver_ind_handler              0x1000c0c8   Section        0  app_task.o(i.gapc_peer_ver_ind_handler)
    gapc_peer_ver_ind_handler                0x1000c0c9   Thumb Code    46  app_task.o(i.gapc_peer_ver_ind_handler)
    i.gapc_process_op                        0x1000c0fc   Section        0  gapc_task.o(i.gapc_process_op)
    i.gapc_reschedule_operation              0x1000c188   Section        0  gapc.o(i.gapc_reschedule_operation)
    i.gapc_security_cmd_handler              0x1000c1c4   Section        0  gapc_task.o(i.gapc_security_cmd_handler)
    gapc_security_cmd_handler                0x1000c1c5   Thumb Code    68  gapc_task.o(i.gapc_security_cmd_handler)
    i.gapc_security_ind_handler              0x1000c20c   Section        0  app_sec.o(i.gapc_security_ind_handler)
    gapc_security_ind_handler                0x1000c20d   Thumb Code    78  app_sec.o(i.gapc_security_ind_handler)
    i.gapc_send_complete_evt                 0x1000c298   Section        0  gapc.o(i.gapc_send_complete_evt)
    i.gapc_send_disconect_ind                0x1000c2f8   Section        0  gapc.o(i.gapc_send_disconect_ind)
    i.gapc_send_error_evt                    0x1000c31e   Section        0  gapc.o(i.gapc_send_error_evt)
    i.gapc_set_dev_info_cfm_handler          0x1000c344   Section        0  gapc_task.o(i.gapc_set_dev_info_cfm_handler)
    gapc_set_dev_info_cfm_handler            0x1000c345   Thumb Code    78  gapc_task.o(i.gapc_set_dev_info_cfm_handler)
    i.gapc_set_dev_info_req_ind_handler      0x1000c392   Section        0  app_task.o(i.gapc_set_dev_info_req_ind_handler)
    gapc_set_dev_info_req_ind_handler        0x1000c393   Thumb Code    60  app_task.o(i.gapc_set_dev_info_req_ind_handler)
    i.gapc_set_le_ping_to_handler            0x1000c3d0   Section        0  gapc_task.o(i.gapc_set_le_ping_to_handler)
    gapc_set_le_ping_to_handler              0x1000c3d1   Thumb Code    70  gapc_task.o(i.gapc_set_le_ping_to_handler)
    i.gapc_set_le_pkt_size_handler           0x1000c41c   Section        0  gapc_task.o(i.gapc_set_le_pkt_size_handler)
    gapc_set_le_pkt_size_handler             0x1000c41d   Thumb Code    74  gapc_task.o(i.gapc_set_le_pkt_size_handler)
    i.gapc_set_local_addr                    0x1000c46c   Section        0  gapc.o(i.gapc_set_local_addr)
    i.gapc_set_operation_ptr                 0x1000c490   Section        0  gapc.o(i.gapc_set_operation_ptr)
    i.gapc_set_phy_cmd_handler               0x1000c4a0   Section        0  gapc_task.o(i.gapc_set_phy_cmd_handler)
    gapc_set_phy_cmd_handler                 0x1000c4a1   Thumb Code   104  gapc_task.o(i.gapc_set_phy_cmd_handler)
    i.gapc_set_pref_slave_latency_cmd_handler 0x1000c50c   Section        0  gapc_task.o(i.gapc_set_pref_slave_latency_cmd_handler)
    gapc_set_pref_slave_latency_cmd_handler  0x1000c50d   Thumb Code    70  gapc_task.o(i.gapc_set_pref_slave_latency_cmd_handler)
    i.gapc_sig_pdu_recv_handler              0x1000c558   Section        0  gapc_sig.o(i.gapc_sig_pdu_recv_handler)
    i.gapc_sig_send_param_resp               0x1000c594   Section        0  gapc_sig.o(i.gapc_sig_send_param_resp)
    i.gapc_sign_cmd_handler                  0x1000c5b8   Section        0  gapc_task.o(i.gapc_sign_cmd_handler)
    gapc_sign_cmd_handler                    0x1000c5b9   Thumb Code    54  gapc_task.o(i.gapc_sign_cmd_handler)
    i.gapc_sign_ind_handler                  0x1000c5f4   Section        0  gattc_task.o(i.gapc_sign_ind_handler)
    gapc_sign_ind_handler                    0x1000c5f5   Thumb Code   138  gattc_task.o(i.gapc_sign_ind_handler)
    i.gapc_smp_rep_attempts_timer_handler    0x1000c680   Section        0  gapc_task.o(i.gapc_smp_rep_attempts_timer_handler)
    gapc_smp_rep_attempts_timer_handler      0x1000c681   Thumb Code    44  gapc_task.o(i.gapc_smp_rep_attempts_timer_handler)
    i.gapc_smp_timeout_timer_ind_handler     0x1000c6b0   Section        0  gapc_task.o(i.gapc_smp_timeout_timer_ind_handler)
    gapc_smp_timeout_timer_ind_handler       0x1000c6b1   Thumb Code    64  gapc_task.o(i.gapc_smp_timeout_timer_ind_handler)
    i.gapc_svc_chg_ccc_get                   0x1000c6f4   Section        0  gapc.o(i.gapc_svc_chg_ccc_get)
    i.gapc_svc_chg_ccc_set                   0x1000c708   Section        0  gapc.o(i.gapc_svc_chg_ccc_set)
    i.gapc_update_conn_param_to_ind_handler  0x1000c724   Section        0  gapc_task.o(i.gapc_update_conn_param_to_ind_handler)
    gapc_update_conn_param_to_ind_handler    0x1000c725   Thumb Code    68  gapc_task.o(i.gapc_update_conn_param_to_ind_handler)
    i.gapc_update_state                      0x1000c768   Section        0  gapc.o(i.gapc_update_state)
    i.gapm_activity_create_cmd_handler       0x1000c79c   Section        0  gapm_actv.o(i.gapm_activity_create_cmd_handler)
    i.gapm_activity_created_ind_handler      0x1000c868   Section        0  app_task.o(i.gapm_activity_created_ind_handler)
    gapm_activity_created_ind_handler        0x1000c869   Thumb Code    60  app_task.o(i.gapm_activity_created_ind_handler)
    i.gapm_activity_delete_cmd_handler       0x1000c8a8   Section        0  gapm_actv.o(i.gapm_activity_delete_cmd_handler)
    i.gapm_activity_start_cmd_handler        0x1000c924   Section        0  gapm_actv.o(i.gapm_activity_start_cmd_handler)
    i.gapm_activity_stop_cmd_handler         0x1000c998   Section        0  gapm_actv.o(i.gapm_activity_stop_cmd_handler)
    i.gapm_activity_stopped_ind_handler      0x1000ca08   Section        0  app_task.o(i.gapm_activity_stopped_ind_handler)
    gapm_activity_stopped_ind_handler        0x1000ca09   Thumb Code   116  app_task.o(i.gapm_activity_stopped_ind_handler)
    i.gapm_actv_alloc                        0x1000ca84   Section        0  gapm_actv.o(i.gapm_actv_alloc)
    i.gapm_actv_created                      0x1000cab4   Section        0  gapm_actv.o(i.gapm_actv_created)
    i.gapm_actv_deleted                      0x1000cb18   Section        0  gapm_actv.o(i.gapm_actv_deleted)
    i.gapm_actv_free                         0x1000cb60   Section        0  gapm_actv.o(i.gapm_actv_free)
    gapm_actv_free                           0x1000cb61   Thumb Code    50  gapm_actv.o(i.gapm_actv_free)
    i.gapm_actv_get_hci_own_addr_type        0x1000cb98   Section        0  gapm_actv.o(i.gapm_actv_get_hci_own_addr_type)
    i.gapm_actv_get_next                     0x1000cbb8   Section        0  gapm_actv.o(i.gapm_actv_get_next)
    gapm_actv_get_next                       0x1000cbb9   Thumb Code    44  gapm_actv.o(i.gapm_actv_get_next)
    i.gapm_actv_init                         0x1000cbec   Section        0  gapm_actv.o(i.gapm_actv_init)
    i.gapm_actv_rand_addr_set_ind            0x1000cc40   Section        0  gapm_actv.o(i.gapm_actv_rand_addr_set_ind)
    i.gapm_actv_retrieve_cmd_cmp_evt         0x1000cc5c   Section        0  gapm_actv.o(i.gapm_actv_retrieve_cmd_cmp_evt)
    i.gapm_actv_send_stopped_ind             0x1000cc90   Section        0  gapm_actv.o(i.gapm_actv_send_stopped_ind)
    gapm_actv_send_stopped_ind               0x1000cc91   Thumb Code    42  gapm_actv.o(i.gapm_actv_send_stopped_ind)
    i.gapm_actv_started                      0x1000ccbc   Section        0  gapm_actv.o(i.gapm_actv_started)
    i.gapm_actv_stopped                      0x1000cce8   Section        0  gapm_actv.o(i.gapm_actv_stopped)
    i.gapm_addr_fsm                          0x1000cd60   Section        0  gapm_addr.o(i.gapm_addr_fsm)
    gapm_addr_fsm                            0x1000cd61   Thumb Code   190  gapm_addr.o(i.gapm_addr_fsm)
    i.gapm_addr_init                         0x1000ce24   Section        0  gapm_addr.o(i.gapm_addr_init)
    i.gapm_addr_renew_cmd_handler            0x1000ce3c   Section        0  gapm_addr.o(i.gapm_addr_renew_cmd_handler)
    i.gapm_addr_renew_next_addr              0x1000ce64   Section        0  gapm_addr.o(i.gapm_addr_renew_next_addr)
    gapm_addr_renew_next_addr                0x1000ce65   Thumb Code   164  gapm_addr.o(i.gapm_addr_renew_next_addr)
    i.gapm_addr_renew_to_ind_handler         0x1000cf10   Section        0  gapm_addr.o(i.gapm_addr_renew_to_ind_handler)
    i.gapm_addr_send_dev_bdaddr_ind          0x1000cf34   Section        0  gapm_addr.o(i.gapm_addr_send_dev_bdaddr_ind)
    gapm_addr_send_dev_bdaddr_ind            0x1000cf35   Thumb Code    44  gapm_addr.o(i.gapm_addr_send_dev_bdaddr_ind)
    i.gapm_addr_set_rand_addr                0x1000cf60   Section        0  gapm_addr.o(i.gapm_addr_set_rand_addr)
    i.gapm_addr_solved_ind_handler           0x1000d038   Section        0  app_task.o(i.gapm_addr_solved_ind_handler)
    gapm_addr_solved_ind_handler             0x1000d039   Thumb Code    16  app_task.o(i.gapm_addr_solved_ind_handler)
    i.gapm_adv_check_data_sanity             0x1000d048   Section        0  gapm_adv.o(i.gapm_adv_check_data_sanity)
    gapm_adv_check_data_sanity               0x1000d049   Thumb Code   124  gapm_adv.o(i.gapm_adv_check_data_sanity)
    i.gapm_adv_check_param                   0x1000d0c4   Section        0  gapm_adv.o(i.gapm_adv_check_param)
    gapm_adv_check_param                     0x1000d0c5   Thumb Code   218  gapm_adv.o(i.gapm_adv_check_param)
    i.gapm_adv_create                        0x1000d1a8   Section        0  gapm_adv.o(i.gapm_adv_create)
    i.gapm_adv_delete                        0x1000d250   Section        0  gapm_adv.o(i.gapm_adv_delete)
    gapm_adv_delete                          0x1000d251   Thumb Code    16  gapm_adv.o(i.gapm_adv_delete)
    i.gapm_adv_send_hci_le_rmv_adv_set_cmd   0x1000d264   Section        0  gapm_adv.o(i.gapm_adv_send_hci_le_rmv_adv_set_cmd)
    gapm_adv_send_hci_le_rmv_adv_set_cmd     0x1000d265   Thumb Code    34  gapm_adv.o(i.gapm_adv_send_hci_le_rmv_adv_set_cmd)
    i.gapm_adv_send_hci_le_set_ext_adv_data_cmd 0x1000d286   Section        0  gapm_adv.o(i.gapm_adv_send_hci_le_set_ext_adv_data_cmd)
    gapm_adv_send_hci_le_set_ext_adv_data_cmd 0x1000d287   Thumb Code   184  gapm_adv.o(i.gapm_adv_send_hci_le_set_ext_adv_data_cmd)
    i.gapm_adv_send_hci_le_set_ext_adv_en_cmd 0x1000d33e   Section        0  gapm_adv.o(i.gapm_adv_send_hci_le_set_ext_adv_en_cmd)
    gapm_adv_send_hci_le_set_ext_adv_en_cmd  0x1000d33f   Thumb Code    72  gapm_adv.o(i.gapm_adv_send_hci_le_set_ext_adv_en_cmd)
    i.gapm_adv_send_hci_le_set_ext_adv_param_cmd 0x1000d386   Section        0  gapm_adv.o(i.gapm_adv_send_hci_le_set_ext_adv_param_cmd)
    gapm_adv_send_hci_le_set_ext_adv_param_cmd 0x1000d387   Thumb Code   186  gapm_adv.o(i.gapm_adv_send_hci_le_set_ext_adv_param_cmd)
    i.gapm_adv_send_hci_le_set_ext_scan_rsp_data_cmd 0x1000d440   Section        0  gapm_adv.o(i.gapm_adv_send_hci_le_set_ext_scan_rsp_data_cmd)
    gapm_adv_send_hci_le_set_ext_scan_rsp_data_cmd 0x1000d441   Thumb Code   182  gapm_adv.o(i.gapm_adv_send_hci_le_set_ext_scan_rsp_data_cmd)
    i.gapm_adv_send_hci_le_set_per_adv_data_cmd 0x1000d4f6   Section        0  gapm_adv.o(i.gapm_adv_send_hci_le_set_per_adv_data_cmd)
    gapm_adv_send_hci_le_set_per_adv_data_cmd 0x1000d4f7   Thumb Code   104  gapm_adv.o(i.gapm_adv_send_hci_le_set_per_adv_data_cmd)
    i.gapm_adv_send_hci_le_set_per_adv_en_cmd 0x1000d55e   Section        0  gapm_adv.o(i.gapm_adv_send_hci_le_set_per_adv_en_cmd)
    gapm_adv_send_hci_le_set_per_adv_en_cmd  0x1000d55f   Thumb Code    38  gapm_adv.o(i.gapm_adv_send_hci_le_set_per_adv_en_cmd)
    i.gapm_adv_set_data                      0x1000d584   Section        0  gapm_adv.o(i.gapm_adv_set_data)
    gapm_adv_set_data                        0x1000d585   Thumb Code    98  gapm_adv.o(i.gapm_adv_set_data)
    i.gapm_adv_start                         0x1000d5e8   Section        0  gapm_adv.o(i.gapm_adv_start)
    gapm_adv_start                           0x1000d5e9   Thumb Code    72  gapm_adv.o(i.gapm_adv_start)
    i.gapm_adv_stop                          0x1000d634   Section        0  gapm_adv.o(i.gapm_adv_stop)
    gapm_adv_stop                            0x1000d635   Thumb Code    30  gapm_adv.o(i.gapm_adv_stop)
    i.gapm_auto_conn_to_ind_handler          0x1000d658   Section        0  gapm_init.o(i.gapm_auto_conn_to_ind_handler)
    i.gapm_cmp_evt_handler                   0x1000d690   Section        0  app_task.o(i.gapm_cmp_evt_handler)
    gapm_cmp_evt_handler                     0x1000d691   Thumb Code   488  app_task.o(i.gapm_cmp_evt_handler)
    i.gapm_cmp_evt_handler                   0x1000d8e8   Section        0  gapc_task.o(i.gapm_cmp_evt_handler)
    gapm_cmp_evt_handler                     0x1000d8e9   Thumb Code   120  gapc_task.o(i.gapm_cmp_evt_handler)
    i.gapm_cmp_evt_handler                   0x1000d960   Section        0  gapm_addr.o(i.gapm_cmp_evt_handler)
    i.gapm_con_cleanup                       0x1000d980   Section        0  gapm.o(i.gapm_con_cleanup)
    i.gapm_con_create                        0x1000d9b8   Section        0  gapm.o(i.gapm_con_create)
    i.gapm_con_enable                        0x1000da20   Section        0  gapm.o(i.gapm_con_enable)
    i.gapm_default_msg_handler               0x1000da2a   Section        0  gapm_task.o(i.gapm_default_msg_handler)
    gapm_default_msg_handler                 0x1000da2b   Thumb Code     4  gapm_task.o(i.gapm_default_msg_handler)
    i.gapm_dev_bdaddr_ind_handler            0x1000da30   Section        0  gapm_addr.o(i.gapm_dev_bdaddr_ind_handler)
    i.gapm_dle_val_check                     0x1000da6c   Section        0  gapm.o(i.gapm_dle_val_check)
    i.gapm_enc_block_ind_handler             0x1000da88   Section        0  app_task.o(i.gapm_enc_block_ind_handler)
    gapm_enc_block_ind_handler               0x1000da89   Thumb Code    18  app_task.o(i.gapm_enc_block_ind_handler)
    i.gapm_ext_adv_report_ind_handler        0x1000daa0   Section        0  app_task.o(i.gapm_ext_adv_report_ind_handler)
    gapm_ext_adv_report_ind_handler          0x1000daa1   Thumb Code    12  app_task.o(i.gapm_ext_adv_report_ind_handler)
    i.gapm_gen_dh_key_cmd_handler            0x1000daac   Section        0  gapm_smp.o(i.gapm_gen_dh_key_cmd_handler)
    i.gapm_gen_rand_addr_cmd_handler         0x1000dafc   Section        0  gapm_smp.o(i.gapm_gen_rand_addr_cmd_handler)
    i.gapm_gen_rand_nb_ind_handler           0x1000db38   Section        0  app_task.o(i.gapm_gen_rand_nb_ind_handler)
    gapm_gen_rand_nb_ind_handler             0x1000db39   Thumb Code    38  app_task.o(i.gapm_gen_rand_nb_ind_handler)
    i.gapm_gen_rand_nb_ind_handler           0x1000db64   Section        0  gapc_task.o(i.gapm_gen_rand_nb_ind_handler)
    gapm_gen_rand_nb_ind_handler             0x1000db65   Thumb Code    40  gapc_task.o(i.gapm_gen_rand_nb_ind_handler)
    i.gapm_get_address_type                  0x1000db8c   Section        0  gapm.o(i.gapm_get_address_type)
    i.gapm_get_att_handle                    0x1000db9c   Section        0  gapm.o(i.gapm_get_att_handle)
    i.gapm_get_bdaddr                        0x1000dbc4   Section        0  gapm.o(i.gapm_get_bdaddr)
    i.gapm_get_dev_info_cmd_handler          0x1000dbcc   Section        0  gapm_cfg.o(i.gapm_get_dev_info_cmd_handler)
    i.gapm_get_irk                           0x1000dcdc   Section        0  gapm.o(i.gapm_get_irk)
    i.gapm_get_local_public_key              0x1000dce4   Section        0  gapm.o(i.gapm_get_local_public_key)
    i.gapm_get_max_mtu                       0x1000dcec   Section        0  gapm.o(i.gapm_get_max_mtu)
    i.gapm_get_operation                     0x1000dcf8   Section        0  gapm.o(i.gapm_get_operation)
    i.gapm_get_pub_key_cmd_handler           0x1000dd10   Section        0  gapm_smp.o(i.gapm_get_pub_key_cmd_handler)
    i.gapm_get_ral_addr_cmd_handler          0x1000ddac   Section        0  gapm_list.o(i.gapm_get_ral_addr_cmd_handler)
    i.gapm_get_requester                     0x1000de00   Section        0  gapm.o(i.gapm_get_requester)
    i.gapm_hci_handler                       0x1000de1c   Section        0  gapm_task.o(i.gapm_hci_handler)
    gapm_hci_handler                         0x1000de1d   Thumb Code    78  gapm_task.o(i.gapm_hci_handler)
    i.gapm_init                              0x1000de74   Section        0  gapm.o(i.gapm_init)
    i.gapm_init_attr                         0x1000ded4   Section        0  gapm.o(i.gapm_init_attr)
    i.gapm_init_connection_ind               0x1000df08   Section        0  gapm_init.o(i.gapm_init_connection_ind)
    i.gapm_init_create                       0x1000dfa0   Section        0  gapm_init.o(i.gapm_init_create)
    i.gapm_init_delete                       0x1000e020   Section        0  gapm_init.o(i.gapm_init_delete)
    gapm_init_delete                         0x1000e021   Thumb Code     4  gapm_init.o(i.gapm_init_delete)
    i.gapm_init_send_hci_le_ext_create_con_cmd 0x1000e024   Section        0  gapm_init.o(i.gapm_init_send_hci_le_ext_create_con_cmd)
    gapm_init_send_hci_le_ext_create_con_cmd 0x1000e025   Thumb Code   212  gapm_init.o(i.gapm_init_send_hci_le_ext_create_con_cmd)
    i.gapm_init_start                        0x1000e0f8   Section        0  gapm_init.o(i.gapm_init_start)
    gapm_init_start                          0x1000e0f9   Thumb Code   112  gapm_init.o(i.gapm_init_start)
    i.gapm_init_stop                         0x1000e16c   Section        0  gapm_init.o(i.gapm_init_stop)
    gapm_init_stop                           0x1000e16d   Thumb Code    42  gapm_init.o(i.gapm_init_stop)
    i.gapm_is_addr_type_valid                0x1000e19c   Section        0  gapm_addr.o(i.gapm_is_addr_type_valid)
    i.gapm_is_legacy_pairing_supp            0x1000e1e0   Section        0  gapm.o(i.gapm_is_legacy_pairing_supp)
    i.gapm_is_pref_con_param_pres            0x1000e1f0   Section        0  gapm.o(i.gapm_is_pref_con_param_pres)
    i.gapm_is_sec_con_pairing_supp           0x1000e200   Section        0  gapm.o(i.gapm_is_sec_con_pairing_supp)
    i.gapm_list_add_next_entry               0x1000e210   Section        0  gapm_list.o(i.gapm_list_add_next_entry)
    gapm_list_add_next_entry                 0x1000e211   Thumb Code   174  gapm_list.o(i.gapm_list_add_next_entry)
    i.gapm_list_send_list_size_ind           0x1000e2be   Section        0  gapm_list.o(i.gapm_list_send_list_size_ind)
    gapm_list_send_list_size_ind             0x1000e2bf   Thumb Code    38  gapm_list.o(i.gapm_list_send_list_size_ind)
    i.gapm_list_set_cmd_handler              0x1000e2e4   Section        0  gapm_list.o(i.gapm_list_set_cmd_handler)
    i.gapm_op_reset_continue                 0x1000e334   Section        0  gapm_cfg.o(i.gapm_op_reset_continue)
    gapm_op_reset_continue                   0x1000e335   Thumb Code   148  gapm_cfg.o(i.gapm_op_reset_continue)
    i.gapm_op_setup_continue                 0x1000e3d8   Section        0  gapm_cfg.o(i.gapm_op_setup_continue)
    gapm_op_setup_continue                   0x1000e3d9   Thumb Code   298  gapm_cfg.o(i.gapm_op_setup_continue)
    i.gapm_operation_cleanup                 0x1000e508   Section        0  gapm.o(i.gapm_operation_cleanup)
    gapm_operation_cleanup                   0x1000e509   Thumb Code    46  gapm.o(i.gapm_operation_cleanup)
    i.gapm_per_sync_clear_fragments          0x1000e53c   Section        0  gapm_per_sync.o(i.gapm_per_sync_clear_fragments)
    i.gapm_per_sync_create                   0x1000e55c   Section        0  gapm_per_sync.o(i.gapm_per_sync_create)
    i.gapm_per_sync_delete                   0x1000e5a0   Section        0  gapm_per_sync.o(i.gapm_per_sync_delete)
    gapm_per_sync_delete                     0x1000e5a1   Thumb Code     4  gapm_per_sync.o(i.gapm_per_sync_delete)
    i.gapm_per_sync_get_activity             0x1000e5a4   Section        0  gapm_per_sync.o(i.gapm_per_sync_get_activity)
    gapm_per_sync_get_activity               0x1000e5a5   Thumb Code    80  gapm_per_sync.o(i.gapm_per_sync_get_activity)
    i.gapm_per_sync_send_adv_report_ind      0x1000e5fc   Section        0  gapm_per_sync.o(i.gapm_per_sync_send_adv_report_ind)
    gapm_per_sync_send_adv_report_ind        0x1000e5fd   Thumb Code   144  gapm_per_sync.o(i.gapm_per_sync_send_adv_report_ind)
    i.gapm_per_sync_start                    0x1000e68c   Section        0  gapm_per_sync.o(i.gapm_per_sync_start)
    gapm_per_sync_start                      0x1000e68d   Thumb Code   120  gapm_per_sync.o(i.gapm_per_sync_start)
    i.gapm_per_sync_stop                     0x1000e708   Section        0  gapm_per_sync.o(i.gapm_per_sync_stop)
    gapm_per_sync_stop                       0x1000e709   Thumb Code    60  gapm_per_sync.o(i.gapm_per_sync_stop)
    i.gapm_process_op                        0x1000e748   Section        0  gapm.o(i.gapm_process_op)
    i.gapm_profile_added_ind_handler         0x1000e7bc   Section        0  app_task.o(i.gapm_profile_added_ind_handler)
    gapm_profile_added_ind_handler           0x1000e7bd   Thumb Code    34  app_task.o(i.gapm_profile_added_ind_handler)
    i.gapm_profile_task_add_cmd_handler      0x1000e7e0   Section        0  gapm_cfg.o(i.gapm_profile_task_add_cmd_handler)
    i.gapm_reset_cmd_handler                 0x1000e840   Section        0  gapm_cfg.o(i.gapm_reset_cmd_handler)
    i.gapm_resolv_addr_cmd_handler           0x1000e880   Section        0  gapm_smp.o(i.gapm_resolv_addr_cmd_handler)
    i.gapm_scan_actv_clean                   0x1000e8b8   Section        0  gapm_scan.o(i.gapm_scan_actv_clean)
    i.gapm_scan_add_to_filter                0x1000e8e0   Section        0  gapm_scan.o(i.gapm_scan_add_to_filter)
    gapm_scan_add_to_filter                  0x1000e8e1   Thumb Code   124  gapm_scan.o(i.gapm_scan_add_to_filter)
    i.gapm_scan_clear_fragments              0x1000e95c   Section        0  gapm_scan.o(i.gapm_scan_clear_fragments)
    gapm_scan_clear_fragments                0x1000e95d   Thumb Code    26  gapm_scan.o(i.gapm_scan_clear_fragments)
    i.gapm_scan_create                       0x1000e978   Section        0  gapm_scan.o(i.gapm_scan_create)
    i.gapm_scan_delete                       0x1000e9e8   Section        0  gapm_scan.o(i.gapm_scan_delete)
    gapm_scan_delete                         0x1000e9e9   Thumb Code     4  gapm_scan.o(i.gapm_scan_delete)
    i.gapm_scan_filter_packet                0x1000e9ec   Section        0  gapm_scan.o(i.gapm_scan_filter_packet)
    gapm_scan_filter_packet                  0x1000e9ed   Thumb Code   258  gapm_scan.o(i.gapm_scan_filter_packet)
    i.gapm_scan_send_adv_report_ind          0x1000eaf4   Section        0  gapm_scan.o(i.gapm_scan_send_adv_report_ind)
    gapm_scan_send_adv_report_ind            0x1000eaf5   Thumb Code   320  gapm_scan.o(i.gapm_scan_send_adv_report_ind)
    i.gapm_scan_send_hci_le_set_ext_scan_en_cmd 0x1000ec34   Section        0  gapm_scan.o(i.gapm_scan_send_hci_le_set_ext_scan_en_cmd)
    gapm_scan_send_hci_le_set_ext_scan_en_cmd 0x1000ec35   Thumb Code    74  gapm_scan.o(i.gapm_scan_send_hci_le_set_ext_scan_en_cmd)
    i.gapm_scan_send_hci_le_set_ext_scan_param_cmd 0x1000ec84   Section        0  gapm_scan.o(i.gapm_scan_send_hci_le_set_ext_scan_param_cmd)
    gapm_scan_send_hci_le_set_ext_scan_param_cmd 0x1000ec85   Thumb Code   156  gapm_scan.o(i.gapm_scan_send_hci_le_set_ext_scan_param_cmd)
    i.gapm_scan_start                        0x1000ed20   Section        0  gapm_scan.o(i.gapm_scan_start)
    gapm_scan_start                          0x1000ed21   Thumb Code    70  gapm_scan.o(i.gapm_scan_start)
    i.gapm_scan_stop                         0x1000ed6c   Section        0  gapm_scan.o(i.gapm_scan_stop)
    gapm_scan_stop                           0x1000ed6d   Thumb Code    14  gapm_scan.o(i.gapm_scan_stop)
    i.gapm_scan_store_fragment               0x1000ed80   Section        0  gapm_scan.o(i.gapm_scan_store_fragment)
    gapm_scan_store_fragment                 0x1000ed81   Thumb Code   118  gapm_scan.o(i.gapm_scan_store_fragment)
    i.gapm_send_complete_evt                 0x1000edf8   Section        0  gapm.o(i.gapm_send_complete_evt)
    i.gapm_send_error_evt                    0x1000ee3c   Section        0  gapm.o(i.gapm_send_error_evt)
    i.gapm_set_adv_data_cmd_handler          0x1000ee60   Section        0  gapm_adv.o(i.gapm_set_adv_data_cmd_handler)
    i.gapm_set_channel_map_cmd_handler       0x1000ef4c   Section        0  gapm_cfg.o(i.gapm_set_channel_map_cmd_handler)
    i.gapm_set_dev_config_cmd_handler        0x1000efa4   Section        0  gapm_cfg.o(i.gapm_set_dev_config_cmd_handler)
    i.gapm_set_irk_cmd_handler               0x1000f14c   Section        0  gapm_cfg.o(i.gapm_set_irk_cmd_handler)
    i.gapm_set_max_mps                       0x1000f184   Section        0  gapm.o(i.gapm_set_max_mps)
    i.gapm_set_max_mtu                       0x1000f1a4   Section        0  gapm.o(i.gapm_set_max_mtu)
    i.gapm_smp_encrypt_req                   0x1000f1c4   Section        0  gapm_smp.o(i.gapm_smp_encrypt_req)
    gapm_smp_encrypt_req                     0x1000f1c5   Thumb Code    16  gapm_smp.o(i.gapm_smp_encrypt_req)
    i.gapm_smp_encrypt_rsp                   0x1000f1d8   Section        0  gapm_smp.o(i.gapm_smp_encrypt_rsp)
    gapm_smp_encrypt_rsp                     0x1000f1d9   Thumb Code   154  gapm_smp.o(i.gapm_smp_encrypt_rsp)
    i.gapm_smp_rand_req                      0x1000f278   Section        0  gapm_smp.o(i.gapm_smp_rand_req)
    gapm_smp_rand_req                        0x1000f279   Thumb Code     8  gapm_smp.o(i.gapm_smp_rand_req)
    i.gapm_smp_rand_rsp                      0x1000f284   Section        0  gapm_smp.o(i.gapm_smp_rand_rsp)
    gapm_smp_rand_rsp                        0x1000f285   Thumb Code   142  gapm_smp.o(i.gapm_smp_rand_rsp)
    i.gapm_smp_resolv_op_cont                0x1000f318   Section        0  gapm_smp.o(i.gapm_smp_resolv_op_cont)
    gapm_smp_resolv_op_cont                  0x1000f319   Thumb Code   148  gapm_smp.o(i.gapm_smp_resolv_op_cont)
    i.gapm_svc_chg_en                        0x1000f3b0   Section        0  gapm.o(i.gapm_svc_chg_en)
    i.gapm_sync_established_ind_handler      0x1000f3c0   Section        0  app_task.o(i.gapm_sync_established_ind_handler)
    gapm_sync_established_ind_handler        0x1000f3c1   Thumb Code    12  app_task.o(i.gapm_sync_established_ind_handler)
    i.gapm_unknown_task_msg_handler          0x1000f3cc   Section        0  gapm_task.o(i.gapm_unknown_task_msg_handler)
    gapm_unknown_task_msg_handler            0x1000f3cd   Thumb Code    34  gapm_task.o(i.gapm_unknown_task_msg_handler)
    i.gapm_update_state                      0x1000f3ee   Section        0  gapm.o(i.gapm_update_state)
    i.gapm_use_enc_block_cmd_handler         0x1000f41c   Section        0  gapm_smp.o(i.gapm_use_enc_block_cmd_handler)
    i.gapm_use_enc_block_ind_handler         0x1000f45c   Section        0  gapc_task.o(i.gapm_use_enc_block_ind_handler)
    gapm_use_enc_block_ind_handler           0x1000f45d   Thumb Code    60  gapc_task.o(i.gapm_use_enc_block_ind_handler)
    i.gatt_add_service                       0x1000f498   Section        0  gatt_api.o(i.gatt_add_service)
    i.gatt_clear_remote_svc                  0x1000f548   Section        0  gatt_api.o(i.gatt_clear_remote_svc)
    i.gatt_clr_peer_svc                      0x1000f5a0   Section        0  gatt_api.o(i.gatt_clr_peer_svc)
    gatt_clr_peer_svc                        0x1000f5a1   Thumb Code    58  gatt_api.o(i.gatt_clr_peer_svc)
    i.gatt_get_free_svc_id                   0x1000f5e0   Section        0  gatt_api.o(i.gatt_get_free_svc_id)
    i.gatt_msg_default_handler               0x1000f60c   Section        0  gatt_api.o(i.gatt_msg_default_handler)
    gatt_msg_default_handler                 0x1000f60d   Thumb Code    22  gatt_api.o(i.gatt_msg_default_handler)
    i.gatt_msg_default_handler_imp           0x1000f624   Section        0  gatt_api.o(i.gatt_msg_default_handler_imp)
    gatt_msg_default_handler_imp             0x1000f625   Thumb Code  1720  gatt_api.o(i.gatt_msg_default_handler_imp)
    i.gatt_notification                      0x1000fd08   Section        0  gatt_api.o(i.gatt_notification)
    i.gatt_notification_with_handle          0x1000fd38   Section        0  gatt_api.o(i.gatt_notification_with_handle)
    i.gatt_profile_task_add                  0x1000fda0   Section        0  gatt_api.o(i.gatt_profile_task_add)
    i.gatt_regist_peer_prf_info              0x1000fe4c   Section        0  gatt_api.o(i.gatt_regist_peer_prf_info)
    gatt_regist_peer_prf_info                0x1000fe4d   Thumb Code   114  gatt_api.o(i.gatt_regist_peer_prf_info)
    i.gatt_servcie_added                     0x1000fecc   Section        0  gatt_api.o(i.gatt_servcie_added)
    gatt_servcie_added                       0x1000fecd   Thumb Code    50  gatt_api.o(i.gatt_servcie_added)
    i.gatt_service_connection_cleanup        0x1000ff08   Section        0  gatt_api.o(i.gatt_service_connection_cleanup)
    gatt_service_connection_cleanup          0x1000ff09   Thumb Code    52  gatt_api.o(i.gatt_service_connection_cleanup)
    i.gatt_service_connection_created        0x1000ff40   Section        0  gatt_api.o(i.gatt_service_connection_created)
    gatt_service_connection_created          0x1000ff41   Thumb Code    58  gatt_api.o(i.gatt_service_connection_created)
    i.gatt_service_destroy                   0x1000ff84   Section        0  gatt_api.o(i.gatt_service_destroy)
    gatt_service_destroy                     0x1000ff85   Thumb Code     2  gatt_api.o(i.gatt_service_destroy)
    i.gatt_service_init                      0x1000ff88   Section        0  gatt_api.o(i.gatt_service_init)
    gatt_service_init                        0x1000ff89   Thumb Code   728  gatt_api.o(i.gatt_service_init)
    i.gatt_store_peer_prf_info               0x10010298   Section        0  gatt_api.o(i.gatt_store_peer_prf_info)
    gatt_store_peer_prf_info                 0x10010299   Thumb Code   252  gatt_api.o(i.gatt_store_peer_prf_info)
    i.gatt_write_peer_svc_to_flash           0x100103cc   Section        0  user_bond_manage.o(i.gatt_write_peer_svc_to_flash)
    i.gattc_att_info_cfm_handler             0x100104a4   Section        0  gattc_task.o(i.gattc_att_info_cfm_handler)
    gattc_att_info_cfm_handler               0x100104a5   Thumb Code    82  gattc_task.o(i.gattc_att_info_cfm_handler)
    i.gattc_att_info_req_ind_handler         0x100104fc   Section        0  gapc_task.o(i.gattc_att_info_req_ind_handler)
    gattc_att_info_req_ind_handler           0x100104fd   Thumb Code   102  gapc_task.o(i.gattc_att_info_req_ind_handler)
    i.gattc_att_info_req_ind_handler         0x10010562   Section        0  gattc_task.o(i.gattc_att_info_req_ind_handler)
    gattc_att_info_req_ind_handler           0x10010563   Thumb Code    80  gattc_task.o(i.gattc_att_info_req_ind_handler)
    i.gattc_cleanup                          0x100105b4   Section        0  gattc.o(i.gattc_cleanup)
    i.gattc_cmp_evt_handler                  0x10010658   Section        0  gapc_task.o(i.gattc_cmp_evt_handler)
    gattc_cmp_evt_handler                    0x10010659   Thumb Code    62  gapc_task.o(i.gattc_cmp_evt_handler)
    i.gattc_cmp_evt_handler                  0x10010698   Section        0  gattc_task.o(i.gattc_cmp_evt_handler)
    gattc_cmp_evt_handler                    0x10010699   Thumb Code   384  gattc_task.o(i.gattc_cmp_evt_handler)
    i.gattc_con_enable                       0x1001081c   Section        0  gattc.o(i.gattc_con_enable)
    i.gattc_create                           0x10010834   Section        0  gattc.o(i.gattc_create)
    i.gattc_default_msg_handler              0x100108c0   Section        0  gattc_task.o(i.gattc_default_msg_handler)
    gattc_default_msg_handler                0x100108c1   Thumb Code    12  gattc_task.o(i.gattc_default_msg_handler)
    i.gattc_disc_char_desc_ind_handler       0x100108cc   Section        0  gattc_task.o(i.gattc_disc_char_desc_ind_handler)
    gattc_disc_char_desc_ind_handler         0x100108cd   Thumb Code   106  gattc_task.o(i.gattc_disc_char_desc_ind_handler)
    i.gattc_disc_char_ind_handler            0x1001093c   Section        0  gattc_task.o(i.gattc_disc_char_ind_handler)
    gattc_disc_char_ind_handler              0x1001093d   Thumb Code   146  gattc_task.o(i.gattc_disc_char_ind_handler)
    i.gattc_disc_cmd_handler                 0x100109d4   Section        0  gattc_task.o(i.gattc_disc_cmd_handler)
    gattc_disc_cmd_handler                   0x100109d5   Thumb Code   322  gattc_task.o(i.gattc_disc_cmd_handler)
    i.gattc_disc_svc_incl_ind_handler        0x10010b20   Section        0  gattc_task.o(i.gattc_disc_svc_incl_ind_handler)
    gattc_disc_svc_incl_ind_handler          0x10010b21   Thumb Code   110  gattc_task.o(i.gattc_disc_svc_incl_ind_handler)
    i.gattc_disc_svc_ind_handler             0x10010b94   Section        0  gattc_task.o(i.gattc_disc_svc_ind_handler)
    gattc_disc_svc_ind_handler               0x10010b95   Thumb Code    96  gattc_task.o(i.gattc_disc_svc_ind_handler)
    i.gattc_event_cfm_handler                0x10010c48   Section        0  gattc_task.o(i.gattc_event_cfm_handler)
    gattc_event_cfm_handler                  0x10010c49   Thumb Code    24  gattc_task.o(i.gattc_event_cfm_handler)
    i.gattc_event_ind_handler                0x10010c60   Section        0  app_task.o(i.gattc_event_ind_handler)
    gattc_event_ind_handler                  0x10010c61   Thumb Code     4  app_task.o(i.gattc_event_ind_handler)
    i.gattc_exc_mtu_cmd_handler              0x10010c64   Section        0  gattc_task.o(i.gattc_exc_mtu_cmd_handler)
    gattc_exc_mtu_cmd_handler                0x10010c65   Thumb Code    68  gattc_task.o(i.gattc_exc_mtu_cmd_handler)
    i.gattc_execute_write_cmd_handler        0x10010cac   Section        0  gattc_task.o(i.gattc_execute_write_cmd_handler)
    gattc_execute_write_cmd_handler          0x10010cad   Thumb Code    42  gattc_task.o(i.gattc_execute_write_cmd_handler)
    i.gattc_get_mtu                          0x10010cdc   Section        0  gattc.o(i.gattc_get_mtu)
    i.gattc_get_operation                    0x10010cec   Section        0  gattc.o(i.gattc_get_operation)
    i.gattc_get_operation_ptr                0x10010d08   Section        0  gattc.o(i.gattc_get_operation_ptr)
    i.gattc_get_requester                    0x10010d18   Section        0  gattc.o(i.gattc_get_requester)
    i.gattc_init                             0x10010d38   Section        0  gattc.o(i.gattc_init)
    i.gattc_operation_cleanup                0x10010d88   Section        0  gattc.o(i.gattc_operation_cleanup)
    gattc_operation_cleanup                  0x10010d89   Thumb Code   102  gattc.o(i.gattc_operation_cleanup)
    i.gattc_process_op                       0x10010df4   Section        0  gattc_task.o(i.gattc_process_op)
    gattc_process_op                         0x10010df5   Thumb Code   162  gattc_task.o(i.gattc_process_op)
    i.gattc_read_cfm_handler                 0x10010e9c   Section        0  gattc_task.o(i.gattc_read_cfm_handler)
    gattc_read_cfm_handler                   0x10010e9d   Thumb Code    64  gattc_task.o(i.gattc_read_cfm_handler)
    i.gattc_read_cmd_handler                 0x10010ee0   Section        0  gattc_task.o(i.gattc_read_cmd_handler)
    gattc_read_cmd_handler                   0x10010ee1   Thumb Code   292  gattc_task.o(i.gattc_read_cmd_handler)
    i.gattc_read_ind_handler                 0x10011010   Section        0  gapc_task.o(i.gattc_read_ind_handler)
    gattc_read_ind_handler                   0x10011011   Thumb Code   232  gapc_task.o(i.gattc_read_ind_handler)
    i.gattc_read_req_ind_handler             0x100110f8   Section        0  gapc_task.o(i.gattc_read_req_ind_handler)
    gattc_read_req_ind_handler               0x100110f9   Thumb Code   184  gapc_task.o(i.gattc_read_req_ind_handler)
    i.gattc_read_req_ind_handler             0x100111b0   Section        0  gattc_task.o(i.gattc_read_req_ind_handler)
    gattc_read_req_ind_handler               0x100111b1   Thumb Code    94  gattc_task.o(i.gattc_read_req_ind_handler)
    i.gattc_reg_to_peer_evt_cmd_handler      0x10011210   Section        0  gattc_task.o(i.gattc_reg_to_peer_evt_cmd_handler)
    gattc_reg_to_peer_evt_cmd_handler        0x10011211   Thumb Code   156  gattc_task.o(i.gattc_reg_to_peer_evt_cmd_handler)
    i.gattc_reschedule_operation             0x100112b4   Section        0  gattc.o(i.gattc_reschedule_operation)
    i.gattc_sdp_svc_disc_cmd_handler         0x100112f0   Section        0  gattc_task.o(i.gattc_sdp_svc_disc_cmd_handler)
    gattc_sdp_svc_disc_cmd_handler           0x100112f1   Thumb Code   190  gattc_task.o(i.gattc_sdp_svc_disc_cmd_handler)
    i.gattc_send_complete_evt                0x100113b4   Section        0  gattc.o(i.gattc_send_complete_evt)
    i.gattc_send_error_evt                   0x1001141c   Section        0  gattc.o(i.gattc_send_error_evt)
    i.gattc_send_evt_cmd_handler             0x10011448   Section        0  gattc_task.o(i.gattc_send_evt_cmd_handler)
    gattc_send_evt_cmd_handler               0x10011449   Thumb Code    78  gattc_task.o(i.gattc_send_evt_cmd_handler)
    i.gattc_send_svc_changed_cmd_handler     0x100114a0   Section        0  gattc_task.o(i.gattc_send_svc_changed_cmd_handler)
    gattc_send_svc_changed_cmd_handler       0x100114a1   Thumb Code   178  gattc_task.o(i.gattc_send_svc_changed_cmd_handler)
    i.gattc_set_mtu                          0x10011554   Section        0  gattc.o(i.gattc_set_mtu)
    i.gattc_set_operation_ptr                0x100115a4   Section        0  gattc.o(i.gattc_set_operation_ptr)
    i.gattc_timeout_handler                  0x100115b4   Section        0  gattc_task.o(i.gattc_timeout_handler)
    gattc_timeout_handler                    0x100115b5   Thumb Code   104  gattc_task.o(i.gattc_timeout_handler)
    i.gattc_update_state                     0x10011620   Section        0  gattc.o(i.gattc_update_state)
    i.gattc_write_cfm_handler                0x10011648   Section        0  gattc_task.o(i.gattc_write_cfm_handler)
    gattc_write_cfm_handler                  0x10011649   Thumb Code   132  gattc_task.o(i.gattc_write_cfm_handler)
    i.gattc_write_cmd_handler                0x100116d0   Section        0  gattc_task.o(i.gattc_write_cmd_handler)
    gattc_write_cmd_handler                  0x100116d1   Thumb Code   398  gattc_task.o(i.gattc_write_cmd_handler)
    i.gattc_write_req_ind_handler            0x10011864   Section        0  gapc_task.o(i.gattc_write_req_ind_handler)
    gattc_write_req_ind_handler              0x10011865   Thumb Code   224  gapc_task.o(i.gattc_write_req_ind_handler)
    i.gattc_write_req_ind_handler            0x10011944   Section        0  gattc_task.o(i.gattc_write_req_ind_handler)
    gattc_write_req_ind_handler              0x10011945   Thumb Code   114  gattc_task.o(i.gattc_write_req_ind_handler)
    i.gattm_cleanup                          0x100119b6   Section        0  gattm.o(i.gattm_cleanup)
    i.gattm_create                           0x100119bc   Section        0  gattm.o(i.gattm_create)
    i.gattm_default_msg_handler              0x100119c0   Section        0  gattm_task.o(i.gattm_default_msg_handler)
    gattm_default_msg_handler                0x100119c1   Thumb Code     4  gattm_task.o(i.gattm_default_msg_handler)
    i.gattm_init                             0x100119c4   Section        0  gattm.o(i.gattm_init)
    i.gattm_init_attr                        0x100119e8   Section        0  gattm.o(i.gattm_init_attr)
    i.gattm_svc_get_start_hdl                0x10011a4c   Section        0  gattm.o(i.gattm_svc_get_start_hdl)
    i.get_active_service_id                  0x10011a58   Section        0  gatt_api.o(i.get_active_service_id)
    get_active_service_id                    0x10011a59   Thumb Code    48  gatt_api.o(i.get_active_service_id)
    i.get_gatt_default_itf                   0x10011a8c   Section        0  gatt_api.o(i.get_gatt_default_itf)
    i.get_stored_info_req                    0x10011a94   Section        0  app_proj_event.o(i.get_stored_info_req)
    i.gpio_init                              0x10011b30   Section        0  driver_gpio.o(i.gpio_init)
    i.gpio_read_pin                          0x10011e50   Section        0  driver_gpio.o(i.gpio_read_pin)
    i.gpio_write_pin                         0x10011e84   Section        0  driver_gpio.o(i.gpio_write_pin)
    i.guiBleComond                           0x10011ee0   Section        0  sdl_event.o(i.guiBleComond)
    i.guiProcKey                             0x10011f1c   Section        0  sdl_event.o(i.guiProcKey)
    i.gui_context_find_widget                0x10011f48   Section        0  guicontext.o(i.gui_context_find_widget)
    i.gui_context_get_current_page           0x10011f7c   Section        0  guicontext.o(i.gui_context_get_current_page)
    i.gui_context_init                       0x10011f88   Section        0  guicontext.o(i.gui_context_init)
    i.gui_context_invalidate                 0x10012108   Section        0  guicontext.o(i.gui_context_invalidate)
    i.gui_context_open_page                  0x1001215c   Section        0  guicontext.o(i.gui_context_open_page)
    i.gui_context_open_page_with_pos         0x10012178   Section        0  guicontext.o(i.gui_context_open_page_with_pos)
    i.gui_context_procreg                    0x100121a4   Section        0  guicontext.o(i.gui_context_procreg)
    i.gui_context_run                        0x100121d4   Section        0  guicontext.o(i.gui_context_run)
    i.gui_init                               0x10012204   Section        0  gui_main.o(i.gui_init)
    i.gui_main                               0x100122e4   Section        0  gui_main.o(i.gui_main)
    i.hci_acl_data_handler                   0x10012370   Section        0  l2cc_task.o(i.hci_acl_data_handler)
    hci_acl_data_handler                     0x10012371   Thumb Code   178  l2cc_task.o(i.hci_acl_data_handler)
    i.hci_auth_payl_to_exp_evt_handler       0x1001242c   Section        0  gapc_hci.o(i.hci_auth_payl_to_exp_evt_handler)
    hci_auth_payl_to_exp_evt_handler         0x1001242d   Thumb Code    36  gapc_hci.o(i.hci_auth_payl_to_exp_evt_handler)
    i.hci_basic_cmd_cmp_evt_cfg_handler      0x10012450   Section        0  gapm_cfg.o(i.hci_basic_cmd_cmp_evt_cfg_handler)
    i.hci_basic_cmd_cmp_evt_rl_cfg_handler   0x100124f4   Section        0  gapm_cfg.o(i.hci_basic_cmd_cmp_evt_rl_cfg_handler)
    i.hci_cmd_stat_event_handler             0x10012538   Section        0  gapc_hci.o(i.hci_cmd_stat_event_handler)
    hci_cmd_stat_event_handler               0x10012539   Thumb Code   240  gapc_hci.o(i.hci_cmd_stat_event_handler)
    i.hci_disc_cmp_evt_handler               0x1001262c   Section        0  gapc_hci.o(i.hci_disc_cmp_evt_handler)
    hci_disc_cmp_evt_handler                 0x1001262d   Thumb Code    88  gapc_hci.o(i.hci_disc_cmp_evt_handler)
    i.hci_enc_chg_evt_handler                0x10012688   Section        0  gapc_hci.o(i.hci_enc_chg_evt_handler)
    hci_enc_chg_evt_handler                  0x10012689   Thumb Code    36  gapc_hci.o(i.hci_enc_chg_evt_handler)
    i.hci_enc_key_refr_evt_handler           0x100126b0   Section        0  gapc_hci.o(i.hci_enc_key_refr_evt_handler)
    hci_enc_key_refr_evt_handler             0x100126b1   Thumb Code    36  gapc_hci.o(i.hci_enc_key_refr_evt_handler)
    i.hci_le_adv_set_term_evt_handler        0x100126d8   Section        0  gapm_adv.o(i.hci_le_adv_set_term_evt_handler)
    i.hci_le_ch_sel_algo_evt_handler         0x10012748   Section        0  gapc_hci.o(i.hci_le_ch_sel_algo_evt_handler)
    i.hci_le_cmd_cmp_evt_addr_handler        0x10012770   Section        0  gapm_addr.o(i.hci_le_cmd_cmp_evt_addr_handler)
    i.hci_le_cmd_cmp_evt_adv_handler         0x100127a8   Section        0  gapm_adv.o(i.hci_le_cmd_cmp_evt_adv_handler)
    i.hci_le_cmd_cmp_evt_creating_handler    0x1001284c   Section        0  gapm_adv.o(i.hci_le_cmd_cmp_evt_creating_handler)
    hci_le_cmd_cmp_evt_creating_handler      0x1001284d   Thumb Code   230  gapm_adv.o(i.hci_le_cmd_cmp_evt_creating_handler)
    i.hci_le_cmd_cmp_evt_init_handler        0x10012938   Section        0  gapm_init.o(i.hci_le_cmd_cmp_evt_init_handler)
    i.hci_le_cmd_cmp_evt_list_handler        0x100129b8   Section        0  gapm_list.o(i.hci_le_cmd_cmp_evt_list_handler)
    i.hci_le_cmd_cmp_evt_per_sync_handler    0x10012a58   Section        0  gapm_per_sync.o(i.hci_le_cmd_cmp_evt_per_sync_handler)
    i.hci_le_cmd_cmp_evt_scan_handler        0x10012a8c   Section        0  gapm_scan.o(i.hci_le_cmd_cmp_evt_scan_handler)
    i.hci_le_cmd_cmp_evt_starting_handler    0x10012af4   Section        0  gapm_adv.o(i.hci_le_cmd_cmp_evt_starting_handler)
    hci_le_cmd_cmp_evt_starting_handler      0x10012af5   Thumb Code   126  gapm_adv.o(i.hci_le_cmd_cmp_evt_starting_handler)
    i.hci_le_con_update_cmp_evt_handler      0x10012b74   Section        0  gapc_hci.o(i.hci_le_con_update_cmp_evt_handler)
    hci_le_con_update_cmp_evt_handler        0x10012b75   Thumb Code   138  gapc_hci.o(i.hci_le_con_update_cmp_evt_handler)
    i.hci_le_data_len_chg_evt_handler        0x10012c04   Section        0  gapc_hci.o(i.hci_le_data_len_chg_evt_handler)
    hci_le_data_len_chg_evt_handler          0x10012c05   Thumb Code    60  gapc_hci.o(i.hci_le_data_len_chg_evt_handler)
    i.hci_le_enh_con_cmp_evt_handler         0x10012c40   Section        0  gapm_actv.o(i.hci_le_enh_con_cmp_evt_handler)
    i.hci_le_ext_adv_report_evt_handler      0x10012c68   Section        0  gapm_scan.o(i.hci_le_ext_adv_report_evt_handler)
    i.hci_le_gen_dhkey_stat_evt_handler      0x10012d2c   Section        0  gapm_smp.o(i.hci_le_gen_dhkey_stat_evt_handler)
    i.hci_le_generate_dhkey_cmp_evt_handler  0x10012d52   Section        0  gapm_smp.o(i.hci_le_generate_dhkey_cmp_evt_handler)
    i.hci_le_ltk_request_evt_handler         0x10012da8   Section        0  gapc_hci.o(i.hci_le_ltk_request_evt_handler)
    hci_le_ltk_request_evt_handler           0x10012da9   Thumb Code   118  gapc_hci.o(i.hci_le_ltk_request_evt_handler)
    i.hci_le_per_adv_report_evt_handler      0x10012e28   Section        0  gapm_per_sync.o(i.hci_le_per_adv_report_evt_handler)
    i.hci_le_per_adv_sync_est_evt_handler    0x10012e78   Section        0  gapm_per_sync.o(i.hci_le_per_adv_sync_est_evt_handler)
    i.hci_le_per_adv_sync_lost_evt_handler   0x10012ede   Section        0  gapm_per_sync.o(i.hci_le_per_adv_sync_lost_evt_handler)
    i.hci_le_phy_upd_cmp_evt_handler         0x10012efc   Section        0  gapc_hci.o(i.hci_le_phy_upd_cmp_evt_handler)
    hci_le_phy_upd_cmp_evt_handler           0x10012efd   Thumb Code   100  gapc_hci.o(i.hci_le_phy_upd_cmp_evt_handler)
    i.hci_le_rd_adv_chnl_tx_pw_cmd_cmp_evt_handler 0x10012f64   Section        0  gapm_cfg.o(i.hci_le_rd_adv_chnl_tx_pw_cmd_cmp_evt_handler)
    i.hci_le_rd_buff_size_cmd_cmp_evt_handler 0x10012fa8   Section        0  gapm_cfg.o(i.hci_le_rd_buff_size_cmd_cmp_evt_handler)
    i.hci_le_rd_local_p256_public_key_cmp_evt_handler 0x10012fd8   Section        0  gapm_cfg.o(i.hci_le_rd_local_p256_public_key_cmp_evt_handler)
    i.hci_le_rd_max_data_len_cmd_cmp_evt_handler 0x10013068   Section        0  gapm_cfg.o(i.hci_le_rd_max_data_len_cmd_cmp_evt_handler)
    i.hci_le_rd_nb_supp_adv_sets_cmd_cmp_evt_handler 0x100130ac   Section        0  gapm_cfg.o(i.hci_le_rd_nb_supp_adv_sets_cmd_cmp_evt_handler)
    i.hci_le_rd_pal_size_cmd_cmp_evt_handler 0x10013114   Section        0  gapm_list.o(i.hci_le_rd_pal_size_cmd_cmp_evt_handler)
    i.hci_le_rd_phy_cmd_cmp_evt_handler      0x10013150   Section        0  gapc_hci.o(i.hci_le_rd_phy_cmd_cmp_evt_handler)
    hci_le_rd_phy_cmd_cmp_evt_handler        0x10013151   Thumb Code    88  gapc_hci.o(i.hci_le_rd_phy_cmd_cmp_evt_handler)
    i.hci_le_rd_ral_addr_cmd_cmp_evt_handler 0x100131ac   Section        0  gapm_list.o(i.hci_le_rd_ral_addr_cmd_cmp_evt_handler)
    i.hci_le_rd_ral_size_cmd_cmp_evt_handler 0x10013212   Section        0  gapm_list.o(i.hci_le_rd_ral_size_cmd_cmp_evt_handler)
    i.hci_le_rd_rem_feats_cmp_evt_handler    0x1001324c   Section        0  gapc_hci.o(i.hci_le_rd_rem_feats_cmp_evt_handler)
    hci_le_rd_rem_feats_cmp_evt_handler      0x1001324d   Thumb Code   158  gapc_hci.o(i.hci_le_rd_rem_feats_cmp_evt_handler)
    i.hci_le_rd_rf_path_comp_cmd_cmp_evt_handler 0x100132f0   Section        0  gapm_cfg.o(i.hci_le_rd_rf_path_comp_cmd_cmp_evt_handler)
    i.hci_le_rd_suggted_dft_data_len_cmd_cmp_evt_handler 0x10013338   Section        0  gapm_cfg.o(i.hci_le_rd_suggted_dft_data_len_cmd_cmp_evt_handler)
    i.hci_le_rd_tx_pwr_cmd_cmp_evt_handler   0x10013372   Section        0  gapm_cfg.o(i.hci_le_rd_tx_pwr_cmd_cmp_evt_handler)
    i.hci_le_rd_wlst_size_cmd_cmp_evt_handler 0x100133ba   Section        0  gapm_list.o(i.hci_le_rd_wlst_size_cmd_cmp_evt_handler)
    i.hci_le_read_max_adv_data_len_cmd_cmp_evt_handler 0x100133f4   Section        0  gapm_cfg.o(i.hci_le_read_max_adv_data_len_cmd_cmp_evt_handler)
    i.hci_le_rem_con_param_req_evt_handler   0x1001345c   Section        0  gapc_hci.o(i.hci_le_rem_con_param_req_evt_handler)
    hci_le_rem_con_param_req_evt_handler     0x1001345d   Thumb Code    76  gapc_hci.o(i.hci_le_rem_con_param_req_evt_handler)
    i.hci_le_scan_req_rcvd_evt_handler       0x100134ac   Section        0  gapm_adv.o(i.hci_le_scan_req_rcvd_evt_handler)
    i.hci_le_scan_timeout_evt_handler        0x1001350c   Section        0  gapm_scan.o(i.hci_le_scan_timeout_evt_handler)
    i.hci_le_set_data_len_cmd_cmp_evt_handler 0x10013534   Section        0  gapc_hci.o(i.hci_le_set_data_len_cmd_cmp_evt_handler)
    hci_le_set_data_len_cmd_cmp_evt_handler  0x10013535   Thumb Code    46  gapc_hci.o(i.hci_le_set_data_len_cmd_cmp_evt_handler)
    i.hci_le_start_enc_stat_evt_handler      0x10013568   Section        0  gapc_hci.o(i.hci_le_start_enc_stat_evt_handler)
    hci_le_start_enc_stat_evt_handler        0x10013569   Thumb Code    36  gapc_hci.o(i.hci_le_start_enc_stat_evt_handler)
    i.hci_nb_cmp_pkts_evt_handler            0x1001358c   Section        0  l2cc_task.o(i.hci_nb_cmp_pkts_evt_handler)
    hci_nb_cmp_pkts_evt_handler              0x1001358d   Thumb Code    52  l2cc_task.o(i.hci_nb_cmp_pkts_evt_handler)
    i.hci_rd_auth_payl_to_cmd_cmp_evt_handler 0x100135c4   Section        0  gapc_hci.o(i.hci_rd_auth_payl_to_cmd_cmp_evt_handler)
    hci_rd_auth_payl_to_cmd_cmp_evt_handler  0x100135c5   Thumb Code    72  gapc_hci.o(i.hci_rd_auth_payl_to_cmd_cmp_evt_handler)
    i.hci_rd_bd_addr_cmd_cmp_evt_handler     0x1001360c   Section        0  gapm_cfg.o(i.hci_rd_bd_addr_cmd_cmp_evt_handler)
    i.hci_rd_buff_size_cmd_cmp_evt_handler   0x10013650   Section        0  gapm_cfg.o(i.hci_rd_buff_size_cmd_cmp_evt_handler)
    i.hci_rd_chnl_map_cmd_cmp_evt_handler    0x10013680   Section        0  gapc_hci.o(i.hci_rd_chnl_map_cmd_cmp_evt_handler)
    hci_rd_chnl_map_cmd_cmp_evt_handler      0x10013681   Thumb Code    96  gapc_hci.o(i.hci_rd_chnl_map_cmd_cmp_evt_handler)
    i.hci_rd_local_ver_info_cmd_cmp_evt_handler 0x100136e0   Section        0  gapm_cfg.o(i.hci_rd_local_ver_info_cmd_cmp_evt_handler)
    i.hci_rd_rem_ver_info_cmp_evt_handler    0x10013748   Section        0  gapc_hci.o(i.hci_rd_rem_ver_info_cmp_evt_handler)
    hci_rd_rem_ver_info_cmp_evt_handler      0x10013749   Thumb Code   130  gapc_hci.o(i.hci_rd_rem_ver_info_cmp_evt_handler)
    i.hci_rd_rssi_cmd_cmp_evt_handler        0x100137d0   Section        0  gapc_hci.o(i.hci_rd_rssi_cmd_cmp_evt_handler)
    hci_rd_rssi_cmd_cmp_evt_handler          0x100137d1   Thumb Code    92  gapc_hci.o(i.hci_rd_rssi_cmd_cmp_evt_handler)
    i.hci_test_end_cmd_cmp_evt_handler       0x1001382c   Section        0  gapm_cfg.o(i.hci_test_end_cmd_cmp_evt_handler)
    i.hci_vs_set_pref_slave_latency_cmd_cmp_evt_handler 0x10013868   Section        0  gapc_hci.o(i.hci_vs_set_pref_slave_latency_cmd_cmp_evt_handler)
    hci_vs_set_pref_slave_latency_cmd_cmp_evt_handler 0x10013869   Thumb Code    46  gapc_hci.o(i.hci_vs_set_pref_slave_latency_cmd_cmp_evt_handler)
    i.hci_wr_auth_payl_to_cmd_cmp_evt_handler 0x1001389c   Section        0  gapc_hci.o(i.hci_wr_auth_payl_to_cmd_cmp_evt_handler)
    hci_wr_auth_payl_to_cmd_cmp_evt_handler  0x1001389d   Thumb Code    38  gapc_hci.o(i.hci_wr_auth_payl_to_cmd_cmp_evt_handler)
    i.host_trng_valid                        0x100138c4   Section        0  trng.o(i.host_trng_valid)
    host_trng_valid                          0x100138c5   Thumb Code   132  trng.o(i.host_trng_valid)
    i.i2c_clear_int_status                   0x10013950   Section        0  driver_i2c.o(i.i2c_clear_int_status)
    i.i2c_get_int_status                     0x100139d6   Section        0  driver_i2c.o(i.i2c_get_int_status)
    i.i2c_init                               0x100139e2   Section        0  driver_i2c.o(i.i2c_init)
    i.i2c_touchpad_read                      0x10013b74   Section        0  sdl_event.o(i.i2c_touchpad_read)
    i.i_memset                               0x10013c58   Section        0  resource.o(i.i_memset)
    i.image_proc                             0x10013c68   Section        0  image.o(i.image_proc)
    i.imagetext_proc                         0x10013cc0   Section        0  imagetext.o(i.imagetext_proc)
    i.imagetext_scroll_proc                  0x10013e98   Section        0  imgtext_scroll.o(i.imagetext_scroll_proc)
    i.imagetext_set_scroll                   0x100142dc   Section        0  imgtext_scroll.o(i.imagetext_set_scroll)
    i.imagetext_set_text                     0x100144d4   Section        0  imagetext.o(i.imagetext_set_text)
    i.increment_proc                         0x100144fa   Section        0  increment.o(i.increment_proc)
    i.init_flash                             0x10014554   Section        0  ic_w25qxx.o(i.init_flash)
    i.init_screenInfo                        0x100145f8   Section        0  sdl_gfx.o(i.init_screenInfo)
    i.initdev                                0x100145fc   Section        0  uartupgradedev.o(i.initdev)
    initdev                                  0x100145fd   Thumb Code   108  uartupgradedev.o(i.initdev)
    i.initdev                                0x100146b0   Section        0  uartcomm.o(i.initdev)
    initdev                                  0x100146b1   Thumb Code   150  uartcomm.o(i.initdev)
    i.jump_table_get_static_keys             0x10014790   Section        0  jump_table_host.o(i.jump_table_get_static_keys)
    i.jump_table_memmory_init                0x10014854   Section        0  jump_table_host.o(i.jump_table_memmory_init)
    i.jump_table_param_get                   0x10014890   Section        0  jump_table_host.o(i.jump_table_param_get)
    jump_table_param_get                     0x10014891   Thumb Code    68  jump_table_host.o(i.jump_table_param_get)
    i.jump_table_param_set                   0x100148d8   Section        0  jump_table_host.o(i.jump_table_param_set)
    jump_table_param_set                     0x100148d9   Thumb Code    50  jump_table_host.o(i.jump_table_param_set)
    i.jump_table_set_static_keys             0x10014910   Section        0  jump_table_host.o(i.jump_table_set_static_keys)
    i.ke_task_default_handler_get_patch      0x100149b0   Section        0  entry.o(i.ke_task_default_handler_get_patch)
    ke_task_default_handler_get_patch        0x100149b1   Thumb Code     4  entry.o(i.ke_task_default_handler_get_patch)
    i.l2c_code_conn_param_upd_req_handler    0x100149b4   Section        0  l2cc_sig.o(i.l2c_code_conn_param_upd_req_handler)
    l2c_code_conn_param_upd_req_handler      0x100149b5   Thumb Code    60  l2cc_sig.o(i.l2c_code_conn_param_upd_req_handler)
    i.l2c_code_conn_param_upd_req_handler    0x100149f0   Section        0  gapc_sig.o(i.l2c_code_conn_param_upd_req_handler)
    l2c_code_conn_param_upd_req_handler      0x100149f1   Thumb Code    98  gapc_sig.o(i.l2c_code_conn_param_upd_req_handler)
    i.l2c_code_conn_param_upd_resp_handler   0x10014a58   Section        0  l2cc_sig.o(i.l2c_code_conn_param_upd_resp_handler)
    l2c_code_conn_param_upd_resp_handler     0x10014a59   Thumb Code    58  l2cc_sig.o(i.l2c_code_conn_param_upd_resp_handler)
    i.l2c_code_conn_param_upd_resp_handler   0x10014a92   Section        0  gapc_sig.o(i.l2c_code_conn_param_upd_resp_handler)
    l2c_code_conn_param_upd_resp_handler     0x10014a93   Thumb Code    68  gapc_sig.o(i.l2c_code_conn_param_upd_resp_handler)
    i.l2c_code_reject_handler                0x10014ad6   Section        0  l2cc_sig.o(i.l2c_code_reject_handler)
    l2c_code_reject_handler                  0x10014ad7   Thumb Code    28  l2cc_sig.o(i.l2c_code_reject_handler)
    i.l2c_code_reject_handler                0x10014af2   Section        0  gapc_sig.o(i.l2c_code_reject_handler)
    l2c_code_reject_handler                  0x10014af3   Thumb Code    80  gapc_sig.o(i.l2c_code_reject_handler)
    i.l2cc_cleanup                           0x10014b44   Section        0  l2cc.o(i.l2cc_cleanup)
    i.l2cc_cmp_evt_handler                   0x10014bf4   Section        0  gapc_task.o(i.l2cc_cmp_evt_handler)
    l2cc_cmp_evt_handler                     0x10014bf5   Thumb Code    60  gapc_task.o(i.l2cc_cmp_evt_handler)
    i.l2cc_cmp_evt_handler                   0x10014c30   Section        0  gattc_task.o(i.l2cc_cmp_evt_handler)
    l2cc_cmp_evt_handler                     0x10014c31   Thumb Code    70  gattc_task.o(i.l2cc_cmp_evt_handler)
    i.l2cc_create                            0x10014c78   Section        0  l2cc.o(i.l2cc_create)
    i.l2cc_data_send                         0x10014cc4   Section        0  l2cc.o(i.l2cc_data_send)
    i.l2cc_dbg_pdu_pack                      0x10014e40   Section        0  l2cc_pdu.o(i.l2cc_dbg_pdu_pack)
    i.l2cc_dbg_pdu_send_cmd_handler          0x10014e90   Section        0  l2cc_task.o(i.l2cc_dbg_pdu_send_cmd_handler)
    l2cc_dbg_pdu_send_cmd_handler            0x10014e91   Thumb Code   106  l2cc_task.o(i.l2cc_dbg_pdu_send_cmd_handler)
    i.l2cc_default_msg_handler               0x10014f00   Section        0  l2cc_task.o(i.l2cc_default_msg_handler)
    l2cc_default_msg_handler                 0x10014f01   Thumb Code     4  l2cc_task.o(i.l2cc_default_msg_handler)
    i.l2cc_init                              0x10014f04   Section        0  l2cc.o(i.l2cc_init)
    i.l2cc_lecb_sdu_send_cmd_handler         0x10014f54   Section        0  l2cc_task.o(i.l2cc_lecb_sdu_send_cmd_handler)
    l2cc_lecb_sdu_send_cmd_handler           0x10014f55   Thumb Code    62  l2cc_task.o(i.l2cc_lecb_sdu_send_cmd_handler)
    i.l2cc_op_complete                       0x10014f94   Section        0  l2cc.o(i.l2cc_op_complete)
    i.l2cc_pdu_alloc                         0x10014fe8   Section        0  l2cc_task.o(i.l2cc_pdu_alloc)
    i.l2cc_pdu_header_check                  0x10015014   Section        0  l2cc_pdu.o(i.l2cc_pdu_header_check)
    i.l2cc_pdu_pack                          0x10015158   Section        0  l2cc_pdu.o(i.l2cc_pdu_pack)
    i.l2cc_pdu_recv_ind_handler              0x1001540c   Section        0  l2cc_task.o(i.l2cc_pdu_recv_ind_handler)
    l2cc_pdu_recv_ind_handler                0x1001540d   Thumb Code    98  l2cc_task.o(i.l2cc_pdu_recv_ind_handler)
    i.l2cc_pdu_recv_ind_handler              0x1001546e   Section        0  gapc_task.o(i.l2cc_pdu_recv_ind_handler)
    l2cc_pdu_recv_ind_handler                0x1001546f   Thumb Code   104  gapc_task.o(i.l2cc_pdu_recv_ind_handler)
    i.l2cc_pdu_recv_ind_handler              0x100154d6   Section        0  gattc_task.o(i.l2cc_pdu_recv_ind_handler)
    l2cc_pdu_recv_ind_handler                0x100154d7   Thumb Code   114  gattc_task.o(i.l2cc_pdu_recv_ind_handler)
    i.l2cc_pdu_rx_init                       0x10015548   Section        0  l2cc_pdu.o(i.l2cc_pdu_rx_init)
    i.l2cc_pdu_send                          0x100155c8   Section        0  l2cc_task.o(i.l2cc_pdu_send)
    i.l2cc_pdu_send_cmd_handler              0x100155d0   Section        0  l2cc_task.o(i.l2cc_pdu_send_cmd_handler)
    l2cc_pdu_send_cmd_handler                0x100155d1   Thumb Code    90  l2cc_task.o(i.l2cc_pdu_send_cmd_handler)
    i.l2cc_pdu_unpack                        0x10015630   Section        0  l2cc_pdu.o(i.l2cc_pdu_unpack)
    i.l2cc_send_cmp_evt                      0x100158c8   Section        0  l2cc.o(i.l2cc_send_cmp_evt)
    i.l2cc_sig_pdu_recv_handler              0x100158f8   Section        0  l2cc_sig.o(i.l2cc_sig_pdu_recv_handler)
    i.l2cc_sig_send_cmd_reject               0x10015944   Section        0  l2cc_sig.o(i.l2cc_sig_send_cmd_reject)
    i.l2cc_update_state                      0x100159a0   Section        0  l2cc.o(i.l2cc_update_state)
    i.l2cm_cleanup                           0x100159c8   Section        0  l2cm.o(i.l2cm_cleanup)
    i.l2cm_create                            0x100159de   Section        0  l2cm.o(i.l2cm_create)
    i.l2cm_get_nb_buffer_available           0x100159e4   Section        0  l2cm.o(i.l2cm_get_nb_buffer_available)
    i.l2cm_init                              0x100159f0   Section        0  l2cm.o(i.l2cm_init)
    i.l2cm_l2cap_tx_handler                  0x10015a20   Section        0  l2cm.o(i.l2cm_l2cap_tx_handler)
    l2cm_l2cap_tx_handler                    0x10015a21   Thumb Code    88  l2cm.o(i.l2cm_l2cap_tx_handler)
    i.l2cm_set_link_layer_buff_size          0x10015a80   Section        0  l2cm.o(i.l2cm_set_link_layer_buff_size)
    i.l2cm_tx_status                         0x10015a90   Section        0  l2cm.o(i.l2cm_tx_status)
    i.label_proc                             0x10015abc   Section        0  label.o(i.label_proc)
    i.label_set_text                         0x10015d58   Section        0  label.o(i.label_set_text)
    i.lcd_initialize                         0x10015da0   Section        0  driver_rm69330.o(i.lcd_initialize)
    lcd_initialize                           0x10015da1   Thumb Code    72  driver_rm69330.o(i.lcd_initialize)
    i.lcd_setbrightness                      0x10015e38   Section        0  sdl_video.o(i.lcd_setbrightness)
    i.lcd_transmit                           0x10015e54   Section        0  driver_rm69330.o(i.lcd_transmit)
    lcd_transmit                             0x10015e55   Thumb Code   112  driver_rm69330.o(i.lcd_transmit)
    i.log_init                               0x10015ecc   Section        0  co_log.o(i.log_init)
    i.log_printf                             0x10015f54   Section        0  co_log.o(i.log_printf)
    i.log_printf_level                       0x10015f78   Section        0  co_log.o(i.log_printf_level)
    i.lvd_threshold                          0x10015f7c   Section        0  driver_pmu.o(i.lvd_threshold)
    i.m_al_get_local_addr                    0x10015fa0   Section        0  m_al_task.o(i.m_al_get_local_addr)
    i.m_tb_state_is_feature_sup              0x10015fa8   Section        0  m_tb_state.o(i.m_tb_state_is_feature_sup)
    i.mesh_set_runtime                       0x10015fc0   Section        0  mesh_api.o(i.mesh_set_runtime)
    i.message_dequeue                        0x1001600c   Section        0  message.o(i.message_dequeue)
    i.message_enqueue                        0x10016040   Section        0  message.o(i.message_enqueue)
    i.message_init                           0x1001606c   Section        0  message.o(i.message_init)
    i.mw9VZnDHubl3                           0x1001607c   Section        0  ic_w25qxx.o(i.mw9VZnDHubl3)
    i.ntf_data                               0x100161bc   Section        0  simple_gatt_service.o(i.ntf_data)
    i.numtext_proc                           0x100161e4   Section        0  numtext.o(i.numtext_proc)
    i.onBleCommand                           0x1001645c   Section        0  main.o(i.onBleCommand)
    onBleCommand                             0x1001645d   Thumb Code   248  main.o(i.onBleCommand)
    i.onBleCommand                           0x10016578   Section        0  hot.o(i.onBleCommand)
    onBleCommand                             0x10016579   Thumb Code    84  hot.o(i.onBleCommand)
    i.on_animation_play_end                  0x100165d4   Section        0  ui_context.o(i.on_animation_play_end)
    i.on_button_touch_event                  0x100165fc   Section        0  ui_context.o(i.on_button_touch_event)
    i.on_page_open                           0x10016628   Section        0  ui_context.o(i.on_page_open)
    i.on_progress_changed                    0x1001664c   Section        0  ui_context.o(i.on_progress_changed)
    i.on_timer                               0x10016678   Section        0  ui_context.o(i.on_timer)
    i.os_default_task_func                   0x100166a4   Section        0  os_task.o(i.os_default_task_func)
    os_default_task_func                     0x100166a5   Thumb Code    44  os_task.o(i.os_default_task_func)
    i.os_msg_post                            0x100166d4   Section        0  os_msg_q.o(i.os_msg_post)
    i.os_zalloc                              0x10016734   Section        0  os_mem.o(i.os_zalloc)
    i.pKKFrMQUHba                            0x1001674c   Section        0  resource.o(i.pKKFrMQUHba)
    i.pmu_calibration_restart                0x10016848   Section        0  sys_utisl.o(i.pmu_calibration_restart)
    i.pmu_cp_trim_config                     0x100168a8   Section        0  driver_pmu.o(i.pmu_cp_trim_config)
    i.pmu_ft_trim_config                     0x100169fc   Section        0  driver_pmu.o(i.pmu_ft_trim_config)
    i.pmu_get_isr_state                      0x10016bf0   Section        0  driver_pmu.o(i.pmu_get_isr_state)
    i.pmu_gpio_isr                           0x10016c00   Section        0  driver_pmu.o(i.pmu_gpio_isr)
    i.pmu_lvd_en                             0x10016c02   Section        0  driver_pmu.o(i.pmu_lvd_en)
    i.pmu_reset_internal_cnt                 0x10016c94   Section        0  driver_pmu.o(i.pmu_reset_internal_cnt)
    i.pmu_sub_init                           0x10016cc8   Section        0  driver_pmu.o(i.pmu_sub_init)
    i.prf_add_profile                        0x10017028   Section        0  prf.o(i.prf_add_profile)
    i.prf_cleanup                            0x100170e8   Section        0  prf.o(i.prf_cleanup)
    i.prf_create                             0x1001713c   Section        0  prf.o(i.prf_create)
    i.prf_extract_svc_info_uuid_128          0x10017190   Section        0  prf_utils.o(i.prf_extract_svc_info_uuid_128)
    i.prf_get_task_from_id                   0x10017330   Section        0  prf.o(i.prf_get_task_from_id)
    i.prf_init                               0x1001737c   Section        0  prf.o(i.prf_init)
    i.prf_itf_get_imp                        0x10017478   Section        0  app_prf.o(i.prf_itf_get_imp)
    i.procKey                                0x100174a0   Section        0  sdl_event.o(i.procKey)
    i.procMsg                                0x100175cc   Section        0  uartupgradedev.o(i.procMsg)
    procMsg                                  0x100175cd   Thumb Code    44  uartupgradedev.o(i.procMsg)
    i.procMsg                                0x10017610   Section        0  uartcomm.o(i.procMsg)
    procMsg                                  0x10017611   Thumb Code    78  uartcomm.o(i.procMsg)
    i.procUartUpdateReq                      0x10017670   Section        0  uartupgradedev.o(i.procUartUpdateReq)
    procUartUpdateReq                        0x10017671   Thumb Code   102  uartupgradedev.o(i.procUartUpdateReq)
    i.processUpgrade                         0x10017700   Section        0  uartupgradedev.o(i.processUpgrade)
    processUpgrade                           0x10017701   Thumb Code   544  uartupgradedev.o(i.processUpgrade)
    i.processUpgrade_simple                  0x10017938   Section        0  uartupgradedev.o(i.processUpgrade_simple)
    processUpgrade_simple                    0x10017939   Thumb Code   216  uartupgradedev.o(i.processUpgrade_simple)
    i.processcmd                             0x10017a78   Section        0  dgus_cmd.o(i.processcmd)
    i.prockey                                0x10017b44   Section        0  main.o(i.prockey)
    prockey                                  0x10017b45   Thumb Code   242  main.o(i.prockey)
    i.prockey                                0x10017c6c   Section        0  hot.o(i.prockey)
    prockey                                  0x10017c6d   Thumb Code   200  hot.o(i.prockey)
    i.progress_proc                          0x10017d48   Section        0  progress.o(i.progress_proc)
    i.progress_set_value                     0x10018058   Section        0  progress.o(i.progress_set_value)
    i.proj_init                              0x10018088   Section        0  proj_main.o(i.proj_init)
    i.psram_controller_init                  0x100180d4   Section        0  driver_psram.o(i.psram_controller_init)
    psram_controller_init                    0x100180d5   Thumb Code   258  driver_psram.o(i.psram_controller_init)
    i.psram_enter_quad                       0x100181dc   Section        0  driver_psram.o(i.psram_enter_quad)
    i.psram_init                             0x100181f0   Section        0  driver_psram.o(i.psram_init)
    i.pwm_dac_config                         0x10018244   Section        0  driver_pwm.o(i.pwm_dac_config)
    i.pwm_output_enable                      0x100182b8   Section        0  driver_pwm.o(i.pwm_output_enable)
    i.qsSh4w5pnRqMCb                         0x100182e0   Section        0  md5.o(i.qsSh4w5pnRqMCb)
    i.qsSh4w5pnRqMCj                         0x1001833a   Section        0  md5.o(i.qsSh4w5pnRqMCj)
    i.qspi0_cfg_set_cpha                     0x100183c8   Section        0  driver_psram.o(i.qspi0_cfg_set_cpha)
    i.qspi0_cfg_set_cpol                     0x100183dc   Section        0  driver_psram.o(i.qspi0_cfg_set_cpol)
    i.qspi0_cfg_set_enable                   0x100183f0   Section        0  driver_psram.o(i.qspi0_cfg_set_enable)
    i.qspi0_cfg_set_enable_AHB_decoder       0x10018404   Section        0  driver_psram.o(i.qspi0_cfg_set_enable_AHB_decoder)
    i.qspi0_cfg_set_enable_dac               0x10018418   Section        0  driver_psram.o(i.qspi0_cfg_set_enable_dac)
    i.qspi0_cfg_set_enable_legacy            0x1001842c   Section        0  driver_psram.o(i.qspi0_cfg_set_enable_legacy)
    i.qspi0_cfg_set_enable_remap             0x10018440   Section        0  driver_psram.o(i.qspi0_cfg_set_enable_remap)
    i.qspi0_is_busy                          0x10018454   Section        0  driver_psram.o(i.qspi0_is_busy)
    i.qspi0_poll_set_disable                 0x10018464   Section        0  driver_psram.o(i.qspi0_poll_set_disable)
    i.qspi0_read_set_address_type            0x10018478   Section        0  driver_psram.o(i.qspi0_read_set_address_type)
    i.qspi0_read_set_data_type               0x1001848c   Section        0  driver_psram.o(i.qspi0_read_set_data_type)
    i.qspi0_read_set_dummy_cycles            0x100184a0   Section        0  driver_psram.o(i.qspi0_read_set_dummy_cycles)
    i.qspi0_read_set_instruction_type        0x100184b4   Section        0  driver_psram.o(i.qspi0_read_set_instruction_type)
    i.qspi0_read_set_mode_en                 0x100184c8   Section        0  driver_psram.o(i.qspi0_read_set_mode_en)
    i.qspi0_read_set_opcode                  0x100184dc   Section        0  driver_psram.o(i.qspi0_read_set_opcode)
    i.qspi0_stig_cmd                         0x100184f0   Section        0  driver_psram.o(i.qspi0_stig_cmd)
    qspi0_stig_cmd                           0x100184f1   Thumb Code   730  driver_psram.o(i.qspi0_stig_cmd)
    i.qspi0_write_set_address_type           0x100187d0   Section        0  driver_psram.o(i.qspi0_write_set_address_type)
    i.qspi0_write_set_data_type              0x100187e4   Section        0  driver_psram.o(i.qspi0_write_set_data_type)
    i.qspi0_write_set_dummy_cycles           0x100187f8   Section        0  driver_psram.o(i.qspi0_write_set_dummy_cycles)
    i.qspi0_write_set_opcode                 0x1001880c   Section        0  driver_psram.o(i.qspi0_write_set_opcode)
    i.qspi0_write_set_wel_dis                0x10018820   Section        0  driver_psram.o(i.qspi0_write_set_wel_dis)
    i.readDataCmd                            0x10018834   Section        0  ic_w25qxx.o(i.readDataCmd)
    i.readKey                                0x10018880   Section        0  sdl_event.o(i.readKey)
    i.resource_load_string                   0x10018894   Section        0  resource.o(i.resource_load_string)
    i.rwble_hl_init_imp                      0x10018902   Section        0  rwble_hl.o(i.rwble_hl_init_imp)
    i.rwble_hl_reset                         0x10018920   Section        0  rwble_hl.o(i.rwble_hl_reset)
    i.show_reg                               0x10018940   Section        0  simple_gatt_service.o(i.show_reg)
    i.simple_peripheral_init                 0x10018978   Section        0  ble_simple_peripheral.o(i.simple_peripheral_init)
    i.smpc_ShiftLeft1Bit16ByteNum            0x10018a5c   Section        0  smpc_crypto.o(i.smpc_ShiftLeft1Bit16ByteNum)
    i.smpc_XOR_16_Byte_Array                 0x10018a80   Section        0  smpc_crypto.o(i.smpc_XOR_16_Byte_Array)
    i.smpc_aes_cmac_complete                 0x10018a98   Section        0  smpc_crypto.o(i.smpc_aes_cmac_complete)
    i.smpc_aes_cmac_continue                 0x10018ae0   Section        0  smpc_crypto.o(i.smpc_aes_cmac_continue)
    i.smpc_aes_cmac_init                     0x10018c30   Section        0  smpc_crypto.o(i.smpc_aes_cmac_init)
    i.smpc_calc_confirm_cont                 0x10018c7c   Section        0  smpc_api.o(i.smpc_calc_confirm_cont)
    i.smpc_calc_subkeys                      0x100191cc   Section        0  smpc.o(i.smpc_calc_subkeys)
    i.smpc_check_key_distrib                 0x10019250   Section        0  smpc.o(i.smpc_check_key_distrib)
    i.smpc_check_max_key_size                0x100192d0   Section        0  smpc.o(i.smpc_check_max_key_size)
    i.smpc_check_pairing_feat                0x100192fc   Section        0  smpc.o(i.smpc_check_pairing_feat)
    i.smpc_check_param                       0x10019320   Section        0  smpc_util.o(i.smpc_check_param)
    i.smpc_check_repeated_attempts           0x100193a4   Section        0  smpc.o(i.smpc_check_repeated_attempts)
    i.smpc_clear_timeout_timer               0x10019408   Section        0  smpc.o(i.smpc_clear_timeout_timer)
    i.smpc_confirm_gen_rand                  0x1001943c   Section        0  smpc_api.o(i.smpc_confirm_gen_rand)
    i.smpc_construcpublic_key_t_pdu          0x10019684   Section        0  smpc_util.o(i.smpc_construcpublic_key_t_pdu)
    smpc_construcpublic_key_t_pdu            0x10019685   Thumb Code    30  smpc_util.o(i.smpc_construcpublic_key_t_pdu)
    i.smpc_construct_dhkey_check_pdu         0x100196a2   Section        0  smpc_util.o(i.smpc_construct_dhkey_check_pdu)
    smpc_construct_dhkey_check_pdu           0x100196a3   Thumb Code     8  smpc_util.o(i.smpc_construct_dhkey_check_pdu)
    i.smpc_construct_enc_info_pdu            0x100196aa   Section        0  smpc_util.o(i.smpc_construct_enc_info_pdu)
    smpc_construct_enc_info_pdu              0x100196ab   Thumb Code     8  smpc_util.o(i.smpc_construct_enc_info_pdu)
    i.smpc_construct_id_addr_info_pdu        0x100196b2   Section        0  smpc_util.o(i.smpc_construct_id_addr_info_pdu)
    smpc_construct_id_addr_info_pdu          0x100196b3   Thumb Code    30  smpc_util.o(i.smpc_construct_id_addr_info_pdu)
    i.smpc_construct_id_info_pdu             0x100196d0   Section        0  smpc_util.o(i.smpc_construct_id_info_pdu)
    smpc_construct_id_info_pdu               0x100196d1   Thumb Code     8  smpc_util.o(i.smpc_construct_id_info_pdu)
    i.smpc_construct_keypress_notification_pdu 0x100196d8   Section        0  smpc_util.o(i.smpc_construct_keypress_notification_pdu)
    smpc_construct_keypress_notification_pdu 0x100196d9   Thumb Code     6  smpc_util.o(i.smpc_construct_keypress_notification_pdu)
    i.smpc_construct_mst_id_pdu              0x100196de   Section        0  smpc_util.o(i.smpc_construct_mst_id_pdu)
    smpc_construct_mst_id_pdu                0x100196df   Thumb Code    18  smpc_util.o(i.smpc_construct_mst_id_pdu)
    i.smpc_construct_pair_cfm_pdu            0x100196f0   Section        0  smpc_util.o(i.smpc_construct_pair_cfm_pdu)
    smpc_construct_pair_cfm_pdu              0x100196f1   Thumb Code     8  smpc_util.o(i.smpc_construct_pair_cfm_pdu)
    i.smpc_construct_pair_fail_pdu           0x100196f8   Section        0  smpc_util.o(i.smpc_construct_pair_fail_pdu)
    smpc_construct_pair_fail_pdu             0x100196f9   Thumb Code     6  smpc_util.o(i.smpc_construct_pair_fail_pdu)
    i.smpc_construct_pair_rand_pdu           0x100196fe   Section        0  smpc_util.o(i.smpc_construct_pair_rand_pdu)
    smpc_construct_pair_rand_pdu             0x100196ff   Thumb Code     8  smpc_util.o(i.smpc_construct_pair_rand_pdu)
    i.smpc_construct_pair_req_pdu            0x10019706   Section        0  smpc_util.o(i.smpc_construct_pair_req_pdu)
    smpc_construct_pair_req_pdu              0x10019707   Thumb Code    12  smpc_util.o(i.smpc_construct_pair_req_pdu)
    i.smpc_construct_pair_rsp_pdu            0x10019712   Section        0  smpc_util.o(i.smpc_construct_pair_rsp_pdu)
    smpc_construct_pair_rsp_pdu              0x10019713   Thumb Code    12  smpc_util.o(i.smpc_construct_pair_rsp_pdu)
    i.smpc_construct_sec_req_pdu             0x1001971e   Section        0  smpc_util.o(i.smpc_construct_sec_req_pdu)
    smpc_construct_sec_req_pdu               0x1001971f   Thumb Code     6  smpc_util.o(i.smpc_construct_sec_req_pdu)
    i.smpc_construct_sign_info_pdu           0x10019724   Section        0  smpc_util.o(i.smpc_construct_sign_info_pdu)
    smpc_construct_sign_info_pdu             0x10019725   Thumb Code     8  smpc_util.o(i.smpc_construct_sign_info_pdu)
    i.smpc_encrypt_cfm                       0x1001972c   Section        0  smpc_api.o(i.smpc_encrypt_cfm)
    i.smpc_encrypt_start                     0x10019764   Section        0  smpc_api.o(i.smpc_encrypt_start)
    i.smpc_encrypt_start_handler             0x1001978a   Section        0  smpc_api.o(i.smpc_encrypt_start_handler)
    i.smpc_f4_Init                           0x100197c4   Section        0  smpc_crypto.o(i.smpc_f4_Init)
    i.smpc_f4_complete                       0x10019820   Section        0  smpc_crypto.o(i.smpc_f4_complete)
    i.smpc_f5_complete                       0x10019858   Section        0  smpc_crypto.o(i.smpc_f5_complete)
    i.smpc_f5_init                           0x10019890   Section        0  smpc_crypto.o(i.smpc_f5_init)
    i.smpc_f6_complete                       0x10019940   Section        0  smpc_crypto.o(i.smpc_f6_complete)
    i.smpc_f6_init                           0x10019978   Section        0  smpc_crypto.o(i.smpc_f6_init)
    i.smpc_g2_complete                       0x10019a14   Section        0  smpc_crypto.o(i.smpc_g2_complete)
    i.smpc_g2_init                           0x10019a4c   Section        0  smpc_crypto.o(i.smpc_g2_init)
    i.smpc_generate_cfm                      0x10019ab4   Section        0  smpc.o(i.smpc_generate_cfm)
    i.smpc_generate_ci                       0x10019b34   Section        0  smpc.o(i.smpc_generate_ci)
    i.smpc_generate_e1                       0x10019ba8   Section        0  smpc.o(i.smpc_generate_e1)
    i.smpc_generate_l                        0x10019c60   Section        0  smpc.o(i.smpc_generate_l)
    i.smpc_generate_rand                     0x10019cb8   Section        0  smpc.o(i.smpc_generate_rand)
    i.smpc_generate_stk                      0x10019ce8   Section        0  smpc.o(i.smpc_generate_stk)
    i.smpc_get_key_sec_prop                  0x10019d38   Section        0  smpc.o(i.smpc_get_key_sec_prop)
    i.smpc_get_next_passkey_bit              0x10019e40   Section        0  smpc.o(i.smpc_get_next_passkey_bit)
    i.smpc_handle_dh_key_check_complete      0x10019e70   Section        0  smpc.o(i.smpc_handle_dh_key_check_complete)
    i.smpc_handle_enc_change_evt             0x10019eb0   Section        0  smpc.o(i.smpc_handle_enc_change_evt)
    i.smpc_init_mac_key_calculation          0x10019fe8   Section        0  smpc.o(i.smpc_init_mac_key_calculation)
    i.smpc_initiate_dhkey_check              0x1001a090   Section        0  smpc.o(i.smpc_initiate_dhkey_check)
    i.smpc_initiate_dhkey_verification       0x1001a164   Section        0  smpc.o(i.smpc_initiate_dhkey_verification)
    i.smpc_is_sec_mode_reached               0x1001a238   Section        0  smpc.o(i.smpc_is_sec_mode_reached)
    i.smpc_key_press_notification_ind        0x1001a264   Section        0  smpc_api.o(i.smpc_key_press_notification_ind)
    i.smpc_launch_rep_att_timer              0x1001a28c   Section        0  smpc.o(i.smpc_launch_rep_att_timer)
    i.smpc_pairing_csrk_exch                 0x1001a2d8   Section        0  smpc_api.o(i.smpc_pairing_csrk_exch)
    i.smpc_pairing_end                       0x1001a324   Section        0  smpc.o(i.smpc_pairing_end)
    i.smpc_pairing_irk_exch                  0x1001a384   Section        0  smpc_api.o(i.smpc_pairing_irk_exch)
    i.smpc_pairing_ltk_exch                  0x1001a3cc   Section        0  smpc_api.o(i.smpc_pairing_ltk_exch)
    i.smpc_pairing_nc_exch                   0x1001a438   Section        0  smpc_api.o(i.smpc_pairing_nc_exch)
    i.smpc_pairing_oob_exch                  0x1001a490   Section        0  smpc_api.o(i.smpc_pairing_oob_exch)
    i.smpc_pairing_req_handler               0x1001a558   Section        0  smpc_api.o(i.smpc_pairing_req_handler)
    i.smpc_pairing_rsp                       0x1001a598   Section        0  smpc_api.o(i.smpc_pairing_rsp)
    i.smpc_pairing_start                     0x1001a6d0   Section        0  smpc_api.o(i.smpc_pairing_start)
    i.smpc_pairing_tk_exch                   0x1001a77c   Section        0  smpc_api.o(i.smpc_pairing_tk_exch)
    i.smpc_pdu_recv                          0x1001a874   Section        0  smpc.o(i.smpc_pdu_recv)
    i.smpc_pdu_send                          0x1001a8cc   Section        0  smpc.o(i.smpc_pdu_send)
    i.smpc_process_aes_cmac                  0x1001a95c   Section        0  smpc_crypto.o(i.smpc_process_aes_cmac)
    i.smpc_recv_dhkey_check_pdu              0x1001a998   Section        0  smpc_util.o(i.smpc_recv_dhkey_check_pdu)
    smpc_recv_dhkey_check_pdu                0x1001a999   Thumb Code   126  smpc_util.o(i.smpc_recv_dhkey_check_pdu)
    i.smpc_recv_enc_info_pdu                 0x1001aa78   Section        0  smpc_util.o(i.smpc_recv_enc_info_pdu)
    smpc_recv_enc_info_pdu                   0x1001aa79   Thumb Code    48  smpc_util.o(i.smpc_recv_enc_info_pdu)
    i.smpc_recv_id_addr_info_pdu             0x1001aaac   Section        0  smpc_util.o(i.smpc_recv_id_addr_info_pdu)
    smpc_recv_id_addr_info_pdu               0x1001aaad   Thumb Code    74  smpc_util.o(i.smpc_recv_id_addr_info_pdu)
    i.smpc_recv_id_info_pdu                  0x1001aafc   Section        0  smpc_util.o(i.smpc_recv_id_info_pdu)
    smpc_recv_id_info_pdu                    0x1001aafd   Thumb Code    48  smpc_util.o(i.smpc_recv_id_info_pdu)
    i.smpc_recv_keypress_notification_pdu    0x1001ab30   Section        0  smpc_util.o(i.smpc_recv_keypress_notification_pdu)
    smpc_recv_keypress_notification_pdu      0x1001ab31   Thumb Code   100  smpc_util.o(i.smpc_recv_keypress_notification_pdu)
    i.smpc_recv_mst_id_pdu                   0x1001ac00   Section        0  smpc_util.o(i.smpc_recv_mst_id_pdu)
    smpc_recv_mst_id_pdu                     0x1001ac01   Thumb Code    84  smpc_util.o(i.smpc_recv_mst_id_pdu)
    i.smpc_recv_pair_cfm_pdu                 0x1001ac58   Section        0  smpc_util.o(i.smpc_recv_pair_cfm_pdu)
    smpc_recv_pair_cfm_pdu                   0x1001ac59   Thumb Code   240  smpc_util.o(i.smpc_recv_pair_cfm_pdu)
    i.smpc_recv_pair_fail_pdu                0x1001ad4c   Section        0  smpc_util.o(i.smpc_recv_pair_fail_pdu)
    smpc_recv_pair_fail_pdu                  0x1001ad4d   Thumb Code    58  smpc_util.o(i.smpc_recv_pair_fail_pdu)
    i.smpc_recv_pair_rand_pdu                0x1001ad8c   Section        0  smpc_util.o(i.smpc_recv_pair_rand_pdu)
    smpc_recv_pair_rand_pdu                  0x1001ad8d   Thumb Code   496  smpc_util.o(i.smpc_recv_pair_rand_pdu)
    i.smpc_recv_pair_req_pdu                 0x1001af80   Section        0  smpc_util.o(i.smpc_recv_pair_req_pdu)
    smpc_recv_pair_req_pdu                   0x1001af81   Thumb Code   162  smpc_util.o(i.smpc_recv_pair_req_pdu)
    i.smpc_recv_pair_rsp_pdu                 0x1001b028   Section        0  smpc_util.o(i.smpc_recv_pair_rsp_pdu)
    smpc_recv_pair_rsp_pdu                   0x1001b029   Thumb Code   292  smpc_util.o(i.smpc_recv_pair_rsp_pdu)
    i.smpc_recv_public_key_pdu               0x1001b150   Section        0  smpc_util.o(i.smpc_recv_public_key_pdu)
    smpc_recv_public_key_pdu                 0x1001b151   Thumb Code   210  smpc_util.o(i.smpc_recv_public_key_pdu)
    i.smpc_recv_sec_req_pdu                  0x1001b284   Section        0  smpc_util.o(i.smpc_recv_sec_req_pdu)
    smpc_recv_sec_req_pdu                    0x1001b285   Thumb Code   124  smpc_util.o(i.smpc_recv_sec_req_pdu)
    i.smpc_recv_sign_info_pdu                0x1001b304   Section        0  smpc_util.o(i.smpc_recv_sign_info_pdu)
    smpc_recv_sign_info_pdu                  0x1001b305   Thumb Code    48  smpc_util.o(i.smpc_recv_sign_info_pdu)
    i.smpc_secure_connections_enabled        0x1001b338   Section        0  smpc.o(i.smpc_secure_connections_enabled)
    i.smpc_security_req_send                 0x1001b348   Section        0  smpc_api.o(i.smpc_security_req_send)
    i.smpc_send_gen_dh_key_cmd               0x1001b39c   Section        0  smpc.o(i.smpc_send_gen_dh_key_cmd)
    i.smpc_send_ltk_req_rsp                  0x1001b3dc   Section        0  smpc.o(i.smpc_send_ltk_req_rsp)
    i.smpc_send_pairing_ind                  0x1001b454   Section        0  smpc.o(i.smpc_send_pairing_ind)
    i.smpc_send_pairing_req_ind              0x1001b504   Section        0  smpc.o(i.smpc_send_pairing_req_ind)
    i.smpc_send_start_enc_cmd                0x1001b604   Section        0  smpc.o(i.smpc_send_start_enc_cmd)
    i.smpc_send_use_enc_block_cmd            0x1001b68c   Section        0  smpc.o(i.smpc_send_use_enc_block_cmd)
    i.smpc_sign_command                      0x1001b6cc   Section        0  smpc_api.o(i.smpc_sign_command)
    i.smpc_sign_cont                         0x1001b7b4   Section        0  smpc_api.o(i.smpc_sign_cont)
    i.smpc_tkdp_rcp_continue                 0x1001b98c   Section        0  smpc.o(i.smpc_tkdp_rcp_continue)
    i.smpc_tkdp_rcp_start                    0x1001ba50   Section        0  smpc.o(i.smpc_tkdp_rcp_start)
    i.smpc_tkdp_send_continue                0x1001ba80   Section        0  smpc.o(i.smpc_tkdp_send_continue)
    i.smpc_tkdp_send_start                   0x1001bb64   Section        0  smpc.o(i.smpc_tkdp_send_start)
    i.smpc_xor                               0x1001bb94   Section        0  smpc.o(i.smpc_xor)
    i.sp_gatt_add_service                    0x1001bbac   Section        0  simple_gatt_service.o(i.sp_gatt_add_service)
    i.sp_gatt_msg_handler                    0x1001bbd8   Section        0  simple_gatt_service.o(i.sp_gatt_msg_handler)
    sp_gatt_msg_handler                      0x1001bbd9   Thumb Code   266  simple_gatt_service.o(i.sp_gatt_msg_handler)
    i.sp_start_adv                           0x1001bd90   Section        0  ble_simple_peripheral.o(i.sp_start_adv)
    sp_start_adv                             0x1001bd91   Thumb Code    92  ble_simple_peripheral.o(i.sp_start_adv)
    i.spi_master_MultWireConfig              0x1001be34   Section        0  driver_spi_master.o(i.spi_master_MultWireConfig)
    i.spi_master_init                        0x1001c01c   Section        0  driver_spi_master.o(i.spi_master_init)
    i.spi_master_readflash_X1                0x1001c0b4   Section        0  driver_spi_master.o(i.spi_master_readflash_X1)
    i.spi_master_receive_X1                  0x1001c16c   Section        0  driver_spi_master.o(i.spi_master_receive_X1)
    i.spi_master_transmit_X1                 0x1001c1f2   Section        0  driver_spi_master.o(i.spi_master_transmit_X1)
    i.spi_master_transmit_X2X4               0x1001c258   Section        0  driver_spi_master.o(i.spi_master_transmit_X2X4)
    i.spim0_isr                              0x1001c2c0   Section        0  driver_rm69330.o(i.spim0_isr)
    i.st77903_init                           0x1001c2cc   Section        0  driver_rm69330.o(i.st77903_init)
    i.st77903_init_dma                       0x1001c314   Section        0  driver_rm69330.o(i.st77903_init_dma)
    st77903_init_dma                         0x1001c315   Thumb Code    80  driver_rm69330.o(i.st77903_init_dma)
    i.st77903_init_io                        0x1001c370   Section        0  driver_rm69330.o(i.st77903_init_io)
    i.st77903_init_spi                       0x1001c400   Section        0  driver_rm69330.o(i.st77903_init_spi)
    st77903_init_spi                         0x1001c401   Thumb Code   116  driver_rm69330.o(i.st77903_init_spi)
    i.system_get_clock                       0x1001c480   Section        0  sys_utisl.o(i.system_get_clock)
    i.system_get_unique_ID                   0x1001c484   Section        0  sys_utisl.o(i.system_get_unique_ID)
    i.system_set_clock                       0x1001c550   Section        0  sys_utisl.o(i.system_set_clock)
    i.system_set_port_pull                   0x1001c560   Section        0  sys_utisl.o(i.system_set_port_pull)
    i.system_set_tx_power                    0x1001c594   Section        0  sys_utisl.o(i.system_set_tx_power)
    i.system_sleep_disable                   0x1001c650   Section        0  sys_utisl.o(i.system_sleep_disable)
    i.t_sprint                               0x1001c658   Section        0  numtext.o(i.t_sprint)
    i.timer0_isr                             0x1001c6a8   Section        0  gui_main.o(i.timer0_isr)
    i.timer1_isr                             0x1001c6c8   Section        0  driver_rm69330.o(i.timer1_isr)
    i.timer_init                             0x1001c7dc   Section        0  driver_timer.o(i.timer_init)
    i.timer_int_clear                        0x1001c7f0   Section        0  driver_timer.o(i.timer_int_clear)
    i.timer_start                            0x1001c7f6   Section        0  driver_timer.o(i.timer_start)
    i.trng_flow_w_specific_smp_cnt           0x1001c800   Section        0  trng.o(i.trng_flow_w_specific_smp_cnt)
    trng_flow_w_specific_smp_cnt             0x1001c801   Thumb Code   166  trng.o(i.trng_flow_w_specific_smp_cnt)
    i.trng_init                              0x1001c8ac   Section        0  trng.o(i.trng_init)
    i.trng_read_rand_num                     0x1001c8b0   Section        0  trng.o(i.trng_read_rand_num)
    i.uart1_isr_int                          0x1001c908   Section        0  uartcomm.o(i.uart1_isr_int)
    i.uart_config_baudRate                   0x1001c920   Section        0  driver_uart_ex.o(i.uart_config_baudRate)
    i.uart_init_ex                           0x1001c9e4   Section        0  driver_uart_ex.o(i.uart_init_ex)
    i.uart_isr_int                           0x1001ca74   Section        0  uartupgradedev.o(i.uart_isr_int)
    i.uart_receive_IT                        0x1001ca8a   Section        0  driver_uart_ex.o(i.uart_receive_IT)
    i.uart_transmit                          0x1001caac   Section        0  driver_uart_ex.o(i.uart_transmit)
    i.ui_hot_on_animation_play_end           0x1001cade   Section        0  hot.o(i.ui_hot_on_animation_play_end)
    i.ui_hot_on_button_touch_event           0x1001cae0   Section        0  hot.o(i.ui_hot_on_button_touch_event)
    i.ui_hot_on_page_open                    0x1001cae4   Section        0  hot.o(i.ui_hot_on_page_open)
    i.ui_hot_on_progress_changed             0x1001cb40   Section        0  hot.o(i.ui_hot_on_progress_changed)
    i.ui_hot_on_timer                        0x1001cb44   Section        0  hot.o(i.ui_hot_on_timer)
    i.ui_logo_on_animation_play_end          0x1001cb54   Section        0  logo.o(i.ui_logo_on_animation_play_end)
    i.ui_logo_on_button_touch_event          0x1001cb5a   Section        0  logo.o(i.ui_logo_on_button_touch_event)
    i.ui_logo_on_page_open                   0x1001cb5c   Section        0  logo.o(i.ui_logo_on_page_open)
    i.ui_logo_on_progress_changed            0x1001cb5e   Section        0  logo.o(i.ui_logo_on_progress_changed)
    i.ui_logo_on_timer                       0x1001cb60   Section        0  logo.o(i.ui_logo_on_timer)
    i.ui_main_on_animation_play_end          0x1001cb62   Section        0  main.o(i.ui_main_on_animation_play_end)
    i.ui_main_on_button_touch_event          0x1001cb64   Section        0  main.o(i.ui_main_on_button_touch_event)
    i.ui_main_on_page_open                   0x1001cb68   Section        0  main.o(i.ui_main_on_page_open)
    i.ui_main_on_progress_changed            0x1001cbfc   Section        0  main.o(i.ui_main_on_progress_changed)
    i.ui_main_on_timer                       0x1001cc00   Section        0  main.o(i.ui_main_on_timer)
    i.uitimer_check                          0x1001cc28   Section        0  sdl_timer.o(i.uitimer_check)
    i.uitimer_deinit                         0x1001cc58   Section        0  sdl_timer.o(i.uitimer_deinit)
    i.uitimer_init                           0x1001cc5c   Section        0  sdl_timer.o(i.uitimer_init)
    i.updateEncodeStatus                     0x1001cc88   Section        0  sdl_event.o(i.updateEncodeStatus)
    i.user_main                              0x1001ccbc   Section        0  proj_main.o(i.user_main)
    i.vTask1                                 0x1001ce1c   Section        0  proj_main.o(i.vTask1)
    i.video_deinit                           0x1001ceb8   Section        0  sdl_video.o(i.video_deinit)
    i.video_flip                             0x1001cebc   Section        0  sdl_video.o(i.video_flip)
    i.video_init                             0x1001cec8   Section        0  sdl_video.o(i.video_init)
    i.widget_draw_graph                      0x1001cefc   Section        0  widget.o(i.widget_draw_graph)
    i.widget_invalidate                      0x1001cf58   Section        0  widget.o(i.widget_invalidate)
    i.widget_is_touch_hit                    0x1001cf5c   Section        0  widget.o(i.widget_is_touch_hit)
    i.widget_proc                            0x1001cf74   Section        0  widget.o(i.widget_proc)
    i.window_set_position                    0x1001cf9c   Section        0  window.o(i.window_set_position)
    i.xmyYUhnoR49                            0x1001cff2   Section        0  zksec.o(i.xmyYUhnoR49)
    i.yh_scanDevices                         0x1001d01e   Section        0  yhcmd.o(i.yh_scanDevices)
    i.yh_sendCmd                             0x1001d048   Section        0  yhcmd.o(i.yh_sendCmd)
    i.yh_setLampValue                        0x1001d0a8   Section        0  yhcmd.o(i.yh_setLampValue)
    .constdata                               0x1001d100   Section       12  ble_simple_peripheral.o(.constdata)
    .constdata                               0x1001d10c   Section        2  simple_gatt_service.o(.constdata)
    .constdata                               0x1001d10e   Section       17  simple_gatt_service.o(.constdata)
    .constdata                               0x1001d11f   Section       17  simple_gatt_service.o(.constdata)
    .constdata                               0x1001d130   Section       17  simple_gatt_service.o(.constdata)
    .constdata                               0x1001d141   Section       17  simple_gatt_service.o(.constdata)
    .constdata                               0x1001d152   Section       17  simple_gatt_service.o(.constdata)
    .constdata                               0x1001d164   Section      504  simple_gatt_service.o(.constdata)
    .constdata                               0x1001d35c   Section       60  gui_main.o(.constdata)
    .constdata                               0x1001d398   Section       20  uartupgradedev.o(.constdata)
    .constdata                               0x1001d3ac   Section       20  uartcomm.o(.constdata)
    .constdata                               0x1001d3c0   Section       16  driver_psram.o(.constdata)
    psram_read_id_cmd                        0x1001d3c0   Data           4  driver_psram.o(.constdata)
    enter_quad_mode_cmd                      0x1001d3c4   Data           4  driver_psram.o(.constdata)
    reset_enable_cmd                         0x1001d3c8   Data           4  driver_psram.o(.constdata)
    reset_cmd                                0x1001d3cc   Data           4  driver_psram.o(.constdata)
    .constdata                               0x1001d3d0   Section        8  sdl_event.o(.constdata)
    .constdata                               0x1001d3d8   Section        8  sdl_timer.o(.constdata)
    .constdata                               0x1001d3e0   Section       60  ui_context.o(.constdata)
    .constdata                               0x1001d41c   Section        7  yhcmd.o(.constdata)
    .constdata                               0x1001d424   Section        4  app.o(.constdata)
    appm_add_svc_func_list                   0x1001d424   Data           4  app.o(.constdata)
    .constdata                               0x1001d428   Section       12  driver_flash.o(.constdata)
    .constdata                               0x1001d434   Section       50  sys_utisl.o(.constdata)
    tx_power_cfg_table                       0x1001d448   Data          30  sys_utisl.o(.constdata)
    .constdata                               0x1001d466   Section     1337  driver_rm69330.o(.constdata)
    .constdata                               0x1001d9a0   Section      168  guicontext.o(.constdata)
    .constdata                               0x1001da48   Section      160  app_task.o(.constdata)
    appm_msg_handler_tab                     0x1001da48   Data         160  app_task.o(.constdata)
    .constdata                               0x1001dae8   Section       12  app_task.o(.constdata)
    .constdata                               0x1001daf4   Section       48  app_sec.o(.constdata)
    .constdata                               0x1001db24   Section        8  app_sec.o(.constdata)
    .constdata                               0x1001db2c   Section       88  gapm.o(.constdata)
    gapm_att_db                              0x1001db2c   Data          88  gapm.o(.constdata)
    .constdata                               0x1001db84   Section       36  gattm.o(.constdata)
    gattm_att_db                             0x1001db88   Data          32  gattm.o(.constdata)
    .constdata                               0x1001dba8   Section       56  l2cc_task.o(.constdata)
    l2cc_msg_handler_tab                     0x1001dba8   Data          56  l2cc_task.o(.constdata)
    .constdata                               0x1001dbe0   Section       12  l2cc_task.o(.constdata)
    .constdata                               0x1001dbec   Section      304  gapc_task.o(.constdata)
    gapc_msg_handler_tab                     0x1001dbec   Data         304  gapc_task.o(.constdata)
    .constdata                               0x1001dd1c   Section       12  gapc_task.o(.constdata)
    .constdata                               0x1001dd28   Section      512  gapm_task.o(.constdata)
    gapm_hci_cmd_cmp_event_handler_tab       0x1001dd28   Data         408  gapm_task.o(.constdata)
    gapm_hci_cmd_stat_event_handler_tab      0x1001dec0   Data          24  gapm_task.o(.constdata)
    gapm_hci_le_event_handler_tab            0x1001ded8   Data          80  gapm_task.o(.constdata)
    .constdata                               0x1001df28   Section      248  gapm_task.o(.constdata)
    gapm_msg_handler_tab                     0x1001df28   Data         248  gapm_task.o(.constdata)
    .constdata                               0x1001e020   Section       12  gapm_task.o(.constdata)
    .constdata                               0x1001e02c   Section       25  smpc.o(.constdata)
    smpc_pair_method                         0x1001e02c   Data          25  smpc.o(.constdata)
    .constdata                               0x1001e048   Section      140  atts.o(.constdata)
    atts_rights                              0x1001e048   Data          36  atts.o(.constdata)
    .constdata                               0x1001e0d4   Section      224  gattc_task.o(.constdata)
    gattc_msg_handler_tab                    0x1001e0d4   Data         224  gattc_task.o(.constdata)
    .constdata                               0x1001e1b4   Section       12  gattc_task.o(.constdata)
