Component: ARM Compiler 5.06 update 6 (build 750) Tool: armlink [4d35ed]

==============================================================================

Section Cross References

    proj_main.o(i.proj_ble_gap_evt_func) refers to co_log.o(i.log_printf_level) for log_printf_level
    proj_main.o(i.proj_ble_gap_evt_func) refers to co_log.o(i.log_printf) for log_printf
    proj_main.o(i.proj_ble_gap_evt_func) refers to gap_api.o(i.gap_get_connect_num) for gap_get_connect_num
    proj_main.o(i.proj_ble_gap_evt_func) refers to gap_api.o(i.gap_conn_param_update) for gap_conn_param_update
    proj_main.o(i.proj_ble_gap_evt_func) refers to gap_api.o(i.gap_security_req) for gap_security_req
    proj_main.o(i.proj_ble_gap_evt_func) refers to gap_api.o(i.gap_start_advertising) for gap_start_advertising
    proj_main.o(i.proj_ble_gap_evt_func) refers to proj_main.o(.data) for .data
    proj_main.o(i.proj_init) refers to co_log.o(i.log_printf_level) for log_printf_level
    proj_main.o(i.proj_init) refers to co_log.o(i.log_printf) for log_printf
    proj_main.o(i.proj_init) refers to ble_simple_peripheral.o(i.simple_peripheral_init) for simple_peripheral_init
    proj_main.o(i.proj_init) refers to proj_main.o(.data) for .data
    proj_main.o(i.user_main) refers to printfa.o(i.__0printf) for __2printf
    proj_main.o(i.user_main) refers to co_log.o(i.log_init) for log_init
    proj_main.o(i.user_main) refers to driver_pmu.o(i.pmu_sub_init) for pmu_sub_init
    proj_main.o(i.user_main) refers to driver_pmu.o(ram_code) for pmu_ioldosw_ctrl
    proj_main.o(i.user_main) refers to co_log.o(i.log_printf_level) for log_printf_level
    proj_main.o(i.user_main) refers to co_log.o(i.log_printf) for log_printf
    proj_main.o(i.user_main) refers to sys_utisl.o(i.system_set_clock) for system_set_clock
==============================================================================

Removing Unused input sections from the image.

    Removing proj_main.o(.rev16_text), (4 bytes).
    Removing proj_main.o(.revsh_text), (4 bytes).
    Removing proj_main.o(.rrx_text), (6 bytes).
    Removing proj_main.o(i.proj_ble_gap_evt_func), (896 bytes).
    Removing proj_main.o(.data), (1 bytes).
    Removing prf_client.o(i.client_msg_handler), (180 bytes).
    Removing prf_client.o(i.prf_client_create), (40 bytes).
    Removing prf_client.o(.constdata), (34 bytes).
    Removing prf_client.o(.data), (1 bytes).
    Removing prf_server.o(.rev16_text), (4 bytes).
    Removing prf_server.o(.revsh_text), (4 bytes).
    Removing prf_server.o(.rrx_text), (6 bytes).
    Removing prf_server.o(i.prf_server_create), (68 bytes).
    Removing prf_server.o(i.svc1_msg_handler), (36 bytes).
    Removing prf_server.o(i.svc_msg_handler), (192 bytes).
    Removing prf_server.o(.bss), (20 bytes).
    Removing prf_server.o(.constdata), (17 bytes).
    Removing prf_server.o(.constdata), (336 bytes).
==============================================================================

Adding Veneers to the image

    Adding TT veneer (10 bytes, Long) for call to 'eqr4EzQ9' from zksec.o(i.FyG6GBeJ0lVg).
    Adding TT veneer (10 bytes, Long) for call to 'memcmp' from zksec.o(i.FyG6GBeJ0lVg).
    Adding TT veneer (10 bytes, Long) for call to 'co_delay_10us' from uartupgradedev.o(i.HAL_Delay).
    Adding TT veneer (10 bytes, Long) for call to '__aeabi_memclr' from ring.o(i.InitQueue).
    Adding TT veneer (10 bytes, Long) for call to 'CPU_SR_Save' from zksec.o(i.RRnQEZ5CzfNbBxz).
    Adding TT veneer (10 bytes, Long) for call to 'qspi_stig_cmd' from zksec.o(i.RRnQEZ5CzfNbBxz).
    Adding TT veneer (10 bytes, Long) for call to 'CPU_SR_Restore' from zksec.o(i.RRnQEZ5CzfNbBxz).
    Adding TT veneer (10 bytes, Long) for call to 'flash_read_id' from zksec.o(i.RRnQEZ5CzfNbBxz).
    Adding TT veneer (10 bytes, Long) for call to '__aeabi_memcpy4' from guicontext.o(i._do_widget_proc).
    Adding TT veneer (10 bytes, Long) for call to 'rect_is_hit' from label.o(i._draw_font_graph).
    Adding TT veneer (10 bytes, Long) for call to 'resource_read' from label.o(i._get_code_data_offset).
    Adding TT veneer (10 bytes, Long) for call to '__aeabi_memclr4' from guicontext.o(i._load_page).
    Adding TT veneer (10 bytes, Long) for call to '__aeabi_memcpy' from guicontext.o(i._proc_widget_refresh).
    Adding TT veneer (10 bytes, Long) for call to 'ke_state_set' from app_proj_event.o(i.app_act_created_ind_func).
    Adding TT veneer (10 bytes, Long) for call to 'system_set_port_mux' from entry.o(i.app_main).
    Adding TT veneer (10 bytes, Long) for call to 'app_boot_get_storage_type' from entry.o(i.app_main).
    Adding TT veneer (10 bytes, Long) for call to 'flash_read_status' from entry.o(i.app_main).
    Adding TT veneer (10 bytes, Long) for call to 'flash_write_status' from entry.o(i.app_main).
    Adding TT veneer (10 bytes, Long) for call to 'pmu_set_ioldo_ref_sel' from entry.o(i.app_main).
    Adding TT veneer (10 bytes, Long) for call to 'co_delay_100us' from entry.o(i.app_main).
    Adding TT veneer (10 bytes, Long) for call to 'intc_init' from entry.o(i.app_main).
    Adding TT veneer (10 bytes, Long) for call to 'srand' from entry.o(i.app_main).
    Adding TT veneer (10 bytes, Long) for call to 'ke_free' from app.o(i.appm_adv_recv_gapm_cmp).
    Adding TT veneer (10 bytes, Long) for call to 'ke_msg_alloc' from app.o(i.appm_create_aux_adv_act).
    Adding TT veneer (10 bytes, Long) for call to 'ke_msg_send' from app.o(i.appm_create_aux_adv_act).
    Adding TT veneer (10 bytes, Long) for call to 'co_list_pop_front' from app.o(i.appm_exc_activity_cmp).
    Adding TT veneer (10 bytes, Long) for call to 'ke_malloc' from app.o(i.appm_execute_activity_cmd).
    Adding TT veneer (10 bytes, Long) for call to 'co_list_push_back' from app.o(i.appm_execute_activity_cmd).
    Adding TT veneer (10 bytes, Long) for call to 'co_list_init' from app.o(i.appm_init_imp).
    Adding TT veneer (10 bytes, Long) for call to 'ke_task_create' from app.o(i.appm_init_imp).
    Adding TT veneer (10 bytes, Long) for call to 'ke_timer_clear' from attc.o(i.attc_l2cc_pdu_recv_handler).
    Adding TT veneer (10 bytes, Long) for call to 'ke_timer_set' from attc.o(i.attc_send_att_req).
    Adding TT veneer (10 bytes, Long) for call to 'ke_msg_free' from attc.o(i.attc_send_read_ind).
    Adding TT veneer (10 bytes, Long) for call to 'co_list_size' from atts.o(i.atts_find_by_type_req).
    Adding TT veneer (10 bytes, Long) for call to 'ke_state_get' from atts.o(i.atts_l2cc_pdu_recv_handler).
    Adding TT veneer (10 bytes, Long) for call to 'co_list_push_front' from atts.o(i.atts_prepare_write_req).
    Adding TT veneer (10 bytes, Long) for call to 'co_list_insert_before' from atts.o(i.atts_store_prep_data).
    Adding TT veneer (10 bytes, Long) for call to 'co_printf' from user_bond_manage.o(i.ble_bond_get_info).
    Adding TT veneer (10 bytes, Long) for call to 'flash_read' from user_bond_manage.o(i.ble_bond_read_info_from_flash).
    Adding TT veneer (10 bytes, Long) for call to 'flash_erase' from user_bond_manage.o(i.ble_bond_write_info_to_flash).
    Adding TT veneer (10 bytes, Long) for call to 'flash_write' from user_bond_manage.o(i.ble_bond_write_info_to_flash).
    Adding TT veneer (10 bytes, Long) for call to 'em_ble_generate_base_address_table' from jump_table_host.o(i.ble_stack_configure).
    Adding TT veneer (10 bytes, Long) for call to 'ble_util_buf_init_env' from jump_table_host.o(i.ble_stack_configure).
    Adding TT veneer (10 bytes, Long) for call to 'llm_init_act_info_buf' from jump_table_host.o(i.ble_stack_configure).
    Adding TT veneer (10 bytes, Long) for call to 'rwip_init' from app.o(i.ble_stack_init).
    Adding TT veneer (10 bytes, Long) for call to 'GLOBAL_INT_START' from app.o(i.ble_stack_init).
    Adding TT veneer (10 bytes, Long) for call to 'rwip_schedule' from app.o(i.ble_stack_init).
    Adding TT veneer (10 bytes, Long) for call to 'aes_decrypt' from zksec.o(i.checkaes).
    Adding TT veneer (10 bytes, Long) for call to 'ble_stack_schedule_allow' from zksec.o(i.checkaes).
    Adding TT veneer (10 bytes, Long) for call to 'ble_stack_schedule' from zksec.o(i.checkaes).
    Adding TT veneer (10 bytes, Long) for call to 'ble_stack_schedule_backward' from zksec.o(i.checkaes).
    Adding TT veneer (10 bytes, Long) for call to 'rand' from app_sec.o(i.gapc_bond_req_ind_handler).
    Adding TT veneer (10 bytes, Long) for call to 'hci_send_2_controller' from gapc_task.o(i.gapc_disconnect_cmd_handler).
    Adding TT veneer (10 bytes, Long) for call to 'ke_msg_src_id_get' from gapc.o(i.gapc_get_requester).
    Adding TT veneer (10 bytes, Long) for call to 'ke_timer_active' from gapc_task.o(i.gapc_key_press_notification_cmd_handler).
    Adding TT veneer (10 bytes, Long) for call to 'ke_msg_in_queue' from gapc.o(i.gapc_operation_cleanup).
    Adding TT veneer (10 bytes, Long) for call to 'ke_msg_forward' from gapc.o(i.gapc_reschedule_operation).
    Adding TT veneer (10 bytes, Long) for call to 'hci_basic_cmd_send_2_controller' from gapm_cfg.o(i.gapm_get_dev_info_cmd_handler).
    Adding TT veneer (10 bytes, Long) for call to 'platform_reset' from gapm_cfg.o(i.gapm_reset_cmd_handler).
    Adding TT veneer (10 bytes, Long) for call to 'aes_encrypt' from gapm_smp.o(i.gapm_smp_encrypt_req).
    Adding TT veneer (10 bytes, Long) for call to 'aes_rand' from gapm_smp.o(i.gapm_smp_rand_req).
    Adding TT veneer (10 bytes, Long) for call to 'ke_check_malloc' from gattc_task.o(i.gattc_cmp_evt_handler).
    Adding TT veneer (10 bytes, Long) for call to 'co_list_extract' from gattc_task.o(i.gattc_reg_to_peer_evt_cmd_handler).
    Adding TT veneer (10 bytes, Long) for call to 'ke_msg_send_basic' from gattc_task.o(i.gattc_timeout_handler).
    Adding TT veneer (10 bytes, Long) for call to 'rect_does_intersect' from guicontext.o(i.gui_context_invalidate).
    Adding TT veneer (10 bytes, Long) for call to 'ble_util_buf_rx_free' from l2cc_task.o(i.hci_acl_data_handler).
    Adding TT veneer (10 bytes, Long) for call to 'ke_event_set' from l2cc_task.o(i.hci_nb_cmp_pkts_evt_handler).
    Adding TT veneer (10 bytes, Long) for call to 'rect_intersect' from imgtext_scroll.o(i.imagetext_set_scroll).
    Adding TT veneer (10 bytes, Long) for call to '__aeabi_memset' from jump_table_host.o(i.jump_table_memmory_init).
    Adding TT veneer (10 bytes, Long) for call to 'ke_mem_init' from jump_table_host.o(i.jump_table_memmory_init).
    Adding TT veneer (10 bytes, Long) for call to 'ble_util_buf_acl_tx_alloc' from l2cc.o(i.l2cc_data_send).
    Adding TT veneer (10 bytes, Long) for call to 'ble_util_buf_acl_tx_free' from l2cc.o(i.l2cc_data_send).
    Adding TT veneer (10 bytes, Long) for call to 'ke_event_callback_set' from l2cm.o(i.l2cm_init).
    Adding TT veneer (10 bytes, Long) for call to 'ke_event_clear' from l2cm.o(i.l2cm_init).
    Adding TT veneer (10 bytes, Long) for call to 'uart_init' from co_log.o(i.log_init).
    Adding TT veneer (10 bytes, Long) for call to 'frspim_rd' from driver_pmu.o(i.lvd_threshold).
    Adding TT veneer (10 bytes, Long) for call to 'frspim_wr' from driver_pmu.o(i.lvd_threshold).
    Adding TT veneer (10 bytes, Long) for call to '_resource_internal_read' from resource.o(i.pKKFrMQUHba).
    Adding TT veneer (10 bytes, Long) for call to 'pmu_clear_isr_state' from sys_utisl.o(i.pmu_calibration_restart).
    Adding TT veneer (10 bytes, Long) for call to 'flash_OTP_read' from driver_pmu.o(i.pmu_ft_trim_config).
    Adding TT veneer (10 bytes, Long) for call to 'pmu_enable_isr' from driver_pmu.o(i.pmu_lvd_en).
    Adding TT veneer (10 bytes, Long) for call to 'system_osc_doubler_calibration' from driver_pmu.o(i.pmu_sub_init).
    Adding TT veneer (10 bytes, Long) for call to 'pmu_calibration_start' from driver_pmu.o(i.pmu_sub_init).
    Adding TT veneer (10 bytes, Long) for call to 'pmu_get_rc_clk' from driver_pmu.o(i.pmu_sub_init).
    Adding TT veneer (10 bytes, Long) for call to 'pmu_calibration_stop' from driver_pmu.o(i.pmu_sub_init).
    Adding TT veneer (10 bytes, Long) for call to 'ke_task_msg_flush' from prf.o(i.prf_init).
    Adding TT veneer (10 bytes, Long) for call to 'fy_flash_erase_block' from uartupgradedev.o(i.processUpgrade).
    Adding TT veneer (10 bytes, Long) for call to 'system_get_pclk' from sys_utisl.o(i.system_get_clock).
    Adding TT veneer (10 bytes, Long) for call to 'system_set_pclk' from sys_utisl.o(i.system_set_clock).
    Adding TT veneer (10 bytes, Long) for call to 'rwip_prevent_sleep_set' from sys_utisl.o(i.system_sleep_disable).
    Adding TT veneer (10 bytes, Long) for call to 'pmu_ioldosw_ctrl' from proj_main.o(i.user_main).
    Adding TT veneer (10 bytes, Long) for call to 'system_enable_internal_flash_q_read' from proj_main.o(i.user_main).
    Adding TT veneer (10 bytes, Long) for call to 'system_set_internal_flash_clock_div' from proj_main.o(i.user_main).
    Adding TT veneer (10 bytes, Long) for call to 'rect_is_equal' from window.o(i.window_set_position).
    Adding TT veneer (10 bytes, Long) for call to 'uart_putc_noint_no_wait' from proj_main.o(ram_code).
    Adding TT veneer (10 bytes, Long) for call to 'log_init' from proj_main.o(ram_code).
    Adding TT veneer (10 bytes, Long) for call to 'disableDisplay' from uartupgradedev.o(ram_code).
    Adding TT veneer (10 bytes, Long) for call to 'EnQueueSignal' from uartupgradedev.o(ram_code).
    Adding TT veneer (10 bytes, Long) for call to '__NVIC_ClearPendingIRQ' from uartupgradedev.o(ram_code).
    Adding TT veneer (10 bytes, Long) for call to '__NVIC_ClearPendingIRQ' from uartcomm.o(ram_code).
    Adding TT veneer (10 bytes, Long) for call to 'CPU_SR_Save' from driver_flash.o(ram_code).
    Adding TT veneer (10 bytes, Long) for call to 'qspi_stig_cmd' from driver_flash.o(ram_code).
    Adding TT veneer (10 bytes, Long) for call to 'CPU_SR_Restore' from driver_flash.o(ram_code).
    Adding TT veneer (10 bytes, Long) for call to 'co_delay_10us' from driver_flash.o(ram_code).
    Adding TT veneer (10 bytes, Long) for call to 'pmu_get_isr_state' from driver_pmu.o(ram_code).
    Adding TT veneer (10 bytes, Long) for call to 'pmu_calibration_restart' from driver_pmu.o(ram_code).
    Adding TT veneer (10 bytes, Long) for call to 'pmu_gpio_isr' from driver_pmu.o(ram_code).
    Adding TT veneer (10 bytes, Long) for call to 'rwip_schedule' from entry.o(ram_code).
    Adding TT veneer (10 bytes, Long) for call to 'rwip_sleep' from entry.o(ram_code).
    Adding TT veneer (10 bytes, Long) for call to 'rwip_us_2_lpcycles' from entry.o(ram_code).
    Adding TT veneer (10 bytes, Long) for call to 'pmu_reset_internal_cnt' from entry.o(ram_code).
    Adding TT veneer (10 bytes, Long) for call to 'low_power_save' from entry.o(ram_code).
    Adding TT veneer (10 bytes, Long) for call to 'low_power_restore' from entry.o(ram_code).
    Adding TT veneer (10 bytes, Long) for call to 'co_delay_100us' from entry.o(ram_code).
    Adding TT veneer (10 bytes, Long) for call to 'flash_read_status' from entry.o(ram_code).
    Adding TT veneer (10 bytes, Long) for call to 'flash_write_status_volatile' from entry.o(ram_code).
    Adding TT veneer (10 bytes, Long) for call to 'rwip_sleep_mul_64' from entry.o(ram_code).
    Adding TT veneer (10 bytes, Long) for call to 'rwip_sleep_div_64' from entry.o(ram_code).
    Adding TT veneer (10 bytes, Long) for call to 'flash_wait_wip_clear' from sys_utisl.o(ram_code).
    Adding TT veneer (10 bytes, Long) for call to 'flash_set_read_quad' from sys_utisl.o(ram_code).
    Adding TT veneer (10 bytes, Long) for call to 'rwip_prevent_sleep_set' from sys_utisl.o(ram_code).
    Adding TT veneer (10 bytes, Long) for call to 'rwip_prevent_sleep_clear' from sys_utisl.o(ram_code).
    Adding TT veneer (10 bytes, Long) for call to 'fr_uart_init' from sys_utisl.o(ram_code).
    Adding TT veneer (10 bytes, Long) for call to 'fr_uart_setBaudrate' from sys_utisl.o(ram_code).
    Adding TT veneer (10 bytes, Long) for call to 'fr_uart_setLineControl' from sys_utisl.o(ram_code).
    Adding TT veneer (10 bytes, Long) for call to 'fr_uart_enableFifos' from sys_utisl.o(ram_code).
    Adding TT veneer (10 bytes, Long) for call to 'uart_flush_rxfifo_noint' from sys_utisl.o(ram_code).
    Adding TT veneer (10 bytes, Long) for call to 'rf_init_api' from patch_rf.o(ram_code).
    Adding TT veneer (10 bytes, Long) for call to 'rf_em_init' from patch_rf.o(ram_code).
    Adding TT veneer (10 bytes, Long) for call to 'rf_init_controller' from patch_rf.o(ram_code).
    Adding TT veneer (10 bytes, Long) for call to 'rwip_isr' from patch_rf.o(ram_code).
    Adding TT veneer (10 bytes, Long) for call to 'LCD_Set_Window' from sdl_gfx.o(ram_code).
    Adding TT veneer (10 bytes, Long) for call to 'LCD_WR_REG' from sdl_gfx.o(ram_code).
    Adding TT veneer (10 bytes, Long) for call to 'LCD_startWriteMutileData' from sdl_gfx.o(ram_code).
    Adding TT veneer (10 bytes, Long) for call to 'LCD_endWriteMutileData' from sdl_gfx.o(ram_code).
    Adding TT veneer (10 bytes, Long) for call to 'ble_util_buf_acl_tx_alloc' from adv_check_mode.o(ram_code).
    Adding TT veneer (10 bytes, Long) for call to '__aeabi_memcpy' from adv_check_mode.o(ram_code).
    Adding TT veneer (10 bytes, Long) for call to 'lld_read_clock' from adv_check_mode.o(ram_code).
    Adding TT veneer (10 bytes, Long) for call to 'calib_meter_recv_msg' from adv_check_mode.o(ram_code).
    Adding TT veneer (10 bytes, Long) for call to 'lld_rxdesc_check' from adv_check_mode.o(ram_code).
    Adding TT veneer (10 bytes, Long) for call to 'ble_util_buf_acl_tx_free' from adv_check_mode.o(ram_code).
    Adding TT veneer (10 bytes, Long) for call to 'llm_activity_free_set' from adv_check_mode.o(ram_code).
    Adding TT veneer (10 bytes, Long) for call to 'calib_meter_evt_end' from adv_check_mode.o(ram_code).
    Adding TT veneer (10 bytes, Long) for call to 'llm_activity_free_get' from adv_check_mode.o(ram_code).
    Adding TT veneer (10 bytes, Long) for call to 'rwip_time_get' from patch_rwip.o(ram_code).
    Adding TT veneer (10 bytes, Long) for call to 'flash_read' from resource.o(ram_code).

146 Veneer(s) (total 1460 bytes) added to the image.

==============================================================================

Image Symbol Table

    Local Symbols

    Symbol Name                              Value     Ov Type        Size  Object(Section)

    ../clib/microlib/division.c              0x00000000   Number         0  uldiv.o ABSOLUTE
    ../clib/microlib/division.c              0x00000000   Number         0  uidiv.o ABSOLUTE
    ../clib/microlib/longlong.c              0x00000000   Number         0  llshl.o ABSOLUTE
    ../clib/microlib/longlong.c              0x00000000   Number         0  llsshr.o ABSOLUTE
    ../clib/microlib/longlong.c              0x00000000   Number         0  llushr.o ABSOLUTE
    ../clib/microlib/printf/printf.c         0x00000000   Number         0  printf7.o ABSOLUTE
    ../clib/microlib/printf/printf.c         0x00000000   Number         0  printf6.o ABSOLUTE
    ../clib/microlib/printf/printf.c         0x00000000   Number         0  printf5.o ABSOLUTE
    ../clib/microlib/printf/printf.c         0x00000000   Number         0  printf4.o ABSOLUTE
    ../clib/microlib/printf/printf.c         0x00000000   Number         0  printf3.o ABSOLUTE
    ../clib/microlib/printf/printf.c         0x00000000   Number         0  printf2.o ABSOLUTE
    ../clib/microlib/printf/printf.c         0x00000000   Number         0  printf1.o ABSOLUTE
    ../clib/microlib/printf/printf.c         0x00000000   Number         0  printf0.o ABSOLUTE
    ../clib/microlib/printf/printf.c         0x00000000   Number         0  printfa.o ABSOLUTE
    ../clib/microlib/printf/printf.c         0x00000000   Number         0  printf8.o ABSOLUTE
    ../clib/microlib/printf/printf.c         0x00000000   Number         0  printfb.o ABSOLUTE
    ../clib/microlib/printf/stubs.s          0x00000000   Number         0  stubs.o ABSOLUTE
    ../clib/microlib/string/strcpy.c         0x00000000   Number         0  strcpy.o ABSOLUTE
    ../clib/microlib/string/strlen.c         0x00000000   Number         0  strlen.o ABSOLUTE
    ../clib/microlib/stubs.s                 0x00000000   Number         0  iusefp.o ABSOLUTE
    ../fplib/microlib/f2d.c                  0x00000000   Number         0  f2d.o ABSOLUTE
    ../fplib/microlib/fpadd.c                0x00000000   Number         0  dadd.o ABSOLUTE
    ../fplib/microlib/fpdiv.c                0x00000000   Number         0  ddiv.o ABSOLUTE
    ../fplib/microlib/fpepilogue.c           0x00000000   Number         0  depilogue.o ABSOLUTE
    ../fplib/microlib/fpfix.c                0x00000000   Number         0  dfixul.o ABSOLUTE
    ../fplib/microlib/fpmul.c                0x00000000   Number         0  dmul.o ABSOLUTE
    ..\..\components\driver\driver_dma.c     0x00000000   Number         0  driver_dma.o ABSOLUTE
    ..\..\components\driver\driver_flash.c   0x00000000   Number         0  driver_flash.o ABSOLUTE
    ..\..\components\driver\driver_gpio.c    0x00000000   Number         0  driver_gpio.o ABSOLUTE
    ..\..\components\driver\driver_pmu.c     0x00000000   Number         0  driver_pmu.o ABSOLUTE
    ..\..\components\driver\driver_psram.c   0x00000000   Number         0  driver_psram.o ABSOLUTE
    ..\..\components\driver\driver_pwm.c     0x00000000   Number         0  driver_pwm.o ABSOLUTE
    ..\..\components\driver\driver_spi_master.c 0x00000000   Number         0  driver_spi_master.o ABSOLUTE
    ..\..\components\driver\driver_timer.c   0x00000000   Number         0  driver_timer.o ABSOLUTE
    ..\..\components\driver\driver_uart_ex.c 0x00000000   Number         0  driver_uart_ex.o ABSOLUTE
    ..\..\components\modules\common\src\co_log.c 0x00000000   Number         0  co_log.o ABSOLUTE
    ..\..\components\modules\platform\src\keil\boot_vectors.s 0x00000000   Number         0  boot_vectors.o ABSOLUTE
    ..\\..\\components\\driver\\driver_flash.c 0x00000000   Number         0  driver_flash.o ABSOLUTE
    ..\\..\\components\\driver\\driver_gpio.c 0x00000000   Number         0  driver_gpio.o ABSOLUTE
    ..\\..\\components\\driver\\driver_pmu.c 0x00000000   Number         0  driver_pmu.o ABSOLUTE
    ..\\..\\components\\driver\\driver_psram.c 0x00000000   Number         0  driver_psram.o ABSOLUTE
    ..\\..\\components\\driver\\driver_pwm.c 0x00000000   Number         0  driver_pwm.o ABSOLUTE
    ..\\..\\components\\driver\\driver_spi_master.c 0x00000000   Number         0  driver_spi_master.o ABSOLUTE
    ..\\..\\components\\driver\\driver_timer.c 0x00000000   Number         0  driver_timer.o ABSOLUTE
    ..\\..\\components\\driver\\driver_uart_ex.c 0x00000000   Number         0  driver_uart_ex.o ABSOLUTE
    ..\\..\\components\\modules\\common\\src\\co_log.c 0x00000000   Number         0  co_log.o ABSOLUTE
    ..\\app\\src\\adv_check_mode.c           0x00000000   Number         0  adv_check_mode.o ABSOLUTE
    ..\\app\\src\\app.c                      0x00000000   Number         0  app.o ABSOLUTE
    ..\\app\\src\\app_conn.c                 0x00000000   Number         0  app_conn.o ABSOLUTE
    ..\\app\\src\\app_mesh_info.c            0x00000000   Number         0  app_mesh_info.o ABSOLUTE
    ..\\app\\src\\app_prf.c                  0x00000000   Number         0  app_prf.o ABSOLUTE
    ..\\app\\src\\app_proj_event.c           0x00000000   Number         0  app_proj_event.o ABSOLUTE
    ..\\app\\src\\app_sec.c                  0x00000000   Number         0  app_sec.o ABSOLUTE
    ..\\app\\src\\app_task.c                 0x00000000   Number         0  app_task.o ABSOLUTE
    ..\\app\\src\\user_bond_manage.c         0x00000000   Number         0  user_bond_manage.o ABSOLUTE
    ..\\app\\src\\user_mem.c                 0x00000000   Number         0  user_mem.o ABSOLUTE
    ..\\code\\SDL_event.c                    0x00000000   Number         0  sdl_event.o ABSOLUTE
    ..\\code\\SDL_timer.c                    0x00000000   Number         0  sdl_timer.o ABSOLUTE
    ..\\code\\SDL_video.c                    0x00000000   Number         0  sdl_video_1.o ABSOLUTE
    ..\\code\\ble_simple_peripheral.c        0x00000000   Number         0  ble_simple_peripheral.o ABSOLUTE
    ..\\code\\devmodule.c                    0x00000000   Number         0  devmodule.o ABSOLUTE
    ..\\code\\dgus_cmd.c                     0x00000000   Number         0  dgus_cmd.o ABSOLUTE
    ..\\code\\ext_flythings\\switch_image.c  0x00000000   Number         0  switch_image.o ABSOLUTE
    ..\\code\\flythings\\auth\\md5.c         0x00000000   Number         0  md5.o ABSOLUTE
    ..\\code\\flythings\\auth\\zksec.c       0x00000000   Number         0  zksec.o ABSOLUTE
    ..\\code\\flythings\\context\\guicontext.c 0x00000000   Number         0  guicontext.o ABSOLUTE
    ..\\code\\flythings\\context\\resource.c 0x00000000   Number         0  resource.o ABSOLUTE
    ..\\code\\flythings\\graphics\\SDL_gfx.c 0x00000000   Number         0  sdl_gfx.o ABSOLUTE
    ..\\code\\flythings\\misc\\fy_bits.c     0x00000000   Number         0  fy_bits.o ABSOLUTE
    ..\\code\\flythings\\misc\\fy_mem.c      0x00000000   Number         0  fy_mem.o ABSOLUTE
    ..\\code\\flythings\\misc\\rect.c        0x00000000   Number         0  rect.o ABSOLUTE
    ..\\code\\flythings\\widget\\animation.c 0x00000000   Number         0  animation.o ABSOLUTE
    ..\\code\\flythings\\widget\\button.c    0x00000000   Number         0  button.o ABSOLUTE
    ..\\code\\flythings\\widget\\image.c     0x00000000   Number         0  image.o ABSOLUTE
    ..\\code\\flythings\\widget\\imagetext.c 0x00000000   Number         0  imagetext.o ABSOLUTE
    ..\\code\\flythings\\widget\\increment.c 0x00000000   Number         0  increment.o ABSOLUTE
    ..\\code\\flythings\\widget\\label.c     0x00000000   Number         0  label.o ABSOLUTE
    ..\\code\\flythings\\widget\\numtext.c   0x00000000   Number         0  numtext.o ABSOLUTE
    ..\\code\\flythings\\widget\\progress.c  0x00000000   Number         0  progress.o ABSOLUTE
    ..\\code\\flythings\\widget\\widget.c    0x00000000   Number         0  widget.o ABSOLUTE
    ..\\code\\flythings\\widget\\window.c    0x00000000   Number         0  window.o ABSOLUTE
    ..\\code\\gui_main.c                     0x00000000   Number         0  gui_main.o ABSOLUTE
    ..\\code\\message.c                      0x00000000   Number         0  message.o ABSOLUTE
    ..\\code\\other_app.c                    0x00000000   Number         0  other_app.o ABSOLUTE
    ..\\code\\prf_server.c                   0x00000000   Number         0  prf_server.o ABSOLUTE
    ..\\code\\proj_main.c                    0x00000000   Number         0  proj_main.o ABSOLUTE
    ..\\code\\uartcomm.c                     0x00000000   Number         0  uartcomm.o ABSOLUTE
    ..\\code\\uartupgradedev.c               0x00000000   Number         0  uartupgradedev.o ABSOLUTE
    ..\\code\\uifun\\logic\\air.c            0x00000000   Number         0  air.o ABSOLUTE
    ..\\code\\uifun\\logic\\hot.c            0x00000000   Number         0  hot.o ABSOLUTE
    ..\\code\\uifun\\logic\\wind.c           0x00000000   Number         0  wind.o ABSOLUTE
    ..\\code\\uifun\\ui_context.c            0x00000000   Number         0  ui_context.o ABSOLUTE
    ..\\ip\\ble\\hl\\src\\gap\\gapc\\gapc.c  0x00000000   Number         0  gapc.o ABSOLUTE
    ..\\ip\\ble\\hl\\src\\gap\\gapc\\gapc_hci.c 0x00000000   Number         0  gapc_hci.o ABSOLUTE
    ..\\ip\\ble\\hl\\src\\gap\\gapc\\gapc_sig.c 0x00000000   Number         0  gapc_sig.o ABSOLUTE
    ..\\ip\\ble\\hl\\src\\gap\\gapc\\gapc_task.c 0x00000000   Number         0  gapc_task.o ABSOLUTE
    ..\\ip\\ble\\hl\\src\\gap\\gapm\\gapm.c  0x00000000   Number         0  gapm.o ABSOLUTE
    ..\\ip\\ble\\hl\\src\\gap\\gapm\\gapm_actv.c 0x00000000   Number         0  gapm_actv.o ABSOLUTE
    ..\\ip\\ble\\hl\\src\\gap\\gapm\\gapm_addr.c 0x00000000   Number         0  gapm_addr.o ABSOLUTE
    ..\\ip\\ble\\hl\\src\\gap\\gapm\\gapm_adv.c 0x00000000   Number         0  gapm_adv.o ABSOLUTE
    ..\\ip\\ble\\hl\\src\\gap\\gapm\\gapm_cfg.c 0x00000000   Number         0  gapm_cfg.o ABSOLUTE
    ..\\ip\\ble\\hl\\src\\gap\\gapm\\gapm_init.c 0x00000000   Number         0  gapm_init.o ABSOLUTE
    ..\\ip\\ble\\hl\\src\\gap\\gapm\\gapm_list.c 0x00000000   Number         0  gapm_list.o ABSOLUTE
    ..\\ip\\ble\\hl\\src\\gap\\gapm\\gapm_per_sync.c 0x00000000   Number         0  gapm_per_sync.o ABSOLUTE
    ..\\ip\\ble\\hl\\src\\gap\\gapm\\gapm_scan.c 0x00000000   Number         0  gapm_scan.o ABSOLUTE
    ..\\ip\\ble\\hl\\src\\gap\\gapm\\gapm_smp.c 0x00000000   Number         0  gapm_smp.o ABSOLUTE
    ..\\ip\\ble\\hl\\src\\gap\\gapm\\gapm_task.c 0x00000000   Number         0  gapm_task.o ABSOLUTE
    ..\\ip\\ble\\hl\\src\\gap\\smpc\\smpc.c  0x00000000   Number         0  smpc.o ABSOLUTE
    ..\\ip\\ble\\hl\\src\\gap\\smpc\\smpc_api.c 0x00000000   Number         0  smpc_api.o ABSOLUTE
    ..\\ip\\ble\\hl\\src\\gap\\smpc\\smpc_crypto.c 0x00000000   Number         0  smpc_crypto.o ABSOLUTE
    ..\\ip\\ble\\hl\\src\\gap\\smpc\\smpc_util.c 0x00000000   Number         0  smpc_util.o ABSOLUTE
    ..\\ip\\ble\\hl\\src\\gatt\\attc\\attc.c 0x00000000   Number         0  attc.o ABSOLUTE
    ..\\ip\\ble\\hl\\src\\gatt\\attm\\attm.c 0x00000000   Number         0  attm.o ABSOLUTE
    ..\\ip\\ble\\hl\\src\\gatt\\attm\\attm_db.c 0x00000000   Number         0  attm_db.o ABSOLUTE
    ..\\ip\\ble\\hl\\src\\gatt\\atts\\atts.c 0x00000000   Number         0  atts.o ABSOLUTE
    ..\\ip\\ble\\hl\\src\\gatt\\gattc\\gattc.c 0x00000000   Number         0  gattc.o ABSOLUTE
    ..\\ip\\ble\\hl\\src\\gatt\\gattc\\gattc_task.c 0x00000000   Number         0  gattc_task.o ABSOLUTE
    ..\\ip\\ble\\hl\\src\\gatt\\gattm\\gattm.c 0x00000000   Number         0  gattm.o ABSOLUTE
    ..\\ip\\ble\\hl\\src\\gatt\\gattm\\gattm_task.c 0x00000000   Number         0  gattm_task.o ABSOLUTE
    ..\\ip\\ble\\hl\\src\\l2c\\l2cc\\l2cc.c  0x00000000   Number         0  l2cc.o ABSOLUTE
    ..\\ip\\ble\\hl\\src\\l2c\\l2cc\\l2cc_pdu.c 0x00000000   Number         0  l2cc_pdu.o ABSOLUTE
    ..\\ip\\ble\\hl\\src\\l2c\\l2cc\\l2cc_sig.c 0x00000000   Number         0  l2cc_sig.o ABSOLUTE
    ..\\ip\\ble\\hl\\src\\l2c\\l2cc\\l2cc_task.c 0x00000000   Number         0  l2cc_task.o ABSOLUTE
    ..\\ip\\ble\\hl\\src\\l2c\\l2cm\\l2cm.c  0x00000000   Number         0  l2cm.o ABSOLUTE
    ..\\ip\\ble\\hl\\src\\prf\\prf.c         0x00000000   Number         0  prf.o ABSOLUTE
    ..\\ip\\ble\\hl\\src\\prf\\prf_utils.c   0x00000000   Number         0  prf_utils.o ABSOLUTE
    ..\\ip\\ble\\hl\\src\\rwble_hl\\rwble_hl.c 0x00000000   Number         0  rwble_hl.o ABSOLUTE
    ..\\ip\\ble\\hl_api\\gap\\gap_api.c      0x00000000   Number         0  gap_api.o ABSOLUTE
    ..\\ip\\ble\\hl_api\\gatt\\gatt_api.c    0x00000000   Number         0  gatt_api.o ABSOLUTE
    ..\\ip\\ble\\hl_api\\mesh\\mesh_api.c    0x00000000   Number         0  mesh_api.o ABSOLUTE
    ..\\ip\\ble\\mesh\\m_al\\m_al_activity.c 0x00000000   Number         0  m_al_activity.o ABSOLUTE
    ..\\ip\\ble\\mesh\\m_al\\m_al_adv.c      0x00000000   Number         0  m_al_adv.o ABSOLUTE
    ..\\ip\\ble\\mesh\\m_al\\m_al_con.c      0x00000000   Number         0  m_al_con.o ABSOLUTE
    ..\\ip\\ble\\mesh\\m_al\\m_al_djob.c     0x00000000   Number         0  m_al_djob.o ABSOLUTE
    ..\\ip\\ble\\mesh\\m_al\\m_al_scan.c     0x00000000   Number         0  m_al_scan.o ABSOLUTE
    ..\\ip\\ble\\mesh\\m_al\\m_al_sec.c      0x00000000   Number         0  m_al_sec.o ABSOLUTE
    ..\\ip\\ble\\mesh\\m_al\\m_al_task.c     0x00000000   Number         0  m_al_task.o ABSOLUTE
    ..\\ip\\ble\\mesh\\m_al\\m_al_timer.c    0x00000000   Number         0  m_al_timer.o ABSOLUTE
    ..\\ip\\ble\\mesh\\models\\m_api_msg\\m_api_msg.c 0x00000000   Number         0  m_api_msg.o ABSOLUTE
    ..\\ip\\ble\\mesh\\src\\m_api.c          0x00000000   Number         0  m_api.o ABSOLUTE
    ..\\ip\\ble\\mesh\\src\\m_bcn\\m_bcn.c   0x00000000   Number         0  m_bcn.o ABSOLUTE
    ..\\ip\\ble\\mesh\\src\\m_bearer\\m_bearer.c 0x00000000   Number         0  m_bearer.o ABSOLUTE
    ..\\ip\\ble\\mesh\\src\\m_bearer\\m_bearer_adv.c 0x00000000   Number         0  m_bearer_adv.o ABSOLUTE
    ..\\ip\\ble\\mesh\\src\\m_bearer\\m_bearer_gatt.c 0x00000000   Number         0  m_bearer_gatt.o ABSOLUTE
    ..\\ip\\ble\\mesh\\src\\m_fnd\\m_fnd.c   0x00000000   Number         0  m_fnd.o ABSOLUTE
    ..\\ip\\ble\\mesh\\src\\m_fnd\\m_fnd_confs.c 0x00000000   Number         0  m_fnd_confs.o ABSOLUTE
    ..\\ip\\ble\\mesh\\src\\m_fnd\\m_fnd_hlths.c 0x00000000   Number         0  m_fnd_hlths.o ABSOLUTE
    ..\\ip\\ble\\mesh\\src\\m_fnd\\m_fnd_pbrs.c 0x00000000   Number         0  m_fnd_pbrs.o ABSOLUTE
    ..\\ip\\ble\\mesh\\src\\m_lay\\m_lay.c   0x00000000   Number         0  m_lay.o ABSOLUTE
    ..\\ip\\ble\\mesh\\src\\m_lay\\m_lay_access.c 0x00000000   Number         0  m_lay_access.o ABSOLUTE
    ..\\ip\\ble\\mesh\\src\\m_lay\\m_lay_friend.c 0x00000000   Number         0  m_lay_friend.o ABSOLUTE
    ..\\ip\\ble\\mesh\\src\\m_lay\\m_lay_hb.c 0x00000000   Number         0  m_lay_hb.o ABSOLUTE
    ..\\ip\\ble\\mesh\\src\\m_lay\\m_lay_lpn.c 0x00000000   Number         0  m_lay_lpn.o ABSOLUTE
    ..\\ip\\ble\\mesh\\src\\m_lay\\m_lay_ltrans.c 0x00000000   Number         0  m_lay_ltrans.o ABSOLUTE
    ..\\ip\\ble\\mesh\\src\\m_lay\\m_lay_net.c 0x00000000   Number         0  m_lay_net.o ABSOLUTE
    ..\\ip\\ble\\mesh\\src\\m_lay\\m_lay_proxy.c 0x00000000   Number         0  m_lay_proxy.o ABSOLUTE
    ..\\ip\\ble\\mesh\\src\\m_lay\\m_lay_utrans.c 0x00000000   Number         0  m_lay_utrans.o ABSOLUTE
    ..\\ip\\ble\\mesh\\src\\m_prov\\m_pbrs_prov_bearer.c 0x00000000   Number         0  m_pbrs_prov_bearer.o ABSOLUTE
    ..\\ip\\ble\\mesh\\src\\m_prov\\m_prov.c 0x00000000   Number         0  m_prov.o ABSOLUTE
    ..\\ip\\ble\\mesh\\src\\m_prov\\m_prov_adv_trans.c 0x00000000   Number         0  m_prov_adv_trans.o ABSOLUTE
    ..\\ip\\ble\\mesh\\src\\m_prov\\m_prov_bearer.c 0x00000000   Number         0  m_prov_bearer.o ABSOLUTE
    ..\\ip\\ble\\mesh\\src\\m_tb\\m_tb.c     0x00000000   Number         0  m_tb.o ABSOLUTE
    ..\\ip\\ble\\mesh\\src\\m_tb\\m_tb_buf.c 0x00000000   Number         0  m_tb_buf.o ABSOLUTE
    ..\\ip\\ble\\mesh\\src\\m_tb\\m_tb_friend.c 0x00000000   Number         0  m_tb_friend.o ABSOLUTE
    ..\\ip\\ble\\mesh\\src\\m_tb\\m_tb_key.c 0x00000000   Number         0  m_tb_key.o ABSOLUTE
    ..\\ip\\ble\\mesh\\src\\m_tb\\m_tb_mio.c 0x00000000   Number         0  m_tb_mio.o ABSOLUTE
    ..\\ip\\ble\\mesh\\src\\m_tb\\m_tb_sec.c 0x00000000   Number         0  m_tb_sec.o ABSOLUTE
    ..\\ip\\ble\\mesh\\src\\m_tb\\m_tb_state.c 0x00000000   Number         0  m_tb_state.o ABSOLUTE
    ..\\ip\\ble\\mesh\\src\\m_tb\\m_tb_store_wvt.c 0x00000000   Number         0  m_tb_store_wvt.o ABSOLUTE
    ..\\ip\\ble\\mesh\\src\\m_tb\\m_tb_timer.c 0x00000000   Number         0  m_tb_timer.o ABSOLUTE
    ..\\modules\\os\\os_mem.c                0x00000000   Number         0  os_mem.o ABSOLUTE
    ..\\modules\\os\\os_msg_q.c              0x00000000   Number         0  os_msg_q.o ABSOLUTE
    ..\\modules\\os\\os_task.c               0x00000000   Number         0  os_task.o ABSOLUTE
    ..\\modules\\os\\os_timer.c              0x00000000   Number         0  os_timer.o ABSOLUTE
    ..\\modules\\patch\\patch_frspim.c       0x00000000   Number         0  patch_frspim.o ABSOLUTE
    ..\\modules\\patch\\patch_lld.c          0x00000000   Number         0  patch_lld.o ABSOLUTE
    ..\\modules\\patch\\patch_rf.c           0x00000000   Number         0  patch_rf.o ABSOLUTE
    ..\\modules\\patch\\patch_rwip.c         0x00000000   Number         0  patch_rwip.o ABSOLUTE
    ..\\modules\\sys\\sys_utisl.c            0x00000000   Number         0  sys_utisl.o ABSOLUTE
    ..\\plf\\refip\\src\\arch\\entry.c       0x00000000   Number         0  entry.o ABSOLUTE
    ..\\plf\\refip\\src\\arch\\jump_table_host.c 0x00000000   Number         0  jump_table_host.o ABSOLUTE
    ..\\plf\\refip\\src\\driver\\trng\\trng.c 0x00000000   Number         0  trng.o ABSOLUTE
    ..\app\src\adv_check_mode.c              0x00000000   Number         0  adv_check_mode.o ABSOLUTE
    ..\app\src\app.c                         0x00000000   Number         0  app.o ABSOLUTE
    ..\app\src\app_conn.c                    0x00000000   Number         0  app_conn.o ABSOLUTE
    ..\app\src\app_mesh_info.c               0x00000000   Number         0  app_mesh_info.o ABSOLUTE
    ..\app\src\app_prf.c                     0x00000000   Number         0  app_prf.o ABSOLUTE
    ..\app\src\app_proj_event.c              0x00000000   Number         0  app_proj_event.o ABSOLUTE
    ..\app\src\app_sec.c                     0x00000000   Number         0  app_sec.o ABSOLUTE
    ..\app\src\app_task.c                    0x00000000   Number         0  app_task.o ABSOLUTE
    ..\app\src\user_bond_manage.c            0x00000000   Number         0  user_bond_manage.o ABSOLUTE
    ..\app\src\user_mem.c                    0x00000000   Number         0  user_mem.o ABSOLUTE
    ..\code\SDL_event.c                      0x00000000   Number         0  sdl_event.o ABSOLUTE
    ..\code\SDL_timer.c                      0x00000000   Number         0  sdl_timer.o ABSOLUTE
    ..\code\SDL_video.c                      0x00000000   Number         0  sdl_video_1.o ABSOLUTE
    ..\code\ble_simple_peripheral.c          0x00000000   Number         0  ble_simple_peripheral.o ABSOLUTE
    ..\code\devmodule.c                      0x00000000   Number         0  devmodule.o ABSOLUTE
    ..\code\dgus_cmd.c                       0x00000000   Number         0  dgus_cmd.o ABSOLUTE
    ..\code\ext_flythings\draw_point.c       0x00000000   Number         0  draw_point.o ABSOLUTE
    ..\code\ext_flythings\switch_image.c     0x00000000   Number         0  switch_image.o ABSOLUTE
    ..\code\flythings\auth\md5.c             0x00000000   Number         0  md5.o ABSOLUTE
    ..\code\flythings\auth\zksec.c           0x00000000   Number         0  zksec.o ABSOLUTE
    ..\code\flythings\context\guicontext.c   0x00000000   Number         0  guicontext.o ABSOLUTE
    ..\code\flythings\context\resource.c     0x00000000   Number         0  resource.o ABSOLUTE
    ..\code\flythings\graphics\SDL_gfx.c     0x00000000   Number         0  sdl_gfx.o ABSOLUTE
    ..\code\flythings\misc\fy_bits.c         0x00000000   Number         0  fy_bits.o ABSOLUTE
    ..\code\flythings\misc\fy_mem.c          0x00000000   Number         0  fy_mem.o ABSOLUTE
    ..\code\flythings\misc\rect.c            0x00000000   Number         0  rect.o ABSOLUTE
    ..\code\flythings\widget\animation.c     0x00000000   Number         0  animation.o ABSOLUTE
    ..\code\flythings\widget\button.c        0x00000000   Number         0  button.o ABSOLUTE
    ..\code\flythings\widget\image.c         0x00000000   Number         0  image.o ABSOLUTE
    ..\code\flythings\widget\imagetext.c     0x00000000   Number         0  imagetext.o ABSOLUTE
    ..\code\flythings\widget\increment.c     0x00000000   Number         0  increment.o ABSOLUTE
    ..\code\flythings\widget\label.c         0x00000000   Number         0  label.o ABSOLUTE
    ..\code\flythings\widget\numtext.c       0x00000000   Number         0  numtext.o ABSOLUTE
    ..\code\flythings\widget\progress.c      0x00000000   Number         0  progress.o ABSOLUTE
    ..\code\flythings\widget\widget.c        0x00000000   Number         0  widget.o ABSOLUTE
    ..\code\flythings\widget\window.c        0x00000000   Number         0  window.o ABSOLUTE
    ..\code\gui_main.c                       0x00000000   Number         0  gui_main.o ABSOLUTE
    ..\code\message.c                        0x00000000   Number         0  message.o ABSOLUTE
    ..\code\other_app.c                      0x00000000   Number         0  other_app.o ABSOLUTE
    ..\code\prf_client.c                     0x00000000   Number         0  prf_client.o ABSOLUTE
    ..\code\prf_server.c                     0x00000000   Number         0  prf_server.o ABSOLUTE
    ..\code\proj_main.c                      0x00000000   Number         0  proj_main.o ABSOLUTE
    ..\code\ring.c                           0x00000000   Number         0  ring.o ABSOLUTE
    ..\code\simple_gatt_service.c            0x00000000   Number         0  simple_gatt_service.o ABSOLUTE
    ..\code\uartcomm.c                       0x00000000   Number         0  uartcomm.o ABSOLUTE
    ..\code\uartupgradedev.c                 0x00000000   Number         0  uartupgradedev.o ABSOLUTE
    ..\code\uifun\logic\air.c                0x00000000   Number         0  air.o ABSOLUTE
    ..\code\uifun\logic\hot.c                0x00000000   Number         0  hot.o ABSOLUTE
    ..\code\uifun\logic\wind.c               0x00000000   Number         0  wind.o ABSOLUTE
    ..\code\uifun\ui_context.c               0x00000000   Number         0  ui_context.o ABSOLUTE
    ..\flyport\ext_flythings\imgtext_scroll.c 0x00000000   Number         0  imgtext_scroll.o ABSOLUTE
    ..\ip\ble\hl\src\gap\gapc\gapc.c         0x00000000   Number         0  gapc.o ABSOLUTE
    ..\ip\ble\hl\src\gap\gapc\gapc_hci.c     0x00000000   Number         0  gapc_hci.o ABSOLUTE
    ..\ip\ble\hl\src\gap\gapc\gapc_sig.c     0x00000000   Number         0  gapc_sig.o ABSOLUTE
    ..\ip\ble\hl\src\gap\gapc\gapc_task.c    0x00000000   Number         0  gapc_task.o ABSOLUTE
    ..\ip\ble\hl\src\gap\gapm\gapm.c         0x00000000   Number         0  gapm.o ABSOLUTE
    ..\ip\ble\hl\src\gap\gapm\gapm_actv.c    0x00000000   Number         0  gapm_actv.o ABSOLUTE
    ..\ip\ble\hl\src\gap\gapm\gapm_addr.c    0x00000000   Number         0  gapm_addr.o ABSOLUTE
    ..\ip\ble\hl\src\gap\gapm\gapm_adv.c     0x00000000   Number         0  gapm_adv.o ABSOLUTE
    ..\ip\ble\hl\src\gap\gapm\gapm_cfg.c     0x00000000   Number         0  gapm_cfg.o ABSOLUTE
    ..\ip\ble\hl\src\gap\gapm\gapm_init.c    0x00000000   Number         0  gapm_init.o ABSOLUTE
    ..\ip\ble\hl\src\gap\gapm\gapm_list.c    0x00000000   Number         0  gapm_list.o ABSOLUTE
    ..\ip\ble\hl\src\gap\gapm\gapm_per_sync.c 0x00000000   Number         0  gapm_per_sync.o ABSOLUTE
    ..\ip\ble\hl\src\gap\gapm\gapm_scan.c    0x00000000   Number         0  gapm_scan.o ABSOLUTE
    ..\ip\ble\hl\src\gap\gapm\gapm_smp.c     0x00000000   Number         0  gapm_smp.o ABSOLUTE
    ..\ip\ble\hl\src\gap\gapm\gapm_task.c    0x00000000   Number         0  gapm_task.o ABSOLUTE
    ..\ip\ble\hl\src\gap\smpc\smpc.c         0x00000000   Number         0  smpc.o ABSOLUTE
    ..\ip\ble\hl\src\gap\smpc\smpc_api.c     0x00000000   Number         0  smpc_api.o ABSOLUTE
    ..\ip\ble\hl\src\gap\smpc\smpc_crypto.c  0x00000000   Number         0  smpc_crypto.o ABSOLUTE
    ..\ip\ble\hl\src\gap\smpc\smpc_util.c    0x00000000   Number         0  smpc_util.o ABSOLUTE
    ..\ip\ble\hl\src\gatt\attc\attc.c        0x00000000   Number         0  attc.o ABSOLUTE
    ..\ip\ble\hl\src\gatt\attm\attm.c        0x00000000   Number         0  attm.o ABSOLUTE
    ..\ip\ble\hl\src\gatt\attm\attm_db.c     0x00000000   Number         0  attm_db.o ABSOLUTE
    ..\ip\ble\hl\src\gatt\atts\atts.c        0x00000000   Number         0  atts.o ABSOLUTE
    ..\ip\ble\hl\src\gatt\gattc\gattc.c      0x00000000   Number         0  gattc.o ABSOLUTE
    ..\ip\ble\hl\src\gatt\gattc\gattc_task.c 0x00000000   Number         0  gattc_task.o ABSOLUTE
    ..\ip\ble\hl\src\gatt\gattm\gattm.c      0x00000000   Number         0  gattm.o ABSOLUTE
    ..\ip\ble\hl\src\gatt\gattm\gattm_task.c 0x00000000   Number         0  gattm_task.o ABSOLUTE
    ..\ip\ble\hl\src\l2c\l2cc\l2cc.c         0x00000000   Number         0  l2cc.o ABSOLUTE
    ..\ip\ble\hl\src\l2c\l2cc\l2cc_pdu.c     0x00000000   Number         0  l2cc_pdu.o ABSOLUTE
    ..\ip\ble\hl\src\l2c\l2cc\l2cc_sig.c     0x00000000   Number         0  l2cc_sig.o ABSOLUTE
    ..\ip\ble\hl\src\l2c\l2cc\l2cc_task.c    0x00000000   Number         0  l2cc_task.o ABSOLUTE
    ..\ip\ble\hl\src\l2c\l2cm\l2cm.c         0x00000000   Number         0  l2cm.o ABSOLUTE
    ..\ip\ble\hl\src\prf\prf.c               0x00000000   Number         0  prf.o ABSOLUTE
    ..\ip\ble\hl\src\prf\prf_utils.c         0x00000000   Number         0  prf_utils.o ABSOLUTE
    ..\ip\ble\hl\src\rwble_hl\rwble_hl.c     0x00000000   Number         0  rwble_hl.o ABSOLUTE
    ..\ip\ble\hl_api\gap\gap_api.c           0x00000000   Number         0  gap_api.o ABSOLUTE
    ..\ip\ble\hl_api\gatt\gatt_api.c         0x00000000   Number         0  gatt_api.o ABSOLUTE
    ..\ip\ble\hl_api\mesh\mesh_api.c         0x00000000   Number         0  mesh_api.o ABSOLUTE
    ..\ip\ble\mesh\m_al\m_al_activity.c      0x00000000   Number         0  m_al_activity.o ABSOLUTE
    ..\ip\ble\mesh\m_al\m_al_adv.c           0x00000000   Number         0  m_al_adv.o ABSOLUTE
    ..\ip\ble\mesh\m_al\m_al_con.c           0x00000000   Number         0  m_al_con.o ABSOLUTE
    ..\ip\ble\mesh\m_al\m_al_djob.c          0x00000000   Number         0  m_al_djob.o ABSOLUTE
    ..\ip\ble\mesh\m_al\m_al_scan.c          0x00000000   Number         0  m_al_scan.o ABSOLUTE
    ..\ip\ble\mesh\m_al\m_al_sec.c           0x00000000   Number         0  m_al_sec.o ABSOLUTE
    ..\ip\ble\mesh\m_al\m_al_task.c          0x00000000   Number         0  m_al_task.o ABSOLUTE
    ..\ip\ble\mesh\m_al\m_al_timer.c         0x00000000   Number         0  m_al_timer.o ABSOLUTE
    ..\ip\ble\mesh\models\m_api_msg\m_api_msg.c 0x00000000   Number         0  m_api_msg.o ABSOLUTE
    ..\ip\ble\mesh\src\m_api.c               0x00000000   Number         0  m_api.o ABSOLUTE
    ..\ip\ble\mesh\src\m_bcn\m_bcn.c         0x00000000   Number         0  m_bcn.o ABSOLUTE
    ..\ip\ble\mesh\src\m_bearer\m_bearer.c   0x00000000   Number         0  m_bearer.o ABSOLUTE
    ..\ip\ble\mesh\src\m_bearer\m_bearer_adv.c 0x00000000   Number         0  m_bearer_adv.o ABSOLUTE
    ..\ip\ble\mesh\src\m_bearer\m_bearer_gatt.c 0x00000000   Number         0  m_bearer_gatt.o ABSOLUTE
    ..\ip\ble\mesh\src\m_fnd\m_fnd.c         0x00000000   Number         0  m_fnd.o ABSOLUTE
    ..\ip\ble\mesh\src\m_fnd\m_fnd_confs.c   0x00000000   Number         0  m_fnd_confs.o ABSOLUTE
    ..\ip\ble\mesh\src\m_fnd\m_fnd_hlths.c   0x00000000   Number         0  m_fnd_hlths.o ABSOLUTE
    ..\ip\ble\mesh\src\m_fnd\m_fnd_pbrs.c    0x00000000   Number         0  m_fnd_pbrs.o ABSOLUTE
    ..\ip\ble\mesh\src\m_lay\m_lay.c         0x00000000   Number         0  m_lay.o ABSOLUTE
    ..\ip\ble\mesh\src\m_lay\m_lay_access.c  0x00000000   Number         0  m_lay_access.o ABSOLUTE
    ..\ip\ble\mesh\src\m_lay\m_lay_friend.c  0x00000000   Number         0  m_lay_friend.o ABSOLUTE
    ..\ip\ble\mesh\src\m_lay\m_lay_hb.c      0x00000000   Number         0  m_lay_hb.o ABSOLUTE
    ..\ip\ble\mesh\src\m_lay\m_lay_lpn.c     0x00000000   Number         0  m_lay_lpn.o ABSOLUTE
    ..\ip\ble\mesh\src\m_lay\m_lay_ltrans.c  0x00000000   Number         0  m_lay_ltrans.o ABSOLUTE
    ..\ip\ble\mesh\src\m_lay\m_lay_net.c     0x00000000   Number         0  m_lay_net.o ABSOLUTE
    ..\ip\ble\mesh\src\m_lay\m_lay_proxy.c   0x00000000   Number         0  m_lay_proxy.o ABSOLUTE
    ..\ip\ble\mesh\src\m_lay\m_lay_utrans.c  0x00000000   Number         0  m_lay_utrans.o ABSOLUTE
    ..\ip\ble\mesh\src\m_prov\m_pbrs_prov_bearer.c 0x00000000   Number         0  m_pbrs_prov_bearer.o ABSOLUTE
    ..\ip\ble\mesh\src\m_prov\m_prov.c       0x00000000   Number         0  m_prov.o ABSOLUTE
    ..\ip\ble\mesh\src\m_prov\m_prov_adv_trans.c 0x00000000   Number         0  m_prov_adv_trans.o ABSOLUTE
    ..\ip\ble\mesh\src\m_prov\m_prov_bearer.c 0x00000000   Number         0  m_prov_bearer.o ABSOLUTE
    ..\ip\ble\mesh\src\m_tb\m_tb.c           0x00000000   Number         0  m_tb.o ABSOLUTE
    ..\ip\ble\mesh\src\m_tb\m_tb_buf.c       0x00000000   Number         0  m_tb_buf.o ABSOLUTE
    ..\ip\ble\mesh\src\m_tb\m_tb_friend.c    0x00000000   Number         0  m_tb_friend.o ABSOLUTE
    ..\ip\ble\mesh\src\m_tb\m_tb_key.c       0x00000000   Number         0  m_tb_key.o ABSOLUTE
    ..\ip\ble\mesh\src\m_tb\m_tb_mio.c       0x00000000   Number         0  m_tb_mio.o ABSOLUTE
    ..\ip\ble\mesh\src\m_tb\m_tb_sec.c       0x00000000   Number         0  m_tb_sec.o ABSOLUTE
    ..\ip\ble\mesh\src\m_tb\m_tb_state.c     0x00000000   Number         0  m_tb_state.o ABSOLUTE
    ..\ip\ble\mesh\src\m_tb\m_tb_store_wvt.c 0x00000000   Number         0  m_tb_store_wvt.o ABSOLUTE
    ..\ip\ble\mesh\src\m_tb\m_tb_timer.c     0x00000000   Number         0  m_tb_timer.o ABSOLUTE
    ..\modules\os\os_mem.c                   0x00000000   Number         0  os_mem.o ABSOLUTE
    ..\modules\os\os_msg_q.c                 0x00000000   Number         0  os_msg_q.o ABSOLUTE
    ..\modules\os\os_task.c                  0x00000000   Number         0  os_task.o ABSOLUTE
    ..\modules\os\os_timer.c                 0x00000000   Number         0  os_timer.o ABSOLUTE
    ..\modules\patch\patch_frspim.c          0x00000000   Number         0  patch_frspim.o ABSOLUTE
    ..\modules\patch\patch_lld.c             0x00000000   Number         0  patch_lld.o ABSOLUTE
    ..\modules\patch\patch_rf.c              0x00000000   Number         0  patch_rf.o ABSOLUTE
    ..\modules\patch\patch_rwip.c            0x00000000   Number         0  patch_rwip.o ABSOLUTE
    ..\modules\sys\sys_utisl.c               0x00000000   Number         0  sys_utisl.o ABSOLUTE
    ..\plf\refip\src\arch\entry.c            0x00000000   Number         0  entry.o ABSOLUTE
    ..\plf\refip\src\arch\jump_table_host.c  0x00000000   Number         0  jump_table_host.o ABSOLUTE
    ..\plf\refip\src\driver\trng\trng.c      0x00000000   Number         0  trng.o ABSOLUTE
    cdrcmple.s                               0x00000000   Number         0  cdrcmple.o ABSOLUTE
    jump_table_0                             0x10000000   Section        4  jump_table_host.o(jump_table_0)
    jump_table_1                             0x10000004   Section        8  proj_main.o(jump_table_1)
    jump_table_2                             0x1000000c   Section        8  jump_table_host.o(jump_table_2)
    jump_table_3                             0x10000014   Section        8  proj_main.o(jump_table_3)
    jump_table_4                             0x1000001c   Section       72  jump_table_host.o(jump_table_4)
    .text                                    0x10002000   Section       20  boot_vectors.o(.text)
    .text                                    0x10002014   Section        0  uidiv.o(.text)
    .text                                    0x10002040   Section        0  uldiv.o(.text)
    .text                                    0x100020a2   Section        0  strlen.o(.text)
    .text                                    0x100020b0   Section        0  strcpy.o(.text)
    .text                                    0x100020c2   Section        0  llshl.o(.text)
    .text                                    0x100020e0   Section        0  llushr.o(.text)
    .text                                    0x10002100   Section        0  dadd.o(.text)
    .text                                    0x10002100   Section        0  iusefp.o(.text)
    .text                                    0x1000224e   Section        0  dmul.o(.text)
    .text                                    0x10002332   Section        0  ddiv.o(.text)
    .text                                    0x10002410   Section        0  dfixul.o(.text)
    .text                                    0x10002440   Section       48  cdrcmple.o(.text)
    .text                                    0x10002470   Section        0  llsshr.o(.text)
    .text                                    0x10002494   Section        0  depilogue.o(.text)
    Long Thumb to Thumb Veneer to eqr4EzQ9   0x1000254f   Thumb Code    10  anon$$obj.o(Veneer$$Code)
    Long Thumb to Thumb Veneer to _resource_internal_read 0x10002851   Thumb Code    10  anon$$obj.o(Veneer$$Code)
    i.DeQueue                                0x100028fa   Section        0  ring.o(i.DeQueue)
    i.EnQueueSignal                          0x1000293a   Section        0  ring.o(i.EnQueueSignal)
    i.FyG6GBeJ0lVg                           0x10002978   Section        0  zksec.o(i.FyG6GBeJ0lVg)
    FyG6GBeJ0lVg                             0x10002979   Thumb Code   408  zksec.o(i.FyG6GBeJ0lVg)
    i.HAL_Delay                              0x10002be4   Section        0  uartupgradedev.o(i.HAL_Delay)
    HAL_Delay                                0x10002be5   Thumb Code     8  uartupgradedev.o(i.HAL_Delay)
    i.HAL_GetTick                            0x10002bec   Section        0  gui_main.o(i.HAL_GetTick)
    i.I_UART_Transmit                        0x10002bf8   Section        0  uartupgradedev.o(i.I_UART_Transmit)
    i.InitQueue                              0x10002c04   Section        0  ring.o(i.InitQueue)
    i.LCD_Fill                               0x10002c24   Section        0  sdl_gfx.o(i.LCD_Fill)
    i.LCD_Set_Window                         0x10002c70   Section        0  sdl_gfx.o(i.LCD_Set_Window)
    LCD_Set_Window                           0x10002c71   Thumb Code   108  sdl_gfx.o(i.LCD_Set_Window)
    i.LCD_WR_DATA                            0x10002ce4   Section        0  sdl_gfx.o(i.LCD_WR_DATA)
    LCD_WR_DATA                              0x10002ce5   Thumb Code    48  sdl_gfx.o(i.LCD_WR_DATA)
    i.LCD_WR_REG                             0x10002d18   Section        0  sdl_gfx.o(i.LCD_WR_REG)
    LCD_WR_REG                               0x10002d19   Thumb Code    48  sdl_gfx.o(i.LCD_WR_REG)
    i.LCD_endWriteMutileData                 0x10002d4c   Section        0  sdl_gfx.o(i.LCD_endWriteMutileData)
    LCD_endWriteMutileData                   0x10002d4d   Thumb Code    24  sdl_gfx.o(i.LCD_endWriteMutileData)
    i.LCD_startWriteMutileData               0x10002d68   Section        0  sdl_gfx.o(i.LCD_startWriteMutileData)
    LCD_startWriteMutileData                 0x10002d69   Thumb Code    26  sdl_gfx.o(i.LCD_startWriteMutileData)
    i.LoadKeyCallbackFunc                    0x10002d84   Section        0  sdl_event.o(i.LoadKeyCallbackFunc)
    i.ModifyQueueFront                       0x10002d90   Section        0  ring.o(i.ModifyQueueFront)
    i.PeekQueue                              0x10002dac   Section        0  ring.o(i.PeekQueue)
    i.QueueCount                             0x10002de8   Section        0  ring.o(i.QueueCount)
    i.QueueEmpty                             0x10002dec   Section        0  ring.o(i.QueueEmpty)
    i.QueueFull                              0x10002dfa   Section        0  ring.o(i.QueueFull)
    i.RRnQEZ5CzfNbBxz                        0x10002e0c   Section        0  zksec.o(i.RRnQEZ5CzfNbBxz)
    i.Rx_CRC_CCITT                           0x10002e80   Section        0  uartupgradedev.o(i.Rx_CRC_CCITT)
    i.UART_Transmit                          0x10002ebc   Section        0  uartcomm.o(i.UART_Transmit)
    i.UmF2CSKI1zR                            0x10002ecc   Section        0  sdl_gfx.o(i.UmF2CSKI1zR)
    i.UserProcKey                            0x10002ef0   Section        0  air.o(i.UserProcKey)
    UserProcKey                              0x10002ef1   Thumb Code   238  air.o(i.UserProcKey)
    i.UserProcKey                            0x10002ff8   Section        0  hot.o(i.UserProcKey)
    UserProcKey                              0x10002ff9   Thumb Code   334  hot.o(i.UserProcKey)
    i.UserProcKey                            0x1000314c   Section        0  wind.o(i.UserProcKey)
    UserProcKey                              0x1000314d   Thumb Code    18  wind.o(i.UserProcKey)
    i.YYYuV3R1FCn                            0x10003160   Section        0  sdl_gfx.o(i.YYYuV3R1FCn)
    i._SDL_fill_rect                         0x10003184   Section        0  sdl_gfx.o(i._SDL_fill_rect)
    i.__0printf                              0x100031d4   Section        0  printfa.o(i.__0printf)
    i.__0vprintf                             0x100031f4   Section        0  printfa.o(i.__0vprintf)
    i.__NVIC_ClearPendingIRQ                 0x10003204   Section        0  uartupgradedev.o(i.__NVIC_ClearPendingIRQ)
    __NVIC_ClearPendingIRQ                   0x10003205   Thumb Code    26  uartupgradedev.o(i.__NVIC_ClearPendingIRQ)
    i.__NVIC_ClearPendingIRQ                 0x1000321e   Section        0  uartcomm.o(i.__NVIC_ClearPendingIRQ)
    __NVIC_ClearPendingIRQ                   0x1000321f   Thumb Code    26  uartcomm.o(i.__NVIC_ClearPendingIRQ)
    i.__NVIC_EnableIRQ                       0x10003238   Section        0  uartupgradedev.o(i.__NVIC_EnableIRQ)
    __NVIC_EnableIRQ                         0x10003239   Thumb Code    26  uartupgradedev.o(i.__NVIC_EnableIRQ)
    i._cal_val                               0x10003252   Section        0  progress.o(i._cal_val)
    _cal_val                                 0x10003253   Thumb Code    74  progress.o(i._cal_val)
    i._do_widget_proc                        0x1000329c   Section        0  guicontext.o(i._do_widget_proc)
    _do_widget_proc                          0x1000329d   Thumb Code    80  guicontext.o(i._do_widget_proc)
    i._draw_font_graph                       0x100032f0   Section        0  label.o(i._draw_font_graph)
    _draw_font_graph                         0x100032f1   Thumb Code   104  label.o(i._draw_font_graph)
    i._dump_val                              0x1000335c   Section        0  guicontext.o(i._dump_val)
    _dump_val                                0x1000335d   Thumb Code    46  guicontext.o(i._dump_val)
    i._fp_digits                             0x100033a4   Section        0  printfa.o(i._fp_digits)
    _fp_digits                               0x100033a5   Thumb Code   366  printfa.o(i._fp_digits)
    i._get_code_data_offset                  0x10003528   Section        0  label.o(i._get_code_data_offset)
    _get_code_data_offset                    0x10003529   Thumb Code    84  label.o(i._get_code_data_offset)
    i._get_lines_height                      0x1000357c   Section        0  label.o(i._get_lines_height)
    _get_lines_height                        0x1000357d   Thumb Code    36  label.o(i._get_lines_height)
    i._get_one_line_width                    0x100035a0   Section        0  label.o(i._get_one_line_width)
    _get_one_line_width                      0x100035a1   Thumb Code    50  label.o(i._get_one_line_width)
    i._load_page                             0x100035d4   Section        0  guicontext.o(i._load_page)
    _load_page                               0x100035d5   Thumb Code   402  guicontext.o(i._load_page)
    i._printf_core                           0x100037e8   Section        0  printfa.o(i._printf_core)
    _printf_core                             0x100037e9   Thumb Code  1744  printfa.o(i._printf_core)
    i._printf_post_padding                   0x10003ec4   Section        0  printfa.o(i._printf_post_padding)
    _printf_post_padding                     0x10003ec5   Thumb Code    36  printfa.o(i._printf_post_padding)
    i._printf_pre_padding                    0x10003ee8   Section        0  printfa.o(i._printf_pre_padding)
    _printf_pre_padding                      0x10003ee9   Thumb Code    46  printfa.o(i._printf_pre_padding)
    i._proc_message                          0x10003f18   Section        0  guicontext.o(i._proc_message)
    _proc_message                            0x10003f19   Thumb Code   176  guicontext.o(i._proc_message)
    i._proc_timer                            0x10003fcc   Section        0  guicontext.o(i._proc_timer)
    _proc_timer                              0x10003fcd   Thumb Code    72  guicontext.o(i._proc_timer)
    i._proc_touch_event                      0x1000401c   Section        0  guicontext.o(i._proc_touch_event)
    _proc_touch_event                        0x1000401d   Thumb Code   104  guicontext.o(i._proc_touch_event)
    i._proc_widget_refresh                   0x10004088   Section        0  guicontext.o(i._proc_widget_refresh)
    _proc_widget_refresh                     0x10004089   Thumb Code   158  guicontext.o(i._proc_widget_refresh)
    i._unload_page                           0x10004134   Section        0  guicontext.o(i._unload_page)
    _unload_page                             0x10004135   Thumb Code    86  guicontext.o(i._unload_page)
    i._update_reg_data                       0x10004194   Section        0  increment.o(i._update_reg_data)
    _update_reg_data                         0x10004195   Thumb Code   100  increment.o(i._update_reg_data)
    i.aQLKY0byY09                            0x100041fc   Section        0  md5.o(i.aQLKY0byY09)
    i.animation_proc                         0x10004220   Section        0  animation.o(i.animation_proc)
    i.animation_start                        0x100042f8   Section        0  animation.o(i.animation_start)
    i.animation_stop                         0x10004302   Section        0  animation.o(i.animation_stop)
    i.app_act_created_ind_func               0x1000430c   Section        0  app_proj_event.o(i.app_act_created_ind_func)
    i.app_act_deleted_ind_func               0x100043e8   Section        0  app_proj_event.o(i.app_act_deleted_ind_func)
    i.app_addr_resolve_result_ind_func       0x10004490   Section        0  app_proj_event.o(i.app_addr_resolve_result_ind_func)
    i.app_adv_complete_ind_func              0x100044b0   Section        0  app_proj_event.o(i.app_adv_complete_ind_func)
    i.app_adv_report_ind_func                0x10004564   Section        0  app_proj_event.o(i.app_adv_report_ind_func)
    i.app_conn_complete_ind_func             0x10004608   Section        0  app_proj_event.o(i.app_conn_complete_ind_func)
    i.app_connection_master_encrypt_compeleted_ind_func 0x100046ac   Section        0  app_proj_event.o(i.app_connection_master_encrypt_compeleted_ind_func)
    i.app_connection_master_encrypted_ind_func 0x10004758   Section        0  app_proj_event.o(i.app_connection_master_encrypted_ind_func)
    i.app_connection_paring_info_ind_func    0x100047ec   Section        0  app_proj_event.o(i.app_connection_paring_info_ind_func)
    i.app_connection_req_ind_func            0x1000488c   Section        0  app_proj_event.o(i.app_connection_req_ind_func)
    i.app_connection_slave_encrypted_ind_func 0x1000492c   Section        0  app_proj_event.o(i.app_connection_slave_encrypted_ind_func)
    i.app_connection_success_ind_func        0x100049c0   Section        0  app_proj_event.o(i.app_connection_success_ind_func)
    i.app_db_init_complete_ind_func          0x10004a60   Section        0  app_proj_event.o(i.app_db_init_complete_ind_func)
    i.app_disconnect_ind_func                0x10004a6c   Section        0  app_proj_event.o(i.app_disconnect_ind_func)
    i.app_gap_evt_cb                         0x10004b14   Section        0  ble_simple_peripheral.o(i.app_gap_evt_cb)
    i.app_get_current_rssi_rsp               0x10004dc8   Section        0  app_task.o(i.app_get_current_rssi_rsp)
    app_get_current_rssi_rsp                 0x10004dc9   Thumb Code    34  app_task.o(i.app_get_current_rssi_rsp)
    i.app_get_handler                        0x10004df0   Section        0  app_task.o(i.app_get_handler)
    app_get_handler                          0x10004df1   Thumb Code    70  app_task.o(i.app_get_handler)
    i.app_get_info_ind_func                  0x10004e38   Section        0  app_proj_event.o(i.app_get_info_ind_func)
    i.app_main                               0x10004e6c   Section        0  entry.o(i.app_main)
    i.app_per_sync_completed_ind_func        0x10005058   Section        0  app_proj_event.o(i.app_per_sync_completed_ind_func)
    i.app_per_sync_established_ind_func      0x100050f4   Section        0  app_proj_event.o(i.app_per_sync_established_ind_func)
    i.app_reset_complete_ind_func            0x1000519c   Section        0  app_proj_event.o(i.app_reset_complete_ind_func)
    i.app_scanning_completed_ind_func        0x100051c8   Section        0  app_proj_event.o(i.app_scanning_completed_ind_func)
    i.app_sec_msg_dflt_handler               0x10005260   Section        0  app_sec.o(i.app_sec_msg_dflt_handler)
    app_sec_msg_dflt_handler                 0x10005261   Thumb Code     4  app_sec.o(i.app_sec_msg_dflt_handler)
    i.app_set_dev_config_complete_ind_func   0x10005264   Section        0  app_proj_event.o(i.app_set_dev_config_complete_ind_func)
    i.app_set_phy_ind_func                   0x10005298   Section        0  app_proj_event.o(i.app_set_phy_ind_func)
    i.app_svc_added_ind_func                 0x10005340   Section        0  app_proj_event.o(i.app_svc_added_ind_func)
    i.app_update_params_complete_ind_func    0x10005354   Section        0  app_proj_event.o(i.app_update_params_complete_ind_func)
    i.app_update_params_rejected_ind_func    0x10005358   Section        0  app_proj_event.o(i.app_update_params_rejected_ind_func)
    i.app_update_params_update_ind_func      0x10005408   Section        0  app_proj_event.o(i.app_update_params_update_ind_func)
    i.app_update_phy_rejected_ind_func       0x100054d4   Section        0  app_proj_event.o(i.app_update_phy_rejected_ind_func)
    i.appm_adv_get_defer_op                  0x1000557c   Section        0  app.o(i.appm_adv_get_defer_op)
    i.appm_adv_recv_gapm_cmp                 0x1000558c   Section        0  app.o(i.appm_adv_recv_gapm_cmp)
    i.appm_adv_set_defer_op                  0x1000576c   Section        0  app.o(i.appm_adv_set_defer_op)
    i.appm_conn_recv_gapm_cmp                0x10005784   Section        0  app_conn.o(i.appm_conn_recv_gapm_cmp)
    i.appm_create_adv_act                    0x100057d8   Section        0  app.o(i.appm_create_adv_act)
    i.appm_create_aux_adv_act                0x100057f0   Section        0  app.o(i.appm_create_aux_adv_act)
    i.appm_create_conn_act                   0x100058a0   Section        0  app.o(i.appm_create_conn_act)
    i.appm_create_legacy_adv_act             0x100058d0   Section        0  app.o(i.appm_create_legacy_adv_act)
    i.appm_create_per_adv_act                0x10005994   Section        0  app.o(i.appm_create_per_adv_act)
    i.appm_create_scan_act                   0x10005a14   Section        0  app.o(i.appm_create_scan_act)
    i.appm_delete_act                        0x10005a58   Section        0  app.o(i.appm_delete_act)
    i.appm_exc_activity_cmp                  0x10005aa4   Section        0  app.o(i.appm_exc_activity_cmp)
    i.appm_execute_activity_cmd              0x10005ae0   Section        0  app.o(i.appm_execute_activity_cmd)
    i.appm_init_imp                          0x10005b24   Section        0  app.o(i.appm_init_imp)
    i.appm_init_imp_for_hci                  0x10005b80   Section        0  app.o(i.appm_init_imp_for_hci)
    i.appm_msg_handler                       0x10005bb0   Section        0  app_task.o(i.appm_msg_handler)
    appm_msg_handler                         0x10005bb1   Thumb Code   160  app_task.o(i.appm_msg_handler)
    i.appm_period_sync_recv_gapm_cmp         0x10005c5c   Section        0  app.o(i.appm_period_sync_recv_gapm_cmp)
    i.appm_scan_recv_gapm_cmp                0x10005ca8   Section        0  app.o(i.appm_scan_recv_gapm_cmp)
    i.appm_set_advertising_data              0x10005cf4   Section        0  app.o(i.appm_set_advertising_data)
    i.appm_set_advertising_param             0x10005e30   Section        0  app.o(i.appm_set_advertising_param)
    i.appm_set_per_adv_data                  0x10005f0c   Section        0  app.o(i.appm_set_per_adv_data)
    i.appm_set_scan_response_data            0x1000600c   Section        0  app.o(i.appm_set_scan_response_data)
    i.appm_start_advertising                 0x10006158   Section        0  app.o(i.appm_start_advertising)
    i.appm_start_conn                        0x10006264   Section        0  app_conn.o(i.appm_start_conn)
    i.appm_stop_advertising                  0x1000637c   Section        0  app.o(i.appm_stop_advertising)
    i.attc_err_rsp_handler                   0x10006434   Section        0  attc.o(i.attc_err_rsp_handler)
    attc_err_rsp_handler                     0x10006435   Thumb Code    14  attc.o(i.attc_err_rsp_handler)
    i.attc_exc_mtu_rsp_handler               0x10006442   Section        0  attc.o(i.attc_exc_mtu_rsp_handler)
    attc_exc_mtu_rsp_handler                 0x10006443   Thumb Code    56  attc.o(i.attc_exc_mtu_rsp_handler)
    i.attc_exe_wr_rsp_handler                0x1000647a   Section        0  attc.o(i.attc_exe_wr_rsp_handler)
    attc_exe_wr_rsp_handler                  0x1000647b   Thumb Code    56  attc.o(i.attc_exe_wr_rsp_handler)
    i.attc_find_by_type_rsp_handler          0x100064b2   Section        0  attc.o(i.attc_find_by_type_rsp_handler)
    attc_find_by_type_rsp_handler            0x100064b3   Thumb Code   172  attc.o(i.attc_find_by_type_rsp_handler)
    i.attc_find_info_rsp_handler             0x1000655e   Section        0  attc.o(i.attc_find_info_rsp_handler)
    attc_find_info_rsp_handler               0x1000655f   Thumb Code   180  attc.o(i.attc_find_info_rsp_handler)
    i.attc_hdl_val_ntf_ind_handler           0x10006614   Section        0  attc.o(i.attc_hdl_val_ntf_ind_handler)
    attc_hdl_val_ntf_ind_handler             0x10006615   Thumb Code   124  attc.o(i.attc_hdl_val_ntf_ind_handler)
    i.attc_l2cc_pdu_recv_handler             0x10006694   Section        0  attc.o(i.attc_l2cc_pdu_recv_handler)
    i.attc_prep_wr_rsp_handler               0x100066ec   Section        0  attc.o(i.attc_prep_wr_rsp_handler)
    attc_prep_wr_rsp_handler                 0x100066ed   Thumb Code    96  attc.o(i.attc_prep_wr_rsp_handler)
    i.attc_rd_by_grp_type_rsp_handler        0x1000674c   Section        0  attc.o(i.attc_rd_by_grp_type_rsp_handler)
    attc_rd_by_grp_type_rsp_handler          0x1000674d   Thumb Code   242  attc.o(i.attc_rd_by_grp_type_rsp_handler)
    i.attc_rd_by_type_rsp_handler            0x10006840   Section        0  attc.o(i.attc_rd_by_type_rsp_handler)
    attc_rd_by_type_rsp_handler              0x10006841   Thumb Code   616  attc.o(i.attc_rd_by_type_rsp_handler)
    i.attc_rd_mult_rsp_handler               0x10006aac   Section        0  attc.o(i.attc_rd_mult_rsp_handler)
    attc_rd_mult_rsp_handler                 0x10006aad   Thumb Code   182  attc.o(i.attc_rd_mult_rsp_handler)
    i.attc_rd_rsp_handler                    0x10006b64   Section        0  attc.o(i.attc_rd_rsp_handler)
    attc_rd_rsp_handler                      0x10006b65   Thumb Code   256  attc.o(i.attc_rd_rsp_handler)
    i.attc_send_att_req                      0x10006c68   Section        0  attc.o(i.attc_send_att_req)
    i.attc_send_execute                      0x10006c98   Section        0  attc.o(i.attc_send_execute)
    i.attc_send_hdl_cfm                      0x10006cc0   Section        0  attc.o(i.attc_send_hdl_cfm)
    i.attc_send_read_ind                     0x10006ce4   Section        0  attc.o(i.attc_send_read_ind)
    i.attc_wr_rsp_handler                    0x10006dcc   Section        0  attc.o(i.attc_wr_rsp_handler)
    attc_wr_rsp_handler                      0x10006dcd   Thumb Code    32  attc.o(i.attc_wr_rsp_handler)
    i.attm_att_set_value                     0x10006dec   Section        0  attm.o(i.attm_att_set_value)
    i.attm_att_update_perm                   0x10006e98   Section        0  attm.o(i.attm_att_update_perm)
    i.attm_convert_to128                     0x10006f00   Section        0  attm.o(i.attm_convert_to128)
    i.attm_get_value                         0x10006f40   Section        0  attm.o(i.attm_get_value)
    i.attm_init                              0x100070bc   Section        0  attm.o(i.attm_init)
    i.attm_is_bt16_uuid                      0x100070d0   Section        0  attm.o(i.attm_is_bt16_uuid)
    i.attm_is_bt32_uuid                      0x100070d4   Section        0  attm.o(i.attm_is_bt32_uuid)
    i.attm_svc_create_db                     0x100070d8   Section        0  attm.o(i.attm_svc_create_db)
    i.attm_svc_create_db_ext                 0x100071d8   Section        0  attm.o(i.attm_svc_create_db_ext)
    i.attm_svc_get_permission                0x1000733c   Section        0  attm.o(i.attm_svc_get_permission)
    i.attm_uuid16_comp                       0x10007358   Section        0  attm.o(i.attm_uuid16_comp)
    i.attm_uuid_comp                         0x10007364   Section        0  attm.o(i.attm_uuid_comp)
    i.attmdb_add_service                     0x100073bc   Section        0  attm_db.o(i.attmdb_add_service)
    i.attmdb_att_get_permission              0x10007430   Section        0  attm_db.o(i.attmdb_att_get_permission)
    i.attmdb_destroy                         0x10007540   Section        0  attm_db.o(i.attmdb_destroy)
    i.attmdb_get_attribute                   0x10007560   Section        0  attm_db.o(i.attmdb_get_attribute)
    i.attmdb_get_max_len                     0x10007594   Section        0  attm_db.o(i.attmdb_get_max_len)
    i.attmdb_get_next_att                    0x100075f0   Section        0  attm_db.o(i.attmdb_get_next_att)
    i.attmdb_get_service                     0x10007668   Section        0  attm_db.o(i.attmdb_get_service)
    i.attmdb_get_uuid                        0x100076b0   Section        0  attm_db.o(i.attmdb_get_uuid)
    i.attmdb_svc_calc_len                    0x10007786   Section        0  attm_db.o(i.attmdb_svc_calc_len)
    attmdb_svc_calc_len                      0x10007787   Thumb Code   452  attm_db.o(i.attmdb_svc_calc_len)
    i.attmdb_svc_check_hdl                   0x1000794c   Section        0  attm_db.o(i.attmdb_svc_check_hdl)
    i.attmdb_svc_init                        0x100079a0   Section        0  attm_db.o(i.attmdb_svc_init)
    attmdb_svc_init                          0x100079a1   Thumb Code   458  attm_db.o(i.attmdb_svc_init)
    i.attmdb_uuid16_comp                     0x10007b6a   Section        0  attm_db.o(i.attmdb_uuid16_comp)
    i.atts_check_length_and_offset           0x10007ba4   Section        0  atts.o(i.atts_check_length_and_offset)
    atts_check_length_and_offset             0x10007ba5   Thumb Code    44  atts.o(i.atts_check_length_and_offset)
    i.atts_clear_prep_data                   0x10007bd0   Section        0  atts.o(i.atts_clear_prep_data)
    i.atts_clear_read_cache                  0x10007bf4   Section        0  atts.o(i.atts_clear_read_cache)
    i.atts_clear_rsp_data                    0x10007c18   Section        0  atts.o(i.atts_clear_rsp_data)
    i.atts_execute_write_req                 0x10007c3c   Section        0  atts.o(i.atts_execute_write_req)
    atts_execute_write_req                   0x10007c3d   Thumb Code   372  atts.o(i.atts_execute_write_req)
    i.atts_find_by_type_req                  0x10007db4   Section        0  atts.o(i.atts_find_by_type_req)
    atts_find_by_type_req                    0x10007db5   Thumb Code   386  atts.o(i.atts_find_by_type_req)
    i.atts_find_end                          0x10007f3c   Section        0  atts.o(i.atts_find_end)
    atts_find_end                            0x10007f3d   Thumb Code   122  atts.o(i.atts_find_end)
    i.atts_find_info_req                     0x10007fb8   Section        0  atts.o(i.atts_find_info_req)
    atts_find_info_req                       0x10007fb9   Thumb Code   322  atts.o(i.atts_find_info_req)
    i.atts_find_value_by_uuid                0x10008100   Section        0  atts.o(i.atts_find_value_by_uuid)
    atts_find_value_by_uuid                  0x10008101   Thumb Code   152  atts.o(i.atts_find_value_by_uuid)
    i.atts_get_att_chk_perm                  0x10008198   Section        0  atts.o(i.atts_get_att_chk_perm)
    atts_get_att_chk_perm                    0x10008199   Thumb Code   148  atts.o(i.atts_get_att_chk_perm)
    i.atts_get_dest_task                     0x10008230   Section        0  atts.o(i.atts_get_dest_task)
    atts_get_dest_task                       0x10008231   Thumb Code    26  atts.o(i.atts_get_dest_task)
    i.atts_get_value                         0x1000824c   Section        0  atts.o(i.atts_get_value)
    atts_get_value                           0x1000824d   Thumb Code   126  atts.o(i.atts_get_value)
    i.atts_l2cc_pdu_recv_handler             0x100082d0   Section        0  atts.o(i.atts_l2cc_pdu_recv_handler)
    i.atts_mtu_exc_req                       0x10008374   Section        0  atts.o(i.atts_mtu_exc_req)
    atts_mtu_exc_req                         0x10008375   Thumb Code    66  atts.o(i.atts_mtu_exc_req)
    i.atts_prepare_write_req                 0x100083b8   Section        0  atts.o(i.atts_prepare_write_req)
    atts_prepare_write_req                   0x100083b9   Thumb Code   244  atts.o(i.atts_prepare_write_req)
    i.atts_process_pdu                       0x100084b0   Section        0  atts.o(i.atts_process_pdu)
    i.atts_read_blob_req                     0x10008524   Section        0  atts.o(i.atts_read_blob_req)
    atts_read_blob_req                       0x10008525   Thumb Code   186  atts.o(i.atts_read_blob_req)
    i.atts_read_by_grp_type_req              0x100085e0   Section        0  atts.o(i.atts_read_by_grp_type_req)
    atts_read_by_grp_type_req                0x100085e1   Thumb Code   442  atts.o(i.atts_read_by_grp_type_req)
    i.atts_read_by_type_req                  0x100087a0   Section        0  atts.o(i.atts_read_by_type_req)
    atts_read_by_type_req                    0x100087a1   Thumb Code   420  atts.o(i.atts_read_by_type_req)
    i.atts_read_mult_req                     0x10008948   Section        0  atts.o(i.atts_read_mult_req)
    atts_read_mult_req                       0x10008949   Thumb Code   284  atts.o(i.atts_read_mult_req)
    i.atts_read_req                          0x10008a68   Section        0  atts.o(i.atts_read_req)
    atts_read_req                            0x10008a69   Thumb Code   156  atts.o(i.atts_read_req)
    i.atts_send_error                        0x10008b04   Section        0  atts.o(i.atts_send_error)
    i.atts_send_event                        0x10008b2c   Section        0  atts.o(i.atts_send_event)
    i.atts_store_prep_data                   0x10008bbc   Section        0  atts.o(i.atts_store_prep_data)
    atts_store_prep_data                     0x10008bbd   Thumb Code   116  atts.o(i.atts_store_prep_data)
    i.atts_update_elmt                       0x10008c34   Section        0  atts.o(i.atts_update_elmt)
    atts_update_elmt                         0x10008c35   Thumb Code    68  atts.o(i.atts_update_elmt)
    i.atts_write_cmd                         0x10008c78   Section        0  atts.o(i.atts_write_cmd)
    atts_write_cmd                           0x10008c79   Thumb Code    62  atts.o(i.atts_write_cmd)
    i.atts_write_req                         0x10008cb6   Section        0  atts.o(i.atts_write_req)
    atts_write_req                           0x10008cb7   Thumb Code    78  atts.o(i.atts_write_req)
    i.atts_write_rsp_send                    0x10008d04   Section        0  atts.o(i.atts_write_rsp_send)
    i.atts_write_signed                      0x10008d32   Section        0  atts.o(i.atts_write_signed)
    atts_write_signed                        0x10008d33   Thumb Code   122  atts.o(i.atts_write_signed)
    i.atts_write_signed_cfm                  0x10008dac   Section        0  atts.o(i.atts_write_signed_cfm)
    i.ble_add_svc                            0x10008de8   Section        0  app.o(i.ble_add_svc)
    i.ble_bond_addr_resolve_cb               0x10008e20   Section        0  user_bond_manage.o(i.ble_bond_addr_resolve_cb)
    ble_bond_addr_resolve_cb                 0x10008e21   Thumb Code   144  user_bond_manage.o(i.ble_bond_addr_resolve_cb)
    i.ble_bond_check                         0x10008f0c   Section        0  user_bond_manage.o(i.ble_bond_check)
    i.ble_bond_get_info                      0x10009098   Section        0  user_bond_manage.o(i.ble_bond_get_info)
    i.ble_bond_init                          0x100091d8   Section        0  user_bond_manage.o(i.ble_bond_init)
    i.ble_bond_read_info_from_flash          0x1000929c   Section        0  user_bond_manage.o(i.ble_bond_read_info_from_flash)
    i.ble_bond_store_info                    0x10009338   Section        0  user_bond_manage.o(i.ble_bond_store_info)
    i.ble_bond_write_info_to_flash           0x1000953c   Section        0  user_bond_manage.o(i.ble_bond_write_info_to_flash)
    i.ble_gap_set_dev_config                 0x1000960c   Section        0  app.o(i.ble_gap_set_dev_config)
    i.ble_sec_check_ediv_rand                0x100096ac   Section        0  app_sec.o(i.ble_sec_check_ediv_rand)
    i.ble_sec_get_bond_status                0x100096f4   Section        0  app_sec.o(i.ble_sec_get_bond_status)
    i.ble_sec_init                           0x10009700   Section        0  app_sec.o(i.ble_sec_init)
    i.ble_sec_resolve_address                0x10009774   Section        0  app_sec.o(i.ble_sec_resolve_address)
    i.ble_sec_set_pairing_param              0x100097bc   Section        0  app_sec.o(i.ble_sec_set_pairing_param)
    i.ble_set_evt_func                       0x100097cc   Section        0  app.o(i.ble_set_evt_func)
    i.ble_stack_configure                    0x100097e0   Section        0  jump_table_host.o(i.ble_stack_configure)
    i.ble_stack_init                         0x10009914   Section        0  app.o(i.ble_stack_init)
    i.block_get_next                         0x100099a4   Section        0  fy_mem.o(i.block_get_next)
    block_get_next                           0x100099a5   Thumb Code    24  fy_mem.o(i.block_get_next)
    i.block_trunc                            0x100099c4   Section        0  fy_mem.o(i.block_trunc)
    block_trunc                              0x100099c5   Thumb Code    68  fy_mem.o(i.block_trunc)
    i.button_proc                            0x10009a08   Section        0  button.o(i.button_proc)
    i.calc                                   0x10009a98   Section        0  md5.o(i.calc)
    calc                                     0x10009a99   Thumb Code  1912  md5.o(i.calc)
    i.calib_meter_evt_end                    0x1000a288   Section        0  adv_check_mode.o(i.calib_meter_evt_end)
    i.calib_meter_recv_msg                   0x1000a28a   Section        0  adv_check_mode.o(i.calib_meter_recv_msg)
    i.check_timer_handle                     0x1000a28c   Section        0  os_timer.o(i.check_timer_handle)
    i.checkaes                               0x1000a3ac   Section        0  zksec.o(i.checkaes)
    i.cmdack                                 0x1000a424   Section        0  uartcomm.o(i.cmdack)
    i.deinitdev                              0x1000a430   Section        0  uartupgradedev.o(i.deinitdev)
    deinitdev                                0x1000a431   Thumb Code     2  uartupgradedev.o(i.deinitdev)
    i.deinitdev                              0x1000a432   Section        0  uartcomm.o(i.deinitdev)
    deinitdev                                0x1000a433   Thumb Code     2  uartcomm.o(i.deinitdev)
    i.dev_timer0_init                        0x1000a434   Section        0  gui_main.o(i.dev_timer0_init)
    i.dgus_cmdpro                            0x1000a474   Section        0  dgus_cmd.o(i.dgus_cmdpro)
    i.disableDisplay                         0x1000a6c8   Section        0  uartupgradedev.o(i.disableDisplay)
    i.dma_init                               0x1000a6fc   Section        0  driver_dma.o(i.dma_init)
    i.enableDisplay                          0x1000a800   Section        0  uartupgradedev.o(i.enableDisplay)
    i.enter_light_page                       0x1000a806   Section        0  other_app.o(i.enter_light_page)
    i.event_deinit                           0x1000a808   Section        0  sdl_event.o(i.event_deinit)
    i.event_init                             0x1000a80c   Section        0  sdl_event.o(i.event_init)
    i.event_poll                             0x1000a85c   Section        0  sdl_event.o(i.event_poll)
    i.exti_isr                               0x1000a8e4   Section        0  sdl_event.o(i.exti_isr)
    i.flush_flash                            0x1000a8e8   Section        0  uartupgradedev.o(i.flush_flash)
    i.from_task_func_to_msg_handle           0x1000a964   Section        0  os_task.o(i.from_task_func_to_msg_handle)
    i.fy_bits_counts_of_one                  0x1000a988   Section        0  fy_bits.o(i.fy_bits_counts_of_one)
    i.fy_bits_counts_of_one_c                0x1000a9b0   Section        0  imgtext_scroll.o(i.fy_bits_counts_of_one_c)
    fy_bits_counts_of_one_c                  0x1000a9b1   Thumb Code    40  imgtext_scroll.o(i.fy_bits_counts_of_one_c)
    i.fy_flash_page_write                    0x1000a9d8   Section        0  uartupgradedev.o(i.fy_flash_page_write)
    i.fy_mem_alloc                           0x1000aa6c   Section        0  fy_mem.o(i.fy_mem_alloc)
    i.fy_mem_defrag                          0x1000aadc   Section        0  fy_mem.o(i.fy_mem_defrag)
    i.fy_mem_free                            0x1000ab24   Section        0  fy_mem.o(i.fy_mem_free)
    i.fy_mem_init                            0x1000ab78   Section        0  fy_mem.o(i.fy_mem_init)
    i.gap_address_get                        0x1000abb4   Section        0  gap_api.o(i.gap_address_get)
    i.gap_address_set                        0x1000abd4   Section        0  gap_api.o(i.gap_address_set)
    i.gap_bond_manager_init                  0x1000ac00   Section        0  gap_api.o(i.gap_bond_manager_init)
    i.gap_dev_name_get                       0x1000ac04   Section        0  gap_api.o(i.gap_dev_name_get)
    i.gap_dev_name_set                       0x1000ac1c   Section        0  gap_api.o(i.gap_dev_name_set)
    i.gap_disconnect_req                     0x1000ac38   Section        0  gap_api.o(i.gap_disconnect_req)
    i.gap_get_connect_num                    0x1000accc   Section        0  gap_api.o(i.gap_get_connect_num)
    i.gap_get_connect_status                 0x1000acec   Section        0  gap_api.o(i.gap_get_connect_status)
    i.gap_get_dev_appearance                 0x1000acfc   Section        0  gap_api.o(i.gap_get_dev_appearance)
    i.gap_paring_req_cb                      0x1000ad08   Section        0  app_sec.o(i.gap_paring_req_cb)
    gap_paring_req_cb                        0x1000ad09   Thumb Code   108  app_sec.o(i.gap_paring_req_cb)
    i.gap_security_param_init                0x1000ad78   Section        0  gap_api.o(i.gap_security_param_init)
    i.gap_set_advertising_data               0x1000ad7c   Section        0  gap_api.o(i.gap_set_advertising_data)
    i.gap_set_advertising_param              0x1000ad86   Section        0  gap_api.o(i.gap_set_advertising_param)
    i.gap_set_advertising_rsp_data           0x1000ad8e   Section        0  gap_api.o(i.gap_set_advertising_rsp_data)
    i.gap_set_cb_func                        0x1000ad98   Section        0  gap_api.o(i.gap_set_cb_func)
    i.gap_set_dev_appearance                 0x1000ada4   Section        0  gap_api.o(i.gap_set_dev_appearance)
    i.gap_start_advertising                  0x1000adb0   Section        0  gap_api.o(i.gap_start_advertising)
    i.gapc_auth_get                          0x1000adb8   Section        0  gapc.o(i.gapc_auth_get)
    i.gapc_auth_set                          0x1000adfc   Section        0  gapc.o(i.gapc_auth_set)
    i.gapc_bond_cfm_handler                  0x1000ae60   Section        0  gapc_task.o(i.gapc_bond_cfm_handler)
    gapc_bond_cfm_handler                    0x1000ae61   Thumb Code   220  gapc_task.o(i.gapc_bond_cfm_handler)
    i.gapc_bond_cmd_handler                  0x1000af40   Section        0  gapc_task.o(i.gapc_bond_cmd_handler)
    gapc_bond_cmd_handler                    0x1000af41   Thumb Code    88  gapc_task.o(i.gapc_bond_cmd_handler)
    i.gapc_bond_ind_handler                  0x1000af9c   Section        0  app_sec.o(i.gapc_bond_ind_handler)
    gapc_bond_ind_handler                    0x1000af9d   Thumb Code   338  app_sec.o(i.gapc_bond_ind_handler)
    i.gapc_bond_req_ind_handler              0x1000b198   Section        0  app_sec.o(i.gapc_bond_req_ind_handler)
    gapc_bond_req_ind_handler                0x1000b199   Thumb Code   436  app_sec.o(i.gapc_bond_req_ind_handler)
    i.gapc_cleanup                           0x1000b3b4   Section        0  gapc.o(i.gapc_cleanup)
    gapc_cleanup                             0x1000b3b5   Thumb Code   122  gapc.o(i.gapc_cleanup)
    i.gapc_cmp_evt_handler                   0x1000b434   Section        0  app_task.o(i.gapc_cmp_evt_handler)
    gapc_cmp_evt_handler                     0x1000b435   Thumb Code   116  app_task.o(i.gapc_cmp_evt_handler)
    i.gapc_cmp_evt_handler                   0x1000b4f8   Section        0  gapc_task.o(i.gapc_cmp_evt_handler)
    gapc_cmp_evt_handler                     0x1000b4f9   Thumb Code     4  gapc_task.o(i.gapc_cmp_evt_handler)
    i.gapc_cmp_evt_handler                   0x1000b4fc   Section        0  gattc_task.o(i.gapc_cmp_evt_handler)
    gapc_cmp_evt_handler                     0x1000b4fd   Thumb Code    54  gattc_task.o(i.gapc_cmp_evt_handler)
    i.gapc_cmp_evt_handler                   0x1000b538   Section        0  gapm_init.o(i.gapc_cmp_evt_handler)
    i.gapc_con_cleanup                       0x1000b59c   Section        0  gapc.o(i.gapc_con_cleanup)
    i.gapc_con_create                        0x1000b5ac   Section        0  gapc.o(i.gapc_con_create)
    i.gapc_connection_cfm_handler            0x1000b724   Section        0  gapc_task.o(i.gapc_connection_cfm_handler)
    gapc_connection_cfm_handler              0x1000b725   Thumb Code   126  gapc_task.o(i.gapc_connection_cfm_handler)
    i.gapc_connection_req_ind_handler        0x1000b7a8   Section        0  app_task.o(i.gapc_connection_req_ind_handler)
    gapc_connection_req_ind_handler          0x1000b7a9   Thumb Code   104  app_task.o(i.gapc_connection_req_ind_handler)
    i.gapc_connection_send_cfm               0x1000b81c   Section        0  app_task.o(i.gapc_connection_send_cfm)
    i.gapc_default_msg_handler               0x1000b864   Section        0  gapc_task.o(i.gapc_default_msg_handler)
    gapc_default_msg_handler                 0x1000b865   Thumb Code     4  gapc_task.o(i.gapc_default_msg_handler)
    i.gapc_disconnect_cmd_handler            0x1000b868   Section        0  gapc_task.o(i.gapc_disconnect_cmd_handler)
    gapc_disconnect_cmd_handler              0x1000b869   Thumb Code   108  gapc_task.o(i.gapc_disconnect_cmd_handler)
    i.gapc_disconnect_ind_handler            0x1000b8d8   Section        0  app_task.o(i.gapc_disconnect_ind_handler)
    gapc_disconnect_ind_handler              0x1000b8d9   Thumb Code    36  app_task.o(i.gapc_disconnect_ind_handler)
    i.gapc_enc_keysize_get                   0x1000b900   Section        0  gapc.o(i.gapc_enc_keysize_get)
    i.gapc_enc_keysize_set                   0x1000b91c   Section        0  gapc.o(i.gapc_enc_keysize_set)
    i.gapc_encrypt_cfm_handler               0x1000b934   Section        0  gapc_task.o(i.gapc_encrypt_cfm_handler)
    gapc_encrypt_cfm_handler                 0x1000b935   Thumb Code    54  gapc_task.o(i.gapc_encrypt_cfm_handler)
    i.gapc_encrypt_cmd_handler               0x1000b96c   Section        0  gapc_task.o(i.gapc_encrypt_cmd_handler)
    gapc_encrypt_cmd_handler                 0x1000b96d   Thumb Code    88  gapc_task.o(i.gapc_encrypt_cmd_handler)
    i.gapc_encrypt_ind_handler               0x1000b9c8   Section        0  app_sec.o(i.gapc_encrypt_ind_handler)
    gapc_encrypt_ind_handler                 0x1000b9c9   Thumb Code    32  app_sec.o(i.gapc_encrypt_ind_handler)
    i.gapc_encrypt_req_ind_handler           0x1000b9ec   Section        0  app_sec.o(i.gapc_encrypt_req_ind_handler)
    gapc_encrypt_req_ind_handler             0x1000b9ed   Thumb Code   132  app_sec.o(i.gapc_encrypt_req_ind_handler)
    i.gapc_gen_dh_key_ind_handler            0x1000babc   Section        0  gapc_task.o(i.gapc_gen_dh_key_ind_handler)
    gapc_gen_dh_key_ind_handler              0x1000babd   Thumb Code    28  gapc_task.o(i.gapc_gen_dh_key_ind_handler)
    i.gapc_get_bdaddr                        0x1000bad8   Section        0  gapc.o(i.gapc_get_bdaddr)
    i.gapc_get_chan_sel_algo                 0x1000bafc   Section        0  gapc.o(i.gapc_get_chan_sel_algo)
    i.gapc_get_conhdl                        0x1000bb14   Section        0  gapc.o(i.gapc_get_conhdl)
    i.gapc_get_conidx_imp                    0x1000bb3c   Section        0  gapc.o(i.gapc_get_conidx_imp)
    i.gapc_get_csrk                          0x1000bb74   Section        0  gapc.o(i.gapc_get_csrk)
    i.gapc_get_dest_task                     0x1000bb98   Section        0  gapc.o(i.gapc_get_dest_task)
    i.gapc_get_dev_info_cfm_handler          0x1000bba8   Section        0  gapc_task.o(i.gapc_get_dev_info_cfm_handler)
    gapc_get_dev_info_cfm_handler            0x1000bba9   Thumb Code   186  gapc_task.o(i.gapc_get_dev_info_cfm_handler)
    i.gapc_get_dev_info_req_ind_handler      0x1000bc62   Section        0  app_task.o(i.gapc_get_dev_info_req_ind_handler)
    gapc_get_dev_info_req_ind_handler        0x1000bc63   Thumb Code   108  app_task.o(i.gapc_get_dev_info_req_ind_handler)
    i.gapc_get_info_cmd_handler              0x1000bcd0   Section        0  gapc_task.o(i.gapc_get_info_cmd_handler)
    gapc_get_info_cmd_handler                0x1000bcd1   Thumb Code   300  gapc_task.o(i.gapc_get_info_cmd_handler)
    i.gapc_get_operation                     0x1000be08   Section        0  gapc.o(i.gapc_get_operation)
    i.gapc_get_operation_ptr                 0x1000be24   Section        0  gapc.o(i.gapc_get_operation_ptr)
    i.gapc_get_requester                     0x1000be34   Section        0  gapc.o(i.gapc_get_requester)
    i.gapc_get_role                          0x1000be54   Section        0  gapc.o(i.gapc_get_role)
    i.gapc_get_sign_counter                  0x1000be74   Section        0  gapc.o(i.gapc_get_sign_counter)
    i.gapc_hci_handler                       0x1000be98   Section        0  gapc_hci.o(i.gapc_hci_handler)
    i.gapc_init                              0x1000befc   Section        0  gapc.o(i.gapc_init)
    i.gapc_is_disc_connection                0x1000bf48   Section        0  gapc.o(i.gapc_is_disc_connection)
    i.gapc_is_sec_set                        0x1000bf4c   Section        0  gapc.o(i.gapc_is_sec_set)
    i.gapc_key_press_notification_cmd_handler 0x1000bf8c   Section        0  gapc_task.o(i.gapc_key_press_notification_cmd_handler)
    gapc_key_press_notification_cmd_handler  0x1000bf8d   Thumb Code   104  gapc_task.o(i.gapc_key_press_notification_cmd_handler)
    i.gapc_link_encrypted                    0x1000bffc   Section        0  gapc.o(i.gapc_link_encrypted)
    i.gapc_lk_sec_lvl_get                    0x1000c024   Section        0  gapc.o(i.gapc_lk_sec_lvl_get)
    i.gapc_operation_cleanup                 0x1000c050   Section        0  gapc.o(i.gapc_operation_cleanup)
    gapc_operation_cleanup                   0x1000c051   Thumb Code    92  gapc.o(i.gapc_operation_cleanup)
    i.gapc_param_update_cfm_handler          0x1000c0b0   Section        0  gapc_task.o(i.gapc_param_update_cfm_handler)
    gapc_param_update_cfm_handler            0x1000c0b1   Thumb Code   256  gapc_task.o(i.gapc_param_update_cfm_handler)
    i.gapc_param_update_cmd_handler          0x1000c1b4   Section        0  gapc_task.o(i.gapc_param_update_cmd_handler)
    gapc_param_update_cmd_handler            0x1000c1b5   Thumb Code   276  gapc_task.o(i.gapc_param_update_cmd_handler)
    i.gapc_param_update_req_ind_handler      0x1000c2d0   Section        0  app_task.o(i.gapc_param_update_req_ind_handler)
    gapc_param_update_req_ind_handler        0x1000c2d1   Thumb Code   130  app_task.o(i.gapc_param_update_req_ind_handler)
    i.gapc_param_update_sanity               0x1000c35c   Section        0  gapc.o(i.gapc_param_update_sanity)
    i.gapc_peer_att_info_ind_handler         0x1000c384   Section        0  gapm_init.o(i.gapc_peer_att_info_ind_handler)
    i.gapc_peer_features_ind_handler         0x1000c3e8   Section        0  app_task.o(i.gapc_peer_features_ind_handler)
    gapc_peer_features_ind_handler           0x1000c3e9   Thumb Code    14  app_task.o(i.gapc_peer_features_ind_handler)
    i.gapc_peer_ver_ind_handler              0x1000c3f8   Section        0  app_task.o(i.gapc_peer_ver_ind_handler)
    gapc_peer_ver_ind_handler                0x1000c3f9   Thumb Code    46  app_task.o(i.gapc_peer_ver_ind_handler)
    i.gapc_process_op                        0x1000c42c   Section        0  gapc_task.o(i.gapc_process_op)
    i.gapc_reschedule_operation              0x1000c4b8   Section        0  gapc.o(i.gapc_reschedule_operation)
    i.gapc_security_cmd_handler              0x1000c4f4   Section        0  gapc_task.o(i.gapc_security_cmd_handler)
    gapc_security_cmd_handler                0x1000c4f5   Thumb Code    68  gapc_task.o(i.gapc_security_cmd_handler)
    i.gapc_security_ind_handler              0x1000c53c   Section        0  app_sec.o(i.gapc_security_ind_handler)
    gapc_security_ind_handler                0x1000c53d   Thumb Code    78  app_sec.o(i.gapc_security_ind_handler)
    i.gapc_send_complete_evt                 0x1000c5c8   Section        0  gapc.o(i.gapc_send_complete_evt)
    i.gapc_send_disconect_ind                0x1000c628   Section        0  gapc.o(i.gapc_send_disconect_ind)
    i.gapc_send_error_evt                    0x1000c64e   Section        0  gapc.o(i.gapc_send_error_evt)
    i.gapc_set_dev_info_cfm_handler          0x1000c674   Section        0  gapc_task.o(i.gapc_set_dev_info_cfm_handler)
    gapc_set_dev_info_cfm_handler            0x1000c675   Thumb Code    78  gapc_task.o(i.gapc_set_dev_info_cfm_handler)
    i.gapc_set_dev_info_req_ind_handler      0x1000c6c2   Section        0  app_task.o(i.gapc_set_dev_info_req_ind_handler)
    gapc_set_dev_info_req_ind_handler        0x1000c6c3   Thumb Code    60  app_task.o(i.gapc_set_dev_info_req_ind_handler)
    i.gapc_set_le_ping_to_handler            0x1000c700   Section        0  gapc_task.o(i.gapc_set_le_ping_to_handler)
    gapc_set_le_ping_to_handler              0x1000c701   Thumb Code    70  gapc_task.o(i.gapc_set_le_ping_to_handler)
    i.gapc_set_le_pkt_size_handler           0x1000c74c   Section        0  gapc_task.o(i.gapc_set_le_pkt_size_handler)
    gapc_set_le_pkt_size_handler             0x1000c74d   Thumb Code    74  gapc_task.o(i.gapc_set_le_pkt_size_handler)
    i.gapc_set_local_addr                    0x1000c79c   Section        0  gapc.o(i.gapc_set_local_addr)
    i.gapc_set_operation_ptr                 0x1000c7c0   Section        0  gapc.o(i.gapc_set_operation_ptr)
    i.gapc_set_phy_cmd_handler               0x1000c7d0   Section        0  gapc_task.o(i.gapc_set_phy_cmd_handler)
    gapc_set_phy_cmd_handler                 0x1000c7d1   Thumb Code   104  gapc_task.o(i.gapc_set_phy_cmd_handler)
    i.gapc_set_pref_slave_latency_cmd_handler 0x1000c83c   Section        0  gapc_task.o(i.gapc_set_pref_slave_latency_cmd_handler)
    gapc_set_pref_slave_latency_cmd_handler  0x1000c83d   Thumb Code    70  gapc_task.o(i.gapc_set_pref_slave_latency_cmd_handler)
    i.gapc_sig_pdu_recv_handler              0x1000c888   Section        0  gapc_sig.o(i.gapc_sig_pdu_recv_handler)
    i.gapc_sig_send_param_resp               0x1000c8c4   Section        0  gapc_sig.o(i.gapc_sig_send_param_resp)
    i.gapc_sign_cmd_handler                  0x1000c8e8   Section        0  gapc_task.o(i.gapc_sign_cmd_handler)
    gapc_sign_cmd_handler                    0x1000c8e9   Thumb Code    54  gapc_task.o(i.gapc_sign_cmd_handler)
    i.gapc_sign_ind_handler                  0x1000c924   Section        0  gattc_task.o(i.gapc_sign_ind_handler)
    gapc_sign_ind_handler                    0x1000c925   Thumb Code   138  gattc_task.o(i.gapc_sign_ind_handler)
    i.gapc_smp_rep_attempts_timer_handler    0x1000c9b0   Section        0  gapc_task.o(i.gapc_smp_rep_attempts_timer_handler)
    gapc_smp_rep_attempts_timer_handler      0x1000c9b1   Thumb Code    44  gapc_task.o(i.gapc_smp_rep_attempts_timer_handler)
    i.gapc_smp_timeout_timer_ind_handler     0x1000c9e0   Section        0  gapc_task.o(i.gapc_smp_timeout_timer_ind_handler)
    gapc_smp_timeout_timer_ind_handler       0x1000c9e1   Thumb Code    64  gapc_task.o(i.gapc_smp_timeout_timer_ind_handler)
    i.gapc_svc_chg_ccc_get                   0x1000ca24   Section        0  gapc.o(i.gapc_svc_chg_ccc_get)
    i.gapc_svc_chg_ccc_set                   0x1000ca38   Section        0  gapc.o(i.gapc_svc_chg_ccc_set)
    i.gapc_update_conn_param_to_ind_handler  0x1000ca54   Section        0  gapc_task.o(i.gapc_update_conn_param_to_ind_handler)
    gapc_update_conn_param_to_ind_handler    0x1000ca55   Thumb Code    68  gapc_task.o(i.gapc_update_conn_param_to_ind_handler)
    i.gapc_update_state                      0x1000ca98   Section        0  gapc.o(i.gapc_update_state)
    i.gapm_activity_create_cmd_handler       0x1000cacc   Section        0  gapm_actv.o(i.gapm_activity_create_cmd_handler)
    i.gapm_activity_created_ind_handler      0x1000cb98   Section        0  app_task.o(i.gapm_activity_created_ind_handler)
    gapm_activity_created_ind_handler        0x1000cb99   Thumb Code    60  app_task.o(i.gapm_activity_created_ind_handler)
    i.gapm_activity_delete_cmd_handler       0x1000cbd8   Section        0  gapm_actv.o(i.gapm_activity_delete_cmd_handler)
    i.gapm_activity_start_cmd_handler        0x1000cc54   Section        0  gapm_actv.o(i.gapm_activity_start_cmd_handler)
    i.gapm_activity_stop_cmd_handler         0x1000ccc8   Section        0  gapm_actv.o(i.gapm_activity_stop_cmd_handler)
    i.gapm_activity_stopped_ind_handler      0x1000cd38   Section        0  app_task.o(i.gapm_activity_stopped_ind_handler)
    gapm_activity_stopped_ind_handler        0x1000cd39   Thumb Code   116  app_task.o(i.gapm_activity_stopped_ind_handler)
    i.gapm_actv_alloc                        0x1000cdb4   Section        0  gapm_actv.o(i.gapm_actv_alloc)
    i.gapm_actv_created                      0x1000cde4   Section        0  gapm_actv.o(i.gapm_actv_created)
    i.gapm_actv_deleted                      0x1000ce48   Section        0  gapm_actv.o(i.gapm_actv_deleted)
    i.gapm_actv_free                         0x1000ce90   Section        0  gapm_actv.o(i.gapm_actv_free)
    gapm_actv_free                           0x1000ce91   Thumb Code    50  gapm_actv.o(i.gapm_actv_free)
    i.gapm_actv_get_hci_own_addr_type        0x1000cec8   Section        0  gapm_actv.o(i.gapm_actv_get_hci_own_addr_type)
    i.gapm_actv_get_next                     0x1000cee8   Section        0  gapm_actv.o(i.gapm_actv_get_next)
    gapm_actv_get_next                       0x1000cee9   Thumb Code    44  gapm_actv.o(i.gapm_actv_get_next)
    i.gapm_actv_init                         0x1000cf1c   Section        0  gapm_actv.o(i.gapm_actv_init)
    i.gapm_actv_rand_addr_set_ind            0x1000cf70   Section        0  gapm_actv.o(i.gapm_actv_rand_addr_set_ind)
    i.gapm_actv_retrieve_cmd_cmp_evt         0x1000cf8c   Section        0  gapm_actv.o(i.gapm_actv_retrieve_cmd_cmp_evt)
    i.gapm_actv_send_stopped_ind             0x1000cfc0   Section        0  gapm_actv.o(i.gapm_actv_send_stopped_ind)
    gapm_actv_send_stopped_ind               0x1000cfc1   Thumb Code    42  gapm_actv.o(i.gapm_actv_send_stopped_ind)
    i.gapm_actv_started                      0x1000cfec   Section        0  gapm_actv.o(i.gapm_actv_started)
    i.gapm_actv_stopped                      0x1000d018   Section        0  gapm_actv.o(i.gapm_actv_stopped)
    i.gapm_addr_fsm                          0x1000d090   Section        0  gapm_addr.o(i.gapm_addr_fsm)
    gapm_addr_fsm                            0x1000d091   Thumb Code   190  gapm_addr.o(i.gapm_addr_fsm)
    i.gapm_addr_init                         0x1000d154   Section        0  gapm_addr.o(i.gapm_addr_init)
    i.gapm_addr_renew_cmd_handler            0x1000d16c   Section        0  gapm_addr.o(i.gapm_addr_renew_cmd_handler)
    i.gapm_addr_renew_next_addr              0x1000d194   Section        0  gapm_addr.o(i.gapm_addr_renew_next_addr)
    gapm_addr_renew_next_addr                0x1000d195   Thumb Code   164  gapm_addr.o(i.gapm_addr_renew_next_addr)
    i.gapm_addr_renew_to_ind_handler         0x1000d240   Section        0  gapm_addr.o(i.gapm_addr_renew_to_ind_handler)
    i.gapm_addr_send_dev_bdaddr_ind          0x1000d264   Section        0  gapm_addr.o(i.gapm_addr_send_dev_bdaddr_ind)
    gapm_addr_send_dev_bdaddr_ind            0x1000d265   Thumb Code    44  gapm_addr.o(i.gapm_addr_send_dev_bdaddr_ind)
    i.gapm_addr_set_rand_addr                0x1000d290   Section        0  gapm_addr.o(i.gapm_addr_set_rand_addr)
    i.gapm_addr_solved_ind_handler           0x1000d368   Section        0  app_task.o(i.gapm_addr_solved_ind_handler)
    gapm_addr_solved_ind_handler             0x1000d369   Thumb Code    16  app_task.o(i.gapm_addr_solved_ind_handler)
    i.gapm_adv_check_data_sanity             0x1000d378   Section        0  gapm_adv.o(i.gapm_adv_check_data_sanity)
    gapm_adv_check_data_sanity               0x1000d379   Thumb Code   124  gapm_adv.o(i.gapm_adv_check_data_sanity)
    i.gapm_adv_check_param                   0x1000d3f4   Section        0  gapm_adv.o(i.gapm_adv_check_param)
    gapm_adv_check_param                     0x1000d3f5   Thumb Code   218  gapm_adv.o(i.gapm_adv_check_param)
    i.gapm_adv_create                        0x1000d4d8   Section        0  gapm_adv.o(i.gapm_adv_create)
    i.gapm_adv_delete                        0x1000d580   Section        0  gapm_adv.o(i.gapm_adv_delete)
    gapm_adv_delete                          0x1000d581   Thumb Code    16  gapm_adv.o(i.gapm_adv_delete)
    i.gapm_adv_send_hci_le_rmv_adv_set_cmd   0x1000d594   Section        0  gapm_adv.o(i.gapm_adv_send_hci_le_rmv_adv_set_cmd)
    gapm_adv_send_hci_le_rmv_adv_set_cmd     0x1000d595   Thumb Code    34  gapm_adv.o(i.gapm_adv_send_hci_le_rmv_adv_set_cmd)
    i.gapm_adv_send_hci_le_set_ext_adv_data_cmd 0x1000d5b6   Section        0  gapm_adv.o(i.gapm_adv_send_hci_le_set_ext_adv_data_cmd)
    gapm_adv_send_hci_le_set_ext_adv_data_cmd 0x1000d5b7   Thumb Code   184  gapm_adv.o(i.gapm_adv_send_hci_le_set_ext_adv_data_cmd)
    i.gapm_adv_send_hci_le_set_ext_adv_en_cmd 0x1000d66e   Section        0  gapm_adv.o(i.gapm_adv_send_hci_le_set_ext_adv_en_cmd)
    gapm_adv_send_hci_le_set_ext_adv_en_cmd  0x1000d66f   Thumb Code    72  gapm_adv.o(i.gapm_adv_send_hci_le_set_ext_adv_en_cmd)
    i.gapm_adv_send_hci_le_set_ext_adv_param_cmd 0x1000d6b6   Section        0  gapm_adv.o(i.gapm_adv_send_hci_le_set_ext_adv_param_cmd)
    gapm_adv_send_hci_le_set_ext_adv_param_cmd 0x1000d6b7   Thumb Code   186  gapm_adv.o(i.gapm_adv_send_hci_le_set_ext_adv_param_cmd)
    i.gapm_adv_send_hci_le_set_ext_scan_rsp_data_cmd 0x1000d770   Section        0  gapm_adv.o(i.gapm_adv_send_hci_le_set_ext_scan_rsp_data_cmd)
    gapm_adv_send_hci_le_set_ext_scan_rsp_data_cmd 0x1000d771   Thumb Code   182  gapm_adv.o(i.gapm_adv_send_hci_le_set_ext_scan_rsp_data_cmd)
    i.gapm_adv_send_hci_le_set_per_adv_data_cmd 0x1000d826   Section        0  gapm_adv.o(i.gapm_adv_send_hci_le_set_per_adv_data_cmd)
    gapm_adv_send_hci_le_set_per_adv_data_cmd 0x1000d827   Thumb Code   104  gapm_adv.o(i.gapm_adv_send_hci_le_set_per_adv_data_cmd)
    i.gapm_adv_send_hci_le_set_per_adv_en_cmd 0x1000d88e   Section        0  gapm_adv.o(i.gapm_adv_send_hci_le_set_per_adv_en_cmd)
    gapm_adv_send_hci_le_set_per_adv_en_cmd  0x1000d88f   Thumb Code    38  gapm_adv.o(i.gapm_adv_send_hci_le_set_per_adv_en_cmd)
    i.gapm_adv_set_data                      0x1000d8b4   Section        0  gapm_adv.o(i.gapm_adv_set_data)
    gapm_adv_set_data                        0x1000d8b5   Thumb Code    98  gapm_adv.o(i.gapm_adv_set_data)
    i.gapm_adv_start                         0x1000d918   Section        0  gapm_adv.o(i.gapm_adv_start)
    gapm_adv_start                           0x1000d919   Thumb Code    72  gapm_adv.o(i.gapm_adv_start)
    i.gapm_adv_stop                          0x1000d964   Section        0  gapm_adv.o(i.gapm_adv_stop)
    gapm_adv_stop                            0x1000d965   Thumb Code    30  gapm_adv.o(i.gapm_adv_stop)
    i.gapm_auto_conn_to_ind_handler          0x1000d988   Section        0  gapm_init.o(i.gapm_auto_conn_to_ind_handler)
    i.gapm_cmp_evt_handler                   0x1000d9c0   Section        0  app_task.o(i.gapm_cmp_evt_handler)
    gapm_cmp_evt_handler                     0x1000d9c1   Thumb Code   488  app_task.o(i.gapm_cmp_evt_handler)
    i.gapm_cmp_evt_handler                   0x1000dc18   Section        0  gapc_task.o(i.gapm_cmp_evt_handler)
    gapm_cmp_evt_handler                     0x1000dc19   Thumb Code   120  gapc_task.o(i.gapm_cmp_evt_handler)
    i.gapm_cmp_evt_handler                   0x1000dc90   Section        0  gapm_addr.o(i.gapm_cmp_evt_handler)
    i.gapm_con_cleanup                       0x1000dcb0   Section        0  gapm.o(i.gapm_con_cleanup)
    i.gapm_con_create                        0x1000dce8   Section        0  gapm.o(i.gapm_con_create)
    i.gapm_con_enable                        0x1000dd50   Section        0  gapm.o(i.gapm_con_enable)
    i.gapm_default_msg_handler               0x1000dd5a   Section        0  gapm_task.o(i.gapm_default_msg_handler)
    gapm_default_msg_handler                 0x1000dd5b   Thumb Code     4  gapm_task.o(i.gapm_default_msg_handler)
    i.gapm_dev_bdaddr_ind_handler            0x1000dd60   Section        0  gapm_addr.o(i.gapm_dev_bdaddr_ind_handler)
    i.gapm_dle_val_check                     0x1000dd9c   Section        0  gapm.o(i.gapm_dle_val_check)
    i.gapm_enc_block_ind_handler             0x1000ddb8   Section        0  app_task.o(i.gapm_enc_block_ind_handler)
    gapm_enc_block_ind_handler               0x1000ddb9   Thumb Code    18  app_task.o(i.gapm_enc_block_ind_handler)
    i.gapm_ext_adv_report_ind_handler        0x1000ddd0   Section        0  app_task.o(i.gapm_ext_adv_report_ind_handler)
    gapm_ext_adv_report_ind_handler          0x1000ddd1   Thumb Code    12  app_task.o(i.gapm_ext_adv_report_ind_handler)
    i.gapm_gen_dh_key_cmd_handler            0x1000dddc   Section        0  gapm_smp.o(i.gapm_gen_dh_key_cmd_handler)
    i.gapm_gen_rand_addr_cmd_handler         0x1000de2c   Section        0  gapm_smp.o(i.gapm_gen_rand_addr_cmd_handler)
    i.gapm_gen_rand_nb_ind_handler           0x1000de68   Section        0  app_task.o(i.gapm_gen_rand_nb_ind_handler)
    gapm_gen_rand_nb_ind_handler             0x1000de69   Thumb Code    38  app_task.o(i.gapm_gen_rand_nb_ind_handler)
    i.gapm_gen_rand_nb_ind_handler           0x1000de94   Section        0  gapc_task.o(i.gapm_gen_rand_nb_ind_handler)
    gapm_gen_rand_nb_ind_handler             0x1000de95   Thumb Code    40  gapc_task.o(i.gapm_gen_rand_nb_ind_handler)
    i.gapm_get_address_type                  0x1000debc   Section        0  gapm.o(i.gapm_get_address_type)
    i.gapm_get_att_handle                    0x1000decc   Section        0  gapm.o(i.gapm_get_att_handle)
    i.gapm_get_bdaddr                        0x1000def4   Section        0  gapm.o(i.gapm_get_bdaddr)
    i.gapm_get_dev_info_cmd_handler          0x1000defc   Section        0  gapm_cfg.o(i.gapm_get_dev_info_cmd_handler)
    i.gapm_get_irk                           0x1000e00c   Section        0  gapm.o(i.gapm_get_irk)
    i.gapm_get_local_public_key              0x1000e014   Section        0  gapm.o(i.gapm_get_local_public_key)
    i.gapm_get_max_mtu                       0x1000e01c   Section        0  gapm.o(i.gapm_get_max_mtu)
    i.gapm_get_operation                     0x1000e028   Section        0  gapm.o(i.gapm_get_operation)
    i.gapm_get_pub_key_cmd_handler           0x1000e040   Section        0  gapm_smp.o(i.gapm_get_pub_key_cmd_handler)
    i.gapm_get_ral_addr_cmd_handler          0x1000e0dc   Section        0  gapm_list.o(i.gapm_get_ral_addr_cmd_handler)
    i.gapm_get_requester                     0x1000e130   Section        0  gapm.o(i.gapm_get_requester)
    i.gapm_hci_handler                       0x1000e14c   Section        0  gapm_task.o(i.gapm_hci_handler)
    gapm_hci_handler                         0x1000e14d   Thumb Code    78  gapm_task.o(i.gapm_hci_handler)
    i.gapm_init                              0x1000e1a4   Section        0  gapm.o(i.gapm_init)
    i.gapm_init_attr                         0x1000e204   Section        0  gapm.o(i.gapm_init_attr)
    i.gapm_init_connection_ind               0x1000e238   Section        0  gapm_init.o(i.gapm_init_connection_ind)
    i.gapm_init_create                       0x1000e2d0   Section        0  gapm_init.o(i.gapm_init_create)
    i.gapm_init_delete                       0x1000e350   Section        0  gapm_init.o(i.gapm_init_delete)
    gapm_init_delete                         0x1000e351   Thumb Code     4  gapm_init.o(i.gapm_init_delete)
    i.gapm_init_send_hci_le_ext_create_con_cmd 0x1000e354   Section        0  gapm_init.o(i.gapm_init_send_hci_le_ext_create_con_cmd)
    gapm_init_send_hci_le_ext_create_con_cmd 0x1000e355   Thumb Code   212  gapm_init.o(i.gapm_init_send_hci_le_ext_create_con_cmd)
    i.gapm_init_start                        0x1000e428   Section        0  gapm_init.o(i.gapm_init_start)
    gapm_init_start                          0x1000e429   Thumb Code   112  gapm_init.o(i.gapm_init_start)
    i.gapm_init_stop                         0x1000e49c   Section        0  gapm_init.o(i.gapm_init_stop)
    gapm_init_stop                           0x1000e49d   Thumb Code    42  gapm_init.o(i.gapm_init_stop)
    i.gapm_is_addr_type_valid                0x1000e4cc   Section        0  gapm_addr.o(i.gapm_is_addr_type_valid)
    i.gapm_is_legacy_pairing_supp            0x1000e510   Section        0  gapm.o(i.gapm_is_legacy_pairing_supp)
    i.gapm_is_pref_con_param_pres            0x1000e520   Section        0  gapm.o(i.gapm_is_pref_con_param_pres)
    i.gapm_is_sec_con_pairing_supp           0x1000e530   Section        0  gapm.o(i.gapm_is_sec_con_pairing_supp)
    i.gapm_list_add_next_entry               0x1000e540   Section        0  gapm_list.o(i.gapm_list_add_next_entry)
    gapm_list_add_next_entry                 0x1000e541   Thumb Code   174  gapm_list.o(i.gapm_list_add_next_entry)
    i.gapm_list_send_list_size_ind           0x1000e5ee   Section        0  gapm_list.o(i.gapm_list_send_list_size_ind)
    gapm_list_send_list_size_ind             0x1000e5ef   Thumb Code    38  gapm_list.o(i.gapm_list_send_list_size_ind)
    i.gapm_list_set_cmd_handler              0x1000e614   Section        0  gapm_list.o(i.gapm_list_set_cmd_handler)
    i.gapm_op_reset_continue                 0x1000e664   Section        0  gapm_cfg.o(i.gapm_op_reset_continue)
    gapm_op_reset_continue                   0x1000e665   Thumb Code   148  gapm_cfg.o(i.gapm_op_reset_continue)
    i.gapm_op_setup_continue                 0x1000e708   Section        0  gapm_cfg.o(i.gapm_op_setup_continue)
    gapm_op_setup_continue                   0x1000e709   Thumb Code   298  gapm_cfg.o(i.gapm_op_setup_continue)
    i.gapm_operation_cleanup                 0x1000e838   Section        0  gapm.o(i.gapm_operation_cleanup)
    gapm_operation_cleanup                   0x1000e839   Thumb Code    46  gapm.o(i.gapm_operation_cleanup)
    i.gapm_per_sync_clear_fragments          0x1000e86c   Section        0  gapm_per_sync.o(i.gapm_per_sync_clear_fragments)
    i.gapm_per_sync_create                   0x1000e88c   Section        0  gapm_per_sync.o(i.gapm_per_sync_create)
    i.gapm_per_sync_delete                   0x1000e8d0   Section        0  gapm_per_sync.o(i.gapm_per_sync_delete)
    gapm_per_sync_delete                     0x1000e8d1   Thumb Code     4  gapm_per_sync.o(i.gapm_per_sync_delete)
    i.gapm_per_sync_get_activity             0x1000e8d4   Section        0  gapm_per_sync.o(i.gapm_per_sync_get_activity)
    gapm_per_sync_get_activity               0x1000e8d5   Thumb Code    80  gapm_per_sync.o(i.gapm_per_sync_get_activity)
    i.gapm_per_sync_send_adv_report_ind      0x1000e92c   Section        0  gapm_per_sync.o(i.gapm_per_sync_send_adv_report_ind)
    gapm_per_sync_send_adv_report_ind        0x1000e92d   Thumb Code   144  gapm_per_sync.o(i.gapm_per_sync_send_adv_report_ind)
    i.gapm_per_sync_start                    0x1000e9bc   Section        0  gapm_per_sync.o(i.gapm_per_sync_start)
    gapm_per_sync_start                      0x1000e9bd   Thumb Code   120  gapm_per_sync.o(i.gapm_per_sync_start)
    i.gapm_per_sync_stop                     0x1000ea38   Section        0  gapm_per_sync.o(i.gapm_per_sync_stop)
    gapm_per_sync_stop                       0x1000ea39   Thumb Code    60  gapm_per_sync.o(i.gapm_per_sync_stop)
    i.gapm_process_op                        0x1000ea78   Section        0  gapm.o(i.gapm_process_op)
    i.gapm_profile_added_ind_handler         0x1000eaec   Section        0  app_task.o(i.gapm_profile_added_ind_handler)
    gapm_profile_added_ind_handler           0x1000eaed   Thumb Code    34  app_task.o(i.gapm_profile_added_ind_handler)
    i.gapm_profile_task_add_cmd_handler      0x1000eb10   Section        0  gapm_cfg.o(i.gapm_profile_task_add_cmd_handler)
    i.gapm_reset_cmd_handler                 0x1000eb70   Section        0  gapm_cfg.o(i.gapm_reset_cmd_handler)
    i.gapm_resolv_addr_cmd_handler           0x1000ebb0   Section        0  gapm_smp.o(i.gapm_resolv_addr_cmd_handler)
    i.gapm_scan_actv_clean                   0x1000ebe8   Section        0  gapm_scan.o(i.gapm_scan_actv_clean)
    i.gapm_scan_add_to_filter                0x1000ec10   Section        0  gapm_scan.o(i.gapm_scan_add_to_filter)
    gapm_scan_add_to_filter                  0x1000ec11   Thumb Code   124  gapm_scan.o(i.gapm_scan_add_to_filter)
    i.gapm_scan_clear_fragments              0x1000ec8c   Section        0  gapm_scan.o(i.gapm_scan_clear_fragments)
    gapm_scan_clear_fragments                0x1000ec8d   Thumb Code    26  gapm_scan.o(i.gapm_scan_clear_fragments)
    i.gapm_scan_create                       0x1000eca8   Section        0  gapm_scan.o(i.gapm_scan_create)
    i.gapm_scan_delete                       0x1000ed18   Section        0  gapm_scan.o(i.gapm_scan_delete)
    gapm_scan_delete                         0x1000ed19   Thumb Code     4  gapm_scan.o(i.gapm_scan_delete)
    i.gapm_scan_filter_packet                0x1000ed1c   Section        0  gapm_scan.o(i.gapm_scan_filter_packet)
    gapm_scan_filter_packet                  0x1000ed1d   Thumb Code   258  gapm_scan.o(i.gapm_scan_filter_packet)
    i.gapm_scan_send_adv_report_ind          0x1000ee24   Section        0  gapm_scan.o(i.gapm_scan_send_adv_report_ind)
    gapm_scan_send_adv_report_ind            0x1000ee25   Thumb Code   320  gapm_scan.o(i.gapm_scan_send_adv_report_ind)
    i.gapm_scan_send_hci_le_set_ext_scan_en_cmd 0x1000ef64   Section        0  gapm_scan.o(i.gapm_scan_send_hci_le_set_ext_scan_en_cmd)
    gapm_scan_send_hci_le_set_ext_scan_en_cmd 0x1000ef65   Thumb Code    74  gapm_scan.o(i.gapm_scan_send_hci_le_set_ext_scan_en_cmd)
    i.gapm_scan_send_hci_le_set_ext_scan_param_cmd 0x1000efb4   Section        0  gapm_scan.o(i.gapm_scan_send_hci_le_set_ext_scan_param_cmd)
    gapm_scan_send_hci_le_set_ext_scan_param_cmd 0x1000efb5   Thumb Code   156  gapm_scan.o(i.gapm_scan_send_hci_le_set_ext_scan_param_cmd)
    i.gapm_scan_start                        0x1000f050   Section        0  gapm_scan.o(i.gapm_scan_start)
    gapm_scan_start                          0x1000f051   Thumb Code    70  gapm_scan.o(i.gapm_scan_start)
    i.gapm_scan_stop                         0x1000f09c   Section        0  gapm_scan.o(i.gapm_scan_stop)
    gapm_scan_stop                           0x1000f09d   Thumb Code    14  gapm_scan.o(i.gapm_scan_stop)
    i.gapm_scan_store_fragment               0x1000f0b0   Section        0  gapm_scan.o(i.gapm_scan_store_fragment)
    gapm_scan_store_fragment                 0x1000f0b1   Thumb Code   118  gapm_scan.o(i.gapm_scan_store_fragment)
    i.gapm_send_complete_evt                 0x1000f128   Section        0  gapm.o(i.gapm_send_complete_evt)
    i.gapm_send_error_evt                    0x1000f16c   Section        0  gapm.o(i.gapm_send_error_evt)
    i.gapm_set_adv_data_cmd_handler          0x1000f190   Section        0  gapm_adv.o(i.gapm_set_adv_data_cmd_handler)
    i.gapm_set_channel_map_cmd_handler       0x1000f27c   Section        0  gapm_cfg.o(i.gapm_set_channel_map_cmd_handler)
    i.gapm_set_dev_config_cmd_handler        0x1000f2d4   Section        0  gapm_cfg.o(i.gapm_set_dev_config_cmd_handler)
    i.gapm_set_irk_cmd_handler               0x1000f47c   Section        0  gapm_cfg.o(i.gapm_set_irk_cmd_handler)
    i.gapm_set_max_mps                       0x1000f4b4   Section        0  gapm.o(i.gapm_set_max_mps)
    i.gapm_set_max_mtu                       0x1000f4d4   Section        0  gapm.o(i.gapm_set_max_mtu)
    i.gapm_smp_encrypt_req                   0x1000f4f4   Section        0  gapm_smp.o(i.gapm_smp_encrypt_req)
    gapm_smp_encrypt_req                     0x1000f4f5   Thumb Code    16  gapm_smp.o(i.gapm_smp_encrypt_req)
    i.gapm_smp_encrypt_rsp                   0x1000f508   Section        0  gapm_smp.o(i.gapm_smp_encrypt_rsp)
    gapm_smp_encrypt_rsp                     0x1000f509   Thumb Code   154  gapm_smp.o(i.gapm_smp_encrypt_rsp)
    i.gapm_smp_rand_req                      0x1000f5a8   Section        0  gapm_smp.o(i.gapm_smp_rand_req)
    gapm_smp_rand_req                        0x1000f5a9   Thumb Code     8  gapm_smp.o(i.gapm_smp_rand_req)
    i.gapm_smp_rand_rsp                      0x1000f5b4   Section        0  gapm_smp.o(i.gapm_smp_rand_rsp)
    gapm_smp_rand_rsp                        0x1000f5b5   Thumb Code   142  gapm_smp.o(i.gapm_smp_rand_rsp)
    i.gapm_smp_resolv_op_cont                0x1000f648   Section        0  gapm_smp.o(i.gapm_smp_resolv_op_cont)
    gapm_smp_resolv_op_cont                  0x1000f649   Thumb Code   148  gapm_smp.o(i.gapm_smp_resolv_op_cont)
    i.gapm_svc_chg_en                        0x1000f6e0   Section        0  gapm.o(i.gapm_svc_chg_en)
    i.gapm_sync_established_ind_handler      0x1000f6f0   Section        0  app_task.o(i.gapm_sync_established_ind_handler)
    gapm_sync_established_ind_handler        0x1000f6f1   Thumb Code    12  app_task.o(i.gapm_sync_established_ind_handler)
    i.gapm_unknown_task_msg_handler          0x1000f6fc   Section        0  gapm_task.o(i.gapm_unknown_task_msg_handler)
    gapm_unknown_task_msg_handler            0x1000f6fd   Thumb Code    34  gapm_task.o(i.gapm_unknown_task_msg_handler)
    i.gapm_update_state                      0x1000f71e   Section        0  gapm.o(i.gapm_update_state)
    i.gapm_use_enc_block_cmd_handler         0x1000f74c   Section        0  gapm_smp.o(i.gapm_use_enc_block_cmd_handler)
    i.gapm_use_enc_block_ind_handler         0x1000f78c   Section        0  gapc_task.o(i.gapm_use_enc_block_ind_handler)
    gapm_use_enc_block_ind_handler           0x1000f78d   Thumb Code    60  gapc_task.o(i.gapm_use_enc_block_ind_handler)
    i.gatt_add_service                       0x1000f7c8   Section        0  gatt_api.o(i.gatt_add_service)
    i.gatt_clear_remote_svc                  0x1000f878   Section        0  gatt_api.o(i.gatt_clear_remote_svc)
    i.gatt_clr_peer_svc                      0x1000f8d0   Section        0  gatt_api.o(i.gatt_clr_peer_svc)
    gatt_clr_peer_svc                        0x1000f8d1   Thumb Code    58  gatt_api.o(i.gatt_clr_peer_svc)
    i.gatt_get_free_svc_id                   0x1000f910   Section        0  gatt_api.o(i.gatt_get_free_svc_id)
    i.gatt_msg_default_handler               0x1000f93c   Section        0  gatt_api.o(i.gatt_msg_default_handler)
    gatt_msg_default_handler                 0x1000f93d   Thumb Code    22  gatt_api.o(i.gatt_msg_default_handler)
    i.gatt_msg_default_handler_imp           0x1000f954   Section        0  gatt_api.o(i.gatt_msg_default_handler_imp)
    gatt_msg_default_handler_imp             0x1000f955   Thumb Code  1720  gatt_api.o(i.gatt_msg_default_handler_imp)
    i.gatt_notification                      0x10010038   Section        0  gatt_api.o(i.gatt_notification)
    i.gatt_notification_with_handle          0x10010068   Section        0  gatt_api.o(i.gatt_notification_with_handle)
    i.gatt_profile_task_add                  0x100100d0   Section        0  gatt_api.o(i.gatt_profile_task_add)
    i.gatt_regist_peer_prf_info              0x1001017c   Section        0  gatt_api.o(i.gatt_regist_peer_prf_info)
    gatt_regist_peer_prf_info                0x1001017d   Thumb Code   114  gatt_api.o(i.gatt_regist_peer_prf_info)
    i.gatt_servcie_added                     0x100101fc   Section        0  gatt_api.o(i.gatt_servcie_added)
    gatt_servcie_added                       0x100101fd   Thumb Code    50  gatt_api.o(i.gatt_servcie_added)
    i.gatt_service_connection_cleanup        0x10010238   Section        0  gatt_api.o(i.gatt_service_connection_cleanup)
    gatt_service_connection_cleanup          0x10010239   Thumb Code    52  gatt_api.o(i.gatt_service_connection_cleanup)
    i.gatt_service_connection_created        0x10010270   Section        0  gatt_api.o(i.gatt_service_connection_created)
    gatt_service_connection_created          0x10010271   Thumb Code    58  gatt_api.o(i.gatt_service_connection_created)
    i.gatt_service_destroy                   0x100102b4   Section        0  gatt_api.o(i.gatt_service_destroy)
    gatt_service_destroy                     0x100102b5   Thumb Code     2  gatt_api.o(i.gatt_service_destroy)
    i.gatt_service_init                      0x100102b8   Section        0  gatt_api.o(i.gatt_service_init)
    gatt_service_init                        0x100102b9   Thumb Code   728  gatt_api.o(i.gatt_service_init)
    i.gatt_store_peer_prf_info               0x100105c8   Section        0  gatt_api.o(i.gatt_store_peer_prf_info)
    gatt_store_peer_prf_info                 0x100105c9   Thumb Code   252  gatt_api.o(i.gatt_store_peer_prf_info)
    i.gatt_write_peer_svc_to_flash           0x100106fc   Section        0  user_bond_manage.o(i.gatt_write_peer_svc_to_flash)
    i.gattc_att_info_cfm_handler             0x100107d4   Section        0  gattc_task.o(i.gattc_att_info_cfm_handler)
    gattc_att_info_cfm_handler               0x100107d5   Thumb Code    82  gattc_task.o(i.gattc_att_info_cfm_handler)
    i.gattc_att_info_req_ind_handler         0x1001082c   Section        0  gapc_task.o(i.gattc_att_info_req_ind_handler)
    gattc_att_info_req_ind_handler           0x1001082d   Thumb Code   102  gapc_task.o(i.gattc_att_info_req_ind_handler)
    i.gattc_att_info_req_ind_handler         0x10010892   Section        0  gattc_task.o(i.gattc_att_info_req_ind_handler)
    gattc_att_info_req_ind_handler           0x10010893   Thumb Code    80  gattc_task.o(i.gattc_att_info_req_ind_handler)
    i.gattc_cleanup                          0x100108e4   Section        0  gattc.o(i.gattc_cleanup)
    i.gattc_cmp_evt_handler                  0x10010988   Section        0  gapc_task.o(i.gattc_cmp_evt_handler)
    gattc_cmp_evt_handler                    0x10010989   Thumb Code    62  gapc_task.o(i.gattc_cmp_evt_handler)
    i.gattc_cmp_evt_handler                  0x100109c8   Section        0  gattc_task.o(i.gattc_cmp_evt_handler)
    gattc_cmp_evt_handler                    0x100109c9   Thumb Code   384  gattc_task.o(i.gattc_cmp_evt_handler)
    i.gattc_con_enable                       0x10010b4c   Section        0  gattc.o(i.gattc_con_enable)
    i.gattc_create                           0x10010b64   Section        0  gattc.o(i.gattc_create)
    i.gattc_default_msg_handler              0x10010bf0   Section        0  gattc_task.o(i.gattc_default_msg_handler)
    gattc_default_msg_handler                0x10010bf1   Thumb Code    12  gattc_task.o(i.gattc_default_msg_handler)
    i.gattc_disc_char_desc_ind_handler       0x10010bfc   Section        0  gattc_task.o(i.gattc_disc_char_desc_ind_handler)
    gattc_disc_char_desc_ind_handler         0x10010bfd   Thumb Code   106  gattc_task.o(i.gattc_disc_char_desc_ind_handler)
    i.gattc_disc_char_ind_handler            0x10010c6c   Section        0  gattc_task.o(i.gattc_disc_char_ind_handler)
    gattc_disc_char_ind_handler              0x10010c6d   Thumb Code   146  gattc_task.o(i.gattc_disc_char_ind_handler)
    i.gattc_disc_cmd_handler                 0x10010d04   Section        0  gattc_task.o(i.gattc_disc_cmd_handler)
    gattc_disc_cmd_handler                   0x10010d05   Thumb Code   322  gattc_task.o(i.gattc_disc_cmd_handler)
    i.gattc_disc_svc_incl_ind_handler        0x10010e50   Section        0  gattc_task.o(i.gattc_disc_svc_incl_ind_handler)
    gattc_disc_svc_incl_ind_handler          0x10010e51   Thumb Code   110  gattc_task.o(i.gattc_disc_svc_incl_ind_handler)
    i.gattc_disc_svc_ind_handler             0x10010ec4   Section        0  gattc_task.o(i.gattc_disc_svc_ind_handler)
    gattc_disc_svc_ind_handler               0x10010ec5   Thumb Code    96  gattc_task.o(i.gattc_disc_svc_ind_handler)
    i.gattc_event_cfm_handler                0x10010f78   Section        0  gattc_task.o(i.gattc_event_cfm_handler)
    gattc_event_cfm_handler                  0x10010f79   Thumb Code    24  gattc_task.o(i.gattc_event_cfm_handler)
    i.gattc_event_ind_handler                0x10010f90   Section        0  app_task.o(i.gattc_event_ind_handler)
    gattc_event_ind_handler                  0x10010f91   Thumb Code     4  app_task.o(i.gattc_event_ind_handler)
    i.gattc_exc_mtu_cmd_handler              0x10010f94   Section        0  gattc_task.o(i.gattc_exc_mtu_cmd_handler)
    gattc_exc_mtu_cmd_handler                0x10010f95   Thumb Code    68  gattc_task.o(i.gattc_exc_mtu_cmd_handler)
    i.gattc_execute_write_cmd_handler        0x10010fdc   Section        0  gattc_task.o(i.gattc_execute_write_cmd_handler)
    gattc_execute_write_cmd_handler          0x10010fdd   Thumb Code    42  gattc_task.o(i.gattc_execute_write_cmd_handler)
    i.gattc_get_mtu                          0x1001100c   Section        0  gattc.o(i.gattc_get_mtu)
    i.gattc_get_operation                    0x1001101c   Section        0  gattc.o(i.gattc_get_operation)
    i.gattc_get_operation_ptr                0x10011038   Section        0  gattc.o(i.gattc_get_operation_ptr)
    i.gattc_get_requester                    0x10011048   Section        0  gattc.o(i.gattc_get_requester)
    i.gattc_init                             0x10011068   Section        0  gattc.o(i.gattc_init)
    i.gattc_operation_cleanup                0x100110b8   Section        0  gattc.o(i.gattc_operation_cleanup)
    gattc_operation_cleanup                  0x100110b9   Thumb Code   102  gattc.o(i.gattc_operation_cleanup)
    i.gattc_process_op                       0x10011124   Section        0  gattc_task.o(i.gattc_process_op)
    gattc_process_op                         0x10011125   Thumb Code   162  gattc_task.o(i.gattc_process_op)
    i.gattc_read_cfm_handler                 0x100111cc   Section        0  gattc_task.o(i.gattc_read_cfm_handler)
    gattc_read_cfm_handler                   0x100111cd   Thumb Code    64  gattc_task.o(i.gattc_read_cfm_handler)
    i.gattc_read_cmd_handler                 0x10011210   Section        0  gattc_task.o(i.gattc_read_cmd_handler)
    gattc_read_cmd_handler                   0x10011211   Thumb Code   292  gattc_task.o(i.gattc_read_cmd_handler)
    i.gattc_read_ind_handler                 0x10011340   Section        0  gapc_task.o(i.gattc_read_ind_handler)
    gattc_read_ind_handler                   0x10011341   Thumb Code   232  gapc_task.o(i.gattc_read_ind_handler)
    i.gattc_read_req_ind_handler             0x10011428   Section        0  gapc_task.o(i.gattc_read_req_ind_handler)
    gattc_read_req_ind_handler               0x10011429   Thumb Code   184  gapc_task.o(i.gattc_read_req_ind_handler)
    i.gattc_read_req_ind_handler             0x100114e0   Section        0  gattc_task.o(i.gattc_read_req_ind_handler)
    gattc_read_req_ind_handler               0x100114e1   Thumb Code    94  gattc_task.o(i.gattc_read_req_ind_handler)
    i.gattc_reg_to_peer_evt_cmd_handler      0x10011540   Section        0  gattc_task.o(i.gattc_reg_to_peer_evt_cmd_handler)
    gattc_reg_to_peer_evt_cmd_handler        0x10011541   Thumb Code   156  gattc_task.o(i.gattc_reg_to_peer_evt_cmd_handler)
    i.gattc_reschedule_operation             0x100115e4   Section        0  gattc.o(i.gattc_reschedule_operation)
    i.gattc_sdp_svc_disc_cmd_handler         0x10011620   Section        0  gattc_task.o(i.gattc_sdp_svc_disc_cmd_handler)
    gattc_sdp_svc_disc_cmd_handler           0x10011621   Thumb Code   190  gattc_task.o(i.gattc_sdp_svc_disc_cmd_handler)
    i.gattc_send_complete_evt                0x100116e4   Section        0  gattc.o(i.gattc_send_complete_evt)
    i.gattc_send_error_evt                   0x1001174c   Section        0  gattc.o(i.gattc_send_error_evt)
    i.gattc_send_evt_cmd_handler             0x10011778   Section        0  gattc_task.o(i.gattc_send_evt_cmd_handler)
    gattc_send_evt_cmd_handler               0x10011779   Thumb Code    78  gattc_task.o(i.gattc_send_evt_cmd_handler)
    i.gattc_send_svc_changed_cmd_handler     0x100117d0   Section        0  gattc_task.o(i.gattc_send_svc_changed_cmd_handler)
    gattc_send_svc_changed_cmd_handler       0x100117d1   Thumb Code   178  gattc_task.o(i.gattc_send_svc_changed_cmd_handler)
    i.gattc_set_mtu                          0x10011884   Section        0  gattc.o(i.gattc_set_mtu)
    i.gattc_set_operation_ptr                0x100118d4   Section        0  gattc.o(i.gattc_set_operation_ptr)
    i.gattc_timeout_handler                  0x100118e4   Section        0  gattc_task.o(i.gattc_timeout_handler)
    gattc_timeout_handler                    0x100118e5   Thumb Code   104  gattc_task.o(i.gattc_timeout_handler)
    i.gattc_update_state                     0x10011950   Section        0  gattc.o(i.gattc_update_state)
    i.gattc_write_cfm_handler                0x10011978   Section        0  gattc_task.o(i.gattc_write_cfm_handler)
    gattc_write_cfm_handler                  0x10011979   Thumb Code   132  gattc_task.o(i.gattc_write_cfm_handler)
    i.gattc_write_cmd_handler                0x10011a00   Section        0  gattc_task.o(i.gattc_write_cmd_handler)
    gattc_write_cmd_handler                  0x10011a01   Thumb Code   398  gattc_task.o(i.gattc_write_cmd_handler)
    i.gattc_write_req_ind_handler            0x10011b94   Section        0  gapc_task.o(i.gattc_write_req_ind_handler)
    gattc_write_req_ind_handler              0x10011b95   Thumb Code   224  gapc_task.o(i.gattc_write_req_ind_handler)
    i.gattc_write_req_ind_handler            0x10011c74   Section        0  gattc_task.o(i.gattc_write_req_ind_handler)
    gattc_write_req_ind_handler              0x10011c75   Thumb Code   114  gattc_task.o(i.gattc_write_req_ind_handler)
    i.gattm_cleanup                          0x10011ce6   Section        0  gattm.o(i.gattm_cleanup)
    i.gattm_create                           0x10011cec   Section        0  gattm.o(i.gattm_create)
    i.gattm_default_msg_handler              0x10011cf0   Section        0  gattm_task.o(i.gattm_default_msg_handler)
    gattm_default_msg_handler                0x10011cf1   Thumb Code     4  gattm_task.o(i.gattm_default_msg_handler)
    i.gattm_init                             0x10011cf4   Section        0  gattm.o(i.gattm_init)
    i.gattm_init_attr                        0x10011d18   Section        0  gattm.o(i.gattm_init_attr)
    i.gattm_svc_get_start_hdl                0x10011d7c   Section        0  gattm.o(i.gattm_svc_get_start_hdl)
    i.gc9c01_init_dma                        0x10011d88   Section        0  sdl_video_1.o(i.gc9c01_init_dma)
    gc9c01_init_dma                          0x10011d89   Thumb Code    68  sdl_video_1.o(i.gc9c01_init_dma)
    i.gc9c01_init_io                         0x10011ddc   Section        0  sdl_video_1.o(i.gc9c01_init_io)
    gc9c01_init_io                           0x10011ddd   Thumb Code   158  sdl_video_1.o(i.gc9c01_init_io)
    i.gc9c01_init_spi                        0x10011eac   Section        0  sdl_video_1.o(i.gc9c01_init_spi)
    gc9c01_init_spi                          0x10011ead   Thumb Code    68  sdl_video_1.o(i.gc9c01_init_spi)
    i.gc9c01_write_cmd                       0x10011efc   Section        0  sdl_video_1.o(i.gc9c01_write_cmd)
    gc9c01_write_cmd                         0x10011efd   Thumb Code    50  sdl_video_1.o(i.gc9c01_write_cmd)
    i.gc9c01_write_data                      0x10011f34   Section        0  sdl_video_1.o(i.gc9c01_write_data)
    gc9c01_write_data                        0x10011f35   Thumb Code    50  sdl_video_1.o(i.gc9c01_write_data)
    i.get_active_service_id                  0x10011f6c   Section        0  gatt_api.o(i.get_active_service_id)
    get_active_service_id                    0x10011f6d   Thumb Code    48  gatt_api.o(i.get_active_service_id)
    i.get_gatt_default_itf                   0x10011fa0   Section        0  gatt_api.o(i.get_gatt_default_itf)
    i.get_stored_info_req                    0x10011fa8   Section        0  app_proj_event.o(i.get_stored_info_req)
    i.gpio_init                              0x10012044   Section        0  driver_gpio.o(i.gpio_init)
    i.gpio_write_pin                         0x10012398   Section        0  driver_gpio.o(i.gpio_write_pin)
    i.guiBleComond                           0x10012400   Section        0  sdl_event.o(i.guiBleComond)
    i.guiProcKey                             0x10012440   Section        0  sdl_event.o(i.guiProcKey)
    i.gui_context_find_widget                0x10012478   Section        0  guicontext.o(i.gui_context_find_widget)
    i.gui_context_get_current_page           0x100124ac   Section        0  guicontext.o(i.gui_context_get_current_page)
    i.gui_context_init                       0x100124b8   Section        0  guicontext.o(i.gui_context_init)
    i.gui_context_invalidate                 0x10012680   Section        0  guicontext.o(i.gui_context_invalidate)
    i.gui_context_open_page                  0x100126dc   Section        0  guicontext.o(i.gui_context_open_page)
    i.gui_context_open_page_with_pos         0x100126f0   Section        0  guicontext.o(i.gui_context_open_page_with_pos)
    i.gui_context_procreg                    0x10012710   Section        0  guicontext.o(i.gui_context_procreg)
    i.gui_context_run                        0x10012740   Section        0  guicontext.o(i.gui_context_run)
    i.gui_init                               0x10012770   Section        0  gui_main.o(i.gui_init)
    i.gui_main                               0x10012848   Section        0  gui_main.o(i.gui_main)
    i.hci_acl_data_handler                   0x100128cc   Section        0  l2cc_task.o(i.hci_acl_data_handler)
    hci_acl_data_handler                     0x100128cd   Thumb Code   178  l2cc_task.o(i.hci_acl_data_handler)
    i.hci_auth_payl_to_exp_evt_handler       0x10012988   Section        0  gapc_hci.o(i.hci_auth_payl_to_exp_evt_handler)
    hci_auth_payl_to_exp_evt_handler         0x10012989   Thumb Code    36  gapc_hci.o(i.hci_auth_payl_to_exp_evt_handler)
    i.hci_basic_cmd_cmp_evt_cfg_handler      0x100129ac   Section        0  gapm_cfg.o(i.hci_basic_cmd_cmp_evt_cfg_handler)
    i.hci_basic_cmd_cmp_evt_rl_cfg_handler   0x10012a50   Section        0  gapm_cfg.o(i.hci_basic_cmd_cmp_evt_rl_cfg_handler)
    i.hci_cmd_stat_event_handler             0x10012a94   Section        0  gapc_hci.o(i.hci_cmd_stat_event_handler)
    hci_cmd_stat_event_handler               0x10012a95   Thumb Code   240  gapc_hci.o(i.hci_cmd_stat_event_handler)
    i.hci_disc_cmp_evt_handler               0x10012b88   Section        0  gapc_hci.o(i.hci_disc_cmp_evt_handler)
    hci_disc_cmp_evt_handler                 0x10012b89   Thumb Code    88  gapc_hci.o(i.hci_disc_cmp_evt_handler)
    i.hci_enc_chg_evt_handler                0x10012be4   Section        0  gapc_hci.o(i.hci_enc_chg_evt_handler)
    hci_enc_chg_evt_handler                  0x10012be5   Thumb Code    36  gapc_hci.o(i.hci_enc_chg_evt_handler)
    i.hci_enc_key_refr_evt_handler           0x10012c0c   Section        0  gapc_hci.o(i.hci_enc_key_refr_evt_handler)
    hci_enc_key_refr_evt_handler             0x10012c0d   Thumb Code    36  gapc_hci.o(i.hci_enc_key_refr_evt_handler)
    i.hci_le_adv_set_term_evt_handler        0x10012c34   Section        0  gapm_adv.o(i.hci_le_adv_set_term_evt_handler)
    i.hci_le_ch_sel_algo_evt_handler         0x10012ca4   Section        0  gapc_hci.o(i.hci_le_ch_sel_algo_evt_handler)
    i.hci_le_cmd_cmp_evt_addr_handler        0x10012ccc   Section        0  gapm_addr.o(i.hci_le_cmd_cmp_evt_addr_handler)
    i.hci_le_cmd_cmp_evt_adv_handler         0x10012d04   Section        0  gapm_adv.o(i.hci_le_cmd_cmp_evt_adv_handler)
    i.hci_le_cmd_cmp_evt_creating_handler    0x10012da8   Section        0  gapm_adv.o(i.hci_le_cmd_cmp_evt_creating_handler)
    hci_le_cmd_cmp_evt_creating_handler      0x10012da9   Thumb Code   230  gapm_adv.o(i.hci_le_cmd_cmp_evt_creating_handler)
    i.hci_le_cmd_cmp_evt_init_handler        0x10012e94   Section        0  gapm_init.o(i.hci_le_cmd_cmp_evt_init_handler)
    i.hci_le_cmd_cmp_evt_list_handler        0x10012f14   Section        0  gapm_list.o(i.hci_le_cmd_cmp_evt_list_handler)
    i.hci_le_cmd_cmp_evt_per_sync_handler    0x10012fb4   Section        0  gapm_per_sync.o(i.hci_le_cmd_cmp_evt_per_sync_handler)
    i.hci_le_cmd_cmp_evt_scan_handler        0x10012fe8   Section        0  gapm_scan.o(i.hci_le_cmd_cmp_evt_scan_handler)
    i.hci_le_cmd_cmp_evt_starting_handler    0x10013050   Section        0  gapm_adv.o(i.hci_le_cmd_cmp_evt_starting_handler)
    hci_le_cmd_cmp_evt_starting_handler      0x10013051   Thumb Code   126  gapm_adv.o(i.hci_le_cmd_cmp_evt_starting_handler)
    i.hci_le_con_update_cmp_evt_handler      0x100130d0   Section        0  gapc_hci.o(i.hci_le_con_update_cmp_evt_handler)
    hci_le_con_update_cmp_evt_handler        0x100130d1   Thumb Code   138  gapc_hci.o(i.hci_le_con_update_cmp_evt_handler)
    i.hci_le_data_len_chg_evt_handler        0x10013160   Section        0  gapc_hci.o(i.hci_le_data_len_chg_evt_handler)
    hci_le_data_len_chg_evt_handler          0x10013161   Thumb Code    60  gapc_hci.o(i.hci_le_data_len_chg_evt_handler)
    i.hci_le_enh_con_cmp_evt_handler         0x1001319c   Section        0  gapm_actv.o(i.hci_le_enh_con_cmp_evt_handler)
    i.hci_le_ext_adv_report_evt_handler      0x100131c4   Section        0  gapm_scan.o(i.hci_le_ext_adv_report_evt_handler)
    i.hci_le_gen_dhkey_stat_evt_handler      0x10013288   Section        0  gapm_smp.o(i.hci_le_gen_dhkey_stat_evt_handler)
    i.hci_le_generate_dhkey_cmp_evt_handler  0x100132ae   Section        0  gapm_smp.o(i.hci_le_generate_dhkey_cmp_evt_handler)
    i.hci_le_ltk_request_evt_handler         0x10013304   Section        0  gapc_hci.o(i.hci_le_ltk_request_evt_handler)
    hci_le_ltk_request_evt_handler           0x10013305   Thumb Code   118  gapc_hci.o(i.hci_le_ltk_request_evt_handler)
    i.hci_le_per_adv_report_evt_handler      0x10013384   Section        0  gapm_per_sync.o(i.hci_le_per_adv_report_evt_handler)
    i.hci_le_per_adv_sync_est_evt_handler    0x100133d4   Section        0  gapm_per_sync.o(i.hci_le_per_adv_sync_est_evt_handler)
    i.hci_le_per_adv_sync_lost_evt_handler   0x1001343a   Section        0  gapm_per_sync.o(i.hci_le_per_adv_sync_lost_evt_handler)
    i.hci_le_phy_upd_cmp_evt_handler         0x10013458   Section        0  gapc_hci.o(i.hci_le_phy_upd_cmp_evt_handler)
    hci_le_phy_upd_cmp_evt_handler           0x10013459   Thumb Code   100  gapc_hci.o(i.hci_le_phy_upd_cmp_evt_handler)
    i.hci_le_rd_adv_chnl_tx_pw_cmd_cmp_evt_handler 0x100134c0   Section        0  gapm_cfg.o(i.hci_le_rd_adv_chnl_tx_pw_cmd_cmp_evt_handler)
    i.hci_le_rd_buff_size_cmd_cmp_evt_handler 0x10013504   Section        0  gapm_cfg.o(i.hci_le_rd_buff_size_cmd_cmp_evt_handler)
    i.hci_le_rd_local_p256_public_key_cmp_evt_handler 0x10013534   Section        0  gapm_cfg.o(i.hci_le_rd_local_p256_public_key_cmp_evt_handler)
    i.hci_le_rd_max_data_len_cmd_cmp_evt_handler 0x100135c4   Section        0  gapm_cfg.o(i.hci_le_rd_max_data_len_cmd_cmp_evt_handler)
    i.hci_le_rd_nb_supp_adv_sets_cmd_cmp_evt_handler 0x10013608   Section        0  gapm_cfg.o(i.hci_le_rd_nb_supp_adv_sets_cmd_cmp_evt_handler)
    i.hci_le_rd_pal_size_cmd_cmp_evt_handler 0x10013670   Section        0  gapm_list.o(i.hci_le_rd_pal_size_cmd_cmp_evt_handler)
    i.hci_le_rd_phy_cmd_cmp_evt_handler      0x100136ac   Section        0  gapc_hci.o(i.hci_le_rd_phy_cmd_cmp_evt_handler)
    hci_le_rd_phy_cmd_cmp_evt_handler        0x100136ad   Thumb Code    88  gapc_hci.o(i.hci_le_rd_phy_cmd_cmp_evt_handler)
    i.hci_le_rd_ral_addr_cmd_cmp_evt_handler 0x10013708   Section        0  gapm_list.o(i.hci_le_rd_ral_addr_cmd_cmp_evt_handler)
    i.hci_le_rd_ral_size_cmd_cmp_evt_handler 0x1001376e   Section        0  gapm_list.o(i.hci_le_rd_ral_size_cmd_cmp_evt_handler)
    i.hci_le_rd_rem_feats_cmp_evt_handler    0x100137a8   Section        0  gapc_hci.o(i.hci_le_rd_rem_feats_cmp_evt_handler)
    hci_le_rd_rem_feats_cmp_evt_handler      0x100137a9   Thumb Code   158  gapc_hci.o(i.hci_le_rd_rem_feats_cmp_evt_handler)
    i.hci_le_rd_rf_path_comp_cmd_cmp_evt_handler 0x1001384c   Section        0  gapm_cfg.o(i.hci_le_rd_rf_path_comp_cmd_cmp_evt_handler)
    i.hci_le_rd_suggted_dft_data_len_cmd_cmp_evt_handler 0x10013894   Section        0  gapm_cfg.o(i.hci_le_rd_suggted_dft_data_len_cmd_cmp_evt_handler)
    i.hci_le_rd_tx_pwr_cmd_cmp_evt_handler   0x100138ce   Section        0  gapm_cfg.o(i.hci_le_rd_tx_pwr_cmd_cmp_evt_handler)
    i.hci_le_rd_wlst_size_cmd_cmp_evt_handler 0x10013916   Section        0  gapm_list.o(i.hci_le_rd_wlst_size_cmd_cmp_evt_handler)
    i.hci_le_read_max_adv_data_len_cmd_cmp_evt_handler 0x10013950   Section        0  gapm_cfg.o(i.hci_le_read_max_adv_data_len_cmd_cmp_evt_handler)
    i.hci_le_rem_con_param_req_evt_handler   0x100139b8   Section        0  gapc_hci.o(i.hci_le_rem_con_param_req_evt_handler)
    hci_le_rem_con_param_req_evt_handler     0x100139b9   Thumb Code    76  gapc_hci.o(i.hci_le_rem_con_param_req_evt_handler)
    i.hci_le_scan_req_rcvd_evt_handler       0x10013a08   Section        0  gapm_adv.o(i.hci_le_scan_req_rcvd_evt_handler)
    i.hci_le_scan_timeout_evt_handler        0x10013a68   Section        0  gapm_scan.o(i.hci_le_scan_timeout_evt_handler)
    i.hci_le_set_data_len_cmd_cmp_evt_handler 0x10013a90   Section        0  gapc_hci.o(i.hci_le_set_data_len_cmd_cmp_evt_handler)
    hci_le_set_data_len_cmd_cmp_evt_handler  0x10013a91   Thumb Code    46  gapc_hci.o(i.hci_le_set_data_len_cmd_cmp_evt_handler)
    i.hci_le_start_enc_stat_evt_handler      0x10013ac4   Section        0  gapc_hci.o(i.hci_le_start_enc_stat_evt_handler)
    hci_le_start_enc_stat_evt_handler        0x10013ac5   Thumb Code    36  gapc_hci.o(i.hci_le_start_enc_stat_evt_handler)
    i.hci_nb_cmp_pkts_evt_handler            0x10013ae8   Section        0  l2cc_task.o(i.hci_nb_cmp_pkts_evt_handler)
    hci_nb_cmp_pkts_evt_handler              0x10013ae9   Thumb Code    52  l2cc_task.o(i.hci_nb_cmp_pkts_evt_handler)
    i.hci_rd_auth_payl_to_cmd_cmp_evt_handler 0x10013b20   Section        0  gapc_hci.o(i.hci_rd_auth_payl_to_cmd_cmp_evt_handler)
    hci_rd_auth_payl_to_cmd_cmp_evt_handler  0x10013b21   Thumb Code    72  gapc_hci.o(i.hci_rd_auth_payl_to_cmd_cmp_evt_handler)
    i.hci_rd_bd_addr_cmd_cmp_evt_handler     0x10013b68   Section        0  gapm_cfg.o(i.hci_rd_bd_addr_cmd_cmp_evt_handler)
    i.hci_rd_buff_size_cmd_cmp_evt_handler   0x10013bac   Section        0  gapm_cfg.o(i.hci_rd_buff_size_cmd_cmp_evt_handler)
    i.hci_rd_chnl_map_cmd_cmp_evt_handler    0x10013bdc   Section        0  gapc_hci.o(i.hci_rd_chnl_map_cmd_cmp_evt_handler)
    hci_rd_chnl_map_cmd_cmp_evt_handler      0x10013bdd   Thumb Code    96  gapc_hci.o(i.hci_rd_chnl_map_cmd_cmp_evt_handler)
    i.hci_rd_local_ver_info_cmd_cmp_evt_handler 0x10013c3c   Section        0  gapm_cfg.o(i.hci_rd_local_ver_info_cmd_cmp_evt_handler)
    i.hci_rd_rem_ver_info_cmp_evt_handler    0x10013ca4   Section        0  gapc_hci.o(i.hci_rd_rem_ver_info_cmp_evt_handler)
    hci_rd_rem_ver_info_cmp_evt_handler      0x10013ca5   Thumb Code   130  gapc_hci.o(i.hci_rd_rem_ver_info_cmp_evt_handler)
    i.hci_rd_rssi_cmd_cmp_evt_handler        0x10013d2c   Section        0  gapc_hci.o(i.hci_rd_rssi_cmd_cmp_evt_handler)
    hci_rd_rssi_cmd_cmp_evt_handler          0x10013d2d   Thumb Code    92  gapc_hci.o(i.hci_rd_rssi_cmd_cmp_evt_handler)
    i.hci_test_end_cmd_cmp_evt_handler       0x10013d88   Section        0  gapm_cfg.o(i.hci_test_end_cmd_cmp_evt_handler)
    i.hci_vs_set_pref_slave_latency_cmd_cmp_evt_handler 0x10013dc4   Section        0  gapc_hci.o(i.hci_vs_set_pref_slave_latency_cmd_cmp_evt_handler)
    hci_vs_set_pref_slave_latency_cmd_cmp_evt_handler 0x10013dc5   Thumb Code    46  gapc_hci.o(i.hci_vs_set_pref_slave_latency_cmd_cmp_evt_handler)
    i.hci_wr_auth_payl_to_cmd_cmp_evt_handler 0x10013df8   Section        0  gapc_hci.o(i.hci_wr_auth_payl_to_cmd_cmp_evt_handler)
    hci_wr_auth_payl_to_cmd_cmp_evt_handler  0x10013df9   Thumb Code    38  gapc_hci.o(i.hci_wr_auth_payl_to_cmd_cmp_evt_handler)
    i.host_trng_valid                        0x10013e20   Section        0  trng.o(i.host_trng_valid)
    host_trng_valid                          0x10013e21   Thumb Code   132  trng.o(i.host_trng_valid)
    i.i_memset                               0x10013eac   Section        0  resource.o(i.i_memset)
    i.image_proc                             0x10013ebc   Section        0  image.o(i.image_proc)
    i.imagetext_proc                         0x10013f14   Section        0  imagetext.o(i.imagetext_proc)
    i.imagetext_scroll_proc                  0x100140e8   Section        0  imgtext_scroll.o(i.imagetext_scroll_proc)
    i.imagetext_set_scroll                   0x1001452c   Section        0  imgtext_scroll.o(i.imagetext_set_scroll)
    i.imagetext_set_text                     0x10014724   Section        0  imagetext.o(i.imagetext_set_text)
    i.increment_proc                         0x1001474a   Section        0  increment.o(i.increment_proc)
    i.init_screenInfo                        0x100147a2   Section        0  sdl_gfx.o(i.init_screenInfo)
    i.initdev                                0x100147a4   Section        0  uartupgradedev.o(i.initdev)
    initdev                                  0x100147a5   Thumb Code   106  uartupgradedev.o(i.initdev)
    i.initdev                                0x10014858   Section        0  uartcomm.o(i.initdev)
    initdev                                  0x10014859   Thumb Code   148  uartcomm.o(i.initdev)
    i.jump_table_get_static_keys             0x10014934   Section        0  jump_table_host.o(i.jump_table_get_static_keys)
    i.jump_table_memmory_init                0x100149f8   Section        0  jump_table_host.o(i.jump_table_memmory_init)
    i.jump_table_param_get                   0x10014a34   Section        0  jump_table_host.o(i.jump_table_param_get)
    jump_table_param_get                     0x10014a35   Thumb Code    68  jump_table_host.o(i.jump_table_param_get)
    i.jump_table_param_set                   0x10014a7c   Section        0  jump_table_host.o(i.jump_table_param_set)
    jump_table_param_set                     0x10014a7d   Thumb Code    50  jump_table_host.o(i.jump_table_param_set)
    i.jump_table_set_static_keys             0x10014ab4   Section        0  jump_table_host.o(i.jump_table_set_static_keys)
    i.ke_task_default_handler_get_patch      0x10014b54   Section        0  entry.o(i.ke_task_default_handler_get_patch)
    ke_task_default_handler_get_patch        0x10014b55   Thumb Code     4  entry.o(i.ke_task_default_handler_get_patch)
    i.l2c_code_conn_param_upd_req_handler    0x10014b58   Section        0  l2cc_sig.o(i.l2c_code_conn_param_upd_req_handler)
    l2c_code_conn_param_upd_req_handler      0x10014b59   Thumb Code    60  l2cc_sig.o(i.l2c_code_conn_param_upd_req_handler)
    i.l2c_code_conn_param_upd_req_handler    0x10014b94   Section        0  gapc_sig.o(i.l2c_code_conn_param_upd_req_handler)
    l2c_code_conn_param_upd_req_handler      0x10014b95   Thumb Code    98  gapc_sig.o(i.l2c_code_conn_param_upd_req_handler)
    i.l2c_code_conn_param_upd_resp_handler   0x10014bfc   Section        0  l2cc_sig.o(i.l2c_code_conn_param_upd_resp_handler)
    l2c_code_conn_param_upd_resp_handler     0x10014bfd   Thumb Code    58  l2cc_sig.o(i.l2c_code_conn_param_upd_resp_handler)
    i.l2c_code_conn_param_upd_resp_handler   0x10014c36   Section        0  gapc_sig.o(i.l2c_code_conn_param_upd_resp_handler)
    l2c_code_conn_param_upd_resp_handler     0x10014c37   Thumb Code    68  gapc_sig.o(i.l2c_code_conn_param_upd_resp_handler)
    i.l2c_code_reject_handler                0x10014c7a   Section        0  l2cc_sig.o(i.l2c_code_reject_handler)
    l2c_code_reject_handler                  0x10014c7b   Thumb Code    28  l2cc_sig.o(i.l2c_code_reject_handler)
    i.l2c_code_reject_handler                0x10014c96   Section        0  gapc_sig.o(i.l2c_code_reject_handler)
    l2c_code_reject_handler                  0x10014c97   Thumb Code    80  gapc_sig.o(i.l2c_code_reject_handler)
    i.l2cc_cleanup                           0x10014ce8   Section        0  l2cc.o(i.l2cc_cleanup)
    i.l2cc_cmp_evt_handler                   0x10014d98   Section        0  gapc_task.o(i.l2cc_cmp_evt_handler)
    l2cc_cmp_evt_handler                     0x10014d99   Thumb Code    60  gapc_task.o(i.l2cc_cmp_evt_handler)
    i.l2cc_cmp_evt_handler                   0x10014dd4   Section        0  gattc_task.o(i.l2cc_cmp_evt_handler)
    l2cc_cmp_evt_handler                     0x10014dd5   Thumb Code    70  gattc_task.o(i.l2cc_cmp_evt_handler)
    i.l2cc_create                            0x10014e1c   Section        0  l2cc.o(i.l2cc_create)
    i.l2cc_data_send                         0x10014e68   Section        0  l2cc.o(i.l2cc_data_send)
    i.l2cc_dbg_pdu_pack                      0x10014fe4   Section        0  l2cc_pdu.o(i.l2cc_dbg_pdu_pack)
    i.l2cc_dbg_pdu_send_cmd_handler          0x10015034   Section        0  l2cc_task.o(i.l2cc_dbg_pdu_send_cmd_handler)
    l2cc_dbg_pdu_send_cmd_handler            0x10015035   Thumb Code   106  l2cc_task.o(i.l2cc_dbg_pdu_send_cmd_handler)
    i.l2cc_default_msg_handler               0x100150a4   Section        0  l2cc_task.o(i.l2cc_default_msg_handler)
    l2cc_default_msg_handler                 0x100150a5   Thumb Code     4  l2cc_task.o(i.l2cc_default_msg_handler)
    i.l2cc_init                              0x100150a8   Section        0  l2cc.o(i.l2cc_init)
    i.l2cc_lecb_sdu_send_cmd_handler         0x100150f8   Section        0  l2cc_task.o(i.l2cc_lecb_sdu_send_cmd_handler)
    l2cc_lecb_sdu_send_cmd_handler           0x100150f9   Thumb Code    62  l2cc_task.o(i.l2cc_lecb_sdu_send_cmd_handler)
    i.l2cc_op_complete                       0x10015138   Section        0  l2cc.o(i.l2cc_op_complete)
    i.l2cc_pdu_alloc                         0x1001518c   Section        0  l2cc_task.o(i.l2cc_pdu_alloc)
    i.l2cc_pdu_header_check                  0x100151b8   Section        0  l2cc_pdu.o(i.l2cc_pdu_header_check)
    i.l2cc_pdu_pack                          0x100152fc   Section        0  l2cc_pdu.o(i.l2cc_pdu_pack)
    i.l2cc_pdu_recv_ind_handler              0x100155b0   Section        0  l2cc_task.o(i.l2cc_pdu_recv_ind_handler)
    l2cc_pdu_recv_ind_handler                0x100155b1   Thumb Code    98  l2cc_task.o(i.l2cc_pdu_recv_ind_handler)
    i.l2cc_pdu_recv_ind_handler              0x10015612   Section        0  gapc_task.o(i.l2cc_pdu_recv_ind_handler)
    l2cc_pdu_recv_ind_handler                0x10015613   Thumb Code   104  gapc_task.o(i.l2cc_pdu_recv_ind_handler)
    i.l2cc_pdu_recv_ind_handler              0x1001567a   Section        0  gattc_task.o(i.l2cc_pdu_recv_ind_handler)
    l2cc_pdu_recv_ind_handler                0x1001567b   Thumb Code   114  gattc_task.o(i.l2cc_pdu_recv_ind_handler)
    i.l2cc_pdu_rx_init                       0x100156ec   Section        0  l2cc_pdu.o(i.l2cc_pdu_rx_init)
    i.l2cc_pdu_send                          0x1001576c   Section        0  l2cc_task.o(i.l2cc_pdu_send)
    i.l2cc_pdu_send_cmd_handler              0x10015774   Section        0  l2cc_task.o(i.l2cc_pdu_send_cmd_handler)
    l2cc_pdu_send_cmd_handler                0x10015775   Thumb Code    90  l2cc_task.o(i.l2cc_pdu_send_cmd_handler)
    i.l2cc_pdu_unpack                        0x100157d4   Section        0  l2cc_pdu.o(i.l2cc_pdu_unpack)
    i.l2cc_send_cmp_evt                      0x10015a6c   Section        0  l2cc.o(i.l2cc_send_cmp_evt)
    i.l2cc_sig_pdu_recv_handler              0x10015a9c   Section        0  l2cc_sig.o(i.l2cc_sig_pdu_recv_handler)
    i.l2cc_sig_send_cmd_reject               0x10015ae8   Section        0  l2cc_sig.o(i.l2cc_sig_send_cmd_reject)
    i.l2cc_update_state                      0x10015b44   Section        0  l2cc.o(i.l2cc_update_state)
    i.l2cm_cleanup                           0x10015b6c   Section        0  l2cm.o(i.l2cm_cleanup)
    i.l2cm_create                            0x10015b82   Section        0  l2cm.o(i.l2cm_create)
    i.l2cm_get_nb_buffer_available           0x10015b88   Section        0  l2cm.o(i.l2cm_get_nb_buffer_available)
    i.l2cm_init                              0x10015b94   Section        0  l2cm.o(i.l2cm_init)
    i.l2cm_l2cap_tx_handler                  0x10015bc4   Section        0  l2cm.o(i.l2cm_l2cap_tx_handler)
    l2cm_l2cap_tx_handler                    0x10015bc5   Thumb Code    88  l2cm.o(i.l2cm_l2cap_tx_handler)
    i.l2cm_set_link_layer_buff_size          0x10015c24   Section        0  l2cm.o(i.l2cm_set_link_layer_buff_size)
    i.l2cm_tx_status                         0x10015c34   Section        0  l2cm.o(i.l2cm_tx_status)
    i.label_proc                             0x10015c60   Section        0  label.o(i.label_proc)
    i.label_set_text                         0x10015efc   Section        0  label.o(i.label_set_text)
    i.log_init                               0x10015f44   Section        0  co_log.o(i.log_init)
    i.log_printf                             0x10015fcc   Section        0  co_log.o(i.log_printf)
    i.log_printf_level                       0x10015ff4   Section        0  co_log.o(i.log_printf_level)
    i.lvd_threshold                          0x10015ff8   Section        0  driver_pmu.o(i.lvd_threshold)
    i.m_al_get_local_addr                    0x1001601c   Section        0  m_al_task.o(i.m_al_get_local_addr)
    i.m_tb_state_is_feature_sup              0x10016024   Section        0  m_tb_state.o(i.m_tb_state_is_feature_sup)
    i.mesh_set_runtime                       0x1001603c   Section        0  mesh_api.o(i.mesh_set_runtime)
    i.message_dequeue                        0x10016088   Section        0  message.o(i.message_dequeue)
    i.message_enqueue                        0x100160b8   Section        0  message.o(i.message_enqueue)
    i.message_init                           0x100160e4   Section        0  message.o(i.message_init)
    i.mw9VZnDHubl3                           0x100160f4   Section        0  zksec.o(i.mw9VZnDHubl3)
    i.ntf_data                               0x100160f8   Section        0  simple_gatt_service.o(i.ntf_data)
    i.numtext_proc                           0x10016120   Section        0  numtext.o(i.numtext_proc)
    i.on_animation_play_end                  0x1001638c   Section        0  ui_context.o(i.on_animation_play_end)
    i.on_button_touch_event                  0x100163c0   Section        0  ui_context.o(i.on_button_touch_event)
    i.on_page_open                           0x100163f8   Section        0  ui_context.o(i.on_page_open)
    i.on_progress_changed                    0x10016428   Section        0  ui_context.o(i.on_progress_changed)
    i.on_timer                               0x10016460   Section        0  ui_context.o(i.on_timer)
    i.os_default_task_func                   0x10016498   Section        0  os_task.o(i.os_default_task_func)
    os_default_task_func                     0x10016499   Thumb Code    44  os_task.o(i.os_default_task_func)
    i.os_msg_post                            0x100164c8   Section        0  os_msg_q.o(i.os_msg_post)
    i.os_zalloc                              0x10016528   Section        0  os_mem.o(i.os_zalloc)
    i.pKKFrMQUHba                            0x10016540   Section        0  resource.o(i.pKKFrMQUHba)
    i.pmesh_aes_decrypt_result               0x10016634   Section        0  zksec.o(i.pmesh_aes_decrypt_result)
    i.pmu_calibration_restart                0x10016748   Section        0  sys_utisl.o(i.pmu_calibration_restart)
    i.pmu_cp_trim_config                     0x100167a8   Section        0  driver_pmu.o(i.pmu_cp_trim_config)
    i.pmu_ft_trim_config                     0x100168fc   Section        0  driver_pmu.o(i.pmu_ft_trim_config)
    i.pmu_get_isr_state                      0x10016af0   Section        0  driver_pmu.o(i.pmu_get_isr_state)
    i.pmu_gpio_isr                           0x10016b00   Section        0  driver_pmu.o(i.pmu_gpio_isr)
    i.pmu_lvd_en                             0x10016b02   Section        0  driver_pmu.o(i.pmu_lvd_en)
    i.pmu_reset_internal_cnt                 0x10016b9c   Section        0  driver_pmu.o(i.pmu_reset_internal_cnt)
    i.pmu_sub_init                           0x10016bd0   Section        0  driver_pmu.o(i.pmu_sub_init)
    i.prf_add_profile                        0x10016f30   Section        0  prf.o(i.prf_add_profile)
    i.prf_cleanup                            0x10016ff0   Section        0  prf.o(i.prf_cleanup)
    i.prf_create                             0x10017044   Section        0  prf.o(i.prf_create)
    i.prf_extract_svc_info_uuid_128          0x10017098   Section        0  prf_utils.o(i.prf_extract_svc_info_uuid_128)
    i.prf_get_task_from_id                   0x10017238   Section        0  prf.o(i.prf_get_task_from_id)
    i.prf_init                               0x10017284   Section        0  prf.o(i.prf_init)
    i.prf_itf_get_imp                        0x10017380   Section        0  app_prf.o(i.prf_itf_get_imp)
    i.procKey                                0x100173a8   Section        0  sdl_event.o(i.procKey)
    i.procMsg                                0x10017500   Section        0  uartupgradedev.o(i.procMsg)
    procMsg                                  0x10017501   Thumb Code    44  uartupgradedev.o(i.procMsg)
    i.procMsg                                0x10017544   Section        0  uartcomm.o(i.procMsg)
    procMsg                                  0x10017545   Thumb Code    10  uartcomm.o(i.procMsg)
    i.procUartDGUS                           0x10017550   Section        0  uartcomm.o(i.procUartDGUS)
    procUartDGUS                             0x10017551   Thumb Code    78  uartcomm.o(i.procUartDGUS)
    i.procUartUpdateReq                      0x100175b0   Section        0  uartupgradedev.o(i.procUartUpdateReq)
    procUartUpdateReq                        0x100175b1   Thumb Code   114  uartupgradedev.o(i.procUartUpdateReq)
    i.processCmd                             0x1001764c   Section        0  uartupgradedev.o(i.processCmd)
    processCmd                               0x1001764d   Thumb Code    18  uartupgradedev.o(i.processCmd)
    i.processUpgrade                         0x10017660   Section        0  uartupgradedev.o(i.processUpgrade)
    processUpgrade                           0x10017661   Thumb Code   664  uartupgradedev.o(i.processUpgrade)
    i.processUpgrade_simple                  0x10017910   Section        0  uartupgradedev.o(i.processUpgrade_simple)
    processUpgrade_simple                    0x10017911   Thumb Code   218  uartupgradedev.o(i.processUpgrade_simple)
    i.progress_proc                          0x10017a54   Section        0  progress.o(i.progress_proc)
    i.progress_set_value                     0x10017d64   Section        0  progress.o(i.progress_set_value)
    i.proj_init                              0x10017d94   Section        0  proj_main.o(i.proj_init)
    i.psram_controller_init                  0x10017de0   Section        0  driver_psram.o(i.psram_controller_init)
    psram_controller_init                    0x10017de1   Thumb Code   254  driver_psram.o(i.psram_controller_init)
    i.psram_enter_quad                       0x10017ee4   Section        0  driver_psram.o(i.psram_enter_quad)
    i.psram_init                             0x10017ef8   Section        0  driver_psram.o(i.psram_init)
    i.pwm_dac_config                         0x10017f50   Section        0  driver_pwm.o(i.pwm_dac_config)
    i.pwm_output_disable                     0x10017fc8   Section        0  driver_pwm.o(i.pwm_output_disable)
    i.pwm_output_enable                      0x10017fec   Section        0  driver_pwm.o(i.pwm_output_enable)
    i.qsSh4w5pnRqMCb                         0x10018010   Section        0  md5.o(i.qsSh4w5pnRqMCb)
    i.qsSh4w5pnRqMCj                         0x10018068   Section        0  md5.o(i.qsSh4w5pnRqMCj)
    i.qspi0_cfg_set_baudrate                 0x100180f8   Section        0  driver_psram.o(i.qspi0_cfg_set_baudrate)
    qspi0_cfg_set_baudrate                   0x100180f9   Thumb Code    14  driver_psram.o(i.qspi0_cfg_set_baudrate)
    i.qspi0_cfg_set_cpha                     0x1001810c   Section        0  driver_psram.o(i.qspi0_cfg_set_cpha)
    i.qspi0_cfg_set_cpol                     0x10018120   Section        0  driver_psram.o(i.qspi0_cfg_set_cpol)
    i.qspi0_cfg_set_enable                   0x10018134   Section        0  driver_psram.o(i.qspi0_cfg_set_enable)
    i.qspi0_cfg_set_enable_AHB_decoder       0x10018148   Section        0  driver_psram.o(i.qspi0_cfg_set_enable_AHB_decoder)
    i.qspi0_cfg_set_enable_dac               0x1001815c   Section        0  driver_psram.o(i.qspi0_cfg_set_enable_dac)
    i.qspi0_cfg_set_enable_legacy            0x10018170   Section        0  driver_psram.o(i.qspi0_cfg_set_enable_legacy)
    i.qspi0_cfg_set_enable_remap             0x10018184   Section        0  driver_psram.o(i.qspi0_cfg_set_enable_remap)
    i.qspi0_is_busy                          0x10018198   Section        0  driver_psram.o(i.qspi0_is_busy)
    i.qspi0_poll_set_disable                 0x100181a8   Section        0  driver_psram.o(i.qspi0_poll_set_disable)
    i.qspi0_read_set_address_type            0x100181bc   Section        0  driver_psram.o(i.qspi0_read_set_address_type)
    i.qspi0_read_set_data_type               0x100181d0   Section        0  driver_psram.o(i.qspi0_read_set_data_type)
    i.qspi0_read_set_dummy_cycles            0x100181e4   Section        0  driver_psram.o(i.qspi0_read_set_dummy_cycles)
    i.qspi0_read_set_instruction_type        0x100181f8   Section        0  driver_psram.o(i.qspi0_read_set_instruction_type)
    i.qspi0_read_set_mode_en                 0x1001820c   Section        0  driver_psram.o(i.qspi0_read_set_mode_en)
    i.qspi0_read_set_opcode                  0x10018220   Section        0  driver_psram.o(i.qspi0_read_set_opcode)
    i.qspi0_set_mode_bit                     0x10018234   Section        0  driver_psram.o(i.qspi0_set_mode_bit)
    i.qspi0_set_remap_address                0x10018240   Section        0  driver_psram.o(i.qspi0_set_remap_address)
    i.qspi0_stig_cmd                         0x1001824c   Section        0  driver_psram.o(i.qspi0_stig_cmd)
    qspi0_stig_cmd                           0x1001824d   Thumb Code   568  driver_psram.o(i.qspi0_stig_cmd)
    i.qspi0_write_set_address_type           0x10018488   Section        0  driver_psram.o(i.qspi0_write_set_address_type)
    i.qspi0_write_set_data_type              0x1001849c   Section        0  driver_psram.o(i.qspi0_write_set_data_type)
    i.qspi0_write_set_dummy_cycles           0x100184b0   Section        0  driver_psram.o(i.qspi0_write_set_dummy_cycles)
    i.qspi0_write_set_opcode                 0x100184c4   Section        0  driver_psram.o(i.qspi0_write_set_opcode)
    i.qspi0_write_set_wel_dis                0x100184d8   Section        0  driver_psram.o(i.qspi0_write_set_wel_dis)
    i.readKey                                0x100184ec   Section        0  sdl_event.o(i.readKey)
    i.resource_load_string                   0x10018500   Section        0  resource.o(i.resource_load_string)
    i.rwble_hl_init_imp                      0x1001856c   Section        0  rwble_hl.o(i.rwble_hl_init_imp)
    i.rwble_hl_reset                         0x1001858a   Section        0  rwble_hl.o(i.rwble_hl_reset)
    i.setLedColor                            0x100185a8   Section        0  other_app.o(i.setLedColor)
    i.show_reg                               0x10018608   Section        0  simple_gatt_service.o(i.show_reg)
    i.simple_peripheral_init                 0x10018640   Section        0  ble_simple_peripheral.o(i.simple_peripheral_init)
    i.smpc_ShiftLeft1Bit16ByteNum            0x10018728   Section        0  smpc_crypto.o(i.smpc_ShiftLeft1Bit16ByteNum)
    i.smpc_XOR_16_Byte_Array                 0x1001874c   Section        0  smpc_crypto.o(i.smpc_XOR_16_Byte_Array)
    i.smpc_aes_cmac_complete                 0x10018764   Section        0  smpc_crypto.o(i.smpc_aes_cmac_complete)
    i.smpc_aes_cmac_continue                 0x100187ac   Section        0  smpc_crypto.o(i.smpc_aes_cmac_continue)
    i.smpc_aes_cmac_init                     0x100188fc   Section        0  smpc_crypto.o(i.smpc_aes_cmac_init)
    i.smpc_calc_confirm_cont                 0x10018948   Section        0  smpc_api.o(i.smpc_calc_confirm_cont)
    i.smpc_calc_subkeys                      0x10018e98   Section        0  smpc.o(i.smpc_calc_subkeys)
    i.smpc_check_key_distrib                 0x10018f1c   Section        0  smpc.o(i.smpc_check_key_distrib)
    i.smpc_check_max_key_size                0x10018f9c   Section        0  smpc.o(i.smpc_check_max_key_size)
    i.smpc_check_pairing_feat                0x10018fc8   Section        0  smpc.o(i.smpc_check_pairing_feat)
    i.smpc_check_param                       0x10018fec   Section        0  smpc_util.o(i.smpc_check_param)
    i.smpc_check_repeated_attempts           0x10019070   Section        0  smpc.o(i.smpc_check_repeated_attempts)
    i.smpc_clear_timeout_timer               0x100190d4   Section        0  smpc.o(i.smpc_clear_timeout_timer)
    i.smpc_confirm_gen_rand                  0x10019108   Section        0  smpc_api.o(i.smpc_confirm_gen_rand)
    i.smpc_construcpublic_key_t_pdu          0x10019350   Section        0  smpc_util.o(i.smpc_construcpublic_key_t_pdu)
    smpc_construcpublic_key_t_pdu            0x10019351   Thumb Code    30  smpc_util.o(i.smpc_construcpublic_key_t_pdu)
    i.smpc_construct_dhkey_check_pdu         0x1001936e   Section        0  smpc_util.o(i.smpc_construct_dhkey_check_pdu)
    smpc_construct_dhkey_check_pdu           0x1001936f   Thumb Code     8  smpc_util.o(i.smpc_construct_dhkey_check_pdu)
    i.smpc_construct_enc_info_pdu            0x10019376   Section        0  smpc_util.o(i.smpc_construct_enc_info_pdu)
    smpc_construct_enc_info_pdu              0x10019377   Thumb Code     8  smpc_util.o(i.smpc_construct_enc_info_pdu)
    i.smpc_construct_id_addr_info_pdu        0x1001937e   Section        0  smpc_util.o(i.smpc_construct_id_addr_info_pdu)
    smpc_construct_id_addr_info_pdu          0x1001937f   Thumb Code    30  smpc_util.o(i.smpc_construct_id_addr_info_pdu)
    i.smpc_construct_id_info_pdu             0x1001939c   Section        0  smpc_util.o(i.smpc_construct_id_info_pdu)
    smpc_construct_id_info_pdu               0x1001939d   Thumb Code     8  smpc_util.o(i.smpc_construct_id_info_pdu)
    i.smpc_construct_keypress_notification_pdu 0x100193a4   Section        0  smpc_util.o(i.smpc_construct_keypress_notification_pdu)
    smpc_construct_keypress_notification_pdu 0x100193a5   Thumb Code     6  smpc_util.o(i.smpc_construct_keypress_notification_pdu)
    i.smpc_construct_mst_id_pdu              0x100193aa   Section        0  smpc_util.o(i.smpc_construct_mst_id_pdu)
    smpc_construct_mst_id_pdu                0x100193ab   Thumb Code    18  smpc_util.o(i.smpc_construct_mst_id_pdu)
    i.smpc_construct_pair_cfm_pdu            0x100193bc   Section        0  smpc_util.o(i.smpc_construct_pair_cfm_pdu)
    smpc_construct_pair_cfm_pdu              0x100193bd   Thumb Code     8  smpc_util.o(i.smpc_construct_pair_cfm_pdu)
    i.smpc_construct_pair_fail_pdu           0x100193c4   Section        0  smpc_util.o(i.smpc_construct_pair_fail_pdu)
    smpc_construct_pair_fail_pdu             0x100193c5   Thumb Code     6  smpc_util.o(i.smpc_construct_pair_fail_pdu)
    i.smpc_construct_pair_rand_pdu           0x100193ca   Section        0  smpc_util.o(i.smpc_construct_pair_rand_pdu)
    smpc_construct_pair_rand_pdu             0x100193cb   Thumb Code     8  smpc_util.o(i.smpc_construct_pair_rand_pdu)
    i.smpc_construct_pair_req_pdu            0x100193d2   Section        0  smpc_util.o(i.smpc_construct_pair_req_pdu)
    smpc_construct_pair_req_pdu              0x100193d3   Thumb Code    12  smpc_util.o(i.smpc_construct_pair_req_pdu)
    i.smpc_construct_pair_rsp_pdu            0x100193de   Section        0  smpc_util.o(i.smpc_construct_pair_rsp_pdu)
    smpc_construct_pair_rsp_pdu              0x100193df   Thumb Code    12  smpc_util.o(i.smpc_construct_pair_rsp_pdu)
    i.smpc_construct_sec_req_pdu             0x100193ea   Section        0  smpc_util.o(i.smpc_construct_sec_req_pdu)
    smpc_construct_sec_req_pdu               0x100193eb   Thumb Code     6  smpc_util.o(i.smpc_construct_sec_req_pdu)
    i.smpc_construct_sign_info_pdu           0x100193f0   Section        0  smpc_util.o(i.smpc_construct_sign_info_pdu)
    smpc_construct_sign_info_pdu             0x100193f1   Thumb Code     8  smpc_util.o(i.smpc_construct_sign_info_pdu)
    i.smpc_encrypt_cfm                       0x100193f8   Section        0  smpc_api.o(i.smpc_encrypt_cfm)
    i.smpc_encrypt_start                     0x10019430   Section        0  smpc_api.o(i.smpc_encrypt_start)
    i.smpc_encrypt_start_handler             0x10019456   Section        0  smpc_api.o(i.smpc_encrypt_start_handler)
    i.smpc_f4_Init                           0x10019490   Section        0  smpc_crypto.o(i.smpc_f4_Init)
    i.smpc_f4_complete                       0x100194ec   Section        0  smpc_crypto.o(i.smpc_f4_complete)
    i.smpc_f5_complete                       0x10019524   Section        0  smpc_crypto.o(i.smpc_f5_complete)
    i.smpc_f5_init                           0x1001955c   Section        0  smpc_crypto.o(i.smpc_f5_init)
    i.smpc_f6_complete                       0x1001960c   Section        0  smpc_crypto.o(i.smpc_f6_complete)
    i.smpc_f6_init                           0x10019644   Section        0  smpc_crypto.o(i.smpc_f6_init)
    i.smpc_g2_complete                       0x100196e0   Section        0  smpc_crypto.o(i.smpc_g2_complete)
    i.smpc_g2_init                           0x10019718   Section        0  smpc_crypto.o(i.smpc_g2_init)
    i.smpc_generate_cfm                      0x10019780   Section        0  smpc.o(i.smpc_generate_cfm)
    i.smpc_generate_ci                       0x10019800   Section        0  smpc.o(i.smpc_generate_ci)
    i.smpc_generate_e1                       0x10019874   Section        0  smpc.o(i.smpc_generate_e1)
    i.smpc_generate_l                        0x1001992c   Section        0  smpc.o(i.smpc_generate_l)
    i.smpc_generate_rand                     0x10019984   Section        0  smpc.o(i.smpc_generate_rand)
    i.smpc_generate_stk                      0x100199b4   Section        0  smpc.o(i.smpc_generate_stk)
    i.smpc_get_key_sec_prop                  0x10019a04   Section        0  smpc.o(i.smpc_get_key_sec_prop)
    i.smpc_get_next_passkey_bit              0x10019b0c   Section        0  smpc.o(i.smpc_get_next_passkey_bit)
    i.smpc_handle_dh_key_check_complete      0x10019b3c   Section        0  smpc.o(i.smpc_handle_dh_key_check_complete)
    i.smpc_handle_enc_change_evt             0x10019b7c   Section        0  smpc.o(i.smpc_handle_enc_change_evt)
    i.smpc_init_mac_key_calculation          0x10019cb4   Section        0  smpc.o(i.smpc_init_mac_key_calculation)
    i.smpc_initiate_dhkey_check              0x10019d5c   Section        0  smpc.o(i.smpc_initiate_dhkey_check)
    i.smpc_initiate_dhkey_verification       0x10019e30   Section        0  smpc.o(i.smpc_initiate_dhkey_verification)
    i.smpc_is_sec_mode_reached               0x10019f04   Section        0  smpc.o(i.smpc_is_sec_mode_reached)
    i.smpc_key_press_notification_ind        0x10019f30   Section        0  smpc_api.o(i.smpc_key_press_notification_ind)
    i.smpc_launch_rep_att_timer              0x10019f58   Section        0  smpc.o(i.smpc_launch_rep_att_timer)
    i.smpc_pairing_csrk_exch                 0x10019fa4   Section        0  smpc_api.o(i.smpc_pairing_csrk_exch)
    i.smpc_pairing_end                       0x10019ff0   Section        0  smpc.o(i.smpc_pairing_end)
    i.smpc_pairing_irk_exch                  0x1001a050   Section        0  smpc_api.o(i.smpc_pairing_irk_exch)
    i.smpc_pairing_ltk_exch                  0x1001a098   Section        0  smpc_api.o(i.smpc_pairing_ltk_exch)
    i.smpc_pairing_nc_exch                   0x1001a104   Section        0  smpc_api.o(i.smpc_pairing_nc_exch)
    i.smpc_pairing_oob_exch                  0x1001a15c   Section        0  smpc_api.o(i.smpc_pairing_oob_exch)
    i.smpc_pairing_req_handler               0x1001a224   Section        0  smpc_api.o(i.smpc_pairing_req_handler)
    i.smpc_pairing_rsp                       0x1001a264   Section        0  smpc_api.o(i.smpc_pairing_rsp)
    i.smpc_pairing_start                     0x1001a39c   Section        0  smpc_api.o(i.smpc_pairing_start)
    i.smpc_pairing_tk_exch                   0x1001a448   Section        0  smpc_api.o(i.smpc_pairing_tk_exch)
    i.smpc_pdu_recv                          0x1001a540   Section        0  smpc.o(i.smpc_pdu_recv)
    i.smpc_pdu_send                          0x1001a598   Section        0  smpc.o(i.smpc_pdu_send)
    i.smpc_process_aes_cmac                  0x1001a628   Section        0  smpc_crypto.o(i.smpc_process_aes_cmac)
    i.smpc_recv_dhkey_check_pdu              0x1001a664   Section        0  smpc_util.o(i.smpc_recv_dhkey_check_pdu)
    smpc_recv_dhkey_check_pdu                0x1001a665   Thumb Code   126  smpc_util.o(i.smpc_recv_dhkey_check_pdu)
    i.smpc_recv_enc_info_pdu                 0x1001a744   Section        0  smpc_util.o(i.smpc_recv_enc_info_pdu)
    smpc_recv_enc_info_pdu                   0x1001a745   Thumb Code    48  smpc_util.o(i.smpc_recv_enc_info_pdu)
    i.smpc_recv_id_addr_info_pdu             0x1001a778   Section        0  smpc_util.o(i.smpc_recv_id_addr_info_pdu)
    smpc_recv_id_addr_info_pdu               0x1001a779   Thumb Code    74  smpc_util.o(i.smpc_recv_id_addr_info_pdu)
    i.smpc_recv_id_info_pdu                  0x1001a7c8   Section        0  smpc_util.o(i.smpc_recv_id_info_pdu)
    smpc_recv_id_info_pdu                    0x1001a7c9   Thumb Code    48  smpc_util.o(i.smpc_recv_id_info_pdu)
    i.smpc_recv_keypress_notification_pdu    0x1001a7fc   Section        0  smpc_util.o(i.smpc_recv_keypress_notification_pdu)
    smpc_recv_keypress_notification_pdu      0x1001a7fd   Thumb Code   100  smpc_util.o(i.smpc_recv_keypress_notification_pdu)
    i.smpc_recv_mst_id_pdu                   0x1001a8cc   Section        0  smpc_util.o(i.smpc_recv_mst_id_pdu)
    smpc_recv_mst_id_pdu                     0x1001a8cd   Thumb Code    84  smpc_util.o(i.smpc_recv_mst_id_pdu)
    i.smpc_recv_pair_cfm_pdu                 0x1001a924   Section        0  smpc_util.o(i.smpc_recv_pair_cfm_pdu)
    smpc_recv_pair_cfm_pdu                   0x1001a925   Thumb Code   240  smpc_util.o(i.smpc_recv_pair_cfm_pdu)
    i.smpc_recv_pair_fail_pdu                0x1001aa18   Section        0  smpc_util.o(i.smpc_recv_pair_fail_pdu)
    smpc_recv_pair_fail_pdu                  0x1001aa19   Thumb Code    58  smpc_util.o(i.smpc_recv_pair_fail_pdu)
    i.smpc_recv_pair_rand_pdu                0x1001aa58   Section        0  smpc_util.o(i.smpc_recv_pair_rand_pdu)
    smpc_recv_pair_rand_pdu                  0x1001aa59   Thumb Code   496  smpc_util.o(i.smpc_recv_pair_rand_pdu)
    i.smpc_recv_pair_req_pdu                 0x1001ac4c   Section        0  smpc_util.o(i.smpc_recv_pair_req_pdu)
    smpc_recv_pair_req_pdu                   0x1001ac4d   Thumb Code   162  smpc_util.o(i.smpc_recv_pair_req_pdu)
    i.smpc_recv_pair_rsp_pdu                 0x1001acf4   Section        0  smpc_util.o(i.smpc_recv_pair_rsp_pdu)
    smpc_recv_pair_rsp_pdu                   0x1001acf5   Thumb Code   292  smpc_util.o(i.smpc_recv_pair_rsp_pdu)
    i.smpc_recv_public_key_pdu               0x1001ae1c   Section        0  smpc_util.o(i.smpc_recv_public_key_pdu)
    smpc_recv_public_key_pdu                 0x1001ae1d   Thumb Code   210  smpc_util.o(i.smpc_recv_public_key_pdu)
    i.smpc_recv_sec_req_pdu                  0x1001af50   Section        0  smpc_util.o(i.smpc_recv_sec_req_pdu)
    smpc_recv_sec_req_pdu                    0x1001af51   Thumb Code   124  smpc_util.o(i.smpc_recv_sec_req_pdu)
    i.smpc_recv_sign_info_pdu                0x1001afd0   Section        0  smpc_util.o(i.smpc_recv_sign_info_pdu)
    smpc_recv_sign_info_pdu                  0x1001afd1   Thumb Code    48  smpc_util.o(i.smpc_recv_sign_info_pdu)
    i.smpc_secure_connections_enabled        0x1001b004   Section        0  smpc.o(i.smpc_secure_connections_enabled)
    i.smpc_security_req_send                 0x1001b014   Section        0  smpc_api.o(i.smpc_security_req_send)
    i.smpc_send_gen_dh_key_cmd               0x1001b068   Section        0  smpc.o(i.smpc_send_gen_dh_key_cmd)
    i.smpc_send_ltk_req_rsp                  0x1001b0a8   Section        0  smpc.o(i.smpc_send_ltk_req_rsp)
    i.smpc_send_pairing_ind                  0x1001b120   Section        0  smpc.o(i.smpc_send_pairing_ind)
    i.smpc_send_pairing_req_ind              0x1001b1d0   Section        0  smpc.o(i.smpc_send_pairing_req_ind)
    i.smpc_send_start_enc_cmd                0x1001b2d0   Section        0  smpc.o(i.smpc_send_start_enc_cmd)
    i.smpc_send_use_enc_block_cmd            0x1001b358   Section        0  smpc.o(i.smpc_send_use_enc_block_cmd)
    i.smpc_sign_command                      0x1001b398   Section        0  smpc_api.o(i.smpc_sign_command)
    i.smpc_sign_cont                         0x1001b480   Section        0  smpc_api.o(i.smpc_sign_cont)
    i.smpc_tkdp_rcp_continue                 0x1001b658   Section        0  smpc.o(i.smpc_tkdp_rcp_continue)
    i.smpc_tkdp_rcp_start                    0x1001b71c   Section        0  smpc.o(i.smpc_tkdp_rcp_start)
    i.smpc_tkdp_send_continue                0x1001b74c   Section        0  smpc.o(i.smpc_tkdp_send_continue)
    i.smpc_tkdp_send_start                   0x1001b830   Section        0  smpc.o(i.smpc_tkdp_send_start)
    i.smpc_xor                               0x1001b860   Section        0  smpc.o(i.smpc_xor)
    i.sp_gatt_add_service                    0x1001b878   Section        0  simple_gatt_service.o(i.sp_gatt_add_service)
    i.sp_gatt_msg_handler                    0x1001b8a4   Section        0  simple_gatt_service.o(i.sp_gatt_msg_handler)
    sp_gatt_msg_handler                      0x1001b8a5   Thumb Code   328  simple_gatt_service.o(i.sp_gatt_msg_handler)
    i.sp_start_adv                           0x1001ba98   Section        0  ble_simple_peripheral.o(i.sp_start_adv)
    sp_start_adv                             0x1001ba99   Thumb Code    92  ble_simple_peripheral.o(i.sp_start_adv)
    i.specific_cmd_proc                      0x1001bb3c   Section        0  dgus_cmd.o(i.specific_cmd_proc)
    i.spi_master_init                        0x1001bb4a   Section        0  driver_spi_master.o(i.spi_master_init)
    i.spi_master_transmit_X1                 0x1001bbe4   Section        0  driver_spi_master.o(i.spi_master_transmit_X1)
    i.system_get_clock                       0x1001bc4e   Section        0  sys_utisl.o(i.system_get_clock)
    i.system_get_unique_ID                   0x1001bc54   Section        0  sys_utisl.o(i.system_get_unique_ID)
    i.system_set_clock                       0x1001bd20   Section        0  sys_utisl.o(i.system_set_clock)
    i.system_set_port_pull                   0x1001bd30   Section        0  sys_utisl.o(i.system_set_port_pull)
    i.system_set_tx_power                    0x1001bd64   Section        0  sys_utisl.o(i.system_set_tx_power)
    i.system_sleep_disable                   0x1001be20   Section        0  sys_utisl.o(i.system_sleep_disable)
    i.t_sprint                               0x1001be28   Section        0  numtext.o(i.t_sprint)
    i.timer0_isr                             0x1001be78   Section        0  gui_main.o(i.timer0_isr)
    i.timer_init                             0x1001be98   Section        0  driver_timer.o(i.timer_init)
    i.timer_int_clear                        0x1001beac   Section        0  driver_timer.o(i.timer_int_clear)
    i.timer_start                            0x1001beb2   Section        0  driver_timer.o(i.timer_start)
    i.trng_flow_w_specific_smp_cnt           0x1001bebc   Section        0  trng.o(i.trng_flow_w_specific_smp_cnt)
    trng_flow_w_specific_smp_cnt             0x1001bebd   Thumb Code   166  trng.o(i.trng_flow_w_specific_smp_cnt)
    i.trng_init                              0x1001bf68   Section        0  trng.o(i.trng_init)
    i.trng_read_rand_num                     0x1001bf6c   Section        0  trng.o(i.trng_read_rand_num)
    i.uart1_isr_int                          0x1001bfc4   Section        0  uartcomm.o(i.uart1_isr_int)
    i.uart_config_baudRate                   0x1001bfdc   Section        0  driver_uart_ex.o(i.uart_config_baudRate)
    i.uart_init_ex                           0x1001c0a8   Section        0  driver_uart_ex.o(i.uart_init_ex)
    i.uart_isr_int                           0x1001c158   Section        0  uartupgradedev.o(i.uart_isr_int)
    i.uart_receive_IT                        0x1001c16e   Section        0  driver_uart_ex.o(i.uart_receive_IT)
    i.uart_transmit                          0x1001c190   Section        0  driver_uart_ex.o(i.uart_transmit)
    i.ui_air_on_animation_play_end           0x1001c1c6   Section        0  air.o(i.ui_air_on_animation_play_end)
    i.ui_air_on_button_touch_event           0x1001c1c8   Section        0  air.o(i.ui_air_on_button_touch_event)
    i.ui_air_on_page_open                    0x1001c1cc   Section        0  air.o(i.ui_air_on_page_open)
    i.ui_air_on_progress_changed             0x1001c224   Section        0  air.o(i.ui_air_on_progress_changed)
    i.ui_air_on_timer                        0x1001c228   Section        0  air.o(i.ui_air_on_timer)
    i.ui_hot_on_animation_play_end           0x1001c294   Section        0  hot.o(i.ui_hot_on_animation_play_end)
    i.ui_hot_on_button_touch_event           0x1001c296   Section        0  hot.o(i.ui_hot_on_button_touch_event)
    i.ui_hot_on_page_open                    0x1001c298   Section        0  hot.o(i.ui_hot_on_page_open)
    i.ui_hot_on_progress_changed             0x1001c2d0   Section        0  hot.o(i.ui_hot_on_progress_changed)
    i.ui_hot_on_timer                        0x1001c2d2   Section        0  hot.o(i.ui_hot_on_timer)
    i.ui_wind_on_animation_play_end          0x1001c2d4   Section        0  wind.o(i.ui_wind_on_animation_play_end)
    i.ui_wind_on_button_touch_event          0x1001c2d6   Section        0  wind.o(i.ui_wind_on_button_touch_event)
    i.ui_wind_on_page_open                   0x1001c2d8   Section        0  wind.o(i.ui_wind_on_page_open)
    i.ui_wind_on_progress_changed            0x1001c33c   Section        0  wind.o(i.ui_wind_on_progress_changed)
    i.ui_wind_on_timer                       0x1001c33e   Section        0  wind.o(i.ui_wind_on_timer)
    i.uitimer_check                          0x1001c340   Section        0  sdl_timer.o(i.uitimer_check)
    i.uitimer_deinit                         0x1001c370   Section        0  sdl_timer.o(i.uitimer_deinit)
    i.uitimer_init                           0x1001c374   Section        0  sdl_timer.o(i.uitimer_init)
    i.updateEncodeStatus                     0x1001c3bc   Section        0  sdl_event.o(i.updateEncodeStatus)
    i.user_draw_imagetext_value              0x1001c3f4   Section        0  other_app.o(i.user_draw_imagetext_value)
    i.user_main                              0x1001c408   Section        0  proj_main.o(i.user_main)
    i.vTask1                                 0x1001c5fc   Section        0  proj_main.o(i.vTask1)
    i.video_deinit                           0x1001c698   Section        0  sdl_video_1.o(i.video_deinit)
    i.video_flip                             0x1001c69c   Section        0  sdl_video_1.o(i.video_flip)
    i.video_init                             0x1001c6a8   Section        0  sdl_video_1.o(i.video_init)
    i.widget_draw_graph                      0x1001cb94   Section        0  widget.o(i.widget_draw_graph)
    i.widget_invalidate                      0x1001cbf0   Section        0  widget.o(i.widget_invalidate)
    i.widget_is_touch_hit                    0x1001cbf4   Section        0  widget.o(i.widget_is_touch_hit)
    i.widget_proc                            0x1001cc0c   Section        0  widget.o(i.widget_proc)
    i.window_set_position                    0x1001cc34   Section        0  window.o(i.window_set_position)
    i.xmyYUhnoR49                            0x1001cc8a   Section        0  zksec.o(i.xmyYUhnoR49)
    xmyYUhnoR49                              0x1001cc8b   Thumb Code    38  zksec.o(i.xmyYUhnoR49)
    .constdata                               0x1001ccb0   Section       20  uartupgradedev.o(.constdata)
    .constdata                               0x1001ccc4   Section       60  gui_main.o(.constdata)
    .constdata                               0x1001cd00   Section        6  uartcomm.o(.constdata)
    .constdata                               0x1001cd08   Section       20  uartcomm.o(.constdata)
    .constdata                               0x1001cd1c   Section        2  simple_gatt_service.o(.constdata)
    .constdata                               0x1001cd1e   Section       17  simple_gatt_service.o(.constdata)
    .constdata                               0x1001cd2f   Section       17  simple_gatt_service.o(.constdata)
    .constdata                               0x1001cd40   Section       17  simple_gatt_service.o(.constdata)
    .constdata                               0x1001cd51   Section       17  simple_gatt_service.o(.constdata)
    .constdata                               0x1001cd62   Section       17  simple_gatt_service.o(.constdata)
    .constdata                               0x1001cd74   Section      504  simple_gatt_service.o(.constdata)
    .constdata                               0x1001cf6c   Section       12  ble_simple_peripheral.o(.constdata)
    .constdata                               0x1001cf78   Section       12  driver_flash.o(.constdata)
    .constdata                               0x1001cf84   Section       16  driver_psram.o(.constdata)
    psram_read_id_cmd                        0x1001cf84   Data           4  driver_psram.o(.constdata)
    enter_quad_mode_cmd                      0x1001cf88   Data           4  driver_psram.o(.constdata)
    reset_enable_cmd                         0x1001cf8c   Data           4  driver_psram.o(.constdata)
    reset_cmd                                0x1001cf90   Data           4  driver_psram.o(.constdata)
    .constdata                               0x1001cf94   Section        4  sdl_video_1.o(.constdata)
    .constdata                               0x1001cf98   Section        8  sdl_timer.o(.constdata)
    .constdata                               0x1001cfa0   Section       60  ui_context.o(.constdata)
    .constdata                               0x1001cfdc   Section        4  app.o(.constdata)
    appm_add_svc_func_list                   0x1001cfdc   Data           4  app.o(.constdata)
    .constdata                               0x1001cfe0   Section       50  sys_utisl.o(.constdata)
    tx_power_cfg_table                       0x1001cff4   Data          30  sys_utisl.o(.constdata)
    .constdata                               0x1001d014   Section      168  guicontext.o(.constdata)
    .constdata                               0x1001d0bc   Section      160  app_task.o(.constdata)
    appm_msg_handler_tab                     0x1001d0bc   Data         160  app_task.o(.constdata)
    .constdata                               0x1001d15c   Section       12  app_task.o(.constdata)
    .constdata                               0x1001d168   Section       48  app_sec.o(.constdata)
    .constdata                               0x1001d198   Section        8  app_sec.o(.constdata)
    .constdata                               0x1001d1a0   Section       88  gapm.o(.constdata)
    gapm_att_db                              0x1001d1a0   Data          88  gapm.o(.constdata)
    .constdata                               0x1001d1f8   Section       36  gattm.o(.constdata)
    gattm_att_db                             0x1001d1fc   Data          32  gattm.o(.constdata)
    .constdata                               0x1001d21c   Section       56  l2cc_task.o(.constdata)
    l2cc_msg_handler_tab                     0x1001d21c   Data          56  l2cc_task.o(.constdata)
    .constdata                               0x1001d254   Section       12  l2cc_task.o(.constdata)
    .constdata                               0x1001d260   Section      552  zksec.o(.constdata)
    NXfgAnor                                 0x1001d264   Data           4  zksec.o(.constdata)
    x3NJVhErtYur                             0x1001d268   Data         256  zksec.o(.constdata)
    e5J6QCXqR2XLAN                           0x1001d368   Data          16  zksec.o(.constdata)
    _s_unb64                                 0x1001d378   Data         256  zksec.o(.constdata)
    .constdata                               0x1001d488   Section      304  gapc_task.o(.constdata)
    gapc_msg_handler_tab                     0x1001d488   Data         304  gapc_task.o(.constdata)
    .constdata                               0x1001d5b8   Section       12  gapc_task.o(.constdata)
    .constdata                               0x1001d5c4   Section      512  gapm_task.o(.constdata)
    gapm_hci_cmd_cmp_event_handler_tab       0x1001d5c4   Data         408  gapm_task.o(.constdata)
    gapm_hci_cmd_stat_event_handler_tab      0x1001d75c   Data          24  gapm_task.o(.constdata)
    gapm_hci_le_event_handler_tab            0x1001d774   Data          80  gapm_task.o(.constdata)
    .constdata                               0x1001d7c4   Section      248  gapm_task.o(.constdata)
    gapm_msg_handler_tab                     0x1001d7c4   Data         248  gapm_task.o(.constdata)
    .constdata                               0x1001d8bc   Section       12  gapm_task.o(.constdata)
    .constdata                               0x1001d8c8   Section       25  smpc.o(.constdata)
    smpc_pair_method                         0x1001d8c8   Data          25  smpc.o(.constdata)
    .constdata                               0x1001d8e4   Section      140  atts.o(.constdata)
    atts_rights                              0x1001d8e4   Data          36  atts.o(.constdata)
    .constdata                               0x1001d970   Section      224  gattc_task.o(.constdata)
    gattc_msg_handler_tab                    0x1001d970   Data         224  gattc_task.o(.constdata)
    .constdata                               0x1001da50   Section       12  gattc_task.o(.constdata)
    .constdata                               0x1001da5c   Section        8  gattm_task.o(.constdata)
    gattm_msg_handler_tab                    0x1001da5c   Data           8  gattm_task.o(.constdata)
    .constdata                               0x1001da64   Section       12  gattm_task.o(.constdata)
    .constdata                               0x1001da70   Section      276  l2cc_pdu.o(.constdata)
    l2cc_signaling_pkt_format                0x1001da70   Data          92  l2cc_pdu.o(.constdata)
    l2cc_security_pkt_format                 0x1001dacc   Data          60  l2cc_pdu.o(.constdata)
    l2cc_attribute_pkt_format                0x1001db08   Data         124  l2cc_pdu.o(.constdata)
    .constdata                               0x1001db84   Section       24  l2cc_sig.o(.constdata)
    .constdata                               0x1001db9c   Section      216  gapc_hci.o(.constdata)
    hci_cmd_cmp_event_handler_tab            0x1001db9c   Data          72  gapc_hci.o(.constdata)
    hci_cmd_stat_event_handler_tab           0x1001dbe4   Data          48  gapc_hci.o(.constdata)
    hci_le_event_handler_tab                 0x1001dc14   Data          56  gapc_hci.o(.constdata)
    hci_event_handler_tab                    0x1001dc4c   Data          40  gapc_hci.o(.constdata)
    .constdata                               0x1001dc74   Section       24  gapc_sig.o(.constdata)
    .constdata                               0x1001dc8c   Section       60  smpc_util.o(.constdata)
    .constdata                               0x1001dcc8   Section       60  smpc_util.o(.constdata)
    .constdata                               0x1001dd04   Section      112  attc.o(.constdata)
    .conststring                             0x1001dd74   Section        8  proj_main.o(.conststring)
    .conststring                             0x1001dd7c   Section        4  gap_api.o(.conststring)
