


ARM Macro Assembler    Page 1 


    1 00000000         ;/******************************************************
                       ***********************
    2 00000000         ; * @file:    startup_MPS_CM3.s
    3 00000000         ; * @purpose: CMSIS Cortex-M3 Core Device Startup File 
    4 00000000         ; *           for the ARM 'Microcontroller Prototyping S
                       ystem' 
    5 00000000         ; * @version: V1.01
    6 00000000         ; * @date:    19. Aug. 2009
    7 00000000         ; *------- <<< Use Configuration Wizard in Context Menu 
                       >>> ------------------
    8 00000000         ; *
    9 00000000         ; * Copyright (C) 2008-2009 ARM Limited. All rights rese
                       rved.
   10 00000000         ; * ARM Limited (ARM) is supplying this software for use
                        with Cortex-M3 
   11 00000000         ; * processor based microcontrollers.  This file can be 
                       freely distributed 
   12 00000000         ; * within development tools that are supporting such AR
                       M based processors. 
   13 00000000         ; *
   14 00000000         ; * THIS SOFTWARE IS PROVIDED "AS IS".  NO WARRANTIES, W
                       HETHER EXPRESS, IMPLIED
   15 00000000         ; * OR STATUTORY, INCLUDING, BUT NOT LIMITED TO, IMPLIED
                        WARRANTIES OF
   16 00000000         ; * MERCHANTABILITY AND FITNESS FOR A PARTICULAR PURPOSE
                        APPLY TO THIS SOFTWARE.
   17 00000000         ; * ARM SHALL NOT, IN ANY CIRCUMSTANCES, BE LIABLE FOR S
                       PECIAL, INCIDENTAL, OR
   18 00000000         ; * CONSEQUENTIAL DAMAGES, FOR ANY REASON WHATSOEVER.
   19 00000000         ; *
   20 00000000         ; ******************************************************
                       ***********************/
   21 00000000         
   22 00000000         ; <h> Stack Configuration
   23 00000000         ;   <o> Stack Size (in Bytes) <0x0-0xFFFFFFFF:8>
   24 00000000         ; </h>
   25 00000000         
   26 00000000                 IMPORT           Reset_Handler
   27 00000000                 IMPORT           rwble_isr_ram
   28 00000000         
   29 00000000                 PRESERVE8
   30 00000000                 THUMB
   31 00000000         
   32 00000000         ; Vector Table Mapped to Address 0 at Reset
   33 00000000         
   34 00000000                 AREA             RESET, DATA, READONLY
   35 00000000         
   36 00000000 1100C000 
                       __initial_sp
                               EQU              0x1100c000
   37 00000000         
   38 00000000 1100C000        DCD              __initial_sp ;
   39 00000004 00000000        DCD              Reset_Handler ; Reset Handler
   40 00000008 00000000        DCD              NMI_Handler ; NMI Handler
   41 0000000C 00000000        DCD              HardFault_Handler ; Hard Fault 
                                                            Handler
   42 00000010 00000000        DCD              MemManage_Handler 
                                                            ; MPU Fault Handler
                                                            



ARM Macro Assembler    Page 2 


   43 00000014 00000000        DCD              BusFault_Handler 
                                                            ; Bus Fault Handler
                                                            
   44 00000018 00000000        DCD              UsageFault_Handler ; Usage Faul
                                                            t Handler
   45 0000001C 00000000        DCD              0           ; Reserved
   46 00000020 00000000        DCD              0           ; Reserved
   47 00000024 00000000        DCD              0           ; Reserved
   48 00000028 00000000        DCD              0           ; Reserved
   49 0000002C 00000000        DCD              SVC_Handler ; SVCall Handler
   50 00000030 00000000        DCD              DebugMon_Handler ; Debug Monito
                                                            r Handler
   51 00000034 00000000        DCD              0           ; Reserved
   52 00000038 00000000        DCD              PendSV_Handler ; PendSV Handler
                                                            
   53 0000003C 00000000        DCD              SysTick_Handler 
                                                            ; SysTick Handler
   54 00000040         
   55 00000040 00000000        DCD              rwble_isr_ram ; 0
   56 00000044 00000000        DCD              dma_isr     ; 1
   57 00000048 00000000        DCD              timer0_isr  ; 2
   58 0000004C 00000000        DCD              timer1_isr  ; 3
   59 00000050 00000000        DCD              i2c0_isr    ; 4
   60 00000054 00000000        DCD              i2c1_isr    ; 5
   61 00000058 00000000        DCD              spim0_isr   ; 6
   62 0000005C 00000000        DCD              spim1_isr   ; 7
   63 00000060 00000000        DCD              spis_isr    ; 8
   64 00000064 00000000        DCD              uart0_isr   ; 9
   65 00000068 00000000        DCD              uart1_isr   ; 10
   66 0000006C 00000000        DCD              pdm_isr     ; 11
   67 00000070 00000000        DCD              0           ; 12
   68 00000074 00000000        DCD              0           ; 13
   69 00000078 00000000        DCD              exti_isr    ; 14
   70 0000007C 00000000        DCD              pmu_isr     ; 15
   71 00000080 00000000        DCD              0           ; 16
   72 00000084 00000000        DCD              0           ; 17
   73 00000088 00000000        DCD              pwm_isr     ; 18
   74 0000008C 00000000        DCD              USB_IRQHandler ; 19
   75 00000090 00000000        DCD              0           ; 20
   76 00000094 00000000        DCD              lcd_isr     ; 21
   77 00000098 00000000        DCD              0           ; 22
   78 0000009C 00000000        DCD              i2s_isr     ; 23
   79 000000A0                 AREA             |.text|, CODE, READONLY
   80 00000000         
   81 00000000         ; Dummy Exception Handlers (infinite loops which can be 
                       modified)
   82 00000000         Default_Handler
                               PROC
   83 00000000                 EXPORT           NMI_Handler             [WEAK]
   84 00000000                 EXPORT           HardFault_Handler       [WEAK]
   85 00000000                 EXPORT           MemManage_Handler       [WEAK]
   86 00000000                 EXPORT           BusFault_Handler        [WEAK]
   87 00000000                 EXPORT           UsageFault_Handler      [WEAK]
   88 00000000                 EXPORT           DebugMon_Handler        [WEAK]
   89 00000000                 EXPORT           PendSV_Handler          [WEAK]
   90 00000000                 EXPORT           SysTick_Handler         [WEAK]
   91 00000000                 EXPORT           dma_isr                 [WEAK]
   92 00000000                 EXPORT           timer0_isr              [WEAK]
   93 00000000                 EXPORT           timer1_isr              [WEAK]



ARM Macro Assembler    Page 3 


   94 00000000                 EXPORT           i2c0_isr                [WEAK]
   95 00000000                 EXPORT           i2c1_isr                [WEAK]
   96 00000000                 EXPORT           spim0_isr               [WEAK]
   97 00000000                 EXPORT           spim1_isr               [WEAK]
   98 00000000                 EXPORT           spis_isr                [WEAK]
   99 00000000                 EXPORT           uart0_isr               [WEAK]
  100 00000000                 EXPORT           uart1_isr               [WEAK]
  101 00000000                 EXPORT           uart0_isr               [WEAK]
  102 00000000                 EXPORT           uart1_isr               [WEAK]
  103 00000000                 EXPORT           exti_isr                [WEAK]
  104 00000000                 EXPORT           pmu_isr                 [WEAK]
  105 00000000                 EXPORT           pwm_isr                 [WEAK]
  106 00000000                 EXPORT           USB_IRQHandler          [WEAK]
  107 00000000                 EXPORT           lcd_isr                 [WEAK]
  108 00000000                 EXPORT           i2s_isr                 [WEAK]
  109 00000000                 EXPORT           pdm_isr                 [WEAK]
  110 00000000         NMI_Handler
  111 00000000         HardFault_Handler
  112 00000000         MemManage_Handler
  113 00000000         BusFault_Handler
  114 00000000         UsageFault_Handler
  115 00000000         DebugMon_Handler
  116 00000000         PendSV_Handler
  117 00000000         SysTick_Handler
  118 00000000         dma_isr
  119 00000000         timer0_isr
  120 00000000         timer1_isr
  121 00000000         i2c0_isr
  122 00000000         i2c1_isr
  123 00000000         spim0_isr
  124 00000000         spim1_isr
  125 00000000         spis_isr
  126 00000000         uart0_isr
  127 00000000         uart1_isr
  128 00000000         exti_isr
  129 00000000         pmu_isr
  130 00000000         pwm_isr
  131 00000000         USB_IRQHandler
  132 00000000         lcd_isr
  133 00000000         i2s_isr
  134 00000000         pdm_isr
  135 00000000 E7FE            B                .
  136 00000002                 ENDP
  137 00000002         
  138 00000002         SVC_Handler
                               PROC
  139 00000002                 EXPORT           SVC_Handler                 [WE
AK]
  140 00000002                 IMPORT           svc_exception_handler
  141 00000002         
  142 00000002 B500            PUSH             {LR}
  143 00000004 9807            LDR              R0, [SP, #0x1C]
  144 00000006 4902            LDR              R1, =svc_exception_handler
  145 00000008 6809            LDR              R1, [R1, #0]
  146 0000000A 4788            BLX              R1
  147 0000000C 9007            STR              R0, [SP, #0x1C]
  148 0000000E BD00            POP              {PC}
  149 00000010                 ENDP
  150 00000010         



ARM Macro Assembler    Page 4 


  151 00000010                 END
              00000000 
Command Line: --debug --xref --diag_suppress=9931 --cpu=Cortex-M3 --apcs=interw
ork --depend=.\objects\boot_vectors.d -o.\objects\boot_vectors.o -ID:\Keil\ARM\
RV31\INC -ID:\Keil\ARM\CMSIS\Include --predefine="__MICROLIB SETA 1" --predefin
e="__UVISION_VERSION SETA 527" --list=.\listings\boot_vectors.lst ..\..\compone
nts\modules\platform\src\keil\boot_vectors.s



ARM Macro Assembler    Page 1 Alphabetic symbol ordering
Relocatable symbols

RESET 00000000

Symbol: RESET
   Definitions
      At line 34 in file ..\..\components\modules\platform\src\keil\boot_vector
s.s
   Uses
      None
Comment: RESET unused
1 symbol



ARM Macro Assembler    Page 1 Alphabetic symbol ordering
Relocatable symbols

.text 00000000

Symbol: .text
   Definitions
      At line 79 in file ..\..\components\modules\platform\src\keil\boot_vector
s.s
   Uses
      None
Comment: .text unused
BusFault_Handler 00000000

Symbol: BusFault_Handler
   Definitions
      At line 113 in file ..\..\components\modules\platform\src\keil\boot_vecto
rs.s
   Uses
      At line 43 in file ..\..\components\modules\platform\src\keil\boot_vector
s.s
      At line 86 in file ..\..\components\modules\platform\src\keil\boot_vector
s.s

DebugMon_Handler 00000000

Symbol: DebugMon_Handler
   Definitions
      At line 115 in file ..\..\components\modules\platform\src\keil\boot_vecto
rs.s
   Uses
      At line 50 in file ..\..\components\modules\platform\src\keil\boot_vector
s.s
      At line 88 in file ..\..\components\modules\platform\src\keil\boot_vector
s.s

Default_Handler 00000000

Symbol: Default_Handler
   Definitions
      At line 82 in file ..\..\components\modules\platform\src\keil\boot_vector
s.s
   Uses
      None
Comment: Default_Handler unused
HardFault_Handler 00000000

Symbol: HardFault_Handler
   Definitions
      At line 111 in file ..\..\components\modules\platform\src\keil\boot_vecto
rs.s
   Uses
      At line 41 in file ..\..\components\modules\platform\src\keil\boot_vector
s.s
      At line 84 in file ..\..\components\modules\platform\src\keil\boot_vector
s.s

MemManage_Handler 00000000

Symbol: MemManage_Handler
   Definitions
      At line 112 in file ..\..\components\modules\platform\src\keil\boot_vecto



ARM Macro Assembler    Page 2 Alphabetic symbol ordering
Relocatable symbols

rs.s
   Uses
      At line 42 in file ..\..\components\modules\platform\src\keil\boot_vector
s.s
      At line 85 in file ..\..\components\modules\platform\src\keil\boot_vector
s.s

NMI_Handler 00000000

Symbol: NMI_Handler
   Definitions
      At line 110 in file ..\..\components\modules\platform\src\keil\boot_vecto
rs.s
   Uses
      At line 40 in file ..\..\components\modules\platform\src\keil\boot_vector
s.s
      At line 83 in file ..\..\components\modules\platform\src\keil\boot_vector
s.s

PendSV_Handler 00000000

Symbol: PendSV_Handler
   Definitions
      At line 116 in file ..\..\components\modules\platform\src\keil\boot_vecto
rs.s
   Uses
      At line 52 in file ..\..\components\modules\platform\src\keil\boot_vector
s.s
      At line 89 in file ..\..\components\modules\platform\src\keil\boot_vector
s.s

SVC_Handler 00000002

Symbol: SVC_Handler
   Definitions
      At line 138 in file ..\..\components\modules\platform\src\keil\boot_vecto
rs.s
   Uses
      At line 49 in file ..\..\components\modules\platform\src\keil\boot_vector
s.s
      At line 139 in file ..\..\components\modules\platform\src\keil\boot_vecto
rs.s

SysTick_Handler 00000000

Symbol: SysTick_Handler
   Definitions
      At line 117 in file ..\..\components\modules\platform\src\keil\boot_vecto
rs.s
   Uses
      At line 53 in file ..\..\components\modules\platform\src\keil\boot_vector
s.s
      At line 90 in file ..\..\components\modules\platform\src\keil\boot_vector
s.s

USB_IRQHandler 00000000

Symbol: USB_IRQHandler
   Definitions



ARM Macro Assembler    Page 3 Alphabetic symbol ordering
Relocatable symbols

      At line 131 in file ..\..\components\modules\platform\src\keil\boot_vecto
rs.s
   Uses
      At line 74 in file ..\..\components\modules\platform\src\keil\boot_vector
s.s
      At line 106 in file ..\..\components\modules\platform\src\keil\boot_vecto
rs.s

UsageFault_Handler 00000000

Symbol: UsageFault_Handler
   Definitions
      At line 114 in file ..\..\components\modules\platform\src\keil\boot_vecto
rs.s
   Uses
      At line 44 in file ..\..\components\modules\platform\src\keil\boot_vector
s.s
      At line 87 in file ..\..\components\modules\platform\src\keil\boot_vector
s.s

dma_isr 00000000

Symbol: dma_isr
   Definitions
      At line 118 in file ..\..\components\modules\platform\src\keil\boot_vecto
rs.s
   Uses
      At line 56 in file ..\..\components\modules\platform\src\keil\boot_vector
s.s
      At line 91 in file ..\..\components\modules\platform\src\keil\boot_vector
s.s

exti_isr 00000000

Symbol: exti_isr
   Definitions
      At line 128 in file ..\..\components\modules\platform\src\keil\boot_vecto
rs.s
   Uses
      At line 69 in file ..\..\components\modules\platform\src\keil\boot_vector
s.s
      At line 103 in file ..\..\components\modules\platform\src\keil\boot_vecto
rs.s

i2c0_isr 00000000

Symbol: i2c0_isr
   Definitions
      At line 121 in file ..\..\components\modules\platform\src\keil\boot_vecto
rs.s
   Uses
      At line 59 in file ..\..\components\modules\platform\src\keil\boot_vector
s.s
      At line 94 in file ..\..\components\modules\platform\src\keil\boot_vector
s.s

i2c1_isr 00000000

Symbol: i2c1_isr



ARM Macro Assembler    Page 4 Alphabetic symbol ordering
Relocatable symbols

   Definitions
      At line 122 in file ..\..\components\modules\platform\src\keil\boot_vecto
rs.s
   Uses
      At line 60 in file ..\..\components\modules\platform\src\keil\boot_vector
s.s
      At line 95 in file ..\..\components\modules\platform\src\keil\boot_vector
s.s

i2s_isr 00000000

Symbol: i2s_isr
   Definitions
      At line 133 in file ..\..\components\modules\platform\src\keil\boot_vecto
rs.s
   Uses
      At line 78 in file ..\..\components\modules\platform\src\keil\boot_vector
s.s
      At line 108 in file ..\..\components\modules\platform\src\keil\boot_vecto
rs.s

lcd_isr 00000000

Symbol: lcd_isr
   Definitions
      At line 132 in file ..\..\components\modules\platform\src\keil\boot_vecto
rs.s
   Uses
      At line 76 in file ..\..\components\modules\platform\src\keil\boot_vector
s.s
      At line 107 in file ..\..\components\modules\platform\src\keil\boot_vecto
rs.s

pdm_isr 00000000

Symbol: pdm_isr
   Definitions
      At line 134 in file ..\..\components\modules\platform\src\keil\boot_vecto
rs.s
   Uses
      At line 66 in file ..\..\components\modules\platform\src\keil\boot_vector
s.s
      At line 109 in file ..\..\components\modules\platform\src\keil\boot_vecto
rs.s

pmu_isr 00000000

Symbol: pmu_isr
   Definitions
      At line 129 in file ..\..\components\modules\platform\src\keil\boot_vecto
rs.s
   Uses
      At line 70 in file ..\..\components\modules\platform\src\keil\boot_vector
s.s
      At line 104 in file ..\..\components\modules\platform\src\keil\boot_vecto
rs.s

pwm_isr 00000000




ARM Macro Assembler    Page 5 Alphabetic symbol ordering
Relocatable symbols

Symbol: pwm_isr
   Definitions
      At line 130 in file ..\..\components\modules\platform\src\keil\boot_vecto
rs.s
   Uses
      At line 73 in file ..\..\components\modules\platform\src\keil\boot_vector
s.s
      At line 105 in file ..\..\components\modules\platform\src\keil\boot_vecto
rs.s

spim0_isr 00000000

Symbol: spim0_isr
   Definitions
      At line 123 in file ..\..\components\modules\platform\src\keil\boot_vecto
rs.s
   Uses
      At line 61 in file ..\..\components\modules\platform\src\keil\boot_vector
s.s
      At line 96 in file ..\..\components\modules\platform\src\keil\boot_vector
s.s

spim1_isr 00000000

Symbol: spim1_isr
   Definitions
      At line 124 in file ..\..\components\modules\platform\src\keil\boot_vecto
rs.s
   Uses
      At line 62 in file ..\..\components\modules\platform\src\keil\boot_vector
s.s
      At line 97 in file ..\..\components\modules\platform\src\keil\boot_vector
s.s

spis_isr 00000000

Symbol: spis_isr
   Definitions
      At line 125 in file ..\..\components\modules\platform\src\keil\boot_vecto
rs.s
   Uses
      At line 63 in file ..\..\components\modules\platform\src\keil\boot_vector
s.s
      At line 98 in file ..\..\components\modules\platform\src\keil\boot_vector
s.s

timer0_isr 00000000

Symbol: timer0_isr
   Definitions
      At line 119 in file ..\..\components\modules\platform\src\keil\boot_vecto
rs.s
   Uses
      At line 57 in file ..\..\components\modules\platform\src\keil\boot_vector
s.s
      At line 92 in file ..\..\components\modules\platform\src\keil\boot_vector
s.s

timer1_isr 00000000



ARM Macro Assembler    Page 6 Alphabetic symbol ordering
Relocatable symbols


Symbol: timer1_isr
   Definitions
      At line 120 in file ..\..\components\modules\platform\src\keil\boot_vecto
rs.s
   Uses
      At line 58 in file ..\..\components\modules\platform\src\keil\boot_vector
s.s
      At line 93 in file ..\..\components\modules\platform\src\keil\boot_vector
s.s

uart0_isr 00000000

Symbol: uart0_isr
   Definitions
      At line 126 in file ..\..\components\modules\platform\src\keil\boot_vecto
rs.s
   Uses
      At line 64 in file ..\..\components\modules\platform\src\keil\boot_vector
s.s
      At line 99 in file ..\..\components\modules\platform\src\keil\boot_vector
s.s
      At line 101 in file ..\..\components\modules\platform\src\keil\boot_vecto
rs.s

uart1_isr 00000000

Symbol: uart1_isr
   Definitions
      At line 127 in file ..\..\components\modules\platform\src\keil\boot_vecto
rs.s
   Uses
      At line 65 in file ..\..\components\modules\platform\src\keil\boot_vector
s.s
      At line 100 in file ..\..\components\modules\platform\src\keil\boot_vecto
rs.s
      At line 102 in file ..\..\components\modules\platform\src\keil\boot_vecto
rs.s

28 symbols



ARM Macro Assembler    Page 1 Alphabetic symbol ordering
Absolute symbols

__initial_sp 1100C000

Symbol: __initial_sp
   Definitions
      At line 36 in file ..\..\components\modules\platform\src\keil\boot_vector
s.s
   Uses
      At line 38 in file ..\..\components\modules\platform\src\keil\boot_vector
s.s
Comment: __initial_sp used once
1 symbol



ARM Macro Assembler    Page 1 Alphabetic symbol ordering
External symbols

Reset_Handler 00000000

Symbol: Reset_Handler
   Definitions
      At line 26 in file ..\..\components\modules\platform\src\keil\boot_vector
s.s
   Uses
      At line 39 in file ..\..\components\modules\platform\src\keil\boot_vector
s.s
Comment: Reset_Handler used once
rwble_isr_ram 00000000

Symbol: rwble_isr_ram
   Definitions
      At line 27 in file ..\..\components\modules\platform\src\keil\boot_vector
s.s
   Uses
      At line 55 in file ..\..\components\modules\platform\src\keil\boot_vector
s.s
Comment: rwble_isr_ram used once
svc_exception_handler 00000000

Symbol: svc_exception_handler
   Definitions
      At line 140 in file ..\..\components\modules\platform\src\keil\boot_vecto
rs.s
   Uses
      At line 144 in file ..\..\components\modules\platform\src\keil\boot_vecto
rs.s
Comment: svc_exception_handler used once
3 symbols
367 symbols in table
